

Microchip Technology PIC18 LITE Macro Assembler V1.45 build -152302408 
                                                                                               Tue Oct 29 12:43:04 2019

Microchip Technology Omniscient Code Generator v1.45 (Free mode) build 201711160504
     1                           	processor	18F8722
     2                           	fnconf	rparam,??,?,0
     3                           	opt	pw 120
     4                           	opt	lm
     5                           	psect	text0,global,reloc=2,class=CODE,delta=1
     6                           	psect	cinit,global,reloc=2,class=CODE,delta=1
     7                           	psect	cstackCOMRAM,global,class=COMRAM,space=1,delta=1,noexec
     8                           	psect	text1,global,reloc=2,class=CODE,delta=1
     9                           	psect	intsave_regs,global,class=BIGRAM,space=1,delta=1,noexec
    10                           	psect	rparam,global,class=COMRAM,space=1,delta=1,noexec
    11                           	dabs	1,0x93,1,_row_io
    12  0000                     
    13                           ; Version 1.45
    14                           ; Generated 16/11/2017 GMT
    15                           ; 
    16                           ; Copyright © 2017, Microchip Technology Inc. and its subsidiaries ("Microchip")
    17                           ; All rights reserved.
    18                           ; 
    19                           ; This software is developed by Microchip Technology Inc. and its subsidiaries ("Microch
      +                          ip").
    20                           ; 
    21                           ; Redistribution and use in source and binary forms, with or without modification, are
    22                           ; permitted provided that the following conditions are met:
    23                           ; 
    24                           ;     1. Redistributions of source code must retain the above copyright notice, this lis
      +                          t of
    25                           ;        conditions and the following disclaimer.
    26                           ; 
    27                           ;     2. Redistributions in binary form must reproduce the above copyright notice, this 
      +                          list
    28                           ;        of conditions and the following disclaimer in the documentation and/or other
    29                           ;        materials provided with the distribution.
    30                           ; 
    31                           ;     3. Microchip's name may not be used to endorse or promote products derived from th
      +                          is
    32                           ;        software without specific prior written permission.
    33                           ; 
    34                           ; THIS SOFTWARE IS PROVIDED BY MICROCHIP "AS IS" AND ANY EXPRESS OR IMPLIED WARRANTIES,
    35                           ; INCLUDING, BUT NOT LIMITED TO, THE IMPLIED WARRANTIES OF MERCHANTABILITY AND FITNESS F
      +                          OR
    36                           ; PURPOSE ARE DISCLAIMED.  IN NO EVENT SHALL MICROCHIP BE LIABLE FOR ANY DIRECT, INDIREC
      +                          T,
    37                           ; INCIDENTAL, SPECIAL, EXEMPLARY, OR CONSEQUENTIAL DAMAGES (INCLUDING BUT NOT LIMITED TO
    38                           ; PROCUREMENT OF SUBSTITUTE GOODS OR SERVICES; LOSS OF USE, DATA OR PROFITS; OR BUSINESS
    39                           ; INTERRUPTION) HOWSOEVER CAUSED AND ON ANY THEORY OF LIABILITY, WHETHER IN CONTRACT, ST
      +                          RICT
    40                           ; LIABILITY, OR TORT (INCLUDING NEGLIGENCE OR OTHERWISE) ARISING IN ANY WAY OUT OF THE U
      +                          SE OF
    41                           ; THIS SOFTWARE, EVEN IF ADVISED OF THE POSSIBILITY OF SUCH DAMAGE.
    42                           ; 
    43                           ; 
    44                           ; Code-generator required, PIC18F8722 Definitions
    45                           ; 
    46                           ; SFR Addresses
    47  0000                     
    48                           ; 1 bytes @ 0x0
    49 ;;
    50 ;;Main: autosize = 0, tempsize = 0, incstack = 0, save=0
    51 ;;
    52 ;; *************** function _main *****************
    53 ;; Defined at:
    54 ;;		line 23 in file "Tn05_mtled.c"
    55 ;; Parameters:    Size  Location     Type
    56 ;;		None
    57 ;; Auto vars:     Size  Location     Type
    58 ;;		None
    59 ;; Return value:  Size  Location     Type
    60 ;;                  1    wreg      void 
    61 ;; Registers used:
    62 ;;		wreg, status,2, cstack
    63 ;; Tracked objects:
    64 ;;		On entry : 0/0
    65 ;;		On exit  : 0/0
    66 ;;		Unchanged: 0/0
    67 ;; Data sizes:     COMRAM  BANK0h  BANK0l   BANK1   BANK2   BANK3   BANK4   BANK5   BANK6   BANK7   BANK8   BANK9  BANK1
      +0  BANK11  BANK12  BANK13  BANK14  BANK15
    68 ;;      Params:         0       0       0       0       0       0       0       0       0       0       0       0       
      +0       0       0       0       0       0
    69 ;;      Locals:         0       0       0       0       0       0       0       0       0       0       0       0       
      +0       0       0       0       0       0
    70 ;;      Temps:          0       0       0       0       0       0       0       0       0       0       0       0       
      +0       0       0       0       0       0
    71 ;;      Totals:         0       0       0       0       0       0       0       0       0       0       0       0       
      +0       0       0       0       0       0
    72 ;;Total ram usage:        0 bytes
    73 ;; Hardware stack levels required when called:    1
    74 ;; This function calls:
    75 ;;		_init
    76 ;; This function is called by:
    77 ;;		Startup code after reset
    78 ;; This function uses a non-reentrant model
    79 ;;
    80                           
    81                           	psect	text0
    82  01FFE8                     __ptext0:
    83                           	opt stack 0
    84  0000                     _TRISAbits	set	3986
    85  0000                     _ADCON1	set	4033
    86  0000                     
    87                           ; #config settings
    88  01FFE8                     _main:
    89                           	opt stack 30
    90                           
    91                           ;Tn05_mtled.c: 31: init();
    92                           
    93                           ;incstack = 0
    94  01FFE8  ECE9  F0FF         	call	_init	;wreg free
    95                           
    96                           ;Tn05_mtled.c: 32: row=0;gcol=0x3C;rcol=0xCC;row=0b00100000;
    97  01FFEC  0E00               	movlw	0
    98  01FFEE  6E8A               	movwf	3978,c	;volatile
    99  01FFF0  0E3C               	movlw	60
   100  01FFF2  6E8B               	movwf	3979,c	;volatile
   101  01FFF4  0ECC               	movlw	204
   102  01FFF6  6E8C               	movwf	3980,c	;volatile
   103  01FFF8  0E20               	movlw	32
   104  01FFFA  6E8A               	movwf	3978,c	;volatile
   105  01FFFC  EF00  F000         	goto	start
   106  020000                     __end_of_main:
   107                           	opt stack 0
   108                           
   109                           	psect	cinit
   110  01FFCC                     __pcinit:
   111                           	opt stack 0
   112  01FFCC                     start_initialization:
   113                           	opt stack 0
   114  01FFCC                     __initialization:
   115                           	opt stack 0
   116  01FFCC                     end_of_initialization:
   117                           	opt stack 0
   118  01FFCC                     __end_of__initialization:
   119                           	opt stack 0
   120  01FFCC  0100               	movlb	0
   121  01FFCE  EFF4  F0FF         	goto	_main	;jump to C main() function
   122                           
   123                           	psect	cstackCOMRAM
   124  000000                     __pcstackCOMRAM:
   125                           	opt stack 0
   126  000000                     
   127 ;; *************** function _init *****************
   128 ;; Defined at:
   129 ;;		line 13 in file "Tn05_mtled.c"
   130 ;; Parameters:    Size  Location     Type
   131 ;;		None
   132 ;; Auto vars:     Size  Location     Type
   133 ;;		None
   134 ;; Return value:  Size  Location     Type
   135 ;;                  1    wreg      void 
   136 ;; Registers used:
   137 ;;		wreg, status,2
   138 ;; Tracked objects:
   139 ;;		On entry : 0/0
   140 ;;		On exit  : 0/0
   141 ;;		Unchanged: 0/0
   142 ;; Data sizes:     COMRAM  BANK0h  BANK0l   BANK1   BANK2   BANK3   BANK4   BANK5   BANK6   BANK7   BANK8   BANK9  BANK1
      +0  BANK11  BANK12  BANK13  BANK14  BANK15
   143 ;;      Params:         0       0       0       0       0       0       0       0       0       0       0       0       
      +0       0       0       0       0       0
   144 ;;      Locals:         0       0       0       0       0       0       0       0       0       0       0       0       
      +0       0       0       0       0       0
   145 ;;      Temps:          0       0       0       0       0       0       0       0       0       0       0       0       
      +0       0       0       0       0       0
   146 ;;      Totals:         0       0       0       0       0       0       0       0       0       0       0       0       
      +0       0       0       0       0       0
   147 ;;Total ram usage:        0 bytes
   148 ;; Hardware stack levels used:    1
   149 ;; This function calls:
   150 ;;		Nothing
   151 ;; This function is called by:
   152 ;;		_main
   153 ;; This function uses a non-reentrant model
   154 ;;
   155                           
   156                           	psect	text1
   157  01FFD2                     __ptext1:
   158                           	opt stack 0
   159  01FFD2                     _init:
   160                           	opt stack 30
   161                           
   162                           ;Tn05_mtled.c: 15: ADCON1=0x0F;
   163                           
   164                           ;incstack = 0
   165  01FFD2  0E0F               	movlw	15
   166  01FFD4  6EC1               	movwf	4033,c	;volatile
   167                           
   168                           ;Tn05_mtled.c: 16: TRISAbits.RA5=1;
   169  01FFD6  8A92               	bsf	3986,5,c	;volatile
   170                           
   171                           ;Tn05_mtled.c: 17: row_io=0;
   172  01FFD8  0E00               	movlw	0
   173  01FFDA  0100               	movlb	0	; () banked
   174  01FFDC  6F93               	movwf	147,b	;volatile
   175                           
   176                           ;Tn05_mtled.c: 18: gcol_io=0;
   177  01FFDE  0E00               	movlw	0
   178  01FFE0  6E94               	movwf	3988,c	;volatile
   179                           
   180                           ;Tn05_mtled.c: 19: rcol_io=0;
   181  01FFE2  0E00               	movlw	0
   182  01FFE4  6E95               	movwf	3989,c	;volatile
   183                           
   184                           ; BSR set to: 0
   185  01FFE6  0012               	return		;funcret
   186  01FFE8                     __end_of_init:
   187                           	opt stack 0
   188  0000                     
   189                           	psect	rparam


Data Sizes:
    Strings     0
    Constant    0
    Data        0
    BSS         0
    Persistent  0
    Stack       0

Auto Spaces:
    Space          Size  Autos    Used
    COMRAM           95      0       0
    BANK0h          108      0       0
    BANK0l           51      0       0
    BANK1           256      0       0
    BANK2           256      0       0
    BANK3           256      0       0
    BANK4           256      0       0
    BANK5           256      0       0
    BANK6           256      0       0
    BANK7           256      0       0
    BANK8           256      0       0
    BANK9           256      0       0
    BANK10          256      0       0
    BANK11          256      0       0
    BANK12          256      0       0
    BANK13          256      0       0
    BANK14          256      0       0
    BANK15           96      0       0

Pointer List with Targets:

    None.

Critical Paths under _main in COMRAM

    None.

Critical Paths under _main in BANK0h

    None.

Critical Paths under _main in BANK0l

    None.

Critical Paths under _main in BANK1

    None.

Critical Paths under _main in BANK2

    None.

Critical Paths under _main in BANK3

    None.

Critical Paths under _main in BANK4

    None.

Critical Paths under _main in BANK5

    None.

Critical Paths under _main in BANK6

    None.

Critical Paths under _main in BANK7

    None.

Critical Paths under _main in BANK8

    None.

Critical Paths under _main in BANK9

    None.

Critical Paths under _main in BANK10

    None.

Critical Paths under _main in BANK11

    None.

Critical Paths under _main in BANK12

    None.

Critical Paths under _main in BANK13

    None.

Critical Paths under _main in BANK14

    None.

Critical Paths under _main in BANK15

    None.

Call Graph Tables:

 ---------------------------------------------------------------------------------
 (Depth) Function   	        Calls       Base Space   Used Autos Params    Refs
 ---------------------------------------------------------------------------------
 (0) _main                                                 0     0      0       0
                               _init
 ---------------------------------------------------------------------------------
 (1) _init                                                 0     0      0       0
 ---------------------------------------------------------------------------------
 Estimated maximum stack depth 1
 ---------------------------------------------------------------------------------

 Call Graph Graphs:

 _main (ROOT)
   _init

 Address spaces:
Name               Size   Autos  Total    Cost      Usage
BITCOMRAM           5F      0       0       0        0.0%
EEDATA             400      0       0       0        0.0%
NULL                 0      0       0       0        0.0%
CODE                 0      0       0       0        0.0%
COMRAM              5F      0       0       1        0.0%
STACK                0      0       0       2        0.0%
DATA                 0      0       0       3        0.0%
BITBANK0h           6C      0       0       4        0.0%
BITBANK0l           33      0       0       5        0.0%
BANK0h              6C      0       0       6        0.0%
BANK0l              33      0       0       7        0.0%
BITBANK1           100      0       0       8        0.0%
BANK1              100      0       0       9        0.0%
BITBANK2           100      0       0      10        0.0%
BANK2              100      0       0      11        0.0%
BITBANK3           100      0       0      12        0.0%
BANK3              100      0       0      13        0.0%
BITBANK4           100      0       0      14        0.0%
BANK4              100      0       0      15        0.0%
BITBANK5           100      0       0      16        0.0%
BANK5              100      0       0      17        0.0%
BITBANK6           100      0       0      18        0.0%
BANK6              100      0       0      19        0.0%
BITBANK7           100      0       0      20        0.0%
BANK7              100      0       0      21        0.0%
BITBANK8           100      0       0      22        0.0%
BANK8              100      0       0      23        0.0%
BITBANK9           100      0       0      24        0.0%
BANK9              100      0       0      25        0.0%
BITBANK10          100      0       0      26        0.0%
BANK10             100      0       0      27        0.0%
BITBANK11          100      0       0      28        0.0%
BANK11             100      0       0      29        0.0%
BITBANK12          100      0       0      30        0.0%
BANK12             100      0       0      31        0.0%
BITBANK13          100      0       0      32        0.0%
BANK13             100      0       0      33        0.0%
ABS                  0      0       0      34        0.0%
BITBANK14          100      0       0      35        0.0%
BANK14             100      0       0      36        0.0%
BITBANK15           60      0       0      37        0.0%
BANK15              60      0       0      38        0.0%
BIGRAMh            ECC      0       0      39        0.0%
BIGRAMl             92      0       0      40        0.0%
BITSFR               0      0       0     200        0.0%
SFR                  0      0       0     200        0.0%


Microchip Technology PIC18 Macro Assembler V1.45 build -152302408 
Symbol Table                                                                                   Tue Oct 29 12:43:04 2019

            __CFG_OSC$HS 000000                      _row 000F8A             __CFG_LVP$OFF 000000  
           __CFG_WDT$OFF 000000                     _gcol 000F8B                     _main FFE8  
                   _init FFD2                     _rcol 000F8C                     start 0000  
           ___param_bank 000000                    ?_main 0000                    ?_init 0000  
        __initialization FFCC             __end_of_main 0000             __end_of_init FFE8  
                 ??_main 0000                   ??_init 0000            __activetblptr 000000  
                 _ADCON1 000FC1                   _row_io 000093               __accesstop 0060  
__end_of__initialization FFCC            ___rparam_used 000001           __pcstackCOMRAM 0000  
                __Hparam 0000                  __Lparam 0000                  __pcinit FFCC  
                __ramtop 1000                  __ptext0 FFE8                  __ptext1 FFD2  
                _gcol_io 000F94                  _rcol_io 000F95     end_of_initialization FFCC  
              _TRISAbits 000F92      start_initialization FFCC                 __Hrparam 0000  
               __Lrparam 0000            __size_of_main 0018            __size_of_init 0016  
