

Microchip Technology PIC18 LITE Macro Assembler V1.45 build -152302408 
                                                                                               Tue Dec 03 13:04:04 2019

Microchip Technology Omniscient Code Generator v1.45 (Free mode) build 201711160504
     1                           	processor	18F8722
     2                           	fnconf	rparam,??,?,0
     3                           	opt	pw 120
     4                           	opt	lm
     5                           	psect	smallconst,global,reloc=2,class=SMALLCONST,delta=1,noexec
     6                           	psect	cinit,global,reloc=2,class=CODE,delta=1
     7                           	psect	bssCOMRAM,global,class=COMRAM,space=1,delta=1,noexec
     8                           	psect	cstackCOMRAM,global,class=COMRAM,space=1,delta=1,noexec
     9                           	psect	text0,global,reloc=2,class=CODE,delta=1
    10                           	psect	text1,global,reloc=2,class=CODE,delta=1
    11                           	psect	text2,global,reloc=2,class=CODE,delta=1
    12                           	psect	text3,global,reloc=2,class=CODE,delta=1
    13                           	psect	text4,global,reloc=2,class=CODE,delta=1
    14                           	psect	intsave_regs,global,class=BIGRAM,space=1,delta=1,noexec
    15                           	psect	rparam,global,class=COMRAM,space=1,delta=1,noexec
    16  0000                     
    17                           ; Version 1.45
    18                           ; Generated 16/11/2017 GMT
    19                           ; 
    20                           ; Copyright © 2017, Microchip Technology Inc. and its subsidiaries ("Microchip")
    21                           ; All rights reserved.
    22                           ; 
    23                           ; This software is developed by Microchip Technology Inc. and its subsidiaries ("Microch
      +                          ip").
    24                           ; 
    25                           ; Redistribution and use in source and binary forms, with or without modification, are
    26                           ; permitted provided that the following conditions are met:
    27                           ; 
    28                           ;     1. Redistributions of source code must retain the above copyright notice, this lis
      +                          t of
    29                           ;        conditions and the following disclaimer.
    30                           ; 
    31                           ;     2. Redistributions in binary form must reproduce the above copyright notice, this 
      +                          list
    32                           ;        of conditions and the following disclaimer in the documentation and/or other
    33                           ;        materials provided with the distribution.
    34                           ; 
    35                           ;     3. Microchip's name may not be used to endorse or promote products derived from th
      +                          is
    36                           ;        software without specific prior written permission.
    37                           ; 
    38                           ; THIS SOFTWARE IS PROVIDED BY MICROCHIP "AS IS" AND ANY EXPRESS OR IMPLIED WARRANTIES,
    39                           ; INCLUDING, BUT NOT LIMITED TO, THE IMPLIED WARRANTIES OF MERCHANTABILITY AND FITNESS F
      +                          OR
    40                           ; PURPOSE ARE DISCLAIMED.  IN NO EVENT SHALL MICROCHIP BE LIABLE FOR ANY DIRECT, INDIREC
      +                          T,
    41                           ; INCIDENTAL, SPECIAL, EXEMPLARY, OR CONSEQUENTIAL DAMAGES (INCLUDING BUT NOT LIMITED TO
    42                           ; PROCUREMENT OF SUBSTITUTE GOODS OR SERVICES; LOSS OF USE, DATA OR PROFITS; OR BUSINESS
    43                           ; INTERRUPTION) HOWSOEVER CAUSED AND ON ANY THEORY OF LIABILITY, WHETHER IN CONTRACT, ST
      +                          RICT
    44                           ; LIABILITY, OR TORT (INCLUDING NEGLIGENCE OR OTHERWISE) ARISING IN ANY WAY OUT OF THE U
      +                          SE OF
    45                           ; THIS SOFTWARE, EVEN IF ADVISED OF THE POSSIBILITY OF SUCH DAMAGE.
    46                           ; 
    47                           ; 
    48                           ; Code-generator required, PIC18F8722 Definitions
    49                           ; 
    50                           ; SFR Addresses
    51  0000                     
    52                           	psect	smallconst
    53  001000                     __psmallconst:
    54                           	opt stack 0
    55  001000  00                 	db	0
    56  001001                     _dlLED:
    57                           	opt stack 0
    58  001001  18                 	db	24
    59  001002  24                 	db	36
    60  001003  42                 	db	66
    61  001004  81                 	db	129
    62  001005                     __end_of_dlLED:
    63                           	opt stack 0
    64  0000                     _PORTBbits	set	3969
    65  0000                     _TRISBbits	set	3987
    66  0000                     _ADCON1	set	4033
    67  0000                     _TRISB0	set	31896
    68                           
    69                           ; #config settings
    70  001005  00                 	db	0	; dummy byte at the end
    71  0000                     
    72                           	psect	cinit
    73  0010B4                     __pcinit:
    74                           	opt stack 0
    75  0010B4                     start_initialization:
    76                           	opt stack 0
    77  0010B4                     __initialization:
    78                           	opt stack 0
    79                           
    80                           ; Clear objects allocated to COMRAM (1 bytes)
    81  0010B4  6A03               	clrf	__pbssCOMRAM& (0+255),c
    82  0010B6                     end_of_initialization:
    83                           	opt stack 0
    84  0010B6                     __end_of__initialization:
    85                           	opt stack 0
    86  0010B6  0E00               	movlw	low (__Lsmallconst shr (0+16))
    87  0010B8  6EF8               	movwf	tblptru,c
    88  0010BA  0E10               	movlw	high __Lsmallconst
    89  0010BC  6EF7               	movwf	tblptrh,c
    90  0010BE  0100               	movlb	0
    91  0010C0  EF51  F008         	goto	_main	;jump to C main() function
    92                           tblptru	equ	0xFF8
    93                           tblptrh	equ	0xFF7
    94                           
    95                           	psect	bssCOMRAM
    96  000003                     __pbssCOMRAM:
    97                           	opt stack 0
    98  000003                     _idx:
    99                           	opt stack 0
   100  000003                     	ds	1
   101                           tblptru	equ	0xFF8
   102                           tblptrh	equ	0xFF7
   103                           
   104                           	psect	cstackCOMRAM
   105  000001                     __pcstackCOMRAM:
   106                           	opt stack 0
   107  000001                     ??_lamtre1s:
   108  000001                     ??_lamtre2s:
   109  000001                     
   110                           ; 1 bytes @ 0x0
   111  000001                     	ds	1
   112  000002                     lamtre1s@dem:
   113                           	opt stack 0
   114  000002                     lamtre2s@dem:
   115                           	opt stack 0
   116                           
   117                           ; 1 bytes @ 0x1
   118  000002                     	ds	1
   119  000003                     tblptru	equ	0xFF8
   120                           tblptrh	equ	0xFF7
   121                           
   122                           ; 1 bytes @ 0x2
   123 ;;
   124 ;;Main: autosize = 0, tempsize = 0, incstack = 0, save=0
   125 ;;
   126 ;; *************** function _main *****************
   127 ;; Defined at:
   128 ;;		line 51 in file "Thi.c"
   129 ;; Parameters:    Size  Location     Type
   130 ;;		None
   131 ;; Auto vars:     Size  Location     Type
   132 ;;		None
   133 ;; Return value:  Size  Location     Type
   134 ;;                  1    wreg      void 
   135 ;; Registers used:
   136 ;;		wreg, status,2, status,0, tblptrl, tblptrh, tblptru, prodl, prodh, cstack
   137 ;; Tracked objects:
   138 ;;		On entry : 0/0
   139 ;;		On exit  : 0/0
   140 ;;		Unchanged: 0/0
   141 ;; Data sizes:     COMRAM   BANK0   BANK1   BANK2   BANK3   BANK4   BANK5   BANK6   BANK7   BANK8   BANK9  BANK10  BANK1
      +1  BANK12  BANK13  BANK14  BANK15
   142 ;;      Params:         0       0       0       0       0       0       0       0       0       0       0       0       
      +0       0       0       0       0
   143 ;;      Locals:         0       0       0       0       0       0       0       0       0       0       0       0       
      +0       0       0       0       0
   144 ;;      Temps:          0       0       0       0       0       0       0       0       0       0       0       0       
      +0       0       0       0       0
   145 ;;      Totals:         0       0       0       0       0       0       0       0       0       0       0       0       
      +0       0       0       0       0
   146 ;;Total ram usage:        0 bytes
   147 ;; Hardware stack levels required when called:    2
   148 ;; This function calls:
   149 ;;		_init
   150 ;;		_lamtre1s
   151 ;;		_xuatled
   152 ;; This function is called by:
   153 ;;		Startup code after reset
   154 ;; This function uses a non-reentrant model
   155 ;;
   156                           
   157                           	psect	text0
   158  0010A2                     __ptext0:
   159                           	opt stack 0
   160  0010A2                     _main:
   161                           	opt stack 29
   162                           
   163                           ;Thi.c: 53: init();
   164                           
   165                           ;incstack = 0
   166  0010A2  EC46  F008         	call	_init	;wreg free
   167                           
   168                           ;Thi.c: 54: lamtre1s();
   169  0010A6  EC36  F008         	call	_lamtre1s	;wreg free
   170                           
   171                           ;Thi.c: 55: xuatled();
   172  0010AA  EC03  F008         	call	_xuatled	;wreg free
   173  0010AE                     
   174                           ;Thi.c: 57: {
   175                           ;Thi.c: 59: xuatled();
   176  0010AE  EC03  F008         	call	_xuatled	;wreg free
   177  0010B2  D7FD               	goto	l45
   178  0010B4                     __end_of_main:
   179                           	opt stack 0
   180                           tblptru	equ	0xFF8
   181                           tblptrh	equ	0xFF7
   182                           
   183 ;; *************** function _xuatled *****************
   184 ;; Defined at:
   185 ;;		line 37 in file "Thi.c"
   186 ;; Parameters:    Size  Location     Type
   187 ;;		None
   188 ;; Auto vars:     Size  Location     Type
   189 ;;		None
   190 ;; Return value:  Size  Location     Type
   191 ;;                  1    wreg      void 
   192 ;; Registers used:
   193 ;;		wreg, status,2, status,0, tblptrl, tblptrh, tblptru, prodl, prodh, cstack
   194 ;; Tracked objects:
   195 ;;		On entry : 0/0
   196 ;;		On exit  : 0/0
   197 ;;		Unchanged: 0/0
   198 ;; Data sizes:     COMRAM   BANK0   BANK1   BANK2   BANK3   BANK4   BANK5   BANK6   BANK7   BANK8   BANK9  BANK10  BANK1
      +1  BANK12  BANK13  BANK14  BANK15
   199 ;;      Params:         0       0       0       0       0       0       0       0       0       0       0       0       
      +0       0       0       0       0
   200 ;;      Locals:         0       0       0       0       0       0       0       0       0       0       0       0       
      +0       0       0       0       0
   201 ;;      Temps:          0       0       0       0       0       0       0       0       0       0       0       0       
      +0       0       0       0       0
   202 ;;      Totals:         0       0       0       0       0       0       0       0       0       0       0       0       
      +0       0       0       0       0
   203 ;;Total ram usage:        0 bytes
   204 ;; Hardware stack levels used:    1
   205 ;; Hardware stack levels required when called:    1
   206 ;; This function calls:
   207 ;;		_lamtre1s
   208 ;;		_lamtre2s
   209 ;; This function is called by:
   210 ;;		_main
   211 ;; This function uses a non-reentrant model
   212 ;;
   213                           
   214                           	psect	text1
   215  001006                     __ptext1:
   216                           	opt stack 0
   217  001006                     _xuatled:
   218                           	opt stack 29
   219                           
   220                           ;Thi.c: 40: if (idx > 3) idx =3 ;
   221                           
   222                           ;incstack = 0
   223  001006  0E03               	movlw	3
   224  001008  6403               	cpfsgt	_idx,c
   225  00100A  D002               	goto	l34
   226  00100C  0E03               	movlw	3
   227  00100E  6E03               	movwf	_idx,c
   228  001010                     l34:
   229                           
   230                           ;Thi.c: 41: led = dlLED[idx];
   231  001010  5003               	movf	_idx,w,c
   232  001012  0D01               	mullw	1
   233  001014  0E01               	movlw	low _dlLED
   234  001016  24F3               	addwf	prodl,w,c
   235  001018  6EF6               	movwf	tblptrl,c
   236  00101A  0E10               	movlw	high _dlLED
   237  00101C  20F4               	addwfc	prodh,w,c
   238  00101E  6EF7               	movwf	tblptrh,c
   239  001020                     	if	0	;There are less than 3 active tblptr bytes
   240  001020                     	endif
   241  001020  0008               	tblrd		*
   242  001022  CFF5 FF8C          	movff	tablat,3980	;volatile
   243                           
   244                           ;Thi.c: 42: if (idx == 0 || idx == 2) lamtre1s();
   245  001026  5003               	movf	_idx,w,c
   246  001028  B4D8               	btfsc	status,2,c
   247  00102A  D003               	goto	u70
   248  00102C  0E02               	movlw	2
   249  00102E  1803               	xorwf	_idx,w,c
   250  001030  B4D8               	btfsc	status,2,c
   251  001032                     u70:
   252  001032  EC36  F008         	call	_lamtre1s	;wreg free
   253                           
   254                           ;Thi.c: 43: if (idx == 1) lamtre2s();
   255  001036  0403               	decf	_idx,w,c
   256  001038  B4D8               	btfsc	status,2,c
   257  00103A  EC26  F008         	call	_lamtre2s	;wreg free
   258                           
   259                           ;Thi.c: 44: idx = idx + 1;
   260  00103E  2803               	incf	_idx,w,c
   261  001040  6E03               	movwf	_idx,c
   262                           
   263                           ;Thi.c: 45: if (PORTBbits.RB0==0) idx = 0;
   264  001042  B081               	btfsc	3969,0,c	;volatile
   265  001044  0012               	return	
   266  001046  0E00               	movlw	0
   267  001048  6E03               	movwf	_idx,c
   268  00104A  0012               	return	
   269  00104C                     __end_of_xuatled:
   270                           	opt stack 0
   271                           tblptru	equ	0xFF8
   272                           tblptrh	equ	0xFF7
   273                           tblptrl	equ	0xFF6
   274                           tablat	equ	0xFF5
   275                           prodh	equ	0xFF4
   276                           prodl	equ	0xFF3
   277                           status	equ	0xFD8
   278                           
   279 ;; *************** function _lamtre2s *****************
   280 ;; Defined at:
   281 ;;		line 31 in file "Thi.c"
   282 ;; Parameters:    Size  Location     Type
   283 ;;		None
   284 ;; Auto vars:     Size  Location     Type
   285 ;;  dem             1    1[COMRAM] unsigned char 
   286 ;; Return value:  Size  Location     Type
   287 ;;                  1    wreg      void 
   288 ;; Registers used:
   289 ;;		wreg, status,2, status,0
   290 ;; Tracked objects:
   291 ;;		On entry : 0/0
   292 ;;		On exit  : 0/0
   293 ;;		Unchanged: 0/0
   294 ;; Data sizes:     COMRAM   BANK0   BANK1   BANK2   BANK3   BANK4   BANK5   BANK6   BANK7   BANK8   BANK9  BANK10  BANK1
      +1  BANK12  BANK13  BANK14  BANK15
   295 ;;      Params:         0       0       0       0       0       0       0       0       0       0       0       0       
      +0       0       0       0       0
   296 ;;      Locals:         1       0       0       0       0       0       0       0       0       0       0       0       
      +0       0       0       0       0
   297 ;;      Temps:          1       0       0       0       0       0       0       0       0       0       0       0       
      +0       0       0       0       0
   298 ;;      Totals:         2       0       0       0       0       0       0       0       0       0       0       0       
      +0       0       0       0       0
   299 ;;Total ram usage:        2 bytes
   300 ;; Hardware stack levels used:    1
   301 ;; This function calls:
   302 ;;		Nothing
   303 ;; This function is called by:
   304 ;;		_xuatled
   305 ;; This function uses a non-reentrant model
   306 ;;
   307                           
   308                           	psect	text2
   309  00104C                     __ptext2:
   310                           	opt stack 0
   311  00104C                     _lamtre2s:
   312                           	opt stack 29
   313                           
   314                           ;Thi.c: 33: unsigned char dem;
   315                           ;Thi.c: 34: for (dem = 0; dem < 100; dem++) _delay((unsigned long)((20)*(10000000/4000.0
      +                          )));
   316                           
   317                           ;incstack = 0
   318  00104C  0E00               	movlw	0
   319  00104E  6E02               	movwf	lamtre2s@dem,c
   320  001050                     l682:
   321  001050  0E63               	movlw	99
   322  001052  6402               	cpfsgt	lamtre2s@dem,c
   323  001054  D001               	goto	l29
   324  001056  0012               	return	
   325  001058                     l29:
   326  001058  0E41               	movlw	65
   327  00105A  6E01               	movwf	??_lamtre2s& (0+255),c
   328  00105C  0EEE               	movlw	238
   329  00105E                     u107:
   330  00105E  2EE8               	decfsz	wreg,f,c
   331  001060  D7FE               	bra	u107
   332  001062  2E01               	decfsz	??_lamtre2s& (0+255),f,c
   333  001064  D7FC               	bra	u107
   334  001066  D000               	nop2	
   335  001068  2A02               	incf	lamtre2s@dem,f,c
   336  00106A  D7F2               	goto	l682
   337  00106C                     __end_of_lamtre2s:
   338                           	opt stack 0
   339                           tblptru	equ	0xFF8
   340                           tblptrh	equ	0xFF7
   341                           tblptrl	equ	0xFF6
   342                           tablat	equ	0xFF5
   343                           prodh	equ	0xFF4
   344                           prodl	equ	0xFF3
   345                           wreg	equ	0xFE8
   346                           status	equ	0xFD8
   347                           
   348 ;; *************** function _lamtre1s *****************
   349 ;; Defined at:
   350 ;;		line 26 in file "Thi.c"
   351 ;; Parameters:    Size  Location     Type
   352 ;;		None
   353 ;; Auto vars:     Size  Location     Type
   354 ;;  dem             1    1[COMRAM] unsigned char 
   355 ;; Return value:  Size  Location     Type
   356 ;;                  1    wreg      void 
   357 ;; Registers used:
   358 ;;		wreg, status,2, status,0
   359 ;; Tracked objects:
   360 ;;		On entry : 0/0
   361 ;;		On exit  : 0/0
   362 ;;		Unchanged: 0/0
   363 ;; Data sizes:     COMRAM   BANK0   BANK1   BANK2   BANK3   BANK4   BANK5   BANK6   BANK7   BANK8   BANK9  BANK10  BANK1
      +1  BANK12  BANK13  BANK14  BANK15
   364 ;;      Params:         0       0       0       0       0       0       0       0       0       0       0       0       
      +0       0       0       0       0
   365 ;;      Locals:         1       0       0       0       0       0       0       0       0       0       0       0       
      +0       0       0       0       0
   366 ;;      Temps:          1       0       0       0       0       0       0       0       0       0       0       0       
      +0       0       0       0       0
   367 ;;      Totals:         2       0       0       0       0       0       0       0       0       0       0       0       
      +0       0       0       0       0
   368 ;;Total ram usage:        2 bytes
   369 ;; Hardware stack levels used:    1
   370 ;; This function calls:
   371 ;;		Nothing
   372 ;; This function is called by:
   373 ;;		_xuatled
   374 ;;		_main
   375 ;; This function uses a non-reentrant model
   376 ;;
   377                           
   378                           	psect	text3
   379  00106C                     __ptext3:
   380                           	opt stack 0
   381  00106C                     _lamtre1s:
   382                           	opt stack 29
   383                           
   384                           ;Thi.c: 28: unsigned char dem;
   385                           ;Thi.c: 29: for (dem = 0; dem < 100; dem++) _delay((unsigned long)((10)*(10000000/4000.0
      +                          )));
   386                           
   387                           ;incstack = 0
   388  00106C  0E00               	movlw	0
   389  00106E  6E02               	movwf	lamtre1s@dem,c
   390  001070                     l672:
   391  001070  0E63               	movlw	99
   392  001072  6402               	cpfsgt	lamtre1s@dem,c
   393  001074  D001               	goto	l24
   394  001076  0012               	return	
   395  001078                     l24:
   396  001078  0E21               	movlw	33
   397  00107A  6E01               	movwf	??_lamtre1s& (0+255),c
   398  00107C  0E76               	movlw	118
   399  00107E                     u117:
   400  00107E  2EE8               	decfsz	wreg,f,c
   401  001080  D7FE               	bra	u117
   402  001082  2E01               	decfsz	??_lamtre1s& (0+255),f,c
   403  001084  D7FC               	bra	u117
   404  001086  D000               	nop2	
   405  001088  2A02               	incf	lamtre1s@dem,f,c
   406  00108A  D7F2               	goto	l672
   407  00108C                     __end_of_lamtre1s:
   408                           	opt stack 0
   409                           tblptru	equ	0xFF8
   410                           tblptrh	equ	0xFF7
   411                           tblptrl	equ	0xFF6
   412                           tablat	equ	0xFF5
   413                           prodh	equ	0xFF4
   414                           prodl	equ	0xFF3
   415                           wreg	equ	0xFE8
   416                           status	equ	0xFD8
   417                           
   418 ;; *************** function _init *****************
   419 ;; Defined at:
   420 ;;		line 13 in file "Thi.c"
   421 ;; Parameters:    Size  Location     Type
   422 ;;		None
   423 ;; Auto vars:     Size  Location     Type
   424 ;;		None
   425 ;; Return value:  Size  Location     Type
   426 ;;                  1    wreg      void 
   427 ;; Registers used:
   428 ;;		wreg, status,2
   429 ;; Tracked objects:
   430 ;;		On entry : 0/0
   431 ;;		On exit  : 0/0
   432 ;;		Unchanged: 0/0
   433 ;; Data sizes:     COMRAM   BANK0   BANK1   BANK2   BANK3   BANK4   BANK5   BANK6   BANK7   BANK8   BANK9  BANK10  BANK1
      +1  BANK12  BANK13  BANK14  BANK15
   434 ;;      Params:         0       0       0       0       0       0       0       0       0       0       0       0       
      +0       0       0       0       0
   435 ;;      Locals:         0       0       0       0       0       0       0       0       0       0       0       0       
      +0       0       0       0       0
   436 ;;      Temps:          0       0       0       0       0       0       0       0       0       0       0       0       
      +0       0       0       0       0
   437 ;;      Totals:         0       0       0       0       0       0       0       0       0       0       0       0       
      +0       0       0       0       0
   438 ;;Total ram usage:        0 bytes
   439 ;; Hardware stack levels used:    1
   440 ;; This function calls:
   441 ;;		Nothing
   442 ;; This function is called by:
   443 ;;		_main
   444 ;; This function uses a non-reentrant model
   445 ;;
   446                           
   447                           	psect	text4
   448  00108C                     __ptext4:
   449                           	opt stack 0
   450  00108C                     _init:
   451                           	opt stack 30
   452                           
   453                           ;Thi.c: 15: ADCON1 = 0x0F;
   454                           
   455                           ;incstack = 0
   456  00108C  0E0F               	movlw	15
   457  00108E  6EC1               	movwf	4033,c	;volatile
   458                           
   459                           ;Thi.c: 16: led_io = 0;
   460  001090  0E00               	movlw	0
   461  001092  6E95               	movwf	3989,c	;volatile
   462                           
   463                           ;Thi.c: 17: TRISB0 = 1;
   464  001094  8093               	bsf	3987,0,c	;volatile
   465                           
   466                           ;Thi.c: 18: led=0;
   467  001096  0E00               	movlw	0
   468  001098  6E8C               	movwf	3980,c	;volatile
   469                           
   470                           ;Thi.c: 19: TRISBbits.RB0 = 1;
   471  00109A  8093               	bsf	3987,0,c	;volatile
   472                           
   473                           ;Thi.c: 20: idx = 0;
   474  00109C  0E00               	movlw	0
   475  00109E  6E03               	movwf	_idx,c
   476  0010A0  0012               	return		;funcret
   477  0010A2                     __end_of_init:
   478                           	opt stack 0
   479                           tblptru	equ	0xFF8
   480                           tblptrh	equ	0xFF7
   481                           tblptrl	equ	0xFF6
   482                           tablat	equ	0xFF5
   483                           prodh	equ	0xFF4
   484                           prodl	equ	0xFF3
   485                           wreg	equ	0xFE8
   486                           status	equ	0xFD8
   487                           tblptru	equ	0xFF8
   488                           tblptrh	equ	0xFF7
   489                           tblptrl	equ	0xFF6
   490                           tablat	equ	0xFF5
   491                           prodh	equ	0xFF4
   492                           prodl	equ	0xFF3
   493                           wreg	equ	0xFE8
   494                           status	equ	0xFD8
   495                           
   496                           	psect	rparam
   497  0000                     tblptru	equ	0xFF8
   498                           tblptrh	equ	0xFF7
   499                           tblptrl	equ	0xFF6
   500                           tablat	equ	0xFF5
   501                           prodh	equ	0xFF4
   502                           prodl	equ	0xFF3
   503                           wreg	equ	0xFE8
   504                           status	equ	0xFD8


Data Sizes:
    Strings     0
    Constant    4
    Data        0
    BSS         1
    Persistent  0
    Stack       0

Auto Spaces:
    Space          Size  Autos    Used
    COMRAM           95      2       3
    BANK0           160      0       0
    BANK1           256      0       0
    BANK2           256      0       0
    BANK3           256      0       0
    BANK4           256      0       0
    BANK5           256      0       0
    BANK6           256      0       0
    BANK7           256      0       0
    BANK8           256      0       0
    BANK9           256      0       0
    BANK10          256      0       0
    BANK11          256      0       0
    BANK12          256      0       0
    BANK13          256      0       0
    BANK14          256      0       0
    BANK15           96      0       0

Pointer List with Targets:

    None.

Critical Paths under _main in COMRAM

    _main->_lamtre1s
    _xuatled->_lamtre1s
    _xuatled->_lamtre2s

Critical Paths under _main in BANK0

    None.

Critical Paths under _main in BANK1

    None.

Critical Paths under _main in BANK2

    None.

Critical Paths under _main in BANK3

    None.

Critical Paths under _main in BANK4

    None.

Critical Paths under _main in BANK5

    None.

Critical Paths under _main in BANK6

    None.

Critical Paths under _main in BANK7

    None.

Critical Paths under _main in BANK8

    None.

Critical Paths under _main in BANK9

    None.

Critical Paths under _main in BANK10

    None.

Critical Paths under _main in BANK11

    None.

Critical Paths under _main in BANK12

    None.

Critical Paths under _main in BANK13

    None.

Critical Paths under _main in BANK14

    None.

Critical Paths under _main in BANK15

    None.

Call Graph Tables:

 ---------------------------------------------------------------------------------
 (Depth) Function   	        Calls       Base Space   Used Autos Params    Refs
 ---------------------------------------------------------------------------------
 (0) _main                                                 0     0      0      90
                               _init
                           _lamtre1s
                            _xuatled
 ---------------------------------------------------------------------------------
 (1) _xuatled                                              0     0      0      60
                           _lamtre1s
                           _lamtre2s
 ---------------------------------------------------------------------------------
 (2) _lamtre2s                                             2     2      0      30
                                              0 COMRAM     2     2      0
 ---------------------------------------------------------------------------------
 (2) _lamtre1s                                             2     2      0      30
                                              0 COMRAM     2     2      0
 ---------------------------------------------------------------------------------
 (1) _init                                                 0     0      0       0
 ---------------------------------------------------------------------------------
 Estimated maximum stack depth 2
 ---------------------------------------------------------------------------------

 Call Graph Graphs:

 _main (ROOT)
   _init
   _lamtre1s
   _xuatled
     _lamtre1s
     _lamtre2s

 Address spaces:
Name               Size   Autos  Total    Cost      Usage
BIGRAM             F5F      0       0      37        0.0%
EEDATA             400      0       0       0        0.0%
BITBANK14          100      0       0      33        0.0%
BANK14             100      0       0      34        0.0%
BITBANK13          100      0       0      30        0.0%
BANK13             100      0       0      31        0.0%
BITBANK12          100      0       0      28        0.0%
BANK12             100      0       0      29        0.0%
BITBANK11          100      0       0      26        0.0%
BANK11             100      0       0      27        0.0%
BITBANK10          100      0       0      24        0.0%
BANK10             100      0       0      25        0.0%
BITBANK9           100      0       0      22        0.0%
BANK9              100      0       0      23        0.0%
BITBANK8           100      0       0      20        0.0%
BANK8              100      0       0      21        0.0%
BITBANK7           100      0       0      18        0.0%
BANK7              100      0       0      19        0.0%
BITBANK6           100      0       0      16        0.0%
BANK6              100      0       0      17        0.0%
BITBANK5           100      0       0      14        0.0%
BANK5              100      0       0      15        0.0%
BITBANK4           100      0       0      12        0.0%
BANK4              100      0       0      13        0.0%
BITBANK3           100      0       0      10        0.0%
BANK3              100      0       0      11        0.0%
BITBANK2           100      0       0       8        0.0%
BANK2              100      0       0       9        0.0%
BITBANK1           100      0       0       6        0.0%
BANK1              100      0       0       7        0.0%
BITBANK0            A0      0       0       4        0.0%
BANK0               A0      0       0       5        0.0%
BITBANK15           60      0       0      35        0.0%
BANK15              60      0       0      36        0.0%
BITCOMRAM           5F      0       0       0        0.0%
COMRAM              5F      2       3       1        3.2%
BITSFR               0      0       0     200        0.0%
SFR                  0      0       0     200        0.0%
STACK                0      0       0       2        0.0%
NULL                 0      0       0       0        0.0%
ABS                  0      0       3      32        0.0%
DATA                 0      0       3       3        0.0%
CODE                 0      0       0       0        0.0%


Microchip Technology PIC18 Macro Assembler V1.45 build -152302408 
Symbol Table                                                                                   Tue Dec 03 13:04:04 2019

                     l24 1078                       l34 1010                       l29 1058  
                     l45 10AE                       u70 1032              __CFG_OSC$HS 000000  
                    l672 1070                      l682 1050                      u107 105E  
                    u117 107E                      _led 000F8C                      _idx 0003  
                    wreg 000FE8             __CFG_LVP$OFF 000000             __CFG_WDT$OFF 000000  
                   _main 10A2                     _init 108C                     prodh 000FF4  
                   prodl 000FF3                     start 0000             ___param_bank 000000  
                  ?_main 0001                    ?_init 0001                    _dlLED 1001  
                  tablat 000FF5                    status 000FD8          __end_of_xuatled 104C  
        __initialization 10B4             __end_of_main 10B4              lamtre1s@dem 0002  
           __end_of_init 10A2              lamtre2s@dem 0002                   ??_main 0003  
                 ??_init 0001            __activetblptr 000001                   _ADCON1 000FC1  
                 _TRISB0 007C98         __end_of_lamtre1s 108C         __end_of_lamtre2s 106C  
                 _led_io 000F95             __mediumconst 0000                   tblptrh 000FF7  
                 tblptrl 000FF6                   tblptru 000FF8                ??_xuatled 0003  
             __accesstop 0060  __end_of__initialization 10B6            ___rparam_used 000001  
         __pcstackCOMRAM 0001            __end_of_dlLED 1005                ?_lamtre1s 0001  
              ?_lamtre2s 0001                  __Hparam 0000                  __Lparam 0000  
           __psmallconst 1000                  __pcinit 10B4                  __ramtop 1000  
                __ptext0 10A2                  __ptext1 1006                  __ptext2 104C  
                __ptext3 106C                  __ptext4 108C     end_of_initialization 10B6  
                _xuatled 1006               ??_lamtre1s 0001               ??_lamtre2s 0001  
              _PORTBbits 000F81                _TRISBbits 000F93      start_initialization 10B4  
            __pbssCOMRAM 0003        __size_of_lamtre1s 0020        __size_of_lamtre2s 0020  
            __smallconst 1000                 ?_xuatled 0001                 __Hrparam 0000  
               __Lrparam 0000             __Lsmallconst 1000                 _lamtre1s 106C  
               _lamtre2s 104C         __size_of_xuatled 0046            __size_of_main 0012  
          __size_of_init 0016  
