:040000005AEF08F0BB
:10100000001824428100030E036402D0030E036E15
:101010000350010D010EF324F66E100EF420F76E4E
:101020000800F5CF8CFF0350D8B403D0020E03188C
:10103000D8B436EC08F00304D8B426EC08F0032842
:10104000036E81B01200000E036E1200000E026EDD
:10105000630E026401D01200410E016EEE0EE82E06
:10106000FED7012EFCD700D0022AF2D7000E026E66
:10107000630E026401D01200210E016E760EE82E7E
:10108000FED7012EFCD700D0022AF2D70F0EC16E78
:10109000000E956E9380000E8C6E9380000E036E92
:1010A000120046EC08F036EC08F003EC08F003EC14
:1010B00008F0FDD7036A000EF86E100EF76E0001FF
:0410C00051EF08F0F4
:020000040020DA
:08000000FFFFFFFFFFFFFFFF00
:020000040030CA
:0E000000FF021F1EF38381FFFFC0FFE0FF40E1
:00000001FF
