:040000006EEF00F0AF
:100018004980D8CF20F0E8CF21F0E0CF22F0FACF06
:1000280023F0FBCF24F0E9CF25F0EACF26F0E1CF8B
:1000380027F0E2CF28F0D9CF29F0DACF2AF0F3CF92
:100048002BF0F4CF2CF0F6CF2DF0F7CF2EF0F8CF21
:100058002FF0F5CF30F049C031F04AC032F04BC034
:1000680033F04CC034F0010EF2AA000EF2A4000ED8
:10007800E8A004D046EC0BF066EC0BF034C04CF072
:1000880033C04BF032C04AF031C049F030C0F5FF00
:100098002FC0F8FF2EC0F7FF2DC0F6FF2CC0F4FFCD
:1000A8002BC0F3FF2AC0DAFF29C0D9FF28C0E2FF1E
:1000B80027C0E1FF26C0EAFF25C0E9FF24C0FBFFF7
:1000C80023C0FAFF22C0E0FF21C0E8FF20C0D8FF0C
:0800D800499010000AEF0BF043
:101000000001000A006400E80310270F0F0E1F0EF6
:101010000F0F001E1F0707071F1E001C1C1C1F1F91
:101020001C1C000707071F1F0707001F1C1C1F1C95
:101030001F1F00181C1C1E071F1E001C1D1F1F1E2B
:0F1040001C1C001C1810181C0E07002564000053
:101050000F0E126E000E136E85D0250E1818D8B420
:1010600004D018505CEC0BF07DD0000E146E0DC057
:10107000F6FF0EC0F7FF0D4A0E2A000EF86E0800AC
:10108000F5CF18F01850000AD8B41200640AD8B48A
:1010900003D00D0AD8A466D012C0D9FF13C0DAFF5E
:1010A000DECF16F0DDCF17F0020E1226000E13224F
:1010B00017AE06D0030E1412166C171ED8B0172ADE
:1010C000010E186E050E1818D8B415D01850020D60
:1010D000010EF324F66E100EF420F76EF86A000E7F
:1010E000F8220900F550165C0900F5501758D8A0F1
:1010F00002D0182AE7D714C011F0030E1116D8B485
:1011000003D02D0E5CEC0BF018C015F027D0155055
:10111000020D010EF324F66E100EF420F76EF86A3D
:10112000000EF8220900F5CF03F00A00F5CF04F015
:1011300016C001F017C002F0ADEC09F001C008F0D4
:1011400002C009F0000E0B6E0A0E0A6E4BEC0AF09C
:101150000850300F186E18505CEC0BF0150615286F
:10116000D8A4D5D70DC0F6FF0EC0F7FF0D4A0E2A42
:10117000000EF86E0800F5CF18F01850D8B4120021
:101180006CD76CEC0AF047C08CFF47C001F0026AD4
:10119000000E046E0A0E036E07EC09F001C01BF08E
:1011A00002C01CF046501B24196E000E1C201A6E43
:1011B000010E1926000E1A221ABE12D01A5004E18E
:1011C000100E195CD8A00CD045500008196E1928D3
:1011D000456E000E466E46C004F0455015EC0BF00F
:1011E0004B0E0D6E100E0E6E47C00FF0106A28ECFD
:1011F00008F046501B24196E1928046E455015EC52
:101200000BF046501B24196E1928466E1200000E72
:10121000066E04AE06D0036C041ED8B0042A010E7C
:10122000066E02AE06D0016C021ED8B0022A010E74
:10123000061A000E086E000E076E03500410D8B494
:101240001CD0010E056E04D0D89003360436052A52
:1012500004AEFAD7D890073608360350015C045024
:101260000258D8A005D00350015E0450025A0780EE
:10127000D89004320332052EEDD70650D8B404D0EE
:10128000076C081ED8B0082A07C001F008C002F099
:1012900012009294979C89848E9C00D000D08E8CF2
:1012A00055EC0BF0FEEC0AF0F2EC0AF0000E000137
:1012B000616F3C0E606FCAEC0AF0300E9BEC0AF0D6
:1012C000000E0001616F290E606FCAEC0AF0300E4B
:1012D0009BEC0AF0340EE82EFED700D0300E9BECCB
:1012E0000AF0380E9BEC0AF00C0E9BEC0AF0060E8E
:1012F0009BEC0AF020EC0BF0FEEC09F012008150A0
:101300000F0B016E0BD0000E05D0010E03D0020EA4
:1013100001D0030E476E10D047680ED00150070A67
:10132000D8B4F7D70C0AD8B4F2D7060AD8B4EDD798
:10133000030AD8B4E8D7F0D74728D8B412004850E9
:10134000040DF35047264750010D350EF324D96E96
:10135000000EF420DA6EDF2A1200000E066E000E78
:10136000056E03500410D8B41CD0010E076E04D0D3
:10137000D89003360436072A04AEFAD7D89005363B
:1013800006360350015C04500258D8A005D0035023
:10139000015E0450025A0580D89004320332072EB1
:1013A000EDD705C001F006C002F012000001646F25
:1013B00000016451080DF3503F0B40099BEC0AF00B
:1013C000000E0001656F070E656501D012006551C2
:1013D000010D60C062F061C063F0F3506227F45009
:1013E000632362C0F6FF63C0F7FF000EF86E0800CB
:1013F000F550ABEC0AF00001652BE5D7000E0001BB
:10140000666F070E666501D00ED06651080D0B0E93
:10141000F324606F100EF420616F6651D6EC09F072
:101420000001662BEED7080E046E010E15EC0BF0D2
:10143000000E0001666F070E666501D0120066514E
:101440005CEC0BF00001662BF6D78A6848C01DF0F3
:10145000EF0E1E6E1D2A02D0D8901E361D2EFCD710
:101460001E501F6E1FC08AFF7FEC09F0482A4850AB
:10147000030B486E4728D8B412004750010D350EB3
:10148000F324D96E000EF420DA6E010EDF64120030
:10149000C1EC08F012000A500B10D8B418D0010E9D
:1014A0000C6E04D0D8900A360B360C2A0BAEFAD745
:1014B0000A50085C0B500958D8A004D00A50085EA6
:1014C0000B50095AD8900B320A320C2EF1D708C0B3
:1014D00008F009C009F01200000E026E000E016E45
:1014E00002BE06D002500FE1100E015CD8B012000F
:1014F000350E0124D96E000E0220DA6E000EDF6E6A
:10150000014A022AEDD71200066E0DD020EC0BF036
:101510001200000E046E010E15EC0BF012000650C6
:10152000ABEC0AF0120006500A0AD8B4F2D7060A49
:10153000D8B4ECD7F4D7036E000EE5EC0AF00350F4
:10154000D8EC0AF0400EE5EC0AF0000EE5EC0AF0EB
:1015500061EC0BF01200036E800EE5EC0AF0035014
:10156000D8EC0AF0C00EE5EC0AF0000EE5EC0AF04B
:1015700061EC0BF012000F0EC16E0F0E936E000E99
:10158000956E000E8C6E000E486E000E456E000EBD
:10159000466E1200000160516111D8B41200530E62
:1015A000E82EFED700F000016007D8A06107F3D74E
:1015B000026E8994400E35EC0BF0130E35EC0BF0F7
:1015C000025035EC0BF089841200026E8994400EB3
:1015D00035EC0BF0120E35EC0BF0025035EC0BF045
:1015E000898412008994400E35EC0BF0010E35EC25
:1015F0000BF0000E35EC0BF0898412008994400E3C
:1016000035EC0BF0000E35EC0BF0000E35EC0BF06A
:101610008984120000EE35F0140EEE6AE806FDE152
:101620004990499200014EEF0BF0056E0550D8B479
:1016300002D0400E0426045080099BEC0AF01200F0
:10164000010E9BEC0AF0050E046ED00EE82EFED7BC
:10165000042EFCD71200D08EF194F28AF28EF28C16
:10166000000ED56E3EEC0BF01200016E01C0C9FFFA
:101670009EA6FED79E96C9CF01F01200F294D59E89
:101680009E0ED76E580ED66ED58E1200F294D59E51
:101690009E0ED76E580ED66ED58E1200BBEC0AF099
:1016A0002BEC0BF049EC09F0FFD7949A9496200E9E
:1016B000C66EC78C9E961200076E075084EC0AF027
:1016C00012001F0EE82EFED700D0120025EC0AF003
:0216D000120006
:020000040020DA
:08000000FFFFFFFFFFFFFFFF00
:020000040030CA
:0E000000FF021F1EF38381FFFFC0FFE0FF40E1
:00000001FF
