

Microchip Technology PIC18 LITE Macro Assembler V1.45 build -152302408 
                                                                                               Tue Nov 05 13:13:20 2019

Microchip Technology Omniscient Code Generator v1.45 (Free mode) build 201711160504
     1                           	processor	18F8722
     2                           	fnconf	rparam,??,?,0
     3                           	opt	pw 120
     4                           	opt	lm
     5                           	psect	smallconst,global,reloc=2,class=SMALLCONST,delta=1,noexec
     6                           	psect	cinit,global,reloc=2,class=CODE,delta=1
     7                           	psect	bssCOMRAM,global,class=COMRAM,space=1,delta=1,noexec
     8                           	psect	cstackBANK0,global,class=BANK0,space=1,delta=1,noexec
     9                           	psect	cstackCOMRAM,global,class=COMRAM,space=1,delta=1,noexec
    10                           	psect	text0,global,reloc=2,class=CODE,delta=1
    11                           	psect	text1,global,reloc=2,class=CODE,delta=1
    12                           	psect	text2,global,reloc=2,class=CODE,delta=1
    13                           	psect	text3,global,reloc=2,class=CODE,delta=1
    14                           	psect	text4,global,reloc=2,class=CODE,delta=1
    15                           	psect	text5,global,reloc=2,class=CODE,delta=1
    16                           	psect	text6,global,reloc=2,class=CODE,delta=1
    17                           	psect	text7,global,reloc=2,class=CODE,delta=1
    18                           	psect	text8,global,reloc=2,class=CODE,delta=1
    19                           	psect	text9,global,reloc=2,class=CODE,delta=1
    20                           	psect	text10,global,reloc=2,class=CODE,delta=1
    21                           	psect	intcodelo,global,reloc=2,class=CODE,delta=1
    22                           	psect	text12,global,reloc=2,class=CODE,delta=1
    23                           	psect	text13,global,reloc=2,class=CODE,delta=1
    24                           	psect	text14,global,reloc=2,class=CODE,delta=1
    25                           	psect	text15,global,reloc=2,class=CODE,delta=1
    26                           	psect	text16,global,reloc=2,class=CODE,delta=1
    27                           	psect	text17,global,reloc=2,class=CODE,delta=1
    28                           	psect	text18,global,reloc=2,class=CODE,delta=1
    29                           	psect	text19,global,reloc=2,class=CODE,delta=1
    30                           	psect	text20,global,reloc=2,class=CODE,delta=1
    31                           	psect	text21,global,reloc=2,class=CODE,delta=1
    32                           	psect	text22,global,reloc=2,class=CODE,delta=1
    33                           	psect	text23,global,reloc=2,class=CODE,delta=1
    34                           	psect	text24,global,reloc=2,class=CODE,delta=1
    35                           	psect	text25,global,reloc=2,class=CODE,delta=1
    36                           	psect	text26,global,reloc=2,class=CODE,delta=1
    37                           	psect	text27,global,reloc=2,class=CODE,delta=1,group=1
    38                           	psect	text28,global,reloc=2,class=CODE,delta=1,group=1
    39                           	psect	text29,global,reloc=2,class=CODE,delta=1
    40                           	psect	text30,global,reloc=2,class=CODE,delta=1,group=1
    41                           	psect	text31,global,reloc=2,class=CODE,delta=1
    42                           	psect	intsave_regs,global,class=BIGRAM,space=1,delta=1,noexec
    43                           	psect	rparam,global,class=COMRAM,space=1,delta=1,noexec
    44                           	psect	temp,global,ovrld,common,class=COMRAM,space=1,delta=1
    45  0000                     
    46                           ; Version 1.45
    47                           ; Generated 16/11/2017 GMT
    48                           ; 
    49                           ; Copyright © 2017, Microchip Technology Inc. and its subsidiaries ("Microchip")
    50                           ; All rights reserved.
    51                           ; 
    52                           ; This software is developed by Microchip Technology Inc. and its subsidiaries ("Microch
      +                          ip").
    53                           ; 
    54                           ; Redistribution and use in source and binary forms, with or without modification, are
    55                           ; permitted provided that the following conditions are met:
    56                           ; 
    57                           ;     1. Redistributions of source code must retain the above copyright notice, this lis
      +                          t of
    58                           ;        conditions and the following disclaimer.
    59                           ; 
    60                           ;     2. Redistributions in binary form must reproduce the above copyright notice, this 
      +                          list
    61                           ;        of conditions and the following disclaimer in the documentation and/or other
    62                           ;        materials provided with the distribution.
    63                           ; 
    64                           ;     3. Microchip's name may not be used to endorse or promote products derived from th
      +                          is
    65                           ;        software without specific prior written permission.
    66                           ; 
    67                           ; THIS SOFTWARE IS PROVIDED BY MICROCHIP "AS IS" AND ANY EXPRESS OR IMPLIED WARRANTIES,
    68                           ; INCLUDING, BUT NOT LIMITED TO, THE IMPLIED WARRANTIES OF MERCHANTABILITY AND FITNESS F
      +                          OR
    69                           ; PURPOSE ARE DISCLAIMED.  IN NO EVENT SHALL MICROCHIP BE LIABLE FOR ANY DIRECT, INDIREC
      +                          T,
    70                           ; INCIDENTAL, SPECIAL, EXEMPLARY, OR CONSEQUENTIAL DAMAGES (INCLUDING BUT NOT LIMITED TO
    71                           ; PROCUREMENT OF SUBSTITUTE GOODS OR SERVICES; LOSS OF USE, DATA OR PROFITS; OR BUSINESS
    72                           ; INTERRUPTION) HOWSOEVER CAUSED AND ON ANY THEORY OF LIABILITY, WHETHER IN CONTRACT, ST
      +                          RICT
    73                           ; LIABILITY, OR TORT (INCLUDING NEGLIGENCE OR OTHERWISE) ARISING IN ANY WAY OUT OF THE U
      +                          SE OF
    74                           ; THIS SOFTWARE, EVEN IF ADVISED OF THE POSSIBILITY OF SUCH DAMAGE.
    75                           ; 
    76                           ; 
    77                           ; Code-generator required, PIC18F8722 Definitions
    78                           ; 
    79                           ; SFR Addresses
    80  0000                     
    81                           	psect	smallconst
    82  001000                     __psmallconst:
    83                           	opt stack 0
    84  001000  00                 	db	0
    85  001001                     _dpowers:
    86                           	opt stack 0
    87  001001  0001               	dw	1
    88  001003  000A               	dw	10
    89  001005  0064               	dw	100
    90  001007  03E8               	dw	1000
    91  001009  2710               	dw	10000
    92  00100B                     __end_of_dpowers:
    93                           	opt stack 0
    94  00100B                     _dhbkstr:
    95                           	opt stack 0
    96  00100B  0F                 	db	15
    97  00100C  0F                 	db	15
    98  00100D  0E                 	db	14
    99  00100E  1F                 	db	31
   100  00100F  0E                 	db	14
   101  001010  0F                 	db	15
   102  001011  0F                 	db	15
   103  001012  00                 	db	0
   104  001013  1E                 	db	30
   105  001014  1F                 	db	31
   106  001015  07                 	db	7
   107  001016  07                 	db	7
   108  001017  07                 	db	7
   109  001018  1F                 	db	31
   110  001019  1E                 	db	30
   111  00101A  00                 	db	0
   112  00101B  1C                 	db	28
   113  00101C  1C                 	db	28
   114  00101D  1C                 	db	28
   115  00101E  1F                 	db	31
   116  00101F  1F                 	db	31
   117  001020  1C                 	db	28
   118  001021  1C                 	db	28
   119  001022  00                 	db	0
   120  001023  07                 	db	7
   121  001024  07                 	db	7
   122  001025  07                 	db	7
   123  001026  1F                 	db	31
   124  001027  1F                 	db	31
   125  001028  07                 	db	7
   126  001029  07                 	db	7
   127  00102A  00                 	db	0
   128  00102B  1F                 	db	31
   129  00102C  1C                 	db	28
   130  00102D  1C                 	db	28
   131  00102E  1F                 	db	31
   132  00102F  1C                 	db	28
   133  001030  1F                 	db	31
   134  001031  1F                 	db	31
   135  001032  00                 	db	0
   136  001033  18                 	db	24
   137  001034  1C                 	db	28
   138  001035  1C                 	db	28
   139  001036  1E                 	db	30
   140  001037  07                 	db	7
   141  001038  1F                 	db	31
   142  001039  1E                 	db	30
   143  00103A  00                 	db	0
   144  00103B  1C                 	db	28
   145  00103C  1D                 	db	29
   146  00103D  1F                 	db	31
   147  00103E  1F                 	db	31
   148  00103F  1E                 	db	30
   149  001040  1C                 	db	28
   150  001041  1C                 	db	28
   151  001042  00                 	db	0
   152  001043  1C                 	db	28
   153  001044  18                 	db	24
   154  001045  10                 	db	16
   155  001046  18                 	db	24
   156  001047  1C                 	db	28
   157  001048  0E                 	db	14
   158  001049  07                 	db	7
   159  00104A  00                 	db	0
   160  00104B                     __end_of_dhbkstr:
   161                           	opt stack 0
   162  0000                     _TMR0	set	4054
   163  0000                     _SSP1BUF	set	4041
   164  0000                     _SSP1CON1	set	4038
   165  0000                     _LATD	set	3980
   166  0000                     _ADCON1	set	4033
   167  0000                     _T0CON	set	4053
   168  0000                     _INTCONbits	set	4082
   169  0000                     _INTCON2bits	set	4081
   170  0000                     _RCONbits	set	4048
   171  0000                     _LATF6	set	31862
   172  0000                     _TRISF6	set	31934
   173  0000                     _TRISA2	set	31890
   174  0000                     _LATA2	set	31818
   175  0000                     _SSP1IF	set	31987
   176  0000                     _CKE1	set	32318
   177  0000                     _TRISC3	set	31907
   178  0000                     _TRISC5	set	31909
   179  0000                     _TMR0IE	set	32661
   180  0000                     _TMR0ON	set	32431
   181  0000                     _TMR0IF	set	32658
   182  00104B                     STR_1:
   183  00104B  25                 	db	37
   184  00104C  64                 	db	100	;'d'
   185  00104D  00                 	db	0
   186                           
   187                           ; #config settings
   188  00104E  00                 	db	0	; dummy byte at the end
   189  0000                     
   190                           	psect	cinit
   191  001614                     __pcinit:
   192                           	opt stack 0
   193  001614                     start_initialization:
   194                           	opt stack 0
   195  001614                     __initialization:
   196                           	opt stack 0
   197                           
   198                           ; Clear objects allocated to COMRAM (20 bytes)
   199  001614  EE00  F035         	lfsr	0,__pbssCOMRAM
   200  001618  0E14               	movlw	20
   201  00161A                     clear_0:
   202  00161A  6AEE               	clrf	postinc0,c
   203  00161C  06E8               	decf	wreg,f,c
   204  00161E  E1FD               	bnz	clear_0
   205  001620                     end_of_initialization:
   206                           	opt stack 0
   207  001620                     __end_of__initialization:
   208                           	opt stack 0
   209  001620  9049               	bcf	int$flags,0,c	;clear compiler interrupt flag (level 1)
   210  001622  9249               	bcf	int$flags,1,c	;clear compiler interrupt flag (level 2)
   211  001624  0100               	movlb	0
   212  001626  EF4E  F00B         	goto	_main	;jump to C main() function
   213                           postinc0	equ	0xFEE
   214                           wreg	equ	0xFE8
   215                           
   216                           	psect	bssCOMRAM
   217  000035                     __pbssCOMRAM:
   218                           	opt stack 0
   219  000035                     _buffer:
   220                           	opt stack 0
   221  000035                     	ds	16
   222  000045                     _hang:
   223                           	opt stack 0
   224  000045                     	ds	1
   225  000046                     _cot:
   226                           	opt stack 0
   227  000046                     	ds	1
   228  000047                     _keyreg:
   229                           	opt stack 0
   230  000047                     	ds	1
   231  000048                     _idx:
   232                           	opt stack 0
   233  000048                     	ds	1
   234                           postinc0	equ	0xFEE
   235                           wreg	equ	0xFE8
   236                           
   237                           	psect	cstackBANK0
   238  000060                     __pcstackBANK0:
   239                           	opt stack 0
   240  000060                     tre_ms@p10ms:
   241                           	opt stack 0
   242  000060                     lcd_download@data:
   243                           	opt stack 0
   244                           
   245                           ; 2 bytes @ 0x0
   246  000060                     	ds	2
   247  000062                     ??_lcd_download:
   248                           
   249                           ; 1 bytes @ 0x2
   250  000062                     	ds	2
   251  000064                     lcd_download@addr:
   252                           	opt stack 0
   253                           
   254                           ; 1 bytes @ 0x4
   255  000064                     	ds	1
   256  000065                     lcd_download@j:
   257                           	opt stack 0
   258                           
   259                           ; 1 bytes @ 0x5
   260  000065                     	ds	1
   261  000066                     lcd_DHBK@i:
   262                           	opt stack 0
   263                           
   264                           ; 1 bytes @ 0x6
   265  000066                     	ds	1
   266  000067                     postinc0	equ	0xFEE
   267                           wreg	equ	0xFE8
   268                           
   269                           ; 1 bytes @ 0x7
   270                           
   271                           	psect	cstackCOMRAM
   272  000001                     __pcstackCOMRAM:
   273                           	opt stack 0
   274  000001                     ?___awdiv:
   275                           	opt stack 0
   276  000001                     ?___lwdiv:
   277                           	opt stack 0
   278  000001                     getkey@col:
   279                           	opt stack 0
   280  000001                     SPI_send@c:
   281                           	opt stack 0
   282  000001                     clearbuffer@i:
   283                           	opt stack 0
   284  000001                     ___awdiv@dividend:
   285                           	opt stack 0
   286  000001                     ___lwdiv@dividend:
   287                           	opt stack 0
   288                           
   289                           ; 2 bytes @ 0x0
   290  000001                     	ds	1
   291  000002                     Write_PortB@d:
   292                           	opt stack 0
   293  000002                     Write_PortA@mask:
   294                           	opt stack 0
   295                           
   296                           ; 1 bytes @ 0x1
   297  000002                     	ds	1
   298  000003                     i_write@d:
   299                           	opt stack 0
   300  000003                     d_write@d:
   301                           	opt stack 0
   302  000003                     ___awdiv@divisor:
   303                           	opt stack 0
   304  000003                     ___lwdiv@divisor:
   305                           	opt stack 0
   306                           
   307                           ; 2 bytes @ 0x2
   308  000003                     	ds	1
   309  000004                     ??_lcd_cls:
   310  000004                     lcd_gotoxy@col:
   311                           	opt stack 0
   312                           
   313                           ; 1 bytes @ 0x3
   314  000004                     	ds	1
   315  000005                     lcd_gotoxy@row:
   316                           	opt stack 0
   317  000005                     ___awdiv@counter:
   318                           	opt stack 0
   319  000005                     ___lwdiv@quotient:
   320                           	opt stack 0
   321                           
   322                           ; 2 bytes @ 0x4
   323  000005                     	ds	1
   324  000006                     lcd_putc@c:
   325                           	opt stack 0
   326  000006                     ___awdiv@sign:
   327                           	opt stack 0
   328                           
   329                           ; 1 bytes @ 0x5
   330  000006                     	ds	1
   331  000007                     putch@c:
   332                           	opt stack 0
   333  000007                     ___lwdiv@counter:
   334                           	opt stack 0
   335  000007                     ___awdiv@quotient:
   336                           	opt stack 0
   337                           
   338                           ; 2 bytes @ 0x6
   339  000007                     	ds	1
   340  000008                     ?___lwmod:
   341                           	opt stack 0
   342  000008                     ___lwmod@dividend:
   343                           	opt stack 0
   344                           
   345                           ; 2 bytes @ 0x7
   346  000008                     	ds	2
   347  00000A                     ___lwmod@divisor:
   348                           	opt stack 0
   349                           
   350                           ; 2 bytes @ 0x9
   351  00000A                     	ds	2
   352  00000C                     ___lwmod@counter:
   353                           	opt stack 0
   354                           
   355                           ; 1 bytes @ 0xB
   356  00000C                     	ds	1
   357  00000D                     ?_printf:
   358                           	opt stack 0
   359  00000D                     printf@f:
   360                           	opt stack 0
   361                           
   362                           ; 2 bytes @ 0xC
   363  00000D                     	ds	4
   364  000011                     ??_printf:
   365                           
   366                           ; 1 bytes @ 0x10
   367  000011                     	ds	1
   368  000012                     printf@ap:
   369                           	opt stack 0
   370                           
   371                           ; 2 bytes @ 0x11
   372  000012                     	ds	2
   373  000014                     printf@flag:
   374                           	opt stack 0
   375                           
   376                           ; 1 bytes @ 0x13
   377  000014                     	ds	1
   378  000015                     printf@prec:
   379                           	opt stack 0
   380                           
   381                           ; 1 bytes @ 0x14
   382  000015                     	ds	1
   383  000016                     printf@val:
   384                           	opt stack 0
   385                           
   386                           ; 2 bytes @ 0x15
   387  000016                     	ds	2
   388  000018                     printf@c:
   389                           	opt stack 0
   390                           
   391                           ; 1 bytes @ 0x17
   392  000018                     	ds	1
   393  000019                     ??_xyliphim:
   394                           
   395                           ; 1 bytes @ 0x18
   396  000019                     	ds	2
   397  00001B                     xyliphim@so:
   398                           	opt stack 0
   399                           
   400                           ; 2 bytes @ 0x1A
   401  00001B                     	ds	2
   402  00001D                     ??_quetphim:
   403                           
   404                           ; 1 bytes @ 0x1C
   405  00001D                     	ds	2
   406  00001F                     quetphim@dl_quet:
   407                           	opt stack 0
   408                           
   409                           ; 1 bytes @ 0x1E
   410  00001F                     	ds	1
   411  000020                     ??_timer0_isr:
   412                           
   413                           ; 1 bytes @ 0x1F
   414  000020                     	ds	21
   415                           postinc0	equ	0xFEE
   416                           wreg	equ	0xFE8
   417                           
   418 ;;
   419 ;;Main: autosize = 0, tempsize = 0, incstack = 0, save=0
   420 ;;
   421 ;; *************** function _main *****************
   422 ;; Defined at:
   423 ;;		line 87 in file "Tn06YC2.c"
   424 ;; Parameters:    Size  Location     Type
   425 ;;		None
   426 ;; Auto vars:     Size  Location     Type
   427 ;;		None
   428 ;; Return value:  Size  Location     Type
   429 ;;                  1    wreg      void 
   430 ;; Registers used:
   431 ;;		wreg, status,2, status,0, tblptrl, tblptrh, tblptru, prodl, prodh, cstack
   432 ;; Tracked objects:
   433 ;;		On entry : 0/0
   434 ;;		On exit  : 0/0
   435 ;;		Unchanged: 0/0
   436 ;; Data sizes:     COMRAM   BANK0   BANK1   BANK2   BANK3   BANK4   BANK5   BANK6   BANK7   BANK8   BANK9  BANK10  BANK1
      +1  BANK12  BANK13  BANK14  BANK15
   437 ;;      Params:         0       0       0       0       0       0       0       0       0       0       0       0       
      +0       0       0       0       0
   438 ;;      Locals:         0       0       0       0       0       0       0       0       0       0       0       0       
      +0       0       0       0       0
   439 ;;      Temps:          0       0       0       0       0       0       0       0       0       0       0       0       
      +0       0       0       0       0
   440 ;;      Totals:         0       0       0       0       0       0       0       0       0       0       0       0       
      +0       0       0       0       0
   441 ;;Total ram usage:        0 bytes
   442 ;; Hardware stack levels required when called:   19
   443 ;; This function calls:
   444 ;;		_init
   445 ;;		_lcd_init
   446 ;;		_timer0_init
   447 ;; This function is called by:
   448 ;;		Startup code after reset
   449 ;; This function uses a non-reentrant model
   450 ;;
   451                           
   452                           	psect	text0
   453  00169C                     __ptext0:
   454                           	opt stack 0
   455  00169C                     _main:
   456                           	opt stack 12
   457                           
   458                           ;Tn06YC2.c: 89: init();
   459                           
   460                           ;incstack = 0
   461  00169C  ECBB  F00A         	call	_init	;wreg free
   462                           
   463                           ;Tn06YC2.c: 90: timer0_init();
   464  0016A0  EC2B  F00B         	call	_timer0_init	;wreg free
   465                           
   466                           ;Tn06YC2.c: 91: lcd_init();
   467  0016A4  EC49  F009         	call	_lcd_init	;wreg free
   468  0016A8                     l98:
   469  0016A8  D7FF               	goto	l98
   470  0016AA                     __end_of_main:
   471                           	opt stack 0
   472                           postinc0	equ	0xFEE
   473                           wreg	equ	0xFE8
   474                           
   475 ;; *************** function _timer0_init *****************
   476 ;; Defined at:
   477 ;;		line 11 in file "Timer.c"
   478 ;; Parameters:    Size  Location     Type
   479 ;;		None
   480 ;; Auto vars:     Size  Location     Type
   481 ;;		None
   482 ;; Return value:  Size  Location     Type
   483 ;;                  1    wreg      void 
   484 ;; Registers used:
   485 ;;		wreg, status,2, cstack
   486 ;; Tracked objects:
   487 ;;		On entry : 0/0
   488 ;;		On exit  : 0/0
   489 ;;		Unchanged: 0/0
   490 ;; Data sizes:     COMRAM   BANK0   BANK1   BANK2   BANK3   BANK4   BANK5   BANK6   BANK7   BANK8   BANK9  BANK10  BANK1
      +1  BANK12  BANK13  BANK14  BANK15
   491 ;;      Params:         0       0       0       0       0       0       0       0       0       0       0       0       
      +0       0       0       0       0
   492 ;;      Locals:         0       0       0       0       0       0       0       0       0       0       0       0       
      +0       0       0       0       0
   493 ;;      Temps:          0       0       0       0       0       0       0       0       0       0       0       0       
      +0       0       0       0       0
   494 ;;      Totals:         0       0       0       0       0       0       0       0       0       0       0       0       
      +0       0       0       0       0
   495 ;;Total ram usage:        0 bytes
   496 ;; Hardware stack levels used:    1
   497 ;; Hardware stack levels required when called:   12
   498 ;; This function calls:
   499 ;;		_timer0_reset
   500 ;; This function is called by:
   501 ;;		_main
   502 ;; This function uses a non-reentrant model
   503 ;;
   504                           
   505                           	psect	text1
   506  001656                     __ptext1:
   507                           	opt stack 0
   508  001656                     _timer0_init:
   509                           	opt stack 18
   510                           
   511                           ;Timer.c: 13: RCONbits.IPEN=1;
   512                           
   513                           ;incstack = 0
   514  001656  8ED0               	bsf	4048,7,c	;volatile
   515                           
   516                           ;Timer.c: 14: INTCON2bits.TMR0IP=0;
   517  001658  94F1               	bcf	intcon2,2,c	;volatile
   518                           
   519                           ;Timer.c: 15: INTCONbits.TMR0IE=1;
   520  00165A  8AF2               	bsf	intcon,5,c	;volatile
   521                           
   522                           ;Timer.c: 16: INTCONbits.GIEH=1;
   523  00165C  8EF2               	bsf	intcon,7,c	;volatile
   524                           
   525                           ;Timer.c: 17: INTCONbits.GIEL=1;
   526  00165E  8CF2               	bsf	intcon,6,c	;volatile
   527                           
   528                           ;Timer.c: 18: T0CON=0;
   529  001660  0E00               	movlw	0
   530  001662  6ED5               	movwf	4053,c	;volatile
   531                           
   532                           ;Timer.c: 19: timer0_reset();
   533  001664  EC3E  F00B         	call	_timer0_reset	;wreg free
   534  001668  0012               	return		;funcret
   535  00166A                     __end_of_timer0_init:
   536                           	opt stack 0
   537                           intcon	equ	0xFF2
   538                           intcon2	equ	0xFF1
   539                           postinc0	equ	0xFEE
   540                           wreg	equ	0xFE8
   541                           
   542 ;; *************** function _timer0_reset *****************
   543 ;; Defined at:
   544 ;;		line 4 in file "Timer.c"
   545 ;; Parameters:    Size  Location     Type
   546 ;;		None
   547 ;; Auto vars:     Size  Location     Type
   548 ;;		None
   549 ;; Return value:  Size  Location     Type
   550 ;;                  1    wreg      void 
   551 ;; Registers used:
   552 ;;		wreg, status,2
   553 ;; Tracked objects:
   554 ;;		On entry : 0/0
   555 ;;		On exit  : 0/0
   556 ;;		Unchanged: 0/0
   557 ;; Data sizes:     COMRAM   BANK0   BANK1   BANK2   BANK3   BANK4   BANK5   BANK6   BANK7   BANK8   BANK9  BANK10  BANK1
      +1  BANK12  BANK13  BANK14  BANK15
   558 ;;      Params:         0       0       0       0       0       0       0       0       0       0       0       0       
      +0       0       0       0       0
   559 ;;      Locals:         0       0       0       0       0       0       0       0       0       0       0       0       
      +0       0       0       0       0
   560 ;;      Temps:          0       0       0       0       0       0       0       0       0       0       0       0       
      +0       0       0       0       0
   561 ;;      Totals:         0       0       0       0       0       0       0       0       0       0       0       0       
      +0       0       0       0       0
   562 ;;Total ram usage:        0 bytes
   563 ;; Hardware stack levels used:    1
   564 ;; Hardware stack levels required when called:   11
   565 ;; This function calls:
   566 ;;		Nothing
   567 ;; This function is called by:
   568 ;;		_timer0_init
   569 ;; This function uses a non-reentrant model
   570 ;;
   571                           
   572                           	psect	text2
   573  00167C                     __ptext2:
   574                           	opt stack 0
   575  00167C                     _timer0_reset:
   576                           	opt stack 18
   577                           
   578                           ;Timer.c: 6: TMR0IF=0;
   579                           
   580                           ;incstack = 0
   581  00167C  94F2               	bcf	intcon,2,c	;volatile
   582                           
   583                           ;Timer.c: 7: TMR0ON=0;
   584  00167E  9ED5               	bcf	4053,7,c	;volatile
   585                           
   586                           ;Timer.c: 8: TMR0=-25000;
   587  001680  0E9E               	movlw	158
   588  001682  6ED7               	movwf	4055,c	;volatile
   589  001684  0E58               	movlw	88
   590  001686  6ED6               	movwf	4054,c	;volatile
   591                           
   592                           ;Timer.c: 9: TMR0ON=1;
   593  001688  8ED5               	bsf	4053,7,c	;volatile
   594  00168A  0012               	return		;funcret
   595  00168C                     __end_of_timer0_reset:
   596                           	opt stack 0
   597                           intcon	equ	0xFF2
   598                           intcon2	equ	0xFF1
   599                           postinc0	equ	0xFEE
   600                           wreg	equ	0xFE8
   601                           
   602 ;; *************** function _lcd_init *****************
   603 ;; Defined at:
   604 ;;		line 110 in file "DHBKLcd2.c"
   605 ;; Parameters:    Size  Location     Type
   606 ;;		None
   607 ;; Auto vars:     Size  Location     Type
   608 ;;		None
   609 ;; Return value:  Size  Location     Type
   610 ;;                  1    wreg      void 
   611 ;; Registers used:
   612 ;;		wreg, status,2, status,0, tblptrl, tblptrh, tblptru, prodl, prodh, cstack
   613 ;; Tracked objects:
   614 ;;		On entry : 0/0
   615 ;;		On exit  : 0/0
   616 ;;		Unchanged: 0/0
   617 ;; Data sizes:     COMRAM   BANK0   BANK1   BANK2   BANK3   BANK4   BANK5   BANK6   BANK7   BANK8   BANK9  BANK10  BANK1
      +1  BANK12  BANK13  BANK14  BANK15
   618 ;;      Params:         0       0       0       0       0       0       0       0       0       0       0       0       
      +0       0       0       0       0
   619 ;;      Locals:         0       0       0       0       0       0       0       0       0       0       0       0       
      +0       0       0       0       0
   620 ;;      Temps:          0       0       0       0       0       0       0       0       0       0       0       0       
      +0       0       0       0       0
   621 ;;      Totals:         0       0       0       0       0       0       0       0       0       0       0       0       
      +0       0       0       0       0
   622 ;;Total ram usage:        0 bytes
   623 ;; Hardware stack levels used:    1
   624 ;; Hardware stack levels required when called:   18
   625 ;; This function calls:
   626 ;;		_SPI_init
   627 ;;		_SPIportA_init
   628 ;;		_SPIportB_init
   629 ;;		_i_write
   630 ;;		_lcd_DHBK
   631 ;;		_lcd_cls
   632 ;;		_tre_ms
   633 ;; This function is called by:
   634 ;;		_main
   635 ;; This function uses a non-reentrant model
   636 ;;
   637                           
   638                           	psect	text3
   639  001292                     __ptext3:
   640                           	opt stack 0
   641  001292                     _lcd_init:
   642                           	opt stack 12
   643                           
   644                           ;DHBKLcd2.c: 112: TRISA2=0;TRISF6=0;
   645                           
   646                           ;incstack = 0
   647  001292  9492               	bcf	3986,2,c	;volatile
   648  001294  9C97               	bcf	3991,6,c	;volatile
   649                           
   650                           ;DHBKLcd2.c: 113: LATA2=1;
   651  001296  8489               	bsf	3977,2,c	;volatile
   652                           
   653                           ;DHBKLcd2.c: 114: LATF6=0; _delay(4); LATF6=1;
   654  001298  9C8E               	bcf	3982,6,c	;volatile
   655  00129A  D000               	nop2		;2 cycle nop
   656  00129C  D000               	nop2		;2 cycle nop
   657  00129E  8C8E               	bsf	3982,6,c	;volatile
   658                           
   659                           ;DHBKLcd2.c: 115: SPI_init(); SPIportA_init(); SPIportB_init();
   660  0012A0  EC55  F00B         	call	_SPI_init	;wreg free
   661  0012A4  ECFE  F00A         	call	_SPIportA_init	;wreg free
   662  0012A8  ECF2  F00A         	call	_SPIportB_init	;wreg free
   663                           
   664                           ;DHBKLcd2.c: 117: tre_ms(60);
   665  0012AC  0E00               	movlw	0
   666  0012AE  0100               	movlb	0	; () banked
   667  0012B0  6F61               	movwf	(tre_ms@p10ms+1)& (0+255),b
   668  0012B2  0E3C               	movlw	60
   669  0012B4  6F60               	movwf	tre_ms@p10ms& (0+255),b
   670  0012B6  ECCA  F00A         	call	_tre_ms	;wreg free
   671                           
   672                           ;DHBKLcd2.c: 118: i_write(0b00110000);
   673  0012BA  0E30               	movlw	48
   674  0012BC  EC9B  F00A         	call	_i_write
   675                           
   676                           ;DHBKLcd2.c: 119: tre_ms(41);
   677  0012C0  0E00               	movlw	0
   678  0012C2  0100               	movlb	0	; () banked
   679  0012C4  6F61               	movwf	(tre_ms@p10ms+1)& (0+255),b
   680  0012C6  0E29               	movlw	41
   681  0012C8  6F60               	movwf	tre_ms@p10ms& (0+255),b
   682  0012CA  ECCA  F00A         	call	_tre_ms	;wreg free
   683                           
   684                           ;DHBKLcd2.c: 120: i_write(0b00110000);
   685  0012CE  0E30               	movlw	48
   686  0012D0  EC9B  F00A         	call	_i_write
   687                           
   688                           ;DHBKLcd2.c: 121: _delay(158);
   689  0012D4  0E34               	movlw	52
   690  0012D6                     u787:
   691  0012D6  2EE8               	decfsz	wreg,f,c
   692  0012D8  D7FE               	bra	u787
   693  0012DA  D000               	nop2	
   694                           
   695                           ;DHBKLcd2.c: 122: i_write(0b00110000);
   696  0012DC  0E30               	movlw	48
   697  0012DE  EC9B  F00A         	call	_i_write
   698                           
   699                           ;DHBKLcd2.c: 123: i_write(0b00111000);
   700  0012E2  0E38               	movlw	56
   701  0012E4  EC9B  F00A         	call	_i_write
   702                           
   703                           ;DHBKLcd2.c: 124: i_write(0b00001100);
   704  0012E8  0E0C               	movlw	12
   705  0012EA  EC9B  F00A         	call	_i_write
   706                           
   707                           ;DHBKLcd2.c: 126: i_write(0b00000110);
   708  0012EE  0E06               	movlw	6
   709  0012F0  EC9B  F00A         	call	_i_write
   710                           
   711                           ;DHBKLcd2.c: 128: lcd_cls();
   712  0012F4  EC20  F00B         	call	_lcd_cls	;wreg free
   713                           
   714                           ;DHBKLcd2.c: 129: lcd_DHBK();
   715  0012F8  ECFE  F009         	call	_lcd_DHBK	;wreg free
   716  0012FC  0012               	return		;funcret
   717  0012FE                     __end_of_lcd_init:
   718                           	opt stack 0
   719                           intcon	equ	0xFF2
   720                           intcon2	equ	0xFF1
   721                           postinc0	equ	0xFEE
   722                           wreg	equ	0xFE8
   723                           
   724 ;; *************** function _tre_ms *****************
   725 ;; Defined at:
   726 ;;		line 23 in file "DHBKLcd2.c"
   727 ;; Parameters:    Size  Location     Type
   728 ;;  p10ms           2    0[BANK0 ] unsigned int 
   729 ;; Auto vars:     Size  Location     Type
   730 ;;		None
   731 ;; Return value:  Size  Location     Type
   732 ;;                  1    wreg      void 
   733 ;; Registers used:
   734 ;;		wreg, status,2, status,0
   735 ;; Tracked objects:
   736 ;;		On entry : 0/0
   737 ;;		On exit  : 0/0
   738 ;;		Unchanged: 0/0
   739 ;; Data sizes:     COMRAM   BANK0   BANK1   BANK2   BANK3   BANK4   BANK5   BANK6   BANK7   BANK8   BANK9  BANK10  BANK1
      +1  BANK12  BANK13  BANK14  BANK15
   740 ;;      Params:         0       2       0       0       0       0       0       0       0       0       0       0       
      +0       0       0       0       0
   741 ;;      Locals:         0       0       0       0       0       0       0       0       0       0       0       0       
      +0       0       0       0       0
   742 ;;      Temps:          0       0       0       0       0       0       0       0       0       0       0       0       
      +0       0       0       0       0
   743 ;;      Totals:         0       2       0       0       0       0       0       0       0       0       0       0       
      +0       0       0       0       0
   744 ;;Total ram usage:        2 bytes
   745 ;; Hardware stack levels used:    1
   746 ;; Hardware stack levels required when called:   11
   747 ;; This function calls:
   748 ;;		Nothing
   749 ;; This function is called by:
   750 ;;		_lcd_init
   751 ;; This function uses a non-reentrant model
   752 ;;
   753                           
   754                           	psect	text4
   755  001594                     __ptext4:
   756                           	opt stack 0
   757  001594                     _tre_ms:
   758                           	opt stack 18
   759                           
   760                           ;incstack = 0
   761  001594  0100               	movlb	0	; () banked
   762  001596  5160               	movf	tre_ms@p10ms& (0+255),w,b
   763  001598  1161               	iorwf	(tre_ms@p10ms+1)& (0+255),w,b
   764  00159A  B4D8               	btfsc	status,2,c
   765  00159C  0012               	return	
   766                           
   767                           ; BSR set to: 0
   768                           
   769                           ; BSR set to: 0
   770                           
   771                           ; BSR set to: 0
   772  00159E  0E53               	movlw	83
   773  0015A0                     u797:
   774  0015A0  2EE8               	decfsz	wreg,f,c
   775  0015A2  D7FE               	bra	u797
   776  0015A4  F000               	nop	
   777  0015A6  0100               	movlb	0	; () banked
   778  0015A8  0760               	decf	tre_ms@p10ms& (0+255),f,b
   779  0015AA  A0D8               	btfss	status,0,c
   780  0015AC  0761               	decf	(tre_ms@p10ms+1)& (0+255),f,b
   781  0015AE  D7F3               	goto	L1
   782  0015B0                     __end_of_tre_ms:
   783                           	opt stack 0
   784                           intcon	equ	0xFF2
   785                           intcon2	equ	0xFF1
   786                           postinc0	equ	0xFEE
   787                           wreg	equ	0xFE8
   788                           status	equ	0xFD8
   789                           
   790 ;; *************** function _lcd_DHBK *****************
   791 ;; Defined at:
   792 ;;		line 149 in file "DHBKLcd2.c"
   793 ;; Parameters:    Size  Location     Type
   794 ;;		None
   795 ;; Auto vars:     Size  Location     Type
   796 ;;  i               1    6[BANK0 ] unsigned char 
   797 ;; Return value:  Size  Location     Type
   798 ;;                  1    wreg      void 
   799 ;; Registers used:
   800 ;;		wreg, status,2, status,0, tblptrl, tblptrh, tblptru, prodl, prodh, cstack
   801 ;; Tracked objects:
   802 ;;		On entry : 0/0
   803 ;;		On exit  : 0/0
   804 ;;		Unchanged: 0/0
   805 ;; Data sizes:     COMRAM   BANK0   BANK1   BANK2   BANK3   BANK4   BANK5   BANK6   BANK7   BANK8   BANK9  BANK10  BANK1
      +1  BANK12  BANK13  BANK14  BANK15
   806 ;;      Params:         0       0       0       0       0       0       0       0       0       0       0       0       
      +0       0       0       0       0
   807 ;;      Locals:         0       1       0       0       0       0       0       0       0       0       0       0       
      +0       0       0       0       0
   808 ;;      Temps:          0       0       0       0       0       0       0       0       0       0       0       0       
      +0       0       0       0       0
   809 ;;      Totals:         0       1       0       0       0       0       0       0       0       0       0       0       
      +0       0       0       0       0
   810 ;;Total ram usage:        1 bytes
   811 ;; Hardware stack levels used:    1
   812 ;; Hardware stack levels required when called:   17
   813 ;; This function calls:
   814 ;;		_lcd_download
   815 ;;		_lcd_gotoxy
   816 ;;		_putch
   817 ;; This function is called by:
   818 ;;		_lcd_init
   819 ;; This function uses a non-reentrant model
   820 ;;
   821                           
   822                           	psect	text5
   823  0013FC                     __ptext5:
   824                           	opt stack 0
   825  0013FC                     _lcd_DHBK:
   826                           	opt stack 12
   827                           
   828                           ;DHBKLcd2.c: 151: for(i=0;i<8;i++) lcd_download(i,dhbkstr[i]);
   829                           
   830                           ; BSR set to: 0
   831                           ;incstack = 0
   832  0013FC  0E00               	movlw	0
   833  0013FE  0100               	movlb	0	; () banked
   834  001400  6F66               	movwf	lcd_DHBK@i& (0+255),b
   835  001402                     l1520:
   836                           
   837                           ; BSR set to: 0
   838  001402  0E07               	movlw	7
   839  001404  6566               	cpfsgt	lcd_DHBK@i& (0+255),b
   840  001406  D001               	goto	l202
   841  001408  D00E               	goto	u720
   842  00140A                     l202:
   843                           
   844                           ; BSR set to: 0
   845                           
   846                           ; BSR set to: 0
   847  00140A  5166               	movf	lcd_DHBK@i& (0+255),w,b
   848  00140C  0D08               	mullw	8
   849  00140E  0E0B               	movlw	low _dhbkstr
   850  001410  24F3               	addwf	prodl,w,c
   851  001412  6F60               	movwf	lcd_download@data& (0+255),b
   852  001414  0E10               	movlw	high _dhbkstr
   853  001416  20F4               	addwfc	prodh,w,c
   854  001418  6F61               	movwf	(lcd_download@data+1)& (0+255),b
   855  00141A  5166               	movf	lcd_DHBK@i& (0+255),w,b
   856  00141C  ECD6  F009         	call	_lcd_download
   857  001420  0100               	movlb	0	; () banked
   858  001422  2B66               	incf	lcd_DHBK@i& (0+255),f,b
   859  001424  D7EE               	goto	l1520
   860  001426                     u720:
   861                           
   862                           ; BSR set to: 0
   863                           ;DHBKLcd2.c: 152: lcd_gotoxy(1,8);
   864                           
   865                           ; BSR set to: 0
   866  001426  0E08               	movlw	8
   867  001428  6E04               	movwf	lcd_gotoxy@col,c
   868  00142A  0E01               	movlw	1
   869  00142C  EC15  F00B         	call	_lcd_gotoxy
   870                           
   871                           ;DHBKLcd2.c: 153: for(i=0;i<8;i++) putch(i);
   872  001430  0E00               	movlw	0
   873  001432  0100               	movlb	0	; () banked
   874  001434  6F66               	movwf	lcd_DHBK@i& (0+255),b
   875  001436                     l1534:
   876                           
   877                           ; BSR set to: 0
   878  001436  0E07               	movlw	7
   879  001438  6566               	cpfsgt	lcd_DHBK@i& (0+255),b
   880  00143A  D001               	goto	l204
   881  00143C  0012               	return	
   882  00143E                     l204:
   883                           
   884                           ; BSR set to: 0
   885                           
   886                           ; BSR set to: 0
   887  00143E  5166               	movf	lcd_DHBK@i& (0+255),w,b
   888  001440  EC5C  F00B         	call	_putch
   889  001444  0100               	movlb	0	; () banked
   890  001446  2B66               	incf	lcd_DHBK@i& (0+255),f,b
   891  001448  D7F6               	goto	l1534
   892  00144A                     __end_of_lcd_DHBK:
   893                           	opt stack 0
   894                           prodh	equ	0xFF4
   895                           prodl	equ	0xFF3
   896                           intcon	equ	0xFF2
   897                           intcon2	equ	0xFF1
   898                           postinc0	equ	0xFEE
   899                           wreg	equ	0xFE8
   900                           status	equ	0xFD8
   901                           
   902 ;; *************** function _lcd_download *****************
   903 ;; Defined at:
   904 ;;		line 101 in file "DHBKLcd2.c"
   905 ;; Parameters:    Size  Location     Type
   906 ;;  addr            1    wreg     unsigned char 
   907 ;;  data            2    0[BANK0 ] PTR const unsigned char 
   908 ;;		 -> dhbkstr(64), 
   909 ;; Auto vars:     Size  Location     Type
   910 ;;  addr            1    4[BANK0 ] unsigned char 
   911 ;;  j               1    5[BANK0 ] unsigned char 
   912 ;; Return value:  Size  Location     Type
   913 ;;                  1    wreg      void 
   914 ;; Registers used:
   915 ;;		wreg, status,2, status,0, tblptrl, tblptrh, tblptru, prodl, prodh, cstack
   916 ;; Tracked objects:
   917 ;;		On entry : 0/0
   918 ;;		On exit  : 0/0
   919 ;;		Unchanged: 0/0
   920 ;; Data sizes:     COMRAM   BANK0   BANK1   BANK2   BANK3   BANK4   BANK5   BANK6   BANK7   BANK8   BANK9  BANK10  BANK1
      +1  BANK12  BANK13  BANK14  BANK15
   921 ;;      Params:         0       2       0       0       0       0       0       0       0       0       0       0       
      +0       0       0       0       0
   922 ;;      Locals:         0       2       0       0       0       0       0       0       0       0       0       0       
      +0       0       0       0       0
   923 ;;      Temps:          0       2       0       0       0       0       0       0       0       0       0       0       
      +0       0       0       0       0
   924 ;;      Totals:         0       6       0       0       0       0       0       0       0       0       0       0       
      +0       0       0       0       0
   925 ;;Total ram usage:        6 bytes
   926 ;; Hardware stack levels used:    1
   927 ;; Hardware stack levels required when called:   14
   928 ;; This function calls:
   929 ;;		_d_write
   930 ;;		_i_write
   931 ;; This function is called by:
   932 ;;		_lcd_DHBK
   933 ;; This function uses a non-reentrant model
   934 ;;
   935                           
   936                           	psect	text6
   937  0013AC                     __ptext6:
   938                           	opt stack 0
   939  0013AC                     _lcd_download:
   940                           	opt stack 14
   941                           
   942                           ; BSR set to: 0
   943                           ;incstack = 0
   944                           ;lcd_download@addr stored from wreg
   945  0013AC  0100               	movlb	0	; () banked
   946  0013AE  6F64               	movwf	lcd_download@addr& (0+255),b
   947                           
   948                           ;DHBKLcd2.c: 103: i_write((unsigned char)((addr*8&0b00111111)|0b01000000));
   949  0013B0  0100               	movlb	0	; () banked
   950  0013B2  5164               	movf	lcd_download@addr& (0+255),w,b
   951  0013B4  0D08               	mullw	8
   952  0013B6  50F3               	movf	prodl,w,c
   953  0013B8  0B3F               	andlw	63
   954  0013BA  0940               	iorlw	64
   955  0013BC  EC9B  F00A         	call	_i_write
   956                           
   957                           ;DHBKLcd2.c: 104: for(j=0;j<8;j++)
   958  0013C0  0E00               	movlw	0
   959  0013C2  0100               	movlb	0	; () banked
   960  0013C4  6F65               	movwf	lcd_download@j& (0+255),b
   961  0013C6                     l1458:
   962                           
   963                           ; BSR set to: 0
   964  0013C6  0E07               	movlw	7
   965  0013C8  6565               	cpfsgt	lcd_download@j& (0+255),b
   966  0013CA  D001               	goto	l174
   967  0013CC  0012               	return	
   968  0013CE                     l174:
   969                           
   970                           ; BSR set to: 0
   971                           ;DHBKLcd2.c: 105: d_write(data[j]);
   972                           
   973                           ; BSR set to: 0
   974  0013CE  5165               	movf	lcd_download@j& (0+255),w,b
   975  0013D0  0D01               	mullw	1
   976  0013D2  C060  F062         	movff	lcd_download@data,??_lcd_download
   977  0013D6  C061  F063         	movff	lcd_download@data+1,??_lcd_download+1
   978  0013DA  50F3               	movf	prodl,w,c
   979  0013DC  2762               	addwf	??_lcd_download& (0+255),f,b
   980  0013DE  50F4               	movf	prodh,w,c
   981  0013E0  2363               	addwfc	(??_lcd_download+1)& (0+255),f,b
   982  0013E2  C062  FFF6         	movff	??_lcd_download,tblptrl
   983  0013E6  C063  FFF7         	movff	??_lcd_download+1,tblptrh
   984  0013EA                     	if	0	;tblptru may be non-zero
   985  0013EA                     	endif
   986  0013EA                     	if	1	;Program memory is > 0xFFFF, there are 3 active tblptr bytes
   987  0013EA  0E00               	movlw	low (__mediumconst shr (0+16))
   988  0013EC  6EF8               	movwf	tblptru,c
   989  0013EE                     	endif
   990  0013EE  0008               	tblrd		*
   991  0013F0  50F5               	movf	tablat,w,c
   992  0013F2  ECAB  F00A         	call	_d_write
   993  0013F6  0100               	movlb	0	; () banked
   994  0013F8  2B65               	incf	lcd_download@j& (0+255),f,b
   995  0013FA  D7E5               	goto	l1458
   996  0013FC                     __end_of_lcd_download:
   997                           	opt stack 0
   998                           tblptru	equ	0xFF8
   999                           tblptrh	equ	0xFF7
  1000                           tblptrl	equ	0xFF6
  1001                           tablat	equ	0xFF5
  1002                           prodh	equ	0xFF4
  1003                           prodl	equ	0xFF3
  1004                           intcon	equ	0xFF2
  1005                           intcon2	equ	0xFF1
  1006                           postinc0	equ	0xFEE
  1007                           wreg	equ	0xFE8
  1008                           status	equ	0xFD8
  1009                           
  1010 ;; *************** function _SPIportB_init *****************
  1011 ;; Defined at:
  1012 ;;		line 51 in file "DHBKLcd2.c"
  1013 ;; Parameters:    Size  Location     Type
  1014 ;;		None
  1015 ;; Auto vars:     Size  Location     Type
  1016 ;;		None
  1017 ;; Return value:  Size  Location     Type
  1018 ;;                  1    wreg      void 
  1019 ;; Registers used:
  1020 ;;		wreg, cstack
  1021 ;; Tracked objects:
  1022 ;;		On entry : 0/0
  1023 ;;		On exit  : 0/0
  1024 ;;		Unchanged: 0/0
  1025 ;; Data sizes:     COMRAM   BANK0   BANK1   BANK2   BANK3   BANK4   BANK5   BANK6   BANK7   BANK8   BANK9  BANK10  BANK1
      +1  BANK12  BANK13  BANK14  BANK15
  1026 ;;      Params:         0       0       0       0       0       0       0       0       0       0       0       0       
      +0       0       0       0       0
  1027 ;;      Locals:         0       0       0       0       0       0       0       0       0       0       0       0       
      +0       0       0       0       0
  1028 ;;      Temps:          0       0       0       0       0       0       0       0       0       0       0       0       
      +0       0       0       0       0
  1029 ;;      Totals:         0       0       0       0       0       0       0       0       0       0       0       0       
      +0       0       0       0       0
  1030 ;;Total ram usage:        0 bytes
  1031 ;; Hardware stack levels used:    1
  1032 ;; Hardware stack levels required when called:   12
  1033 ;; This function calls:
  1034 ;;		_SPI_send
  1035 ;; This function is called by:
  1036 ;;		_lcd_init
  1037 ;; This function uses a non-reentrant model
  1038 ;;
  1039                           
  1040                           	psect	text7
  1041  0015E4                     __ptext7:
  1042                           	opt stack 0
  1043  0015E4                     _SPIportB_init:
  1044                           	opt stack 17
  1045                           
  1046                           ;DHBKLcd2.c: 53: LATA2=0;
  1047                           
  1048                           ; BSR set to: 0
  1049                           ;incstack = 0
  1050  0015E4  9489               	bcf	3977,2,c	;volatile
  1051                           
  1052                           ;DHBKLcd2.c: 54: SPI_send(0x40);
  1053  0015E6  0E40               	movlw	64
  1054  0015E8  EC35  F00B         	call	_SPI_send
  1055                           
  1056                           ;DHBKLcd2.c: 55: SPI_send(0x01);
  1057  0015EC  0E01               	movlw	1
  1058  0015EE  EC35  F00B         	call	_SPI_send
  1059                           
  1060                           ;DHBKLcd2.c: 56: SPI_send(0x00);
  1061  0015F2  0E00               	movlw	0
  1062  0015F4  EC35  F00B         	call	_SPI_send
  1063                           
  1064                           ;DHBKLcd2.c: 57: LATA2=1;
  1065  0015F8  8489               	bsf	3977,2,c	;volatile
  1066  0015FA  0012               	return		;funcret
  1067  0015FC                     __end_of_SPIportB_init:
  1068                           	opt stack 0
  1069                           tblptru	equ	0xFF8
  1070                           tblptrh	equ	0xFF7
  1071                           tblptrl	equ	0xFF6
  1072                           tablat	equ	0xFF5
  1073                           prodh	equ	0xFF4
  1074                           prodl	equ	0xFF3
  1075                           intcon	equ	0xFF2
  1076                           intcon2	equ	0xFF1
  1077                           postinc0	equ	0xFEE
  1078                           wreg	equ	0xFE8
  1079                           status	equ	0xFD8
  1080                           
  1081 ;; *************** function _SPIportA_init *****************
  1082 ;; Defined at:
  1083 ;;		line 43 in file "DHBKLcd2.c"
  1084 ;; Parameters:    Size  Location     Type
  1085 ;;		None
  1086 ;; Auto vars:     Size  Location     Type
  1087 ;;		None
  1088 ;; Return value:  Size  Location     Type
  1089 ;;                  1    wreg      void 
  1090 ;; Registers used:
  1091 ;;		wreg, cstack
  1092 ;; Tracked objects:
  1093 ;;		On entry : 0/0
  1094 ;;		On exit  : 0/0
  1095 ;;		Unchanged: 0/0
  1096 ;; Data sizes:     COMRAM   BANK0   BANK1   BANK2   BANK3   BANK4   BANK5   BANK6   BANK7   BANK8   BANK9  BANK10  BANK1
      +1  BANK12  BANK13  BANK14  BANK15
  1097 ;;      Params:         0       0       0       0       0       0       0       0       0       0       0       0       
      +0       0       0       0       0
  1098 ;;      Locals:         0       0       0       0       0       0       0       0       0       0       0       0       
      +0       0       0       0       0
  1099 ;;      Temps:          0       0       0       0       0       0       0       0       0       0       0       0       
      +0       0       0       0       0
  1100 ;;      Totals:         0       0       0       0       0       0       0       0       0       0       0       0       
      +0       0       0       0       0
  1101 ;;Total ram usage:        0 bytes
  1102 ;; Hardware stack levels used:    1
  1103 ;; Hardware stack levels required when called:   12
  1104 ;; This function calls:
  1105 ;;		_SPI_send
  1106 ;; This function is called by:
  1107 ;;		_lcd_init
  1108 ;; This function uses a non-reentrant model
  1109 ;;
  1110                           
  1111                           	psect	text8
  1112  0015FC                     __ptext8:
  1113                           	opt stack 0
  1114  0015FC                     _SPIportA_init:
  1115                           	opt stack 17
  1116                           
  1117                           ;DHBKLcd2.c: 45: LATA2=0;
  1118                           
  1119                           ;incstack = 0
  1120  0015FC  9489               	bcf	3977,2,c	;volatile
  1121                           
  1122                           ;DHBKLcd2.c: 46: SPI_send(0x40);
  1123  0015FE  0E40               	movlw	64
  1124  001600  EC35  F00B         	call	_SPI_send
  1125                           
  1126                           ;DHBKLcd2.c: 47: SPI_send(0x00);
  1127  001604  0E00               	movlw	0
  1128  001606  EC35  F00B         	call	_SPI_send
  1129                           
  1130                           ;DHBKLcd2.c: 48: SPI_send(0x00);
  1131  00160A  0E00               	movlw	0
  1132  00160C  EC35  F00B         	call	_SPI_send
  1133                           
  1134                           ;DHBKLcd2.c: 49: LATA2=1;
  1135  001610  8489               	bsf	3977,2,c	;volatile
  1136  001612  0012               	return		;funcret
  1137  001614                     __end_of_SPIportA_init:
  1138                           	opt stack 0
  1139                           tblptru	equ	0xFF8
  1140                           tblptrh	equ	0xFF7
  1141                           tblptrl	equ	0xFF6
  1142                           tablat	equ	0xFF5
  1143                           prodh	equ	0xFF4
  1144                           prodl	equ	0xFF3
  1145                           intcon	equ	0xFF2
  1146                           intcon2	equ	0xFF1
  1147                           postinc0	equ	0xFEE
  1148                           wreg	equ	0xFE8
  1149                           status	equ	0xFD8
  1150                           
  1151 ;; *************** function _SPI_init *****************
  1152 ;; Defined at:
  1153 ;;		line 30 in file "DHBKLcd2.c"
  1154 ;; Parameters:    Size  Location     Type
  1155 ;;		None
  1156 ;; Auto vars:     Size  Location     Type
  1157 ;;		None
  1158 ;; Return value:  Size  Location     Type
  1159 ;;                  1    wreg      void 
  1160 ;; Registers used:
  1161 ;;		wreg, status,2
  1162 ;; Tracked objects:
  1163 ;;		On entry : 0/0
  1164 ;;		On exit  : 0/0
  1165 ;;		Unchanged: 0/0
  1166 ;; Data sizes:     COMRAM   BANK0   BANK1   BANK2   BANK3   BANK4   BANK5   BANK6   BANK7   BANK8   BANK9  BANK10  BANK1
      +1  BANK12  BANK13  BANK14  BANK15
  1167 ;;      Params:         0       0       0       0       0       0       0       0       0       0       0       0       
      +0       0       0       0       0
  1168 ;;      Locals:         0       0       0       0       0       0       0       0       0       0       0       0       
      +0       0       0       0       0
  1169 ;;      Temps:          0       0       0       0       0       0       0       0       0       0       0       0       
      +0       0       0       0       0
  1170 ;;      Totals:         0       0       0       0       0       0       0       0       0       0       0       0       
      +0       0       0       0       0
  1171 ;;Total ram usage:        0 bytes
  1172 ;; Hardware stack levels used:    1
  1173 ;; Hardware stack levels required when called:   11
  1174 ;; This function calls:
  1175 ;;		Nothing
  1176 ;; This function is called by:
  1177 ;;		_lcd_init
  1178 ;; This function uses a non-reentrant model
  1179 ;;
  1180                           
  1181                           	psect	text9
  1182  0016AA                     __ptext9:
  1183                           	opt stack 0
  1184  0016AA                     _SPI_init:
  1185                           	opt stack 18
  1186                           
  1187                           ;DHBKLcd2.c: 32: TRISC5=0;TRISC3=0;
  1188                           
  1189                           ;incstack = 0
  1190  0016AA  9A94               	bcf	3988,5,c	;volatile
  1191  0016AC  9694               	bcf	3988,3,c	;volatile
  1192                           
  1193                           ;DHBKLcd2.c: 33: SSP1CON1=0x20;
  1194  0016AE  0E20               	movlw	32
  1195  0016B0  6EC6               	movwf	4038,c	;volatile
  1196                           
  1197                           ;DHBKLcd2.c: 34: CKE1=1; SSP1IF=0;
  1198  0016B2  8CC7               	bsf	4039,6,c	;volatile
  1199  0016B4  969E               	bcf	3998,3,c	;volatile
  1200  0016B6  0012               	return		;funcret
  1201  0016B8                     __end_of_SPI_init:
  1202                           	opt stack 0
  1203                           tblptru	equ	0xFF8
  1204                           tblptrh	equ	0xFF7
  1205                           tblptrl	equ	0xFF6
  1206                           tablat	equ	0xFF5
  1207                           prodh	equ	0xFF4
  1208                           prodl	equ	0xFF3
  1209                           intcon	equ	0xFF2
  1210                           intcon2	equ	0xFF1
  1211                           postinc0	equ	0xFEE
  1212                           wreg	equ	0xFE8
  1213                           status	equ	0xFD8
  1214                           
  1215 ;; *************** function _init *****************
  1216 ;; Defined at:
  1217 ;;		line 28 in file "Tn06YC2.c"
  1218 ;; Parameters:    Size  Location     Type
  1219 ;;		None
  1220 ;; Auto vars:     Size  Location     Type
  1221 ;;		None
  1222 ;; Return value:  Size  Location     Type
  1223 ;;                  1    wreg      void 
  1224 ;; Registers used:
  1225 ;;		wreg, status,2
  1226 ;; Tracked objects:
  1227 ;;		On entry : 0/0
  1228 ;;		On exit  : 0/0
  1229 ;;		Unchanged: 0/0
  1230 ;; Data sizes:     COMRAM   BANK0   BANK1   BANK2   BANK3   BANK4   BANK5   BANK6   BANK7   BANK8   BANK9  BANK10  BANK1
      +1  BANK12  BANK13  BANK14  BANK15
  1231 ;;      Params:         0       0       0       0       0       0       0       0       0       0       0       0       
      +0       0       0       0       0
  1232 ;;      Locals:         0       0       0       0       0       0       0       0       0       0       0       0       
      +0       0       0       0       0
  1233 ;;      Temps:          0       0       0       0       0       0       0       0       0       0       0       0       
      +0       0       0       0       0
  1234 ;;      Totals:         0       0       0       0       0       0       0       0       0       0       0       0       
      +0       0       0       0       0
  1235 ;;Total ram usage:        0 bytes
  1236 ;; Hardware stack levels used:    1
  1237 ;; Hardware stack levels required when called:   11
  1238 ;; This function calls:
  1239 ;;		Nothing
  1240 ;; This function is called by:
  1241 ;;		_main
  1242 ;; This function uses a non-reentrant model
  1243 ;;
  1244                           
  1245                           	psect	text10
  1246  001576                     __ptext10:
  1247                           	opt stack 0
  1248  001576                     _init:
  1249                           	opt stack 19
  1250                           
  1251                           ;Tn06YC2.c: 30: ADCON1=0x0F;
  1252                           
  1253                           ;incstack = 0
  1254  001576  0E0F               	movlw	15
  1255  001578  6EC1               	movwf	4033,c	;volatile
  1256                           
  1257                           ;Tn06YC2.c: 31: key_io=0x0F;
  1258  00157A  0E0F               	movlw	15
  1259  00157C  6E93               	movwf	3987,c	;volatile
  1260                           
  1261                           ;Tn06YC2.c: 32: led_io=0;
  1262  00157E  0E00               	movlw	0
  1263  001580  6E95               	movwf	3989,c	;volatile
  1264                           
  1265                           ;Tn06YC2.c: 33: led=0;
  1266  001582  0E00               	movlw	0
  1267  001584  6E8C               	movwf	3980,c	;volatile
  1268                           
  1269                           ;Tn06YC2.c: 34: idx=0;
  1270  001586  0E00               	movlw	0
  1271  001588  6E48               	movwf	_idx,c
  1272                           
  1273                           ;Tn06YC2.c: 35: hang = 0;
  1274  00158A  0E00               	movlw	0
  1275  00158C  6E45               	movwf	_hang,c
  1276                           
  1277                           ;Tn06YC2.c: 36: cot = 0;
  1278  00158E  0E00               	movlw	0
  1279  001590  6E46               	movwf	_cot,c
  1280  001592  0012               	return		;funcret
  1281  001594                     __end_of_init:
  1282                           	opt stack 0
  1283                           tblptru	equ	0xFF8
  1284                           tblptrh	equ	0xFF7
  1285                           tblptrl	equ	0xFF6
  1286                           tablat	equ	0xFF5
  1287                           prodh	equ	0xFF4
  1288                           prodl	equ	0xFF3
  1289                           intcon	equ	0xFF2
  1290                           intcon2	equ	0xFF1
  1291                           postinc0	equ	0xFEE
  1292                           wreg	equ	0xFE8
  1293                           status	equ	0xFD8
  1294                           
  1295 ;; *************** function _timer0_isr *****************
  1296 ;; Defined at:
  1297 ;;		line 21 in file "Timer.c"
  1298 ;; Parameters:    Size  Location     Type
  1299 ;;		None
  1300 ;; Auto vars:     Size  Location     Type
  1301 ;;		None
  1302 ;; Return value:  Size  Location     Type
  1303 ;;                  1    wreg      void 
  1304 ;; Registers used:
  1305 ;;		wreg, fsr2l, fsr2h, status,2, status,0, tblptrl, tblptrh, tblptru, prodl, prodh, cstack
  1306 ;; Tracked objects:
  1307 ;;		On entry : 0/0
  1308 ;;		On exit  : 0/0
  1309 ;;		Unchanged: 0/0
  1310 ;; Data sizes:     COMRAM   BANK0   BANK1   BANK2   BANK3   BANK4   BANK5   BANK6   BANK7   BANK8   BANK9  BANK10  BANK1
      +1  BANK12  BANK13  BANK14  BANK15
  1311 ;;      Params:         0       0       0       0       0       0       0       0       0       0       0       0       
      +0       0       0       0       0
  1312 ;;      Locals:         0       0       0       0       0       0       0       0       0       0       0       0       
      +0       0       0       0       0
  1313 ;;      Temps:         21       0       0       0       0       0       0       0       0       0       0       0       
      +0       0       0       0       0
  1314 ;;      Totals:        21       0       0       0       0       0       0       0       0       0       0       0       
      +0       0       0       0       0
  1315 ;;Total ram usage:       21 bytes
  1316 ;; Hardware stack levels used:    1
  1317 ;; Hardware stack levels required when called:   10
  1318 ;; This function calls:
  1319 ;;		_timer_process
  1320 ;;		i1_timer0_reset
  1321 ;; This function is called by:
  1322 ;;		Interrupt level 1
  1323 ;; This function uses a non-reentrant model
  1324 ;;
  1325                           
  1326                           	psect	intcodelo
  1327  000018                     __pintcodelo:
  1328                           	opt stack 0
  1329  000018                     _timer0_isr:
  1330                           	opt stack 12
  1331                           
  1332                           ;incstack = 0
  1333  000018  8049               	bsf	btemp,0,c	;set compiler interrupt flag (level 1)
  1334  00001A  CFD8 F020          	movff	status,??_timer0_isr
  1335  00001E  CFE8 F021          	movff	wreg,??_timer0_isr+1
  1336  000022  CFE0 F022          	movff	bsr,??_timer0_isr+2
  1337  000026  CFFA F023          	movff	pclath,??_timer0_isr+3
  1338  00002A  CFFB F024          	movff	pclatu,??_timer0_isr+4
  1339  00002E  CFE9 F025          	movff	fsr0l,??_timer0_isr+5
  1340  000032  CFEA F026          	movff	fsr0h,??_timer0_isr+6
  1341  000036  CFE1 F027          	movff	fsr1l,??_timer0_isr+7
  1342  00003A  CFE2 F028          	movff	fsr1h,??_timer0_isr+8
  1343  00003E  CFD9 F029          	movff	fsr2l,??_timer0_isr+9
  1344  000042  CFDA F02A          	movff	fsr2h,??_timer0_isr+10
  1345  000046  CFF3 F02B          	movff	prodl,??_timer0_isr+11
  1346  00004A  CFF4 F02C          	movff	prodh,??_timer0_isr+12
  1347  00004E  CFF6 F02D          	movff	tblptrl,??_timer0_isr+13
  1348  000052  CFF7 F02E          	movff	tblptrh,??_timer0_isr+14
  1349  000056  CFF8 F02F          	movff	tblptru,??_timer0_isr+15
  1350  00005A  CFF5 F030          	movff	tablat,??_timer0_isr+16
  1351  00005E  C049  F031         	movff	btemp,??_timer0_isr+17
  1352  000062  C04A  F032         	movff	btemp+1,??_timer0_isr+18
  1353  000066  C04B  F033         	movff	btemp+2,??_timer0_isr+19
  1354  00006A  C04C  F034         	movff	btemp+3,??_timer0_isr+20
  1355                           
  1356                           ;Timer.c: 23: if (TMR0IE & TMR0IF)
  1357  00006E  0E01               	movlw	1
  1358  000070  AAF2               	btfss	intcon,5,c	;volatile
  1359  000072  0E00               	movlw	0
  1360  000074  A4F2               	btfss	intcon,2,c	;volatile
  1361  000076  0E00               	movlw	0
  1362  000078  A0E8               	btfss	wreg,0,c
  1363  00007A  D004               	goto	i1l29
  1364                           
  1365                           ;Timer.c: 24: {
  1366                           ;Timer.c: 25: timer0_reset();
  1367  00007C  EC46  F00B         	call	i1_timer0_reset	;wreg free
  1368                           
  1369                           ;Timer.c: 26: timer_process();
  1370  000080  EC66  F00B         	call	_timer_process	;wreg free
  1371  000084                     i1l29:
  1372  000084  C034  F04C         	movff	??_timer0_isr+20,btemp+3
  1373  000088  C033  F04B         	movff	??_timer0_isr+19,btemp+2
  1374  00008C  C032  F04A         	movff	??_timer0_isr+18,btemp+1
  1375  000090  C031  F049         	movff	??_timer0_isr+17,btemp
  1376  000094  C030  FFF5         	movff	??_timer0_isr+16,tablat
  1377  000098  C02F  FFF8         	movff	??_timer0_isr+15,tblptru
  1378  00009C  C02E  FFF7         	movff	??_timer0_isr+14,tblptrh
  1379  0000A0  C02D  FFF6         	movff	??_timer0_isr+13,tblptrl
  1380  0000A4  C02C  FFF4         	movff	??_timer0_isr+12,prodh
  1381  0000A8  C02B  FFF3         	movff	??_timer0_isr+11,prodl
  1382  0000AC  C02A  FFDA         	movff	??_timer0_isr+10,fsr2h
  1383  0000B0  C029  FFD9         	movff	??_timer0_isr+9,fsr2l
  1384  0000B4  C028  FFE2         	movff	??_timer0_isr+8,fsr1h
  1385  0000B8  C027  FFE1         	movff	??_timer0_isr+7,fsr1l
  1386  0000BC  C026  FFEA         	movff	??_timer0_isr+6,fsr0h
  1387  0000C0  C025  FFE9         	movff	??_timer0_isr+5,fsr0l
  1388  0000C4  C024  FFFB         	movff	??_timer0_isr+4,pclatu
  1389  0000C8  C023  FFFA         	movff	??_timer0_isr+3,pclath
  1390  0000CC  C022  FFE0         	movff	??_timer0_isr+2,bsr
  1391  0000D0  C021  FFE8         	movff	??_timer0_isr+1,wreg
  1392  0000D4  C020  FFD8         	movff	??_timer0_isr,status
  1393  0000D8  9049               	bcf	btemp,0,c	;clear compiler interrupt flag (level 1)
  1394  0000DA  0010               	retfie	
  1395  0000DC                     __end_of_timer0_isr:
  1396                           	opt stack 0
  1397                           pclatu	equ	0xFFB
  1398                           pclath	equ	0xFFA
  1399                           tblptru	equ	0xFF8
  1400                           tblptrh	equ	0xFF7
  1401                           tblptrl	equ	0xFF6
  1402                           tablat	equ	0xFF5
  1403                           prodh	equ	0xFF4
  1404                           prodl	equ	0xFF3
  1405                           intcon	equ	0xFF2
  1406                           intcon2	equ	0xFF1
  1407                           postinc0	equ	0xFEE
  1408                           fsr0h	equ	0xFEA
  1409                           fsr0l	equ	0xFE9
  1410                           wreg	equ	0xFE8
  1411                           fsr1h	equ	0xFE2
  1412                           fsr1l	equ	0xFE1
  1413                           bsr	equ	0xFE0
  1414                           fsr2h	equ	0xFDA
  1415                           fsr2l	equ	0xFD9
  1416                           status	equ	0xFD8
  1417                           
  1418 ;; *************** function i1_timer0_reset *****************
  1419 ;; Defined at:
  1420 ;;		line 4 in file "Timer.c"
  1421 ;; Parameters:    Size  Location     Type
  1422 ;;		None
  1423 ;; Auto vars:     Size  Location     Type
  1424 ;;		None
  1425 ;; Return value:  Size  Location     Type
  1426 ;;                  1    wreg      void 
  1427 ;; Registers used:
  1428 ;;		wreg, status,2
  1429 ;; Tracked objects:
  1430 ;;		On entry : 0/0
  1431 ;;		On exit  : 0/0
  1432 ;;		Unchanged: 0/0
  1433 ;; Data sizes:     COMRAM   BANK0   BANK1   BANK2   BANK3   BANK4   BANK5   BANK6   BANK7   BANK8   BANK9  BANK10  BANK1
      +1  BANK12  BANK13  BANK14  BANK15
  1434 ;;      Params:         0       0       0       0       0       0       0       0       0       0       0       0       
      +0       0       0       0       0
  1435 ;;      Locals:         0       0       0       0       0       0       0       0       0       0       0       0       
      +0       0       0       0       0
  1436 ;;      Temps:          0       0       0       0       0       0       0       0       0       0       0       0       
      +0       0       0       0       0
  1437 ;;      Totals:         0       0       0       0       0       0       0       0       0       0       0       0       
      +0       0       0       0       0
  1438 ;;Total ram usage:        0 bytes
  1439 ;; Hardware stack levels used:    1
  1440 ;; This function calls:
  1441 ;;		Nothing
  1442 ;; This function is called by:
  1443 ;;		_timer0_isr
  1444 ;; This function uses a non-reentrant model
  1445 ;;
  1446                           
  1447                           	psect	text12
  1448  00168C                     __ptext12:
  1449                           	opt stack 0
  1450  00168C                     i1_timer0_reset:
  1451                           	opt stack 21
  1452                           
  1453                           ;Timer.c: 6: TMR0IF=0;
  1454                           
  1455                           ;incstack = 0
  1456  00168C  94F2               	bcf	intcon,2,c	;volatile
  1457                           
  1458                           ;Timer.c: 7: TMR0ON=0;
  1459  00168E  9ED5               	bcf	4053,7,c	;volatile
  1460                           
  1461                           ;Timer.c: 8: TMR0=-25000;
  1462  001690  0E9E               	movlw	158
  1463  001692  6ED7               	movwf	4055,c	;volatile
  1464  001694  0E58               	movlw	88
  1465  001696  6ED6               	movwf	4054,c	;volatile
  1466                           
  1467                           ;Timer.c: 9: TMR0ON=1;
  1468  001698  8ED5               	bsf	4053,7,c	;volatile
  1469  00169A  0012               	return		;funcret
  1470  00169C                     __end_ofi1_timer0_reset:
  1471                           	opt stack 0
  1472                           pclatu	equ	0xFFB
  1473                           pclath	equ	0xFFA
  1474                           tblptru	equ	0xFF8
  1475                           tblptrh	equ	0xFF7
  1476                           tblptrl	equ	0xFF6
  1477                           tablat	equ	0xFF5
  1478                           prodh	equ	0xFF4
  1479                           prodl	equ	0xFF3
  1480                           intcon	equ	0xFF2
  1481                           intcon2	equ	0xFF1
  1482                           postinc0	equ	0xFEE
  1483                           fsr0h	equ	0xFEA
  1484                           fsr0l	equ	0xFE9
  1485                           wreg	equ	0xFE8
  1486                           fsr1h	equ	0xFE2
  1487                           fsr1l	equ	0xFE1
  1488                           bsr	equ	0xFE0
  1489                           fsr2h	equ	0xFDA
  1490                           fsr2l	equ	0xFD9
  1491                           status	equ	0xFD8
  1492                           
  1493 ;; *************** function _timer_process *****************
  1494 ;; Defined at:
  1495 ;;		line 83 in file "Tn06YC2.c"
  1496 ;; Parameters:    Size  Location     Type
  1497 ;;		None
  1498 ;; Auto vars:     Size  Location     Type
  1499 ;;		None
  1500 ;; Return value:  Size  Location     Type
  1501 ;;                  1    wreg      void 
  1502 ;; Registers used:
  1503 ;;		wreg, fsr2l, fsr2h, status,2, status,0, tblptrl, tblptrh, tblptru, prodl, prodh, cstack
  1504 ;; Tracked objects:
  1505 ;;		On entry : 0/0
  1506 ;;		On exit  : 0/0
  1507 ;;		Unchanged: 0/0
  1508 ;; Data sizes:     COMRAM   BANK0   BANK1   BANK2   BANK3   BANK4   BANK5   BANK6   BANK7   BANK8   BANK9  BANK10  BANK1
      +1  BANK12  BANK13  BANK14  BANK15
  1509 ;;      Params:         0       0       0       0       0       0       0       0       0       0       0       0       
      +0       0       0       0       0
  1510 ;;      Locals:         0       0       0       0       0       0       0       0       0       0       0       0       
      +0       0       0       0       0
  1511 ;;      Temps:          0       0       0       0       0       0       0       0       0       0       0       0       
      +0       0       0       0       0
  1512 ;;      Totals:         0       0       0       0       0       0       0       0       0       0       0       0       
      +0       0       0       0       0
  1513 ;;Total ram usage:        0 bytes
  1514 ;; Hardware stack levels used:    1
  1515 ;; Hardware stack levels required when called:    9
  1516 ;; This function calls:
  1517 ;;		_quetphim
  1518 ;; This function is called by:
  1519 ;;		_timer0_isr
  1520 ;; This function uses a non-reentrant model
  1521 ;;
  1522                           
  1523                           	psect	text13
  1524  0016CC                     __ptext13:
  1525                           	opt stack 0
  1526  0016CC                     _timer_process:
  1527                           	opt stack 12
  1528                           
  1529                           ;Tn06YC2.c: 85: quetphim();
  1530                           
  1531                           ;incstack = 0
  1532  0016CC  EC25  F00A         	call	_quetphim	;wreg free
  1533  0016D0  0012               	return		;funcret
  1534  0016D2                     __end_of_timer_process:
  1535                           	opt stack 0
  1536                           pclatu	equ	0xFFB
  1537                           pclath	equ	0xFFA
  1538                           tblptru	equ	0xFF8
  1539                           tblptrh	equ	0xFF7
  1540                           tblptrl	equ	0xFF6
  1541                           tablat	equ	0xFF5
  1542                           prodh	equ	0xFF4
  1543                           prodl	equ	0xFF3
  1544                           intcon	equ	0xFF2
  1545                           intcon2	equ	0xFF1
  1546                           postinc0	equ	0xFEE
  1547                           fsr0h	equ	0xFEA
  1548                           fsr0l	equ	0xFE9
  1549                           wreg	equ	0xFE8
  1550                           fsr1h	equ	0xFE2
  1551                           fsr1l	equ	0xFE1
  1552                           bsr	equ	0xFE0
  1553                           fsr2h	equ	0xFDA
  1554                           fsr2l	equ	0xFD9
  1555                           status	equ	0xFD8
  1556                           
  1557 ;; *************** function _quetphim *****************
  1558 ;; Defined at:
  1559 ;;		line 71 in file "Tn06YC2.c"
  1560 ;; Parameters:    Size  Location     Type
  1561 ;;		None
  1562 ;; Auto vars:     Size  Location     Type
  1563 ;;  dl_quet         1   30[COMRAM] unsigned char 
  1564 ;; Return value:  Size  Location     Type
  1565 ;;                  1    wreg      void 
  1566 ;; Registers used:
  1567 ;;		wreg, fsr2l, fsr2h, status,2, status,0, tblptrl, tblptrh, tblptru, prodl, prodh, cstack
  1568 ;; Tracked objects:
  1569 ;;		On entry : 0/0
  1570 ;;		On exit  : 0/0
  1571 ;;		Unchanged: 0/0
  1572 ;; Data sizes:     COMRAM   BANK0   BANK1   BANK2   BANK3   BANK4   BANK5   BANK6   BANK7   BANK8   BANK9  BANK10  BANK1
      +1  BANK12  BANK13  BANK14  BANK15
  1573 ;;      Params:         0       0       0       0       0       0       0       0       0       0       0       0       
      +0       0       0       0       0
  1574 ;;      Locals:         1       0       0       0       0       0       0       0       0       0       0       0       
      +0       0       0       0       0
  1575 ;;      Temps:          2       0       0       0       0       0       0       0       0       0       0       0       
      +0       0       0       0       0
  1576 ;;      Totals:         3       0       0       0       0       0       0       0       0       0       0       0       
      +0       0       0       0       0
  1577 ;;Total ram usage:        3 bytes
  1578 ;; Hardware stack levels used:    1
  1579 ;; Hardware stack levels required when called:    8
  1580 ;; This function calls:
  1581 ;;		_getkey
  1582 ;;		_xyliphim
  1583 ;; This function is called by:
  1584 ;;		_timer_process
  1585 ;; This function uses a non-reentrant model
  1586 ;;
  1587                           
  1588                           	psect	text14
  1589  00144A                     __ptext14:
  1590                           	opt stack 0
  1591  00144A                     _quetphim:
  1592                           	opt stack 12
  1593                           
  1594                           ;Tn06YC2.c: 73: unsigned char dl_quet;
  1595                           ;Tn06YC2.c: 74: keyout=0xFF;
  1596                           
  1597                           ;incstack = 0
  1598  00144A  688A               	setf	3978,c	;volatile
  1599                           
  1600                           ;Tn06YC2.c: 75: dl_quet=0b11101111<<idx;
  1601  00144C  C048  F01D         	movff	_idx,??_quetphim
  1602  001450  0EEF               	movlw	239
  1603  001452  6E1E               	movwf	(??_quetphim+1)& (0+255),c
  1604  001454  2A1D               	incf	??_quetphim,f,c
  1605  001456  D002               	goto	i1u66_24
  1606  001458                     i1u66_25:
  1607  001458  90D8               	bcf	status,0,c
  1608  00145A  361E               	rlcf	??_quetphim+1,f,c
  1609  00145C                     i1u66_24:
  1610  00145C  2E1D               	decfsz	??_quetphim,f,c
  1611  00145E  D7FC               	goto	i1u66_25
  1612  001460  501E               	movf	??_quetphim+1,w,c
  1613  001462  6E1F               	movwf	quetphim@dl_quet,c
  1614                           
  1615                           ;Tn06YC2.c: 76: keyout=dl_quet;
  1616  001464  C01F  FF8A         	movff	quetphim@dl_quet,3978	;volatile
  1617                           
  1618                           ;Tn06YC2.c: 77: getkey();
  1619  001468  EC7F  F009         	call	_getkey	;wreg free
  1620                           
  1621                           ;Tn06YC2.c: 78: idx=(++idx)%4;
  1622  00146C  2A48               	incf	_idx,f,c
  1623  00146E  5048               	movf	_idx,w,c
  1624  001470  0B03               	andlw	3
  1625  001472  6E48               	movwf	_idx,c
  1626                           
  1627                           ;Tn06YC2.c: 79: if (keyreg!=0xFF)
  1628  001474  2847               	incf	_keyreg,w,c
  1629  001476  B4D8               	btfsc	status,2,c
  1630  001478  0012               	return	
  1631                           
  1632                           ;Tn06YC2.c: 80: if (buffer[keyreg] > 1)
  1633  00147A  5047               	movf	_keyreg,w,c
  1634  00147C  0D01               	mullw	1
  1635  00147E  0E35               	movlw	low _buffer
  1636  001480  24F3               	addwf	prodl,w,c
  1637  001482  6ED9               	movwf	fsr2l,c
  1638  001484  0E00               	movlw	high _buffer
  1639  001486  20F4               	addwfc	prodh,w,c
  1640  001488  6EDA               	movwf	fsr2h,c
  1641  00148A  0E01               	movlw	1
  1642  00148C  64DF               	cpfsgt	indf2,c
  1643  00148E  0012               	return	
  1644                           
  1645                           ;Tn06YC2.c: 81: xyliphim();
  1646  001490  ECC1  F008         	call	_xyliphim	;wreg free
  1647  001494  0012               	return	
  1648  001496                     __end_of_quetphim:
  1649                           	opt stack 0
  1650                           pclatu	equ	0xFFB
  1651                           pclath	equ	0xFFA
  1652                           tblptru	equ	0xFF8
  1653                           tblptrh	equ	0xFF7
  1654                           tblptrl	equ	0xFF6
  1655                           tablat	equ	0xFF5
  1656                           prodh	equ	0xFF4
  1657                           prodl	equ	0xFF3
  1658                           intcon	equ	0xFF2
  1659                           intcon2	equ	0xFF1
  1660                           postinc0	equ	0xFEE
  1661                           fsr0h	equ	0xFEA
  1662                           fsr0l	equ	0xFE9
  1663                           wreg	equ	0xFE8
  1664                           fsr1h	equ	0xFE2
  1665                           fsr1l	equ	0xFE1
  1666                           bsr	equ	0xFE0
  1667                           indf2	equ	0xFDF
  1668                           fsr2h	equ	0xFDA
  1669                           fsr2l	equ	0xFD9
  1670                           status	equ	0xFD8
  1671                           
  1672 ;; *************** function _xyliphim *****************
  1673 ;; Defined at:
  1674 ;;		line 42 in file "Tn06YC2.c"
  1675 ;; Parameters:    Size  Location     Type
  1676 ;;		None
  1677 ;; Auto vars:     Size  Location     Type
  1678 ;;  so              2   26[COMRAM] int 
  1679 ;; Return value:  Size  Location     Type
  1680 ;;                  1    wreg      void 
  1681 ;; Registers used:
  1682 ;;		wreg, fsr2l, fsr2h, status,2, status,0, tblptrl, tblptrh, tblptru, prodl, prodh, cstack
  1683 ;; Tracked objects:
  1684 ;;		On entry : 0/0
  1685 ;;		On exit  : 0/0
  1686 ;;		Unchanged: 0/0
  1687 ;; Data sizes:     COMRAM   BANK0   BANK1   BANK2   BANK3   BANK4   BANK5   BANK6   BANK7   BANK8   BANK9  BANK10  BANK1
      +1  BANK12  BANK13  BANK14  BANK15
  1688 ;;      Params:         0       0       0       0       0       0       0       0       0       0       0       0       
      +0       0       0       0       0
  1689 ;;      Locals:         2       0       0       0       0       0       0       0       0       0       0       0       
      +0       0       0       0       0
  1690 ;;      Temps:          2       0       0       0       0       0       0       0       0       0       0       0       
      +0       0       0       0       0
  1691 ;;      Totals:         4       0       0       0       0       0       0       0       0       0       0       0       
      +0       0       0       0       0
  1692 ;;Total ram usage:        4 bytes
  1693 ;; Hardware stack levels used:    1
  1694 ;; Hardware stack levels required when called:    7
  1695 ;; This function calls:
  1696 ;;		___awdiv
  1697 ;;		_clearbuffer
  1698 ;;		_lcd_gotoxy
  1699 ;;		_printf
  1700 ;; This function is called by:
  1701 ;;		_quetphim
  1702 ;; This function uses a non-reentrant model
  1703 ;;
  1704                           
  1705                           	psect	text15
  1706  001182                     __ptext15:
  1707                           	opt stack 0
  1708  001182                     _xyliphim:
  1709                           	opt stack 12
  1710                           
  1711                           ;Tn06YC2.c: 44: clearbuffer();
  1712                           
  1713                           ;incstack = 0
  1714  001182  EC6C  F00A         	call	_clearbuffer	;wreg free
  1715                           
  1716                           ;Tn06YC2.c: 45: LATD=keyreg;
  1717  001186  C047  FF8C         	movff	_keyreg,3980	;volatile
  1718                           
  1719                           ;Tn06YC2.c: 46: int so = keyreg/10;
  1720  00118A  C047  F001         	movff	_keyreg,___awdiv@dividend
  1721  00118E  6A02               	clrf	___awdiv@dividend+1,c
  1722  001190  0E00               	movlw	0
  1723  001192  6E04               	movwf	___awdiv@divisor+1,c
  1724  001194  0E0A               	movlw	10
  1725  001196  6E03               	movwf	___awdiv@divisor,c
  1726  001198  EC07  F009         	call	___awdiv	;wreg free
  1727  00119C  C001  F01B         	movff	?___awdiv,xyliphim@so
  1728  0011A0  C002  F01C         	movff	?___awdiv+1,xyliphim@so+1
  1729                           
  1730                           ;Tn06YC2.c: 47: if (cot + so + 1 > 15){
  1731  0011A4  5046               	movf	_cot,w,c
  1732  0011A6  241B               	addwf	xyliphim@so,w,c
  1733  0011A8  6E19               	movwf	??_xyliphim& (0+255),c
  1734  0011AA  0E00               	movlw	0
  1735  0011AC  201C               	addwfc	xyliphim@so+1,w,c
  1736  0011AE  6E1A               	movwf	(??_xyliphim+1)& (0+255),c
  1737  0011B0  0E01               	movlw	1
  1738  0011B2  2619               	addwf	??_xyliphim,f,c
  1739  0011B4  0E00               	movlw	0
  1740  0011B6  221A               	addwfc	??_xyliphim+1,f,c
  1741  0011B8  BE1A               	btfsc	??_xyliphim+1,7,c
  1742  0011BA  D012               	goto	i1l73
  1743  0011BC  501A               	movf	??_xyliphim+1,w,c
  1744  0011BE  E104               	bnz	i1u63_20
  1745  0011C0  0E10               	movlw	16
  1746  0011C2  5C19               	subwf	??_xyliphim,w,c
  1747  0011C4  A0D8               	btfss	status,0,c
  1748  0011C6  D00C               	goto	i1l73
  1749  0011C8                     i1u63_20:
  1750                           
  1751                           ;Tn06YC2.c: 48: hang = 1 - hang;
  1752  0011C8  5045               	movf	_hang,w,c
  1753  0011CA  0800               	sublw	0
  1754  0011CC  6E19               	movwf	??_xyliphim& (0+255),c
  1755  0011CE  2819               	incf	??_xyliphim,w,c
  1756  0011D0  6E45               	movwf	_hang,c
  1757                           
  1758                           ;Tn06YC2.c: 49: cot = 0;
  1759  0011D2  0E00               	movlw	0
  1760  0011D4  6E46               	movwf	_cot,c
  1761                           
  1762                           ;Tn06YC2.c: 50: lcd_gotoxy(hang,cot);
  1763  0011D6  C046  F004         	movff	_cot,lcd_gotoxy@col
  1764  0011DA  5045               	movf	_hang,w,c
  1765  0011DC  EC15  F00B         	call	_lcd_gotoxy
  1766  0011E0                     i1l73:
  1767                           
  1768                           ;Tn06YC2.c: 51: }
  1769                           ;Tn06YC2.c: 52: printf("%d", keyreg);
  1770  0011E0  0E4B               	movlw	low STR_1
  1771  0011E2  6E0D               	movwf	printf@f,c
  1772  0011E4  0E10               	movlw	high STR_1
  1773  0011E6  6E0E               	movwf	printf@f+1,c
  1774  0011E8  C047  F00F         	movff	_keyreg,?_printf+2
  1775  0011EC  6A10               	clrf	?_printf+3,c
  1776  0011EE  EC28  F008         	call	_printf	;wreg free
  1777                           
  1778                           ;Tn06YC2.c: 53: lcd_gotoxy(hang,cot+so+1);
  1779  0011F2  5046               	movf	_cot,w,c
  1780  0011F4  241B               	addwf	xyliphim@so,w,c
  1781  0011F6  6E19               	movwf	??_xyliphim& (0+255),c
  1782  0011F8  2819               	incf	??_xyliphim,w,c
  1783  0011FA  6E04               	movwf	lcd_gotoxy@col,c
  1784  0011FC  5045               	movf	_hang,w,c
  1785  0011FE  EC15  F00B         	call	_lcd_gotoxy
  1786                           
  1787                           ;Tn06YC2.c: 54: cot = cot + so + 1;
  1788  001202  5046               	movf	_cot,w,c
  1789  001204  241B               	addwf	xyliphim@so,w,c
  1790  001206  6E19               	movwf	??_xyliphim& (0+255),c
  1791  001208  2819               	incf	??_xyliphim,w,c
  1792  00120A  6E46               	movwf	_cot,c
  1793  00120C  0012               	return		;funcret
  1794  00120E                     __end_of_xyliphim:
  1795                           	opt stack 0
  1796                           pclatu	equ	0xFFB
  1797                           pclath	equ	0xFFA
  1798                           tblptru	equ	0xFF8
  1799                           tblptrh	equ	0xFF7
  1800                           tblptrl	equ	0xFF6
  1801                           tablat	equ	0xFF5
  1802                           prodh	equ	0xFF4
  1803                           prodl	equ	0xFF3
  1804                           intcon	equ	0xFF2
  1805                           intcon2	equ	0xFF1
  1806                           postinc0	equ	0xFEE
  1807                           fsr0h	equ	0xFEA
  1808                           fsr0l	equ	0xFE9
  1809                           wreg	equ	0xFE8
  1810                           fsr1h	equ	0xFE2
  1811                           fsr1l	equ	0xFE1
  1812                           bsr	equ	0xFE0
  1813                           indf2	equ	0xFDF
  1814                           fsr2h	equ	0xFDA
  1815                           fsr2l	equ	0xFD9
  1816                           status	equ	0xFD8
  1817                           
  1818 ;; *************** function _printf *****************
  1819 ;; Defined at:
  1820 ;;		line 464 in file "D:\Apps\MPLab\New folder (2)\sources\common\doprnt.c"
  1821 ;; Parameters:    Size  Location     Type
  1822 ;;  f               2   12[COMRAM] PTR const unsigned char 
  1823 ;;		 -> STR_1(3), 
  1824 ;; Auto vars:     Size  Location     Type
  1825 ;;  tmpval          4    0        struct .
  1826 ;;  cp              3    0        PTR const unsigned char 
  1827 ;;  val             2   21[COMRAM] unsigned int 
  1828 ;;  ap              2   17[COMRAM] PTR void [1]
  1829 ;;		 -> ?_printf(2), 
  1830 ;;  len             2    0        unsigned int 
  1831 ;;  c               1   23[COMRAM] char 
  1832 ;;  prec            1   20[COMRAM] char 
  1833 ;;  flag            1   19[COMRAM] unsigned char 
  1834 ;; Return value:  Size  Location     Type
  1835 ;;                  2   12[COMRAM] int 
  1836 ;; Registers used:
  1837 ;;		wreg, fsr2l, fsr2h, status,2, status,0, tblptrl, tblptrh, tblptru, prodl, prodh, cstack
  1838 ;; Tracked objects:
  1839 ;;		On entry : 0/0
  1840 ;;		On exit  : 0/0
  1841 ;;		Unchanged: 0/0
  1842 ;; Data sizes:     COMRAM   BANK0   BANK1   BANK2   BANK3   BANK4   BANK5   BANK6   BANK7   BANK8   BANK9  BANK10  BANK1
      +1  BANK12  BANK13  BANK14  BANK15
  1843 ;;      Params:         4       0       0       0       0       0       0       0       0       0       0       0       
      +0       0       0       0       0
  1844 ;;      Locals:         7       0       0       0       0       0       0       0       0       0       0       0       
      +0       0       0       0       0
  1845 ;;      Temps:          1       0       0       0       0       0       0       0       0       0       0       0       
      +0       0       0       0       0
  1846 ;;      Totals:        12       0       0       0       0       0       0       0       0       0       0       0       
      +0       0       0       0       0
  1847 ;;Total ram usage:       12 bytes
  1848 ;; Hardware stack levels used:    1
  1849 ;; Hardware stack levels required when called:    6
  1850 ;; This function calls:
  1851 ;;		___lwdiv
  1852 ;;		___lwmod
  1853 ;;		_putch
  1854 ;; This function is called by:
  1855 ;;		_xyliphim
  1856 ;; This function uses a non-reentrant model
  1857 ;;
  1858                           
  1859                           	psect	text16
  1860  001050                     __ptext16:
  1861                           	opt stack 0
  1862  001050                     _printf:
  1863                           	opt stack 12
  1864                           
  1865                           ;doprnt.c: 466: va_list ap;
  1866                           ;doprnt.c: 499: signed char c;
  1867                           ;doprnt.c: 506: signed char prec;
  1868                           ;doprnt.c: 508: unsigned char flag;
  1869                           ;doprnt.c: 523: union {
  1870                           ;doprnt.c: 524: unsigned long vd;
  1871                           ;doprnt.c: 525: double integ;
  1872                           ;doprnt.c: 526: } tmpval;
  1873                           ;doprnt.c: 528: unsigned int val;
  1874                           ;doprnt.c: 529: unsigned len;
  1875                           ;doprnt.c: 530: const char * cp;
  1876                           ;doprnt.c: 533: *ap = __va_start();
  1877                           
  1878                           ;incstack = 0
  1879  001050  0E0F               	movlw	low (?_printf+2)
  1880  001052  6E12               	movwf	printf@ap,c
  1881  001054  0E00               	movlw	high (?_printf+2)
  1882  001056  6E13               	movwf	printf@ap+1,c
  1883                           
  1884                           ;doprnt.c: 536: while(c = *f++) {
  1885  001058  D085               	goto	i1u55_20
  1886  00105A                     
  1887                           ;doprnt.c: 538: if(c != '%')
  1888  00105A  0E25               	movlw	37
  1889  00105C  1818               	xorwf	printf@c,w,c
  1890  00105E  B4D8               	btfsc	status,2,c
  1891  001060  D004               	goto	i1l219
  1892                           
  1893                           ;doprnt.c: 540: {
  1894                           ;doprnt.c: 541: (putch(c) );
  1895  001062  5018               	movf	printf@c,w,c
  1896  001064  EC5C  F00B         	call	_putch
  1897                           
  1898                           ;doprnt.c: 542: continue;
  1899  001068  D07D               	goto	i1u55_20
  1900  00106A                     i1l219:
  1901                           
  1902                           ;doprnt.c: 543: }
  1903                           ;doprnt.c: 548: flag = 0;
  1904  00106A  0E00               	movlw	0
  1905  00106C  6E14               	movwf	printf@flag,c
  1906                           
  1907                           ;doprnt.c: 822: }
  1908                           
  1909                           ;doprnt.c: 813: continue;
  1910                           
  1911                           ;doprnt.c: 802: default:
  1912                           
  1913                           ;doprnt.c: 698: case 'i':
  1914                           ;doprnt.c: 699: break;
  1915                           
  1916                           ;doprnt.c: 697: case 'd':
  1917                           
  1918                           ;doprnt.c: 638: goto alldone;
  1919                           
  1920                           ;doprnt.c: 637: case 0:
  1921                           
  1922                           ;doprnt.c: 635: switch(c = *f++) {
  1923  00106E  C00D  FFF6         	movff	printf@f,tblptrl
  1924  001072  C00E  FFF7         	movff	printf@f+1,tblptrh
  1925  001076  4A0D               	infsnz	printf@f,f,c
  1926  001078  2A0E               	incf	printf@f+1,f,c
  1927  00107A                     	if	0	;tblptru may be non-zero
  1928  00107A                     	endif
  1929  00107A                     	if	1	;Program memory is > 0xFFFF, there are 3 active tblptr bytes
  1930  00107A  0E00               	movlw	low (__mediumconst shr (0+16))
  1931  00107C  6EF8               	movwf	tblptru,c
  1932  00107E                     	endif
  1933  00107E  0008               	tblrd		*
  1934  001080  CFF5 F018          	movff	tablat,printf@c
  1935  001084  5018               	movf	printf@c,w,c
  1936                           
  1937                           ; Switch size 1, requested type "space"
  1938                           ; Number of cases is 3, Range of values is 0 to 105
  1939                           ; switch strategies available:
  1940                           ; Name         Instructions Cycles
  1941                           ; simple_byte           10     6 (average)
  1942                           ;	Chosen strategy is simple_byte
  1943  001086  0A00               	xorlw	0	; case 0
  1944  001088  B4D8               	btfsc	status,2,c
  1945  00108A  0012               	return	
  1946  00108C  0A64               	xorlw	100	; case 100
  1947  00108E  B4D8               	btfsc	status,2,c
  1948  001090  D003               	goto	i1l225
  1949  001092  0A0D               	xorlw	13	; case 105
  1950  001094  A4D8               	btfss	status,2,c
  1951  001096  D066               	goto	i1u55_20
  1952  001098                     i1l225:
  1953                           
  1954                           ;doprnt.c: 1253: {
  1955                           ;doprnt.c: 1259: val = (int)(*(int *)__va_arg((*(int **)ap), (int)0));
  1956  001098  C012  FFD9         	movff	printf@ap,fsr2l
  1957  00109C  C013  FFDA         	movff	printf@ap+1,fsr2h
  1958  0010A0  CFDE F016          	movff	postinc2,printf@val
  1959  0010A4  CFDD F017          	movff	postdec2,printf@val+1
  1960  0010A8  0E02               	movlw	2
  1961  0010AA  2612               	addwf	printf@ap,f,c
  1962  0010AC  0E00               	movlw	0
  1963  0010AE  2213               	addwfc	printf@ap+1,f,c
  1964                           
  1965                           ;doprnt.c: 1261: if((int)val < 0) {
  1966  0010B0  AE17               	btfss	printf@val+1,7,c
  1967  0010B2  D006               	goto	i1l227
  1968                           
  1969                           ;doprnt.c: 1262: flag |= 0x03;
  1970  0010B4  0E03               	movlw	3
  1971  0010B6  1214               	iorwf	printf@flag,f,c
  1972                           
  1973                           ;doprnt.c: 1263: val = -val;
  1974  0010B8  6C16               	negf	printf@val,c
  1975  0010BA  1E17               	comf	printf@val+1,f,c
  1976  0010BC  B0D8               	btfsc	status,0,c
  1977  0010BE  2A17               	incf	printf@val+1,f,c
  1978  0010C0                     i1l227:
  1979                           
  1980                           ;doprnt.c: 1264: }
  1981                           ;doprnt.c: 1266: }
  1982                           ;doprnt.c: 1305: for(c = 1 ; c != sizeof dpowers/sizeof dpowers[0] ; c++)
  1983  0010C0  0E01               	movlw	1
  1984  0010C2  6E18               	movwf	printf@c,c
  1985  0010C4                     i1l1364:
  1986  0010C4  0E05               	movlw	5
  1987  0010C6  1818               	xorwf	printf@c,w,c
  1988  0010C8  B4D8               	btfsc	status,2,c
  1989  0010CA  D015               	goto	i1u53_20
  1990                           
  1991                           ;doprnt.c: 1306: if(val < dpowers[c])
  1992  0010CC  5018               	movf	printf@c,w,c
  1993  0010CE  0D02               	mullw	2
  1994  0010D0  0E01               	movlw	low _dpowers
  1995  0010D2  24F3               	addwf	prodl,w,c
  1996  0010D4  6EF6               	movwf	tblptrl,c
  1997  0010D6  0E10               	movlw	high _dpowers
  1998  0010D8  20F4               	addwfc	prodh,w,c
  1999  0010DA  6EF7               	movwf	tblptrh,c
  2000  0010DC                     	if	1	;There are 3 active tblptr bytes
  2001  0010DC  6AF8               	clrf	tblptru,c
  2002  0010DE  0E00               	movlw	low (__mediumconst shr (0+16))
  2003  0010E0  22F8               	addwfc	tblptru,f,c
  2004  0010E2                     	endif
  2005  0010E2  0009               	tblrd		*+
  2006  0010E4  50F5               	movf	tablat,w,c
  2007  0010E6  5C16               	subwf	printf@val,w,c
  2008  0010E8  0009               	tblrd		*+
  2009  0010EA  50F5               	movf	tablat,w,c
  2010  0010EC  5817               	subwfb	printf@val+1,w,c
  2011  0010EE  A0D8               	btfss	status,0,c
  2012  0010F0  D002               	goto	i1u53_20
  2013                           
  2014                           ;doprnt.c: 1307: break;
  2015  0010F2  2A18               	incf	printf@c,f,c
  2016  0010F4  D7E7               	goto	i1l1364
  2017  0010F6                     i1u53_20:
  2018                           
  2019                           ;doprnt.c: 1422: {
  2020                           ;doprnt.c: 1438: if(flag & 0x03)
  2021  0010F6  C014  F011         	movff	printf@flag,??_printf
  2022  0010FA  0E03               	movlw	3
  2023  0010FC  1611               	andwf	??_printf,f,c
  2024  0010FE  B4D8               	btfsc	status,2,c
  2025  001100  D003               	goto	i1l231
  2026                           
  2027                           ;doprnt.c: 1439: (putch('-') );
  2028  001102  0E2D               	movlw	45
  2029  001104  EC5C  F00B         	call	_putch
  2030  001108                     i1l231:
  2031                           
  2032                           ;doprnt.c: 1469: }
  2033                           ;doprnt.c: 1472: prec = c;
  2034  001108  C018  F015         	movff	printf@c,printf@prec
  2035                           
  2036                           ;doprnt.c: 1474: while(prec--) {
  2037  00110C  D027               	goto	i1l232
  2038  00110E                     
  2039                           ;doprnt.c: 1478: {
  2040                           ;doprnt.c: 1489: c = (val / dpowers[prec]) % 10 + '0';
  2041  00110E  5015               	movf	printf@prec,w,c
  2042  001110  0D02               	mullw	2
  2043  001112  0E01               	movlw	low _dpowers
  2044  001114  24F3               	addwf	prodl,w,c
  2045  001116  6EF6               	movwf	tblptrl,c
  2046  001118  0E10               	movlw	high _dpowers
  2047  00111A  20F4               	addwfc	prodh,w,c
  2048  00111C  6EF7               	movwf	tblptrh,c
  2049  00111E                     	if	1	;There are 3 active tblptr bytes
  2050  00111E  6AF8               	clrf	tblptru,c
  2051  001120  0E00               	movlw	low (__mediumconst shr (0+16))
  2052  001122  22F8               	addwfc	tblptru,f,c
  2053  001124                     	endif
  2054  001124  0009               	tblrd		*+
  2055  001126  CFF5 F003          	movff	tablat,___lwdiv@divisor
  2056  00112A  000A               	tblrd		*-
  2057  00112C  CFF5 F004          	movff	tablat,___lwdiv@divisor+1
  2058  001130  C016  F001         	movff	printf@val,___lwdiv@dividend
  2059  001134  C017  F002         	movff	printf@val+1,___lwdiv@dividend+1
  2060  001138  ECAD  F009         	call	___lwdiv	;wreg free
  2061  00113C  C001  F008         	movff	?___lwdiv,___lwmod@dividend
  2062  001140  C002  F009         	movff	?___lwdiv+1,___lwmod@dividend+1
  2063  001144  0E00               	movlw	0
  2064  001146  6E0B               	movwf	___lwmod@divisor+1,c
  2065  001148  0E0A               	movlw	10
  2066  00114A  6E0A               	movwf	___lwmod@divisor,c
  2067  00114C  EC4B  F00A         	call	___lwmod	;wreg free
  2068  001150  5008               	movf	?___lwmod,w,c
  2069  001152  0F30               	addlw	48
  2070  001154  6E18               	movwf	printf@c,c
  2071                           
  2072                           ;doprnt.c: 1523: }
  2073                           ;doprnt.c: 1524: (putch(c) );
  2074  001156  5018               	movf	printf@c,w,c
  2075  001158  EC5C  F00B         	call	_putch
  2076  00115C                     i1l232:
  2077  00115C  0615               	decf	printf@prec,f,c
  2078  00115E  2815               	incf	printf@prec,w,c
  2079  001160  A4D8               	btfss	status,2,c
  2080  001162  D7D5               	goto	i1l233
  2081  001164                     i1u55_20:
  2082  001164  C00D  FFF6         	movff	printf@f,tblptrl
  2083  001168  C00E  FFF7         	movff	printf@f+1,tblptrh
  2084  00116C  4A0D               	infsnz	printf@f,f,c
  2085  00116E  2A0E               	incf	printf@f+1,f,c
  2086  001170                     	if	0	;tblptru may be non-zero
  2087  001170                     	endif
  2088  001170                     	if	1	;Program memory is > 0xFFFF, there are 3 active tblptr bytes
  2089  001170  0E00               	movlw	low (__mediumconst shr (0+16))
  2090  001172  6EF8               	movwf	tblptru,c
  2091  001174                     	endif
  2092  001174  0008               	tblrd		*
  2093  001176  CFF5 F018          	movff	tablat,printf@c
  2094  00117A  5018               	movf	printf@c,w,c
  2095  00117C  B4D8               	btfsc	status,2,c
  2096  00117E  0012               	return	
  2097  001180  D76C               	goto	i1l218
  2098  001182                     __end_of_printf:
  2099                           	opt stack 0
  2100                           pclatu	equ	0xFFB
  2101                           pclath	equ	0xFFA
  2102                           tblptru	equ	0xFF8
  2103                           tblptrh	equ	0xFF7
  2104                           tblptrl	equ	0xFF6
  2105                           tablat	equ	0xFF5
  2106                           prodh	equ	0xFF4
  2107                           prodl	equ	0xFF3
  2108                           intcon	equ	0xFF2
  2109                           intcon2	equ	0xFF1
  2110                           postinc0	equ	0xFEE
  2111                           fsr0h	equ	0xFEA
  2112                           fsr0l	equ	0xFE9
  2113                           wreg	equ	0xFE8
  2114                           fsr1h	equ	0xFE2
  2115                           fsr1l	equ	0xFE1
  2116                           bsr	equ	0xFE0
  2117                           indf2	equ	0xFDF
  2118                           postinc2	equ	0xFDE
  2119                           postdec2	equ	0xFDD
  2120                           fsr2h	equ	0xFDA
  2121                           fsr2l	equ	0xFD9
  2122                           status	equ	0xFD8
  2123                           
  2124 ;; *************** function _putch *****************
  2125 ;; Defined at:
  2126 ;;		line 146 in file "DHBKLcd2.c"
  2127 ;; Parameters:    Size  Location     Type
  2128 ;;  c               1    wreg     unsigned char 
  2129 ;; Auto vars:     Size  Location     Type
  2130 ;;  c               1    6[COMRAM] unsigned char 
  2131 ;; Return value:  Size  Location     Type
  2132 ;;                  1    wreg      void 
  2133 ;; Registers used:
  2134 ;;		wreg, status,2, status,0, cstack
  2135 ;; Tracked objects:
  2136 ;;		On entry : 0/0
  2137 ;;		On exit  : 0/0
  2138 ;;		Unchanged: 0/0
  2139 ;; Data sizes:     COMRAM   BANK0   BANK1   BANK2   BANK3   BANK4   BANK5   BANK6   BANK7   BANK8   BANK9  BANK10  BANK1
      +1  BANK12  BANK13  BANK14  BANK15
  2140 ;;      Params:         0       0       0       0       0       0       0       0       0       0       0       0       
      +0       0       0       0       0
  2141 ;;      Locals:         0       0       0       0       0       0       0       0       0       0       0       0       
      +0       0       0       0       0
  2142 ;;      Temps:          0       0       0       0       0       0       0       0       0       0       0       0       
      +0       0       0       0       0
  2143 ;;      Totals:         0       0       0       0       0       0       0       0       0       0       0       0       
      +0       0       0       0       0
  2144 ;;Total ram usage:        0 bytes
  2145 ;; Hardware stack levels used:    1
  2146 ;; Hardware stack levels required when called:   16
  2147 ;; This function calls:
  2148 ;;		_lcd_putc
  2149 ;; This function is called by:
  2150 ;;		_lcd_DHBK
  2151 ;;		_printf
  2152 ;; This function uses a non-reentrant model
  2153 ;;
  2154                           
  2155                           	psect	text17
  2156  0016B8                     __ptext17:
  2157                           	opt stack 0
  2158  0016B8                     _putch:
  2159                           	opt stack 1
  2160                           
  2161                           ;incstack = 0
  2162                           ;putch@c stored from wreg
  2163  0016B8  6E07               	movwf	putch@c,c
  2164  0016BA  5007               	movf	putch@c,w,c
  2165  0016BC  EC84  F00A         	call	_lcd_putc
  2166  0016C0  0012               	return		;funcret
  2167  0016C2                     __end_of_putch:
  2168                           	opt stack 0
  2169                           pclatu	equ	0xFFB
  2170                           pclath	equ	0xFFA
  2171                           tblptru	equ	0xFF8
  2172                           tblptrh	equ	0xFF7
  2173                           tblptrl	equ	0xFF6
  2174                           tablat	equ	0xFF5
  2175                           prodh	equ	0xFF4
  2176                           prodl	equ	0xFF3
  2177                           intcon	equ	0xFF2
  2178                           intcon2	equ	0xFF1
  2179                           postinc0	equ	0xFEE
  2180                           fsr0h	equ	0xFEA
  2181                           fsr0l	equ	0xFE9
  2182                           wreg	equ	0xFE8
  2183                           fsr1h	equ	0xFE2
  2184                           fsr1l	equ	0xFE1
  2185                           bsr	equ	0xFE0
  2186                           indf2	equ	0xFDF
  2187                           postinc2	equ	0xFDE
  2188                           postdec2	equ	0xFDD
  2189                           fsr2h	equ	0xFDA
  2190                           fsr2l	equ	0xFD9
  2191                           status	equ	0xFD8
  2192                           
  2193 ;; *************** function _lcd_putc *****************
  2194 ;; Defined at:
  2195 ;;		line 132 in file "DHBKLcd2.c"
  2196 ;; Parameters:    Size  Location     Type
  2197 ;;  c               1    wreg     unsigned char 
  2198 ;; Auto vars:     Size  Location     Type
  2199 ;;  c               1    5[COMRAM] unsigned char 
  2200 ;; Return value:  Size  Location     Type
  2201 ;;                  1    wreg      void 
  2202 ;; Registers used:
  2203 ;;		wreg, status,2, status,0, cstack
  2204 ;; Tracked objects:
  2205 ;;		On entry : 0/0
  2206 ;;		On exit  : 0/0
  2207 ;;		Unchanged: 0/0
  2208 ;; Data sizes:     COMRAM   BANK0   BANK1   BANK2   BANK3   BANK4   BANK5   BANK6   BANK7   BANK8   BANK9  BANK10  BANK1
      +1  BANK12  BANK13  BANK14  BANK15
  2209 ;;      Params:         0       0       0       0       0       0       0       0       0       0       0       0       
      +0       0       0       0       0
  2210 ;;      Locals:         0       0       0       0       0       0       0       0       0       0       0       0       
      +0       0       0       0       0
  2211 ;;      Temps:          0       0       0       0       0       0       0       0       0       0       0       0       
      +0       0       0       0       0
  2212 ;;      Totals:         0       0       0       0       0       0       0       0       0       0       0       0       
      +0       0       0       0       0
  2213 ;;Total ram usage:        0 bytes
  2214 ;; Hardware stack levels used:    1
  2215 ;; Hardware stack levels required when called:   15
  2216 ;; This function calls:
  2217 ;;		_d_write
  2218 ;;		_lcd_cls
  2219 ;;		_lcd_gotoxy
  2220 ;; This function is called by:
  2221 ;;		_putch
  2222 ;;		_lcd_puts
  2223 ;; This function uses a non-reentrant model
  2224 ;;
  2225                           
  2226                           	psect	text18
  2227  001508                     __ptext18:
  2228                           	opt stack 0
  2229  001508                     _lcd_putc:
  2230                           	opt stack 1
  2231                           
  2232                           ;incstack = 0
  2233                           ;lcd_putc@c stored from wreg
  2234  001508  6E06               	movwf	lcd_putc@c,c
  2235                           
  2236                           ;DHBKLcd2.c: 133: switch(c){
  2237  00150A  D00D               	goto	i1l185
  2238  00150C                     
  2239                           ;DHBKLcd2.c: 135: lcd_cls(); break;
  2240  00150C  EC20  F00B         	call	_lcd_cls	;wreg free
  2241  001510  0012               	return	
  2242  001512                     
  2243                           ;DHBKLcd2.c: 137: lcd_gotoxy(1,0); break;
  2244  001512  0E00               	movlw	0
  2245  001514  6E04               	movwf	lcd_gotoxy@col,c
  2246  001516  0E01               	movlw	1
  2247  001518  EC15  F00B         	call	_lcd_gotoxy
  2248  00151C  0012               	return	
  2249  00151E                     
  2250                           ;DHBKLcd2.c: 139: d_write(c);
  2251  00151E  5006               	movf	lcd_putc@c,w,c
  2252  001520  ECAB  F00A         	call	_d_write
  2253                           
  2254                           ;DHBKLcd2.c: 140: }
  2255  001524  0012               	return	
  2256  001526                     i1l185:
  2257  001526  5006               	movf	lcd_putc@c,w,c
  2258                           
  2259                           ; Switch size 1, requested type "space"
  2260                           ; Number of cases is 2, Range of values is 10 to 12
  2261                           ; switch strategies available:
  2262                           ; Name         Instructions Cycles
  2263                           ; simple_byte            7     4 (average)
  2264                           ;	Chosen strategy is simple_byte
  2265  001528  0A0A               	xorlw	10	; case 10
  2266  00152A  B4D8               	btfsc	status,2,c
  2267  00152C  D7F2               	goto	i1l188
  2268  00152E  0A06               	xorlw	6	; case 12
  2269  001530  B4D8               	btfsc	status,2,c
  2270  001532  D7EC               	goto	i1l186
  2271  001534  D7F4               	goto	i1l189
  2272  001536                     __end_of_lcd_putc:
  2273                           	opt stack 0
  2274                           pclatu	equ	0xFFB
  2275                           pclath	equ	0xFFA
  2276                           tblptru	equ	0xFF8
  2277                           tblptrh	equ	0xFF7
  2278                           tblptrl	equ	0xFF6
  2279                           tablat	equ	0xFF5
  2280                           prodh	equ	0xFF4
  2281                           prodl	equ	0xFF3
  2282                           intcon	equ	0xFF2
  2283                           intcon2	equ	0xFF1
  2284                           postinc0	equ	0xFEE
  2285                           fsr0h	equ	0xFEA
  2286                           fsr0l	equ	0xFE9
  2287                           wreg	equ	0xFE8
  2288                           fsr1h	equ	0xFE2
  2289                           fsr1l	equ	0xFE1
  2290                           bsr	equ	0xFE0
  2291                           indf2	equ	0xFDF
  2292                           postinc2	equ	0xFDE
  2293                           postdec2	equ	0xFDD
  2294                           fsr2h	equ	0xFDA
  2295                           fsr2l	equ	0xFD9
  2296                           status	equ	0xFD8
  2297                           
  2298 ;; *************** function _lcd_gotoxy *****************
  2299 ;; Defined at:
  2300 ;;		line 96 in file "DHBKLcd2.c"
  2301 ;; Parameters:    Size  Location     Type
  2302 ;;  row             1    wreg     unsigned char 
  2303 ;;  col             1    3[COMRAM] unsigned char 
  2304 ;; Auto vars:     Size  Location     Type
  2305 ;;  row             1    4[COMRAM] unsigned char 
  2306 ;; Return value:  Size  Location     Type
  2307 ;;                  1    wreg      void 
  2308 ;; Registers used:
  2309 ;;		wreg, status,2, status,0, cstack
  2310 ;; Tracked objects:
  2311 ;;		On entry : 0/0
  2312 ;;		On exit  : 0/0
  2313 ;;		Unchanged: 0/0
  2314 ;; Data sizes:     COMRAM   BANK0   BANK1   BANK2   BANK3   BANK4   BANK5   BANK6   BANK7   BANK8   BANK9  BANK10  BANK1
      +1  BANK12  BANK13  BANK14  BANK15
  2315 ;;      Params:         0       0       0       0       0       0       0       0       0       0       0       0       
      +0       0       0       0       0
  2316 ;;      Locals:         0       0       0       0       0       0       0       0       0       0       0       0       
      +0       0       0       0       0
  2317 ;;      Temps:          0       0       0       0       0       0       0       0       0       0       0       0       
      +0       0       0       0       0
  2318 ;;      Totals:         0       0       0       0       0       0       0       0       0       0       0       0       
      +0       0       0       0       0
  2319 ;;Total ram usage:        0 bytes
  2320 ;; Hardware stack levels used:    1
  2321 ;; Hardware stack levels required when called:   14
  2322 ;; This function calls:
  2323 ;;		_i_write
  2324 ;; This function is called by:
  2325 ;;		_xyliphim
  2326 ;;		_lcd_putc
  2327 ;;		_lcd_DHBK
  2328 ;; This function uses a non-reentrant model
  2329 ;;
  2330                           
  2331                           	psect	text19
  2332  00162A                     __ptext19:
  2333                           	opt stack 0
  2334  00162A                     _lcd_gotoxy:
  2335                           	opt stack 1
  2336                           
  2337                           ;incstack = 0
  2338                           ;lcd_gotoxy@row stored from wreg
  2339  00162A  6E05               	movwf	lcd_gotoxy@row,c
  2340                           
  2341                           ;DHBKLcd2.c: 98: if(row!=0) col+=0x40;
  2342  00162C  5005               	movf	lcd_gotoxy@row,w,c
  2343  00162E  B4D8               	btfsc	status,2,c
  2344  001630  D002               	goto	i1l170
  2345  001632  0E40               	movlw	64
  2346  001634  2604               	addwf	lcd_gotoxy@col,f,c
  2347  001636                     i1l170:
  2348                           
  2349                           ;DHBKLcd2.c: 99: i_write((unsigned char)(0x80|col));
  2350  001636  5004               	movf	lcd_gotoxy@col,w,c
  2351  001638  0980               	iorlw	128
  2352  00163A  EC9B  F00A         	call	_i_write
  2353  00163E  0012               	return		;funcret
  2354  001640                     __end_of_lcd_gotoxy:
  2355                           	opt stack 0
  2356                           pclatu	equ	0xFFB
  2357                           pclath	equ	0xFFA
  2358                           tblptru	equ	0xFF8
  2359                           tblptrh	equ	0xFF7
  2360                           tblptrl	equ	0xFF6
  2361                           tablat	equ	0xFF5
  2362                           prodh	equ	0xFF4
  2363                           prodl	equ	0xFF3
  2364                           intcon	equ	0xFF2
  2365                           intcon2	equ	0xFF1
  2366                           postinc0	equ	0xFEE
  2367                           fsr0h	equ	0xFEA
  2368                           fsr0l	equ	0xFE9
  2369                           wreg	equ	0xFE8
  2370                           fsr1h	equ	0xFE2
  2371                           fsr1l	equ	0xFE1
  2372                           bsr	equ	0xFE0
  2373                           indf2	equ	0xFDF
  2374                           postinc2	equ	0xFDE
  2375                           postdec2	equ	0xFDD
  2376                           fsr2h	equ	0xFDA
  2377                           fsr2l	equ	0xFD9
  2378                           status	equ	0xFD8
  2379                           
  2380 ;; *************** function _lcd_cls *****************
  2381 ;; Defined at:
  2382 ;;		line 108 in file "DHBKLcd2.c"
  2383 ;; Parameters:    Size  Location     Type
  2384 ;;		None
  2385 ;; Auto vars:     Size  Location     Type
  2386 ;;		None
  2387 ;; Return value:  Size  Location     Type
  2388 ;;                  1    wreg      void 
  2389 ;; Registers used:
  2390 ;;		wreg, status,2, cstack
  2391 ;; Tracked objects:
  2392 ;;		On entry : 0/0
  2393 ;;		On exit  : 0/0
  2394 ;;		Unchanged: 0/0
  2395 ;; Data sizes:     COMRAM   BANK0   BANK1   BANK2   BANK3   BANK4   BANK5   BANK6   BANK7   BANK8   BANK9  BANK10  BANK1
      +1  BANK12  BANK13  BANK14  BANK15
  2396 ;;      Params:         0       0       0       0       0       0       0       0       0       0       0       0       
      +0       0       0       0       0
  2397 ;;      Locals:         0       0       0       0       0       0       0       0       0       0       0       0       
      +0       0       0       0       0
  2398 ;;      Temps:          0       0       0       0       0       0       0       0       0       0       0       0       
      +0       0       0       0       0
  2399 ;;      Totals:         0       0       0       0       0       0       0       0       0       0       0       0       
      +0       0       0       0       0
  2400 ;;Total ram usage:        0 bytes
  2401 ;; Hardware stack levels used:    1
  2402 ;; Hardware stack levels required when called:   14
  2403 ;; This function calls:
  2404 ;;		_i_write
  2405 ;; This function is called by:
  2406 ;;		_lcd_init
  2407 ;;		_lcd_putc
  2408 ;; This function uses a non-reentrant model
  2409 ;;
  2410                           
  2411                           	psect	text20
  2412  001640                     __ptext20:
  2413                           	opt stack 0
  2414  001640                     _lcd_cls:
  2415                           	opt stack 1
  2416                           
  2417                           ;incstack = 0
  2418  001640  0E01               	movlw	1
  2419  001642  EC9B  F00A         	call	_i_write
  2420  001646  0E05               	movlw	5
  2421  001648  6E04               	movwf	??_lcd_cls& (0+255),c
  2422  00164A  0ED0               	movlw	208
  2423  00164C                     i1u80_27:
  2424  00164C  2EE8               	decfsz	wreg,f,c
  2425  00164E  D7FE               	bra	i1u80_27
  2426  001650  2E04               	decfsz	??_lcd_cls& (0+255),f,c
  2427  001652  D7FC               	bra	i1u80_27
  2428  001654  0012               	return		;funcret
  2429  001656                     __end_of_lcd_cls:
  2430                           	opt stack 0
  2431                           pclatu	equ	0xFFB
  2432                           pclath	equ	0xFFA
  2433                           tblptru	equ	0xFF8
  2434                           tblptrh	equ	0xFF7
  2435                           tblptrl	equ	0xFF6
  2436                           tablat	equ	0xFF5
  2437                           prodh	equ	0xFF4
  2438                           prodl	equ	0xFF3
  2439                           intcon	equ	0xFF2
  2440                           intcon2	equ	0xFF1
  2441                           postinc0	equ	0xFEE
  2442                           fsr0h	equ	0xFEA
  2443                           fsr0l	equ	0xFE9
  2444                           wreg	equ	0xFE8
  2445                           fsr1h	equ	0xFE2
  2446                           fsr1l	equ	0xFE1
  2447                           bsr	equ	0xFE0
  2448                           indf2	equ	0xFDF
  2449                           postinc2	equ	0xFDE
  2450                           postdec2	equ	0xFDD
  2451                           fsr2h	equ	0xFDA
  2452                           fsr2l	equ	0xFD9
  2453                           status	equ	0xFD8
  2454                           
  2455 ;; *************** function _i_write *****************
  2456 ;; Defined at:
  2457 ;;		line 78 in file "DHBKLcd2.c"
  2458 ;; Parameters:    Size  Location     Type
  2459 ;;  d               1    wreg     unsigned char 
  2460 ;; Auto vars:     Size  Location     Type
  2461 ;;  d               1    2[COMRAM] unsigned char 
  2462 ;; Return value:  Size  Location     Type
  2463 ;;                  1    wreg      void 
  2464 ;; Registers used:
  2465 ;;		wreg, status,2, cstack
  2466 ;; Tracked objects:
  2467 ;;		On entry : 0/0
  2468 ;;		On exit  : 0/0
  2469 ;;		Unchanged: 0/0
  2470 ;; Data sizes:     COMRAM   BANK0   BANK1   BANK2   BANK3   BANK4   BANK5   BANK6   BANK7   BANK8   BANK9  BANK10  BANK1
      +1  BANK12  BANK13  BANK14  BANK15
  2471 ;;      Params:         0       0       0       0       0       0       0       0       0       0       0       0       
      +0       0       0       0       0
  2472 ;;      Locals:         0       0       0       0       0       0       0       0       0       0       0       0       
      +0       0       0       0       0
  2473 ;;      Temps:          0       0       0       0       0       0       0       0       0       0       0       0       
      +0       0       0       0       0
  2474 ;;      Totals:         0       0       0       0       0       0       0       0       0       0       0       0       
      +0       0       0       0       0
  2475 ;;Total ram usage:        0 bytes
  2476 ;; Hardware stack levels used:    1
  2477 ;; Hardware stack levels required when called:   13
  2478 ;; This function calls:
  2479 ;;		_LCDBusy
  2480 ;;		_Write_PortA
  2481 ;;		_Write_PortB
  2482 ;; This function is called by:
  2483 ;;		_lcd_gotoxy
  2484 ;;		_lcd_download
  2485 ;;		_lcd_cls
  2486 ;;		_lcd_init
  2487 ;;		_lcd_put_byte
  2488 ;; This function uses a non-reentrant model
  2489 ;;
  2490                           
  2491                           	psect	text21
  2492  001536                     __ptext21:
  2493                           	opt stack 0
  2494  001536                     _i_write:
  2495                           	opt stack 1
  2496                           
  2497                           ;incstack = 0
  2498                           ;i_write@d stored from wreg
  2499  001536  6E03               	movwf	i_write@d,c
  2500  001538  0E00               	movlw	0
  2501  00153A  ECE5  F00A         	call	_Write_PortA
  2502                           
  2503                           ;DHBKLcd2.c: 80: Write_PortB(d);
  2504  00153E  5003               	movf	i_write@d,w,c
  2505  001540  ECD8  F00A         	call	_Write_PortB
  2506                           
  2507                           ;DHBKLcd2.c: 81: Write_PortA(0b01000000);
  2508  001544  0E40               	movlw	64
  2509  001546  ECE5  F00A         	call	_Write_PortA
  2510                           
  2511                           ;DHBKLcd2.c: 82: Write_PortA(0b00000000);
  2512  00154A  0E00               	movlw	0
  2513  00154C  ECE5  F00A         	call	_Write_PortA
  2514                           
  2515                           ;DHBKLcd2.c: 83: LCDBusy();
  2516  001550  EC61  F00B         	call	_LCDBusy	;wreg free
  2517  001554  0012               	return		;funcret
  2518  001556                     __end_of_i_write:
  2519                           	opt stack 0
  2520                           pclatu	equ	0xFFB
  2521                           pclath	equ	0xFFA
  2522                           tblptru	equ	0xFF8
  2523                           tblptrh	equ	0xFF7
  2524                           tblptrl	equ	0xFF6
  2525                           tablat	equ	0xFF5
  2526                           prodh	equ	0xFF4
  2527                           prodl	equ	0xFF3
  2528                           intcon	equ	0xFF2
  2529                           intcon2	equ	0xFF1
  2530                           postinc0	equ	0xFEE
  2531                           fsr0h	equ	0xFEA
  2532                           fsr0l	equ	0xFE9
  2533                           wreg	equ	0xFE8
  2534                           fsr1h	equ	0xFE2
  2535                           fsr1l	equ	0xFE1
  2536                           bsr	equ	0xFE0
  2537                           indf2	equ	0xFDF
  2538                           postinc2	equ	0xFDE
  2539                           postdec2	equ	0xFDD
  2540                           fsr2h	equ	0xFDA
  2541                           fsr2l	equ	0xFD9
  2542                           status	equ	0xFD8
  2543                           
  2544 ;; *************** function _d_write *****************
  2545 ;; Defined at:
  2546 ;;		line 86 in file "DHBKLcd2.c"
  2547 ;; Parameters:    Size  Location     Type
  2548 ;;  d               1    wreg     unsigned char 
  2549 ;; Auto vars:     Size  Location     Type
  2550 ;;  d               1    2[COMRAM] unsigned char 
  2551 ;; Return value:  Size  Location     Type
  2552 ;;                  1    wreg      void 
  2553 ;; Registers used:
  2554 ;;		wreg, status,2, cstack
  2555 ;; Tracked objects:
  2556 ;;		On entry : 0/0
  2557 ;;		On exit  : 0/0
  2558 ;;		Unchanged: 0/0
  2559 ;; Data sizes:     COMRAM   BANK0   BANK1   BANK2   BANK3   BANK4   BANK5   BANK6   BANK7   BANK8   BANK9  BANK10  BANK1
      +1  BANK12  BANK13  BANK14  BANK15
  2560 ;;      Params:         0       0       0       0       0       0       0       0       0       0       0       0       
      +0       0       0       0       0
  2561 ;;      Locals:         0       0       0       0       0       0       0       0       0       0       0       0       
      +0       0       0       0       0
  2562 ;;      Temps:          0       0       0       0       0       0       0       0       0       0       0       0       
      +0       0       0       0       0
  2563 ;;      Totals:         0       0       0       0       0       0       0       0       0       0       0       0       
      +0       0       0       0       0
  2564 ;;Total ram usage:        0 bytes
  2565 ;; Hardware stack levels used:    1
  2566 ;; Hardware stack levels required when called:   13
  2567 ;; This function calls:
  2568 ;;		_LCDBusy
  2569 ;;		_Write_PortA
  2570 ;;		_Write_PortB
  2571 ;; This function is called by:
  2572 ;;		_lcd_download
  2573 ;;		_lcd_putc
  2574 ;;		_lcd_put_byte
  2575 ;; This function uses a non-reentrant model
  2576 ;;
  2577                           
  2578                           	psect	text22
  2579  001556                     __ptext22:
  2580                           	opt stack 0
  2581  001556                     _d_write:
  2582                           	opt stack 2
  2583                           
  2584                           ;incstack = 0
  2585                           ;d_write@d stored from wreg
  2586  001556  6E03               	movwf	d_write@d,c
  2587  001558  0E80               	movlw	128
  2588  00155A  ECE5  F00A         	call	_Write_PortA
  2589                           
  2590                           ;DHBKLcd2.c: 88: Write_PortB(d);
  2591  00155E  5003               	movf	d_write@d,w,c
  2592  001560  ECD8  F00A         	call	_Write_PortB
  2593                           
  2594                           ;DHBKLcd2.c: 89: Write_PortA(0b11000000);
  2595  001564  0EC0               	movlw	192
  2596  001566  ECE5  F00A         	call	_Write_PortA
  2597                           
  2598                           ;DHBKLcd2.c: 90: Write_PortA(0b00000000);
  2599  00156A  0E00               	movlw	0
  2600  00156C  ECE5  F00A         	call	_Write_PortA
  2601                           
  2602                           ;DHBKLcd2.c: 91: LCDBusy();
  2603  001570  EC61  F00B         	call	_LCDBusy	;wreg free
  2604  001574  0012               	return		;funcret
  2605  001576                     __end_of_d_write:
  2606                           	opt stack 0
  2607                           pclatu	equ	0xFFB
  2608                           pclath	equ	0xFFA
  2609                           tblptru	equ	0xFF8
  2610                           tblptrh	equ	0xFF7
  2611                           tblptrl	equ	0xFF6
  2612                           tablat	equ	0xFF5
  2613                           prodh	equ	0xFF4
  2614                           prodl	equ	0xFF3
  2615                           intcon	equ	0xFF2
  2616                           intcon2	equ	0xFF1
  2617                           postinc0	equ	0xFEE
  2618                           fsr0h	equ	0xFEA
  2619                           fsr0l	equ	0xFE9
  2620                           wreg	equ	0xFE8
  2621                           fsr1h	equ	0xFE2
  2622                           fsr1l	equ	0xFE1
  2623                           bsr	equ	0xFE0
  2624                           indf2	equ	0xFDF
  2625                           postinc2	equ	0xFDE
  2626                           postdec2	equ	0xFDD
  2627                           fsr2h	equ	0xFDA
  2628                           fsr2l	equ	0xFD9
  2629                           status	equ	0xFD8
  2630                           
  2631 ;; *************** function _Write_PortB *****************
  2632 ;; Defined at:
  2633 ;;		line 60 in file "DHBKLcd2.c"
  2634 ;; Parameters:    Size  Location     Type
  2635 ;;  d               1    wreg     unsigned char 
  2636 ;; Auto vars:     Size  Location     Type
  2637 ;;  d               1    1[COMRAM] unsigned char 
  2638 ;; Return value:  Size  Location     Type
  2639 ;;                  1    wreg      void 
  2640 ;; Registers used:
  2641 ;;		wreg, status,2, cstack
  2642 ;; Tracked objects:
  2643 ;;		On entry : 0/0
  2644 ;;		On exit  : 0/0
  2645 ;;		Unchanged: 0/0
  2646 ;; Data sizes:     COMRAM   BANK0   BANK1   BANK2   BANK3   BANK4   BANK5   BANK6   BANK7   BANK8   BANK9  BANK10  BANK1
      +1  BANK12  BANK13  BANK14  BANK15
  2647 ;;      Params:         0       0       0       0       0       0       0       0       0       0       0       0       
      +0       0       0       0       0
  2648 ;;      Locals:         0       0       0       0       0       0       0       0       0       0       0       0       
      +0       0       0       0       0
  2649 ;;      Temps:          0       0       0       0       0       0       0       0       0       0       0       0       
      +0       0       0       0       0
  2650 ;;      Totals:         0       0       0       0       0       0       0       0       0       0       0       0       
      +0       0       0       0       0
  2651 ;;Total ram usage:        0 bytes
  2652 ;; Hardware stack levels used:    1
  2653 ;; Hardware stack levels required when called:   12
  2654 ;; This function calls:
  2655 ;;		_SPI_send
  2656 ;; This function is called by:
  2657 ;;		_i_write
  2658 ;;		_d_write
  2659 ;; This function uses a non-reentrant model
  2660 ;;
  2661                           
  2662                           	psect	text23
  2663  0015B0                     __ptext23:
  2664                           	opt stack 0
  2665  0015B0                     _Write_PortB:
  2666                           	opt stack 1
  2667                           
  2668                           ;incstack = 0
  2669                           ;Write_PortB@d stored from wreg
  2670  0015B0  6E02               	movwf	Write_PortB@d,c
  2671                           
  2672                           ;DHBKLcd2.c: 62: LATA2=0;
  2673  0015B2  9489               	bcf	3977,2,c	;volatile
  2674                           
  2675                           ;DHBKLcd2.c: 63: SPI_send(0x40);
  2676  0015B4  0E40               	movlw	64
  2677  0015B6  EC35  F00B         	call	_SPI_send
  2678                           
  2679                           ;DHBKLcd2.c: 64: SPI_send(0x13);
  2680  0015BA  0E13               	movlw	19
  2681  0015BC  EC35  F00B         	call	_SPI_send
  2682                           
  2683                           ;DHBKLcd2.c: 65: SPI_send(d);
  2684  0015C0  5002               	movf	Write_PortB@d,w,c
  2685  0015C2  EC35  F00B         	call	_SPI_send
  2686                           
  2687                           ;DHBKLcd2.c: 66: LATA2=1;
  2688  0015C6  8489               	bsf	3977,2,c	;volatile
  2689  0015C8  0012               	return		;funcret
  2690  0015CA                     __end_of_Write_PortB:
  2691                           	opt stack 0
  2692                           pclatu	equ	0xFFB
  2693                           pclath	equ	0xFFA
  2694                           tblptru	equ	0xFF8
  2695                           tblptrh	equ	0xFF7
  2696                           tblptrl	equ	0xFF6
  2697                           tablat	equ	0xFF5
  2698                           prodh	equ	0xFF4
  2699                           prodl	equ	0xFF3
  2700                           intcon	equ	0xFF2
  2701                           intcon2	equ	0xFF1
  2702                           postinc0	equ	0xFEE
  2703                           fsr0h	equ	0xFEA
  2704                           fsr0l	equ	0xFE9
  2705                           wreg	equ	0xFE8
  2706                           fsr1h	equ	0xFE2
  2707                           fsr1l	equ	0xFE1
  2708                           bsr	equ	0xFE0
  2709                           indf2	equ	0xFDF
  2710                           postinc2	equ	0xFDE
  2711                           postdec2	equ	0xFDD
  2712                           fsr2h	equ	0xFDA
  2713                           fsr2l	equ	0xFD9
  2714                           status	equ	0xFD8
  2715                           
  2716 ;; *************** function _Write_PortA *****************
  2717 ;; Defined at:
  2718 ;;		line 69 in file "DHBKLcd2.c"
  2719 ;; Parameters:    Size  Location     Type
  2720 ;;  mask            1    wreg     unsigned char 
  2721 ;; Auto vars:     Size  Location     Type
  2722 ;;  mask            1    1[COMRAM] unsigned char 
  2723 ;; Return value:  Size  Location     Type
  2724 ;;                  1    wreg      void 
  2725 ;; Registers used:
  2726 ;;		wreg, status,2, cstack
  2727 ;; Tracked objects:
  2728 ;;		On entry : 0/0
  2729 ;;		On exit  : 0/0
  2730 ;;		Unchanged: 0/0
  2731 ;; Data sizes:     COMRAM   BANK0   BANK1   BANK2   BANK3   BANK4   BANK5   BANK6   BANK7   BANK8   BANK9  BANK10  BANK1
      +1  BANK12  BANK13  BANK14  BANK15
  2732 ;;      Params:         0       0       0       0       0       0       0       0       0       0       0       0       
      +0       0       0       0       0
  2733 ;;      Locals:         0       0       0       0       0       0       0       0       0       0       0       0       
      +0       0       0       0       0
  2734 ;;      Temps:          0       0       0       0       0       0       0       0       0       0       0       0       
      +0       0       0       0       0
  2735 ;;      Totals:         0       0       0       0       0       0       0       0       0       0       0       0       
      +0       0       0       0       0
  2736 ;;Total ram usage:        0 bytes
  2737 ;; Hardware stack levels used:    1
  2738 ;; Hardware stack levels required when called:   12
  2739 ;; This function calls:
  2740 ;;		_SPI_send
  2741 ;; This function is called by:
  2742 ;;		_i_write
  2743 ;;		_d_write
  2744 ;; This function uses a non-reentrant model
  2745 ;;
  2746                           
  2747                           	psect	text24
  2748  0015CA                     __ptext24:
  2749                           	opt stack 0
  2750  0015CA                     _Write_PortA:
  2751                           	opt stack 1
  2752                           
  2753                           ;incstack = 0
  2754                           ;Write_PortA@mask stored from wreg
  2755  0015CA  6E02               	movwf	Write_PortA@mask,c
  2756                           
  2757                           ;DHBKLcd2.c: 71: LATA2=0;
  2758  0015CC  9489               	bcf	3977,2,c	;volatile
  2759                           
  2760                           ;DHBKLcd2.c: 72: SPI_send(0x40);
  2761  0015CE  0E40               	movlw	64
  2762  0015D0  EC35  F00B         	call	_SPI_send
  2763                           
  2764                           ;DHBKLcd2.c: 73: SPI_send(0x12);
  2765  0015D4  0E12               	movlw	18
  2766  0015D6  EC35  F00B         	call	_SPI_send
  2767                           
  2768                           ;DHBKLcd2.c: 74: SPI_send(mask);
  2769  0015DA  5002               	movf	Write_PortA@mask,w,c
  2770  0015DC  EC35  F00B         	call	_SPI_send
  2771                           
  2772                           ;DHBKLcd2.c: 75: LATA2=1;
  2773  0015E0  8489               	bsf	3977,2,c	;volatile
  2774  0015E2  0012               	return		;funcret
  2775  0015E4                     __end_of_Write_PortA:
  2776                           	opt stack 0
  2777                           pclatu	equ	0xFFB
  2778                           pclath	equ	0xFFA
  2779                           tblptru	equ	0xFF8
  2780                           tblptrh	equ	0xFF7
  2781                           tblptrl	equ	0xFF6
  2782                           tablat	equ	0xFF5
  2783                           prodh	equ	0xFF4
  2784                           prodl	equ	0xFF3
  2785                           intcon	equ	0xFF2
  2786                           intcon2	equ	0xFF1
  2787                           postinc0	equ	0xFEE
  2788                           fsr0h	equ	0xFEA
  2789                           fsr0l	equ	0xFE9
  2790                           wreg	equ	0xFE8
  2791                           fsr1h	equ	0xFE2
  2792                           fsr1l	equ	0xFE1
  2793                           bsr	equ	0xFE0
  2794                           indf2	equ	0xFDF
  2795                           postinc2	equ	0xFDE
  2796                           postdec2	equ	0xFDD
  2797                           fsr2h	equ	0xFDA
  2798                           fsr2l	equ	0xFD9
  2799                           status	equ	0xFD8
  2800                           
  2801 ;; *************** function _SPI_send *****************
  2802 ;; Defined at:
  2803 ;;		line 37 in file "DHBKLcd2.c"
  2804 ;; Parameters:    Size  Location     Type
  2805 ;;  c               1    wreg     unsigned char 
  2806 ;; Auto vars:     Size  Location     Type
  2807 ;;  c               1    0[COMRAM] unsigned char 
  2808 ;; Return value:  Size  Location     Type
  2809 ;;                  1    wreg      void 
  2810 ;; Registers used:
  2811 ;;		wreg
  2812 ;; Tracked objects:
  2813 ;;		On entry : 0/0
  2814 ;;		On exit  : 0/0
  2815 ;;		Unchanged: 0/0
  2816 ;; Data sizes:     COMRAM   BANK0   BANK1   BANK2   BANK3   BANK4   BANK5   BANK6   BANK7   BANK8   BANK9  BANK10  BANK1
      +1  BANK12  BANK13  BANK14  BANK15
  2817 ;;      Params:         0       0       0       0       0       0       0       0       0       0       0       0       
      +0       0       0       0       0
  2818 ;;      Locals:         0       0       0       0       0       0       0       0       0       0       0       0       
      +0       0       0       0       0
  2819 ;;      Temps:          0       0       0       0       0       0       0       0       0       0       0       0       
      +0       0       0       0       0
  2820 ;;      Totals:         0       0       0       0       0       0       0       0       0       0       0       0       
      +0       0       0       0       0
  2821 ;;Total ram usage:        0 bytes
  2822 ;; Hardware stack levels used:    1
  2823 ;; Hardware stack levels required when called:   11
  2824 ;; This function calls:
  2825 ;;		Nothing
  2826 ;; This function is called by:
  2827 ;;		_SPIportA_init
  2828 ;;		_SPIportB_init
  2829 ;;		_Write_PortB
  2830 ;;		_Write_PortA
  2831 ;; This function uses a non-reentrant model
  2832 ;;
  2833                           
  2834                           	psect	text25
  2835  00166A                     __ptext25:
  2836                           	opt stack 0
  2837  00166A                     _SPI_send:
  2838                           	opt stack 1
  2839                           
  2840                           ;incstack = 0
  2841                           ;SPI_send@c stored from wreg
  2842  00166A  6E01               	movwf	SPI_send@c,c
  2843  00166C  C001  FFC9         	movff	SPI_send@c,4041	;volatile
  2844  001670  A69E               	btfss	3998,3,c	;volatile
  2845  001672  D7FE               	goto	i1l142
  2846                           
  2847                           ;DHBKLcd2.c: 40: SSP1IF=0;
  2848  001674  969E               	bcf	3998,3,c	;volatile
  2849                           
  2850                           ;DHBKLcd2.c: 41: c=SSP1BUF;
  2851  001676  CFC9 F001          	movff	4041,SPI_send@c	;volatile
  2852  00167A  0012               	return		;funcret
  2853  00167C                     __end_of_SPI_send:
  2854                           	opt stack 0
  2855                           pclatu	equ	0xFFB
  2856                           pclath	equ	0xFFA
  2857                           tblptru	equ	0xFF8
  2858                           tblptrh	equ	0xFF7
  2859                           tblptrl	equ	0xFF6
  2860                           tablat	equ	0xFF5
  2861                           prodh	equ	0xFF4
  2862                           prodl	equ	0xFF3
  2863                           intcon	equ	0xFF2
  2864                           intcon2	equ	0xFF1
  2865                           postinc0	equ	0xFEE
  2866                           fsr0h	equ	0xFEA
  2867                           fsr0l	equ	0xFE9
  2868                           wreg	equ	0xFE8
  2869                           fsr1h	equ	0xFE2
  2870                           fsr1l	equ	0xFE1
  2871                           bsr	equ	0xFE0
  2872                           indf2	equ	0xFDF
  2873                           postinc2	equ	0xFDE
  2874                           postdec2	equ	0xFDD
  2875                           fsr2h	equ	0xFDA
  2876                           fsr2l	equ	0xFD9
  2877                           status	equ	0xFD8
  2878                           
  2879 ;; *************** function _LCDBusy *****************
  2880 ;; Defined at:
  2881 ;;		line 28 in file "DHBKLcd2.c"
  2882 ;; Parameters:    Size  Location     Type
  2883 ;;		None
  2884 ;; Auto vars:     Size  Location     Type
  2885 ;;		None
  2886 ;; Return value:  Size  Location     Type
  2887 ;;                  1    wreg      void 
  2888 ;; Registers used:
  2889 ;;		wreg
  2890 ;; Tracked objects:
  2891 ;;		On entry : 0/0
  2892 ;;		On exit  : 0/0
  2893 ;;		Unchanged: 0/0
  2894 ;; Data sizes:     COMRAM   BANK0   BANK1   BANK2   BANK3   BANK4   BANK5   BANK6   BANK7   BANK8   BANK9  BANK10  BANK1
      +1  BANK12  BANK13  BANK14  BANK15
  2895 ;;      Params:         0       0       0       0       0       0       0       0       0       0       0       0       
      +0       0       0       0       0
  2896 ;;      Locals:         0       0       0       0       0       0       0       0       0       0       0       0       
      +0       0       0       0       0
  2897 ;;      Temps:          0       0       0       0       0       0       0       0       0       0       0       0       
      +0       0       0       0       0
  2898 ;;      Totals:         0       0       0       0       0       0       0       0       0       0       0       0       
      +0       0       0       0       0
  2899 ;;Total ram usage:        0 bytes
  2900 ;; Hardware stack levels used:    1
  2901 ;; Hardware stack levels required when called:   11
  2902 ;; This function calls:
  2903 ;;		Nothing
  2904 ;; This function is called by:
  2905 ;;		_i_write
  2906 ;;		_d_write
  2907 ;; This function uses a non-reentrant model
  2908 ;;
  2909                           
  2910                           	psect	text26
  2911  0016C2                     __ptext26:
  2912                           	opt stack 0
  2913  0016C2                     _LCDBusy:
  2914                           	opt stack 2
  2915                           
  2916                           ;incstack = 0
  2917  0016C2  0E1F               	movlw	31
  2918  0016C4                     i1u81_27:
  2919  0016C4  2EE8               	decfsz	wreg,f,c
  2920  0016C6  D7FE               	bra	i1u81_27
  2921  0016C8  D000               	nop2	
  2922  0016CA  0012               	return		;funcret
  2923  0016CC                     __end_of_LCDBusy:
  2924                           	opt stack 0
  2925                           pclatu	equ	0xFFB
  2926                           pclath	equ	0xFFA
  2927                           tblptru	equ	0xFF8
  2928                           tblptrh	equ	0xFF7
  2929                           tblptrl	equ	0xFF6
  2930                           tablat	equ	0xFF5
  2931                           prodh	equ	0xFF4
  2932                           prodl	equ	0xFF3
  2933                           intcon	equ	0xFF2
  2934                           intcon2	equ	0xFF1
  2935                           postinc0	equ	0xFEE
  2936                           fsr0h	equ	0xFEA
  2937                           fsr0l	equ	0xFE9
  2938                           wreg	equ	0xFE8
  2939                           fsr1h	equ	0xFE2
  2940                           fsr1l	equ	0xFE1
  2941                           bsr	equ	0xFE0
  2942                           indf2	equ	0xFDF
  2943                           postinc2	equ	0xFDE
  2944                           postdec2	equ	0xFDD
  2945                           fsr2h	equ	0xFDA
  2946                           fsr2l	equ	0xFD9
  2947                           status	equ	0xFD8
  2948                           
  2949 ;; *************** function ___lwmod *****************
  2950 ;; Defined at:
  2951 ;;		line 8 in file "D:\Apps\MPLab\New folder (2)\sources\common\lwmod.c"
  2952 ;; Parameters:    Size  Location     Type
  2953 ;;  dividend        2    7[COMRAM] unsigned int 
  2954 ;;  divisor         2    9[COMRAM] unsigned int 
  2955 ;; Auto vars:     Size  Location     Type
  2956 ;;  counter         1   11[COMRAM] unsigned char 
  2957 ;; Return value:  Size  Location     Type
  2958 ;;                  2    7[COMRAM] unsigned int 
  2959 ;; Registers used:
  2960 ;;		wreg, status,2, status,0
  2961 ;; Tracked objects:
  2962 ;;		On entry : 0/0
  2963 ;;		On exit  : 0/0
  2964 ;;		Unchanged: 0/0
  2965 ;; Data sizes:     COMRAM   BANK0   BANK1   BANK2   BANK3   BANK4   BANK5   BANK6   BANK7   BANK8   BANK9  BANK10  BANK1
      +1  BANK12  BANK13  BANK14  BANK15
  2966 ;;      Params:         4       0       0       0       0       0       0       0       0       0       0       0       
      +0       0       0       0       0
  2967 ;;      Locals:         1       0       0       0       0       0       0       0       0       0       0       0       
      +0       0       0       0       0
  2968 ;;      Temps:          0       0       0       0       0       0       0       0       0       0       0       0       
      +0       0       0       0       0
  2969 ;;      Totals:         5       0       0       0       0       0       0       0       0       0       0       0       
      +0       0       0       0       0
  2970 ;;Total ram usage:        5 bytes
  2971 ;; Hardware stack levels used:    1
  2972 ;; This function calls:
  2973 ;;		Nothing
  2974 ;; This function is called by:
  2975 ;;		_printf
  2976 ;; This function uses a non-reentrant model
  2977 ;;
  2978                           
  2979                           	psect	text27
  2980  001496                     __ptext27:
  2981                           	opt stack 0
  2982  001496                     ___lwmod:
  2983                           	opt stack 17
  2984                           
  2985                           ;incstack = 0
  2986  001496  500A               	movf	___lwmod@divisor,w,c
  2987  001498  100B               	iorwf	___lwmod@divisor+1,w,c
  2988  00149A  B4D8               	btfsc	status,2,c
  2989  00149C  D018               	goto	i1l655
  2990  00149E  0E01               	movlw	1
  2991  0014A0  6E0C               	movwf	___lwmod@counter,c
  2992  0014A2  D004               	goto	i1l650
  2993  0014A4  90D8               	bcf	status,0,c
  2994  0014A6  360A               	rlcf	___lwmod@divisor,f,c
  2995  0014A8  360B               	rlcf	___lwmod@divisor+1,f,c
  2996  0014AA  2A0C               	incf	___lwmod@counter,f,c
  2997  0014AC                     i1l650:
  2998  0014AC  AE0B               	btfss	___lwmod@divisor+1,7,c
  2999  0014AE  D7FA               	goto	i1l651
  3000  0014B0                     i1u47_20:
  3001  0014B0  500A               	movf	___lwmod@divisor,w,c
  3002  0014B2  5C08               	subwf	___lwmod@dividend,w,c
  3003  0014B4  500B               	movf	___lwmod@divisor+1,w,c
  3004  0014B6  5809               	subwfb	___lwmod@dividend+1,w,c
  3005  0014B8  A0D8               	btfss	status,0,c
  3006  0014BA  D004               	goto	i1l654
  3007  0014BC  500A               	movf	___lwmod@divisor,w,c
  3008  0014BE  5E08               	subwf	___lwmod@dividend,f,c
  3009  0014C0  500B               	movf	___lwmod@divisor+1,w,c
  3010  0014C2  5A09               	subwfb	___lwmod@dividend+1,f,c
  3011  0014C4                     i1l654:
  3012  0014C4  90D8               	bcf	status,0,c
  3013  0014C6  320B               	rrcf	___lwmod@divisor+1,f,c
  3014  0014C8  320A               	rrcf	___lwmod@divisor,f,c
  3015  0014CA  2E0C               	decfsz	___lwmod@counter,f,c
  3016  0014CC  D7F1               	goto	i1u47_20
  3017  0014CE                     i1l655:
  3018  0014CE  C008  F008         	movff	___lwmod@dividend,?___lwmod
  3019  0014D2  C009  F009         	movff	___lwmod@dividend+1,?___lwmod+1
  3020  0014D6  0012               	return		;funcret
  3021  0014D8                     __end_of___lwmod:
  3022                           	opt stack 0
  3023                           pclatu	equ	0xFFB
  3024                           pclath	equ	0xFFA
  3025                           tblptru	equ	0xFF8
  3026                           tblptrh	equ	0xFF7
  3027                           tblptrl	equ	0xFF6
  3028                           tablat	equ	0xFF5
  3029                           prodh	equ	0xFF4
  3030                           prodl	equ	0xFF3
  3031                           intcon	equ	0xFF2
  3032                           intcon2	equ	0xFF1
  3033                           postinc0	equ	0xFEE
  3034                           fsr0h	equ	0xFEA
  3035                           fsr0l	equ	0xFE9
  3036                           wreg	equ	0xFE8
  3037                           fsr1h	equ	0xFE2
  3038                           fsr1l	equ	0xFE1
  3039                           bsr	equ	0xFE0
  3040                           indf2	equ	0xFDF
  3041                           postinc2	equ	0xFDE
  3042                           postdec2	equ	0xFDD
  3043                           fsr2h	equ	0xFDA
  3044                           fsr2l	equ	0xFD9
  3045                           status	equ	0xFD8
  3046                           
  3047 ;; *************** function ___lwdiv *****************
  3048 ;; Defined at:
  3049 ;;		line 8 in file "D:\Apps\MPLab\New folder (2)\sources\common\lwdiv.c"
  3050 ;; Parameters:    Size  Location     Type
  3051 ;;  dividend        2    0[COMRAM] unsigned int 
  3052 ;;  divisor         2    2[COMRAM] unsigned int 
  3053 ;; Auto vars:     Size  Location     Type
  3054 ;;  quotient        2    4[COMRAM] unsigned int 
  3055 ;;  counter         1    6[COMRAM] unsigned char 
  3056 ;; Return value:  Size  Location     Type
  3057 ;;                  2    0[COMRAM] unsigned int 
  3058 ;; Registers used:
  3059 ;;		wreg, status,2, status,0
  3060 ;; Tracked objects:
  3061 ;;		On entry : 0/0
  3062 ;;		On exit  : 0/0
  3063 ;;		Unchanged: 0/0
  3064 ;; Data sizes:     COMRAM   BANK0   BANK1   BANK2   BANK3   BANK4   BANK5   BANK6   BANK7   BANK8   BANK9  BANK10  BANK1
      +1  BANK12  BANK13  BANK14  BANK15
  3065 ;;      Params:         4       0       0       0       0       0       0       0       0       0       0       0       
      +0       0       0       0       0
  3066 ;;      Locals:         3       0       0       0       0       0       0       0       0       0       0       0       
      +0       0       0       0       0
  3067 ;;      Temps:          0       0       0       0       0       0       0       0       0       0       0       0       
      +0       0       0       0       0
  3068 ;;      Totals:         7       0       0       0       0       0       0       0       0       0       0       0       
      +0       0       0       0       0
  3069 ;;Total ram usage:        7 bytes
  3070 ;; Hardware stack levels used:    1
  3071 ;; This function calls:
  3072 ;;		Nothing
  3073 ;; This function is called by:
  3074 ;;		_printf
  3075 ;; This function uses a non-reentrant model
  3076 ;;
  3077                           
  3078                           	psect	text28
  3079  00135A                     __ptext28:
  3080                           	opt stack 0
  3081  00135A                     ___lwdiv:
  3082                           	opt stack 17
  3083                           
  3084                           ;incstack = 0
  3085  00135A  0E00               	movlw	0
  3086  00135C  6E06               	movwf	___lwdiv@quotient+1,c
  3087  00135E  0E00               	movlw	0
  3088  001360  6E05               	movwf	___lwdiv@quotient,c
  3089  001362  5003               	movf	___lwdiv@divisor,w,c
  3090  001364  1004               	iorwf	___lwdiv@divisor+1,w,c
  3091  001366  B4D8               	btfsc	status,2,c
  3092  001368  D01C               	goto	i1l645
  3093  00136A  0E01               	movlw	1
  3094  00136C  6E07               	movwf	___lwdiv@counter,c
  3095  00136E  D004               	goto	i1l640
  3096  001370  90D8               	bcf	status,0,c
  3097  001372  3603               	rlcf	___lwdiv@divisor,f,c
  3098  001374  3604               	rlcf	___lwdiv@divisor+1,f,c
  3099  001376  2A07               	incf	___lwdiv@counter,f,c
  3100  001378                     i1l640:
  3101  001378  AE04               	btfss	___lwdiv@divisor+1,7,c
  3102  00137A  D7FA               	goto	i1l641
  3103  00137C                     i1u44_20:
  3104  00137C  90D8               	bcf	status,0,c
  3105  00137E  3605               	rlcf	___lwdiv@quotient,f,c
  3106  001380  3606               	rlcf	___lwdiv@quotient+1,f,c
  3107  001382  5003               	movf	___lwdiv@divisor,w,c
  3108  001384  5C01               	subwf	___lwdiv@dividend,w,c
  3109  001386  5004               	movf	___lwdiv@divisor+1,w,c
  3110  001388  5802               	subwfb	___lwdiv@dividend+1,w,c
  3111  00138A  A0D8               	btfss	status,0,c
  3112  00138C  D005               	goto	i1l644
  3113  00138E  5003               	movf	___lwdiv@divisor,w,c
  3114  001390  5E01               	subwf	___lwdiv@dividend,f,c
  3115  001392  5004               	movf	___lwdiv@divisor+1,w,c
  3116  001394  5A02               	subwfb	___lwdiv@dividend+1,f,c
  3117  001396  8005               	bsf	___lwdiv@quotient,0,c
  3118  001398                     i1l644:
  3119  001398  90D8               	bcf	status,0,c
  3120  00139A  3204               	rrcf	___lwdiv@divisor+1,f,c
  3121  00139C  3203               	rrcf	___lwdiv@divisor,f,c
  3122  00139E  2E07               	decfsz	___lwdiv@counter,f,c
  3123  0013A0  D7ED               	goto	i1u44_20
  3124  0013A2                     i1l645:
  3125  0013A2  C005  F001         	movff	___lwdiv@quotient,?___lwdiv
  3126  0013A6  C006  F002         	movff	___lwdiv@quotient+1,?___lwdiv+1
  3127  0013AA  0012               	return		;funcret
  3128  0013AC                     __end_of___lwdiv:
  3129                           	opt stack 0
  3130                           pclatu	equ	0xFFB
  3131                           pclath	equ	0xFFA
  3132                           tblptru	equ	0xFF8
  3133                           tblptrh	equ	0xFF7
  3134                           tblptrl	equ	0xFF6
  3135                           tablat	equ	0xFF5
  3136                           prodh	equ	0xFF4
  3137                           prodl	equ	0xFF3
  3138                           intcon	equ	0xFF2
  3139                           intcon2	equ	0xFF1
  3140                           postinc0	equ	0xFEE
  3141                           fsr0h	equ	0xFEA
  3142                           fsr0l	equ	0xFE9
  3143                           wreg	equ	0xFE8
  3144                           fsr1h	equ	0xFE2
  3145                           fsr1l	equ	0xFE1
  3146                           bsr	equ	0xFE0
  3147                           indf2	equ	0xFDF
  3148                           postinc2	equ	0xFDE
  3149                           postdec2	equ	0xFDD
  3150                           fsr2h	equ	0xFDA
  3151                           fsr2l	equ	0xFD9
  3152                           status	equ	0xFD8
  3153                           
  3154 ;; *************** function _clearbuffer *****************
  3155 ;; Defined at:
  3156 ;;		line 38 in file "Tn06YC2.c"
  3157 ;; Parameters:    Size  Location     Type
  3158 ;;		None
  3159 ;; Auto vars:     Size  Location     Type
  3160 ;;  i               2    0[COMRAM] int 
  3161 ;; Return value:  Size  Location     Type
  3162 ;;                  1    wreg      void 
  3163 ;; Registers used:
  3164 ;;		wreg, fsr2l, fsr2h, status,2, status,0
  3165 ;; Tracked objects:
  3166 ;;		On entry : 0/0
  3167 ;;		On exit  : 0/0
  3168 ;;		Unchanged: 0/0
  3169 ;; Data sizes:     COMRAM   BANK0   BANK1   BANK2   BANK3   BANK4   BANK5   BANK6   BANK7   BANK8   BANK9  BANK10  BANK1
      +1  BANK12  BANK13  BANK14  BANK15
  3170 ;;      Params:         0       0       0       0       0       0       0       0       0       0       0       0       
      +0       0       0       0       0
  3171 ;;      Locals:         2       0       0       0       0       0       0       0       0       0       0       0       
      +0       0       0       0       0
  3172 ;;      Temps:          0       0       0       0       0       0       0       0       0       0       0       0       
      +0       0       0       0       0
  3173 ;;      Totals:         2       0       0       0       0       0       0       0       0       0       0       0       
      +0       0       0       0       0
  3174 ;;Total ram usage:        2 bytes
  3175 ;; Hardware stack levels used:    1
  3176 ;; This function calls:
  3177 ;;		Nothing
  3178 ;; This function is called by:
  3179 ;;		_xyliphim
  3180 ;; This function uses a non-reentrant model
  3181 ;;
  3182                           
  3183                           	psect	text29
  3184  0014D8                     __ptext29:
  3185                           	opt stack 0
  3186  0014D8                     _clearbuffer:
  3187                           	opt stack 18
  3188                           
  3189                           ;Tn06YC2.c: 39: for (int i = 0; i < 16; i++)
  3190                           
  3191                           ;incstack = 0
  3192  0014D8  0E00               	movlw	0
  3193  0014DA  6E02               	movwf	clearbuffer@i+1,c
  3194  0014DC  0E00               	movlw	0
  3195  0014DE  6E01               	movwf	clearbuffer@i,c
  3196  0014E0                     i1l950:
  3197  0014E0  BE02               	btfsc	clearbuffer@i+1,7,c
  3198  0014E2  D006               	goto	i1l68
  3199  0014E4  5002               	movf	clearbuffer@i+1,w,c
  3200  0014E6  E10F               	bnz	i1l70
  3201  0014E8  0E10               	movlw	16
  3202  0014EA  5C01               	subwf	clearbuffer@i,w,c
  3203  0014EC  B0D8               	btfsc	status,0,c
  3204  0014EE  0012               	return	
  3205  0014F0                     i1l68:
  3206                           
  3207                           ;Tn06YC2.c: 40: buffer[i] = 0;
  3208  0014F0  0E35               	movlw	low _buffer
  3209  0014F2  2401               	addwf	clearbuffer@i,w,c
  3210  0014F4  6ED9               	movwf	fsr2l,c
  3211  0014F6  0E00               	movlw	high _buffer
  3212  0014F8  2002               	addwfc	clearbuffer@i+1,w,c
  3213  0014FA  6EDA               	movwf	fsr2h,c
  3214  0014FC  0E00               	movlw	0
  3215  0014FE  6EDF               	movwf	indf2,c
  3216  001500  4A01               	infsnz	clearbuffer@i,f,c
  3217  001502  2A02               	incf	clearbuffer@i+1,f,c
  3218  001504  D7ED               	goto	i1l950
  3219  001506                     i1l70:
  3220  001506  0012               	return		;funcret
  3221  001508                     __end_of_clearbuffer:
  3222                           	opt stack 0
  3223                           pclatu	equ	0xFFB
  3224                           pclath	equ	0xFFA
  3225                           tblptru	equ	0xFF8
  3226                           tblptrh	equ	0xFF7
  3227                           tblptrl	equ	0xFF6
  3228                           tablat	equ	0xFF5
  3229                           prodh	equ	0xFF4
  3230                           prodl	equ	0xFF3
  3231                           intcon	equ	0xFF2
  3232                           intcon2	equ	0xFF1
  3233                           postinc0	equ	0xFEE
  3234                           fsr0h	equ	0xFEA
  3235                           fsr0l	equ	0xFE9
  3236                           wreg	equ	0xFE8
  3237                           fsr1h	equ	0xFE2
  3238                           fsr1l	equ	0xFE1
  3239                           bsr	equ	0xFE0
  3240                           indf2	equ	0xFDF
  3241                           postinc2	equ	0xFDE
  3242                           postdec2	equ	0xFDD
  3243                           fsr2h	equ	0xFDA
  3244                           fsr2l	equ	0xFD9
  3245                           status	equ	0xFD8
  3246                           
  3247 ;; *************** function ___awdiv *****************
  3248 ;; Defined at:
  3249 ;;		line 8 in file "D:\Apps\MPLab\New folder (2)\sources\common\awdiv.c"
  3250 ;; Parameters:    Size  Location     Type
  3251 ;;  dividend        2    0[COMRAM] int 
  3252 ;;  divisor         2    2[COMRAM] int 
  3253 ;; Auto vars:     Size  Location     Type
  3254 ;;  quotient        2    6[COMRAM] int 
  3255 ;;  sign            1    5[COMRAM] unsigned char 
  3256 ;;  counter         1    4[COMRAM] unsigned char 
  3257 ;; Return value:  Size  Location     Type
  3258 ;;                  2    0[COMRAM] int 
  3259 ;; Registers used:
  3260 ;;		wreg, status,2, status,0
  3261 ;; Tracked objects:
  3262 ;;		On entry : 0/0
  3263 ;;		On exit  : 0/0
  3264 ;;		Unchanged: 0/0
  3265 ;; Data sizes:     COMRAM   BANK0   BANK1   BANK2   BANK3   BANK4   BANK5   BANK6   BANK7   BANK8   BANK9  BANK10  BANK1
      +1  BANK12  BANK13  BANK14  BANK15
  3266 ;;      Params:         4       0       0       0       0       0       0       0       0       0       0       0       
      +0       0       0       0       0
  3267 ;;      Locals:         4       0       0       0       0       0       0       0       0       0       0       0       
      +0       0       0       0       0
  3268 ;;      Temps:          0       0       0       0       0       0       0       0       0       0       0       0       
      +0       0       0       0       0
  3269 ;;      Totals:         8       0       0       0       0       0       0       0       0       0       0       0       
      +0       0       0       0       0
  3270 ;;Total ram usage:        8 bytes
  3271 ;; Hardware stack levels used:    1
  3272 ;; This function calls:
  3273 ;;		Nothing
  3274 ;; This function is called by:
  3275 ;;		_xyliphim
  3276 ;; This function uses a non-reentrant model
  3277 ;;
  3278                           
  3279                           	psect	text30
  3280  00120E                     __ptext30:
  3281                           	opt stack 0
  3282  00120E                     ___awdiv:
  3283                           	opt stack 18
  3284                           
  3285                           ;incstack = 0
  3286  00120E  0E00               	movlw	0
  3287  001210  6E06               	movwf	___awdiv@sign,c
  3288  001212  AE04               	btfss	___awdiv@divisor+1,7,c
  3289  001214  D006               	goto	i1l404
  3290  001216  6C03               	negf	___awdiv@divisor,c
  3291  001218  1E04               	comf	___awdiv@divisor+1,f,c
  3292  00121A  B0D8               	btfsc	status,0,c
  3293  00121C  2A04               	incf	___awdiv@divisor+1,f,c
  3294  00121E  0E01               	movlw	1
  3295  001220  6E06               	movwf	___awdiv@sign,c
  3296  001222                     i1l404:
  3297  001222  AE02               	btfss	___awdiv@dividend+1,7,c
  3298  001224  D006               	goto	i1l405
  3299  001226  6C01               	negf	___awdiv@dividend,c
  3300  001228  1E02               	comf	___awdiv@dividend+1,f,c
  3301  00122A  B0D8               	btfsc	status,0,c
  3302  00122C  2A02               	incf	___awdiv@dividend+1,f,c
  3303  00122E  0E01               	movlw	1
  3304  001230  1A06               	xorwf	___awdiv@sign,f,c
  3305  001232                     i1l405:
  3306  001232  0E00               	movlw	0
  3307  001234  6E08               	movwf	___awdiv@quotient+1,c
  3308  001236  0E00               	movlw	0
  3309  001238  6E07               	movwf	___awdiv@quotient,c
  3310  00123A  5003               	movf	___awdiv@divisor,w,c
  3311  00123C  1004               	iorwf	___awdiv@divisor+1,w,c
  3312  00123E  B4D8               	btfsc	status,2,c
  3313  001240  D01C               	goto	i1l412
  3314  001242  0E01               	movlw	1
  3315  001244  6E05               	movwf	___awdiv@counter,c
  3316  001246  D004               	goto	i1l407
  3317  001248  90D8               	bcf	status,0,c
  3318  00124A  3603               	rlcf	___awdiv@divisor,f,c
  3319  00124C  3604               	rlcf	___awdiv@divisor+1,f,c
  3320  00124E  2A05               	incf	___awdiv@counter,f,c
  3321  001250                     i1l407:
  3322  001250  AE04               	btfss	___awdiv@divisor+1,7,c
  3323  001252  D7FA               	goto	i1l408
  3324  001254                     i1u60_20:
  3325  001254  90D8               	bcf	status,0,c
  3326  001256  3607               	rlcf	___awdiv@quotient,f,c
  3327  001258  3608               	rlcf	___awdiv@quotient+1,f,c
  3328  00125A  5003               	movf	___awdiv@divisor,w,c
  3329  00125C  5C01               	subwf	___awdiv@dividend,w,c
  3330  00125E  5004               	movf	___awdiv@divisor+1,w,c
  3331  001260  5802               	subwfb	___awdiv@dividend+1,w,c
  3332  001262  A0D8               	btfss	status,0,c
  3333  001264  D005               	goto	i1l411
  3334  001266  5003               	movf	___awdiv@divisor,w,c
  3335  001268  5E01               	subwf	___awdiv@dividend,f,c
  3336  00126A  5004               	movf	___awdiv@divisor+1,w,c
  3337  00126C  5A02               	subwfb	___awdiv@dividend+1,f,c
  3338  00126E  8007               	bsf	___awdiv@quotient,0,c
  3339  001270                     i1l411:
  3340  001270  90D8               	bcf	status,0,c
  3341  001272  3204               	rrcf	___awdiv@divisor+1,f,c
  3342  001274  3203               	rrcf	___awdiv@divisor,f,c
  3343  001276  2E05               	decfsz	___awdiv@counter,f,c
  3344  001278  D7ED               	goto	i1u60_20
  3345  00127A                     i1l412:
  3346  00127A  5006               	movf	___awdiv@sign,w,c
  3347  00127C  B4D8               	btfsc	status,2,c
  3348  00127E  D004               	goto	i1l413
  3349  001280  6C07               	negf	___awdiv@quotient,c
  3350  001282  1E08               	comf	___awdiv@quotient+1,f,c
  3351  001284  B0D8               	btfsc	status,0,c
  3352  001286  2A08               	incf	___awdiv@quotient+1,f,c
  3353  001288                     i1l413:
  3354  001288  C007  F001         	movff	___awdiv@quotient,?___awdiv
  3355  00128C  C008  F002         	movff	___awdiv@quotient+1,?___awdiv+1
  3356  001290  0012               	return	
  3357  001292                     __end_of___awdiv:
  3358                           	opt stack 0
  3359                           pclatu	equ	0xFFB
  3360                           pclath	equ	0xFFA
  3361                           tblptru	equ	0xFF8
  3362                           tblptrh	equ	0xFF7
  3363                           tblptrl	equ	0xFF6
  3364                           tablat	equ	0xFF5
  3365                           prodh	equ	0xFF4
  3366                           prodl	equ	0xFF3
  3367                           intcon	equ	0xFF2
  3368                           intcon2	equ	0xFF1
  3369                           postinc0	equ	0xFEE
  3370                           fsr0h	equ	0xFEA
  3371                           fsr0l	equ	0xFE9
  3372                           wreg	equ	0xFE8
  3373                           fsr1h	equ	0xFE2
  3374                           fsr1l	equ	0xFE1
  3375                           bsr	equ	0xFE0
  3376                           indf2	equ	0xFDF
  3377                           postinc2	equ	0xFDE
  3378                           postdec2	equ	0xFDD
  3379                           fsr2h	equ	0xFDA
  3380                           fsr2l	equ	0xFD9
  3381                           status	equ	0xFD8
  3382                           
  3383 ;; *************** function _getkey *****************
  3384 ;; Defined at:
  3385 ;;		line 56 in file "Tn06YC2.c"
  3386 ;; Parameters:    Size  Location     Type
  3387 ;;		None
  3388 ;; Auto vars:     Size  Location     Type
  3389 ;;  col             1    0[COMRAM] unsigned char 
  3390 ;; Return value:  Size  Location     Type
  3391 ;;                  1    wreg      void 
  3392 ;; Registers used:
  3393 ;;		wreg, fsr2l, fsr2h, status,2, status,0, prodl, prodh
  3394 ;; Tracked objects:
  3395 ;;		On entry : 0/0
  3396 ;;		On exit  : 0/0
  3397 ;;		Unchanged: 0/0
  3398 ;; Data sizes:     COMRAM   BANK0   BANK1   BANK2   BANK3   BANK4   BANK5   BANK6   BANK7   BANK8   BANK9  BANK10  BANK1
      +1  BANK12  BANK13  BANK14  BANK15
  3399 ;;      Params:         0       0       0       0       0       0       0       0       0       0       0       0       
      +0       0       0       0       0
  3400 ;;      Locals:         1       0       0       0       0       0       0       0       0       0       0       0       
      +0       0       0       0       0
  3401 ;;      Temps:          0       0       0       0       0       0       0       0       0       0       0       0       
      +0       0       0       0       0
  3402 ;;      Totals:         1       0       0       0       0       0       0       0       0       0       0       0       
      +0       0       0       0       0
  3403 ;;Total ram usage:        1 bytes
  3404 ;; Hardware stack levels used:    1
  3405 ;; This function calls:
  3406 ;;		Nothing
  3407 ;; This function is called by:
  3408 ;;		_quetphim
  3409 ;; This function uses a non-reentrant model
  3410 ;;
  3411                           
  3412                           	psect	text31
  3413  0012FE                     __ptext31:
  3414                           	opt stack 0
  3415  0012FE                     _getkey:
  3416                           	opt stack 19
  3417                           
  3418                           ;Tn06YC2.c: 58: unsigned char col;
  3419                           ;Tn06YC2.c: 59: col=keyin&0x0F;
  3420                           
  3421                           ;incstack = 0
  3422  0012FE  5081               	movf	3969,w,c	;volatile
  3423  001300  0B0F               	andlw	15
  3424  001302  6E01               	movwf	getkey@col,c
  3425                           
  3426                           ;Tn06YC2.c: 60: switch (col)
  3427  001304  D00B               	goto	i1l77
  3428  001306  0E00               	movlw	0
  3429  001308  D005               	goto	L4
  3430  00130A  0E01               	movlw	1
  3431  00130C  D003               	goto	L4
  3432  00130E  0E02               	movlw	2
  3433  001310  D001               	goto	L4
  3434  001312  0E03               	movlw	3
  3435  001314                     L4:
  3436  001314  6E47               	movwf	_keyreg,c
  3437  001316  D010               	goto	i1l79
  3438  001318                     i1l83:
  3439  001318  6847               	setf	_keyreg,c
  3440                           
  3441                           ;Tn06YC2.c: 67: }
  3442  00131A  D00E               	goto	i1l79
  3443  00131C                     i1l77:
  3444  00131C  5001               	movf	getkey@col,w,c
  3445                           
  3446                           ; Switch size 1, requested type "space"
  3447                           ; Number of cases is 4, Range of values is 7 to 14
  3448                           ; switch strategies available:
  3449                           ; Name         Instructions Cycles
  3450                           ; simple_byte           13     7 (average)
  3451                           ;	Chosen strategy is simple_byte
  3452  00131E  0A07               	xorlw	7	; case 7
  3453  001320  B4D8               	btfsc	status,2,c
  3454  001322  D7F7               	goto	i1l82
  3455  001324  0A0C               	xorlw	12	; case 11
  3456  001326  B4D8               	btfsc	status,2,c
  3457  001328  D7F2               	goto	i1l81
  3458  00132A  0A06               	xorlw	6	; case 13
  3459  00132C  B4D8               	btfsc	status,2,c
  3460  00132E  D7ED               	goto	i1l80
  3461  001330  0A03               	xorlw	3	; case 14
  3462  001332  B4D8               	btfsc	status,2,c
  3463  001334  D7E8               	goto	i1l78
  3464  001336  D7F0               	goto	i1l83
  3465  001338                     i1l79:
  3466                           
  3467                           ;Tn06YC2.c: 68: if (keyreg!=0xFF) {keyreg+=(idx*4);
  3468  001338  2847               	incf	_keyreg,w,c
  3469  00133A  B4D8               	btfsc	status,2,c
  3470  00133C  0012               	return	
  3471  00133E  5048               	movf	_idx,w,c
  3472  001340  0D04               	mullw	4
  3473  001342  50F3               	movf	prodl,w,c
  3474  001344  2647               	addwf	_keyreg,f,c
  3475                           
  3476                           ;Tn06YC2.c: 69: buffer[keyreg] += 1;}
  3477  001346  5047               	movf	_keyreg,w,c
  3478  001348  0D01               	mullw	1
  3479  00134A  0E35               	movlw	low _buffer
  3480  00134C  24F3               	addwf	prodl,w,c
  3481  00134E  6ED9               	movwf	fsr2l,c
  3482  001350  0E00               	movlw	high _buffer
  3483  001352  20F4               	addwfc	prodh,w,c
  3484  001354  6EDA               	movwf	fsr2h,c
  3485  001356  2ADF               	incf	indf2,f,c
  3486  001358  0012               	return	
  3487  00135A                     __end_of_getkey:
  3488                           	opt stack 0
  3489                           pclatu	equ	0xFFB
  3490                           pclath	equ	0xFFA
  3491                           tblptru	equ	0xFF8
  3492                           tblptrh	equ	0xFF7
  3493                           tblptrl	equ	0xFF6
  3494                           tablat	equ	0xFF5
  3495                           prodh	equ	0xFF4
  3496                           prodl	equ	0xFF3
  3497                           intcon	equ	0xFF2
  3498                           intcon2	equ	0xFF1
  3499                           postinc0	equ	0xFEE
  3500                           fsr0h	equ	0xFEA
  3501                           fsr0l	equ	0xFE9
  3502                           wreg	equ	0xFE8
  3503                           fsr1h	equ	0xFE2
  3504                           fsr1l	equ	0xFE1
  3505                           bsr	equ	0xFE0
  3506                           indf2	equ	0xFDF
  3507                           postinc2	equ	0xFDE
  3508                           postdec2	equ	0xFDD
  3509                           fsr2h	equ	0xFDA
  3510                           fsr2l	equ	0xFD9
  3511                           status	equ	0xFD8
  3512                           pclatu	equ	0xFFB
  3513                           pclath	equ	0xFFA
  3514                           tblptru	equ	0xFF8
  3515                           tblptrh	equ	0xFF7
  3516                           tblptrl	equ	0xFF6
  3517                           tablat	equ	0xFF5
  3518                           prodh	equ	0xFF4
  3519                           prodl	equ	0xFF3
  3520                           intcon	equ	0xFF2
  3521                           intcon2	equ	0xFF1
  3522                           postinc0	equ	0xFEE
  3523                           fsr0h	equ	0xFEA
  3524                           fsr0l	equ	0xFE9
  3525                           wreg	equ	0xFE8
  3526                           fsr1h	equ	0xFE2
  3527                           fsr1l	equ	0xFE1
  3528                           bsr	equ	0xFE0
  3529                           indf2	equ	0xFDF
  3530                           postinc2	equ	0xFDE
  3531                           postdec2	equ	0xFDD
  3532                           fsr2h	equ	0xFDA
  3533                           fsr2l	equ	0xFD9
  3534                           status	equ	0xFD8
  3535                           
  3536                           	psect	rparam
  3537  0000                     pclatu	equ	0xFFB
  3538                           pclath	equ	0xFFA
  3539                           tblptru	equ	0xFF8
  3540                           tblptrh	equ	0xFF7
  3541                           tblptrl	equ	0xFF6
  3542                           tablat	equ	0xFF5
  3543                           prodh	equ	0xFF4
  3544                           prodl	equ	0xFF3
  3545                           intcon	equ	0xFF2
  3546                           intcon2	equ	0xFF1
  3547                           postinc0	equ	0xFEE
  3548                           fsr0h	equ	0xFEA
  3549                           fsr0l	equ	0xFE9
  3550                           wreg	equ	0xFE8
  3551                           fsr1h	equ	0xFE2
  3552                           fsr1l	equ	0xFE1
  3553                           bsr	equ	0xFE0
  3554                           indf2	equ	0xFDF
  3555                           postinc2	equ	0xFDE
  3556                           postdec2	equ	0xFDD
  3557                           fsr2h	equ	0xFDA
  3558                           fsr2l	equ	0xFD9
  3559                           status	equ	0xFD8
  3560                           
  3561                           	psect	temp
  3562  000049                     btemp:
  3563                           	opt stack 0
  3564  000049                     	ds	1
  3565  0000                     int$flags	set	btemp
  3566  0000                     wtemp6	set	btemp+1
  3567                           pclatu	equ	0xFFB
  3568                           pclath	equ	0xFFA
  3569                           tblptru	equ	0xFF8
  3570                           tblptrh	equ	0xFF7
  3571                           tblptrl	equ	0xFF6
  3572                           tablat	equ	0xFF5
  3573                           prodh	equ	0xFF4
  3574                           prodl	equ	0xFF3
  3575                           intcon	equ	0xFF2
  3576                           intcon2	equ	0xFF1
  3577                           postinc0	equ	0xFEE
  3578                           fsr0h	equ	0xFEA
  3579                           fsr0l	equ	0xFE9
  3580                           wreg	equ	0xFE8
  3581                           fsr1h	equ	0xFE2
  3582                           fsr1l	equ	0xFE1
  3583                           bsr	equ	0xFE0
  3584                           indf2	equ	0xFDF
  3585                           postinc2	equ	0xFDE
  3586                           postdec2	equ	0xFDD
  3587                           fsr2h	equ	0xFDA
  3588                           fsr2l	equ	0xFD9
  3589                           status	equ	0xFD8


Data Sizes:
    Strings     3
    Constant    74
    Data        0
    BSS         20
    Persistent  0
    Stack       0

Auto Spaces:
    Space          Size  Autos    Used
    COMRAM           94     52      72
    BANK0           160      7       7
    BANK1           256      0       0
    BANK2           256      0       0
    BANK3           256      0       0
    BANK4           256      0       0
    BANK5           256      0       0
    BANK6           256      0       0
    BANK7           256      0       0
    BANK8           256      0       0
    BANK9           256      0       0
    BANK10          256      0       0
    BANK11          256      0       0
    BANK12          256      0       0
    BANK13          256      0       0
    BANK14          256      0       0
    BANK15           96      0       0

Pointer List with Targets:

    printf@f	PTR const unsigned char  size(2) Largest target is 3
		 -> STR_1(CODE[3]), 

    printf@ap	PTR void [1] size(2) Largest target is 2
		 -> ?_printf(COMRAM[2]), 

    lcd_download@data	PTR const unsigned char  size(2) Largest target is 64
		 -> dhbkstr(CODE[64]), 


Critical Paths under _main in COMRAM

    None.

Critical Paths under _timer0_isr in COMRAM

    _timer_process->_quetphim
    _quetphim->_xyliphim
    _xyliphim->_printf
    _printf->___lwmod
    ___lwmod->___lwdiv

Critical Paths under _main in BANK0

    _lcd_init->_lcd_DHBK
    _lcd_DHBK->_lcd_download

Critical Paths under _timer0_isr in BANK0

    None.

Critical Paths under _main in BANK1

    None.

Critical Paths under _timer0_isr in BANK1

    None.

Critical Paths under _main in BANK2

    None.

Critical Paths under _timer0_isr in BANK2

    None.

Critical Paths under _main in BANK3

    None.

Critical Paths under _timer0_isr in BANK3

    None.

Critical Paths under _main in BANK4

    None.

Critical Paths under _timer0_isr in BANK4

    None.

Critical Paths under _main in BANK5

    None.

Critical Paths under _timer0_isr in BANK5

    None.

Critical Paths under _main in BANK6

    None.

Critical Paths under _timer0_isr in BANK6

    None.

Critical Paths under _main in BANK7

    None.

Critical Paths under _timer0_isr in BANK7

    None.

Critical Paths under _main in BANK8

    None.

Critical Paths under _timer0_isr in BANK8

    None.

Critical Paths under _main in BANK9

    None.

Critical Paths under _timer0_isr in BANK9

    None.

Critical Paths under _main in BANK10

    None.

Critical Paths under _timer0_isr in BANK10

    None.

Critical Paths under _main in BANK11

    None.

Critical Paths under _timer0_isr in BANK11

    None.

Critical Paths under _main in BANK12

    None.

Critical Paths under _timer0_isr in BANK12

    None.

Critical Paths under _main in BANK13

    None.

Critical Paths under _timer0_isr in BANK13

    None.

Critical Paths under _main in BANK14

    None.

Critical Paths under _timer0_isr in BANK14

    None.

Critical Paths under _main in BANK15

    None.

Critical Paths under _timer0_isr in BANK15

    None.

Call Graph Tables:

 ---------------------------------------------------------------------------------
 (Depth) Function   	        Calls       Base Space   Used Autos Params    Refs
 ---------------------------------------------------------------------------------
 (0) _main                                                 0     0      0    2249
                               _init
                           _lcd_init
                        _timer0_init
 ---------------------------------------------------------------------------------
 (1) _timer0_init                                          0     0      0       0
                       _timer0_reset
 ---------------------------------------------------------------------------------
 (2) _timer0_reset                                         0     0      0       0
 ---------------------------------------------------------------------------------
 (1) _lcd_init                                             0     0      0    2249
                           _SPI_init
                      _SPIportA_init
                      _SPIportB_init
                            _i_write
                           _lcd_DHBK
                            _lcd_cls
                             _tre_ms
 ---------------------------------------------------------------------------------
 (2) _tre_ms                                               2     0      2     197
                                              0 BANK0      2     0      2
 ---------------------------------------------------------------------------------
 (2) _lcd_DHBK                                             1     1      0    1782
                                              6 BANK0      1     1      0
                       _lcd_download
                         _lcd_gotoxy
                              _putch
 ---------------------------------------------------------------------------------
 (14) _putch                                               1     1      0     751
                           _lcd_putc
 ---------------------------------------------------------------------------------
 (15) _lcd_putc                                            1     1      0     729
                            _d_write
                            _lcd_cls
                         _lcd_gotoxy
 ---------------------------------------------------------------------------------
 (16) _lcd_gotoxy                                          2     1      1     461
                            _i_write
 ---------------------------------------------------------------------------------
 (16) _lcd_cls                                             1     1      0     112
                            _i_write
 ---------------------------------------------------------------------------------
 (3) _lcd_download                                         6     4      2     412
                                              0 BANK0      6     4      2
                            _d_write
                            _i_write
 ---------------------------------------------------------------------------------
 (17) _i_write                                             1     1      0     112
                            _LCDBusy
                        _Write_PortA
                        _Write_PortB
 ---------------------------------------------------------------------------------
 (16) _d_write                                             1     1      0     112
                            _LCDBusy
                        _Write_PortA
                        _Write_PortB
 ---------------------------------------------------------------------------------
 (18) _Write_PortB                                         1     1      0      45
                           _SPI_send
 ---------------------------------------------------------------------------------
 (18) _Write_PortA                                         1     1      0      45
                           _SPI_send
 ---------------------------------------------------------------------------------
 (18) _LCDBusy                                             0     0      0       0
 ---------------------------------------------------------------------------------
 (2) _SPIportB_init                                        0     0      0      23
                           _SPI_send
 ---------------------------------------------------------------------------------
 (2) _SPIportA_init                                        0     0      0      23
                           _SPI_send
 ---------------------------------------------------------------------------------
 (19) _SPI_send                                            1     1      0      23
 ---------------------------------------------------------------------------------
 (2) _SPI_init                                             0     0      0       0
 ---------------------------------------------------------------------------------
 (1) _init                                                 0     0      0       0
 ---------------------------------------------------------------------------------
 Estimated maximum stack depth 19
 ---------------------------------------------------------------------------------
 (Depth) Function   	        Calls       Base Space   Used Autos Params    Refs
 ---------------------------------------------------------------------------------
 (9) _timer0_isr                                          21    21      0    2901
                                             31 COMRAM    21    21      0
                      _timer_process
                     i1_timer0_reset
 ---------------------------------------------------------------------------------
 (10) i1_timer0_reset                                      0     0      0       0
 ---------------------------------------------------------------------------------
