

Microchip Technology PIC18 LITE Macro Assembler V1.45 build -152302408 
                                                                                               Mon Oct 21 09:54:02 2019

Microchip Technology Omniscient Code Generator v1.45 (Free mode) build 201711160504
     1                           	processor	18F8722
     2                           	fnconf	rparam,??,?,0
     3                           	opt	pw 120
     4                           	opt	lm
     5                           	psect	smallconst,global,reloc=2,class=SMALLCONST,delta=1,noexec
     6                           	psect	nvCOMRAM,global,class=COMRAM,space=1,delta=1,noexec
     7                           	psect	cinit,global,reloc=2,class=CODE,delta=1
     8                           	psect	bssCOMRAM,global,class=COMRAM,space=1,delta=1,noexec
     9                           	psect	cstackCOMRAM,global,class=COMRAM,space=1,delta=1,noexec
    10                           	psect	text0,global,reloc=2,class=CODE,delta=1
    11                           	psect	text1,global,reloc=2,class=CODE,delta=1
    12                           	psect	text2,global,reloc=2,class=CODE,delta=1
    13                           	psect	text3,global,reloc=2,class=CODE,delta=1
    14                           	psect	text4,global,reloc=2,class=CODE,delta=1
    15                           	psect	text5,global,reloc=2,class=CODE,delta=1
    16                           	psect	intcodelo,global,reloc=2,class=CODE,delta=1
    17                           	psect	text7,global,reloc=2,class=CODE,delta=1
    18                           	psect	text8,global,reloc=2,class=CODE,delta=1
    19                           	psect	text9,global,reloc=2,class=CODE,delta=1
    20                           	psect	intcode,global,reloc=2,class=CODE,delta=1
    21                           	psect	intcode_body,global,reloc=2,class=CODE,delta=1
    22                           	psect	text11,global,reloc=2,class=CODE,delta=1
    23                           	psect	intsave_regs,global,class=BIGRAM,space=1,delta=1,noexec
    24                           	psect	rparam,global,class=COMRAM,space=1,delta=1,noexec
    25                           	psect	temp,global,ovrld,common,class=COMRAM,space=1,delta=1
    26  0000                     
    27                           ; Version 1.45
    28                           ; Generated 16/11/2017 GMT
    29                           ; 
    30                           ; Copyright © 2017, Microchip Technology Inc. and its subsidiaries ("Microchip")
    31                           ; All rights reserved.
    32                           ; 
    33                           ; This software is developed by Microchip Technology Inc. and its subsidiaries ("Microch
      +                          ip").
    34                           ; 
    35                           ; Redistribution and use in source and binary forms, with or without modification, are
    36                           ; permitted provided that the following conditions are met:
    37                           ; 
    38                           ;     1. Redistributions of source code must retain the above copyright notice, this lis
      +                          t of
    39                           ;        conditions and the following disclaimer.
    40                           ; 
    41                           ;     2. Redistributions in binary form must reproduce the above copyright notice, this 
      +                          list
    42                           ;        of conditions and the following disclaimer in the documentation and/or other
    43                           ;        materials provided with the distribution.
    44                           ; 
    45                           ;     3. Microchip's name may not be used to endorse or promote products derived from th
      +                          is
    46                           ;        software without specific prior written permission.
    47                           ; 
    48                           ; THIS SOFTWARE IS PROVIDED BY MICROCHIP "AS IS" AND ANY EXPRESS OR IMPLIED WARRANTIES,
    49                           ; INCLUDING, BUT NOT LIMITED TO, THE IMPLIED WARRANTIES OF MERCHANTABILITY AND FITNESS F
      +                          OR
    50                           ; PURPOSE ARE DISCLAIMED.  IN NO EVENT SHALL MICROCHIP BE LIABLE FOR ANY DIRECT, INDIREC
      +                          T,
    51                           ; INCIDENTAL, SPECIAL, EXEMPLARY, OR CONSEQUENTIAL DAMAGES (INCLUDING BUT NOT LIMITED TO
    52                           ; PROCUREMENT OF SUBSTITUTE GOODS OR SERVICES; LOSS OF USE, DATA OR PROFITS; OR BUSINESS
    53                           ; INTERRUPTION) HOWSOEVER CAUSED AND ON ANY THEORY OF LIABILITY, WHETHER IN CONTRACT, ST
      +                          RICT
    54                           ; LIABILITY, OR TORT (INCLUDING NEGLIGENCE OR OTHERWISE) ARISING IN ANY WAY OUT OF THE U
      +                          SE OF
    55                           ; THIS SOFTWARE, EVEN IF ADVISED OF THE POSSIBILITY OF SUCH DAMAGE.
    56                           ; 
    57                           ; 
    58                           ; Code-generator required, PIC18F8722 Definitions
    59                           ; 
    60                           ; SFR Addresses
    61  0000                     
    62                           	psect	smallconst
    63  001000                     __psmallconst:
    64                           	opt stack 0
    65  001000  00                 	db	0
    66  001001                     _dl_rom:
    67                           	opt stack 0
    68  001001  FF                 	db	255
    69  001002  7E                 	db	126
    70  001003  3C                 	db	60
    71  001004  18                 	db	24
    72  001005  00                 	db	0
    73  001006  18                 	db	24
    74  001007  3C                 	db	60
    75  001008  7E                 	db	126
    76  001009  01                 	db	1
    77  00100A  03                 	db	3
    78  00100B  07                 	db	7
    79  00100C  0F                 	db	15
    80  00100D  1F                 	db	31
    81  00100E  3F                 	db	63
    82  00100F  7F                 	db	127
    83  001010  FF                 	db	255
    84  001011  01                 	db	1
    85  001012  02                 	db	2
    86  001013  04                 	db	4
    87  001014  08                 	db	8
    88  001015  10                 	db	16
    89  001016  20                 	db	32
    90  001017  40                 	db	64
    91  001018  80                 	db	128
    92  001019  00                 	db	0
    93  00101A  81                 	db	129
    94  00101B  C3                 	db	195
    95  00101C  E7                 	db	231
    96  00101D  FF                 	db	255
    97  00101E  E7                 	db	231
    98  00101F  C3                 	db	195
    99  001020  81                 	db	129
   100  001021                     __end_of_dl_rom:
   101                           	opt stack 0
   102  001021  00                 	db	0	; dummy byte at the end
   103  0000                     
   104                           	psect	nvCOMRAM
   105  000038                     __pnvCOMRAM:
   106                           	opt stack 0
   107  000038                     _dem500ms:
   108                           	opt stack 0
   109  000038                     	ds	1
   110  0000                     _TMR0	set	4054
   111  0000                     _TRISBbits	set	3987
   112  0000                     _ADCON1	set	4033
   113  0000                     _T0CON	set	4053
   114  0000                     _INTCONbits	set	4082
   115  0000                     _INTCON2bits	set	4081
   116  0000                     _RCONbits	set	4048
   117  0000                     _INT0IE	set	32660
   118  0000                     _INT0IF	set	32657
   119  0000                     _TMR0IE	set	32661
   120  0000                     _TMR0ON	set	32431
   121  0000                     _TMR0IF	set	32658
   122                           
   123                           ; #config settings
   124  0000                     
   125                           	psect	cinit
   126  001172                     __pcinit:
   127                           	opt stack 0
   128  001172                     start_initialization:
   129                           	opt stack 0
   130  001172                     __initialization:
   131                           	opt stack 0
   132                           
   133                           ; Clear objects allocated to COMRAM (10 bytes)
   134  001172  EE00  F02E         	lfsr	0,__pbssCOMRAM
   135  001176  0E0A               	movlw	10
   136  001178                     clear_0:
   137  001178  6AEE               	clrf	postinc0,c
   138  00117A  06E8               	decf	wreg,f,c
   139  00117C  E1FD               	bnz	clear_0
   140  00117E                     end_of_initialization:
   141                           	opt stack 0
   142  00117E                     __end_of__initialization:
   143                           	opt stack 0
   144  00117E  9039               	bcf	int$flags,0,c	;clear compiler interrupt flag (level 1)
   145  001180  9239               	bcf	int$flags,1,c	;clear compiler interrupt flag (level 2)
   146  001182  0E00               	movlw	low (__Lsmallconst shr (0+16))
   147  001184  6EF8               	movwf	tblptru,c
   148  001186  0E10               	movlw	high __Lsmallconst
   149  001188  6EF7               	movwf	tblptrh,c
   150  00118A  0100               	movlb	0
   151  00118C  EFFC  F008         	goto	_main	;jump to C main() function
   152                           tblptru	equ	0xFF8
   153                           tblptrh	equ	0xFF7
   154                           postinc0	equ	0xFEE
   155                           wreg	equ	0xFE8
   156                           
   157                           	psect	bssCOMRAM
   158  00002E                     __pbssCOMRAM:
   159                           	opt stack 0
   160  00002E                     _dl_ram:
   161                           	opt stack 0
   162  00002E                     	ds	8
   163  000036                     _romidx:
   164                           	opt stack 0
   165  000036                     	ds	1
   166  000037                     _ramidx:
   167                           	opt stack 0
   168  000037                     	ds	1
   169                           tblptru	equ	0xFF8
   170                           tblptrh	equ	0xFF7
   171                           postinc0	equ	0xFEE
   172                           wreg	equ	0xFE8
   173                           
   174                           	psect	cstackCOMRAM
   175  000001                     __pcstackCOMRAM:
   176                           	opt stack 0
   177  000001                     ??i2_doi_ql:
   178                           
   179                           ; 1 bytes @ 0x0
   180  000001                     	ds	2
   181  000003                     i2doi_ql@i:
   182                           	opt stack 0
   183                           
   184                           ; 1 bytes @ 0x2
   185  000003                     	ds	1
   186  000004                     ??_init0_isr:
   187                           
   188                           ; 1 bytes @ 0x3
   189  000004                     	ds	18
   190  000016                     ??_timer0_isr:
   191  000016                     
   192                           ; 1 bytes @ 0x15
   193  000016                     	ds	21
   194  00002B                     ??_doi_ql:
   195  00002B                     
   196                           ; 1 bytes @ 0x2A
   197  00002B                     	ds	2
   198  00002D                     doi_ql@i:
   199                           	opt stack 0
   200                           
   201                           ; 1 bytes @ 0x2C
   202  00002D                     	ds	1
   203  00002E                     tblptru	equ	0xFF8
   204                           tblptrh	equ	0xFF7
   205                           postinc0	equ	0xFEE
   206                           wreg	equ	0xFE8
   207                           
   208                           ; 1 bytes @ 0x2D
   209 ;;
   210 ;;Main: autosize = 0, tempsize = 0, incstack = 0, save=0
   211 ;;
   212 ;; *************** function _main *****************
   213 ;; Defined at:
   214 ;;		line 140 in file "Tn04_Timer.c"
   215 ;; Parameters:    Size  Location     Type
   216 ;;		None
   217 ;; Auto vars:     Size  Location     Type
   218 ;;		None
   219 ;; Return value:  Size  Location     Type
   220 ;;                  1    wreg      void 
   221 ;; Registers used:
   222 ;;		wreg, fsr2l, fsr2h, status,2, status,0, tblptrl, tblptrh, tblptru, prodl, prodh, cstack
   223 ;; Tracked objects:
   224 ;;		On entry : 0/0
   225 ;;		On exit  : 0/0
   226 ;;		Unchanged: 0/0
   227 ;; Data sizes:     COMRAM   BANK0   BANK1   BANK2   BANK3   BANK4   BANK5   BANK6   BANK7   BANK8   BANK9  BANK10  BANK1
      +1  BANK12  BANK13  BANK14  BANK15
   228 ;;      Params:         0       0       0       0       0       0       0       0       0       0       0       0       
      +0       0       0       0       0
   229 ;;      Locals:         0       0       0       0       0       0       0       0       0       0       0       0       
      +0       0       0       0       0
   230 ;;      Temps:          0       0       0       0       0       0       0       0       0       0       0       0       
      +0       0       0       0       0
   231 ;;      Totals:         0       0       0       0       0       0       0       0       0       0       0       0       
      +0       0       0       0       0
   232 ;;Total ram usage:        0 bytes
   233 ;; Hardware stack levels required when called:    7
   234 ;; This function calls:
   235 ;;		_init
   236 ;;		_int0_init
   237 ;;		_timer0_init
   238 ;; This function is called by:
   239 ;;		Startup code after reset
   240 ;; This function uses a non-reentrant model
   241 ;;
   242                           
   243                           	psect	text0
   244  0011F8                     __ptext0:
   245                           	opt stack 0
   246  0011F8                     _main:
   247                           	opt stack 24
   248                           
   249                           ;Tn04_Timer.c: 142: init();
   250                           
   251                           ;incstack = 0
   252  0011F8  ECD6  F008         	call	_init	;wreg free
   253                           
   254                           ;Tn04_Timer.c: 143: timer0_init();
   255  0011FC  ECE2  F008         	call	_timer0_init	;wreg free
   256                           
   257                           ;Tn04_Timer.c: 144: int0_init();
   258  001200  EC0A  F009         	call	_int0_init	;wreg free
   259  001204                     l84:
   260  001204  D7FF               	goto	l84
   261  001206                     __end_of_main:
   262                           	opt stack 0
   263                           tblptru	equ	0xFF8
   264                           tblptrh	equ	0xFF7
   265                           postinc0	equ	0xFEE
   266                           wreg	equ	0xFE8
   267                           
   268 ;; *************** function _timer0_init *****************
   269 ;; Defined at:
   270 ;;		line 5 in file "Timer.c"
   271 ;; Parameters:    Size  Location     Type
   272 ;;		None
   273 ;; Auto vars:     Size  Location     Type
   274 ;;		None
   275 ;; Return value:  Size  Location     Type
   276 ;;                  1    wreg      void 
   277 ;; Registers used:
   278 ;;		wreg, status,2, cstack
   279 ;; Tracked objects:
   280 ;;		On entry : 0/0
   281 ;;		On exit  : 0/0
   282 ;;		Unchanged: 0/0
   283 ;; Data sizes:     COMRAM   BANK0   BANK1   BANK2   BANK3   BANK4   BANK5   BANK6   BANK7   BANK8   BANK9  BANK10  BANK1
      +1  BANK12  BANK13  BANK14  BANK15
   284 ;;      Params:         0       0       0       0       0       0       0       0       0       0       0       0       
      +0       0       0       0       0
   285 ;;      Locals:         0       0       0       0       0       0       0       0       0       0       0       0       
      +0       0       0       0       0
   286 ;;      Temps:          0       0       0       0       0       0       0       0       0       0       0       0       
      +0       0       0       0       0
   287 ;;      Totals:         0       0       0       0       0       0       0       0       0       0       0       0       
      +0       0       0       0       0
   288 ;;Total ram usage:        0 bytes
   289 ;; Hardware stack levels used:    1
   290 ;; Hardware stack levels required when called:    6
   291 ;; This function calls:
   292 ;;		_timer0_reset
   293 ;; This function is called by:
   294 ;;		_main
   295 ;; This function uses a non-reentrant model
   296 ;;
   297                           
   298                           	psect	text1
   299  0011C4                     __ptext1:
   300                           	opt stack 0
   301  0011C4                     _timer0_init:
   302                           	opt stack 24
   303                           
   304                           ;Timer.c: 7: RCONbits.IPEN = 1;
   305                           
   306                           ;incstack = 0
   307  0011C4  8ED0               	bsf	4048,7,c	;volatile
   308                           
   309                           ;Timer.c: 8: INTCON2bits.TMR0IP = 0;
   310  0011C6  94F1               	bcf	intcon2,2,c	;volatile
   311                           
   312                           ;Timer.c: 9: INTCONbits.TMR0IE = 1;
   313  0011C8  8AF2               	bsf	intcon,5,c	;volatile
   314                           
   315                           ;Timer.c: 10: INTCONbits.GIEH = 1;
   316  0011CA  8EF2               	bsf	intcon,7,c	;volatile
   317                           
   318                           ;Timer.c: 11: INTCONbits.GIEL = 1;
   319  0011CC  8CF2               	bsf	intcon,6,c	;volatile
   320                           
   321                           ;Timer.c: 12: T0CON = 0;
   322  0011CE  0E00               	movlw	0
   323  0011D0  6ED5               	movwf	4053,c	;volatile
   324                           
   325                           ;Timer.c: 13: timer0_reset();
   326  0011D2  ECEC  F008         	call	_timer0_reset	;wreg free
   327  0011D6  0012               	return		;funcret
   328  0011D8                     __end_of_timer0_init:
   329                           	opt stack 0
   330                           tblptru	equ	0xFF8
   331                           tblptrh	equ	0xFF7
   332                           intcon	equ	0xFF2
   333                           intcon2	equ	0xFF1
   334                           postinc0	equ	0xFEE
   335                           wreg	equ	0xFE8
   336                           
   337 ;; *************** function _timer0_reset *****************
   338 ;; Defined at:
   339 ;;		line 16 in file "Timer.c"
   340 ;; Parameters:    Size  Location     Type
   341 ;;		None
   342 ;; Auto vars:     Size  Location     Type
   343 ;;		None
   344 ;; Return value:  Size  Location     Type
   345 ;;                  1    wreg      void 
   346 ;; Registers used:
   347 ;;		wreg, status,2
   348 ;; Tracked objects:
   349 ;;		On entry : 0/0
   350 ;;		On exit  : 0/0
   351 ;;		Unchanged: 0/0
   352 ;; Data sizes:     COMRAM   BANK0   BANK1   BANK2   BANK3   BANK4   BANK5   BANK6   BANK7   BANK8   BANK9  BANK10  BANK1
      +1  BANK12  BANK13  BANK14  BANK15
   353 ;;      Params:         0       0       0       0       0       0       0       0       0       0       0       0       
      +0       0       0       0       0
   354 ;;      Locals:         0       0       0       0       0       0       0       0       0       0       0       0       
      +0       0       0       0       0
   355 ;;      Temps:          0       0       0       0       0       0       0       0       0       0       0       0       
      +0       0       0       0       0
   356 ;;      Totals:         0       0       0       0       0       0       0       0       0       0       0       0       
      +0       0       0       0       0
   357 ;;Total ram usage:        0 bytes
   358 ;; Hardware stack levels used:    1
   359 ;; Hardware stack levels required when called:    5
   360 ;; This function calls:
   361 ;;		Nothing
   362 ;; This function is called by:
   363 ;;		_timer0_init
   364 ;; This function uses a non-reentrant model
   365 ;;
   366                           
   367                           	psect	text2
   368  0011D8                     __ptext2:
   369                           	opt stack 0
   370  0011D8                     _timer0_reset:
   371                           	opt stack 24
   372                           
   373                           ;Timer.c: 18: TMR0IF = 0;
   374                           
   375                           ;incstack = 0
   376  0011D8  94F2               	bcf	intcon,2,c	;volatile
   377                           
   378                           ;Timer.c: 19: TMR0ON = 0;
   379  0011DA  9ED5               	bcf	4053,7,c	;volatile
   380                           
   381                           ;Timer.c: 20: TMR0 = -12500;
   382  0011DC  0ECF               	movlw	207
   383  0011DE  6ED7               	movwf	4055,c	;volatile
   384  0011E0  0E2C               	movlw	44
   385  0011E2  6ED6               	movwf	4054,c	;volatile
   386                           
   387                           ;Timer.c: 21: TMR0ON = 1;
   388  0011E4  8ED5               	bsf	4053,7,c	;volatile
   389  0011E6  0012               	return		;funcret
   390  0011E8                     __end_of_timer0_reset:
   391                           	opt stack 0
   392                           tblptru	equ	0xFF8
   393                           tblptrh	equ	0xFF7
   394                           intcon	equ	0xFF2
   395                           intcon2	equ	0xFF1
   396                           postinc0	equ	0xFEE
   397                           wreg	equ	0xFE8
   398                           
   399 ;; *************** function _int0_init *****************
   400 ;; Defined at:
   401 ;;		line 117 in file "Tn04_Timer.c"
   402 ;; Parameters:    Size  Location     Type
   403 ;;		None
   404 ;; Auto vars:     Size  Location     Type
   405 ;;		None
   406 ;; Return value:  Size  Location     Type
   407 ;;                  1    wreg      void 
   408 ;; Registers used:
   409 ;;		None
   410 ;; Tracked objects:
   411 ;;		On entry : 0/0
   412 ;;		On exit  : 0/0
   413 ;;		Unchanged: 0/0
   414 ;; Data sizes:     COMRAM   BANK0   BANK1   BANK2   BANK3   BANK4   BANK5   BANK6   BANK7   BANK8   BANK9  BANK10  BANK1
      +1  BANK12  BANK13  BANK14  BANK15
   415 ;;      Params:         0       0       0       0       0       0       0       0       0       0       0       0       
      +0       0       0       0       0
   416 ;;      Locals:         0       0       0       0       0       0       0       0       0       0       0       0       
      +0       0       0       0       0
   417 ;;      Temps:          0       0       0       0       0       0       0       0       0       0       0       0       
      +0       0       0       0       0
   418 ;;      Totals:         0       0       0       0       0       0       0       0       0       0       0       0       
      +0       0       0       0       0
   419 ;;Total ram usage:        0 bytes
   420 ;; Hardware stack levels used:    1
   421 ;; Hardware stack levels required when called:    5
   422 ;; This function calls:
   423 ;;		Nothing
   424 ;; This function is called by:
   425 ;;		_main
   426 ;; This function uses a non-reentrant model
   427 ;;
   428                           
   429                           	psect	text3
   430  001214                     __ptext3:
   431                           	opt stack 0
   432  001214                     _int0_init:
   433                           	opt stack 25
   434                           
   435                           ;Tn04_Timer.c: 119: INT0IF = 0;
   436                           
   437                           ;incstack = 0
   438  001214  92F2               	bcf	intcon,1,c	;volatile
   439                           
   440                           ;Tn04_Timer.c: 120: INT0IE = 1;
   441  001216  88F2               	bsf	intcon,4,c	;volatile
   442  001218  0012               	return		;funcret
   443  00121A                     __end_of_int0_init:
   444                           	opt stack 0
   445                           tblptru	equ	0xFF8
   446                           tblptrh	equ	0xFF7
   447                           intcon	equ	0xFF2
   448                           intcon2	equ	0xFF1
   449                           postinc0	equ	0xFEE
   450                           wreg	equ	0xFE8
   451                           
   452 ;; *************** function _init *****************
   453 ;; Defined at:
   454 ;;		line 130 in file "Tn04_Timer.c"
   455 ;; Parameters:    Size  Location     Type
   456 ;;		None
   457 ;; Auto vars:     Size  Location     Type
   458 ;;		None
   459 ;; Return value:  Size  Location     Type
   460 ;;                  1    wreg      void 
   461 ;; Registers used:
   462 ;;		wreg, fsr2l, fsr2h, status,2, status,0, tblptrl, tblptrh, tblptru, prodl, prodh, cstack
   463 ;; Tracked objects:
   464 ;;		On entry : 0/0
   465 ;;		On exit  : 0/0
   466 ;;		Unchanged: 0/0
   467 ;; Data sizes:     COMRAM   BANK0   BANK1   BANK2   BANK3   BANK4   BANK5   BANK6   BANK7   BANK8   BANK9  BANK10  BANK1
      +1  BANK12  BANK13  BANK14  BANK15
   468 ;;      Params:         0       0       0       0       0       0       0       0       0       0       0       0       
      +0       0       0       0       0
   469 ;;      Locals:         0       0       0       0       0       0       0       0       0       0       0       0       
      +0       0       0       0       0
   470 ;;      Temps:          0       0       0       0       0       0       0       0       0       0       0       0       
      +0       0       0       0       0
   471 ;;      Totals:         0       0       0       0       0       0       0       0       0       0       0       0       
      +0       0       0       0       0
   472 ;;Total ram usage:        0 bytes
   473 ;; Hardware stack levels used:    1
   474 ;; Hardware stack levels required when called:    6
   475 ;; This function calls:
   476 ;;		_doi_ql
   477 ;; This function is called by:
   478 ;;		_main
   479 ;; This function uses a non-reentrant model
   480 ;;
   481                           
   482                           	psect	text4
   483  0011AC                     __ptext4:
   484                           	opt stack 0
   485  0011AC                     _init:
   486                           	opt stack 24
   487                           
   488                           ;Tn04_Timer.c: 132: ADCON1=0x0F;
   489                           
   490                           ;incstack = 0
   491  0011AC  0E0F               	movlw	15
   492  0011AE  6EC1               	movwf	4033,c	;volatile
   493                           
   494                           ;Tn04_Timer.c: 133: led_io=0;
   495  0011B0  0E00               	movlw	0
   496  0011B2  6E95               	movwf	3989,c	;volatile
   497                           
   498                           ;Tn04_Timer.c: 134: led=0x00;
   499  0011B4  0E00               	movlw	0
   500  0011B6  6E8C               	movwf	3980,c	;volatile
   501                           
   502                           ;Tn04_Timer.c: 135: TRISBbits.RB0 = 0;
   503  0011B8  9093               	bcf	3987,0,c	;volatile
   504                           
   505                           ;Tn04_Timer.c: 136: dem500ms=10;
   506  0011BA  0E0A               	movlw	10
   507  0011BC  6E38               	movwf	_dem500ms,c
   508                           
   509                           ;Tn04_Timer.c: 137: doi_ql();
   510  0011BE  EC5F  F008         	call	_doi_ql	;wreg free
   511  0011C2  0012               	return		;funcret
   512  0011C4                     __end_of_init:
   513                           	opt stack 0
   514                           tblptru	equ	0xFF8
   515                           tblptrh	equ	0xFF7
   516                           intcon	equ	0xFF2
   517                           intcon2	equ	0xFF1
   518                           postinc0	equ	0xFEE
   519                           wreg	equ	0xFE8
   520                           
   521 ;; *************** function _doi_ql *****************
   522 ;; Defined at:
   523 ;;		line 108 in file "Tn04_Timer.c"
   524 ;; Parameters:    Size  Location     Type
   525 ;;		None
   526 ;; Auto vars:     Size  Location     Type
   527 ;;  i               1   44[COMRAM] unsigned char 
   528 ;; Return value:  Size  Location     Type
   529 ;;                  1    wreg      void 
   530 ;; Registers used:
   531 ;;		wreg, fsr2l, fsr2h, status,2, status,0, tblptrl, tblptrh, tblptru, prodl, prodh
   532 ;; Tracked objects:
   533 ;;		On entry : 0/0
   534 ;;		On exit  : 0/0
   535 ;;		Unchanged: 0/0
   536 ;; Data sizes:     COMRAM   BANK0   BANK1   BANK2   BANK3   BANK4   BANK5   BANK6   BANK7   BANK8   BANK9  BANK10  BANK1
      +1  BANK12  BANK13  BANK14  BANK15
   537 ;;      Params:         0       0       0       0       0       0       0       0       0       0       0       0       
      +0       0       0       0       0
   538 ;;      Locals:         1       0       0       0       0       0       0       0       0       0       0       0       
      +0       0       0       0       0
   539 ;;      Temps:          2       0       0       0       0       0       0       0       0       0       0       0       
      +0       0       0       0       0
   540 ;;      Totals:         3       0       0       0       0       0       0       0       0       0       0       0       
      +0       0       0       0       0
   541 ;;Total ram usage:        3 bytes
   542 ;; Hardware stack levels used:    1
   543 ;; Hardware stack levels required when called:    5
   544 ;; This function calls:
   545 ;;		Nothing
   546 ;; This function is called by:
   547 ;;		_init
   548 ;; This function uses a non-reentrant model
   549 ;;
   550                           
   551                           	psect	text5
   552  0010BE                     __ptext5:
   553                           	opt stack 0
   554  0010BE                     _doi_ql:
   555                           	opt stack 24
   556                           
   557                           ;Tn04_Timer.c: 110: unsigned char i;
   558                           ;Tn04_Timer.c: 111: for(i=0; i<8; i++) dl_ram[i]=dl_rom[romidx][i];
   559                           
   560                           ;incstack = 0
   561  0010BE  0E00               	movlw	0
   562  0010C0  6E2D               	movwf	doi_ql@i,c
   563  0010C2                     l723:
   564  0010C2  0E07               	movlw	7
   565  0010C4  642D               	cpfsgt	doi_ql@i,c
   566  0010C6  D001               	goto	l66
   567  0010C8  D021               	goto	u20
   568  0010CA                     l66:
   569  0010CA  5036               	movf	_romidx,w,c
   570  0010CC  0D08               	mullw	8
   571  0010CE  0E01               	movlw	low _dl_rom
   572  0010D0  6E2B               	movwf	??_doi_ql& (0+255),c
   573  0010D2  0E10               	movlw	high _dl_rom
   574  0010D4  6E2C               	movwf	(??_doi_ql+1)& (0+255),c
   575  0010D6  50F3               	movf	prodl,w,c
   576  0010D8  262B               	addwf	??_doi_ql,f,c
   577  0010DA  50F4               	movf	prodh,w,c
   578  0010DC  222C               	addwfc	??_doi_ql+1,f,c
   579  0010DE  502D               	movf	doi_ql@i,w,c
   580  0010E0  0D01               	mullw	1
   581  0010E2  50F3               	movf	prodl,w,c
   582  0010E4  262B               	addwf	??_doi_ql,f,c
   583  0010E6  50F4               	movf	prodh,w,c
   584  0010E8  222C               	addwfc	??_doi_ql+1,f,c
   585  0010EA  C02B  FFF6         	movff	??_doi_ql,tblptrl
   586  0010EE  C02C  FFF7         	movff	??_doi_ql+1,tblptrh
   587  0010F2                     	if	0	;tblptru may be non-zero
   588  0010F2                     	endif
   589  0010F2                     	if	0	;tblptru may be non-zero
   590  0010F2                     	endif
   591  0010F2  502D               	movf	doi_ql@i,w,c
   592  0010F4  0D01               	mullw	1
   593  0010F6  0E2E               	movlw	low _dl_ram
   594  0010F8  24F3               	addwf	prodl,w,c
   595  0010FA  6ED9               	movwf	fsr2l,c
   596  0010FC  0E00               	movlw	high _dl_ram
   597  0010FE  20F4               	addwfc	prodh,w,c
   598  001100  6EDA               	movwf	fsr2h,c
   599  001102  0008               	tblrd		*
   600  001104  CFF5 FFDF          	movff	tablat,indf2
   601  001108  2A2D               	incf	doi_ql@i,f,c
   602  00110A  D7DB               	goto	l723
   603  00110C                     u20:
   604                           
   605                           ;Tn04_Timer.c: 112: romidx++;
   606  00110C  2A36               	incf	_romidx,f,c
   607                           
   608                           ;Tn04_Timer.c: 113: romidx%=4;
   609  00110E  0E03               	movlw	3
   610  001110  1636               	andwf	_romidx,f,c
   611                           
   612                           ;Tn04_Timer.c: 114: ramidx = 0;
   613  001112  0E00               	movlw	0
   614  001114  6E37               	movwf	_ramidx,c
   615  001116  0012               	return		;funcret
   616  001118                     __end_of_doi_ql:
   617                           	opt stack 0
   618                           tblptru	equ	0xFF8
   619                           tblptrh	equ	0xFF7
   620                           tblptrl	equ	0xFF6
   621                           tablat	equ	0xFF5
   622                           prodh	equ	0xFF4
   623                           prodl	equ	0xFF3
   624                           intcon	equ	0xFF2
   625                           intcon2	equ	0xFF1
   626                           postinc0	equ	0xFEE
   627                           wreg	equ	0xFE8
   628                           indf2	equ	0xFDF
   629                           fsr2h	equ	0xFDA
   630                           fsr2l	equ	0xFD9
   631                           
   632 ;; *************** function _timer0_isr *****************
   633 ;; Defined at:
   634 ;;		line 24 in file "Timer.c"
   635 ;; Parameters:    Size  Location     Type
   636 ;;		None
   637 ;; Auto vars:     Size  Location     Type
   638 ;;		None
   639 ;; Return value:  Size  Location     Type
   640 ;;                  1    wreg      void 
   641 ;; Registers used:
   642 ;;		wreg, fsr2l, fsr2h, status,2, status,0, prodl, prodh, cstack
   643 ;; Tracked objects:
   644 ;;		On entry : 0/0
   645 ;;		On exit  : 0/0
   646 ;;		Unchanged: 0/0
   647 ;; Data sizes:     COMRAM   BANK0   BANK1   BANK2   BANK3   BANK4   BANK5   BANK6   BANK7   BANK8   BANK9  BANK10  BANK1
      +1  BANK12  BANK13  BANK14  BANK15
   648 ;;      Params:         0       0       0       0       0       0       0       0       0       0       0       0       
      +0       0       0       0       0
   649 ;;      Locals:         0       0       0       0       0       0       0       0       0       0       0       0       
      +0       0       0       0       0
   650 ;;      Temps:         21       0       0       0       0       0       0       0       0       0       0       0       
      +0       0       0       0       0
   651 ;;      Totals:        21       0       0       0       0       0       0       0       0       0       0       0       
      +0       0       0       0       0
   652 ;;Total ram usage:       21 bytes
   653 ;; Hardware stack levels used:    1
   654 ;; Hardware stack levels required when called:    4
   655 ;; This function calls:
   656 ;;		_timer_process
   657 ;;		i1_timer0_reset
   658 ;; This function is called by:
   659 ;;		Interrupt level 1
   660 ;; This function uses a non-reentrant model
   661 ;;
   662                           
   663                           	psect	intcodelo
   664  000018                     __pintcodelo:
   665                           	opt stack 0
   666  000018                     _timer0_isr:
   667                           	opt stack 24
   668                           
   669                           ;incstack = 0
   670  000018  8039               	bsf	btemp,0,c	;set compiler interrupt flag (level 1)
   671  00001A  CFD8 F016          	movff	status,??_timer0_isr
   672  00001E  CFE8 F017          	movff	wreg,??_timer0_isr+1
   673  000022  CFE0 F018          	movff	bsr,??_timer0_isr+2
   674  000026  CFFA F019          	movff	pclath,??_timer0_isr+3
   675  00002A  CFFB F01A          	movff	pclatu,??_timer0_isr+4
   676  00002E  CFE9 F01B          	movff	fsr0l,??_timer0_isr+5
   677  000032  CFEA F01C          	movff	fsr0h,??_timer0_isr+6
   678  000036  CFE1 F01D          	movff	fsr1l,??_timer0_isr+7
   679  00003A  CFE2 F01E          	movff	fsr1h,??_timer0_isr+8
   680  00003E  CFD9 F01F          	movff	fsr2l,??_timer0_isr+9
   681  000042  CFDA F020          	movff	fsr2h,??_timer0_isr+10
   682  000046  CFF3 F021          	movff	prodl,??_timer0_isr+11
   683  00004A  CFF4 F022          	movff	prodh,??_timer0_isr+12
   684  00004E  CFF6 F023          	movff	tblptrl,??_timer0_isr+13
   685  000052  CFF7 F024          	movff	tblptrh,??_timer0_isr+14
   686  000056  CFF8 F025          	movff	tblptru,??_timer0_isr+15
   687  00005A  CFF5 F026          	movff	tablat,??_timer0_isr+16
   688  00005E  C039  F027         	movff	btemp,??_timer0_isr+17
   689  000062  C03A  F028         	movff	btemp+1,??_timer0_isr+18
   690  000066  C03B  F029         	movff	btemp+2,??_timer0_isr+19
   691  00006A  C03C  F02A         	movff	btemp+3,??_timer0_isr+20
   692                           
   693                           ;Timer.c: 26: if (TMR0IE & TMR0IF)
   694  00006E  0E01               	movlw	1
   695  000070  AAF2               	btfss	intcon,5,c	;volatile
   696  000072  0E00               	movlw	0
   697  000074  A4F2               	btfss	intcon,2,c	;volatile
   698  000076  0E00               	movlw	0
   699  000078  A0E8               	btfss	wreg,0,c
   700  00007A  D004               	goto	i1l31
   701                           
   702                           ;Timer.c: 27: {
   703                           ;Timer.c: 28: timer0_reset();
   704  00007C  ECF4  F008         	call	i1_timer0_reset	;wreg free
   705                           
   706                           ;Timer.c: 29: timer_process();
   707  000080  EC03  F009         	call	_timer_process	;wreg free
   708  000084                     i1l31:
   709  000084  C02A  F03C         	movff	??_timer0_isr+20,btemp+3
   710  000088  C029  F03B         	movff	??_timer0_isr+19,btemp+2
   711  00008C  C028  F03A         	movff	??_timer0_isr+18,btemp+1
   712  000090  C027  F039         	movff	??_timer0_isr+17,btemp
   713  000094  C026  FFF5         	movff	??_timer0_isr+16,tablat
   714  000098  C025  FFF8         	movff	??_timer0_isr+15,tblptru
   715  00009C  C024  FFF7         	movff	??_timer0_isr+14,tblptrh
   716  0000A0  C023  FFF6         	movff	??_timer0_isr+13,tblptrl
   717  0000A4  C022  FFF4         	movff	??_timer0_isr+12,prodh
   718  0000A8  C021  FFF3         	movff	??_timer0_isr+11,prodl
   719  0000AC  C020  FFDA         	movff	??_timer0_isr+10,fsr2h
   720  0000B0  C01F  FFD9         	movff	??_timer0_isr+9,fsr2l
   721  0000B4  C01E  FFE2         	movff	??_timer0_isr+8,fsr1h
   722  0000B8  C01D  FFE1         	movff	??_timer0_isr+7,fsr1l
   723  0000BC  C01C  FFEA         	movff	??_timer0_isr+6,fsr0h
   724  0000C0  C01B  FFE9         	movff	??_timer0_isr+5,fsr0l
   725  0000C4  C01A  FFFB         	movff	??_timer0_isr+4,pclatu
   726  0000C8  C019  FFFA         	movff	??_timer0_isr+3,pclath
   727  0000CC  C018  FFE0         	movff	??_timer0_isr+2,bsr
   728  0000D0  C017  FFE8         	movff	??_timer0_isr+1,wreg
   729  0000D4  C016  FFD8         	movff	??_timer0_isr,status
   730  0000D8  9039               	bcf	btemp,0,c	;clear compiler interrupt flag (level 1)
   731  0000DA  0010               	retfie	
   732  0000DC                     __end_of_timer0_isr:
   733                           	opt stack 0
   734                           pclatu	equ	0xFFB
   735                           pclath	equ	0xFFA
   736                           tblptru	equ	0xFF8
   737                           tblptrh	equ	0xFF7
   738                           tblptrl	equ	0xFF6
   739                           tablat	equ	0xFF5
   740                           prodh	equ	0xFF4
   741                           prodl	equ	0xFF3
   742                           intcon	equ	0xFF2
   743                           intcon2	equ	0xFF1
   744                           postinc0	equ	0xFEE
   745                           fsr0h	equ	0xFEA
   746                           fsr0l	equ	0xFE9
   747                           wreg	equ	0xFE8
   748                           fsr1h	equ	0xFE2
   749                           fsr1l	equ	0xFE1
   750                           bsr	equ	0xFE0
   751                           indf2	equ	0xFDF
   752                           fsr2h	equ	0xFDA
   753                           fsr2l	equ	0xFD9
   754                           status	equ	0xFD8
   755                           
   756 ;; *************** function i1_timer0_reset *****************
   757 ;; Defined at:
   758 ;;		line 16 in file "Timer.c"
   759 ;; Parameters:    Size  Location     Type
   760 ;;		None
   761 ;; Auto vars:     Size  Location     Type
   762 ;;		None
   763 ;; Return value:  Size  Location     Type
   764 ;;                  1    wreg      void 
   765 ;; Registers used:
   766 ;;		wreg, status,2
   767 ;; Tracked objects:
   768 ;;		On entry : 0/0
   769 ;;		On exit  : 0/0
   770 ;;		Unchanged: 0/0
   771 ;; Data sizes:     COMRAM   BANK0   BANK1   BANK2   BANK3   BANK4   BANK5   BANK6   BANK7   BANK8   BANK9  BANK10  BANK1
      +1  BANK12  BANK13  BANK14  BANK15
   772 ;;      Params:         0       0       0       0       0       0       0       0       0       0       0       0       
      +0       0       0       0       0
   773 ;;      Locals:         0       0       0       0       0       0       0       0       0       0       0       0       
      +0       0       0       0       0
   774 ;;      Temps:          0       0       0       0       0       0       0       0       0       0       0       0       
      +0       0       0       0       0
   775 ;;      Totals:         0       0       0       0       0       0       0       0       0       0       0       0       
      +0       0       0       0       0
   776 ;;Total ram usage:        0 bytes
   777 ;; Hardware stack levels used:    1
   778 ;; Hardware stack levels required when called:    2
   779 ;; This function calls:
   780 ;;		Nothing
   781 ;; This function is called by:
   782 ;;		_timer0_isr
   783 ;; This function uses a non-reentrant model
   784 ;;
   785                           
   786                           	psect	text7
   787  0011E8                     __ptext7:
   788                           	opt stack 0
   789  0011E8                     i1_timer0_reset:
   790                           	opt stack 25
   791                           
   792                           ;Timer.c: 18: TMR0IF = 0;
   793                           
   794                           ;incstack = 0
   795  0011E8  94F2               	bcf	intcon,2,c	;volatile
   796                           
   797                           ;Timer.c: 19: TMR0ON = 0;
   798  0011EA  9ED5               	bcf	4053,7,c	;volatile
   799                           
   800                           ;Timer.c: 20: TMR0 = -12500;
   801  0011EC  0ECF               	movlw	207
   802  0011EE  6ED7               	movwf	4055,c	;volatile
   803  0011F0  0E2C               	movlw	44
   804  0011F2  6ED6               	movwf	4054,c	;volatile
   805                           
   806                           ;Timer.c: 21: TMR0ON = 1;
   807  0011F4  8ED5               	bsf	4053,7,c	;volatile
   808  0011F6  0012               	return		;funcret
   809  0011F8                     __end_ofi1_timer0_reset:
   810                           	opt stack 0
   811                           pclatu	equ	0xFFB
   812                           pclath	equ	0xFFA
   813                           tblptru	equ	0xFF8
   814                           tblptrh	equ	0xFF7
   815                           tblptrl	equ	0xFF6
   816                           tablat	equ	0xFF5
   817                           prodh	equ	0xFF4
   818                           prodl	equ	0xFF3
   819                           intcon	equ	0xFF2
   820                           intcon2	equ	0xFF1
   821                           postinc0	equ	0xFEE
   822                           fsr0h	equ	0xFEA
   823                           fsr0l	equ	0xFE9
   824                           wreg	equ	0xFE8
   825                           fsr1h	equ	0xFE2
   826                           fsr1l	equ	0xFE1
   827                           bsr	equ	0xFE0
   828                           indf2	equ	0xFDF
   829                           fsr2h	equ	0xFDA
   830                           fsr2l	equ	0xFD9
   831                           status	equ	0xFD8
   832                           
   833 ;; *************** function _timer_process *****************
   834 ;; Defined at:
   835 ;;		line 99 in file "Tn04_Timer.c"
   836 ;; Parameters:    Size  Location     Type
   837 ;;		None
   838 ;; Auto vars:     Size  Location     Type
   839 ;;		None
   840 ;; Return value:  Size  Location     Type
   841 ;;                  1    wreg      void 
   842 ;; Registers used:
   843 ;;		wreg, fsr2l, fsr2h, status,2, status,0, prodl, prodh, cstack
   844 ;; Tracked objects:
   845 ;;		On entry : 0/0
   846 ;;		On exit  : 0/0
   847 ;;		Unchanged: 0/0
   848 ;; Data sizes:     COMRAM   BANK0   BANK1   BANK2   BANK3   BANK4   BANK5   BANK6   BANK7   BANK8   BANK9  BANK10  BANK1
      +1  BANK12  BANK13  BANK14  BANK15
   849 ;;      Params:         0       0       0       0       0       0       0       0       0       0       0       0       
      +0       0       0       0       0
   850 ;;      Locals:         0       0       0       0       0       0       0       0       0       0       0       0       
      +0       0       0       0       0
   851 ;;      Temps:          0       0       0       0       0       0       0       0       0       0       0       0       
      +0       0       0       0       0
   852 ;;      Totals:         0       0       0       0       0       0       0       0       0       0       0       0       
      +0       0       0       0       0
   853 ;;Total ram usage:        0 bytes
   854 ;; Hardware stack levels used:    1
   855 ;; Hardware stack levels required when called:    3
   856 ;; This function calls:
   857 ;;		_xuatled
   858 ;; This function is called by:
   859 ;;		_timer0_isr
   860 ;; This function uses a non-reentrant model
   861 ;;
   862                           
   863                           	psect	text8
   864  001206                     __ptext8:
   865                           	opt stack 0
   866  001206                     _timer_process:
   867                           	opt stack 24
   868                           
   869                           ;Tn04_Timer.c: 101: if ((--dem500ms)==0)
   870                           
   871                           ;incstack = 0
   872  001206  2E38               	decfsz	_dem500ms,f,c
   873  001208  0012               	return	
   874                           
   875                           ;Tn04_Timer.c: 102: {
   876                           ;Tn04_Timer.c: 103: xuatled();
   877  00120A  ECC8  F008         	call	_xuatled	;wreg free
   878                           
   879                           ;Tn04_Timer.c: 104: dem500ms=10;
   880  00120E  0E0A               	movlw	10
   881  001210  6E38               	movwf	_dem500ms,c
   882  001212  0012               	return	
   883  001214                     __end_of_timer_process:
   884                           	opt stack 0
   885                           pclatu	equ	0xFFB
   886                           pclath	equ	0xFFA
   887                           tblptru	equ	0xFF8
   888                           tblptrh	equ	0xFF7
   889                           tblptrl	equ	0xFF6
   890                           tablat	equ	0xFF5
   891                           prodh	equ	0xFF4
   892                           prodl	equ	0xFF3
   893                           intcon	equ	0xFF2
   894                           intcon2	equ	0xFF1
   895                           postinc0	equ	0xFEE
   896                           fsr0h	equ	0xFEA
   897                           fsr0l	equ	0xFE9
   898                           wreg	equ	0xFE8
   899                           fsr1h	equ	0xFE2
   900                           fsr1l	equ	0xFE1
   901                           bsr	equ	0xFE0
   902                           indf2	equ	0xFDF
   903                           fsr2h	equ	0xFDA
   904                           fsr2l	equ	0xFD9
   905                           status	equ	0xFD8
   906                           
   907 ;; *************** function _xuatled *****************
   908 ;; Defined at:
   909 ;;		line 93 in file "Tn04_Timer.c"
   910 ;; Parameters:    Size  Location     Type
   911 ;;		None
   912 ;; Auto vars:     Size  Location     Type
   913 ;;		None
   914 ;; Return value:  Size  Location     Type
   915 ;;                  1    wreg      void 
   916 ;; Registers used:
   917 ;;		wreg, fsr2l, fsr2h, status,2, status,0, prodl, prodh
   918 ;; Tracked objects:
   919 ;;		On entry : 0/0
   920 ;;		On exit  : 0/0
   921 ;;		Unchanged: 0/0
   922 ;; Data sizes:     COMRAM   BANK0   BANK1   BANK2   BANK3   BANK4   BANK5   BANK6   BANK7   BANK8   BANK9  BANK10  BANK1
      +1  BANK12  BANK13  BANK14  BANK15
   923 ;;      Params:         0       0       0       0       0       0       0       0       0       0       0       0       
      +0       0       0       0       0
   924 ;;      Locals:         0       0       0       0       0       0       0       0       0       0       0       0       
      +0       0       0       0       0
   925 ;;      Temps:          0       0       0       0       0       0       0       0       0       0       0       0       
      +0       0       0       0       0
   926 ;;      Totals:         0       0       0       0       0       0       0       0       0       0       0       0       
      +0       0       0       0       0
   927 ;;Total ram usage:        0 bytes
   928 ;; Hardware stack levels used:    1
   929 ;; Hardware stack levels required when called:    2
   930 ;; This function calls:
   931 ;;		Nothing
   932 ;; This function is called by:
   933 ;;		_timer_process
   934 ;; This function uses a non-reentrant model
   935 ;;
   936                           
   937                           	psect	text9
   938  001190                     __ptext9:
   939                           	opt stack 0
   940  001190                     _xuatled:
   941                           	opt stack 24
   942                           
   943                           ;Tn04_Timer.c: 95: led = dl_ram[ramidx++];
   944                           
   945                           ;incstack = 0
   946  001190  5037               	movf	_ramidx,w,c
   947  001192  0D01               	mullw	1
   948  001194  0E2E               	movlw	low _dl_ram
   949  001196  24F3               	addwf	prodl,w,c
   950  001198  6ED9               	movwf	fsr2l,c
   951  00119A  0E00               	movlw	high _dl_ram
   952  00119C  20F4               	addwfc	prodh,w,c
   953  00119E  6EDA               	movwf	fsr2h,c
   954  0011A0  50DF               	movf	indf2,w,c
   955  0011A2  6E8C               	movwf	3980,c	;volatile
   956  0011A4  2A37               	incf	_ramidx,f,c
   957                           
   958                           ;Tn04_Timer.c: 96: ramidx% = 8;
   959  0011A6  0E07               	movlw	7
   960  0011A8  1637               	andwf	_ramidx,f,c
   961  0011AA  0012               	return		;funcret
   962  0011AC                     __end_of_xuatled:
   963                           	opt stack 0
   964                           pclatu	equ	0xFFB
   965                           pclath	equ	0xFFA
   966                           tblptru	equ	0xFF8
   967                           tblptrh	equ	0xFF7
   968                           tblptrl	equ	0xFF6
   969                           tablat	equ	0xFF5
   970                           prodh	equ	0xFF4
   971                           prodl	equ	0xFF3
   972                           intcon	equ	0xFF2
   973                           intcon2	equ	0xFF1
   974                           postinc0	equ	0xFEE
   975                           fsr0h	equ	0xFEA
   976                           fsr0l	equ	0xFE9
   977                           wreg	equ	0xFE8
   978                           fsr1h	equ	0xFE2
   979                           fsr1l	equ	0xFE1
   980                           bsr	equ	0xFE0
   981                           indf2	equ	0xFDF
   982                           fsr2h	equ	0xFDA
   983                           fsr2l	equ	0xFD9
   984                           status	equ	0xFD8
   985                           
   986 ;; *************** function _init0_isr *****************
   987 ;; Defined at:
   988 ;;		line 123 in file "Tn04_Timer.c"
   989 ;; Parameters:    Size  Location     Type
   990 ;;		None
   991 ;; Auto vars:     Size  Location     Type
   992 ;;		None
   993 ;; Return value:  Size  Location     Type
   994 ;;                  1    wreg      void 
   995 ;; Registers used:
   996 ;;		wreg, fsr2l, fsr2h, status,2, status,0, tblptrl, tblptrh, tblptru, prodl, prodh, cstack
   997 ;; Tracked objects:
   998 ;;		On entry : 0/0
   999 ;;		On exit  : 0/0
  1000 ;;		Unchanged: 0/0
  1001 ;; Data sizes:     COMRAM   BANK0   BANK1   BANK2   BANK3   BANK4   BANK5   BANK6   BANK7   BANK8   BANK9  BANK10  BANK1
      +1  BANK12  BANK13  BANK14  BANK15
  1002 ;;      Params:         0       0       0       0       0       0       0       0       0       0       0       0       
      +0       0       0       0       0
  1003 ;;      Locals:         0       0       0       0       0       0       0       0       0       0       0       0       
      +0       0       0       0       0
  1004 ;;      Temps:         18       0       0       0       0       0       0       0       0       0       0       0       
      +0       0       0       0       0
  1005 ;;      Totals:        18       0       0       0       0       0       0       0       0       0       0       0       
      +0       0       0       0       0
  1006 ;;Total ram usage:       18 bytes
  1007 ;; Hardware stack levels used:    1
  1008 ;; Hardware stack levels required when called:    1
  1009 ;; This function calls:
  1010 ;;		i2_doi_ql
  1011 ;; This function is called by:
  1012 ;;		Interrupt level 2
  1013 ;; This function uses a non-reentrant model
  1014 ;;
  1015                           
  1016                           	psect	intcode
  1017  000008                     __pintcode:
  1018                           	opt stack 0
  1019  000008                     _init0_isr:
  1020                           	opt stack 24
  1021                           
  1022                           ;incstack = 0
  1023  000008  8239               	bsf	btemp,1,c	;set compiler interrupt flag (level 2)
  1024  00000A  ED11  F008         	call	int_func,f	;refresh shadow registers
  1025                           pclatu	equ	0xFFB
  1026                           pclath	equ	0xFFA
  1027                           tblptru	equ	0xFF8
  1028                           tblptrh	equ	0xFF7
  1029                           tblptrl	equ	0xFF6
  1030                           tablat	equ	0xFF5
  1031                           prodh	equ	0xFF4
  1032                           prodl	equ	0xFF3
  1033                           intcon	equ	0xFF2
  1034                           intcon2	equ	0xFF1
  1035                           postinc0	equ	0xFEE
  1036                           fsr0h	equ	0xFEA
  1037                           fsr0l	equ	0xFE9
  1038                           wreg	equ	0xFE8
  1039                           fsr1h	equ	0xFE2
  1040                           fsr1l	equ	0xFE1
  1041                           bsr	equ	0xFE0
  1042                           indf2	equ	0xFDF
  1043                           fsr2h	equ	0xFDA
  1044                           fsr2l	equ	0xFD9
  1045                           status	equ	0xFD8
  1046                           
  1047                           	psect	intcode_body
  1048  001022                     __pintcode_body:
  1049                           	opt stack 24
  1050  001022                     int_func:
  1051                           	opt stack 24
  1052  001022  0006               	pop		; remove dummy address from shadow register refresh
  1053  001024  CFFA F004          	movff	pclath,??_init0_isr
  1054  001028  CFFB F005          	movff	pclatu,??_init0_isr+1
  1055  00102C  CFE9 F006          	movff	fsr0l,??_init0_isr+2
  1056  001030  CFEA F007          	movff	fsr0h,??_init0_isr+3
  1057  001034  CFE1 F008          	movff	fsr1l,??_init0_isr+4
  1058  001038  CFE2 F009          	movff	fsr1h,??_init0_isr+5
  1059  00103C  CFD9 F00A          	movff	fsr2l,??_init0_isr+6
  1060  001040  CFDA F00B          	movff	fsr2h,??_init0_isr+7
  1061  001044  CFF3 F00C          	movff	prodl,??_init0_isr+8
  1062  001048  CFF4 F00D          	movff	prodh,??_init0_isr+9
  1063  00104C  CFF6 F00E          	movff	tblptrl,??_init0_isr+10
  1064  001050  CFF7 F00F          	movff	tblptrh,??_init0_isr+11
  1065  001054  CFF8 F010          	movff	tblptru,??_init0_isr+12
  1066  001058  CFF5 F011          	movff	tablat,??_init0_isr+13
  1067  00105C  C039  F012         	movff	btemp,??_init0_isr+14
  1068  001060  C03A  F013         	movff	btemp+1,??_init0_isr+15
  1069  001064  C03B  F014         	movff	btemp+2,??_init0_isr+16
  1070  001068  C03C  F015         	movff	btemp+3,??_init0_isr+17
  1071                           
  1072                           ;Tn04_Timer.c: 125: INT0IF = 0;
  1073  00106C  92F2               	bcf	intcon,1,c	;volatile
  1074                           
  1075                           ;Tn04_Timer.c: 126: doi_ql();
  1076  00106E  EC8C  F008         	call	i2_doi_ql	;wreg free
  1077  001072  C015  F03C         	movff	??_init0_isr+17,btemp+3
  1078  001076  C014  F03B         	movff	??_init0_isr+16,btemp+2
  1079  00107A  C013  F03A         	movff	??_init0_isr+15,btemp+1
  1080  00107E  C012  F039         	movff	??_init0_isr+14,btemp
  1081  001082  C011  FFF5         	movff	??_init0_isr+13,tablat
  1082  001086  C010  FFF8         	movff	??_init0_isr+12,tblptru
  1083  00108A  C00F  FFF7         	movff	??_init0_isr+11,tblptrh
  1084  00108E  C00E  FFF6         	movff	??_init0_isr+10,tblptrl
  1085  001092  C00D  FFF4         	movff	??_init0_isr+9,prodh
  1086  001096  C00C  FFF3         	movff	??_init0_isr+8,prodl
  1087  00109A  C00B  FFDA         	movff	??_init0_isr+7,fsr2h
  1088  00109E  C00A  FFD9         	movff	??_init0_isr+6,fsr2l
  1089  0010A2  C009  FFE2         	movff	??_init0_isr+5,fsr1h
  1090  0010A6  C008  FFE1         	movff	??_init0_isr+4,fsr1l
  1091  0010AA  C007  FFEA         	movff	??_init0_isr+3,fsr0h
  1092  0010AE  C006  FFE9         	movff	??_init0_isr+2,fsr0l
  1093  0010B2  C005  FFFB         	movff	??_init0_isr+1,pclatu
  1094  0010B6  C004  FFFA         	movff	??_init0_isr,pclath
  1095  0010BA  9239               	bcf	btemp,1,c	;clear compiler interrupt flag (level 2)
  1096  0010BC  0011               	retfie		f
  1097  0010BE                     __end_of_init0_isr:
  1098                           	opt stack 0
  1099                           pclatu	equ	0xFFB
  1100                           pclath	equ	0xFFA
  1101                           tblptru	equ	0xFF8
  1102                           tblptrh	equ	0xFF7
  1103                           tblptrl	equ	0xFF6
  1104                           tablat	equ	0xFF5
  1105                           prodh	equ	0xFF4
  1106                           prodl	equ	0xFF3
  1107                           intcon	equ	0xFF2
  1108                           intcon2	equ	0xFF1
  1109                           postinc0	equ	0xFEE
  1110                           fsr0h	equ	0xFEA
  1111                           fsr0l	equ	0xFE9
  1112                           wreg	equ	0xFE8
  1113                           fsr1h	equ	0xFE2
  1114                           fsr1l	equ	0xFE1
  1115                           bsr	equ	0xFE0
  1116                           indf2	equ	0xFDF
  1117                           fsr2h	equ	0xFDA
  1118                           fsr2l	equ	0xFD9
  1119                           status	equ	0xFD8
  1120                           
  1121 ;; *************** function i2_doi_ql *****************
  1122 ;; Defined at:
  1123 ;;		line 108 in file "Tn04_Timer.c"
  1124 ;; Parameters:    Size  Location     Type
  1125 ;;		None
  1126 ;; Auto vars:     Size  Location     Type
  1127 ;;  doi_ql          1    2[COMRAM] unsigned char 
  1128 ;; Return value:  Size  Location     Type
  1129 ;;                  1    wreg      void 
  1130 ;; Registers used:
  1131 ;;		wreg, fsr2l, fsr2h, status,2, status,0, tblptrl, tblptrh, tblptru, prodl, prodh
  1132 ;; Tracked objects:
  1133 ;;		On entry : 0/0
  1134 ;;		On exit  : 0/0
  1135 ;;		Unchanged: 0/0
  1136 ;; Data sizes:     COMRAM   BANK0   BANK1   BANK2   BANK3   BANK4   BANK5   BANK6   BANK7   BANK8   BANK9  BANK10  BANK1
      +1  BANK12  BANK13  BANK14  BANK15
  1137 ;;      Params:         0       0       0       0       0       0       0       0       0       0       0       0       
      +0       0       0       0       0
  1138 ;;      Locals:         1       0       0       0       0       0       0       0       0       0       0       0       
      +0       0       0       0       0
  1139 ;;      Temps:          2       0       0       0       0       0       0       0       0       0       0       0       
      +0       0       0       0       0
  1140 ;;      Totals:         3       0       0       0       0       0       0       0       0       0       0       0       
      +0       0       0       0       0
  1141 ;;Total ram usage:        3 bytes
  1142 ;; Hardware stack levels used:    1
  1143 ;; This function calls:
  1144 ;;		Nothing
  1145 ;; This function is called by:
  1146 ;;		_init0_isr
  1147 ;; This function uses a non-reentrant model
  1148 ;;
  1149                           
  1150                           	psect	text11
  1151  001118                     __ptext11:
  1152                           	opt stack 0
  1153  001118                     i2_doi_ql:
  1154                           	opt stack 24
  1155                           
  1156                           ;Tn04_Timer.c: 110: unsigned char i;
  1157                           ;Tn04_Timer.c: 111: for(i=0; i<8; i++) dl_ram[i]=dl_rom[romidx][i];
  1158                           
  1159                           ;incstack = 0
  1160  001118  0E00               	movlw	0
  1161  00111A  6E03               	movwf	i2doi_ql@i,c
  1162  00111C                     i2l767:
  1163  00111C  0E07               	movlw	7
  1164  00111E  6403               	cpfsgt	i2doi_ql@i,c
  1165  001120  D001               	goto	i2l66
  1166  001122  D021               	goto	i2u4_40
  1167  001124                     i2l66:
  1168  001124  5036               	movf	_romidx,w,c
  1169  001126  0D08               	mullw	8
  1170  001128  0E01               	movlw	low _dl_rom
  1171  00112A  6E01               	movwf	??i2_doi_ql& (0+255),c
  1172  00112C  0E10               	movlw	high _dl_rom
  1173  00112E  6E02               	movwf	(??i2_doi_ql+1)& (0+255),c
  1174  001130  50F3               	movf	prodl,w,c
  1175  001132  2601               	addwf	??i2_doi_ql,f,c
  1176  001134  50F4               	movf	prodh,w,c
  1177  001136  2202               	addwfc	??i2_doi_ql+1,f,c
  1178  001138  5003               	movf	i2doi_ql@i,w,c
  1179  00113A  0D01               	mullw	1
  1180  00113C  50F3               	movf	prodl,w,c
  1181  00113E  2601               	addwf	??i2_doi_ql,f,c
  1182  001140  50F4               	movf	prodh,w,c
  1183  001142  2202               	addwfc	??i2_doi_ql+1,f,c
  1184  001144  C001  FFF6         	movff	??i2_doi_ql,tblptrl
  1185  001148  C002  FFF7         	movff	??i2_doi_ql+1,tblptrh
  1186  00114C                     	if	0	;tblptru may be non-zero
  1187  00114C                     	endif
  1188  00114C                     	if	0	;tblptru may be non-zero
  1189  00114C                     	endif
  1190  00114C  5003               	movf	i2doi_ql@i,w,c
  1191  00114E  0D01               	mullw	1
  1192  001150  0E2E               	movlw	low _dl_ram
  1193  001152  24F3               	addwf	prodl,w,c
  1194  001154  6ED9               	movwf	fsr2l,c
  1195  001156  0E00               	movlw	high _dl_ram
  1196  001158  20F4               	addwfc	prodh,w,c
  1197  00115A  6EDA               	movwf	fsr2h,c
  1198  00115C  0008               	tblrd		*
  1199  00115E  CFF5 FFDF          	movff	tablat,indf2
  1200  001162  2A03               	incf	i2doi_ql@i,f,c
  1201  001164  D7DB               	goto	i2l767
  1202  001166                     i2u4_40:
  1203                           
  1204                           ;Tn04_Timer.c: 112: romidx++;
  1205  001166  2A36               	incf	_romidx,f,c
  1206                           
  1207                           ;Tn04_Timer.c: 113: romidx%=4;
  1208  001168  0E03               	movlw	3
  1209  00116A  1636               	andwf	_romidx,f,c
  1210                           
  1211                           ;Tn04_Timer.c: 114: ramidx = 0;
  1212  00116C  0E00               	movlw	0
  1213  00116E  6E37               	movwf	_ramidx,c
  1214  001170  0012               	return		;funcret
  1215  001172                     __end_ofi2_doi_ql:
  1216                           	opt stack 0
  1217                           pclatu	equ	0xFFB
  1218                           pclath	equ	0xFFA
  1219                           tblptru	equ	0xFF8
  1220                           tblptrh	equ	0xFF7
  1221                           tblptrl	equ	0xFF6
  1222                           tablat	equ	0xFF5
  1223                           prodh	equ	0xFF4
  1224                           prodl	equ	0xFF3
  1225                           intcon	equ	0xFF2
  1226                           intcon2	equ	0xFF1
  1227                           postinc0	equ	0xFEE
  1228                           fsr0h	equ	0xFEA
  1229                           fsr0l	equ	0xFE9
  1230                           wreg	equ	0xFE8
  1231                           fsr1h	equ	0xFE2
  1232                           fsr1l	equ	0xFE1
  1233                           bsr	equ	0xFE0
  1234                           indf2	equ	0xFDF
  1235                           fsr2h	equ	0xFDA
  1236                           fsr2l	equ	0xFD9
  1237                           status	equ	0xFD8
  1238                           pclatu	equ	0xFFB
  1239                           pclath	equ	0xFFA
  1240                           tblptru	equ	0xFF8
  1241                           tblptrh	equ	0xFF7
  1242                           tblptrl	equ	0xFF6
  1243                           tablat	equ	0xFF5
  1244                           prodh	equ	0xFF4
  1245                           prodl	equ	0xFF3
  1246                           intcon	equ	0xFF2
  1247                           intcon2	equ	0xFF1
  1248                           postinc0	equ	0xFEE
  1249                           fsr0h	equ	0xFEA
  1250                           fsr0l	equ	0xFE9
  1251                           wreg	equ	0xFE8
  1252                           fsr1h	equ	0xFE2
  1253                           fsr1l	equ	0xFE1
  1254                           bsr	equ	0xFE0
  1255                           indf2	equ	0xFDF
  1256                           fsr2h	equ	0xFDA
  1257                           fsr2l	equ	0xFD9
  1258                           status	equ	0xFD8
  1259                           
  1260                           	psect	rparam
  1261  0000                     pclatu	equ	0xFFB
  1262                           pclath	equ	0xFFA
  1263                           tblptru	equ	0xFF8
  1264                           tblptrh	equ	0xFF7
  1265                           tblptrl	equ	0xFF6
  1266                           tablat	equ	0xFF5
  1267                           prodh	equ	0xFF4
  1268                           prodl	equ	0xFF3
  1269                           intcon	equ	0xFF2
  1270                           intcon2	equ	0xFF1
  1271                           postinc0	equ	0xFEE
  1272                           fsr0h	equ	0xFEA
  1273                           fsr0l	equ	0xFE9
  1274                           wreg	equ	0xFE8
  1275                           fsr1h	equ	0xFE2
  1276                           fsr1l	equ	0xFE1
  1277                           bsr	equ	0xFE0
  1278                           indf2	equ	0xFDF
  1279                           fsr2h	equ	0xFDA
  1280                           fsr2l	equ	0xFD9
  1281                           status	equ	0xFD8
  1282                           
  1283                           	psect	temp
  1284  000039                     btemp:
  1285                           	opt stack 0
  1286  000039                     	ds	1
  1287  0000                     int$flags	set	btemp
  1288  0000                     wtemp6	set	btemp+1
  1289                           pclatu	equ	0xFFB
  1290                           pclath	equ	0xFFA
  1291                           tblptru	equ	0xFF8
  1292                           tblptrh	equ	0xFF7
  1293                           tblptrl	equ	0xFF6
  1294                           tablat	equ	0xFF5
  1295                           prodh	equ	0xFF4
  1296                           prodl	equ	0xFF3
  1297                           intcon	equ	0xFF2
  1298                           intcon2	equ	0xFF1
  1299                           postinc0	equ	0xFEE
  1300                           fsr0h	equ	0xFEA
  1301                           fsr0l	equ	0xFE9
  1302                           wreg	equ	0xFE8
  1303                           fsr1h	equ	0xFE2
  1304                           fsr1l	equ	0xFE1
  1305                           bsr	equ	0xFE0
  1306                           indf2	equ	0xFDF
  1307                           fsr2h	equ	0xFDA
  1308                           fsr2l	equ	0xFD9
  1309                           status	equ	0xFD8


Data Sizes:
    Strings     0
    Constant    32
    Data        0
    BSS         10
    Persistent  1
    Stack       0

Auto Spaces:
    Space          Size  Autos    Used
    COMRAM           94     45      56
    BANK0           160      0       0
    BANK1           256      0       0
    BANK2           256      0       0
    BANK3           256      0       0
    BANK4           256      0       0
    BANK5           256      0       0
    BANK6           256      0       0
    BANK7           256      0       0
    BANK8           256      0       0
    BANK9           256      0       0
    BANK10          256      0       0
    BANK11          256      0       0
    BANK12          256      0       0
    BANK13          256      0       0
    BANK14          256      0       0
    BANK15           96      0       0

Pointer List with Targets:

    None.

Critical Paths under _main in COMRAM

    _init->_doi_ql

Critical Paths under _timer0_isr in COMRAM

    None.

Critical Paths under _init0_isr in COMRAM

    _init0_isr->i2_doi_ql

Critical Paths under _main in BANK0

    None.

Critical Paths under _timer0_isr in BANK0

    None.

Critical Paths under _init0_isr in BANK0

    None.

Critical Paths under _main in BANK1

    None.

Critical Paths under _timer0_isr in BANK1

    None.

Critical Paths under _init0_isr in BANK1

    None.

Critical Paths under _main in BANK2

    None.

Critical Paths under _timer0_isr in BANK2

    None.

Critical Paths under _init0_isr in BANK2

    None.

Critical Paths under _main in BANK3

    None.

Critical Paths under _timer0_isr in BANK3

    None.

Critical Paths under _init0_isr in BANK3

    None.

Critical Paths under _main in BANK4

    None.

Critical Paths under _timer0_isr in BANK4

    None.

Critical Paths under _init0_isr in BANK4

    None.

Critical Paths under _main in BANK5

    None.

Critical Paths under _timer0_isr in BANK5

    None.

Critical Paths under _init0_isr in BANK5

    None.

Critical Paths under _main in BANK6

    None.

Critical Paths under _timer0_isr in BANK6

    None.

Critical Paths under _init0_isr in BANK6

    None.

Critical Paths under _main in BANK7

    None.

Critical Paths under _timer0_isr in BANK7

    None.

Critical Paths under _init0_isr in BANK7

    None.

Critical Paths under _main in BANK8

    None.

Critical Paths under _timer0_isr in BANK8

    None.

Critical Paths under _init0_isr in BANK8

    None.

Critical Paths under _main in BANK9

    None.

Critical Paths under _timer0_isr in BANK9

    None.

Critical Paths under _init0_isr in BANK9

    None.

Critical Paths under _main in BANK10

    None.

Critical Paths under _timer0_isr in BANK10

    None.

Critical Paths under _init0_isr in BANK10

    None.

Critical Paths under _main in BANK11

    None.

Critical Paths under _timer0_isr in BANK11

    None.

Critical Paths under _init0_isr in BANK11

    None.

Critical Paths under _main in BANK12

    None.

Critical Paths under _timer0_isr in BANK12

    None.

Critical Paths under _init0_isr in BANK12

    None.

Critical Paths under _main in BANK13

    None.

Critical Paths under _timer0_isr in BANK13

    None.

Critical Paths under _init0_isr in BANK13

    None.

Critical Paths under _main in BANK14

    None.

Critical Paths under _timer0_isr in BANK14

    None.

Critical Paths under _init0_isr in BANK14

    None.

Critical Paths under _main in BANK15

    None.

Critical Paths under _timer0_isr in BANK15

    None.

Critical Paths under _init0_isr in BANK15

    None.

Call Graph Tables:

 ---------------------------------------------------------------------------------
 (Depth) Function   	        Calls       Base Space   Used Autos Params    Refs
 ---------------------------------------------------------------------------------
 (0) _main                                                 0     0      0      60
                               _init
                          _int0_init
                        _timer0_init
 ---------------------------------------------------------------------------------
 (1) _timer0_init                                          0     0      0       0
                       _timer0_reset
 ---------------------------------------------------------------------------------
 (2) _timer0_reset                                         0     0      0       0
 ---------------------------------------------------------------------------------
 (1) _int0_init                                            0     0      0       0
 ---------------------------------------------------------------------------------
 (1) _init                                                 0     0      0      60
                             _doi_ql
 ---------------------------------------------------------------------------------
 (2) _doi_ql                                               3     3      0      60
                                             42 COMRAM     3     3      0
 ---------------------------------------------------------------------------------
 Estimated maximum stack depth 2
 ---------------------------------------------------------------------------------
 (Depth) Function   	        Calls       Base Space   Used Autos Params    Refs
 ---------------------------------------------------------------------------------
 (3) _timer0_isr                                          21    21      0       0
                                             21 COMRAM    21    21      0
                      _timer_process
                     i1_timer0_reset
 ---------------------------------------------------------------------------------
 (4) i1_timer0_reset                                       0     0      0       0
 ---------------------------------------------------------------------------------
 (4) _timer_process                                        0     0      0       0
                            _xuatled
 ---------------------------------------------------------------------------------
 (5) _xuatled                                              0     0      0       0
 ---------------------------------------------------------------------------------
 Estimated maximum stack depth 5
 ---------------------------------------------------------------------------------
 (Depth) Function   	        Calls       Base Space   Used Autos Params    Refs
 ---------------------------------------------------------------------------------
 (6) _init0_isr                                           18    18      0      60
                                              3 COMRAM    18    18      0
                           i2_doi_ql
 ---------------------------------------------------------------------------------
 (7) i2_doi_ql                                             3     3      0      60
                                              0 COMRAM     3     3      0
 ---------------------------------------------------------------------------------
 Estimated maximum stack depth 7
 ---------------------------------------------------------------------------------

 Call Graph Graphs:

 _main (ROOT)
   _init
     _doi_ql
   _int0_init
   _timer0_init
     _timer0_reset

 _timer0_isr (ROOT)
   _timer_process
     _xuatled
   i1_timer0_reset

 _init0_isr (ROOT)
   i2_doi_ql

 Address spaces:
Name               Size   Autos  Total    Cost      Usage
BIGRAM             F5F      0       0      37        0.0%
EEDATA             400      0       0       0        0.0%
BITBANK14          100      0       0      33        0.0%
BANK14             100      0       0      34        0.0%
BITBANK13          100      0       0      30        0.0%
BANK13             100      0       0      31        0.0%
BITBANK12          100      0       0      28        0.0%
BANK12             100      0       0      29        0.0%
BITBANK11          100      0       0      26        0.0%
BANK11             100      0       0      27        0.0%
BITBANK10          100      0       0      24        0.0%
BANK10             100      0       0      25        0.0%
BITBANK9           100      0       0      22        0.0%
BANK9              100      0       0      23        0.0%
BITBANK8           100      0       0      20        0.0%
BANK8              100      0       0      21        0.0%
BITBANK7           100      0       0      18        0.0%
BANK7              100      0       0      19        0.0%
BITBANK6           100      0       0      16        0.0%
BANK6              100      0       0      17        0.0%
BITBANK5           100      0       0      14        0.0%
BANK5              100      0       0      15        0.0%
BITBANK4           100      0       0      12        0.0%
BANK4              100      0       0      13        0.0%
BITBANK3           100      0       0      10        0.0%
BANK3              100      0       0      11        0.0%
BITBANK2           100      0       0       8        0.0%
BANK2              100      0       0       9        0.0%
BITBANK1           100      0       0       6        0.0%
BANK1              100      0       0       7        0.0%
BITBANK0            A0      0       0       4        0.0%
BANK0               A0      0       0       5        0.0%
BITBANK15           60      0       0      35        0.0%
BANK15              60      0       0      36        0.0%
BITCOMRAM           5E      0       0       0        0.0%
COMRAM              5E     2D      38       1       59.6%
BITSFR               0      0       0     200        0.0%
SFR                  0      0       0     200        0.0%
STACK                0      0       0       2        0.0%
NULL                 0      0       0       0        0.0%
ABS                  0      0      38      32        0.0%
DATA                 0      0      38       3        0.0%
CODE                 0      0       0       0        0.0%


Microchip Technology PIC18 Macro Assembler V1.45 build -152302408 
Symbol Table                                                                                   Mon Oct 21 09:54:02 2019

                     l66 10CA                       l84 1204                       u20 110C  
                     bsr 000FE0              __CFG_OSC$HS 000000   __end_ofi1_timer0_reset 11F8  
                    l723 10C2                      _led 000F8C                      prod 000FF3  
                    wreg 000FE8             __CFG_LVP$OFF 000000             __CFG_WDT$OFF 000000  
                   i1l31 0084                     i2l66 1124                     _TMR0 000FD6  
                   _main 11F8                     _init 11AC                     fsr0h 000FEA  
                   fsr1h 000FE2                     fsr2h 000FDA                     fsr0l 000FE9  
                   indf2 000FDF                     fsr1l 000FE1                     fsr2l 000FD9  
                   btemp 0039                     prodh 000FF4                     prodl 000FF3  
                   start 00DC             ___param_bank 000000          ??_timer_process 0016  
                  ?_main 0001                    ?_init 0001          ?i1_timer0_reset 0001  
                  _T0CON 000FD5                    i2l767 111C                    pclath 000FFA  
                  tablat 000FF5                    status 000FD8                    wtemp6 003A  
       __end_ofi2_doi_ql 1172          __end_of_xuatled 11AC          __initialization 1172  
           __end_of_main 1206             __end_of_init 11C4                   ??_main 002E  
                 ??_init 002E            __activetblptr 000001                   _ADCON1 000FC1  
                 _INT0IE 007F94                   _INT0IF 007F91                   _TMR0IE 007F95  
                 _TMR0IF 007F92                   _TMR0ON 007EAF                   i2u4_40 1166  
           ?_timer0_init 0001                   _dl_ram 002E                   _dl_rom 1001  
                 _doi_ql 10BE                   _led_io 000F95                   clear_0 1178  
                 _ramidx 0037                   _romidx 0036             __mediumconst 0000  
                 tblptrh 000FF7                   tblptrl 000FF6                   tblptru 000FF8  
              ??_xuatled 0016               __accesstop 0060  __end_of__initialization 117E  
          ___rparam_used 000001           __pcstackCOMRAM 0001                ?i2_doi_ql 0001  
     __size_of_int0_init 0006       __size_of_init0_isr 10B6               __pnvCOMRAM 0038  
       ??i1_timer0_reset 0016                  ?_doi_ql 0001               ??i2_doi_ql 0001  
                __Hparam 0000                  __Lparam 0000        __end_of_int0_init 121A  
           __psmallconst 1000          __size_of_doi_ql 005A        __end_of_init0_isr 10BE  
                __pcinit 1172                  __ramtop 1000     __size_of_timer0_init 0014  
          ?_timer0_reset 0001                  __ptext0 11F8                  __ptext1 11C4  
                __ptext2 11D8                  __ptext3 1214                  __ptext4 11AC  
                __ptext5 10BE                  __ptext7 11E8                  __ptext8 1206  
                __ptext9 1190    __end_of_timer_process 1214                  doi_ql@i 002D  
         __pintcode_body 1022     end_of_initialization 117E                  _xuatled 1190  
                int_func 1022               _timer0_isr 0018                  postinc0 000FEE  
         ??_timer0_reset 002B                _TRISBbits 000F93                i2doi_ql@i 0003  
         __end_of_dl_rom 1021           __end_of_doi_ql 1118      start_initialization 1172  
      __size_ofi2_doi_ql 005A              ?_timer0_isr 0001                 ??_doi_ql 002B  
            __pbssCOMRAM 002E     __end_of_timer0_reset 11E8                __pintcode 0008  
            __pintcodelo 0018                _int0_init 1214              __smallconst 1000  
              _init0_isr 0008      __size_of_timer0_isr 00C4                 ?_xuatled 0001  
               _RCONbits 000FD0            ??_timer0_init 002B               ?_int0_init 0001  
             ?_init0_isr 0001                 i2_doi_ql 1118  __size_ofi1_timer0_reset 0010  
            _INTCON2bits 000FF1   __size_of_timer_process 000E                 __Hrparam 0000  
               __Lrparam 0000             __Lsmallconst 1000                 _dem500ms 0038  
    __end_of_timer0_init 11D8                 __ptext11 1118    __size_of_timer0_reset 0010  
       __size_of_xuatled 001C            __size_of_main 000E            __size_of_init 0018  
           ??_timer0_isr 0016                 int$flags 0039              ??_int0_init 002B  
           _timer0_reset 11D8              ??_init0_isr 0004            _timer_process 1206  
             _INTCONbits 000FF2                 intlevel1 0000                 intlevel2 0000  
     __end_of_timer0_isr 00DC              _timer0_init 11C4           ?_timer_process 0001  
         i1_timer0_reset 11E8  
