:040000006EEF00F0AF
:06000800398211ED08F041
:100018003980D8CF16F0E8CF17F0E0CF18F0FACF34
:1000280019F0FBCF1AF0E9CF1BF0EACF1CF0E1CFB3
:100038001DF0E2CF1EF0D9CF1FF0DACF20F0F3CFBA
:1000480021F0F4CF22F0F6CF23F0F7CF24F0F8CF49
:1000580025F0F5CF26F039C027F03AC028F03BC08C
:1000680029F03CC02AF0010EF2AA000EF2A4000EFC
:10007800E8A004D0F4EC08F003EC09F02AC03CF046
:1000880029C03BF028C03AF027C039F026C0F5FF58
:1000980025C0F8FF24C0F7FF23C0F6FF22C0F4FFF5
:1000A80021C0F3FF20C0DAFF1FC0D9FF1EC0E2FF46
:1000B8001DC0E1FF1CC0EAFF1BC0E9FF1AC0FBFF1F
:1000C80019C0FAFF18C0E0FF17C0E8FF16C0D8FF34
:0800D80039901000B9EF08F0A7
:1010000000FF7E3C1800183C7E0103070F1F3F7F46
:10101000FF01020408102040800081C3E7FFE7C3FE
:1010200081000600FACF04F0FBCF05F0E9CF06F00F
:10103000EACF07F0E1CF08F0E2CF09F0D9CF0AF00C
:10104000DACF0BF0F3CF0CF0F4CF0DF0F6CF0EF0BB
:10105000F7CF0FF0F8CF10F0F5CF11F039C012F044
:101060003AC013F03BC014F03CC015F0F2928CEC87
:1010700008F015C03CF014C03BF013C03AF012C0A9
:1010800039F011C0F5FF10C0F8FF0FC0F7FF0EC018
:10109000F6FF0DC0F4FF0CC0F3FF0BC0DAFF0AC06F
:1010A000D9FF09C0E2FF08C0E1FF07C0EAFF06C0A0
:1010B000E9FF05C0FBFF04C0FAFF39921100000EE2
:1010C0002D6E070E2D6401D021D03650080D010E73
:1010D0002B6E100E2C6EF3502B26F4502C222D501C
:1010E000010DF3502B26F4502C222BC0F6FF2CC000
:1010F000F7FF2D50010D2E0EF324D96E000EF420B3
:10110000DA6E0800F5CFDFFF2D2ADBD7362A030E73
:101110003616000E376E1200000E036E070E0364C3
:1011200001D021D03650080D010E016E100E026E56
:10113000F3500126F45002220350010DF350012612
:10114000F450022201C0F6FF02C0F7FF0350010D68
:101150002E0EF324D96E000EF420DA6E0800F5CFBF
:10116000DFFF032ADBD7362A030E3616000E376E52
:10117000120000EE2EF00A0EEE6AE806FDE139904C
:101180003992000EF86E100EF76E0001FCEF08F0B9
:101190003750010D2E0EF324D96E000EF420DA6EB6
:1011A000DF508C6E372A070E371612000F0EC16EF5
:1011B000000E956E000E8C6E93900A0E386E5FECEA
:1011C00008F01200D08EF194F28AF28EF28C000EAA
:1011D000D56EECEC08F01200F294D59ECF0ED76ECF
:1011E0002C0ED66ED58E1200F294D59ECF0ED76EF1
:1011F0002C0ED66ED58E1200D6EC08F0E2EC08F07C
:101200000AEC09F0FFD7382E1200C8EC08F00A0EDD
:0A121000386E1200F292F28812000C
:020000040020DA
:08000000FFFFFFFFFFFFFFFF00
:020000040030CA
:0E000000FF021F1EF38381FFFFC0FFE0FF40E1
:00000001FF
