

Microchip Technology PIC18 LITE Macro Assembler V1.45 build -152302408 
                                                                                               Tue Nov 26 14:34:53 2019

Microchip Technology Omniscient Code Generator v1.45 (Free mode) build 201711160504
     1                           	processor	18F8722
     2                           	fnconf	rparam,??,?,0
     3                           	opt	pw 120
     4                           	opt	lm
     5                           	psect	idataCOMRAM,global,class=CODE,delta=1,noexec
     6                           	psect	nvCOMRAM,global,class=COMRAM,space=1,delta=1,noexec
     7                           	psect	cinit,global,reloc=2,class=CODE,delta=1
     8                           	psect	dataCOMRAM,global,class=COMRAM,space=1,delta=1,noexec
     9                           	psect	cstackCOMRAM,global,class=COMRAM,space=1,delta=1,noexec
    10                           	psect	text0,global,reloc=2,class=CODE,delta=1
    11                           	psect	text1,global,reloc=2,class=CODE,delta=1
    12                           	psect	text2,global,reloc=2,class=CODE,delta=1
    13                           	psect	text3,global,reloc=2,class=CODE,delta=1
    14                           	psect	text4,global,reloc=2,class=CODE,delta=1,group=1
    15                           	psect	text5,global,reloc=2,class=CODE,delta=1,group=1
    16                           	psect	text6,global,reloc=2,class=CODE,delta=1,group=1
    17                           	psect	text7,global,reloc=2,class=CODE,delta=1,group=1
    18                           	psect	text8,global,reloc=2,class=CODE,delta=1
    19                           	psect	intcodelo,global,reloc=2,class=CODE,delta=1
    20                           	psect	text10,global,reloc=2,class=CODE,delta=1
    21                           	psect	text11,global,reloc=2,class=CODE,delta=1
    22                           	psect	text12,global,reloc=2,class=CODE,delta=1
    23                           	psect	intsave_regs,global,class=BIGRAM,space=1,delta=1,noexec
    24                           	psect	rparam,global,class=COMRAM,space=1,delta=1,noexec
    25                           	psect	temp,global,ovrld,common,class=COMRAM,space=1,delta=1
    26  0000                     
    27                           ; Version 1.45
    28                           ; Generated 16/11/2017 GMT
    29                           ; 
    30                           ; Copyright © 2017, Microchip Technology Inc. and its subsidiaries ("Microchip")
    31                           ; All rights reserved.
    32                           ; 
    33                           ; This software is developed by Microchip Technology Inc. and its subsidiaries ("Microch
      +                          ip").
    34                           ; 
    35                           ; Redistribution and use in source and binary forms, with or without modification, are
    36                           ; permitted provided that the following conditions are met:
    37                           ; 
    38                           ;     1. Redistributions of source code must retain the above copyright notice, this lis
      +                          t of
    39                           ;        conditions and the following disclaimer.
    40                           ; 
    41                           ;     2. Redistributions in binary form must reproduce the above copyright notice, this 
      +                          list
    42                           ;        of conditions and the following disclaimer in the documentation and/or other
    43                           ;        materials provided with the distribution.
    44                           ; 
    45                           ;     3. Microchip's name may not be used to endorse or promote products derived from th
      +                          is
    46                           ;        software without specific prior written permission.
    47                           ; 
    48                           ; THIS SOFTWARE IS PROVIDED BY MICROCHIP "AS IS" AND ANY EXPRESS OR IMPLIED WARRANTIES,
    49                           ; INCLUDING, BUT NOT LIMITED TO, THE IMPLIED WARRANTIES OF MERCHANTABILITY AND FITNESS F
      +                          OR
    50                           ; PURPOSE ARE DISCLAIMED.  IN NO EVENT SHALL MICROCHIP BE LIABLE FOR ANY DIRECT, INDIREC
      +                          T,
    51                           ; INCIDENTAL, SPECIAL, EXEMPLARY, OR CONSEQUENTIAL DAMAGES (INCLUDING BUT NOT LIMITED TO
    52                           ; PROCUREMENT OF SUBSTITUTE GOODS OR SERVICES; LOSS OF USE, DATA OR PROFITS; OR BUSINESS
    53                           ; INTERRUPTION) HOWSOEVER CAUSED AND ON ANY THEORY OF LIABILITY, WHETHER IN CONTRACT, ST
      +                          RICT
    54                           ; LIABILITY, OR TORT (INCLUDING NEGLIGENCE OR OTHERWISE) ARISING IN ANY WAY OUT OF THE U
      +                          SE OF
    55                           ; THIS SOFTWARE, EVEN IF ADVISED OF THE POSSIBILITY OF SUCH DAMAGE.
    56                           ; 
    57                           ; 
    58                           ; Code-generator required, PIC18F8722 Definitions
    59                           ; 
    60                           ; SFR Addresses
    61  0000                     
    62                           	psect	idataCOMRAM
    63  0004CA                     __pidataCOMRAM:
    64                           	opt stack 0
    65                           
    66                           ;initializer for _temp
    67  0004CA  0014               	dw	20
    68                           
    69                           	psect	nvCOMRAM
    70  000041                     __pnvCOMRAM:
    71                           	opt stack 0
    72  000041                     _dutycycle:
    73                           	opt stack 0
    74  000041                     	ds	2
    75  000043                     _period:
    76                           	opt stack 0
    77  000043                     	ds	2
    78  000045                     _x:
    79                           	opt stack 0
    80  000045                     	ds	2
    81  0000                     _TMR0	set	4054
    82  0000                     _T0CON	set	4053
    83  0000                     _INTCONbits	set	4082
    84  0000                     _INTCON2bits	set	4081
    85  0000                     _RCONbits	set	4048
    86  0000                     _PORTAbits	set	3968
    87  0000                     _CCP1CONbits	set	4029
    88  0000                     _CCPR1L	set	4030
    89  0000                     _PR2	set	4043
    90  0000                     _T2CON	set	4042
    91  0000                     _CCP1CON	set	4029
    92  0000                     _TRISCbits	set	3988
    93  0000                     _TRISAbits	set	3986
    94  0000                     _TRISD	set	3989
    95  0000                     _ADCON1	set	4033
    96  0000                     _TMR0IE	set	32661
    97  0000                     _TMR0ON	set	32431
    98  0000                     _TMR0IF	set	32658
    99  0000                     _DC1B0	set	32236
   100  0000                     _DC1B1	set	32237
   101                           
   102                           ; #config settings
   103  0000                     
   104                           	psect	cinit
   105  000450                     __pcinit:
   106                           	opt stack 0
   107  000450                     start_initialization:
   108                           	opt stack 0
   109  000450                     __initialization:
   110                           	opt stack 0
   111                           
   112                           ; Initialize objects allocated to COMRAM (2 bytes)
   113                           ; load TBLPTR registers with __pidataCOMRAM
   114  000450  0ECA               	movlw	low __pidataCOMRAM
   115  000452  6EF6               	movwf	tblptrl,c
   116  000454  0E04               	movlw	high __pidataCOMRAM
   117  000456  6EF7               	movwf	tblptrh,c
   118  000458  0E00               	movlw	low (__pidataCOMRAM shr (0+16))
   119  00045A  6EF8               	movwf	tblptru,c
   120  00045C  0009               	tblrd		*+	;fetch initializer
   121  00045E  CFF5 F047          	movff	tablat,__pdataCOMRAM
   122  000462  0009               	tblrd		*+	;fetch initializer
   123  000464  CFF5 F048          	movff	tablat,__pdataCOMRAM+1
   124  000468                     end_of_initialization:
   125                           	opt stack 0
   126  000468                     __end_of__initialization:
   127                           	opt stack 0
   128  000468  9049               	bcf	int$flags,0,c	;clear compiler interrupt flag (level 1)
   129  00046A  9249               	bcf	int$flags,1,c	;clear compiler interrupt flag (level 2)
   130  00046C  0100               	movlb	0
   131  00046E  EF5B  F002         	goto	_main	;jump to C main() function
   132                           tblptru	equ	0xFF8
   133                           tblptrh	equ	0xFF7
   134                           tblptrl	equ	0xFF6
   135                           tablat	equ	0xFF5
   136                           
   137                           	psect	dataCOMRAM
   138  000047                     __pdataCOMRAM:
   139                           	opt stack 0
   140  000047                     _temp:
   141                           	opt stack 0
   142  000047                     	ds	2
   143                           tblptru	equ	0xFF8
   144                           tblptrh	equ	0xFF7
   145                           tblptrl	equ	0xFF6
   146                           tablat	equ	0xFF5
   147                           
   148                           	psect	cstackCOMRAM
   149  000001                     __pcstackCOMRAM:
   150                           	opt stack 0
   151  000001                     ??_timer0_isr:
   152  000001                     
   153                           ; 1 bytes @ 0x0
   154  000001                     	ds	21
   155  000016                     ?___ftpack:
   156                           	opt stack 0
   157  000016                     ___ftpack@arg:
   158                           	opt stack 0
   159                           
   160                           ; 3 bytes @ 0x15
   161  000016                     	ds	3
   162  000019                     ___ftpack@exp:
   163                           	opt stack 0
   164                           
   165                           ; 1 bytes @ 0x18
   166  000019                     	ds	1
   167  00001A                     ___ftpack@sign:
   168                           	opt stack 0
   169                           
   170                           ; 1 bytes @ 0x19
   171  00001A                     	ds	1
   172  00001B                     ??___ftpack:
   173                           
   174                           ; 1 bytes @ 0x1A
   175  00001B                     	ds	3
   176  00001E                     ?___lwtoft:
   177                           	opt stack 0
   178  00001E                     ___lwtoft@c:
   179                           	opt stack 0
   180                           
   181                           ; 2 bytes @ 0x1D
   182  00001E                     	ds	3
   183  000021                     ?___ftmul:
   184                           	opt stack 0
   185  000021                     ___ftmul@f1:
   186                           	opt stack 0
   187                           
   188                           ; 3 bytes @ 0x20
   189  000021                     	ds	3
   190  000024                     ___ftmul@f2:
   191                           	opt stack 0
   192                           
   193                           ; 3 bytes @ 0x23
   194  000024                     	ds	3
   195  000027                     ??___ftmul:
   196                           
   197                           ; 1 bytes @ 0x26
   198  000027                     	ds	3
   199  00002A                     ___ftmul@exp:
   200                           	opt stack 0
   201                           
   202                           ; 1 bytes @ 0x29
   203  00002A                     	ds	1
   204  00002B                     ___ftmul@f3_as_product:
   205                           	opt stack 0
   206                           
   207                           ; 3 bytes @ 0x2A
   208  00002B                     	ds	3
   209  00002E                     ___ftmul@cntr:
   210                           	opt stack 0
   211                           
   212                           ; 1 bytes @ 0x2D
   213  00002E                     	ds	1
   214  00002F                     ___ftmul@sign:
   215                           	opt stack 0
   216                           
   217                           ; 1 bytes @ 0x2E
   218  00002F                     	ds	1
   219  000030                     ?___fttol:
   220                           	opt stack 0
   221  000030                     ___fttol@f1:
   222                           	opt stack 0
   223                           
   224                           ; 3 bytes @ 0x2F
   225  000030                     	ds	4
   226  000034                     ??___fttol:
   227                           
   228                           ; 1 bytes @ 0x33
   229  000034                     	ds	5
   230  000039                     ___fttol@sign1:
   231                           	opt stack 0
   232                           
   233                           ; 1 bytes @ 0x38
   234  000039                     	ds	1
   235  00003A                     ___fttol@lval:
   236                           	opt stack 0
   237                           
   238                           ; 4 bytes @ 0x39
   239  00003A                     	ds	4
   240  00003E                     ___fttol@exp1:
   241                           	opt stack 0
   242                           
   243                           ; 1 bytes @ 0x3D
   244  00003E                     	ds	1
   245  00003F                     ??_pwm_init:
   246                           
   247                           ; 1 bytes @ 0x3E
   248  00003F                     	ds	2
   249  000041                     tblptru	equ	0xFF8
   250                           tblptrh	equ	0xFF7
   251                           tblptrl	equ	0xFF6
   252                           tablat	equ	0xFF5
   253                           
   254                           ; 1 bytes @ 0x40
   255 ;;
   256 ;;Main: autosize = 0, tempsize = 0, incstack = 0, save=0
   257 ;;
   258 ;; *************** function _main *****************
   259 ;; Defined at:
   260 ;;		line 62 in file "Tn09B.c"
   261 ;; Parameters:    Size  Location     Type
   262 ;;		None
   263 ;; Auto vars:     Size  Location     Type
   264 ;;		None
   265 ;; Return value:  Size  Location     Type
   266 ;;                  1    wreg      void 
   267 ;; Registers used:
   268 ;;		wreg, status,2, status,0, cstack
   269 ;; Tracked objects:
   270 ;;		On entry : 0/0
   271 ;;		On exit  : 0/0
   272 ;;		Unchanged: 0/0
   273 ;; Data sizes:     COMRAM   BANK0   BANK1   BANK2   BANK3   BANK4   BANK5   BANK6   BANK7   BANK8   BANK9  BANK10  BANK1
      +1  BANK12  BANK13  BANK14  BANK15
   274 ;;      Params:         0       0       0       0       0       0       0       0       0       0       0       0       
      +0       0       0       0       0
   275 ;;      Locals:         0       0       0       0       0       0       0       0       0       0       0       0       
      +0       0       0       0       0
   276 ;;      Temps:          0       0       0       0       0       0       0       0       0       0       0       0       
      +0       0       0       0       0
   277 ;;      Totals:         0       0       0       0       0       0       0       0       0       0       0       0       
      +0       0       0       0       0
   278 ;;Total ram usage:        0 bytes
   279 ;; Hardware stack levels required when called:    6
   280 ;; This function calls:
   281 ;;		_init
   282 ;;		_pwm_init
   283 ;;		_timer0_init
   284 ;; This function is called by:
   285 ;;		Startup code after reset
   286 ;; This function uses a non-reentrant model
   287 ;;
   288                           
   289                           	psect	text0
   290  0004B6                     __ptext0:
   291                           	opt stack 0
   292  0004B6                     _main:
   293                           	opt stack 25
   294                           
   295                           ;Tn09B.c: 64: init();
   296                           
   297                           ;incstack = 0
   298  0004B6  EC4B  F002         	call	_init	;wreg free
   299                           
   300                           ;Tn09B.c: 65: pwm_init();
   301  0004BA  ECBB  F001         	call	_pwm_init	;wreg free
   302                           
   303                           ;Tn09B.c: 66: timer0_init();
   304  0004BE  EC39  F002         	call	_timer0_init	;wreg free
   305  0004C2                     l57:
   306  0004C2  D7FF               	goto	l57
   307  0004C4                     __end_of_main:
   308                           	opt stack 0
   309                           tblptru	equ	0xFF8
   310                           tblptrh	equ	0xFF7
   311                           tblptrl	equ	0xFF6
   312                           tablat	equ	0xFF5
   313                           
   314 ;; *************** function _timer0_init *****************
   315 ;; Defined at:
   316 ;;		line 5 in file "Timer.c"
   317 ;; Parameters:    Size  Location     Type
   318 ;;		None
   319 ;; Auto vars:     Size  Location     Type
   320 ;;		None
   321 ;; Return value:  Size  Location     Type
   322 ;;                  1    wreg      void 
   323 ;; Registers used:
   324 ;;		wreg, status,2, cstack
   325 ;; Tracked objects:
   326 ;;		On entry : 0/0
   327 ;;		On exit  : 0/0
   328 ;;		Unchanged: 0/0
   329 ;; Data sizes:     COMRAM   BANK0   BANK1   BANK2   BANK3   BANK4   BANK5   BANK6   BANK7   BANK8   BANK9  BANK10  BANK1
      +1  BANK12  BANK13  BANK14  BANK15
   330 ;;      Params:         0       0       0       0       0       0       0       0       0       0       0       0       
      +0       0       0       0       0
   331 ;;      Locals:         0       0       0       0       0       0       0       0       0       0       0       0       
      +0       0       0       0       0
   332 ;;      Temps:          0       0       0       0       0       0       0       0       0       0       0       0       
      +0       0       0       0       0
   333 ;;      Totals:         0       0       0       0       0       0       0       0       0       0       0       0       
      +0       0       0       0       0
   334 ;;Total ram usage:        0 bytes
   335 ;; Hardware stack levels used:    1
   336 ;; Hardware stack levels required when called:    4
   337 ;; This function calls:
   338 ;;		_timer0_reset
   339 ;; This function is called by:
   340 ;;		_main
   341 ;; This function uses a non-reentrant model
   342 ;;
   343                           
   344                           	psect	text1
   345  000472                     __ptext1:
   346                           	opt stack 0
   347  000472                     _timer0_init:
   348                           	opt stack 26
   349                           
   350                           ;Timer.c: 7: RCONbits.IPEN = 1;
   351                           
   352                           ;incstack = 0
   353  000472  8ED0               	bsf	4048,7,c	;volatile
   354                           
   355                           ;Timer.c: 8: INTCON2bits.TMR0IP = 0;
   356  000474  94F1               	bcf	intcon2,2,c	;volatile
   357                           
   358                           ;Timer.c: 9: INTCONbits.TMR0IE = 1;
   359  000476  8AF2               	bsf	intcon,5,c	;volatile
   360                           
   361                           ;Timer.c: 10: INTCONbits.GIEH = 1;
   362  000478  8EF2               	bsf	intcon,7,c	;volatile
   363                           
   364                           ;Timer.c: 11: INTCONbits.GIEL = 1;
   365  00047A  8CF2               	bsf	intcon,6,c	;volatile
   366                           
   367                           ;Timer.c: 12: T0CON = 0;
   368  00047C  0E00               	movlw	0
   369  00047E  6ED5               	movwf	4053,c	;volatile
   370                           
   371                           ;Timer.c: 13: timer0_reset();
   372  000480  EC43  F002         	call	_timer0_reset	;wreg free
   373  000484  0012               	return		;funcret
   374  000486                     __end_of_timer0_init:
   375                           	opt stack 0
   376                           tblptru	equ	0xFF8
   377                           tblptrh	equ	0xFF7
   378                           tblptrl	equ	0xFF6
   379                           tablat	equ	0xFF5
   380                           intcon	equ	0xFF2
   381                           intcon2	equ	0xFF1
   382                           
   383 ;; *************** function _timer0_reset *****************
   384 ;; Defined at:
   385 ;;		line 16 in file "Timer.c"
   386 ;; Parameters:    Size  Location     Type
   387 ;;		None
   388 ;; Auto vars:     Size  Location     Type
   389 ;;		None
   390 ;; Return value:  Size  Location     Type
   391 ;;                  1    wreg      void 
   392 ;; Registers used:
   393 ;;		wreg, status,2
   394 ;; Tracked objects:
   395 ;;		On entry : 0/0
   396 ;;		On exit  : 0/0
   397 ;;		Unchanged: 0/0
   398 ;; Data sizes:     COMRAM   BANK0   BANK1   BANK2   BANK3   BANK4   BANK5   BANK6   BANK7   BANK8   BANK9  BANK10  BANK1
      +1  BANK12  BANK13  BANK14  BANK15
   399 ;;      Params:         0       0       0       0       0       0       0       0       0       0       0       0       
      +0       0       0       0       0
   400 ;;      Locals:         0       0       0       0       0       0       0       0       0       0       0       0       
      +0       0       0       0       0
   401 ;;      Temps:          0       0       0       0       0       0       0       0       0       0       0       0       
      +0       0       0       0       0
   402 ;;      Totals:         0       0       0       0       0       0       0       0       0       0       0       0       
      +0       0       0       0       0
   403 ;;Total ram usage:        0 bytes
   404 ;; Hardware stack levels used:    1
   405 ;; Hardware stack levels required when called:    3
   406 ;; This function calls:
   407 ;;		Nothing
   408 ;; This function is called by:
   409 ;;		_timer0_init
   410 ;; This function uses a non-reentrant model
   411 ;;
   412                           
   413                           	psect	text2
   414  000486                     __ptext2:
   415                           	opt stack 0
   416  000486                     _timer0_reset:
   417                           	opt stack 26
   418                           
   419                           ;Timer.c: 18: TMR0IF = 0;
   420                           
   421                           ;incstack = 0
   422  000486  94F2               	bcf	intcon,2,c	;volatile
   423                           
   424                           ;Timer.c: 19: TMR0ON = 0;
   425  000488  9ED5               	bcf	4053,7,c	;volatile
   426                           
   427                           ;Timer.c: 20: TMR0 = -1250000;
   428  00048A  0EED               	movlw	237
   429  00048C  6ED7               	movwf	4055,c	;volatile
   430  00048E  0E30               	movlw	48
   431  000490  6ED6               	movwf	4054,c	;volatile
   432                           
   433                           ;Timer.c: 21: TMR0ON = 1;
   434  000492  8ED5               	bsf	4053,7,c	;volatile
   435  000494  0012               	return		;funcret
   436  000496                     __end_of_timer0_reset:
   437                           	opt stack 0
   438                           tblptru	equ	0xFF8
   439                           tblptrh	equ	0xFF7
   440                           tblptrl	equ	0xFF6
   441                           tablat	equ	0xFF5
   442                           intcon	equ	0xFF2
   443                           intcon2	equ	0xFF1
   444                           
   445 ;; *************** function _pwm_init *****************
   446 ;; Defined at:
   447 ;;		line 33 in file "Tn09B.c"
   448 ;; Parameters:    Size  Location     Type
   449 ;;		None
   450 ;; Auto vars:     Size  Location     Type
   451 ;;		None
   452 ;; Return value:  Size  Location     Type
   453 ;;                  1    wreg      void 
   454 ;; Registers used:
   455 ;;		wreg, status,2, status,0, cstack
   456 ;; Tracked objects:
   457 ;;		On entry : 0/0
   458 ;;		On exit  : 0/0
   459 ;;		Unchanged: 0/0
   460 ;; Data sizes:     COMRAM   BANK0   BANK1   BANK2   BANK3   BANK4   BANK5   BANK6   BANK7   BANK8   BANK9  BANK10  BANK1
      +1  BANK12  BANK13  BANK14  BANK15
   461 ;;      Params:         0       0       0       0       0       0       0       0       0       0       0       0       
      +0       0       0       0       0
   462 ;;      Locals:         0       0       0       0       0       0       0       0       0       0       0       0       
      +0       0       0       0       0
   463 ;;      Temps:          2       0       0       0       0       0       0       0       0       0       0       0       
      +0       0       0       0       0
   464 ;;      Totals:         2       0       0       0       0       0       0       0       0       0       0       0       
      +0       0       0       0       0
   465 ;;Total ram usage:        2 bytes
   466 ;; Hardware stack levels used:    1
   467 ;; Hardware stack levels required when called:    5
   468 ;; This function calls:
   469 ;;		___ftmul
   470 ;;		___fttol
   471 ;;		___lwtoft
   472 ;; This function is called by:
   473 ;;		_main
   474 ;; This function uses a non-reentrant model
   475 ;;
   476                           
   477                           	psect	text3
   478  000376                     __ptext3:
   479                           	opt stack 0
   480  000376                     _pwm_init:
   481                           	opt stack 25
   482                           
   483                           ;Tn09B.c: 35: TRISCbits.RC2 = 0;
   484                           
   485                           ;incstack = 0
   486  000376  9494               	bcf	3988,2,c	;volatile
   487                           
   488                           ;Tn09B.c: 36: CCP1CON=0x0C;
   489  000378  0E0C               	movlw	12
   490  00037A  6EBD               	movwf	4029,c	;volatile
   491                           
   492                           ;Tn09B.c: 37: T2CON = 0x06;
   493  00037C  0E06               	movlw	6
   494  00037E  6ECA               	movwf	4042,c	;volatile
   495                           
   496                           ;Tn09B.c: 38: PR2 = 159;
   497  000380  0E9F               	movlw	159
   498  000382  6ECB               	movwf	4043,c	;volatile
   499                           
   500                           ;Tn09B.c: 39: CCPR1L = temp;
   501  000384  C047  FFBE         	movff	_temp,4030	;volatile
   502                           
   503                           ;Tn09B.c: 40: CCP1CONbits.DC1B1 = 0;
   504  000388  9ABD               	bcf	4029,5,c	;volatile
   505                           
   506                           ;Tn09B.c: 41: CCP1CONbits.DC1B0=0;
   507  00038A  98BD               	bcf	4029,4,c	;volatile
   508                           
   509                           ;Tn09B.c: 42: period = (159+1)*4*0.1*0b00000110;
   510  00038C  0E01               	movlw	1
   511  00038E  6E44               	movwf	_period+1,c	;volatile
   512  000390  0E80               	movlw	128
   513  000392  6E43               	movwf	_period,c	;volatile
   514                           
   515                           ;Tn09B.c: 43: x = 20*4+DC1B1*2+DC1B0;
   516  000394  AABD               	btfss	4029,5,c	;volatile
   517  000396  D002               	goto	u520
   518  000398  0E01               	movlw	1
   519  00039A  D001               	goto	u530
   520  00039C                     u520:
   521  00039C  0E00               	movlw	0
   522  00039E                     u530:
   523  00039E  6E3F               	movwf	??_pwm_init& (0+255),c
   524  0003A0  6A40               	clrf	(??_pwm_init+1)& (0+255),c
   525  0003A2  90D8               	bcf	status,0,c
   526  0003A4  363F               	rlcf	??_pwm_init,f,c
   527  0003A6  3640               	rlcf	??_pwm_init+1,f,c
   528  0003A8  A8BD               	btfss	4029,4,c	;volatile
   529  0003AA  D002               	goto	u540
   530  0003AC  0E01               	movlw	1
   531  0003AE  D001               	goto	u550
   532  0003B0                     u540:
   533  0003B0  0E00               	movlw	0
   534  0003B2                     u550:
   535  0003B2  263F               	addwf	??_pwm_init,f,c
   536  0003B4  0E00               	movlw	0
   537  0003B6  2240               	addwfc	??_pwm_init+1,f,c
   538  0003B8  0E50               	movlw	80
   539  0003BA  243F               	addwf	??_pwm_init,w,c
   540  0003BC  6E45               	movwf	_x,c	;volatile
   541  0003BE  0E00               	movlw	0
   542  0003C0  2040               	addwfc	??_pwm_init+1,w,c
   543  0003C2  6E46               	movwf	_x+1,c	;volatile
   544                           
   545                           ;Tn09B.c: 44: dutycycle = x*0.1*0b00000110;
   546  0003C4  0E9A               	movlw	154
   547  0003C6  6E24               	movwf	___ftmul@f2,c
   548  0003C8  0E19               	movlw	25
   549  0003CA  6E25               	movwf	___ftmul@f2+1,c
   550  0003CC  0E3F               	movlw	63
   551  0003CE  6E26               	movwf	___ftmul@f2+2,c
   552  0003D0  C045  F01E         	movff	_x,___lwtoft@c	;volatile
   553  0003D4  C046  F01F         	movff	_x+1,___lwtoft@c+1	;volatile
   554  0003D8  EC16  F002         	call	___lwtoft	;wreg free
   555  0003DC  C01E  F021         	movff	?___lwtoft,___ftmul@f1
   556  0003E0  C01F  F022         	movff	?___lwtoft+1,___ftmul@f1+1
   557  0003E4  C020  F023         	movff	?___lwtoft+2,___ftmul@f1+2
   558  0003E8  ECEA  F000         	call	___ftmul	;wreg free
   559  0003EC  C021  F030         	movff	?___ftmul,___fttol@f1
   560  0003F0  C022  F031         	movff	?___ftmul+1,___fttol@f1+1
   561  0003F4  C023  F032         	movff	?___ftmul+2,___fttol@f1+2
   562  0003F8  EC70  F000         	call	___fttol	;wreg free
   563  0003FC  C030  F041         	movff	?___fttol,_dutycycle	;volatile
   564  000400  C031  F042         	movff	?___fttol+1,_dutycycle+1	;volatile
   565  000404  0012               	return		;funcret
   566  000406                     __end_of_pwm_init:
   567                           	opt stack 0
   568                           tblptru	equ	0xFF8
   569                           tblptrh	equ	0xFF7
   570                           tblptrl	equ	0xFF6
   571                           tablat	equ	0xFF5
   572                           intcon	equ	0xFF2
   573                           intcon2	equ	0xFF1
   574                           status	equ	0xFD8
   575                           
   576 ;; *************** function ___lwtoft *****************
   577 ;; Defined at:
   578 ;;		line 28 in file "E:\MPLABX\sources\common\lwtoft.c"
   579 ;; Parameters:    Size  Location     Type
   580 ;;  c               2   29[COMRAM] unsigned int 
   581 ;; Auto vars:     Size  Location     Type
   582 ;;		None
   583 ;; Return value:  Size  Location     Type
   584 ;;                  3   29[COMRAM] float 
   585 ;; Registers used:
   586 ;;		wreg, status,2, status,0, cstack
   587 ;; Tracked objects:
   588 ;;		On entry : 0/0
   589 ;;		On exit  : 0/0
   590 ;;		Unchanged: 0/0
   591 ;; Data sizes:     COMRAM   BANK0   BANK1   BANK2   BANK3   BANK4   BANK5   BANK6   BANK7   BANK8   BANK9  BANK10  BANK1
      +1  BANK12  BANK13  BANK14  BANK15
   592 ;;      Params:         3       0       0       0       0       0       0       0       0       0       0       0       
      +0       0       0       0       0
   593 ;;      Locals:         0       0       0       0       0       0       0       0       0       0       0       0       
      +0       0       0       0       0
   594 ;;      Temps:          0       0       0       0       0       0       0       0       0       0       0       0       
      +0       0       0       0       0
   595 ;;      Totals:         3       0       0       0       0       0       0       0       0       0       0       0       
      +0       0       0       0       0
   596 ;;Total ram usage:        3 bytes
   597 ;; Hardware stack levels used:    1
   598 ;; Hardware stack levels required when called:    4
   599 ;; This function calls:
   600 ;;		___ftpack
   601 ;; This function is called by:
   602 ;;		_pwm_init
   603 ;; This function uses a non-reentrant model
   604 ;;
   605                           
   606                           	psect	text4
   607  00042C                     __ptext4:
   608                           	opt stack 0
   609  00042C                     ___lwtoft:
   610                           	opt stack 25
   611                           
   612                           ;incstack = 0
   613  00042C  C01E  F016         	movff	___lwtoft@c,___ftpack@arg
   614  000430  C01F  F017         	movff	___lwtoft@c+1,___ftpack@arg+1
   615  000434  6A18               	clrf	___ftpack@arg+2,c
   616  000436  0E8E               	movlw	142
   617  000438  6E19               	movwf	___ftpack@exp,c
   618  00043A  0E00               	movlw	0
   619  00043C  6E1A               	movwf	___ftpack@sign,c
   620  00043E  EC64  F001         	call	___ftpack	;wreg free
   621  000442  C016  F01E         	movff	?___ftpack,?___lwtoft
   622  000446  C017  F01F         	movff	?___ftpack+1,?___lwtoft+1
   623  00044A  C018  F020         	movff	?___ftpack+2,?___lwtoft+2
   624  00044E  0012               	return	
   625  000450                     __end_of___lwtoft:
   626                           	opt stack 0
   627                           tblptru	equ	0xFF8
   628                           tblptrh	equ	0xFF7
   629                           tblptrl	equ	0xFF6
   630                           tablat	equ	0xFF5
   631                           intcon	equ	0xFF2
   632                           intcon2	equ	0xFF1
   633                           status	equ	0xFD8
   634                           
   635 ;; *************** function ___fttol *****************
   636 ;; Defined at:
   637 ;;		line 44 in file "E:\MPLABX\sources\common\fttol.c"
   638 ;; Parameters:    Size  Location     Type
   639 ;;  f1              3   47[COMRAM] float 
   640 ;; Auto vars:     Size  Location     Type
   641 ;;  lval            4   57[COMRAM] unsigned long 
   642 ;;  exp1            1   61[COMRAM] unsigned char 
   643 ;;  sign1           1   56[COMRAM] unsigned char 
   644 ;; Return value:  Size  Location     Type
   645 ;;                  4   47[COMRAM] long 
   646 ;; Registers used:
   647 ;;		wreg, status,2, status,0
   648 ;; Tracked objects:
   649 ;;		On entry : 0/0
   650 ;;		On exit  : 0/0
   651 ;;		Unchanged: 0/0
   652 ;; Data sizes:     COMRAM   BANK0   BANK1   BANK2   BANK3   BANK4   BANK5   BANK6   BANK7   BANK8   BANK9  BANK10  BANK1
      +1  BANK12  BANK13  BANK14  BANK15
   653 ;;      Params:         4       0       0       0       0       0       0       0       0       0       0       0       
      +0       0       0       0       0
   654 ;;      Locals:         6       0       0       0       0       0       0       0       0       0       0       0       
      +0       0       0       0       0
   655 ;;      Temps:          5       0       0       0       0       0       0       0       0       0       0       0       
      +0       0       0       0       0
   656 ;;      Totals:        15       0       0       0       0       0       0       0       0       0       0       0       
      +0       0       0       0       0
   657 ;;Total ram usage:       15 bytes
   658 ;; Hardware stack levels used:    1
   659 ;; Hardware stack levels required when called:    3
   660 ;; This function calls:
   661 ;;		Nothing
   662 ;; This function is called by:
   663 ;;		_pwm_init
   664 ;; This function uses a non-reentrant model
   665 ;;
   666                           
   667                           	psect	text5
   668  0000E0                     __ptext5:
   669                           	opt stack 0
   670  0000E0                     ___fttol:
   671                           	opt stack 26
   672                           
   673                           ;incstack = 0
   674  0000E0  C032  F034         	movff	___fttol@f1+2,??___fttol
   675  0000E4  6A35               	clrf	(??___fttol+1)& (0+255),c
   676  0000E6  6A36               	clrf	(??___fttol+2)& (0+255),c
   677  0000E8  3431               	rlcf	___fttol@f1+1,w,c
   678  0000EA  3634               	rlcf	??___fttol& (0+255),f,c
   679  0000EC  E301               	bnc	u441
   680  0000EE  8035               	bsf	(??___fttol+1)& (0+255),0,c
   681  0000F0                     u441:
   682  0000F0  5034               	movf	??___fttol,w,c
   683  0000F2  6E3E               	movwf	___fttol@exp1,c
   684  0000F4  503E               	movf	___fttol@exp1,w,c
   685  0000F6  A4D8               	btfss	status,2,c
   686  0000F8  D009               	goto	l407
   687  0000FA  0E00               	movlw	0
   688  0000FC  6E30               	movwf	?___fttol,c
   689  0000FE  0E00               	movlw	0
   690  000100  6E31               	movwf	?___fttol+1,c
   691  000102  0E00               	movlw	0
   692  000104  6E32               	movwf	?___fttol+2,c
   693  000106  0E00               	movlw	0
   694  000108  6E33               	movwf	?___fttol+3,c
   695  00010A  0012               	return	
   696  00010C                     l407:
   697  00010C  0E17               	movlw	23
   698  00010E  6E34               	movwf	??___fttol& (0+255),c
   699  000110  C030  F035         	movff	___fttol@f1,??___fttol+1
   700  000114  C031  F036         	movff	___fttol@f1+1,??___fttol+2
   701  000118  C032  F037         	movff	___fttol@f1+2,??___fttol+3
   702  00011C  2834               	incf	??___fttol,w,c
   703  00011E  6E38               	movwf	(??___fttol+4)& (0+255),c
   704  000120  D004               	goto	u460
   705  000122                     u465:
   706  000122  90D8               	bcf	status,0,c
   707  000124  3237               	rrcf	??___fttol+3,f,c
   708  000126  3236               	rrcf	??___fttol+2,f,c
   709  000128  3235               	rrcf	??___fttol+1,f,c
   710  00012A                     u460:
   711  00012A  2E38               	decfsz	(??___fttol+4)& (0+255),f,c
   712  00012C  D7FA               	goto	u465
   713  00012E  5035               	movf	??___fttol+1,w,c
   714  000130  6E39               	movwf	___fttol@sign1,c
   715  000132  8E31               	bsf	___fttol@f1+1,7,c
   716  000134  0EFF               	movlw	255
   717  000136  1630               	andwf	___fttol@f1,f,c
   718  000138  0EFF               	movlw	255
   719  00013A  1631               	andwf	___fttol@f1+1,f,c
   720  00013C  0E00               	movlw	0
   721  00013E  1632               	andwf	___fttol@f1+2,f,c
   722  000140  5030               	movf	___fttol@f1,w,c
   723  000142  6E3A               	movwf	___fttol@lval,c
   724  000144  5031               	movf	___fttol@f1+1,w,c
   725  000146  6E3B               	movwf	___fttol@lval+1,c
   726  000148  5032               	movf	___fttol@f1+2,w,c
   727  00014A  6E3C               	movwf	___fttol@lval+2,c
   728  00014C  6A3D               	clrf	___fttol@lval+3,c
   729  00014E  0E8E               	movlw	142
   730  000150  5E3E               	subwf	___fttol@exp1,f,c
   731  000152  AE3E               	btfss	___fttol@exp1,7,c
   732  000154  D016               	goto	l409
   733  000156  503E               	movf	___fttol@exp1,w,c
   734  000158  0A80               	xorlw	128
   735  00015A  0F8F               	addlw	143
   736  00015C  B0D8               	btfsc	status,0,c
   737  00015E  D009               	goto	l410
   738  000160  0E00               	movlw	0
   739  000162  6E30               	movwf	?___fttol,c
   740  000164  0E00               	movlw	0
   741  000166  6E31               	movwf	?___fttol+1,c
   742  000168  0E00               	movlw	0
   743  00016A  6E32               	movwf	?___fttol+2,c
   744  00016C  0E00               	movlw	0
   745  00016E  6E33               	movwf	?___fttol+3,c
   746  000170  0012               	return	
   747  000172                     l410:
   748  000172  90D8               	bcf	status,0,c
   749  000174  323D               	rrcf	___fttol@lval+3,f,c
   750  000176  323C               	rrcf	___fttol@lval+2,f,c
   751  000178  323B               	rrcf	___fttol@lval+1,f,c
   752  00017A  323A               	rrcf	___fttol@lval,f,c
   753  00017C  3E3E               	incfsz	___fttol@exp1,f,c
   754  00017E  D7F9               	goto	l410
   755  000180  D015               	goto	u500
   756  000182                     l409:
   757  000182  0E17               	movlw	23
   758  000184  643E               	cpfsgt	___fttol@exp1,c
   759  000186  D00F               	goto	l415
   760  000188  0E00               	movlw	0
   761  00018A  6E30               	movwf	?___fttol,c
   762  00018C  0E00               	movlw	0
   763  00018E  6E31               	movwf	?___fttol+1,c
   764  000190  0E00               	movlw	0
   765  000192  6E32               	movwf	?___fttol+2,c
   766  000194  0E00               	movlw	0
   767  000196  6E33               	movwf	?___fttol+3,c
   768  000198  0012               	return	
   769  00019A  90D8               	bcf	status,0,c
   770  00019C  363A               	rlcf	___fttol@lval,f,c
   771  00019E  363B               	rlcf	___fttol@lval+1,f,c
   772  0001A0  363C               	rlcf	___fttol@lval+2,f,c
   773  0001A2  363D               	rlcf	___fttol@lval+3,f,c
   774  0001A4  063E               	decf	___fttol@exp1,f,c
   775  0001A6                     l415:
   776  0001A6  503E               	movf	___fttol@exp1,w,c
   777  0001A8  A4D8               	btfss	status,2,c
   778  0001AA  D7F7               	goto	l416
   779  0001AC                     u500:
   780  0001AC  5039               	movf	___fttol@sign1,w,c
   781  0001AE  B4D8               	btfsc	status,2,c
   782  0001B0  D008               	goto	l418
   783  0001B2  1E3D               	comf	___fttol@lval+3,f,c
   784  0001B4  1E3C               	comf	___fttol@lval+2,f,c
   785  0001B6  1E3B               	comf	___fttol@lval+1,f,c
   786  0001B8  6C3A               	negf	___fttol@lval,c
   787  0001BA  0E00               	movlw	0
   788  0001BC  223B               	addwfc	___fttol@lval+1,f,c
   789  0001BE  223C               	addwfc	___fttol@lval+2,f,c
   790  0001C0  223D               	addwfc	___fttol@lval+3,f,c
   791  0001C2                     l418:
   792  0001C2  C03A  F030         	movff	___fttol@lval,?___fttol
   793  0001C6  C03B  F031         	movff	___fttol@lval+1,?___fttol+1
   794  0001CA  C03C  F032         	movff	___fttol@lval+2,?___fttol+2
   795  0001CE  C03D  F033         	movff	___fttol@lval+3,?___fttol+3
   796  0001D2  0012               	return	
   797  0001D4                     __end_of___fttol:
   798                           	opt stack 0
   799                           tblptru	equ	0xFF8
   800                           tblptrh	equ	0xFF7
   801                           tblptrl	equ	0xFF6
   802                           tablat	equ	0xFF5
   803                           intcon	equ	0xFF2
   804                           intcon2	equ	0xFF1
   805                           status	equ	0xFD8
   806                           
   807 ;; *************** function ___ftmul *****************
   808 ;; Defined at:
   809 ;;		line 62 in file "E:\MPLABX\sources\common\ftmul.c"
   810 ;; Parameters:    Size  Location     Type
   811 ;;  f1              3   32[COMRAM] float 
   812 ;;  f2              3   35[COMRAM] float 
   813 ;; Auto vars:     Size  Location     Type
   814 ;;  f3_as_produc    3   42[COMRAM] unsigned um
   815 ;;  sign            1   46[COMRAM] unsigned char 
   816 ;;  cntr            1   45[COMRAM] unsigned char 
   817 ;;  exp             1   41[COMRAM] unsigned char 
   818 ;; Return value:  Size  Location     Type
   819 ;;                  3   32[COMRAM] float 
   820 ;; Registers used:
   821 ;;		wreg, status,2, status,0, cstack
   822 ;; Tracked objects:
   823 ;;		On entry : 0/0
   824 ;;		On exit  : 0/0
   825 ;;		Unchanged: 0/0
   826 ;; Data sizes:     COMRAM   BANK0   BANK1   BANK2   BANK3   BANK4   BANK5   BANK6   BANK7   BANK8   BANK9  BANK10  BANK1
      +1  BANK12  BANK13  BANK14  BANK15
   827 ;;      Params:         6       0       0       0       0       0       0       0       0       0       0       0       
      +0       0       0       0       0
   828 ;;      Locals:         6       0       0       0       0       0       0       0       0       0       0       0       
      +0       0       0       0       0
   829 ;;      Temps:          3       0       0       0       0       0       0       0       0       0       0       0       
      +0       0       0       0       0
   830 ;;      Totals:        15       0       0       0       0       0       0       0       0       0       0       0       
      +0       0       0       0       0
   831 ;;Total ram usage:       15 bytes
   832 ;; Hardware stack levels used:    1
   833 ;; Hardware stack levels required when called:    4
   834 ;; This function calls:
   835 ;;		___ftpack
   836 ;; This function is called by:
   837 ;;		_pwm_init
   838 ;; This function uses a non-reentrant model
   839 ;;
   840                           
   841                           	psect	text6
   842  0001D4                     __ptext6:
   843                           	opt stack 0
   844  0001D4                     ___ftmul:
   845                           	opt stack 25
   846                           
   847                           ;incstack = 0
   848  0001D4  C023  F027         	movff	___ftmul@f1+2,??___ftmul
   849  0001D8  6A28               	clrf	(??___ftmul+1)& (0+255),c
   850  0001DA  6A29               	clrf	(??___ftmul+2)& (0+255),c
   851  0001DC  3422               	rlcf	___ftmul@f1+1,w,c
   852  0001DE  3627               	rlcf	??___ftmul& (0+255),f,c
   853  0001E0  E301               	bnc	u381
   854  0001E2  8028               	bsf	(??___ftmul+1)& (0+255),0,c
   855  0001E4                     u381:
   856  0001E4  5027               	movf	??___ftmul,w,c
   857  0001E6  6E2A               	movwf	___ftmul@exp,c
   858  0001E8  502A               	movf	___ftmul@exp,w,c
   859  0001EA  A4D8               	btfss	status,2,c
   860  0001EC  D007               	goto	l386
   861  0001EE  0E00               	movlw	0
   862  0001F0  6E21               	movwf	?___ftmul,c
   863  0001F2  0E00               	movlw	0
   864  0001F4  6E22               	movwf	?___ftmul+1,c
   865  0001F6  0E00               	movlw	0
   866  0001F8  6E23               	movwf	?___ftmul+2,c
   867  0001FA  0012               	return	
   868  0001FC                     l386:
   869  0001FC  C026  F027         	movff	___ftmul@f2+2,??___ftmul
   870  000200  6A28               	clrf	(??___ftmul+1)& (0+255),c
   871  000202  6A29               	clrf	(??___ftmul+2)& (0+255),c
   872  000204  3425               	rlcf	___ftmul@f2+1,w,c
   873  000206  3627               	rlcf	??___ftmul& (0+255),f,c
   874  000208  E301               	bnc	u401
   875  00020A  8028               	bsf	(??___ftmul+1)& (0+255),0,c
   876  00020C                     u401:
   877  00020C  5027               	movf	??___ftmul,w,c
   878  00020E  6E2F               	movwf	___ftmul@sign,c
   879  000210  502F               	movf	___ftmul@sign,w,c
   880  000212  A4D8               	btfss	status,2,c
   881  000214  D007               	goto	l388
   882  000216  0E00               	movlw	0
   883  000218  6E21               	movwf	?___ftmul,c
   884  00021A  0E00               	movlw	0
   885  00021C  6E22               	movwf	?___ftmul+1,c
   886  00021E  0E00               	movlw	0
   887  000220  6E23               	movwf	?___ftmul+2,c
   888  000222  0012               	return	
   889  000224                     l388:
   890  000224  502F               	movf	___ftmul@sign,w,c
   891  000226  0F7B               	addlw	123
   892  000228  262A               	addwf	___ftmul@exp,f,c
   893  00022A  C023  F02F         	movff	___ftmul@f1+2,___ftmul@sign
   894  00022E  5026               	movf	___ftmul@f2+2,w,c
   895  000230  1A2F               	xorwf	___ftmul@sign,f,c
   896  000232  0E80               	movlw	128
   897  000234  162F               	andwf	___ftmul@sign,f,c
   898  000236  8E22               	bsf	___ftmul@f1+1,7,c
   899  000238  8E25               	bsf	___ftmul@f2+1,7,c
   900  00023A  0EFF               	movlw	255
   901  00023C  1624               	andwf	___ftmul@f2,f,c
   902  00023E  0EFF               	movlw	255
   903  000240  1625               	andwf	___ftmul@f2+1,f,c
   904  000242  0E00               	movlw	0
   905  000244  1626               	andwf	___ftmul@f2+2,f,c
   906  000246  0E00               	movlw	0
   907  000248  6E2B               	movwf	___ftmul@f3_as_product,c
   908  00024A  0E00               	movlw	0
   909  00024C  6E2C               	movwf	___ftmul@f3_as_product+1,c
   910  00024E  0E00               	movlw	0
   911  000250  6E2D               	movwf	___ftmul@f3_as_product+2,c
   912  000252  0E07               	movlw	7
   913  000254  6E2E               	movwf	___ftmul@cntr,c
   914  000256  A021               	btfss	___ftmul@f1,0,c
   915  000258  D006               	goto	l390
   916  00025A  5024               	movf	___ftmul@f2,w,c
   917  00025C  262B               	addwf	___ftmul@f3_as_product,f,c
   918  00025E  5025               	movf	___ftmul@f2+1,w,c
   919  000260  222C               	addwfc	___ftmul@f3_as_product+1,f,c
   920  000262  5026               	movf	___ftmul@f2+2,w,c
   921  000264  222D               	addwfc	___ftmul@f3_as_product+2,f,c
   922  000266                     l390:
   923  000266  90D8               	bcf	status,0,c
   924  000268  3223               	rrcf	___ftmul@f1+2,f,c
   925  00026A  3222               	rrcf	___ftmul@f1+1,f,c
   926  00026C  3221               	rrcf	___ftmul@f1,f,c
   927  00026E  90D8               	bcf	status,0,c
   928  000270  3624               	rlcf	___ftmul@f2,f,c
   929  000272  3625               	rlcf	___ftmul@f2+1,f,c
   930  000274  3626               	rlcf	___ftmul@f2+2,f,c
   931  000276  2E2E               	decfsz	___ftmul@cntr,f,c
   932  000278  D7EE               	goto	l389
   933  00027A  0E09               	movlw	9
   934  00027C  6E2E               	movwf	___ftmul@cntr,c
   935  00027E  A021               	btfss	___ftmul@f1,0,c
   936  000280  D006               	goto	l393
   937  000282  5024               	movf	___ftmul@f2,w,c
   938  000284  262B               	addwf	___ftmul@f3_as_product,f,c
   939  000286  5025               	movf	___ftmul@f2+1,w,c
   940  000288  222C               	addwfc	___ftmul@f3_as_product+1,f,c
   941  00028A  5026               	movf	___ftmul@f2+2,w,c
   942  00028C  222D               	addwfc	___ftmul@f3_as_product+2,f,c
   943  00028E                     l393:
   944  00028E  90D8               	bcf	status,0,c
   945  000290  3223               	rrcf	___ftmul@f1+2,f,c
   946  000292  3222               	rrcf	___ftmul@f1+1,f,c
   947  000294  3221               	rrcf	___ftmul@f1,f,c
   948  000296  90D8               	bcf	status,0,c
   949  000298  322D               	rrcf	___ftmul@f3_as_product+2,f,c
   950  00029A  322C               	rrcf	___ftmul@f3_as_product+1,f,c
   951  00029C  322B               	rrcf	___ftmul@f3_as_product,f,c
   952  00029E  2E2E               	decfsz	___ftmul@cntr,f,c
   953  0002A0  D7EE               	goto	l392
   954  0002A2  C02B  F016         	movff	___ftmul@f3_as_product,___ftpack@arg
   955  0002A6  C02C  F017         	movff	___ftmul@f3_as_product+1,___ftpack@arg+1
   956  0002AA  C02D  F018         	movff	___ftmul@f3_as_product+2,___ftpack@arg+2
   957  0002AE  C02A  F019         	movff	___ftmul@exp,___ftpack@exp
   958  0002B2  C02F  F01A         	movff	___ftmul@sign,___ftpack@sign
   959  0002B6  EC64  F001         	call	___ftpack	;wreg free
   960  0002BA  C016  F021         	movff	?___ftpack,?___ftmul
   961  0002BE  C017  F022         	movff	?___ftpack+1,?___ftmul+1
   962  0002C2  C018  F023         	movff	?___ftpack+2,?___ftmul+2
   963  0002C6  0012               	return	
   964  0002C8                     __end_of___ftmul:
   965                           	opt stack 0
   966                           tblptru	equ	0xFF8
   967                           tblptrh	equ	0xFF7
   968                           tblptrl	equ	0xFF6
   969                           tablat	equ	0xFF5
   970                           intcon	equ	0xFF2
   971                           intcon2	equ	0xFF1
   972                           status	equ	0xFD8
   973                           
   974 ;; *************** function ___ftpack *****************
   975 ;; Defined at:
   976 ;;		line 62 in file "E:\MPLABX\sources\common\float.c"
   977 ;; Parameters:    Size  Location     Type
   978 ;;  arg             3   21[COMRAM] unsigned um
   979 ;;  exp             1   24[COMRAM] unsigned char 
   980 ;;  sign            1   25[COMRAM] unsigned char 
   981 ;; Auto vars:     Size  Location     Type
   982 ;;		None
   983 ;; Return value:  Size  Location     Type
   984 ;;                  3   21[COMRAM] float 
   985 ;; Registers used:
   986 ;;		wreg, status,2, status,0
   987 ;; Tracked objects:
   988 ;;		On entry : 0/0
   989 ;;		On exit  : 0/0
   990 ;;		Unchanged: 0/0
   991 ;; Data sizes:     COMRAM   BANK0   BANK1   BANK2   BANK3   BANK4   BANK5   BANK6   BANK7   BANK8   BANK9  BANK10  BANK1
      +1  BANK12  BANK13  BANK14  BANK15
   992 ;;      Params:         5       0       0       0       0       0       0       0       0       0       0       0       
      +0       0       0       0       0
   993 ;;      Locals:         0       0       0       0       0       0       0       0       0       0       0       0       
      +0       0       0       0       0
   994 ;;      Temps:          3       0       0       0       0       0       0       0       0       0       0       0       
      +0       0       0       0       0
   995 ;;      Totals:         8       0       0       0       0       0       0       0       0       0       0       0       
      +0       0       0       0       0
   996 ;;Total ram usage:        8 bytes
   997 ;; Hardware stack levels used:    1
   998 ;; Hardware stack levels required when called:    3
   999 ;; This function calls:
  1000 ;;		Nothing
  1001 ;; This function is called by:
  1002 ;;		___ftmul
  1003 ;;		___lwtoft
  1004 ;; This function uses a non-reentrant model
  1005 ;;
  1006                           
  1007                           	psect	text7
  1008  0002C8                     __ptext7:
  1009                           	opt stack 0
  1010  0002C8                     ___ftpack:
  1011                           	opt stack 25
  1012                           
  1013                           ;incstack = 0
  1014  0002C8  5019               	movf	___ftpack@exp,w,c
  1015  0002CA  B4D8               	btfsc	status,2,c
  1016  0002CC  D005               	goto	u310
  1017  0002CE  5016               	movf	___ftpack@arg,w,c
  1018  0002D0  1017               	iorwf	___ftpack@arg+1,w,c
  1019  0002D2  1018               	iorwf	___ftpack@arg+2,w,c
  1020  0002D4  A4D8               	btfss	status,2,c
  1021  0002D6  D00C               	goto	l307
  1022  0002D8                     u310:
  1023  0002D8  0E00               	movlw	0
  1024  0002DA  6E16               	movwf	?___ftpack,c
  1025  0002DC  0E00               	movlw	0
  1026  0002DE  6E17               	movwf	?___ftpack+1,c
  1027  0002E0  0E00               	movlw	0
  1028  0002E2  6E18               	movwf	?___ftpack+2,c
  1029  0002E4  0012               	return	
  1030  0002E6  2A19               	incf	___ftpack@exp,f,c
  1031  0002E8  90D8               	bcf	status,0,c
  1032  0002EA  3218               	rrcf	___ftpack@arg+2,f,c
  1033  0002EC  3217               	rrcf	___ftpack@arg+1,f,c
  1034  0002EE  3216               	rrcf	___ftpack@arg,f,c
  1035  0002F0                     l307:
  1036  0002F0  0E00               	movlw	0
  1037  0002F2  1416               	andwf	___ftpack@arg,w,c
  1038  0002F4  6E1B               	movwf	??___ftpack& (0+255),c
  1039  0002F6  0E00               	movlw	0
  1040  0002F8  1417               	andwf	___ftpack@arg+1,w,c
  1041  0002FA  6E1C               	movwf	(??___ftpack+1)& (0+255),c
  1042  0002FC  0EFE               	movlw	254
  1043  0002FE  1418               	andwf	___ftpack@arg+2,w,c
  1044  000300  6E1D               	movwf	(??___ftpack+2)& (0+255),c
  1045  000302  501B               	movf	??___ftpack,w,c
  1046  000304  101C               	iorwf	??___ftpack+1,w,c
  1047  000306  101D               	iorwf	??___ftpack+2,w,c
  1048  000308  B4D8               	btfsc	status,2,c
  1049  00030A  D00C               	goto	l310
  1050  00030C  D7EC               	goto	l308
  1051  00030E  2A19               	incf	___ftpack@exp,f,c
  1052  000310  0E01               	movlw	1
  1053  000312  2616               	addwf	___ftpack@arg,f,c
  1054  000314  0E00               	movlw	0
  1055  000316  2217               	addwfc	___ftpack@arg+1,f,c
  1056  000318  0E00               	movlw	0
  1057  00031A  2218               	addwfc	___ftpack@arg+2,f,c
  1058  00031C  90D8               	bcf	status,0,c
  1059  00031E  3218               	rrcf	___ftpack@arg+2,f,c
  1060  000320  3217               	rrcf	___ftpack@arg+1,f,c
  1061  000322  3216               	rrcf	___ftpack@arg,f,c
  1062  000324                     l310:
  1063  000324  0E00               	movlw	0
  1064  000326  1416               	andwf	___ftpack@arg,w,c
  1065  000328  6E1B               	movwf	??___ftpack& (0+255),c
  1066  00032A  0E00               	movlw	0
  1067  00032C  1417               	andwf	___ftpack@arg+1,w,c
  1068  00032E  6E1C               	movwf	(??___ftpack+1)& (0+255),c
  1069  000330  0EFF               	movlw	255
  1070  000332  1418               	andwf	___ftpack@arg+2,w,c
  1071  000334  6E1D               	movwf	(??___ftpack+2)& (0+255),c
  1072  000336  501B               	movf	??___ftpack,w,c
  1073  000338  101C               	iorwf	??___ftpack+1,w,c
  1074  00033A  101D               	iorwf	??___ftpack+2,w,c
  1075  00033C  B4D8               	btfsc	status,2,c
  1076  00033E  D006               	goto	l313
  1077  000340  D7E6               	goto	l311
  1078  000342  0619               	decf	___ftpack@exp,f,c
  1079  000344  90D8               	bcf	status,0,c
  1080  000346  3616               	rlcf	___ftpack@arg,f,c
  1081  000348  3617               	rlcf	___ftpack@arg+1,f,c
  1082  00034A  3618               	rlcf	___ftpack@arg+2,f,c
  1083  00034C                     l313:
  1084  00034C  BE17               	btfsc	___ftpack@arg+1,7,c
  1085  00034E  D003               	goto	u350
  1086  000350  0E02               	movlw	2
  1087  000352  6019               	cpfslt	___ftpack@exp,c
  1088  000354  D7F6               	goto	l314
  1089  000356                     u350:
  1090  000356  A019               	btfss	___ftpack@exp,0,c
  1091  000358  9E17               	bcf	___ftpack@arg+1,7,c
  1092  00035A  90D8               	bcf	status,0,c
  1093  00035C  3219               	rrcf	___ftpack@exp,f,c
  1094  00035E  5019               	movf	___ftpack@exp,w,c
  1095  000360  1218               	iorwf	___ftpack@arg+2,f,c
  1096  000362  501A               	movf	___ftpack@sign,w,c
  1097  000364  A4D8               	btfss	status,2,c
  1098  000366  8E18               	bsf	___ftpack@arg+2,7,c
  1099  000368  C016  F016         	movff	___ftpack@arg,?___ftpack
  1100  00036C  C017  F017         	movff	___ftpack@arg+1,?___ftpack+1
  1101  000370  C018  F018         	movff	___ftpack@arg+2,?___ftpack+2
  1102  000374  0012               	return	
  1103  000376                     __end_of___ftpack:
  1104                           	opt stack 0
  1105                           tblptru	equ	0xFF8
  1106                           tblptrh	equ	0xFF7
  1107                           tblptrl	equ	0xFF6
  1108                           tablat	equ	0xFF5
  1109                           intcon	equ	0xFF2
  1110                           intcon2	equ	0xFF1
  1111                           status	equ	0xFD8
  1112                           
  1113 ;; *************** function _init *****************
  1114 ;; Defined at:
  1115 ;;		line 24 in file "Tn09B.c"
  1116 ;; Parameters:    Size  Location     Type
  1117 ;;		None
  1118 ;; Auto vars:     Size  Location     Type
  1119 ;;		None
  1120 ;; Return value:  Size  Location     Type
  1121 ;;                  1    wreg      void 
  1122 ;; Registers used:
  1123 ;;		wreg, status,2
  1124 ;; Tracked objects:
  1125 ;;		On entry : 0/0
  1126 ;;		On exit  : 0/0
  1127 ;;		Unchanged: 0/0
  1128 ;; Data sizes:     COMRAM   BANK0   BANK1   BANK2   BANK3   BANK4   BANK5   BANK6   BANK7   BANK8   BANK9  BANK10  BANK1
      +1  BANK12  BANK13  BANK14  BANK15
  1129 ;;      Params:         0       0       0       0       0       0       0       0       0       0       0       0       
      +0       0       0       0       0
  1130 ;;      Locals:         0       0       0       0       0       0       0       0       0       0       0       0       
      +0       0       0       0       0
  1131 ;;      Temps:          0       0       0       0       0       0       0       0       0       0       0       0       
      +0       0       0       0       0
  1132 ;;      Totals:         0       0       0       0       0       0       0       0       0       0       0       0       
      +0       0       0       0       0
  1133 ;;Total ram usage:        0 bytes
  1134 ;; Hardware stack levels used:    1
  1135 ;; Hardware stack levels required when called:    3
  1136 ;; This function calls:
  1137 ;;		Nothing
  1138 ;; This function is called by:
  1139 ;;		_main
  1140 ;; This function uses a non-reentrant model
  1141 ;;
  1142                           
  1143                           	psect	text8
  1144  000496                     __ptext8:
  1145                           	opt stack 0
  1146  000496                     _init:
  1147                           	opt stack 27
  1148                           
  1149                           ;Tn09B.c: 26: ADCON1=0x0F;
  1150                           
  1151                           ;incstack = 0
  1152  000496  0E0F               	movlw	15
  1153  000498  6EC1               	movwf	4033,c	;volatile
  1154                           
  1155                           ;Tn09B.c: 27: TRISD=0;
  1156  00049A  0E00               	movlw	0
  1157  00049C  6E95               	movwf	3989,c	;volatile
  1158                           
  1159                           ;Tn09B.c: 28: led=0x01;
  1160  00049E  0E01               	movlw	1
  1161  0004A0  6E8C               	movwf	3980,c	;volatile
  1162                           
  1163                           ;Tn09B.c: 29: TRISAbits.RA5 = 1;
  1164  0004A2  8A92               	bsf	3986,5,c	;volatile
  1165  0004A4  0012               	return		;funcret
  1166  0004A6                     __end_of_init:
  1167                           	opt stack 0
  1168                           tblptru	equ	0xFF8
  1169                           tblptrh	equ	0xFF7
  1170                           tblptrl	equ	0xFF6
  1171                           tablat	equ	0xFF5
  1172                           intcon	equ	0xFF2
  1173                           intcon2	equ	0xFF1
  1174                           status	equ	0xFD8
  1175                           
  1176 ;; *************** function _timer0_isr *****************
  1177 ;; Defined at:
  1178 ;;		line 24 in file "Timer.c"
  1179 ;; Parameters:    Size  Location     Type
  1180 ;;		None
  1181 ;; Auto vars:     Size  Location     Type
  1182 ;;		None
  1183 ;; Return value:  Size  Location     Type
  1184 ;;                  1    wreg      void 
  1185 ;; Registers used:
  1186 ;;		wreg, status,2, status,0, cstack
  1187 ;; Tracked objects:
  1188 ;;		On entry : 0/0
  1189 ;;		On exit  : 0/0
  1190 ;;		Unchanged: 0/0
  1191 ;; Data sizes:     COMRAM   BANK0   BANK1   BANK2   BANK3   BANK4   BANK5   BANK6   BANK7   BANK8   BANK9  BANK10  BANK1
      +1  BANK12  BANK13  BANK14  BANK15
  1192 ;;      Params:         0       0       0       0       0       0       0       0       0       0       0       0       
      +0       0       0       0       0
  1193 ;;      Locals:         0       0       0       0       0       0       0       0       0       0       0       0       
      +0       0       0       0       0
  1194 ;;      Temps:         21       0       0       0       0       0       0       0       0       0       0       0       
      +0       0       0       0       0
  1195 ;;      Totals:        21       0       0       0       0       0       0       0       0       0       0       0       
      +0       0       0       0       0
  1196 ;;Total ram usage:       21 bytes
  1197 ;; Hardware stack levels used:    1
  1198 ;; Hardware stack levels required when called:    2
  1199 ;; This function calls:
  1200 ;;		_timer_process
  1201 ;;		i1_timer0_reset
  1202 ;; This function is called by:
  1203 ;;		Interrupt level 1
  1204 ;; This function uses a non-reentrant model
  1205 ;;
  1206                           
  1207                           	psect	intcodelo
  1208  000018                     __pintcodelo:
  1209                           	opt stack 0
  1210  000018                     _timer0_isr:
  1211                           	opt stack 25
  1212                           
  1213                           ;incstack = 0
  1214  000018  8049               	bsf	btemp,0,c	;set compiler interrupt flag (level 1)
  1215  00001A  CFD8 F001          	movff	status,??_timer0_isr
  1216  00001E  CFE8 F002          	movff	wreg,??_timer0_isr+1
  1217  000022  CFE0 F003          	movff	bsr,??_timer0_isr+2
  1218  000026  CFFA F004          	movff	pclath,??_timer0_isr+3
  1219  00002A  CFFB F005          	movff	pclatu,??_timer0_isr+4
  1220  00002E  CFE9 F006          	movff	fsr0l,??_timer0_isr+5
  1221  000032  CFEA F007          	movff	fsr0h,??_timer0_isr+6
  1222  000036  CFE1 F008          	movff	fsr1l,??_timer0_isr+7
  1223  00003A  CFE2 F009          	movff	fsr1h,??_timer0_isr+8
  1224  00003E  CFD9 F00A          	movff	fsr2l,??_timer0_isr+9
  1225  000042  CFDA F00B          	movff	fsr2h,??_timer0_isr+10
  1226  000046  CFF3 F00C          	movff	prodl,??_timer0_isr+11
  1227  00004A  CFF4 F00D          	movff	prodh,??_timer0_isr+12
  1228  00004E  CFF6 F00E          	movff	tblptrl,??_timer0_isr+13
  1229  000052  CFF7 F00F          	movff	tblptrh,??_timer0_isr+14
  1230  000056  CFF8 F010          	movff	tblptru,??_timer0_isr+15
  1231  00005A  CFF5 F011          	movff	tablat,??_timer0_isr+16
  1232  00005E  C049  F012         	movff	btemp,??_timer0_isr+17
  1233  000062  C04A  F013         	movff	btemp+1,??_timer0_isr+18
  1234  000066  C04B  F014         	movff	btemp+2,??_timer0_isr+19
  1235  00006A  C04C  F015         	movff	btemp+3,??_timer0_isr+20
  1236                           
  1237                           ;Timer.c: 26: if (TMR0IE & TMR0IF)
  1238  00006E  0E01               	movlw	1
  1239  000070  AAF2               	btfss	intcon,5,c	;volatile
  1240  000072  0E00               	movlw	0
  1241  000074  A4F2               	btfss	intcon,2,c	;volatile
  1242  000076  0E00               	movlw	0
  1243  000078  A0E8               	btfss	wreg,0,c
  1244  00007A  D004               	goto	i1l91
  1245                           
  1246                           ;Timer.c: 27: {
  1247                           ;Timer.c: 28: timer0_reset();
  1248  00007C  EC53  F002         	call	i1_timer0_reset	;wreg free
  1249                           
  1250                           ;Timer.c: 29: timer_process();
  1251  000080  EC62  F002         	call	_timer_process	;wreg free
  1252  000084                     i1l91:
  1253  000084  C015  F04C         	movff	??_timer0_isr+20,btemp+3
  1254  000088  C014  F04B         	movff	??_timer0_isr+19,btemp+2
  1255  00008C  C013  F04A         	movff	??_timer0_isr+18,btemp+1
  1256  000090  C012  F049         	movff	??_timer0_isr+17,btemp
  1257  000094  C011  FFF5         	movff	??_timer0_isr+16,tablat
  1258  000098  C010  FFF8         	movff	??_timer0_isr+15,tblptru
  1259  00009C  C00F  FFF7         	movff	??_timer0_isr+14,tblptrh
  1260  0000A0  C00E  FFF6         	movff	??_timer0_isr+13,tblptrl
  1261  0000A4  C00D  FFF4         	movff	??_timer0_isr+12,prodh
  1262  0000A8  C00C  FFF3         	movff	??_timer0_isr+11,prodl
  1263  0000AC  C00B  FFDA         	movff	??_timer0_isr+10,fsr2h
  1264  0000B0  C00A  FFD9         	movff	??_timer0_isr+9,fsr2l
  1265  0000B4  C009  FFE2         	movff	??_timer0_isr+8,fsr1h
  1266  0000B8  C008  FFE1         	movff	??_timer0_isr+7,fsr1l
  1267  0000BC  C007  FFEA         	movff	??_timer0_isr+6,fsr0h
  1268  0000C0  C006  FFE9         	movff	??_timer0_isr+5,fsr0l
  1269  0000C4  C005  FFFB         	movff	??_timer0_isr+4,pclatu
  1270  0000C8  C004  FFFA         	movff	??_timer0_isr+3,pclath
  1271  0000CC  C003  FFE0         	movff	??_timer0_isr+2,bsr
  1272  0000D0  C002  FFE8         	movff	??_timer0_isr+1,wreg
  1273  0000D4  C001  FFD8         	movff	??_timer0_isr,status
  1274  0000D8  9049               	bcf	btemp,0,c	;clear compiler interrupt flag (level 1)
  1275  0000DA  0010               	retfie	
  1276  0000DC                     __end_of_timer0_isr:
  1277                           	opt stack 0
  1278                           pclatu	equ	0xFFB
  1279                           pclath	equ	0xFFA
  1280                           tblptru	equ	0xFF8
  1281                           tblptrh	equ	0xFF7
  1282                           tblptrl	equ	0xFF6
  1283                           tablat	equ	0xFF5
  1284                           prodh	equ	0xFF4
  1285                           prodl	equ	0xFF3
  1286                           intcon	equ	0xFF2
  1287                           intcon2	equ	0xFF1
  1288                           fsr0h	equ	0xFEA
  1289                           fsr0l	equ	0xFE9
  1290                           wreg	equ	0xFE8
  1291                           fsr1h	equ	0xFE2
  1292                           fsr1l	equ	0xFE1
  1293                           bsr	equ	0xFE0
  1294                           fsr2h	equ	0xFDA
  1295                           fsr2l	equ	0xFD9
  1296                           status	equ	0xFD8
  1297                           
  1298 ;; *************** function i1_timer0_reset *****************
  1299 ;; Defined at:
  1300 ;;		line 16 in file "Timer.c"
  1301 ;; Parameters:    Size  Location     Type
  1302 ;;		None
  1303 ;; Auto vars:     Size  Location     Type
  1304 ;;		None
  1305 ;; Return value:  Size  Location     Type
  1306 ;;                  1    wreg      void 
  1307 ;; Registers used:
  1308 ;;		wreg, status,2
  1309 ;; Tracked objects:
  1310 ;;		On entry : 0/0
  1311 ;;		On exit  : 0/0
  1312 ;;		Unchanged: 0/0
  1313 ;; Data sizes:     COMRAM   BANK0   BANK1   BANK2   BANK3   BANK4   BANK5   BANK6   BANK7   BANK8   BANK9  BANK10  BANK1
      +1  BANK12  BANK13  BANK14  BANK15
  1314 ;;      Params:         0       0       0       0       0       0       0       0       0       0       0       0       
      +0       0       0       0       0
  1315 ;;      Locals:         0       0       0       0       0       0       0       0       0       0       0       0       
      +0       0       0       0       0
  1316 ;;      Temps:          0       0       0       0       0       0       0       0       0       0       0       0       
      +0       0       0       0       0
  1317 ;;      Totals:         0       0       0       0       0       0       0       0       0       0       0       0       
      +0       0       0       0       0
  1318 ;;Total ram usage:        0 bytes
  1319 ;; Hardware stack levels used:    1
  1320 ;; This function calls:
  1321 ;;		Nothing
  1322 ;; This function is called by:
  1323 ;;		_timer0_isr
  1324 ;; This function uses a non-reentrant model
  1325 ;;
  1326                           
  1327                           	psect	text10
  1328  0004A6                     __ptext10:
  1329                           	opt stack 0
  1330  0004A6                     i1_timer0_reset:
  1331                           	opt stack 26
  1332                           
  1333                           ;Timer.c: 18: TMR0IF = 0;
  1334                           
  1335                           ;incstack = 0
  1336  0004A6  94F2               	bcf	intcon,2,c	;volatile
  1337                           
  1338                           ;Timer.c: 19: TMR0ON = 0;
  1339  0004A8  9ED5               	bcf	4053,7,c	;volatile
  1340                           
  1341                           ;Timer.c: 20: TMR0 = -1250000;
  1342  0004AA  0EED               	movlw	237
  1343  0004AC  6ED7               	movwf	4055,c	;volatile
  1344  0004AE  0E30               	movlw	48
  1345  0004B0  6ED6               	movwf	4054,c	;volatile
  1346                           
  1347                           ;Timer.c: 21: TMR0ON = 1;
  1348  0004B2  8ED5               	bsf	4053,7,c	;volatile
  1349  0004B4  0012               	return		;funcret
  1350  0004B6                     __end_ofi1_timer0_reset:
  1351                           	opt stack 0
  1352                           pclatu	equ	0xFFB
  1353                           pclath	equ	0xFFA
  1354                           tblptru	equ	0xFF8
  1355                           tblptrh	equ	0xFF7
  1356                           tblptrl	equ	0xFF6
  1357                           tablat	equ	0xFF5
  1358                           prodh	equ	0xFF4
  1359                           prodl	equ	0xFF3
  1360                           intcon	equ	0xFF2
  1361                           intcon2	equ	0xFF1
  1362                           fsr0h	equ	0xFEA
  1363                           fsr0l	equ	0xFE9
  1364                           wreg	equ	0xFE8
  1365                           fsr1h	equ	0xFE2
  1366                           fsr1l	equ	0xFE1
  1367                           bsr	equ	0xFE0
  1368                           fsr2h	equ	0xFDA
  1369                           fsr2l	equ	0xFD9
  1370                           status	equ	0xFD8
  1371                           
  1372 ;; *************** function _timer_process *****************
  1373 ;; Defined at:
  1374 ;;		line 58 in file "Tn09B.c"
  1375 ;; Parameters:    Size  Location     Type
  1376 ;;		None
  1377 ;; Auto vars:     Size  Location     Type
  1378 ;;		None
  1379 ;; Return value:  Size  Location     Type
  1380 ;;                  1    wreg      void 
  1381 ;; Registers used:
  1382 ;;		wreg, status,2, status,0, cstack
  1383 ;; Tracked objects:
  1384 ;;		On entry : 0/0
  1385 ;;		On exit  : 0/0
  1386 ;;		Unchanged: 0/0
  1387 ;; Data sizes:     COMRAM   BANK0   BANK1   BANK2   BANK3   BANK4   BANK5   BANK6   BANK7   BANK8   BANK9  BANK10  BANK1
      +1  BANK12  BANK13  BANK14  BANK15
  1388 ;;      Params:         0       0       0       0       0       0       0       0       0       0       0       0       
      +0       0       0       0       0
  1389 ;;      Locals:         0       0       0       0       0       0       0       0       0       0       0       0       
      +0       0       0       0       0
  1390 ;;      Temps:          0       0       0       0       0       0       0       0       0       0       0       0       
      +0       0       0       0       0
  1391 ;;      Totals:         0       0       0       0       0       0       0       0       0       0       0       0       
      +0       0       0       0       0
  1392 ;;Total ram usage:        0 bytes
  1393 ;; Hardware stack levels used:    1
  1394 ;; Hardware stack levels required when called:    1
  1395 ;; This function calls:
  1396 ;;		_xuly
  1397 ;; This function is called by:
  1398 ;;		_timer0_isr
  1399 ;; This function uses a non-reentrant model
  1400 ;;
  1401                           
  1402                           	psect	text11
  1403  0004C4                     __ptext11:
  1404                           	opt stack 0
  1405  0004C4                     _timer_process:
  1406                           	opt stack 25
  1407                           
  1408                           ;Tn09B.c: 60: xuly();
  1409                           
  1410                           ;incstack = 0
  1411  0004C4  EC03  F002         	call	_xuly	;wreg free
  1412  0004C8  0012               	return		;funcret
  1413  0004CA                     __end_of_timer_process:
  1414                           	opt stack 0
  1415                           pclatu	equ	0xFFB
  1416                           pclath	equ	0xFFA
  1417                           tblptru	equ	0xFF8
  1418                           tblptrh	equ	0xFF7
  1419                           tblptrl	equ	0xFF6
  1420                           tablat	equ	0xFF5
  1421                           prodh	equ	0xFF4
  1422                           prodl	equ	0xFF3
  1423                           intcon	equ	0xFF2
  1424                           intcon2	equ	0xFF1
  1425                           fsr0h	equ	0xFEA
  1426                           fsr0l	equ	0xFE9
  1427                           wreg	equ	0xFE8
  1428                           fsr1h	equ	0xFE2
  1429                           fsr1l	equ	0xFE1
  1430                           bsr	equ	0xFE0
  1431                           fsr2h	equ	0xFDA
  1432                           fsr2l	equ	0xFD9
  1433                           status	equ	0xFD8
  1434                           
  1435 ;; *************** function _xuly *****************
  1436 ;; Defined at:
  1437 ;;		line 47 in file "Tn09B.c"
  1438 ;; Parameters:    Size  Location     Type
  1439 ;;		None
  1440 ;; Auto vars:     Size  Location     Type
  1441 ;;		None
  1442 ;; Return value:  Size  Location     Type
  1443 ;;                  1    wreg      void 
  1444 ;; Registers used:
  1445 ;;		wreg, status,2, status,0
  1446 ;; Tracked objects:
  1447 ;;		On entry : 0/0
  1448 ;;		On exit  : 0/0
  1449 ;;		Unchanged: 0/0
  1450 ;; Data sizes:     COMRAM   BANK0   BANK1   BANK2   BANK3   BANK4   BANK5   BANK6   BANK7   BANK8   BANK9  BANK10  BANK1
      +1  BANK12  BANK13  BANK14  BANK15
  1451 ;;      Params:         0       0       0       0       0       0       0       0       0       0       0       0       
      +0       0       0       0       0
  1452 ;;      Locals:         0       0       0       0       0       0       0       0       0       0       0       0       
      +0       0       0       0       0
  1453 ;;      Temps:          0       0       0       0       0       0       0       0       0       0       0       0       
      +0       0       0       0       0
  1454 ;;      Totals:         0       0       0       0       0       0       0       0       0       0       0       0       
      +0       0       0       0       0
  1455 ;;Total ram usage:        0 bytes
  1456 ;; Hardware stack levels used:    1
  1457 ;; This function calls:
  1458 ;;		Nothing
  1459 ;; This function is called by:
  1460 ;;		_timer_process
  1461 ;; This function uses a non-reentrant model
  1462 ;;
  1463                           
  1464                           	psect	text12
  1465  000406                     __ptext12:
  1466                           	opt stack 0
  1467  000406                     _xuly:
  1468                           	opt stack 25
  1469                           
  1470                           ;Tn09B.c: 49: temp = 20 + temp;
  1471                           
  1472                           ;incstack = 0
  1473  000406  0E14               	movlw	20
  1474  000408  2447               	addwf	_temp,w,c	;volatile
  1475  00040A  6E47               	movwf	_temp,c	;volatile
  1476  00040C  0E00               	movlw	0
  1477  00040E  2048               	addwfc	_temp+1,w,c	;volatile
  1478  000410  6E48               	movwf	_temp+1,c	;volatile
  1479                           
  1480                           ;Tn09B.c: 51: if (temp > 160)
  1481  000412  5048               	movf	_temp+1,w,c	;volatile
  1482  000414  E104               	bnz	i1u9_20
  1483  000416  0EA1               	movlw	161
  1484  000418  5C47               	subwf	_temp,w,c	;volatile
  1485  00041A  A0D8               	btfss	status,0,c
  1486  00041C  D004               	goto	i1l45
  1487  00041E                     i1u9_20:
  1488                           
  1489                           ;Tn09B.c: 52: {
  1490                           ;Tn09B.c: 53: temp = 20;
  1491  00041E  0E00               	movlw	0
  1492  000420  6E48               	movwf	_temp+1,c	;volatile
  1493  000422  0E14               	movlw	20
  1494  000424  6E47               	movwf	_temp,c	;volatile
  1495  000426                     i1l45:
  1496                           
  1497                           ;Tn09B.c: 54: }
  1498                           ;Tn09B.c: 55: while(PORTAbits.RA5==0);
  1499  000426  BA80               	btfsc	3968,5,c	;volatile
  1500  000428  0012               	return	
  1501  00042A  D7FD               	goto	i1l45
  1502  00042C                     __end_of_xuly:
  1503                           	opt stack 0
  1504  0000                     pclatu	equ	0xFFB
  1505                           pclath	equ	0xFFA
  1506                           tblptru	equ	0xFF8
  1507                           tblptrh	equ	0xFF7
  1508                           tblptrl	equ	0xFF6
  1509                           tablat	equ	0xFF5
  1510                           prodh	equ	0xFF4
  1511                           prodl	equ	0xFF3
  1512                           intcon	equ	0xFF2
  1513                           intcon2	equ	0xFF1
  1514                           fsr0h	equ	0xFEA
  1515                           fsr0l	equ	0xFE9
  1516                           wreg	equ	0xFE8
  1517                           fsr1h	equ	0xFE2
  1518                           fsr1l	equ	0xFE1
  1519                           bsr	equ	0xFE0
  1520                           fsr2h	equ	0xFDA
  1521                           fsr2l	equ	0xFD9
  1522                           status	equ	0xFD8
  1523                           pclatu	equ	0xFFB
  1524                           pclath	equ	0xFFA
  1525                           tblptru	equ	0xFF8
  1526                           tblptrh	equ	0xFF7
  1527                           tblptrl	equ	0xFF6
  1528                           tablat	equ	0xFF5
  1529                           prodh	equ	0xFF4
  1530                           prodl	equ	0xFF3
  1531                           intcon	equ	0xFF2
  1532                           intcon2	equ	0xFF1
  1533                           fsr0h	equ	0xFEA
  1534                           fsr0l	equ	0xFE9
  1535                           wreg	equ	0xFE8
  1536                           fsr1h	equ	0xFE2
  1537                           fsr1l	equ	0xFE1
  1538                           bsr	equ	0xFE0
  1539                           fsr2h	equ	0xFDA
  1540                           fsr2l	equ	0xFD9
  1541                           status	equ	0xFD8
  1542                           
  1543                           	psect	rparam
  1544  0000                     pclatu	equ	0xFFB
  1545                           pclath	equ	0xFFA
  1546                           tblptru	equ	0xFF8
  1547                           tblptrh	equ	0xFF7
  1548                           tblptrl	equ	0xFF6
  1549                           tablat	equ	0xFF5
  1550                           prodh	equ	0xFF4
  1551                           prodl	equ	0xFF3
  1552                           intcon	equ	0xFF2
  1553                           intcon2	equ	0xFF1
  1554                           fsr0h	equ	0xFEA
  1555                           fsr0l	equ	0xFE9
  1556                           wreg	equ	0xFE8
  1557                           fsr1h	equ	0xFE2
  1558                           fsr1l	equ	0xFE1
  1559                           bsr	equ	0xFE0
  1560                           fsr2h	equ	0xFDA
  1561                           fsr2l	equ	0xFD9
  1562                           status	equ	0xFD8
  1563                           
  1564                           	psect	temp
  1565  000049                     btemp:
  1566                           	opt stack 0
  1567  000049                     	ds	1
  1568  0000                     int$flags	set	btemp
  1569  0000                     wtemp6	set	btemp+1
  1570                           pclatu	equ	0xFFB
  1571                           pclath	equ	0xFFA
  1572                           tblptru	equ	0xFF8
  1573                           tblptrh	equ	0xFF7
  1574                           tblptrl	equ	0xFF6
  1575                           tablat	equ	0xFF5
  1576                           prodh	equ	0xFF4
  1577                           prodl	equ	0xFF3
  1578                           intcon	equ	0xFF2
  1579                           intcon2	equ	0xFF1
  1580                           fsr0h	equ	0xFEA
  1581                           fsr0l	equ	0xFE9
  1582                           wreg	equ	0xFE8
  1583                           fsr1h	equ	0xFE2
  1584                           fsr1l	equ	0xFE1
  1585                           bsr	equ	0xFE0
  1586                           fsr2h	equ	0xFDA
  1587                           fsr2l	equ	0xFD9
  1588                           status	equ	0xFD8


Data Sizes:
    Strings     0
    Constant    0
    Data        2
    BSS         0
    Persistent  6
    Stack       0

Auto Spaces:
    Space          Size  Autos    Used
    COMRAM           94     64      72
    BANK0           160      0       0
    BANK1           256      0       0
    BANK2           256      0       0
    BANK3           256      0       0
    BANK4           256      0       0
    BANK5           256      0       0
    BANK6           256      0       0
    BANK7           256      0       0
    BANK8           256      0       0
    BANK9           256      0       0
    BANK10          256      0       0
    BANK11          256      0       0
    BANK12          256      0       0
    BANK13          256      0       0
    BANK14          256      0       0
    BANK15           96      0       0

Pointer List with Targets:

    None.

Critical Paths under _main in COMRAM

    _main->_pwm_init
    _pwm_init->___fttol
    ___lwtoft->___ftpack
    ___fttol->___ftmul
    ___ftmul->___lwtoft

Critical Paths under _timer0_isr in COMRAM

    None.

Critical Paths under _main in BANK0

    None.

Critical Paths under _timer0_isr in BANK0

    None.

Critical Paths under _main in BANK1

    None.

Critical Paths under _timer0_isr in BANK1

    None.

Critical Paths under _main in BANK2

    None.

Critical Paths under _timer0_isr in BANK2

    None.

Critical Paths under _main in BANK3

    None.

Critical Paths under _timer0_isr in BANK3

    None.

Critical Paths under _main in BANK4

    None.

Critical Paths under _timer0_isr in BANK4

    None.

Critical Paths under _main in BANK5

    None.

Critical Paths under _timer0_isr in BANK5

    None.

Critical Paths under _main in BANK6

    None.

Critical Paths under _timer0_isr in BANK6

    None.

Critical Paths under _main in BANK7

    None.

Critical Paths under _timer0_isr in BANK7

    None.

Critical Paths under _main in BANK8

    None.

Critical Paths under _timer0_isr in BANK8

    None.

Critical Paths under _main in BANK9

    None.

Critical Paths under _timer0_isr in BANK9

    None.

Critical Paths under _main in BANK10

    None.

Critical Paths under _timer0_isr in BANK10

    None.

Critical Paths under _main in BANK11

    None.

Critical Paths under _timer0_isr in BANK11

    None.

Critical Paths under _main in BANK12

    None.

Critical Paths under _timer0_isr in BANK12

    None.

Critical Paths under _main in BANK13

    None.

Critical Paths under _timer0_isr in BANK13

    None.

Critical Paths under _main in BANK14

    None.

Critical Paths under _timer0_isr in BANK14

    None.

Critical Paths under _main in BANK15

    None.

Critical Paths under _timer0_isr in BANK15

    None.

Call Graph Tables:

 ---------------------------------------------------------------------------------
 (Depth) Function   	        Calls       Base Space   Used Autos Params    Refs
 ---------------------------------------------------------------------------------
 (0) _main                                                 0     0      0    5806
                               _init
                           _pwm_init
                        _timer0_init
 ---------------------------------------------------------------------------------
 (1) _timer0_init                                          0     0      0       0
                       _timer0_reset
 ---------------------------------------------------------------------------------
 (2) _timer0_reset                                         0     0      0       0
 ---------------------------------------------------------------------------------
 (1) _pwm_init                                             2     2      0    5806
                                             62 COMRAM     2     2      0
                            ___ftmul
                            ___fttol
                           ___lwtoft
 ---------------------------------------------------------------------------------
 (2) ___lwtoft                                             3     0      3    2486
                                             29 COMRAM     3     0      3
                           ___ftpack
 ---------------------------------------------------------------------------------
 (2) ___fttol                                             15    11      4     328
                                             47 COMRAM    15    11      4
                            ___ftmul (ARG)
                           ___lwtoft (ARG)
 ---------------------------------------------------------------------------------
 (2) ___ftmul                                             15     9      6    2992
                                             32 COMRAM    15     9      6
                           ___ftpack
                           ___lwtoft (ARG)
 ---------------------------------------------------------------------------------
 (3) ___ftpack                                             8     3      5    2388
                                             21 COMRAM     8     3      5
 ---------------------------------------------------------------------------------
 (1) _init                                                 0     0      0       0
 ---------------------------------------------------------------------------------
 Estimated maximum stack depth 3
 ---------------------------------------------------------------------------------
 (Depth) Function   	        Calls       Base Space   Used Autos Params    Refs
 ---------------------------------------------------------------------------------
 (4) _timer0_isr                                          21    21      0       0
                                              0 COMRAM    21    21      0
                      _timer_process
                     i1_timer0_reset
 ---------------------------------------------------------------------------------
 (5) i1_timer0_reset                                       0     0      0       0
 ---------------------------------------------------------------------------------
 (5) _timer_process                                        0     0      0       0
                               _xuly
 ---------------------------------------------------------------------------------
 (6) _xuly                                                 0     0      0       0
 ---------------------------------------------------------------------------------
 Estimated maximum stack depth 6
 ---------------------------------------------------------------------------------

 Call Graph Graphs:

 _main (ROOT)
   _init
   _pwm_init
     ___ftmul
       ___ftpack
       ___lwtoft (ARG)
         ___ftpack
     ___fttol
       ___ftmul (ARG)
         ___ftpack
         ___lwtoft (ARG)
           ___ftpack
       ___lwtoft (ARG)
         ___ftpack
     ___lwtoft
       ___ftpack
   _timer0_init
     _timer0_reset

 _timer0_isr (ROOT)
   _timer_process
     _xuly
   i1_timer0_reset

 Address spaces:
Name               Size   Autos  Total    Cost      Usage
BIGRAM             F5F      0       0      37        0.0%
EEDATA             400      0       0       0        0.0%
BITBANK14          100      0       0      33        0.0%
BANK14             100      0       0      34        0.0%
BITBANK13          100      0       0      30        0.0%
BANK13             100      0       0      31        0.0%
BITBANK12          100      0       0      28        0.0%
BANK12             100      0       0      29        0.0%
BITBANK11          100      0       0      26        0.0%
BANK11             100      0       0      27        0.0%
BITBANK10          100      0       0      24        0.0%
BANK10             100      0       0      25        0.0%
BITBANK9           100      0       0      22        0.0%
BANK9              100      0       0      23        0.0%
BITBANK8           100      0       0      20        0.0%
BANK8              100      0       0      21        0.0%
BITBANK7           100      0       0      18        0.0%
BANK7              100      0       0      19        0.0%
BITBANK6           100      0       0      16        0.0%
BANK6              100      0       0      17        0.0%
BITBANK5           100      0       0      14        0.0%
BANK5              100      0       0      15        0.0%
BITBANK4           100      0       0      12        0.0%
BANK4              100      0       0      13        0.0%
BITBANK3           100      0       0      10        0.0%
BANK3              100      0       0      11        0.0%
BITBANK2           100      0       0       8        0.0%
BANK2              100      0       0       9        0.0%
BITBANK1           100      0       0       6        0.0%
BANK1              100      0       0       7        0.0%
BITBANK0            A0      0       0       4        0.0%
BANK0               A0      0       0       5        0.0%
BITBANK15           60      0       0      35        0.0%
BANK15              60      0       0      36        0.0%
BITCOMRAM           5E      0       0       0        0.0%
COMRAM              5E     40      48       1       76.6%
BITSFR               0      0       0     200        0.0%
SFR                  0      0       0     200        0.0%
STACK                0      0       0       2        0.0%
NULL                 0      0       0       0        0.0%
ABS                  0      0      48      32        0.0%
DATA                 0      0      48       3        0.0%
CODE                 0      0       0       0        0.0%


Microchip Technology PIC18 Macro Assembler V1.45 build -152302408 
Symbol Table                                                                                   Tue Nov 26 14:34:53 2019

                      _x 0045                       l57 04C2                       bsr 000FE0  
            __CFG_OSC$HS 000000   __end_ofi1_timer0_reset 04B6                      l310 0324  
                    l311 030E                      l313 034C                      l314 0342  
                    l410 0172                      l307 02F0                      l308 02E6  
                    l415 01A6                      l407 010C                      l416 019A  
                    l409 0182                      l418 01C2                      l390 0266  
                    l392 027E                      l393 028E                      l386 01FC  
                    l388 0224                      l389 0256                      u310 02D8  
                    u401 020C                      u500 01AC                      u350 0356  
                    _PR2 000FCB                      u520 039C                      u441 00F0  
                    u530 039E                      u460 012A                      u540 03B0  
                    u381 01E4                      u550 03B2                      u465 0122  
                    _led 000F8C                      wreg 000FE8             __CFG_LVP$OFF 000000  
           __CFG_WDT$OFF 000000                     i1l45 0426                     i1l91 0084  
                   _TMR0 000FD6                     _main 04B6             ___ftpack@arg 0016  
                   _init 0496             ___ftpack@exp 0019                     _temp 0047  
                   fsr0h 000FEA                     fsr1h 000FE2                     fsr2h 000FDA  
                   fsr0l 000FE9                     fsr1l 000FE1                     fsr2l 000FD9  
                   btemp 0049                     _xuly 0406                     prodh 000FF4  
                   prodl 000FF3                     start 00DC             ___ftmul@cntr 002E  
           ___param_bank 000000             ___ftmul@sign 002F             ___fttol@exp1 003E  
           ___fttol@lval 003A          ??_timer_process 0001                    _DC1B0 007DEC  
                  _DC1B1 007DED                    ?_main 0001                    ?_init 0001  
        ?i1_timer0_reset 0001          __end_of___ftmul 02C8                    _T0CON 000FD5  
        __end_of___fttol 01D4                    _T2CON 000FCA                    ?_xuly 0001  
                  _TRISD 000F95            ___ftpack@sign 001A                    pclath 000FFA  
                  tablat 000FF5                    status 000FD8                    wtemp6 004A  
        __initialization 0450             __end_of_main 04C4             __end_of_init 04A6  
           __end_of_xuly 042C                   ??_main 0041            ___fttol@sign1 0039  
                 ??_init 0016                   ??_xuly 0001            __activetblptr 000000  
                 _ADCON1 000FC1                   _CCPR1L 000FBE         __end_of___ftpack 0376  
       __end_of___lwtoft 0450                   _TMR0IE 007F95                   _TMR0IF 007F92  
                 _TMR0ON 007EAF                   i1u9_20 041E                ??___ftmul 0027  
           ?_timer0_init 0001                ??___fttol 0034                   _period 0043  
  ___ftmul@f3_as_product 002B             __pdataCOMRAM 0047                   tblptrh 000FF7  
                 tblptrl 000FF6                   tblptru 000FF8         __end_of_pwm_init 0406  
             __accesstop 0060  __end_of__initialization 0468            ___rparam_used 000001  
             ___ftmul@f1 0021               ___ftmul@f2 0024               ___fttol@f1 0030  
         __pcstackCOMRAM 0001               ___lwtoft@c 001E               __pnvCOMRAM 0041  
       ??i1_timer0_reset 0001                  _CCP1CON 000FBD                ?___ftpack 0016  
              ?___lwtoft 001E                  __Hparam 0000                  __Lparam 0000  
                ___ftmul 01D4                  ___fttol 00E0                ?_pwm_init 0001  
                __pcinit 0450               ??___ftpack 001B                  __ramtop 1000  
   __size_of_timer0_init 0014            ?_timer0_reset 0001                  __ptext0 04B6  
                __ptext1 0472                  __ptext2 0486                  __ptext3 0376  
                __ptext4 042C                  __ptext5 00E0                  __ptext6 01D4  
                __ptext7 02C8                  __ptext8 0496               ??___lwtoft 0021  
  __end_of_timer_process 04CA     end_of_initialization 0468               _timer0_isr 0018  
             ??_pwm_init 003F           ??_timer0_reset 0016                _PORTAbits 000F80  
              _TRISAbits 000F92                _TRISCbits 000F94              _CCP1CONbits 000FBD  
            ___ftmul@exp 002A            __pidataCOMRAM 04CA      start_initialization 0450  
            ?_timer0_isr 0001        __size_of___ftpack 00AE        __size_of___lwtoft 0024  
   __end_of_timer0_reset 0496                 ?___ftmul 0021                 ?___fttol 0030  
            __pintcodelo 0018        __size_of_pwm_init 0090      __size_of_timer0_isr 00C4  
              _dutycycle 0041                 _RCONbits 000FD0            ??_timer0_init 0016  
__size_ofi1_timer0_reset 0010              _INTCON2bits 000FF1   __size_of_timer_process 0006  
               __Hrparam 0000                 __Lrparam 0000         __size_of___ftmul 00F4  
       __size_of___fttol 00F4                 ___ftpack 02C8                 ___lwtoft 042C  
    __end_of_timer0_init 0486                 __ptext10 04A6                 __ptext11 04C4  
               __ptext12 0406    __size_of_timer0_reset 0010            __size_of_main 000E  
          __size_of_init 0010            __size_of_xuly 0026             ??_timer0_isr 0001  
               int$flags 0049                 _pwm_init 0376             _timer0_reset 0486  
          _timer_process 04C4               _INTCONbits 000FF2                 intlevel1 0000  
     __end_of_timer0_isr 00DC              _timer0_init 0472           ?_timer_process 0001  
         i1_timer0_reset 04A6  
