:040000006EEF00F0AF
:100018004980D8CF01F0E8CF02F0E0CF03F0FACF63
:1000280004F0FBCF05F0E9CF06F0EACF07F0E1CF07
:1000380008F0E2CF09F0D9CF0AF0DACF0BF0F3CF0E
:100048000CF0F4CF0DF0F6CF0EF0F7CF0FF0F8CF9D
:1000580010F0F5CF11F049C012F04AC013F04BC0B0
:1000680014F04CC015F0010EF2AA000EF2A4000E16
:10007800E8A004D053EC02F062EC02F015C04CF09A
:1000880014C04BF013C04AF012C049F011C0F5FF7C
:1000980010C0F8FF0FC0F7FF0EC0F6FF0DC0F4FF49
:1000A8000CC0F3FF0BC0DAFF0AC0D9FF09C0E2FF9A
:1000B80008C0E1FF07C0EAFF06C0E9FF05C0FBFF73
:1000C80004C0FAFF03C0E0FF02C0E8FF01C0D8FF88
:1000D8004990100028EF02F032C034F0356A366AD1
:1000E8003134343601E3358034503E6E3E50D8A466
:1000F80009D0000E306E000E316E000E326E000E0A
:10010800336E1200170E346E30C035F031C036F041
:1001180032C037F03428386E04D0D89037323632AF
:100128003532382EFAD73550396E318EFF0E3016EB
:10013800FF0E3116000E321630503A6E31503B6EBB
:1001480032503C6E3D6A8E0E3E5E3EAE16D03E503C
:10015800800A8F0FD8B009D0000E306E000E316EB5
:10016800000E326E000E336E1200D8903D323C32D3
:100178003B323A323E3EF9D715D0170E3E640FD0C7
:10018800000E306E000E316E000E326E000E336EB1
:100198001200D8903A363B363C363D363E063E5045
:1001A800D8A4F7D73950D8B408D03D1E3C1E3B1E02
:1001B8003A6C000E3B223C223D223AC030F03BC054
:1001C80031F03CC032F03DC033F0120023C027F0BC
:1001D800286A296A2234273601E3288027502A6EA4
:1001E8002A50D8A407D0000E216E000E226E000EF1
:1001F800236E120026C027F0286A296A253427367C
:1002080001E3288027502F6E2F50D8A407D0000E66
:10021800216E000E226E000E236E12002F507B0FEF
:100228002A2623C02FF026502F1A800E2F16228E32
:10023800258EFF0E2416FF0E2516000E2616000E1C
:100248002B6E000E2C6E000E2D6E070E2E6E21A04A
:1002580006D024502B2625502C2226502D22D8900B
:10026800233222322132D8902436253626362E2EB5
:10027800EED7090E2E6E21A006D024502B2625502D
:100288002C2226502D22D890233222322132D89087
:100298002D322C322B322E2EEED72BC016F02CC03E
:1002A80017F02DC018F02AC019F02FC01AF064EC0E
:1002B80001F016C021F017C022F018C023F0120078
:1002C8001950D8B405D0165017101810D8A40CD04F
:1002D800000E166E000E176E000E186E1200192A08
:1002E800D890183217321632000E16141B6E000EF4
:1002F80017141C6EFE0E18141D6E1B501C101D10BA
:10030800D8B40CD0ECD7192A010E1626000E1722E5
:10031800000E1822D890183217321632000E161412
:100328001B6E000E17141C6EFF0E18141D6E1B504A
:100338001C101D10D8B406D0E6D71906D89016366A
:100348001736183617BE03D0020E1960F6D719A053
:10035800179ED8901932195018121A50D8A4188E0E
:1003680016C016F017C017F018C018F012009494B1
:100378000C0EBD6E060ECA6E9F0ECB6E47C0BEFF3A
:10038800BD9ABD98010E446E800E436EBDAA02D080
:10039800010E01D0000E3F6E406AD8903F364036BD
:1003A800BDA802D0010E01D0000E3F26000E40224B
:1003B800500E3F24456E000E4020466E9A0E246E65
:1003C800190E256E3F0E266E45C01EF046C01FF062
:1003D80016EC02F01EC021F01FC022F020C023F04E
:1003E800EAEC00F021C030F022C031F023C032F036
:1003F80070EC00F030C041F031C042F01200140E31
:100408004724476E000E4820486E485004E1A10E6C
:10041800475CD8A004D0000E486E140E476E80BA10
:100428001200FDD71EC016F01FC017F0186A8E0EF6
:10043800196E000E1A6E64EC01F016C01EF017C09B
:100448001FF018C020F01200CA0EF66E040EF76EE8
:10045800000EF86E0900F5CF47F00900F5CF48F017
:100468004990499200015BEF02F0D08EF194F28A34
:10047800F28EF28C000ED56E43EC02F01200F2946C
:10048800D59EED0ED76E300ED66ED58E12000F0E9D
:10049800C16E000E956E010E8C6E928A1200F29457
:1004A800D59EED0ED76E300ED66ED58E12004BEC63
:1004B80002F0BBEC01F039EC02F0FFD703EC02F0DC
:0404C800120014000A
:020000040020DA
:08000000FFFFFFFFFFFFFFFF00
:020000040030CA
:0E000000FF021F1EF38381FFFFC0FFE0FF40E1
:00000001FF
