

Microchip Technology PIC18 LITE Macro Assembler V1.45 build -152302408 
                                                                                               Tue Sep 17 14:18:21 2019

Microchip Technology Omniscient Code Generator v1.45 (Free mode) build 201711160504
     1                           	processor	18F8722
     2                           	fnconf	rparam,??,?,0
     3                           	opt	pw 120
     4                           	opt	lm
     5                           	psect	idataCOMRAM,global,class=CODE,delta=1,noexec
     6                           	psect	cinit,global,reloc=2,class=CODE,delta=1
     7                           	psect	bssCOMRAM,global,class=COMRAM,space=1,delta=1,noexec
     8                           	psect	dataCOMRAM,global,class=COMRAM,space=1,delta=1,noexec
     9                           	psect	cstackCOMRAM,global,class=COMRAM,space=1,delta=1,noexec
    10                           	psect	text0,global,reloc=2,class=CODE,delta=1
    11                           	psect	text1,global,reloc=2,class=CODE,delta=1
    12                           	psect	intsave_regs,global,class=BIGRAM,space=1,delta=1,noexec
    13                           	psect	rparam,global,class=COMRAM,space=1,delta=1,noexec
    14  0000                     
    15                           ; Version 1.45
    16                           ; Generated 16/11/2017 GMT
    17                           ; 
    18                           ; Copyright © 2017, Microchip Technology Inc. and its subsidiaries ("Microchip")
    19                           ; All rights reserved.
    20                           ; 
    21                           ; This software is developed by Microchip Technology Inc. and its subsidiaries ("Microch
      +                          ip").
    22                           ; 
    23                           ; Redistribution and use in source and binary forms, with or without modification, are
    24                           ; permitted provided that the following conditions are met:
    25                           ; 
    26                           ;     1. Redistributions of source code must retain the above copyright notice, this lis
      +                          t of
    27                           ;        conditions and the following disclaimer.
    28                           ; 
    29                           ;     2. Redistributions in binary form must reproduce the above copyright notice, this 
      +                          list
    30                           ;        of conditions and the following disclaimer in the documentation and/or other
    31                           ;        materials provided with the distribution.
    32                           ; 
    33                           ;     3. Microchip's name may not be used to endorse or promote products derived from th
      +                          is
    34                           ;        software without specific prior written permission.
    35                           ; 
    36                           ; THIS SOFTWARE IS PROVIDED BY MICROCHIP "AS IS" AND ANY EXPRESS OR IMPLIED WARRANTIES,
    37                           ; INCLUDING, BUT NOT LIMITED TO, THE IMPLIED WARRANTIES OF MERCHANTABILITY AND FITNESS F
      +                          OR
    38                           ; PURPOSE ARE DISCLAIMED.  IN NO EVENT SHALL MICROCHIP BE LIABLE FOR ANY DIRECT, INDIREC
      +                          T,
    39                           ; INCIDENTAL, SPECIAL, EXEMPLARY, OR CONSEQUENTIAL DAMAGES (INCLUDING BUT NOT LIMITED TO
    40                           ; PROCUREMENT OF SUBSTITUTE GOODS OR SERVICES; LOSS OF USE, DATA OR PROFITS; OR BUSINESS
    41                           ; INTERRUPTION) HOWSOEVER CAUSED AND ON ANY THEORY OF LIABILITY, WHETHER IN CONTRACT, ST
      +                          RICT
    42                           ; LIABILITY, OR TORT (INCLUDING NEGLIGENCE OR OTHERWISE) ARISING IN ANY WAY OUT OF THE U
      +                          SE OF
    43                           ; THIS SOFTWARE, EVEN IF ADVISED OF THE POSSIBILITY OF SUCH DAMAGE.
    44                           ; 
    45                           ; 
    46                           ; Code-generator required, PIC18F8722 Definitions
    47                           ; 
    48                           ; SFR Addresses
    49  0000                     
    50                           	psect	idataCOMRAM
    51  01FC89                     __pidataCOMRAM:
    52                           	opt stack 0
    53                           
    54                           ;initializer for _dulieu
    55  01FC89  00                 	db	0
    56  01FC8A  01                 	db	1
    57  01FC8B  03                 	db	3
    58  01FC8C  07                 	db	7
    59  01FC8D  0F                 	db	15
    60  01FC8E  1F                 	db	31
    61  01FC8F  3F                 	db	63
    62  01FC90  7F                 	db	127
    63  01FC91  FF                 	db	255
    64  0000                     _PORTAbits	set	3968
    65                           
    66                           ; #config settings
    67  0000                     
    68                           	psect	cinit
    69  01FC9C                     __pcinit:
    70                           	opt stack 0
    71  01FC9C                     start_initialization:
    72                           	opt stack 0
    73  01FC9C                     __initialization:
    74                           	opt stack 0
    75                           
    76                           ; Initialize objects allocated to COMRAM (9 bytes)
    77                           ; load TBLPTR registers with __pidataCOMRAM
    78  01FC9C  0E89               	movlw	low __pidataCOMRAM
    79  01FC9E  6EF6               	movwf	tblptrl,c
    80  01FCA0  0EFC               	movlw	high __pidataCOMRAM
    81  01FCA2  6EF7               	movwf	tblptrh,c
    82  01FCA4  0E01               	movlw	low (__pidataCOMRAM shr (0+16))
    83  01FCA6  6EF8               	movwf	tblptru,c
    84  01FCA8  EE00  F001         	lfsr	0,__pdataCOMRAM
    85  01FCAC  EE10 F009          	lfsr	1,9
    86  01FCB0                     copy_data0:
    87  01FCB0  0009               	tblrd		*+
    88  01FCB2  CFF5 FFEE          	movff	tablat,postinc0
    89  01FCB6  50E5               	movf	postdec1,w,c
    90  01FCB8  50E1               	movf	fsr1l,w,c
    91  01FCBA  E1FA               	bnz	copy_data0
    92                           
    93                           ; Clear objects allocated to COMRAM (2 bytes)
    94  01FCBC  6A0B               	clrf	(__pbssCOMRAM+1)& (0+255),c
    95  01FCBE  6A0A               	clrf	__pbssCOMRAM& (0+255),c
    96  01FCC0                     end_of_initialization:
    97                           	opt stack 0
    98  01FCC0                     __end_of__initialization:
    99                           	opt stack 0
   100  01FCC0  0100               	movlb	0
   101  01FCC2  EF49  F0FE         	goto	_main	;jump to C main() function
   102                           tblptru	equ	0xFF8
   103                           tblptrh	equ	0xFF7
   104                           tblptrl	equ	0xFF6
   105                           tablat	equ	0xFF5
   106                           postinc0	equ	0xFEE
   107                           postdec1	equ	0xFE5
   108                           fsr1l	equ	0xFE1
   109                           
   110                           	psect	bssCOMRAM
   111  00000A                     __pbssCOMRAM:
   112                           	opt stack 0
   113  00000A                     _tang:
   114                           	opt stack 0
   115  00000A                     	ds	1
   116  00000B                     _dem:
   117                           	opt stack 0
   118  00000B                     	ds	1
   119                           tblptru	equ	0xFF8
   120                           tblptrh	equ	0xFF7
   121                           tblptrl	equ	0xFF6
   122                           tablat	equ	0xFF5
   123                           postinc0	equ	0xFEE
   124                           postdec1	equ	0xFE5
   125                           fsr1l	equ	0xFE1
   126                           
   127                           	psect	dataCOMRAM
   128  000001                     __pdataCOMRAM:
   129                           	opt stack 0
   130  000001                     _dulieu:
   131                           	opt stack 0
   132  000001                     	ds	9
   133                           tblptru	equ	0xFF8
   134                           tblptrh	equ	0xFF7
   135                           tblptrl	equ	0xFF6
   136                           tablat	equ	0xFF5
   137                           postinc0	equ	0xFEE
   138                           postdec1	equ	0xFE5
   139                           fsr1l	equ	0xFE1
   140                           
   141                           	psect	cstackCOMRAM
   142  000000                     __pcstackCOMRAM:
   143                           	opt stack 0
   144  000000                     tblptru	equ	0xFF8
   145                           tblptrh	equ	0xFF7
   146                           tblptrl	equ	0xFF6
   147                           tablat	equ	0xFF5
   148                           postinc0	equ	0xFEE
   149                           postdec1	equ	0xFE5
   150                           fsr1l	equ	0xFE1
   151                           
   152                           ; 2 bytes @ 0x0
   153 ;;
   154 ;;Main: autosize = 0, tempsize = 0, incstack = 0, save=0
   155 ;;
   156 ;; *************** function _main *****************
   157 ;; Defined at:
   158 ;;		line 25 in file "Tno1.c"
   159 ;; Parameters:    Size  Location     Type
   160 ;;		None
   161 ;; Auto vars:     Size  Location     Type
   162 ;;		None
   163 ;; Return value:  Size  Location     Type
   164 ;;                  2   27[None  ] int 
   165 ;; Registers used:
   166 ;;		wreg, fsr0l, fsr0h, fsr1l, fsr1h, fsr1l, fsr1h, fsr2l, fsr2h, status,2, status,0, pclath, btemp, btemp+1, btemp+2, b
      +temp+3, btemp+4, btemp+5, btemp+6, btemp+7, btemp+8, btemp+9, btemp+10, btemp+11, tosl, structret, tblptrl, tblptrh, tbl
      +ptru, prodl, prodh, bsr, cstack
   167 ;; Tracked objects:
   168 ;;		On entry : 0/0
   169 ;;		On exit  : 0/0
   170 ;;		Unchanged: 0/0
   171 ;; Data sizes:     COMRAM   BANK0   BANK1   BANK2   BANK3   BANK4   BANK5   BANK6   BANK7   BANK8   BANK9  BANK10  BANK1
      +1  BANK12  BANK13  BANK14  BANK15
   172 ;;      Params:         0       0       0       0       0       0       0       0       0       0       0       0       
      +0       0       0       0       0
   173 ;;      Locals:         0       0       0       0       0       0       0       0       0       0       0       0       
      +0       0       0       0       0
   174 ;;      Temps:          0       0       0       0       0       0       0       0       0       0       0       0       
      +0       0       0       0       0
   175 ;;      Totals:         0       0       0       0       0       0       0       0       0       0       0       0       
      +0       0       0       0       0
   176 ;;Total ram usage:        0 bytes
   177 ;; Hardware stack levels required when called:    1
   178 ;; This function calls:
   179 ;;		_init
   180 ;;		_xuly
   181 ;; This function is called by:
   182 ;;		Startup code after reset
   183 ;; This function uses a non-reentrant model
   184 ;;
   185                           
   186                           	psect	text0
   187  01FC92                     __ptext0:
   188                           	opt stack 0
   189  01FC92                     _main:
   190                           	opt stack 30
   191                           
   192                           ;Tno1.c: 27: init();
   193                           
   194                           ;incstack = 0
   195  01FC92  EC00  F000         	call	_init	;wreg free
   196  01FC96                     
   197                           ;Tno1.c: 29: { xuly();}
   198  01FC96  EC63  F0FE         	call	_xuly	;wreg free
   199  01FC9A  D7FD               	goto	l28
   200  01FC9C                     __end_of_main:
   201                           	opt stack 0
   202                           tblptru	equ	0xFF8
   203                           tblptrh	equ	0xFF7
   204                           tblptrl	equ	0xFF6
   205                           tablat	equ	0xFF5
   206                           postinc0	equ	0xFEE
   207                           postdec1	equ	0xFE5
   208                           fsr1l	equ	0xFE1
   209                           
   210 ;; *************** function _xuly *****************
   211 ;; Defined at:
   212 ;;		line 14 in file "Tno1.c"
   213 ;; Parameters:    Size  Location     Type
   214 ;;		None
   215 ;; Auto vars:     Size  Location     Type
   216 ;;		None
   217 ;; Return value:  Size  Location     Type
   218 ;;                  1    wreg      void 
   219 ;; Registers used:
   220 ;;		wreg, fsr2l, fsr2h, status,2, status,0, prodl, prodh
   221 ;; Tracked objects:
   222 ;;		On entry : 0/0
   223 ;;		On exit  : 0/0
   224 ;;		Unchanged: 0/0
   225 ;; Data sizes:     COMRAM   BANK0   BANK1   BANK2   BANK3   BANK4   BANK5   BANK6   BANK7   BANK8   BANK9  BANK10  BANK1
      +1  BANK12  BANK13  BANK14  BANK15
   226 ;;      Params:         0       0       0       0       0       0       0       0       0       0       0       0       
      +0       0       0       0       0
   227 ;;      Locals:         0       0       0       0       0       0       0       0       0       0       0       0       
      +0       0       0       0       0
   228 ;;      Temps:          0       0       0       0       0       0       0       0       0       0       0       0       
      +0       0       0       0       0
   229 ;;      Totals:         0       0       0       0       0       0       0       0       0       0       0       0       
      +0       0       0       0       0
   230 ;;Total ram usage:        0 bytes
   231 ;; Hardware stack levels used:    1
   232 ;; This function calls:
   233 ;;		Nothing
   234 ;; This function is called by:
   235 ;;		_main
   236 ;; This function uses a non-reentrant model
   237 ;;
   238                           
   239                           	psect	text1
   240  01FCC6                     __ptext1:
   241                           	opt stack 0
   242  01FCC6                     _xuly:
   243                           	opt stack 30
   244                           
   245                           ;Tno1.c: 16: if(PORTAbits.RA5==0)
   246                           
   247                           ;incstack = 0
   248  01FCC6  BA80               	btfsc	3968,5,c	;volatile
   249  01FCC8  0012               	return	
   250                           
   251                           ;Tno1.c: 17: {
   252                           ;Tno1.c: 18: if (tang==1)
   253  01FCCA  040A               	decf	_tang,w,c
   254  01FCCC  A4D8               	btfss	status,2,c
   255  01FCCE  D007               	goto	l16
   256                           
   257                           ;Tno1.c: 19: { if ((++dem)==9) tang=0;}
   258  01FCD0  2A0B               	incf	_dem,f,c
   259  01FCD2  0E09               	movlw	9
   260  01FCD4  180B               	xorwf	_dem,w,c
   261  01FCD6  A4D8               	btfss	status,2,c
   262  01FCD8  D006               	goto	l19
   263  01FCDA  0E00               	movlw	0
   264  01FCDC  D003               	goto	L1
   265  01FCDE                     l16:
   266                           
   267                           ;Tno1.c: 20: else {if ((--dem)==0) tang=1;}
   268  01FCDE  2E0B               	decfsz	_dem,f,c
   269  01FCE0  D002               	goto	l19
   270  01FCE2  0E01               	movlw	1
   271  01FCE4                     L1:
   272  01FCE4  6E0A               	movwf	_tang,c
   273  01FCE6                     l19:
   274                           
   275                           ;Tno1.c: 21: led=dulieu[dem];
   276  01FCE6  500B               	movf	_dem,w,c
   277  01FCE8  0D01               	mullw	1
   278  01FCEA  0E01               	movlw	low _dulieu
   279  01FCEC  24F3               	addwf	prodl,w,c
   280  01FCEE  6ED9               	movwf	fsr2l,c
   281  01FCF0  0E00               	movlw	high _dulieu
   282  01FCF2  20F4               	addwfc	prodh,w,c
   283  01FCF4  6EDA               	movwf	fsr2h,c
   284  01FCF6  50DF               	movf	indf2,w,c
   285  01FCF8  6E8C               	movwf	3980,c	;volatile
   286  01FCFA  BA80               	btfsc	3968,5,c	;volatile
   287  01FCFC  0012               	return	
   288  01FCFE  D7FD               	goto	l21
   289  01FD00                     __end_of_xuly:
   290                           	opt stack 0
   291  0000                     tblptru	equ	0xFF8
   292                           tblptrh	equ	0xFF7
   293                           tblptrl	equ	0xFF6
   294                           tablat	equ	0xFF5
   295                           prodh	equ	0xFF4
   296                           prodl	equ	0xFF3
   297                           postinc0	equ	0xFEE
   298                           postdec1	equ	0xFE5
   299                           fsr1l	equ	0xFE1
   300                           indf2	equ	0xFDF
   301                           fsr2h	equ	0xFDA
   302                           fsr2l	equ	0xFD9
   303                           status	equ	0xFD8
   304                           tblptru	equ	0xFF8
   305                           tblptrh	equ	0xFF7
   306                           tblptrl	equ	0xFF6
   307                           tablat	equ	0xFF5
   308                           prodh	equ	0xFF4
   309                           prodl	equ	0xFF3
   310                           postinc0	equ	0xFEE
   311                           postdec1	equ	0xFE5
   312                           fsr1l	equ	0xFE1
   313                           indf2	equ	0xFDF
   314                           fsr2h	equ	0xFDA
   315                           fsr2l	equ	0xFD9
   316                           status	equ	0xFD8
   317                           
   318                           	psect	rparam
   319  0000                     tblptru	equ	0xFF8
   320                           tblptrh	equ	0xFF7
   321                           tblptrl	equ	0xFF6
   322                           tablat	equ	0xFF5
   323                           prodh	equ	0xFF4
   324                           prodl	equ	0xFF3
   325                           postinc0	equ	0xFEE
   326                           postdec1	equ	0xFE5
   327                           fsr1l	equ	0xFE1
   328                           indf2	equ	0xFDF
   329                           fsr2h	equ	0xFDA
   330                           fsr2l	equ	0xFD9
   331                           status	equ	0xFD8


Data Sizes:
    Strings     0
    Constant    0
    Data        9
    BSS         2
    Persistent  0
    Stack       0

Auto Spaces:
    Space          Size  Autos    Used
    COMRAM           95      0      11
    BANK0           160      0       0
    BANK1           256      0       0
    BANK2           256      0       0
    BANK3           256      0       0
    BANK4           256      0       0
    BANK5           256      0       0
    BANK6           256      0       0
    BANK7           256      0       0
    BANK8           256      0       0
    BANK9           256      0       0
    BANK10          256      0       0
    BANK11          256      0       0
    BANK12          256      0       0
    BANK13          256      0       0
    BANK14          239      0       0
    BANK15           96      0       0

Pointer List with Targets:

    None.

Critical Paths under _main in COMRAM

    None.

Critical Paths under _main in BANK0

    None.

Critical Paths under _main in BANK1

    None.

Critical Paths under _main in BANK2

    None.

Critical Paths under _main in BANK3

    None.

Critical Paths under _main in BANK4

    None.

Critical Paths under _main in BANK5

    None.

Critical Paths under _main in BANK6

    None.

Critical Paths under _main in BANK7

    None.

Critical Paths under _main in BANK8

    None.

Critical Paths under _main in BANK9

    None.

Critical Paths under _main in BANK10

    None.

Critical Paths under _main in BANK11

    None.

Critical Paths under _main in BANK12

    None.

Critical Paths under _main in BANK13

    None.

Critical Paths under _main in BANK14

    None.

Critical Paths under _main in BANK15

    None.

Call Graph Tables:

 ---------------------------------------------------------------------------------
 (Depth) Function   	        Calls       Base Space   Used Autos Params    Refs
 ---------------------------------------------------------------------------------
 (0) _main                                                 0     0      0       0
                               _init
                               _xuly
 ---------------------------------------------------------------------------------
 (1) _xuly                                                 0     0      0       0
 ---------------------------------------------------------------------------------
 (1) _init                                                 0     0      0       0
 ---------------------------------------------------------------------------------
 Estimated maximum stack depth 1
 ---------------------------------------------------------------------------------

 Call Graph Graphs:

 _main (ROOT)
   _init
   _xuly

 Address spaces:
Name               Size   Autos  Total    Cost      Usage
BIGRAM             EEE      0       0      38        0.0%
EEDATA             400      0       0       0        0.0%
BITBANK13          100      0       0      31        0.0%
BANK13             100      0       0      32        0.0%
BITBANK12          100      0       0      29        0.0%
BANK12             100      0       0      30        0.0%
BITBANK11          100      0       0      27        0.0%
BANK11             100      0       0      28        0.0%
BITBANK10          100      0       0      25        0.0%
BANK10             100      0       0      26        0.0%
BITBANK9           100      0       0      23        0.0%
BANK9              100      0       0      24        0.0%
BITBANK8           100      0       0      21        0.0%
BANK8              100      0       0      22        0.0%
BITBANK7           100      0       0      19        0.0%
BANK7              100      0       0      20        0.0%
BITBANK6           100      0       0      17        0.0%
BANK6              100      0       0      18        0.0%
BITBANK5           100      0       0      15        0.0%
BANK5              100      0       0      16        0.0%
BITBANK4           100      0       0      13        0.0%
BANK4              100      0       0      14        0.0%
BITBANK3           100      0       0      11        0.0%
BANK3              100      0       0      12        0.0%
BITBANK2           100      0       0       9        0.0%
BANK2              100      0       0      10        0.0%
BITBANK1           100      0       0       7        0.0%
BANK1              100      0       0       8        0.0%
BITBANK14           EF      0       0      33        0.0%
BANK14              EF      0       0      34        0.0%
BITBANK0            A0      0       0       4        0.0%
BANK0               A0      0       0       5        0.0%
BITBANK15           60      0       0      35        0.0%
BANK15              60      0       0      36        0.0%
BIGRAM_1            60      0       0      37        0.0%
BITCOMRAM           5F      0       0       0        0.0%
COMRAM              5F      0       B       1       11.6%
BITSFR_5             0      0       0     200        0.0%
SFR_5                0      0       0     200        0.0%
BITSFR_4             0      0       0     200        0.0%
SFR_4                0      0       0     200        0.0%
BITSFR_3             0      0       0     200        0.0%
SFR_3                0      0       0     200        0.0%
BITSFR_2             0      0       0     200        0.0%
SFR_2                0      0       0     200        0.0%
BITSFR_1             0      0       0     200        0.0%
SFR_1                0      0       0     200        0.0%
BITSFR               0      0       0     200        0.0%
SFR                  0      0       0     200        0.0%
STACK                0      0       0       2        0.0%
NULL                 0      0       0       0        0.0%
ABS                  0      0       B       6        0.0%
DATA                 0      0       B       3        0.0%
CODE                 0      0       0       0        0.0%


Microchip Technology PIC18 Macro Assembler V1.45 build -152302408 
Symbol Table                                                                                   Tue Sep 17 14:18:21 2019

                     l21 FCFA                       l16 FCDE                       l19 FCE6  
                     l28 FC96              __CFG_OSC$HS 000000                      _dem 000B  
                    _led 000F8C                      prod 000FF3             __CFG_LVP$OFF 000000  
           __CFG_WDT$OFF 000000                     _main FC92                     _init 0000  
                   _tang 000A                     indf2 000FDF                     fsr1l 000FE1  
                   fsr2l 000FD9                     _xuly FCC6                     prodl 000FF3  
                   start 0002             ___param_bank 000000                    ?_main 0000  
                  ?_init 0000                    ?_xuly 0000                    tablat 000FF5  
                  status 000FD8          __initialization FC9C             __end_of_main FC9C  
           __end_of_xuly FD00                   ??_main 0000                   ??_init 0000  
                 ??_xuly 0000            __activetblptr 000000                   _dulieu 0001  
           __pdataCOMRAM 0001                   tblptrh 000FF7                   tblptrl 000FF6  
                 tblptru 000FF8               __accesstop 0060  __end_of__initialization FCC0  
          ___rparam_used 000001           __pcstackCOMRAM 0000                  __Hparam 0000  
                __Lparam 0000                  __pcinit FC9C                  __ramtop 1000  
                __ptext0 FC92                  __ptext1 FCC6     end_of_initialization FCC0  
                postdec1 000FE5                  postinc0 000FEE                _PORTAbits 000F80  
          __pidataCOMRAM FC89      start_initialization FC9C              __pbssCOMRAM 000A  
              copy_data0 FCB0                 __Hrparam 0000                 __Lrparam 0000  
          __size_of_main 000A            __size_of_xuly 003A  
