Microchip MPLAB XC8 Compiler V1.45 ()

Linker command line:

-W-3 --edf=D:\Apps\MPLab\New folder (2)\dat\en_msgs.txt -cs \
  -h+dist/default/debug\Tn_ThViP01.X.debug.sym \
  --cmf=dist/default/debug\Tn_ThViP01.X.debug.cmf -z -w9 --disl=596:off \
  -Q18F8722 -oC:\Users\asus\AppData\Local\Temp\se28.2 \
  -Mdist/default/debug/Tn_ThViP01.X.debug.map -E1 -ver=XC8 \
  -ACODE=00h-01FCFFh -ACONST=00h-01FCFFh -ASMALLCONST=01000h-010FFhx493 \
  -AMEDIUMCONST=01000h-0FFFFh,011000h-01FCFFh -ACOMRAM=01h-05Fh \
  -AABS1=00h-0EEEh,0F00h-0F5Fh -ABIGRAM=01h-0EEEh,0F00h-0F5Fh \
  -ARAM=060h-0FFh,0100h-01FFhx13,0E00h-0EEEh,0F00h-0F5Fh -ABANK0=060h-0FFh \
  -ABANK1=0100h-01FFh -ABANK2=0200h-02FFh -ABANK3=0300h-03FFh \
  -ABANK4=0400h-04FFh -ABANK5=0500h-05FFh -ABANK6=0600h-06FFh \
  -ABANK7=0700h-07FFh -ABANK8=0800h-08FFh -ABANK9=0900h-09FFh \
  -ABANK10=0A00h-0AFFh -ABANK11=0B00h-0BFFh -ABANK12=0C00h-0CFFh \
  -ABANK13=0D00h-0DFFh -ABANK14=0E00h-0EEEh -ABANK15=0F00h-0F5Fh \
  -ASFR=0F60h-0F9Bh,0F9Dh-0FD3h,0FD5h-0FDAh,0FE0h-0FE2h,0FE8h-0FEAh,0FF0h-0FFBh \
  -preset_vec=00h,intcode,intcodelo,powerup,init -pramtop=01000h \
  -psmallconst=SMALLCONST -pmediumconst=MEDIUMCONST -pconst=CONST \
  -AFARRAM=00h-00h -ACONFIG=0300000h-030000Dh -pconfig=CONFIG \
  -AIDLOC=0200000h-0200007h -pidloc=IDLOC -AEEDATA=0F00000h-0F003FFh \
  -peeprom_data=EEDATA \
  -prdata=COMRAM,nvrram=COMRAM,nvbit=COMRAM,rbss=COMRAM,rbit=COMRAM \
  -pfarbss=FARRAM,fardata=FARRAM,nvFARRAM=FARRAM \
  -pintsave_regs=BIGRAM,bigbss=BIGRAM,bigdata=BIGRAM -pbss=RAM \
  -pidata=CODE,irdata=CODE,ibigdata=CODE,ifardata=CODE \
  C:\Users\asus\AppData\Local\Temp\se28.obj \
  dist/default/debug\Tn_ThViP01.X.debug.obj 

Object code version is 3.11

Machine type is 18F8722

Call graph: (short form)




                Name                               Link     Load   Length Selector   Space Scale
C:\Users\asus\AppData\Local\Temp\se28.obj
                init                                  2        2        4        0       0
                reset_vec                             0        0        2        0       0
dist/default/debug\Tn_ThViP01.X.debug.obj
                text1                             1FCC6    1FCC6       3A     FE63       0
                text0                             1FC92    1FC92        A     FE49       0
                dataCOMRAM                            1        1        9        1       1
                bssCOMRAM                             A        A        2        1       1
                cinit                             1FC9C    1FC9C       2A     FE4E       0
                idataCOMRAM                       1FC89    1FC89        9    1FC89       0

TOTAL           Name                               Link     Load   Length     Space
        CLASS   CODE           
                init                                  2        2        4         0
                reset_vec                             0        0        2         0
                text1                             1FCC6    1FCC6       3A         0
                text0                             1FC92    1FC92        A         0
                cinit                             1FC9C    1FC9C       2A         0
                idataCOMRAM                       1FC89    1FC89        9         0

        CLASS   CONST          

        CLASS   SMALLCONST     

        CLASS   MEDIUMCONST    

        CLASS   COMRAM         
                dataCOMRAM                            1        1        9         1
                bssCOMRAM                             A        A        2         1

        CLASS   ABS1           

        CLASS   BIGRAM         

        CLASS   RAM            

        CLASS   BANK0          

        CLASS   BANK1          

        CLASS   BANK2          

        CLASS   BANK3          

        CLASS   BANK4          

        CLASS   BANK5          

        CLASS   BANK6          

        CLASS   BANK7          

        CLASS   BANK8          

        CLASS   BANK9          

        CLASS   BANK10         

        CLASS   BANK11         

        CLASS   BANK12         

        CLASS   BANK13         

        CLASS   BANK14         

        CLASS   BANK15         

        CLASS   SFR            

        CLASS   FARRAM         

        CLASS   CONFIG         

        CLASS   IDLOC          

        CLASS   EEDATA         

        CLASS   STACK          



SEGMENTS        Name                           Load    Length   Top    Selector   Space  Class

                reset_vec                      000000  000006  000006         0       0  CODE    
                dataCOMRAM                     000001  00000B  00000C         1       1  COMRAM  
                idataCOMRAM                    01FC89  000009  01FC92     1FC89       0  CODE    
                text0                          01FC92  00000A  01FC9C      FE49       0  CODE    
                cinit                          01FC9C  00002A  01FCC6      FE4E       0  CODE    
                text1                          01FCC6  00003A  01FD00      FE63       0  CODE    


UNUSED ADDRESS RANGES

        Name                Unused          Largest block    Delta
        BANK0            00060-000FF              A0
        BANK1            00100-001FF             100
        BANK10           00A00-00AFF             100
        BANK11           00B00-00BFF             100
        BANK12           00C00-00CFF             100
        BANK13           00D00-00DFF             100
        BANK14           00E00-00EEE              EF
        BANK15           00F00-00F5F              60
        BANK2            00200-002FF             100
        BANK3            00300-003FF             100
        BANK4            00400-004FF             100
        BANK5            00500-005FF             100
        BANK6            00600-006FF             100
        BANK7            00700-007FF             100
        BANK8            00800-008FF             100
        BANK9            00900-009FF             100
        BIGRAM           0000C-00EEE             EE3
                         00F00-00F5F              60
        CODE             00006-1FC88           1FC83
        COMRAM           0000C-0005F              54
        CONFIG           300000-30000D               E
        CONST            00006-1FC88           1FC83
        EEDATA           F00000-F003FF             400
        IDLOC            200000-200007               8
        MEDIUMCONST      01000-0FFFF            F000
                         11000-1FC88            EC89
        RAM              00060-00EEE             100
                         00F00-00F5F              60
        SFR              00F60-00F9B              3C
                         00F9D-00FD3              37
                         00FD5-00FDA               6
                         00FE0-00FE2               3
                         00FE8-00FEA               3
                         00FF0-00FFB               C
        SMALLCONST       01000-1FC88             100

                                  Symbol Table

_PORTAbits               (abs)        00F80
__CFG_LVP$OFF            (abs)        00000
__CFG_OSC$HS             (abs)        00000
__CFG_WDT$OFF            (abs)        00000
__HRAM                   (abs)        00000
__Habs1                  abs1         00000
__Hbank0                 bank0        00000
__Hbank1                 bank1        00000
__Hbank10                bank10       00000
__Hbank11                bank11       00000
__Hbank12                bank12       00000
__Hbank13                bank13       00000
__Hbank14                bank14       00000
__Hbank15                bank15       00000
__Hbank2                 bank2        00000
__Hbank3                 bank3        00000
__Hbank4                 bank4        00000
__Hbank5                 bank5        00000
__Hbank6                 bank6        00000
__Hbank7                 bank7        00000
__Hbank8                 bank8        00000
__Hbank9                 bank9        00000
__Hbigbss                bigbss       00000
__Hbigdata               bigdata      00000
__Hbigram                bigram       00000
__Hbss                   bss          00000
__HbssCOMRAM             bssCOMRAM    00000
__Hcinit                 cinit        00000
__Hclrtext               clrtext      00000
__Hcomram                comram       00000
__Hconfig                config       00000
__Hconst                 const        00000
__HcstackCOMRAM          cstackCOMRAM 00000
__Hdata                  data         00000
__HdataCOMRAM            dataCOMRAM   00000
__Heeprom_data           eeprom_data  00000
__Hfarbss                farbss       00000
__Hfardata               fardata      00000
__Hibigdata              ibigdata     00000
__Hidata                 idata        00000
__HidataCOMRAM           idataCOMRAM  00000
__Hidloc                 idloc        00000
__Hifardata              ifardata     00000
__Hinit                  init         00006
__Hintcode               intcode      00002
__Hintcode_body          intcode_body 00000
__Hintcodelo             intcodelo    00002
__Hintentry              intentry     00000
__Hintret                intret       00000
__Hintsave_regs          intsave_regs 00000
__Hirdata                irdata       00000
__Hmediumconst           mediumconst  00000
__HnvFARRAM              nvFARRAM     00000
__Hnvbit                 nvbit        00000
__Hnvrram                nvrram       00000
__Hparam                 rparam       00000
__Hpowerup               powerup      00002
__Hram                   ram          00000
__Hramtop                ramtop       01000
__Hrbit                  rbit         00000
__Hrbss                  rbss         00000
__Hrdata                 rdata        00000
__Hreset_vec             reset_vec    00002
__Hrparam                rparam       00000
__Hsfr                   sfr          00000
__Hsmallconst            smallconst   00000
__Hspace_0               (abs)        1FD00
__Hspace_1               (abs)        0000C
__Hspace_2               (abs)        00000
__Hstack                 stack        00000
__Hstruct                struct       00000
__Htemp                  temp         00000
__Htext                  text         00000
__Htext0                 text0        00000
__Htext1                 text1        00000
__LRAM                   (abs)        00001
__Labs1                  abs1         00000
__Lbank0                 bank0        00000
__Lbank1                 bank1        00000
__Lbank10                bank10       00000
__Lbank11                bank11       00000
__Lbank12                bank12       00000
__Lbank13                bank13       00000
__Lbank14                bank14       00000
__Lbank15                bank15       00000
__Lbank2                 bank2        00000
__Lbank3                 bank3        00000
__Lbank4                 bank4        00000
__Lbank5                 bank5        00000
__Lbank6                 bank6        00000
__Lbank7                 bank7        00000
__Lbank8                 bank8        00000
__Lbank9                 bank9        00000
__Lbigbss                bigbss       00000
__Lbigdata               bigdata      00000
__Lbigram                bigram       00000
__Lbss                   bss          00000
__LbssCOMRAM             bssCOMRAM    00000
__Lcinit                 cinit        00000
__Lclrtext               clrtext      00000
__Lcomram                comram       00000
__Lconfig                config       00000
__Lconst                 const        00000
__LcstackCOMRAM          cstackCOMRAM 00000
__Ldata                  data         00000
__LdataCOMRAM            dataCOMRAM   00000
__Leeprom_data           eeprom_data  00000
__Lfarbss                farbss       00000
__Lfardata               fardata      00000
__Libigdata              ibigdata     00000
__Lidata                 idata        00000
__LidataCOMRAM           idataCOMRAM  00000
__Lidloc                 idloc        00000
__Lifardata              ifardata     00000
__Linit                  init         00002
__Lintcode               intcode      00002
__Lintcode_body          intcode_body 00000
__Lintcodelo             intcodelo    00002
__Lintentry              intentry     00000
__Lintret                intret       00000
__Lintsave_regs          intsave_regs 00000
__Lirdata                irdata       00000
__Lmediumconst           mediumconst  00000
__LnvFARRAM              nvFARRAM     00000
__Lnvbit                 nvbit        00000
__Lnvrram                nvrram       00000
__Lparam                 rparam       00000
__Lpowerup               powerup      00002
__Lram                   ram          00000
__Lramtop                ramtop       01000
__Lrbit                  rbit         00000
__Lrbss                  rbss         00000
__Lrdata                 rdata        00000
__Lreset_vec             reset_vec    00000
__Lrparam                rparam       00000
__Lsfr                   sfr          00000
__Lsmallconst            smallconst   00000
__Lspace_0               (abs)        00000
__Lspace_1               (abs)        00000
__Lspace_2               (abs)        00000
__Lstack                 stack        00000
__Lstruct                struct       00000
__Ltemp                  temp         00000
__Ltext                  text         00000
__Ltext0                 text0        00000
__Ltext1                 text1        00000
__S0                     (abs)        1FD00
__S1                     (abs)        0000C
___extmem_base           (abs)        20000
___inthi_sp              stack        00000
___intlo_sp              stack        00000
___param_bank            (abs)        00000
___rparam_used           (abs)        00001
___sp                    stack        00000
__accesstop              (abs)        00060
__activetblptr           (abs)        00000
__end_of__initialization cinit        1FCC0
__end_of_main            text0        1FC9C
__end_of_xuly            text1        1FD00
__initialization         cinit        1FC9C
__mediumconst            mediumconst  00000
__pbssCOMRAM             bssCOMRAM    0000A
__pcinit                 cinit        1FC9C
__pcstackCOMRAM          cstackCOMRAM 00000
__pdataCOMRAM            dataCOMRAM   00001
__pidataCOMRAM           idataCOMRAM  1FC89
__ptext0                 text0        1FC92
__ptext1                 text1        1FCC6
__ramtop                 ramtop       01000
__size_of_main           (abs)        00000
__size_of_xuly           (abs)        00000
__smallconst             smallconst   00000
_dem                     bssCOMRAM    0000B
_dulieu                  dataCOMRAM   00001
_init                                      
_led                     (abs)        00F8C
_main                    text0        1FC92
_tang                    bssCOMRAM    0000A
_xuly                    text1        1FCC6
end_of_initialization    cinit        1FCC0
intlevel0                text         00000
intlevel1                text         00000
intlevel2                text         00000
intlevel3                text         00000
stackhi                  (abs)        00000
stacklo                  (abs)        00000
start                    init         00002
start_initialization     cinit        1FC9C
