

Microchip Technology PIC18 LITE Macro Assembler V1.45 build -152302408 
                                                                                               Tue Sep 17 14:23:40 2019

Microchip Technology Omniscient Code Generator v1.45 (Free mode) build 201711160504
     1                           	processor	18F8722
     2                           	fnconf	rparam,??,?,0
     3                           	opt	pw 120
     4                           	opt	lm
     5                           	psect	text0,global,reloc=2,class=CODE,delta=1
     6                           	psect	cinit,global,reloc=2,class=CODE,delta=1
     7                           	psect	cstackCOMRAM,global,class=COMRAM,space=1,delta=1,noexec
     8                           	psect	text1,global,reloc=2,class=CODE,delta=1
     9                           	psect	text2,global,reloc=2,class=CODE,delta=1
    10                           	psect	intsave_regs,global,class=BIGRAM,space=1,delta=1,noexec
    11                           	psect	rparam,global,class=COMRAM,space=1,delta=1,noexec
    12  0000                     
    13                           ; Version 1.45
    14                           ; Generated 16/11/2017 GMT
    15                           ; 
    16                           ; Copyright © 2017, Microchip Technology Inc. and its subsidiaries ("Microchip")
    17                           ; All rights reserved.
    18                           ; 
    19                           ; This software is developed by Microchip Technology Inc. and its subsidiaries ("Microch
      +                          ip").
    20                           ; 
    21                           ; Redistribution and use in source and binary forms, with or without modification, are
    22                           ; permitted provided that the following conditions are met:
    23                           ; 
    24                           ;     1. Redistributions of source code must retain the above copyright notice, this lis
      +                          t of
    25                           ;        conditions and the following disclaimer.
    26                           ; 
    27                           ;     2. Redistributions in binary form must reproduce the above copyright notice, this 
      +                          list
    28                           ;        of conditions and the following disclaimer in the documentation and/or other
    29                           ;        materials provided with the distribution.
    30                           ; 
    31                           ;     3. Microchip's name may not be used to endorse or promote products derived from th
      +                          is
    32                           ;        software without specific prior written permission.
    33                           ; 
    34                           ; THIS SOFTWARE IS PROVIDED BY MICROCHIP "AS IS" AND ANY EXPRESS OR IMPLIED WARRANTIES,
    35                           ; INCLUDING, BUT NOT LIMITED TO, THE IMPLIED WARRANTIES OF MERCHANTABILITY AND FITNESS F
      +                          OR
    36                           ; PURPOSE ARE DISCLAIMED.  IN NO EVENT SHALL MICROCHIP BE LIABLE FOR ANY DIRECT, INDIREC
      +                          T,
    37                           ; INCIDENTAL, SPECIAL, EXEMPLARY, OR CONSEQUENTIAL DAMAGES (INCLUDING BUT NOT LIMITED TO
    38                           ; PROCUREMENT OF SUBSTITUTE GOODS OR SERVICES; LOSS OF USE, DATA OR PROFITS; OR BUSINESS
    39                           ; INTERRUPTION) HOWSOEVER CAUSED AND ON ANY THEORY OF LIABILITY, WHETHER IN CONTRACT, ST
      +                          RICT
    40                           ; LIABILITY, OR TORT (INCLUDING NEGLIGENCE OR OTHERWISE) ARISING IN ANY WAY OUT OF THE U
      +                          SE OF
    41                           ; THIS SOFTWARE, EVEN IF ADVISED OF THE POSSIBILITY OF SUCH DAMAGE.
    42                           ; 
    43                           ; 
    44                           ; Code-generator required, PIC18F8722 Definitions
    45                           ; 
    46                           ; SFR Addresses
    47  0000                     
    48                           ; 1 bytes @ 0x0
    49 ;;
    50 ;;Main: autosize = 0, tempsize = 0, incstack = 0, save=0
    51 ;;
    52 ;; *************** function _main *****************
    53 ;; Defined at:
    54 ;;		line 20 in file "TN01.c"
    55 ;; Parameters:    Size  Location     Type
    56 ;;		None
    57 ;; Auto vars:     Size  Location     Type
    58 ;;		None
    59 ;; Return value:  Size  Location     Type
    60 ;;                  1    wreg      void 
    61 ;; Registers used:
    62 ;;		wreg, status,2, status,0, cstack
    63 ;; Tracked objects:
    64 ;;		On entry : 0/0
    65 ;;		On exit  : 0/0
    66 ;;		Unchanged: 0/0
    67 ;; Data sizes:     COMRAM   BANK0   BANK1   BANK2   BANK3   BANK4   BANK5   BANK6   BANK7   BANK8   BANK9  BANK10  BANK1
      +1  BANK12  BANK13  BANK14  BANK15
    68 ;;      Params:         0       0       0       0       0       0       0       0       0       0       0       0       
      +0       0       0       0       0
    69 ;;      Locals:         0       0       0       0       0       0       0       0       0       0       0       0       
      +0       0       0       0       0
    70 ;;      Temps:          0       0       0       0       0       0       0       0       0       0       0       0       
      +0       0       0       0       0
    71 ;;      Totals:         0       0       0       0       0       0       0       0       0       0       0       0       
      +0       0       0       0       0
    72 ;;Total ram usage:        0 bytes
    73 ;; Hardware stack levels required when called:    1
    74 ;; This function calls:
    75 ;;		_init
    76 ;;		_xuly
    77 ;; This function is called by:
    78 ;;		Startup code after reset
    79 ;; This function uses a non-reentrant model
    80 ;;
    81                           
    82                           	psect	text0
    83  01FFDA                     __ptext0:
    84                           	opt stack 0
    85  0000                     _PORTAbits	set	3968
    86  0000                     _TRISAbits	set	3986
    87  0000                     _TRISD	set	3989
    88  0000                     _ADCON1	set	4033
    89  0000                     
    90                           ; #config settings
    91  01FFDA                     _main:
    92                           	opt stack 30
    93                           
    94                           ;TN01.c: 22: init();
    95                           
    96                           ;incstack = 0
    97  01FFDA  ECF8  F0FF         	call	_init	;wreg free
    98  01FFDE                     
    99                           ;TN01.c: 24: { xuly();}
   100  01FFDE  ECF2  F0FF         	call	_xuly	;wreg free
   101  01FFE2  D7FD               	goto	l25
   102  01FFE4                     __end_of_main:
   103                           	opt stack 0
   104                           
   105                           	psect	cinit
   106  01FFD4                     __pcinit:
   107                           	opt stack 0
   108  01FFD4                     start_initialization:
   109                           	opt stack 0
   110  01FFD4                     __initialization:
   111                           	opt stack 0
   112  01FFD4                     end_of_initialization:
   113                           	opt stack 0
   114  01FFD4                     __end_of__initialization:
   115                           	opt stack 0
   116  01FFD4  0100               	movlb	0
   117  01FFD6  EFED  F0FF         	goto	_main	;jump to C main() function
   118                           
   119                           	psect	cstackCOMRAM
   120  000000                     __pcstackCOMRAM:
   121                           	opt stack 0
   122  000000                     
   123 ;; *************** function _xuly *****************
   124 ;; Defined at:
   125 ;;		line 12 in file "TN01.c"
   126 ;; Parameters:    Size  Location     Type
   127 ;;		None
   128 ;; Auto vars:     Size  Location     Type
   129 ;;  tam             1    0        unsigned char 
   130 ;; Return value:  Size  Location     Type
   131 ;;                  1    wreg      void 
   132 ;; Registers used:
   133 ;;		status,2, status,0
   134 ;; Tracked objects:
   135 ;;		On entry : 0/0
   136 ;;		On exit  : 0/0
   137 ;;		Unchanged: 0/0
   138 ;; Data sizes:     COMRAM   BANK0   BANK1   BANK2   BANK3   BANK4   BANK5   BANK6   BANK7   BANK8   BANK9  BANK10  BANK1
      +1  BANK12  BANK13  BANK14  BANK15
   139 ;;      Params:         0       0       0       0       0       0       0       0       0       0       0       0       
      +0       0       0       0       0
   140 ;;      Locals:         0       0       0       0       0       0       0       0       0       0       0       0       
      +0       0       0       0       0
   141 ;;      Temps:          0       0       0       0       0       0       0       0       0       0       0       0       
      +0       0       0       0       0
   142 ;;      Totals:         0       0       0       0       0       0       0       0       0       0       0       0       
      +0       0       0       0       0
   143 ;;Total ram usage:        0 bytes
   144 ;; Hardware stack levels used:    1
   145 ;; This function calls:
   146 ;;		Nothing
   147 ;; This function is called by:
   148 ;;		_main
   149 ;; This function uses a non-reentrant model
   150 ;;
   151                           
   152                           	psect	text1
   153  01FFE4                     __ptext1:
   154                           	opt stack 0
   155  01FFE4                     _xuly:
   156                           	opt stack 30
   157                           
   158                           ;TN01.c: 14: unsigned char tam;
   159                           ;TN01.c: 15: if (PORTAbits.RA5==0)
   160                           
   161                           ;incstack = 0
   162  01FFE4  BA80               	btfsc	3968,5,c	;volatile
   163  01FFE6  0012               	return	
   164                           
   165                           ;TN01.c: 16: { led++;
   166  01FFE8  2A8C               	incf	3980,f,c	;volatile
   167  01FFEA  BA80               	btfsc	3968,5,c	;volatile
   168  01FFEC  0012               	return	
   169  01FFEE  D7FD               	goto	l18
   170  01FFF0                     __end_of_xuly:
   171                           	opt stack 0
   172                           
   173 ;; *************** function _init *****************
   174 ;; Defined at:
   175 ;;		line 5 in file "TN01.c"
   176 ;; Parameters:    Size  Location     Type
   177 ;;		None
   178 ;; Auto vars:     Size  Location     Type
   179 ;;		None
   180 ;; Return value:  Size  Location     Type
   181 ;;                  1    wreg      void 
   182 ;; Registers used:
   183 ;;		wreg, status,2
   184 ;; Tracked objects:
   185 ;;		On entry : 0/0
   186 ;;		On exit  : 0/0
   187 ;;		Unchanged: 0/0
   188 ;; Data sizes:     COMRAM   BANK0   BANK1   BANK2   BANK3   BANK4   BANK5   BANK6   BANK7   BANK8   BANK9  BANK10  BANK1
      +1  BANK12  BANK13  BANK14  BANK15
   189 ;;      Params:         0       0       0       0       0       0       0       0       0       0       0       0       
      +0       0       0       0       0
   190 ;;      Locals:         0       0       0       0       0       0       0       0       0       0       0       0       
      +0       0       0       0       0
   191 ;;      Temps:          0       0       0       0       0       0       0       0       0       0       0       0       
      +0       0       0       0       0
   192 ;;      Totals:         0       0       0       0       0       0       0       0       0       0       0       0       
      +0       0       0       0       0
   193 ;;Total ram usage:        0 bytes
   194 ;; Hardware stack levels used:    1
   195 ;; This function calls:
   196 ;;		Nothing
   197 ;; This function is called by:
   198 ;;		_main
   199 ;; This function uses a non-reentrant model
   200 ;;
   201                           
   202                           	psect	text2
   203  01FFF0                     __ptext2:
   204                           	opt stack 0
   205  01FFF0                     _init:
   206                           	opt stack 30
   207                           
   208                           ;TN01.c: 7: ADCON1=0x0F;
   209                           
   210                           ;incstack = 0
   211  01FFF0  0E0F               	movlw	15
   212  01FFF2  6EC1               	movwf	4033,c	;volatile
   213                           
   214                           ;TN01.c: 8: TRISD=0;
   215  01FFF4  0E00               	movlw	0
   216  01FFF6  6E95               	movwf	3989,c	;volatile
   217                           
   218                           ;TN01.c: 9: led=0x01;
   219  01FFF8  0E01               	movlw	1
   220  01FFFA  6E8C               	movwf	3980,c	;volatile
   221                           
   222                           ;TN01.c: 10: TRISAbits.RA5 = 1;
   223  01FFFC  8A92               	bsf	3986,5,c	;volatile
   224  01FFFE  0012               	return		;funcret
   225  020000                     __end_of_init:
   226                           	opt stack 0
   227  0000                     
   228                           	psect	rparam


Data Sizes:
    Strings     0
    Constant    0
    Data        0
    BSS         0
    Persistent  0
    Stack       0

Auto Spaces:
    Space          Size  Autos    Used
    COMRAM           95      0       0
    BANK0           160      0       0
    BANK1           256      0       0
    BANK2           256      0       0
    BANK3           256      0       0
    BANK4           256      0       0
    BANK5           256      0       0
    BANK6           256      0       0
    BANK7           256      0       0
    BANK8           256      0       0
    BANK9           256      0       0
    BANK10          256      0       0
    BANK11          256      0       0
    BANK12          256      0       0
    BANK13          256      0       0
    BANK14          256      0       0
    BANK15           96      0       0

Pointer List with Targets:

    None.

Critical Paths under _main in COMRAM

    None.

Critical Paths under _main in BANK0

    None.

Critical Paths under _main in BANK1

    None.

Critical Paths under _main in BANK2

    None.

Critical Paths under _main in BANK3

    None.

Critical Paths under _main in BANK4

    None.

Critical Paths under _main in BANK5

    None.

Critical Paths under _main in BANK6

    None.

Critical Paths under _main in BANK7

    None.

Critical Paths under _main in BANK8

    None.

Critical Paths under _main in BANK9

    None.

Critical Paths under _main in BANK10

    None.

Critical Paths under _main in BANK11

    None.

Critical Paths under _main in BANK12

    None.

Critical Paths under _main in BANK13

    None.

Critical Paths under _main in BANK14

    None.

Critical Paths under _main in BANK15

    None.

Call Graph Tables:

 ---------------------------------------------------------------------------------
 (Depth) Function   	        Calls       Base Space   Used Autos Params    Refs
 ---------------------------------------------------------------------------------
 (0) _main                                                 0     0      0       0
                               _init
                               _xuly
 ---------------------------------------------------------------------------------
 (1) _xuly                                                 1     1      0       0
 ---------------------------------------------------------------------------------
 (1) _init                                                 0     0      0       0
 ---------------------------------------------------------------------------------
 Estimated maximum stack depth 1
 ---------------------------------------------------------------------------------

 Call Graph Graphs:

 _main (ROOT)
   _init
   _xuly

 Address spaces:
Name               Size   Autos  Total    Cost      Usage
BITCOMRAM           5F      0       0       0        0.0%
EEDATA             400      0       0       0        0.0%
NULL                 0      0       0       0        0.0%
CODE                 0      0       0       0        0.0%
COMRAM              5F      0       0       1        0.0%
STACK                0      0       0       2        0.0%
DATA                 0      0       0       3        0.0%
BITBANK0            A0      0       0       4        0.0%
BANK0               A0      0       0       5        0.0%
BITBANK1           100      0       0       6        0.0%
BANK1              100      0       0       7        0.0%
BITBANK2           100      0       0       8        0.0%
BANK2              100      0       0       9        0.0%
BITBANK3           100      0       0      10        0.0%
BANK3              100      0       0      11        0.0%
BITBANK4           100      0       0      12        0.0%
BANK4              100      0       0      13        0.0%
BITBANK5           100      0       0      14        0.0%
BANK5              100      0       0      15        0.0%
BITBANK6           100      0       0      16        0.0%
BANK6              100      0       0      17        0.0%
BITBANK7           100      0       0      18        0.0%
BANK7              100      0       0      19        0.0%
BITBANK8           100      0       0      20        0.0%
BANK8              100      0       0      21        0.0%
BITBANK9           100      0       0      22        0.0%
BANK9              100      0       0      23        0.0%
BITBANK10          100      0       0      24        0.0%
BANK10             100      0       0      25        0.0%
BITBANK11          100      0       0      26        0.0%
BANK11             100      0       0      27        0.0%
BITBANK12          100      0       0      28        0.0%
BANK12             100      0       0      29        0.0%
BITBANK13          100      0       0      30        0.0%
BANK13             100      0       0      31        0.0%
ABS                  0      0       0      32        0.0%
BITBANK14          100      0       0      33        0.0%
BANK14             100      0       0      34        0.0%
BITBANK15           60      0       0      35        0.0%
BANK15              60      0       0      36        0.0%
BIGRAM             F5F      0       0      37        0.0%
BITSFR               0      0       0     200        0.0%
SFR                  0      0       0     200        0.0%


Microchip Technology PIC18 Macro Assembler V1.45 build -152302408 
Symbol Table                                                                                   Tue Sep 17 14:23:40 2019

                     l25 FFDE                       l18 FFEA              __CFG_OSC$HS 000000  
                    _led 000F8C             __CFG_LVP$OFF 000000             __CFG_WDT$OFF 000000  
                   _main FFDA                     _init FFF0                     _xuly FFE4  
                   start 0000             ___param_bank 000000                    ?_main 0000  
                  ?_init 0000                    ?_xuly 0000                    _TRISD 000F95  
        __initialization FFD4             __end_of_main FFE4             __end_of_init 0000  
           __end_of_xuly FFF0                   ??_main 0000                   ??_init 0000  
                 ??_xuly 0000            __activetblptr 000000                   _ADCON1 000FC1  
             __accesstop 0060  __end_of__initialization FFD4            ___rparam_used 000001  
         __pcstackCOMRAM 0000                  __Hparam 0000                  __Lparam 0000  
                __pcinit FFD4                  __ramtop 1000                  __ptext0 FFDA  
                __ptext1 FFE4                  __ptext2 FFF0     end_of_initialization FFD4  
              _PORTAbits 000F80                _TRISAbits 000F92      start_initialization FFD4  
               __Hrparam 0000                 __Lrparam 0000            __size_of_main 000A  
          __size_of_init 0010            __size_of_xuly 000C  
