:020000040000FA
:040000002FEF00F0EE
:100018001280D8CF06F0E8CF07F0E0CF08F0F6CF8F
:1000280009F0F7CF0AF0F8CF0BF0F5CF0CF072EC2F
:1000380008F035EC08F00CC0F5FF0BC0F8FF0AC05B
:10004800F7FF09C0F6FF08C0E0FF07C0E8FF06C0D9
:0A005800D8FF1290100052EF08F0DC
:10100000003F065B4F666D7D077F6F777C395E79A9
:101010007101023C24243C408080403C24243C025A
:1010200001010203040506070800036E1F0E036496
:1010300002D0000E1200100E036009D0010E03242E
:10104000F66EF76A100EF7220800F55012000350F2
:101050000F0B016E026A010E0124F66E100E0220C3
:10106000F76E0800F55080091200000E816E210E07
:101070001124F66EF76A100EF7220800F55015ECF1
:1010800008F0836E11C004F0010E056E042A02D030
:10109000D8900536042EFCD70550816E112A070E14
:1010A00011161200116A106A0F6A0E6A0D6A129008
:1010B0001292000EF86E100EF76E000181EF08F02C
:1010C000D08EF194F28AF28EF28C020ED56E6AEC1A
:1010D00008F01200F294D59EFF0ED76E830ED66EE6
:1010E000D58E1200F294D59EFF0ED76E830ED66E6B
:1010F000D58E1200000E936E000E956E000E116ECE
:0C11000012007AEC08F060EC08F0FFD759
:020000040020DA
:08000000FFFFFFFFFFFFFFFF00
:020000040030CA
:0E000000FF021F1EF38381FFFFC0FFE0FF40E1
:00000001FF
