

Microchip MPLAB XC8 Assembler V2.05 build -831301201 
                                                                                               Tue Oct 29 14:38:50 2019

Microchip MPLAB XC8 C Compiler v2.05 (Free license) build 20181220022703 Og1 
     1                           	processor	18F8722
     2                           	fnconf	rparam,??,?,0
     3                           	opt	pw 120
     4                           	opt	flic
     5                           	psect	smallconst,global,reloc=2,class=SMALLCONST,delta=1,noexec
     6                           	psect	cinit,global,reloc=2,class=CODE,delta=1
     7                           	psect	bssCOMRAM,global,class=COMRAM,space=1,delta=1,noexec
     8                           	psect	cstackCOMRAM,global,class=COMRAM,space=1,delta=1,noexec
     9                           	psect	text0,global,reloc=2,class=CODE,delta=1
    10                           	psect	text1,global,reloc=2,class=CODE,delta=1
    11                           	psect	text2,global,reloc=2,class=CODE,delta=1
    12                           	psect	text3,global,reloc=2,class=CODE,delta=1
    13                           	psect	intcodelo,global,reloc=2,class=CODE,delta=1
    14                           	psect	text5,global,reloc=2,class=CODE,delta=1
    15                           	psect	text6,global,reloc=2,class=CODE,delta=1
    16                           	psect	text7,global,reloc=2,class=CODE,delta=1
    17                           	psect	intsave_regs,global,class=BIGRAM,space=1,delta=1,noexec
    18                           	psect	rparam,global,class=COMRAM,space=1,delta=1,noexec
    19                           	psect	temp,global,ovrld,common,class=COMRAM,space=1,delta=1
    20  0000                     
    21                           ; Version 2.05
    22                           ; Generated 20/12/2018 GMT
    23                           ; 
    24                           ; Copyright © 2018, Microchip Technology Inc. and its subsidiaries ("Microchip")
    25                           ; All rights reserved.
    26                           ; 
    27                           ; This software is developed by Microchip Technology Inc. and its subsidiaries ("Microch
      +                          ip").
    28                           ; 
    29                           ; Redistribution and use in source and binary forms, with or without modification, are
    30                           ; permitted provided that the following conditions are met:
    31                           ; 
    32                           ;     1. Redistributions of source code must retain the above copyright notice, this lis
      +                          t of
    33                           ;        conditions and the following disclaimer.
    34                           ; 
    35                           ;     2. Redistributions in binary form must reproduce the above copyright notice, this 
      +                          list
    36                           ;        of conditions and the following disclaimer in the documentation and/or other
    37                           ;        materials provided with the distribution.
    38                           ; 
    39                           ;     3. Microchip's name may not be used to endorse or promote products derived from th
      +                          is
    40                           ;        software without specific prior written permission.
    41                           ; 
    42                           ; THIS SOFTWARE IS PROVIDED BY MICROCHIP "AS IS" AND ANY EXPRESS OR IMPLIED WARRANTIES,
    43                           ; INCLUDING, BUT NOT LIMITED TO, THE IMPLIED WARRANTIES OF MERCHANTABILITY AND FITNESS F
      +                          OR
    44                           ; PURPOSE ARE DISCLAIMED.  IN NO EVENT SHALL MICROCHIP BE LIABLE FOR ANY DIRECT, INDIREC
      +                          T,
    45                           ; INCIDENTAL, SPECIAL, EXEMPLARY, OR CONSEQUENTIAL DAMAGES (INCLUDING BUT NOT LIMITED TO
    46                           ; PROCUREMENT OF SUBSTITUTE GOODS OR SERVICES; LOSS OF USE, DATA OR PROFITS; OR BUSINESS
    47                           ; INTERRUPTION) HOWSOEVER CAUSED AND ON ANY THEORY OF LIABILITY, WHETHER IN CONTRACT, ST
      +                          RICT
    48                           ; LIABILITY, OR TORT (INCLUDING NEGLIGENCE OR OTHERWISE) ARISING IN ANY WAY OUT OF THE U
      +                          SE OF
    49                           ; THIS SOFTWARE, EVEN IF ADVISED OF THE POSSIBILITY OF SUCH DAMAGE.
    50                           ; 
    51                           ; 
    52                           ; Code-generator required, PIC18F8722 Definitions
    53                           ; 
    54                           ; SFR Addresses
    55  0000                     
    56                           	psect	smallconst
    57  001000                     __psmallconst:
    58                           	opt callstack 0
    59  001000  00                 	db	0
    60  001001                     _dl7doan:
    61                           	opt callstack 0
    62  001001  3F                 	db	63
    63  001002  06                 	db	6
    64  001003  5B                 	db	91
    65  001004  4F                 	db	79
    66  001005  66                 	db	102
    67  001006  6D                 	db	109
    68  001007  7D                 	db	125
    69  001008  07                 	db	7
    70  001009  7F                 	db	127
    71  00100A  6F                 	db	111
    72  00100B  77                 	db	119
    73  00100C  7C                 	db	124
    74  00100D  39                 	db	57
    75  00100E  5E                 	db	94
    76  00100F  79                 	db	121
    77  001010  71                 	db	113
    78  001011                     __end_of_dl7doan:
    79                           	opt callstack 0
    80  001011                     _maurom:
    81                           	opt callstack 0
    82  001011  01                 	db	1
    83  001012  02                 	db	2
    84  001013  3C                 	db	60
    85  001014  24                 	db	36
    86  001015  24                 	db	36
    87  001016  3C                 	db	60
    88  001017  40                 	db	64
    89  001018  80                 	db	128
    90  001019  80                 	db	128
    91  00101A  40                 	db	64
    92  00101B  3C                 	db	60
    93  00101C  24                 	db	36
    94  00101D  24                 	db	36
    95  00101E  3C                 	db	60
    96  00101F  02                 	db	2
    97  001020  01                 	db	1
    98  001021                     __end_of_maurom:
    99                           	opt callstack 0
   100  001021                     _dbuf:
   101                           	opt callstack 0
   102  001021  01                 	db	1
   103  001022  02                 	db	2
   104  001023  03                 	db	3
   105  001024  04                 	db	4
   106  001025  05                 	db	5
   107  001026  06                 	db	6
   108  001027  07                 	db	7
   109  001028  08                 	db	8
   110  001029                     __end_of_dbuf:
   111                           	opt callstack 0
   112  0000                     _TMR0	set	4054
   113  0000                     _TRISD	set	3989
   114  0000                     _TRISB	set	3987
   115  0000                     _PORTD	set	3971
   116  0000                     _PORTB	set	3969
   117  0000                     _T0CON	set	4053
   118  0000                     _RCONbits	set	4048
   119  0000                     _GIEL	set	32662
   120  0000                     _GIEH	set	32663
   121  0000                     _TMR0IE	set	32661
   122  0000                     _TMR0IP	set	32650
   123  0000                     _TMR0ON	set	32431
   124  0000                     _TMR0IF	set	32658
   125                           
   126                           ; #config settings
   127  001029  00                 	db	0	; dummy byte at the end
   128  0000                     
   129                           	psect	cinit
   130  0010A4                     __pcinit:
   131                           	opt callstack 0
   132  0010A4                     start_initialization:
   133                           	opt callstack 0
   134  0010A4                     __initialization:
   135                           	opt callstack 0
   136                           
   137                           ; Clear objects allocated to COMRAM (5 bytes)
   138  0010A4  6A11               	clrf	(__pbssCOMRAM+4)& (0+255),c
   139  0010A6  6A10               	clrf	(__pbssCOMRAM+3)& (0+255),c
   140  0010A8  6A0F               	clrf	(__pbssCOMRAM+2)& (0+255),c
   141  0010AA  6A0E               	clrf	(__pbssCOMRAM+1)& (0+255),c
   142  0010AC  6A0D               	clrf	__pbssCOMRAM& (0+255),c
   143  0010AE                     end_of_initialization:
   144                           	opt callstack 0
   145  0010AE                     __end_of__initialization:
   146                           	opt callstack 0
   147  0010AE  9012               	bcf	int$flags,0,c	;clear compiler interrupt flag (level 1)
   148  0010B0  9212               	bcf	int$flags,1,c	;clear compiler interrupt flag (level 2)
   149  0010B2  0E00               	movlw	low (__Lsmallconst shr (0+16))
   150  0010B4  6EF8               	movwf	tblptru,c
   151  0010B6  0E10               	movlw	high __Lsmallconst
   152  0010B8  6EF7               	movwf	tblptrh,c
   153  0010BA  0100               	movlb	0
   154  0010BC  EF81  F008         	goto	_main	;jump to C main() function
   155                           
   156                           	psect	bssCOMRAM
   157  00000D                     __pbssCOMRAM:
   158                           	opt callstack 0
   159  00000D                     _select:
   160                           	opt callstack 0
   161  00000D                     	ds	1
   162  00000E                     _row:
   163                           	opt callstack 0
   164  00000E                     	ds	1
   165  00000F                     _rcol:
   166                           	opt callstack 0
   167  00000F                     	ds	1
   168  000010                     _gcol:
   169                           	opt callstack 0
   170  000010                     	ds	1
   171  000011                     _selidx:
   172                           	opt callstack 0
   173  000011                     	ds	1
   174                           
   175                           	psect	cstackCOMRAM
   176  000001                     __pcstackCOMRAM:
   177                           	opt callstack 0
   178  000001                     ??_gm_7doan:
   179  000001                     
   180                           ; 1 bytes @ 0x0
   181  000001                     	ds	2
   182  000003                     gm_7doan@so:
   183                           	opt callstack 0
   184                           
   185                           ; 1 bytes @ 0x2
   186  000003                     	ds	1
   187  000004                     ??_timer_process:
   188                           
   189                           ; 1 bytes @ 0x3
   190  000004                     	ds	2
   191  000006                     ??_timer1_isr:
   192                           
   193                           ; 1 bytes @ 0x5
   194  000006                     	ds	7
   195  00000D                     
   196                           ; 1 bytes @ 0xC
   197 ;;
   198 ;;Main: autosize = 0, tempsize = 0, incstack = 0, save=0
   199 ;;
   200 ;; *************** function _main *****************
   201 ;; Defined at:
   202 ;;		line 45 in file "Tn_05_l7d.c"
   203 ;; Parameters:    Size  Location     Type
   204 ;;		None
   205 ;; Auto vars:     Size  Location     Type
   206 ;;		None
   207 ;; Return value:  Size  Location     Type
   208 ;;                  1    wreg      void 
   209 ;; Registers used:
   210 ;;		wreg, status,2, cstack
   211 ;; Tracked objects:
   212 ;;		On entry : 0/0
   213 ;;		On exit  : 0/0
   214 ;;		Unchanged: 0/0
   215 ;; Data sizes:     COMRAM   BANK0   BANK1   BANK2   BANK3   BANK4   BANK5   BANK6   BANK7   BANK8   BANK9  BANK10  BANK1
      +1  BANK12  BANK13  BANK14  BANK15
   216 ;;      Params:         0       0       0       0       0       0       0       0       0       0       0       0       
      +0       0       0       0       0
   217 ;;      Locals:         0       0       0       0       0       0       0       0       0       0       0       0       
      +0       0       0       0       0
   218 ;;      Temps:          0       0       0       0       0       0       0       0       0       0       0       0       
      +0       0       0       0       0
   219 ;;      Totals:         0       0       0       0       0       0       0       0       0       0       0       0       
      +0       0       0       0       0
   220 ;;Total ram usage:        0 bytes
   221 ;; Hardware stack levels required when called:    5
   222 ;; This function calls:
   223 ;;		_init
   224 ;;		_timer0_init
   225 ;; This function is called by:
   226 ;;		Startup code after reset
   227 ;; This function uses a non-reentrant model
   228 ;;
   229                           
   230                           	psect	text0
   231  001102                     __ptext0:
   232                           	opt callstack 0
   233  001102                     _main:
   234                           	opt callstack 26
   235                           
   236                           ;Tn_05_l7d.c: 46:     init();
   237                           
   238                           ;incstack = 0
   239  001102  EC7A  F008         	call	_init	;wreg free
   240                           
   241                           ;Tn_05_l7d.c: 47:     timer0_init();
   242  001106  EC60  F008         	call	_timer0_init	;wreg free
   243  00110A                     l73:
   244  00110A  D7FF               	goto	l73
   245  00110C                     __end_of_main:
   246                           	opt callstack 0
   247                           
   248 ;; *************** function _timer0_init *****************
   249 ;; Defined at:
   250 ;;		line 10 in file "Timer.c"
   251 ;; Parameters:    Size  Location     Type
   252 ;;		None
   253 ;; Auto vars:     Size  Location     Type
   254 ;;		None
   255 ;; Return value:  Size  Location     Type
   256 ;;                  1    wreg      void 
   257 ;; Registers used:
   258 ;;		wreg, status,2, cstack
   259 ;; Tracked objects:
   260 ;;		On entry : 0/0
   261 ;;		On exit  : 0/0
   262 ;;		Unchanged: 0/0
   263 ;; Data sizes:     COMRAM   BANK0   BANK1   BANK2   BANK3   BANK4   BANK5   BANK6   BANK7   BANK8   BANK9  BANK10  BANK1
      +1  BANK12  BANK13  BANK14  BANK15
   264 ;;      Params:         0       0       0       0       0       0       0       0       0       0       0       0       
      +0       0       0       0       0
   265 ;;      Locals:         0       0       0       0       0       0       0       0       0       0       0       0       
      +0       0       0       0       0
   266 ;;      Temps:          0       0       0       0       0       0       0       0       0       0       0       0       
      +0       0       0       0       0
   267 ;;      Totals:         0       0       0       0       0       0       0       0       0       0       0       0       
      +0       0       0       0       0
   268 ;;Total ram usage:        0 bytes
   269 ;; Hardware stack levels used:    1
   270 ;; Hardware stack levels required when called:    4
   271 ;; This function calls:
   272 ;;		_timer0_reset
   273 ;; This function is called by:
   274 ;;		_main
   275 ;; This function uses a non-reentrant model
   276 ;;
   277                           
   278                           	psect	text1
   279  0010C0                     __ptext1:
   280                           	opt callstack 0
   281  0010C0                     _timer0_init:
   282                           	opt callstack 26
   283                           
   284                           ;Timer.c: 11:     RCONbits.IPEN = 1;
   285                           
   286                           ;incstack = 0
   287  0010C0  8ED0               	bsf	4048,7,c	;volatile
   288                           
   289                           ;Timer.c: 12:     TMR0IP = 0;
   290  0010C2  94F1               	bcf	4081,2,c	;volatile
   291                           
   292                           ;Timer.c: 13:     TMR0IE = 1;
   293  0010C4  8AF2               	bsf	4082,5,c	;volatile
   294                           
   295                           ;Timer.c: 14:     GIEH = 1;
   296  0010C6  8EF2               	bsf	4082,7,c	;volatile
   297                           
   298                           ;Timer.c: 15:     GIEL = 1;
   299  0010C8  8CF2               	bsf	4082,6,c	;volatile
   300                           
   301                           ;Timer.c: 16:     T0CON = 2;
   302  0010CA  0E02               	movlw	2
   303  0010CC  6ED5               	movwf	4053,c	;volatile
   304                           
   305                           ;Timer.c: 17:     timer0_reset();
   306  0010CE  EC6A  F008         	call	_timer0_reset	;wreg free
   307  0010D2  0012               	return		;funcret
   308  0010D4                     __end_of_timer0_init:
   309                           	opt callstack 0
   310                           
   311 ;; *************** function _timer0_reset *****************
   312 ;; Defined at:
   313 ;;		line 4 in file "Timer.c"
   314 ;; Parameters:    Size  Location     Type
   315 ;;		None
   316 ;; Auto vars:     Size  Location     Type
   317 ;;		None
   318 ;; Return value:  Size  Location     Type
   319 ;;                  1    wreg      void 
   320 ;; Registers used:
   321 ;;		wreg, status,2
   322 ;; Tracked objects:
   323 ;;		On entry : 0/0
   324 ;;		On exit  : 0/0
   325 ;;		Unchanged: 0/0
   326 ;; Data sizes:     COMRAM   BANK0   BANK1   BANK2   BANK3   BANK4   BANK5   BANK6   BANK7   BANK8   BANK9  BANK10  BANK1
      +1  BANK12  BANK13  BANK14  BANK15
   327 ;;      Params:         0       0       0       0       0       0       0       0       0       0       0       0       
      +0       0       0       0       0
   328 ;;      Locals:         0       0       0       0       0       0       0       0       0       0       0       0       
      +0       0       0       0       0
   329 ;;      Temps:          0       0       0       0       0       0       0       0       0       0       0       0       
      +0       0       0       0       0
   330 ;;      Totals:         0       0       0       0       0       0       0       0       0       0       0       0       
      +0       0       0       0       0
   331 ;;Total ram usage:        0 bytes
   332 ;; Hardware stack levels used:    1
   333 ;; Hardware stack levels required when called:    3
   334 ;; This function calls:
   335 ;;		Nothing
   336 ;; This function is called by:
   337 ;;		_timer0_init
   338 ;; This function uses a non-reentrant model
   339 ;;
   340                           
   341                           	psect	text2
   342  0010D4                     __ptext2:
   343                           	opt callstack 0
   344  0010D4                     _timer0_reset:
   345                           	opt callstack 26
   346                           
   347                           ;Timer.c: 5:     TMR0IF = 0;
   348                           
   349                           ;incstack = 0
   350  0010D4  94F2               	bcf	4082,2,c	;volatile
   351                           
   352                           ;Timer.c: 6:     TMR0ON = 0;
   353  0010D6  9ED5               	bcf	4053,7,c	;volatile
   354                           
   355                           ;Timer.c: 7:     TMR0 = -125;
   356  0010D8  0EFF               	movlw	255
   357  0010DA  6ED7               	movwf	4055,c	;volatile
   358  0010DC  0E83               	movlw	131
   359  0010DE  6ED6               	movwf	4054,c	;volatile
   360                           
   361                           ;Timer.c: 8:     TMR0ON = 1;
   362  0010E0  8ED5               	bsf	4053,7,c	;volatile
   363  0010E2  0012               	return		;funcret
   364  0010E4                     __end_of_timer0_reset:
   365                           	opt callstack 0
   366                           
   367 ;; *************** function _init *****************
   368 ;; Defined at:
   369 ;;		line 38 in file "Tn_05_l7d.c"
   370 ;; Parameters:    Size  Location     Type
   371 ;;		None
   372 ;; Auto vars:     Size  Location     Type
   373 ;;		None
   374 ;; Return value:  Size  Location     Type
   375 ;;                  1    wreg      void 
   376 ;; Registers used:
   377 ;;		wreg, status,2
   378 ;; Tracked objects:
   379 ;;		On entry : 0/0
   380 ;;		On exit  : 0/0
   381 ;;		Unchanged: 0/0
   382 ;; Data sizes:     COMRAM   BANK0   BANK1   BANK2   BANK3   BANK4   BANK5   BANK6   BANK7   BANK8   BANK9  BANK10  BANK1
      +1  BANK12  BANK13  BANK14  BANK15
   383 ;;      Params:         0       0       0       0       0       0       0       0       0       0       0       0       
      +0       0       0       0       0
   384 ;;      Locals:         0       0       0       0       0       0       0       0       0       0       0       0       
      +0       0       0       0       0
   385 ;;      Temps:          0       0       0       0       0       0       0       0       0       0       0       0       
      +0       0       0       0       0
   386 ;;      Totals:         0       0       0       0       0       0       0       0       0       0       0       0       
      +0       0       0       0       0
   387 ;;Total ram usage:        0 bytes
   388 ;; Hardware stack levels used:    1
   389 ;; Hardware stack levels required when called:    3
   390 ;; This function calls:
   391 ;;		Nothing
   392 ;; This function is called by:
   393 ;;		_main
   394 ;; This function uses a non-reentrant model
   395 ;;
   396                           
   397                           	psect	text3
   398  0010F4                     __ptext3:
   399                           	opt callstack 0
   400  0010F4                     _init:
   401                           	opt callstack 27
   402                           
   403                           ;Tn_05_l7d.c: 39:     TRISB = 0;
   404                           
   405                           ;incstack = 0
   406  0010F4  0E00               	movlw	0
   407  0010F6  6E93               	movwf	3987,c	;volatile
   408                           
   409                           ;Tn_05_l7d.c: 40:     TRISD = 0;
   410  0010F8  0E00               	movlw	0
   411  0010FA  6E95               	movwf	3989,c	;volatile
   412                           
   413                           ;Tn_05_l7d.c: 41:     selidx = 0;
   414  0010FC  0E00               	movlw	0
   415  0010FE  6E11               	movwf	_selidx,c
   416  001100  0012               	return		;funcret
   417  001102                     __end_of_init:
   418                           	opt callstack 0
   419                           
   420 ;; *************** function _timer1_isr *****************
   421 ;; Defined at:
   422 ;;		line 19 in file "Timer.c"
   423 ;; Parameters:    Size  Location     Type
   424 ;;		None
   425 ;; Auto vars:     Size  Location     Type
   426 ;;		None
   427 ;; Return value:  Size  Location     Type
   428 ;;                  1    wreg      void 
   429 ;; Registers used:
   430 ;;		wreg, status,2, status,0, tblptrl, tblptrh, tblptru, cstack
   431 ;; Tracked objects:
   432 ;;		On entry : 0/0
   433 ;;		On exit  : 0/0
   434 ;;		Unchanged: 0/0
   435 ;; Data sizes:     COMRAM   BANK0   BANK1   BANK2   BANK3   BANK4   BANK5   BANK6   BANK7   BANK8   BANK9  BANK10  BANK1
      +1  BANK12  BANK13  BANK14  BANK15
   436 ;;      Params:         0       0       0       0       0       0       0       0       0       0       0       0       
      +0       0       0       0       0
   437 ;;      Locals:         0       0       0       0       0       0       0       0       0       0       0       0       
      +0       0       0       0       0
   438 ;;      Temps:          7       0       0       0       0       0       0       0       0       0       0       0       
      +0       0       0       0       0
   439 ;;      Totals:         7       0       0       0       0       0       0       0       0       0       0       0       
      +0       0       0       0       0
   440 ;;Total ram usage:        7 bytes
   441 ;; Hardware stack levels used:    1
   442 ;; Hardware stack levels required when called:    2
   443 ;; This function calls:
   444 ;;		_timer_process
   445 ;;		i1_timer0_reset
   446 ;; This function is called by:
   447 ;;		Interrupt level 1
   448 ;; This function uses a non-reentrant model
   449 ;;
   450                           
   451                           	psect	intcodelo
   452  000018                     __pintcodelo:
   453                           	opt callstack 0
   454  000018                     _timer1_isr:
   455                           	opt callstack 26
   456                           
   457                           ;incstack = 0
   458  000018  8012               	bsf	btemp,0,c	;set compiler interrupt flag (level 1)
   459  00001A  CFD8 F006          	movff	status,??_timer1_isr
   460  00001E  CFE8 F007          	movff	wreg,??_timer1_isr+1
   461  000022  CFE0 F008          	movff	bsr,??_timer1_isr+2
   462  000026  CFF6 F009          	movff	tblptrl,??_timer1_isr+3
   463  00002A  CFF7 F00A          	movff	tblptrh,??_timer1_isr+4
   464  00002E  CFF8 F00B          	movff	tblptru,??_timer1_isr+5
   465  000032  CFF5 F00C          	movff	tablat,??_timer1_isr+6
   466                           
   467                           ;Timer.c: 20:         timer0_reset();
   468  000036  EC72  F008         	call	i1_timer0_reset	;wreg free
   469                           
   470                           ;Timer.c: 21:         timer_process();
   471  00003A  EC35  F008         	call	_timer_process	;wreg free
   472  00003E  C00C  FFF5         	movff	??_timer1_isr+6,tablat
   473  000042  C00B  FFF8         	movff	??_timer1_isr+5,tblptru
   474  000046  C00A  FFF7         	movff	??_timer1_isr+4,tblptrh
   475  00004A  C009  FFF6         	movff	??_timer1_isr+3,tblptrl
   476  00004E  C008  FFE0         	movff	??_timer1_isr+2,bsr
   477  000052  C007  FFE8         	movff	??_timer1_isr+1,wreg
   478  000056  C006  FFD8         	movff	??_timer1_isr,status
   479  00005A  9012               	bcf	btemp,0,c	;clear compiler interrupt flag (level 1)
   480  00005C  0010               	retfie	
   481  00005E                     __end_of_timer1_isr:
   482                           	opt callstack 0
   483                           
   484 ;; *************** function i1_timer0_reset *****************
   485 ;; Defined at:
   486 ;;		line 4 in file "Timer.c"
   487 ;; Parameters:    Size  Location     Type
   488 ;;		None
   489 ;; Auto vars:     Size  Location     Type
   490 ;;		None
   491 ;; Return value:  Size  Location     Type
   492 ;;                  1    wreg      void 
   493 ;; Registers used:
   494 ;;		wreg, status,2
   495 ;; Tracked objects:
   496 ;;		On entry : 0/0
   497 ;;		On exit  : 0/0
   498 ;;		Unchanged: 0/0
   499 ;; Data sizes:     COMRAM   BANK0   BANK1   BANK2   BANK3   BANK4   BANK5   BANK6   BANK7   BANK8   BANK9  BANK10  BANK1
      +1  BANK12  BANK13  BANK14  BANK15
   500 ;;      Params:         0       0       0       0       0       0       0       0       0       0       0       0       
      +0       0       0       0       0
   501 ;;      Locals:         0       0       0       0       0       0       0       0       0       0       0       0       
      +0       0       0       0       0
   502 ;;      Temps:          0       0       0       0       0       0       0       0       0       0       0       0       
      +0       0       0       0       0
   503 ;;      Totals:         0       0       0       0       0       0       0       0       0       0       0       0       
      +0       0       0       0       0
   504 ;;Total ram usage:        0 bytes
   505 ;; Hardware stack levels used:    1
   506 ;; This function calls:
   507 ;;		Nothing
   508 ;; This function is called by:
   509 ;;		_timer1_isr
   510 ;; This function uses a non-reentrant model
   511 ;;
   512                           
   513                           	psect	text5
   514  0010E4                     __ptext5:
   515                           	opt callstack 0
   516  0010E4                     i1_timer0_reset:
   517                           	opt callstack 27
   518                           
   519                           ;Timer.c: 5:     TMR0IF = 0;
   520                           
   521                           ;incstack = 0
   522  0010E4  94F2               	bcf	4082,2,c	;volatile
   523                           
   524                           ;Timer.c: 6:     TMR0ON = 0;
   525  0010E6  9ED5               	bcf	4053,7,c	;volatile
   526                           
   527                           ;Timer.c: 7:     TMR0 = -125;
   528  0010E8  0EFF               	movlw	255
   529  0010EA  6ED7               	movwf	4055,c	;volatile
   530  0010EC  0E83               	movlw	131
   531  0010EE  6ED6               	movwf	4054,c	;volatile
   532                           
   533                           ;Timer.c: 8:     TMR0ON = 1;
   534  0010F0  8ED5               	bsf	4053,7,c	;volatile
   535  0010F2  0012               	return		;funcret
   536  0010F4                     __end_ofi1_timer0_reset:
   537                           	opt callstack 0
   538                           
   539 ;; *************** function _timer_process *****************
   540 ;; Defined at:
   541 ;;		line 31 in file "Tn_05_l7d.c"
   542 ;; Parameters:    Size  Location     Type
   543 ;;		None
   544 ;; Auto vars:     Size  Location     Type
   545 ;;		None
   546 ;; Return value:  Size  Location     Type
   547 ;;                  1    wreg      void 
   548 ;; Registers used:
   549 ;;		wreg, status,2, status,0, tblptrl, tblptrh, tblptru, cstack
   550 ;; Tracked objects:
   551 ;;		On entry : 0/0
   552 ;;		On exit  : 0/0
   553 ;;		Unchanged: 0/0
   554 ;; Data sizes:     COMRAM   BANK0   BANK1   BANK2   BANK3   BANK4   BANK5   BANK6   BANK7   BANK8   BANK9  BANK10  BANK1
      +1  BANK12  BANK13  BANK14  BANK15
   555 ;;      Params:         0       0       0       0       0       0       0       0       0       0       0       0       
      +0       0       0       0       0
   556 ;;      Locals:         0       0       0       0       0       0       0       0       0       0       0       0       
      +0       0       0       0       0
   557 ;;      Temps:          2       0       0       0       0       0       0       0       0       0       0       0       
      +0       0       0       0       0
   558 ;;      Totals:         2       0       0       0       0       0       0       0       0       0       0       0       
      +0       0       0       0       0
   559 ;;Total ram usage:        2 bytes
   560 ;; Hardware stack levels used:    1
   561 ;; Hardware stack levels required when called:    1
   562 ;; This function calls:
   563 ;;		_gm_7doan
   564 ;; This function is called by:
   565 ;;		_timer1_isr
   566 ;; This function uses a non-reentrant model
   567 ;;
   568                           
   569                           	psect	text6
   570  00106A                     __ptext6:
   571                           	opt callstack 0
   572  00106A                     _timer_process:
   573                           	opt callstack 26
   574                           
   575                           ;Tn_05_l7d.c: 32:     PORTB = 0;
   576                           
   577                           ;incstack = 0
   578  00106A  0E00               	movlw	0
   579  00106C  6E81               	movwf	3969,c	;volatile
   580                           
   581                           ;Tn_05_l7d.c: 33:     PORTD = gm_7doan(dbuf[selidx]);
   582  00106E  0E21               	movlw	low _dbuf
   583  001070  2411               	addwf	_selidx,w,c
   584  001072  6EF6               	movwf	tblptrl,c
   585  001074  6AF7               	clrf	tblptrh,c
   586  001076  0E10               	movlw	high _dbuf
   587  001078  22F7               	addwfc	tblptrh,f,c
   588  00107A                     	if	0	;There are less than 3 active tblptr bytes
   589  00107A                     	endif
   590  00107A  0008               	tblrd		*
   591  00107C  50F5               	movf	tablat,w,c
   592  00107E  EC15  F008         	call	_gm_7doan
   593  001082  6E83               	movwf	3971,c	;volatile
   594                           
   595                           ;Tn_05_l7d.c: 34:     PORTB = 1 << selidx++;
   596  001084  C011  F004         	movff	_selidx,??_timer_process
   597  001088  0E01               	movlw	1
   598  00108A  6E05               	movwf	(??_timer_process+1)& (0+255),c
   599  00108C  2A04               	incf	??_timer_process,f,c
   600  00108E  D002               	goto	i1u3_24
   601  001090                     i1u3_25:
   602  001090  90D8               	bcf	status,0,c
   603  001092  3605               	rlcf	??_timer_process+1,f,c
   604  001094                     i1u3_24:
   605  001094  2E04               	decfsz	??_timer_process,f,c
   606  001096  D7FC               	goto	i1u3_25
   607  001098  5005               	movf	??_timer_process+1,w,c
   608  00109A  6E81               	movwf	3969,c	;volatile
   609  00109C  2A11               	incf	_selidx,f,c
   610                           
   611                           ;Tn_05_l7d.c: 35:     selidx %= 8;
   612  00109E  0E07               	movlw	7
   613  0010A0  1611               	andwf	_selidx,f,c
   614  0010A2  0012               	return		;funcret
   615  0010A4                     __end_of_timer_process:
   616                           	opt callstack 0
   617                           
   618 ;; *************** function _gm_7doan *****************
   619 ;; Defined at:
   620 ;;		line 25 in file "Tn_05_l7d.c"
   621 ;; Parameters:    Size  Location     Type
   622 ;;  so              1    wreg     unsigned char 
   623 ;; Auto vars:     Size  Location     Type
   624 ;;  so              1    2[COMRAM] unsigned char 
   625 ;; Return value:  Size  Location     Type
   626 ;;                  1    wreg      unsigned char 
   627 ;; Registers used:
   628 ;;		wreg, status,2, status,0, tblptrl, tblptrh, tblptru
   629 ;; Tracked objects:
   630 ;;		On entry : 0/0
   631 ;;		On exit  : 0/0
   632 ;;		Unchanged: 0/0
   633 ;; Data sizes:     COMRAM   BANK0   BANK1   BANK2   BANK3   BANK4   BANK5   BANK6   BANK7   BANK8   BANK9  BANK10  BANK1
      +1  BANK12  BANK13  BANK14  BANK15
   634 ;;      Params:         0       0       0       0       0       0       0       0       0       0       0       0       
      +0       0       0       0       0
   635 ;;      Locals:         1       0       0       0       0       0       0       0       0       0       0       0       
      +0       0       0       0       0
   636 ;;      Temps:          2       0       0       0       0       0       0       0       0       0       0       0       
      +0       0       0       0       0
   637 ;;      Totals:         3       0       0       0       0       0       0       0       0       0       0       0       
      +0       0       0       0       0
   638 ;;Total ram usage:        3 bytes
   639 ;; Hardware stack levels used:    1
   640 ;; This function calls:
   641 ;;		Nothing
   642 ;; This function is called by:
   643 ;;		_timer_process
   644 ;; This function uses a non-reentrant model
   645 ;;
   646                           
   647                           	psect	text7
   648  00102A                     __ptext7:
   649                           	opt callstack 0
   650  00102A                     _gm_7doan:
   651                           	opt callstack 26
   652                           
   653                           ;incstack = 0
   654                           ;gm_7doan@so stored from wreg
   655  00102A  6E03               	movwf	gm_7doan@so,c
   656                           
   657                           ;Tn_05_l7d.c: 26:     if (so > 0x1F) return 0;
   658  00102C  0E1F               	movlw	31
   659  00102E  6403               	cpfsgt	gm_7doan@so,c
   660  001030  D002               	goto	i1l764
   661  001032  0E00               	movlw	0
   662  001034  0012               	return	
   663  001036                     i1l764:
   664                           
   665                           ;Tn_05_l7d.c: 27:     if (so < 0x10) return dl7doan[so];
   666  001036  0E10               	movlw	16
   667  001038  6003               	cpfslt	gm_7doan@so,c
   668  00103A  D009               	goto	i1l770
   669  00103C  0E01               	movlw	low _dl7doan
   670  00103E  2403               	addwf	gm_7doan@so,w,c
   671  001040  6EF6               	movwf	tblptrl,c
   672  001042  6AF7               	clrf	tblptrh,c
   673  001044  0E10               	movlw	high _dl7doan
   674  001046  22F7               	addwfc	tblptrh,f,c
   675  001048                     	if	0	;There are less than 3 active tblptr bytes
   676  001048                     	endif
   677  001048  0008               	tblrd		*
   678  00104A  50F5               	movf	tablat,w,c
   679  00104C  0012               	return	
   680  00104E                     i1l770:
   681                           
   682                           ;Tn_05_l7d.c: 28:     return dl7doan[so&0x0f]|0x80;
   683  00104E  5003               	movf	gm_7doan@so,w,c
   684  001050  0B0F               	andlw	15
   685  001052  6E01               	movwf	??_gm_7doan& (0+255),c
   686  001054  6A02               	clrf	(??_gm_7doan+1)& (0+255),c
   687  001056  0E01               	movlw	low _dl7doan
   688  001058  2401               	addwf	??_gm_7doan,w,c
   689  00105A  6EF6               	movwf	tblptrl,c
   690  00105C  0E10               	movlw	high _dl7doan
   691  00105E  2002               	addwfc	??_gm_7doan+1,w,c
   692  001060  6EF7               	movwf	tblptrh,c
   693  001062                     	if	0	;There are less than 3 active tblptr bytes
   694  001062                     	endif
   695  001062  0008               	tblrd		*
   696  001064  50F5               	movf	tablat,w,c
   697  001066  0980               	iorlw	128
   698  001068  0012               	return		;funcret
   699  00106A                     __end_of_gm_7doan:
   700                           	opt callstack 0
   701                           
   702                           	psect	rparam
   703  0000                     
   704                           	psect	temp
   705  000012                     btemp:
   706                           	opt callstack 0
   707  000012                     	ds	1
   708  0000                     int$flags	set	btemp
   709  0000                     wtemp8	set	btemp+1
   710  0000                     ttemp5	set	btemp+1
   711  0000                     ttemp6	set	btemp+4
   712  0000                     ttemp7	set	btemp+8
   713                           tosu	equ	0xFFF
   714                           tosh	equ	0xFFE
   715                           tosl	equ	0xFFD
   716                           stkptr	equ	0xFFC
   717                           pclatu	equ	0xFFB
   718                           pclath	equ	0xFFA
   719                           pcl	equ	0xFF9
   720                           tblptru	equ	0xFF8
   721                           tblptrh	equ	0xFF7
   722                           tblptrl	equ	0xFF6
   723                           tablat	equ	0xFF5
   724                           prodh	equ	0xFF4
   725                           prodl	equ	0xFF3
   726                           indf0	equ	0xFEF
   727                           postinc0	equ	0xFEE
   728                           postdec0	equ	0xFED
   729                           preinc0	equ	0xFEC
   730                           plusw0	equ	0xFEB
   731                           fsr0h	equ	0xFEA
   732                           fsr0l	equ	0xFE9
   733                           wreg	equ	0xFE8
   734                           indf1	equ	0xFE7
   735                           postinc1	equ	0xFE6
   736                           postdec1	equ	0xFE5
   737                           preinc1	equ	0xFE4
   738                           plusw1	equ	0xFE3
   739                           fsr1h	equ	0xFE2
   740                           fsr1l	equ	0xFE1
   741                           bsr	equ	0xFE0
   742                           indf2	equ	0xFDF
   743                           postinc2	equ	0xFDE
   744                           postdec2	equ	0xFDD
   745                           preinc2	equ	0xFDC
   746                           plusw2	equ	0xFDB
   747                           fsr2h	equ	0xFDA
   748                           fsr2l	equ	0xFD9
   749                           status	equ	0xFD8


Data Sizes:
    Strings     0
    Constant    40
    Data        0
    BSS         5
    Persistent  0
    Stack       0

Auto Spaces:
    Space          Size  Autos    Used
    COMRAM           94     12      17
    BANK0           160      0       0
    BANK1           256      0       0
    BANK2           256      0       0
    BANK3           256      0       0
    BANK4           256      0       0
    BANK5           256      0       0
    BANK6           256      0       0
    BANK7           256      0       0
    BANK8           256      0       0
    BANK9           256      0       0
    BANK10          256      0       0
    BANK11          256      0       0
    BANK12          256      0       0
    BANK13          256      0       0
    BANK14          256      0       0
    BANK15           96      0       0

Pointer List with Targets:

    None.

Critical Paths under _main in COMRAM

    None.

Critical Paths under _timer1_isr in COMRAM

    _timer1_isr->_timer_process
    _timer_process->_gm_7doan

Critical Paths under _main in BANK0

    None.

Critical Paths under _timer1_isr in BANK0

    None.

Critical Paths under _main in BANK1

    None.

Critical Paths under _timer1_isr in BANK1

    None.

Critical Paths under _main in BANK2

    None.

Critical Paths under _timer1_isr in BANK2

    None.

Critical Paths under _main in BANK3

    None.

Critical Paths under _timer1_isr in BANK3

    None.

Critical Paths under _main in BANK4

    None.

Critical Paths under _timer1_isr in BANK4

    None.

Critical Paths under _main in BANK5

    None.

Critical Paths under _timer1_isr in BANK5

    None.

Critical Paths under _main in BANK6

    None.

Critical Paths under _timer1_isr in BANK6

    None.

Critical Paths under _main in BANK7

    None.

Critical Paths under _timer1_isr in BANK7

    None.

Critical Paths under _main in BANK8

    None.

Critical Paths under _timer1_isr in BANK8

    None.

Critical Paths under _main in BANK9

    None.

Critical Paths under _timer1_isr in BANK9

    None.

Critical Paths under _main in BANK10

    None.

Critical Paths under _timer1_isr in BANK10

    None.

Critical Paths under _main in BANK11

    None.

Critical Paths under _timer1_isr in BANK11

    None.

Critical Paths under _main in BANK12

    None.

Critical Paths under _timer1_isr in BANK12

    None.

Critical Paths under _main in BANK13

    None.

Critical Paths under _timer1_isr in BANK13

    None.

Critical Paths under _main in BANK14

    None.

Critical Paths under _timer1_isr in BANK14

    None.

Critical Paths under _main in BANK15

    None.

Critical Paths under _timer1_isr in BANK15

    None.

Call Graph Tables:

 ---------------------------------------------------------------------------------
 (Depth) Function   	        Calls       Base Space   Used Autos Params    Refs
 ---------------------------------------------------------------------------------
 (0) _main                                                 0     0      0       0
                               _init
                        _timer0_init
 ---------------------------------------------------------------------------------
 (1) _timer0_init                                          0     0      0       0
                       _timer0_reset
 ---------------------------------------------------------------------------------
 (2) _timer0_reset                                         0     0      0       0
 ---------------------------------------------------------------------------------
 (1) _init                                                 0     0      0       0
 ---------------------------------------------------------------------------------
 Estimated maximum stack depth 2
 ---------------------------------------------------------------------------------
 (Depth) Function   	        Calls       Base Space   Used Autos Params    Refs
 ---------------------------------------------------------------------------------
 (3) _timer1_isr                                           7     7      0      60
                                              5 COMRAM     7     7      0
                      _timer_process
                     i1_timer0_reset
 ---------------------------------------------------------------------------------
 (4) i1_timer0_reset                                       0     0      0       0
 ---------------------------------------------------------------------------------
 (4) _timer_process                                        2     2      0      60
                                              3 COMRAM     2     2      0
                           _gm_7doan
 ---------------------------------------------------------------------------------
 (5) _gm_7doan                                             3     3      0      60
                                              0 COMRAM     3     3      0
 ---------------------------------------------------------------------------------
 Estimated maximum stack depth 5
 ---------------------------------------------------------------------------------

 Call Graph Graphs:

 _main (ROOT)
   _init
   _timer0_init
     _timer0_reset

 _timer1_isr (ROOT)
   _timer_process
     _gm_7doan
   i1_timer0_reset

 Address spaces:
Name               Size   Autos  Total    Cost      Usage
BIGRAM             F5F      0       0      37        0.0%
EEDATA             400      0       0       0        0.0%
BITBANK14          100      0       0      33        0.0%
BANK14             100      0       0      34        0.0%
BITBANK13          100      0       0      30        0.0%
BANK13             100      0       0      31        0.0%
BITBANK12          100      0       0      28        0.0%
BANK12             100      0       0      29        0.0%
BITBANK11          100      0       0      26        0.0%
BANK11             100      0       0      27        0.0%
BITBANK10          100      0       0      24        0.0%
BANK10             100      0       0      25        0.0%
BITBANK9           100      0       0      22        0.0%
BANK9              100      0       0      23        0.0%
BITBANK8           100      0       0      20        0.0%
BANK8              100      0       0      21        0.0%
BITBANK7           100      0       0      18        0.0%
BANK7              100      0       0      19        0.0%
BITBANK6           100      0       0      16        0.0%
BANK6              100      0       0      17        0.0%
BITBANK5           100      0       0      14        0.0%
BANK5              100      0       0      15        0.0%
BITBANK4           100      0       0      12        0.0%
BANK4              100      0       0      13        0.0%
BITBANK3           100      0       0      10        0.0%
BANK3              100      0       0      11        0.0%
BITBANK2           100      0       0       8        0.0%
BANK2              100      0       0       9        0.0%
BITBANK1           100      0       0       6        0.0%
BANK1              100      0       0       7        0.0%
BITBANK0            A0      0       0       4        0.0%
BANK0               A0      0       0       5        0.0%
BITBANK15           60      0       0      35        0.0%
BANK15              60      0       0      36        0.0%
BITCOMRAM           5E      0       0       0        0.0%
COMRAM              5E      C      11       1       18.1%
BITSFR               0      0       0     200        0.0%
SFR                  0      0       0     200        0.0%
STACK                0      0       0       2        0.0%
NULL                 0      0       0       0        0.0%
ABS                  0      0      11      32        0.0%
DATA                 0      0      11       3        0.0%
CODE                 0      0       0       0        0.0%


Microchip Technology PIC18 Macro Assembler V2.05 build -831301201 
Symbol Table                                                                                   Tue Oct 29 14:38:50 2019

                     l73 110A                       bsr 000FE0              __CFG_OSC$HS 000000  
 __end_ofi1_timer0_reset 10F4                      _row 000E                      wreg 000FE8  
           __CFG_LVP$OFF 000000             __CFG_WDT$OFF 000000                     _GIEH 007F97  
                   _GIEL 007F96                     _TMR0 000FD6                     _dbuf 1021  
                   _gcol 0010                     _main 1102                     _init 10F4  
                   _rcol 000F                     btemp 0012                     start 005E  
           ___param_bank 000000          ??_timer_process 0004          __end_of_dl7doan 1011  
                  ?_main 0001                    ?_init 0001          ?i1_timer0_reset 0001  
                  _T0CON 000FD5                    i1l770 104E                    i1l764 1036  
                  _PORTB 000F81                    _PORTD 000F83                    _TRISB 000F93  
                  _TRISD 000F95                    tablat 000FF5                    ttemp5 0013  
                  ttemp6 0016                    ttemp7 001A                    status 000FD8  
                  wtemp8 0013          __initialization 10A4             __end_of_dbuf 1029  
           __end_of_main 110C             __end_of_init 1102                   ??_main 000D  
                 ??_init 000D            __activetblptr 000001                   _TMR0IE 007F95  
                 _TMR0IF 007F92                   _TMR0IP 007F8A                   _TMR0ON 007EAF  
                 i1u3_24 1094                   i1u3_25 1090         __end_of_gm_7doan 106A  
           ?_timer0_init 0001                   _maurom 1011                   _select 000D  
                 _selidx 0011             __mediumconst 0000                   tblptrh 000FF7  
                 tblptrl 000FF6                   tblptru 000FF8               __accesstop 0060  
__end_of__initialization 10AE            ___rparam_used 000001           __pcstackCOMRAM 0001  
       ??i1_timer0_reset 0001                ?_gm_7doan 0001                  __Hparam 0000  
                __Lparam 0000               gm_7doan@so 0003                  _dl7doan 1001  
           __psmallconst 1000                  __pcinit 10A4                  __ramtop 1000  
   __size_of_timer0_init 0014            ?_timer0_reset 0001                  __ptext0 1102  
                __ptext1 10C0                  __ptext2 10D4                  __ptext3 10F4  
                __ptext5 10E4                  __ptext6 106A                  __ptext7 102A  
  __end_of_timer_process 10A4               ??_gm_7doan 0001     end_of_initialization 10AE  
             _timer1_isr 0018           ??_timer0_reset 000D           __end_of_maurom 1021  
    start_initialization 10A4              ?_timer1_isr 0001              __pbssCOMRAM 000D  
      __size_of_gm_7doan 0040     __end_of_timer0_reset 10E4              __pintcodelo 0018  
            __smallconst 1000      __size_of_timer1_isr 0046                 _RCONbits 000FD0  
          ??_timer0_init 000D  __size_ofi1_timer0_reset 0010   __size_of_timer_process 003A  
               __Hrparam 0000                 __Lrparam 0000             __Lsmallconst 1000  
    __end_of_timer0_init 10D4                 _gm_7doan 102A    __size_of_timer0_reset 0010  
          __size_of_main 000A            __size_of_init 000E             ??_timer1_isr 0006  
               int$flags 0012             _timer0_reset 10D4            _timer_process 106A  
               intlevel1 0000       __end_of_timer1_isr 005E              _timer0_init 10C0  
         ?_timer_process 0001           i1_timer0_reset 10E4  
