:040000006EEF00F0AF
:100018002580D8CF06F0E8CF07F0E0CF08F0FACF78
:1000280009F0FBCF0AF0E9CF0BF0EACF0CF0E1CFF3
:100038000DF0E2CF0EF0D9CF0FF0DACF10F0F3CFFA
:1000480011F0F4CF12F0F6CF13F0F7CF14F0F8CF89
:1000580015F0F5CF16F025C017F026C018F027C008
:1000680019F028C01AF0010EF2AA000EF2A4000E30
:10007800E8A004D084EC08F02BEC08F01AC028F0B3
:1000880019C027F018C026F017C025F016C0F5FFD4
:1000980015C0F8FF14C0F7FF13C0F6FF12C0F4FF35
:1000A80011C0F3FF10C0DAFF0FC0D9FF0EC0E2FF86
:1000B8000DC0E1FF0CC0EAFF0BC0E9FF0AC0FBFF5F
:1000C80009C0FAFF08C0E0FF07C0E8FF06C0D8FF74
:0800D800259010005BEF08F019
:10100000003F065B4F666D7D077F6F777C395E79A9
:101010007100036E1F0E036402D0000E1200100E4A
:1010200003600BD00350010D010EF324F66E100E79
:10103000F420F76E0800F550120003500F0B016EFC
:10104000026A010E0124F66E100E0220F76E0800EF
:10105000F55080091200000E8A6E2450010D1C0EFE
:10106000F324D96E000EF420DA6EDF5009EC08F09C
:101070008C6E24C004F0010E056E042A02D0D890B4
:101080000536042EFCD705508A6E242A070E241636
:101090001200000E1B6E070E1B6401D012001B50C5
:1010A000010D1C0EF324D96E000EF420DA6E1BC065
:1010B000DFFF1B2AF0D700EE1CF0090EEE6AE806EF
:1010C000FDE125902592000EF86E100EF76E0001DE
:1010D0008CEF08F0D08EF194F28AF28EF28C000E32
:1010E000D56E74EC08F01200F294D59E170ED76EF0
:1010F000B80ED66ED58E12000F0EC16E928A000EFB
:10110000956E000E936E1200F294D59E170ED76E58
:10111000B80ED66ED58E12007CEC08F049EC08F0C3
:061120006AEC08F0FFD7A5
:020000040020DA
:08000000FFFFFFFFFFFFFFFF00
:020000040030CA
:0E000000FF021F1EF38381FFFFC0FFE0FF40E1
:00000001FF
