

Microchip Technology PIC18 LITE Macro Assembler V1.45 build -152302408 
                                                                                               Tue Oct 08 13:45:55 2019

Microchip Technology Omniscient Code Generator v1.45 (Free mode) build 201711160504
     1                           	processor	18F8722
     2                           	fnconf	rparam,??,?,0
     3                           	opt	pw 120
     4                           	opt	lm
     5                           	psect	smallconst,global,reloc=2,class=SMALLCONST,delta=1,noexec
     6                           	psect	nvCOMRAM,global,class=COMRAM,space=1,delta=1,noexec
     7                           	psect	cinit,global,reloc=2,class=CODE,delta=1
     8                           	psect	bssCOMRAM,global,class=COMRAM,space=1,delta=1,noexec
     9                           	psect	cstackCOMRAM,global,class=COMRAM,space=1,delta=1,noexec
    10                           	psect	text0,global,reloc=2,class=CODE,delta=1
    11                           	psect	text1,global,reloc=2,class=CODE,delta=1
    12                           	psect	text2,global,reloc=2,class=CODE,delta=1
    13                           	psect	text3,global,reloc=2,class=CODE,delta=1
    14                           	psect	text4,global,reloc=2,class=CODE,delta=1
    15                           	psect	text5,global,reloc=2,class=CODE,delta=1
    16                           	psect	intcodelo,global,reloc=2,class=CODE,delta=1
    17                           	psect	text7,global,reloc=2,class=CODE,delta=1
    18                           	psect	text8,global,reloc=2,class=CODE,delta=1
    19                           	psect	text9,global,reloc=2,class=CODE,delta=1
    20                           	psect	intsave_regs,global,class=BIGRAM,space=1,delta=1,noexec
    21                           	psect	rparam,global,class=COMRAM,space=1,delta=1,noexec
    22                           	psect	temp,global,ovrld,common,class=COMRAM,space=1,delta=1
    23  0000                     
    24                           ; Version 1.45
    25                           ; Generated 16/11/2017 GMT
    26                           ; 
    27                           ; Copyright © 2017, Microchip Technology Inc. and its subsidiaries ("Microchip")
    28                           ; All rights reserved.
    29                           ; 
    30                           ; This software is developed by Microchip Technology Inc. and its subsidiaries ("Microch
      +                          ip").
    31                           ; 
    32                           ; Redistribution and use in source and binary forms, with or without modification, are
    33                           ; permitted provided that the following conditions are met:
    34                           ; 
    35                           ;     1. Redistributions of source code must retain the above copyright notice, this lis
      +                          t of
    36                           ;        conditions and the following disclaimer.
    37                           ; 
    38                           ;     2. Redistributions in binary form must reproduce the above copyright notice, this 
      +                          list
    39                           ;        of conditions and the following disclaimer in the documentation and/or other
    40                           ;        materials provided with the distribution.
    41                           ; 
    42                           ;     3. Microchip's name may not be used to endorse or promote products derived from th
      +                          is
    43                           ;        software without specific prior written permission.
    44                           ; 
    45                           ; THIS SOFTWARE IS PROVIDED BY MICROCHIP "AS IS" AND ANY EXPRESS OR IMPLIED WARRANTIES,
    46                           ; INCLUDING, BUT NOT LIMITED TO, THE IMPLIED WARRANTIES OF MERCHANTABILITY AND FITNESS F
      +                          OR
    47                           ; PURPOSE ARE DISCLAIMED.  IN NO EVENT SHALL MICROCHIP BE LIABLE FOR ANY DIRECT, INDIREC
      +                          T,
    48                           ; INCIDENTAL, SPECIAL, EXEMPLARY, OR CONSEQUENTIAL DAMAGES (INCLUDING BUT NOT LIMITED TO
    49                           ; PROCUREMENT OF SUBSTITUTE GOODS OR SERVICES; LOSS OF USE, DATA OR PROFITS; OR BUSINESS
    50                           ; INTERRUPTION) HOWSOEVER CAUSED AND ON ANY THEORY OF LIABILITY, WHETHER IN CONTRACT, ST
      +                          RICT
    51                           ; LIABILITY, OR TORT (INCLUDING NEGLIGENCE OR OTHERWISE) ARISING IN ANY WAY OUT OF THE U
      +                          SE OF
    52                           ; THIS SOFTWARE, EVEN IF ADVISED OF THE POSSIBILITY OF SUCH DAMAGE.
    53                           ; 
    54                           ; 
    55                           ; Code-generator required, PIC18F8722 Definitions
    56                           ; 
    57                           ; SFR Addresses
    58  0000                     
    59                           	psect	smallconst
    60  001000                     __psmallconst:
    61                           	opt stack 0
    62  001000  00                 	db	0
    63  001001                     _dl_rom:
    64                           	opt stack 0
    65  001001  FF                 	db	255
    66  001002  7E                 	db	126
    67  001003  3C                 	db	60
    68  001004  18                 	db	24
    69  001005  00                 	db	0
    70  001006  18                 	db	24
    71  001007  3C                 	db	60
    72  001008  7E                 	db	126
    73  001009  01                 	db	1
    74  00100A  03                 	db	3
    75  00100B  07                 	db	7
    76  00100C  0F                 	db	15
    77  00100D  1F                 	db	31
    78  00100E  3F                 	db	63
    79  00100F  7F                 	db	127
    80  001010  FF                 	db	255
    81  001011  01                 	db	1
    82  001012  02                 	db	2
    83  001013  04                 	db	4
    84  001014  08                 	db	8
    85  001015  10                 	db	16
    86  001016  20                 	db	32
    87  001017  40                 	db	64
    88  001018  80                 	db	128
    89  001019  00                 	db	0
    90  00101A  81                 	db	129
    91  00101B  C3                 	db	195
    92  00101C  E7                 	db	231
    93  00101D  FF                 	db	255
    94  00101E  E7                 	db	231
    95  00101F  C3                 	db	195
    96  001020  81                 	db	129
    97  001021                     __end_of_dl_rom:
    98                           	opt stack 0
    99  001021  00                 	db	0	; dummy byte at the end
   100  0000                     
   101                           	psect	nvCOMRAM
   102  000020                     __pnvCOMRAM:
   103                           	opt stack 0
   104  000020                     _dem1s:
   105                           	opt stack 0
   106  000020                     	ds	1
   107  000021                     _dem500ms:
   108                           	opt stack 0
   109  000021                     	ds	1
   110  0000                     _TMR0	set	4054
   111  0000                     _T0CON	set	4053
   112  0000                     _INTCONbits	set	4082
   113  0000                     _INTCON2bits	set	4081
   114  0000                     _RCONbits	set	4048
   115  0000                     _ADCON1	set	4033
   116  0000                     _TMR0IE	set	32661
   117  0000                     _TMR0ON	set	32431
   118  0000                     _TMR0IF	set	32658
   119                           
   120                           ; #config settings
   121  0000                     
   122                           	psect	cinit
   123  001022                     __pcinit:
   124                           	opt stack 0
   125  001022                     start_initialization:
   126                           	opt stack 0
   127  001022                     __initialization:
   128                           	opt stack 0
   129                           
   130                           ; Clear objects allocated to COMRAM (10 bytes)
   131  001022  EE00  F016         	lfsr	0,__pbssCOMRAM
   132  001026  0E0A               	movlw	10
   133  001028                     clear_0:
   134  001028  6AEE               	clrf	postinc0,c
   135  00102A  06E8               	decf	wreg,f,c
   136  00102C  E1FD               	bnz	clear_0
   137  00102E                     end_of_initialization:
   138                           	opt stack 0
   139  00102E                     __end_of__initialization:
   140                           	opt stack 0
   141  00102E  9022               	bcf	int$flags,0,c	;clear compiler interrupt flag (level 1)
   142  001030  9222               	bcf	int$flags,1,c	;clear compiler interrupt flag (level 2)
   143  001032  0E00               	movlw	low (__Lsmallconst shr (0+16))
   144  001034  6EF8               	movwf	tblptru,c
   145  001036  0E10               	movlw	high __Lsmallconst
   146  001038  6EF7               	movwf	tblptrh,c
   147  00103A  0100               	movlb	0
   148  00103C  EF46  F008         	goto	_main	;jump to C main() function
   149                           tblptru	equ	0xFF8
   150                           tblptrh	equ	0xFF7
   151                           postinc0	equ	0xFEE
   152                           wreg	equ	0xFE8
   153                           
   154                           	psect	bssCOMRAM
   155  000016                     __pbssCOMRAM:
   156                           	opt stack 0
   157  000016                     _dl_ram:
   158                           	opt stack 0
   159  000016                     	ds	8
   160  00001E                     _romidx:
   161                           	opt stack 0
   162  00001E                     	ds	1
   163  00001F                     _ramidx:
   164                           	opt stack 0
   165  00001F                     	ds	1
   166                           tblptru	equ	0xFF8
   167                           tblptrh	equ	0xFF7
   168                           postinc0	equ	0xFEE
   169                           wreg	equ	0xFE8
   170                           
   171                           	psect	cstackCOMRAM
   172  000001                     __pcstackCOMRAM:
   173                           	opt stack 0
   174  000001                     ??_timer0_isr:
   175  000001                     
   176                           ; 1 bytes @ 0x0
   177  000001                     	ds	21
   178  000016                     tblptru	equ	0xFF8
   179                           tblptrh	equ	0xFF7
   180                           postinc0	equ	0xFEE
   181                           wreg	equ	0xFE8
   182                           
   183                           ; 1 bytes @ 0x15
   184 ;;
   185 ;;Main: autosize = 0, tempsize = 0, incstack = 0, save=0
   186 ;;
   187 ;; *************** function _main *****************
   188 ;; Defined at:
   189 ;;		line 66 in file "Tn04_Timer.c"
   190 ;; Parameters:    Size  Location     Type
   191 ;;		None
   192 ;; Auto vars:     Size  Location     Type
   193 ;;		None
   194 ;; Return value:  Size  Location     Type
   195 ;;                  1    wreg      void 
   196 ;; Registers used:
   197 ;;		wreg, fsr2l, fsr2h, status,2, status,0, prodl, prodh, cstack
   198 ;; Tracked objects:
   199 ;;		On entry : 0/0
   200 ;;		On exit  : 0/0
   201 ;;		Unchanged: 0/0
   202 ;; Data sizes:     COMRAM   BANK0   BANK1   BANK2   BANK3   BANK4   BANK5   BANK6   BANK7   BANK8   BANK9  BANK10  BANK1
      +1  BANK12  BANK13  BANK14  BANK15
   203 ;;      Params:         0       0       0       0       0       0       0       0       0       0       0       0       
      +0       0       0       0       0
   204 ;;      Locals:         0       0       0       0       0       0       0       0       0       0       0       0       
      +0       0       0       0       0
   205 ;;      Temps:          0       0       0       0       0       0       0       0       0       0       0       0       
      +0       0       0       0       0
   206 ;;      Totals:         0       0       0       0       0       0       0       0       0       0       0       0       
      +0       0       0       0       0
   207 ;;Total ram usage:        0 bytes
   208 ;; Hardware stack levels required when called:    5
   209 ;; This function calls:
   210 ;;		_init
   211 ;;		_timer0_init
   212 ;;		_tre1s
   213 ;;		_xuatled
   214 ;; This function is called by:
   215 ;;		Startup code after reset
   216 ;; This function uses a non-reentrant model
   217 ;;
   218                           
   219                           	psect	text0
   220  00108C                     __ptext0:
   221                           	opt stack 0
   222  00108C                     _main:
   223                           	opt stack 26
   224                           
   225                           ;Tn04_Timer.c: 68: init();
   226                           
   227                           ;incstack = 0
   228  00108C  EC4F  F008         	call	_init	;wreg free
   229                           
   230                           ;Tn04_Timer.c: 69: timer0_init();
   231  001090  EC3C  F008         	call	_timer0_init	;wreg free
   232  001094                     l46:
   233                           
   234                           ;Tn04_Timer.c: 71: { tre1s();xuatled();}
   235  001094  EC6F  F008         	call	_tre1s	;wreg free
   236  001098  EC20  F008         	call	_xuatled	;wreg free
   237  00109C  D7FB               	goto	l46
   238  00109E                     __end_of_main:
   239                           	opt stack 0
   240                           tblptru	equ	0xFF8
   241                           tblptrh	equ	0xFF7
   242                           postinc0	equ	0xFEE
   243                           wreg	equ	0xFE8
   244                           
   245 ;; *************** function _xuatled *****************
   246 ;; Defined at:
   247 ;;		line 25 in file "Tn04_Timer.c"
   248 ;; Parameters:    Size  Location     Type
   249 ;;		None
   250 ;; Auto vars:     Size  Location     Type
   251 ;;		None
   252 ;; Return value:  Size  Location     Type
   253 ;;                  1    wreg      void 
   254 ;; Registers used:
   255 ;;		wreg, fsr2l, fsr2h, status,2, status,0, prodl, prodh
   256 ;; Tracked objects:
   257 ;;		On entry : 0/0
   258 ;;		On exit  : 0/0
   259 ;;		Unchanged: 0/0
   260 ;; Data sizes:     COMRAM   BANK0   BANK1   BANK2   BANK3   BANK4   BANK5   BANK6   BANK7   BANK8   BANK9  BANK10  BANK1
      +1  BANK12  BANK13  BANK14  BANK15
   261 ;;      Params:         0       0       0       0       0       0       0       0       0       0       0       0       
      +0       0       0       0       0
   262 ;;      Locals:         0       0       0       0       0       0       0       0       0       0       0       0       
      +0       0       0       0       0
   263 ;;      Temps:          0       0       0       0       0       0       0       0       0       0       0       0       
      +0       0       0       0       0
   264 ;;      Totals:         0       0       0       0       0       0       0       0       0       0       0       0       
      +0       0       0       0       0
   265 ;;Total ram usage:        0 bytes
   266 ;; Hardware stack levels used:    1
   267 ;; Hardware stack levels required when called:    3
   268 ;; This function calls:
   269 ;;		Nothing
   270 ;; This function is called by:
   271 ;;		_main
   272 ;; This function uses a non-reentrant model
   273 ;;
   274                           
   275                           	psect	text1
   276  001040                     __ptext1:
   277                           	opt stack 0
   278  001040                     _xuatled:
   279                           	opt stack 27
   280                           
   281                           ;Tn04_Timer.c: 27: led=dl_ram[ramidx++];
   282                           
   283                           ;incstack = 0
   284  001040  501F               	movf	_ramidx,w,c
   285  001042  0D01               	mullw	1
   286  001044  0E16               	movlw	low _dl_ram
   287  001046  24F3               	addwf	prodl,w,c
   288  001048  6ED9               	movwf	fsr2l,c
   289  00104A  0E00               	movlw	high _dl_ram
   290  00104C  20F4               	addwfc	prodh,w,c
   291  00104E  6EDA               	movwf	fsr2h,c
   292  001050  50DF               	movf	indf2,w,c
   293  001052  6E8C               	movwf	3980,c	;volatile
   294  001054  2A1F               	incf	_ramidx,f,c
   295                           
   296                           ;Tn04_Timer.c: 28: ramidx%=8;
   297  001056  0E07               	movlw	7
   298  001058  161F               	andwf	_ramidx,f,c
   299  00105A  0012               	return		;funcret
   300  00105C                     __end_of_xuatled:
   301                           	opt stack 0
   302                           tblptru	equ	0xFF8
   303                           tblptrh	equ	0xFF7
   304                           prodh	equ	0xFF4
   305                           prodl	equ	0xFF3
   306                           postinc0	equ	0xFEE
   307                           wreg	equ	0xFE8
   308                           indf2	equ	0xFDF
   309                           fsr2h	equ	0xFDA
   310                           fsr2l	equ	0xFD9
   311                           
   312 ;; *************** function _tre1s *****************
   313 ;; Defined at:
   314 ;;		line 62 in file "Tn04_Timer.c"
   315 ;; Parameters:    Size  Location     Type
   316 ;;		None
   317 ;; Auto vars:     Size  Location     Type
   318 ;;		None
   319 ;; Return value:  Size  Location     Type
   320 ;;                  1    wreg      void 
   321 ;; Registers used:
   322 ;;		wreg, status,2
   323 ;; Tracked objects:
   324 ;;		On entry : 0/0
   325 ;;		On exit  : 0/0
   326 ;;		Unchanged: 0/0
   327 ;; Data sizes:     COMRAM   BANK0   BANK1   BANK2   BANK3   BANK4   BANK5   BANK6   BANK7   BANK8   BANK9  BANK10  BANK1
      +1  BANK12  BANK13  BANK14  BANK15
   328 ;;      Params:         0       0       0       0       0       0       0       0       0       0       0       0       
      +0       0       0       0       0
   329 ;;      Locals:         0       0       0       0       0       0       0       0       0       0       0       0       
      +0       0       0       0       0
   330 ;;      Temps:          0       0       0       0       0       0       0       0       0       0       0       0       
      +0       0       0       0       0
   331 ;;      Totals:         0       0       0       0       0       0       0       0       0       0       0       0       
      +0       0       0       0       0
   332 ;;Total ram usage:        0 bytes
   333 ;; Hardware stack levels used:    1
   334 ;; Hardware stack levels required when called:    3
   335 ;; This function calls:
   336 ;;		Nothing
   337 ;; This function is called by:
   338 ;;		_main
   339 ;; This function uses a non-reentrant model
   340 ;;
   341                           
   342                           	psect	text2
   343  0010DE                     __ptext2:
   344                           	opt stack 0
   345  0010DE                     _tre1s:
   346                           	opt stack 27
   347                           
   348                           ;incstack = 0
   349  0010DE  0E14               	movlw	20
   350  0010E0  6E20               	movwf	_dem1s,c
   351  0010E2  5020               	movf	_dem1s,w,c
   352  0010E4  B4D8               	btfsc	status,2,c
   353  0010E6  0012               	return	
   354  0010E8  D7FC               	goto	l39
   355  0010EA                     __end_of_tre1s:
   356                           	opt stack 0
   357                           tblptru	equ	0xFF8
   358                           tblptrh	equ	0xFF7
   359                           prodh	equ	0xFF4
   360                           prodl	equ	0xFF3
   361                           postinc0	equ	0xFEE
   362                           wreg	equ	0xFE8
   363                           indf2	equ	0xFDF
   364                           fsr2h	equ	0xFDA
   365                           fsr2l	equ	0xFD9
   366                           status	equ	0xFD8
   367                           
   368 ;; *************** function _timer0_init *****************
   369 ;; Defined at:
   370 ;;		line 11 in file "Timer.c"
   371 ;; Parameters:    Size  Location     Type
   372 ;;		None
   373 ;; Auto vars:     Size  Location     Type
   374 ;;		None
   375 ;; Return value:  Size  Location     Type
   376 ;;                  1    wreg      void 
   377 ;; Registers used:
   378 ;;		wreg, status,2, cstack
   379 ;; Tracked objects:
   380 ;;		On entry : 0/0
   381 ;;		On exit  : 0/0
   382 ;;		Unchanged: 0/0
   383 ;; Data sizes:     COMRAM   BANK0   BANK1   BANK2   BANK3   BANK4   BANK5   BANK6   BANK7   BANK8   BANK9  BANK10  BANK1
      +1  BANK12  BANK13  BANK14  BANK15
   384 ;;      Params:         0       0       0       0       0       0       0       0       0       0       0       0       
      +0       0       0       0       0
   385 ;;      Locals:         0       0       0       0       0       0       0       0       0       0       0       0       
      +0       0       0       0       0
   386 ;;      Temps:          0       0       0       0       0       0       0       0       0       0       0       0       
      +0       0       0       0       0
   387 ;;      Totals:         0       0       0       0       0       0       0       0       0       0       0       0       
      +0       0       0       0       0
   388 ;;Total ram usage:        0 bytes
   389 ;; Hardware stack levels used:    1
   390 ;; Hardware stack levels required when called:    4
   391 ;; This function calls:
   392 ;;		_timer0_reset
   393 ;; This function is called by:
   394 ;;		_main
   395 ;; This function uses a non-reentrant model
   396 ;;
   397                           
   398                           	psect	text3
   399  001078                     __ptext3:
   400                           	opt stack 0
   401  001078                     _timer0_init:
   402                           	opt stack 26
   403                           
   404                           ;Timer.c: 13: RCONbits.IPEN=1;
   405                           
   406                           ;incstack = 0
   407  001078  8ED0               	bsf	4048,7,c	;volatile
   408                           
   409                           ;Timer.c: 14: INTCON2bits.TMR0IP=0;
   410  00107A  94F1               	bcf	intcon2,2,c	;volatile
   411                           
   412                           ;Timer.c: 15: INTCONbits.TMR0IE=1;
   413  00107C  8AF2               	bsf	intcon,5,c	;volatile
   414                           
   415                           ;Timer.c: 16: INTCONbits.GIEH=1;
   416  00107E  8EF2               	bsf	intcon,7,c	;volatile
   417                           
   418                           ;Timer.c: 17: INTCONbits.GIEL=1;
   419  001080  8CF2               	bsf	intcon,6,c	;volatile
   420                           
   421                           ;Timer.c: 18: T0CON=0;
   422  001082  0E00               	movlw	0
   423  001084  6ED5               	movwf	4053,c	;volatile
   424                           
   425                           ;Timer.c: 19: timer0_reset();
   426  001086  EC58  F008         	call	_timer0_reset	;wreg free
   427  00108A  0012               	return		;funcret
   428  00108C                     __end_of_timer0_init:
   429                           	opt stack 0
   430                           tblptru	equ	0xFF8
   431                           tblptrh	equ	0xFF7
   432                           prodh	equ	0xFF4
   433                           prodl	equ	0xFF3
   434                           intcon	equ	0xFF2
   435                           intcon2	equ	0xFF1
   436                           postinc0	equ	0xFEE
   437                           wreg	equ	0xFE8
   438                           indf2	equ	0xFDF
   439                           fsr2h	equ	0xFDA
   440                           fsr2l	equ	0xFD9
   441                           status	equ	0xFD8
   442                           
   443 ;; *************** function _timer0_reset *****************
   444 ;; Defined at:
   445 ;;		line 4 in file "Timer.c"
   446 ;; Parameters:    Size  Location     Type
   447 ;;		None
   448 ;; Auto vars:     Size  Location     Type
   449 ;;		None
   450 ;; Return value:  Size  Location     Type
   451 ;;                  1    wreg      void 
   452 ;; Registers used:
   453 ;;		wreg, status,2
   454 ;; Tracked objects:
   455 ;;		On entry : 0/0
   456 ;;		On exit  : 0/0
   457 ;;		Unchanged: 0/0
   458 ;; Data sizes:     COMRAM   BANK0   BANK1   BANK2   BANK3   BANK4   BANK5   BANK6   BANK7   BANK8   BANK9  BANK10  BANK1
      +1  BANK12  BANK13  BANK14  BANK15
   459 ;;      Params:         0       0       0       0       0       0       0       0       0       0       0       0       
      +0       0       0       0       0
   460 ;;      Locals:         0       0       0       0       0       0       0       0       0       0       0       0       
      +0       0       0       0       0
   461 ;;      Temps:          0       0       0       0       0       0       0       0       0       0       0       0       
      +0       0       0       0       0
   462 ;;      Totals:         0       0       0       0       0       0       0       0       0       0       0       0       
      +0       0       0       0       0
   463 ;;Total ram usage:        0 bytes
   464 ;; Hardware stack levels used:    1
   465 ;; Hardware stack levels required when called:    3
   466 ;; This function calls:
   467 ;;		Nothing
   468 ;; This function is called by:
   469 ;;		_timer0_init
   470 ;; This function uses a non-reentrant model
   471 ;;
   472                           
   473                           	psect	text4
   474  0010B0                     __ptext4:
   475                           	opt stack 0
   476  0010B0                     _timer0_reset:
   477                           	opt stack 26
   478                           
   479                           ;Timer.c: 6: TMR0IF=0;
   480                           
   481                           ;incstack = 0
   482  0010B0  94F2               	bcf	intcon,2,c	;volatile
   483                           
   484                           ;Timer.c: 7: TMR0ON=0;
   485  0010B2  9ED5               	bcf	4053,7,c	;volatile
   486                           
   487                           ;Timer.c: 8: TMR0=-3125;
   488  0010B4  0EF3               	movlw	243
   489  0010B6  6ED7               	movwf	4055,c	;volatile
   490  0010B8  0ECB               	movlw	203
   491  0010BA  6ED6               	movwf	4054,c	;volatile
   492                           
   493                           ;Timer.c: 9: TMR0ON=1;
   494  0010BC  8ED5               	bsf	4053,7,c	;volatile
   495  0010BE  0012               	return		;funcret
   496  0010C0                     __end_of_timer0_reset:
   497                           	opt stack 0
   498                           tblptru	equ	0xFF8
   499                           tblptrh	equ	0xFF7
   500                           prodh	equ	0xFF4
   501                           prodl	equ	0xFF3
   502                           intcon	equ	0xFF2
   503                           intcon2	equ	0xFF1
   504                           postinc0	equ	0xFEE
   505                           wreg	equ	0xFE8
   506                           indf2	equ	0xFDF
   507                           fsr2h	equ	0xFDA
   508                           fsr2l	equ	0xFD9
   509                           status	equ	0xFD8
   510                           
   511 ;; *************** function _init *****************
   512 ;; Defined at:
   513 ;;		line 46 in file "Tn04_Timer.c"
   514 ;; Parameters:    Size  Location     Type
   515 ;;		None
   516 ;; Auto vars:     Size  Location     Type
   517 ;;		None
   518 ;; Return value:  Size  Location     Type
   519 ;;                  1    wreg      void 
   520 ;; Registers used:
   521 ;;		wreg, status,2
   522 ;; Tracked objects:
   523 ;;		On entry : 0/0
   524 ;;		On exit  : 0/0
   525 ;;		Unchanged: 0/0
   526 ;; Data sizes:     COMRAM   BANK0   BANK1   BANK2   BANK3   BANK4   BANK5   BANK6   BANK7   BANK8   BANK9  BANK10  BANK1
      +1  BANK12  BANK13  BANK14  BANK15
   527 ;;      Params:         0       0       0       0       0       0       0       0       0       0       0       0       
      +0       0       0       0       0
   528 ;;      Locals:         0       0       0       0       0       0       0       0       0       0       0       0       
      +0       0       0       0       0
   529 ;;      Temps:          0       0       0       0       0       0       0       0       0       0       0       0       
      +0       0       0       0       0
   530 ;;      Totals:         0       0       0       0       0       0       0       0       0       0       0       0       
      +0       0       0       0       0
   531 ;;Total ram usage:        0 bytes
   532 ;; Hardware stack levels used:    1
   533 ;; Hardware stack levels required when called:    3
   534 ;; This function calls:
   535 ;;		Nothing
   536 ;; This function is called by:
   537 ;;		_main
   538 ;; This function uses a non-reentrant model
   539 ;;
   540                           
   541                           	psect	text5
   542  00109E                     __ptext5:
   543                           	opt stack 0
   544  00109E                     _init:
   545                           	opt stack 27
   546                           
   547                           ;Tn04_Timer.c: 48: ADCON1=0x0F;
   548                           
   549                           ;incstack = 0
   550  00109E  0E0F               	movlw	15
   551  0010A0  6EC1               	movwf	4033,c	;volatile
   552                           
   553                           ;Tn04_Timer.c: 49: led_io=0;
   554  0010A2  0E00               	movlw	0
   555  0010A4  6E95               	movwf	3989,c	;volatile
   556                           
   557                           ;Tn04_Timer.c: 50: led=0x00;
   558  0010A6  0E00               	movlw	0
   559  0010A8  6E8C               	movwf	3980,c	;volatile
   560                           
   561                           ;Tn04_Timer.c: 51: dem500ms=10;
   562  0010AA  0E0A               	movlw	10
   563  0010AC  6E21               	movwf	_dem500ms,c
   564  0010AE  0012               	return		;funcret
   565  0010B0                     __end_of_init:
   566                           	opt stack 0
   567                           tblptru	equ	0xFF8
   568                           tblptrh	equ	0xFF7
   569                           prodh	equ	0xFF4
   570                           prodl	equ	0xFF3
   571                           intcon	equ	0xFF2
   572                           intcon2	equ	0xFF1
   573                           postinc0	equ	0xFEE
   574                           wreg	equ	0xFE8
   575                           indf2	equ	0xFDF
   576                           fsr2h	equ	0xFDA
   577                           fsr2l	equ	0xFD9
   578                           status	equ	0xFD8
   579                           
   580 ;; *************** function _timer0_isr *****************
   581 ;; Defined at:
   582 ;;		line 21 in file "Timer.c"
   583 ;; Parameters:    Size  Location     Type
   584 ;;		None
   585 ;; Auto vars:     Size  Location     Type
   586 ;;		None
   587 ;; Return value:  Size  Location     Type
   588 ;;                  1    wreg      void 
   589 ;; Registers used:
   590 ;;		wreg, fsr2l, fsr2h, status,2, status,0, prodl, prodh, cstack
   591 ;; Tracked objects:
   592 ;;		On entry : 0/0
   593 ;;		On exit  : 0/0
   594 ;;		Unchanged: 0/0
   595 ;; Data sizes:     COMRAM   BANK0   BANK1   BANK2   BANK3   BANK4   BANK5   BANK6   BANK7   BANK8   BANK9  BANK10  BANK1
      +1  BANK12  BANK13  BANK14  BANK15
   596 ;;      Params:         0       0       0       0       0       0       0       0       0       0       0       0       
      +0       0       0       0       0
   597 ;;      Locals:         0       0       0       0       0       0       0       0       0       0       0       0       
      +0       0       0       0       0
   598 ;;      Temps:         21       0       0       0       0       0       0       0       0       0       0       0       
      +0       0       0       0       0
   599 ;;      Totals:        21       0       0       0       0       0       0       0       0       0       0       0       
      +0       0       0       0       0
   600 ;;Total ram usage:       21 bytes
   601 ;; Hardware stack levels used:    1
   602 ;; Hardware stack levels required when called:    2
   603 ;; This function calls:
   604 ;;		_timer_process
   605 ;;		i1_timer0_reset
   606 ;; This function is called by:
   607 ;;		Interrupt level 1
   608 ;; This function uses a non-reentrant model
   609 ;;
   610                           
   611                           	psect	intcodelo
   612  000018                     __pintcodelo:
   613                           	opt stack 0
   614  000018                     _timer0_isr:
   615                           	opt stack 26
   616                           
   617                           ;incstack = 0
   618  000018  8022               	bsf	btemp,0,c	;set compiler interrupt flag (level 1)
   619  00001A  CFD8 F001          	movff	status,??_timer0_isr
   620  00001E  CFE8 F002          	movff	wreg,??_timer0_isr+1
   621  000022  CFE0 F003          	movff	bsr,??_timer0_isr+2
   622  000026  CFFA F004          	movff	pclath,??_timer0_isr+3
   623  00002A  CFFB F005          	movff	pclatu,??_timer0_isr+4
   624  00002E  CFE9 F006          	movff	fsr0l,??_timer0_isr+5
   625  000032  CFEA F007          	movff	fsr0h,??_timer0_isr+6
   626  000036  CFE1 F008          	movff	fsr1l,??_timer0_isr+7
   627  00003A  CFE2 F009          	movff	fsr1h,??_timer0_isr+8
   628  00003E  CFD9 F00A          	movff	fsr2l,??_timer0_isr+9
   629  000042  CFDA F00B          	movff	fsr2h,??_timer0_isr+10
   630  000046  CFF3 F00C          	movff	prodl,??_timer0_isr+11
   631  00004A  CFF4 F00D          	movff	prodh,??_timer0_isr+12
   632  00004E  CFF6 F00E          	movff	tblptrl,??_timer0_isr+13
   633  000052  CFF7 F00F          	movff	tblptrh,??_timer0_isr+14
   634  000056  CFF8 F010          	movff	tblptru,??_timer0_isr+15
   635  00005A  CFF5 F011          	movff	tablat,??_timer0_isr+16
   636  00005E  C022  F012         	movff	btemp,??_timer0_isr+17
   637  000062  C023  F013         	movff	btemp+1,??_timer0_isr+18
   638  000066  C024  F014         	movff	btemp+2,??_timer0_isr+19
   639  00006A  C025  F015         	movff	btemp+3,??_timer0_isr+20
   640                           
   641                           ;Timer.c: 23: if(TMR0IE&TMR0IF)
   642  00006E  0E01               	movlw	1
   643  000070  AAF2               	btfss	intcon,5,c	;volatile
   644  000072  0E00               	movlw	0
   645  000074  A4F2               	btfss	intcon,2,c	;volatile
   646  000076  0E00               	movlw	0
   647  000078  A0E8               	btfss	wreg,0,c
   648  00007A  D004               	goto	i1l78
   649                           
   650                           ;Timer.c: 24: {
   651                           ;Timer.c: 25: timer0_reset();
   652  00007C  EC60  F008         	call	i1_timer0_reset	;wreg free
   653                           
   654                           ;Timer.c: 26: timer_process();
   655  000080  EC68  F008         	call	_timer_process	;wreg free
   656  000084                     i1l78:
   657  000084  C015  F025         	movff	??_timer0_isr+20,btemp+3
   658  000088  C014  F024         	movff	??_timer0_isr+19,btemp+2
   659  00008C  C013  F023         	movff	??_timer0_isr+18,btemp+1
   660  000090  C012  F022         	movff	??_timer0_isr+17,btemp
   661  000094  C011  FFF5         	movff	??_timer0_isr+16,tablat
   662  000098  C010  FFF8         	movff	??_timer0_isr+15,tblptru
   663  00009C  C00F  FFF7         	movff	??_timer0_isr+14,tblptrh
   664  0000A0  C00E  FFF6         	movff	??_timer0_isr+13,tblptrl
   665  0000A4  C00D  FFF4         	movff	??_timer0_isr+12,prodh
   666  0000A8  C00C  FFF3         	movff	??_timer0_isr+11,prodl
   667  0000AC  C00B  FFDA         	movff	??_timer0_isr+10,fsr2h
   668  0000B0  C00A  FFD9         	movff	??_timer0_isr+9,fsr2l
   669  0000B4  C009  FFE2         	movff	??_timer0_isr+8,fsr1h
   670  0000B8  C008  FFE1         	movff	??_timer0_isr+7,fsr1l
   671  0000BC  C007  FFEA         	movff	??_timer0_isr+6,fsr0h
   672  0000C0  C006  FFE9         	movff	??_timer0_isr+5,fsr0l
   673  0000C4  C005  FFFB         	movff	??_timer0_isr+4,pclatu
   674  0000C8  C004  FFFA         	movff	??_timer0_isr+3,pclath
   675  0000CC  C003  FFE0         	movff	??_timer0_isr+2,bsr
   676  0000D0  C002  FFE8         	movff	??_timer0_isr+1,wreg
   677  0000D4  C001  FFD8         	movff	??_timer0_isr,status
   678  0000D8  9022               	bcf	btemp,0,c	;clear compiler interrupt flag (level 1)
   679  0000DA  0010               	retfie	
   680  0000DC                     __end_of_timer0_isr:
   681                           	opt stack 0
   682                           pclatu	equ	0xFFB
   683                           pclath	equ	0xFFA
   684                           tblptru	equ	0xFF8
   685                           tblptrh	equ	0xFF7
   686                           tblptrl	equ	0xFF6
   687                           tablat	equ	0xFF5
   688                           prodh	equ	0xFF4
   689                           prodl	equ	0xFF3
   690                           intcon	equ	0xFF2
   691                           intcon2	equ	0xFF1
   692                           postinc0	equ	0xFEE
   693                           fsr0h	equ	0xFEA
   694                           fsr0l	equ	0xFE9
   695                           wreg	equ	0xFE8
   696                           fsr1h	equ	0xFE2
   697                           fsr1l	equ	0xFE1
   698                           bsr	equ	0xFE0
   699                           indf2	equ	0xFDF
   700                           fsr2h	equ	0xFDA
   701                           fsr2l	equ	0xFD9
   702                           status	equ	0xFD8
   703                           
   704 ;; *************** function i1_timer0_reset *****************
   705 ;; Defined at:
   706 ;;		line 4 in file "Timer.c"
   707 ;; Parameters:    Size  Location     Type
   708 ;;		None
   709 ;; Auto vars:     Size  Location     Type
   710 ;;		None
   711 ;; Return value:  Size  Location     Type
   712 ;;                  1    wreg      void 
   713 ;; Registers used:
   714 ;;		wreg, status,2
   715 ;; Tracked objects:
   716 ;;		On entry : 0/0
   717 ;;		On exit  : 0/0
   718 ;;		Unchanged: 0/0
   719 ;; Data sizes:     COMRAM   BANK0   BANK1   BANK2   BANK3   BANK4   BANK5   BANK6   BANK7   BANK8   BANK9  BANK10  BANK1
      +1  BANK12  BANK13  BANK14  BANK15
   720 ;;      Params:         0       0       0       0       0       0       0       0       0       0       0       0       
      +0       0       0       0       0
   721 ;;      Locals:         0       0       0       0       0       0       0       0       0       0       0       0       
      +0       0       0       0       0
   722 ;;      Temps:          0       0       0       0       0       0       0       0       0       0       0       0       
      +0       0       0       0       0
   723 ;;      Totals:         0       0       0       0       0       0       0       0       0       0       0       0       
      +0       0       0       0       0
   724 ;;Total ram usage:        0 bytes
   725 ;; Hardware stack levels used:    1
   726 ;; This function calls:
   727 ;;		Nothing
   728 ;; This function is called by:
   729 ;;		_timer0_isr
   730 ;; This function uses a non-reentrant model
   731 ;;
   732                           
   733                           	psect	text7
   734  0010C0                     __ptext7:
   735                           	opt stack 0
   736  0010C0                     i1_timer0_reset:
   737                           	opt stack 27
   738                           
   739                           ;Timer.c: 6: TMR0IF=0;
   740                           
   741                           ;incstack = 0
   742  0010C0  94F2               	bcf	intcon,2,c	;volatile
   743                           
   744                           ;Timer.c: 7: TMR0ON=0;
   745  0010C2  9ED5               	bcf	4053,7,c	;volatile
   746                           
   747                           ;Timer.c: 8: TMR0=-3125;
   748  0010C4  0EF3               	movlw	243
   749  0010C6  6ED7               	movwf	4055,c	;volatile
   750  0010C8  0ECB               	movlw	203
   751  0010CA  6ED6               	movwf	4054,c	;volatile
   752                           
   753                           ;Timer.c: 9: TMR0ON=1;
   754  0010CC  8ED5               	bsf	4053,7,c	;volatile
   755  0010CE  0012               	return		;funcret
   756  0010D0                     __end_ofi1_timer0_reset:
   757                           	opt stack 0
   758                           pclatu	equ	0xFFB
   759                           pclath	equ	0xFFA
   760                           tblptru	equ	0xFF8
   761                           tblptrh	equ	0xFF7
   762                           tblptrl	equ	0xFF6
   763                           tablat	equ	0xFF5
   764                           prodh	equ	0xFF4
   765                           prodl	equ	0xFF3
   766                           intcon	equ	0xFF2
   767                           intcon2	equ	0xFF1
   768                           postinc0	equ	0xFEE
   769                           fsr0h	equ	0xFEA
   770                           fsr0l	equ	0xFE9
   771                           wreg	equ	0xFE8
   772                           fsr1h	equ	0xFE2
   773                           fsr1l	equ	0xFE1
   774                           bsr	equ	0xFE0
   775                           indf2	equ	0xFDF
   776                           fsr2h	equ	0xFDA
   777                           fsr2l	equ	0xFD9
   778                           status	equ	0xFD8
   779                           
   780 ;; *************** function _timer_process *****************
   781 ;; Defined at:
   782 ;;		line 30 in file "Tn04_Timer.c"
   783 ;; Parameters:    Size  Location     Type
   784 ;;		None
   785 ;; Auto vars:     Size  Location     Type
   786 ;;		None
   787 ;; Return value:  Size  Location     Type
   788 ;;                  1    wreg      void 
   789 ;; Registers used:
   790 ;;		wreg, fsr2l, fsr2h, status,2, status,0, prodl, prodh, cstack
   791 ;; Tracked objects:
   792 ;;		On entry : 0/0
   793 ;;		On exit  : 0/0
   794 ;;		Unchanged: 0/0
   795 ;; Data sizes:     COMRAM   BANK0   BANK1   BANK2   BANK3   BANK4   BANK5   BANK6   BANK7   BANK8   BANK9  BANK10  BANK1
      +1  BANK12  BANK13  BANK14  BANK15
   796 ;;      Params:         0       0       0       0       0       0       0       0       0       0       0       0       
      +0       0       0       0       0
   797 ;;      Locals:         0       0       0       0       0       0       0       0       0       0       0       0       
      +0       0       0       0       0
   798 ;;      Temps:          0       0       0       0       0       0       0       0       0       0       0       0       
      +0       0       0       0       0
   799 ;;      Totals:         0       0       0       0       0       0       0       0       0       0       0       0       
      +0       0       0       0       0
   800 ;;Total ram usage:        0 bytes
   801 ;; Hardware stack levels used:    1
   802 ;; Hardware stack levels required when called:    1
   803 ;; This function calls:
   804 ;;		i1_xuatled
   805 ;; This function is called by:
   806 ;;		_timer0_isr
   807 ;; This function uses a non-reentrant model
   808 ;;
   809                           
   810                           	psect	text8
   811  0010D0                     __ptext8:
   812                           	opt stack 0
   813  0010D0                     _timer_process:
   814                           	opt stack 26
   815                           
   816                           ;Tn04_Timer.c: 32: if ((--dem500ms)==0)
   817                           
   818                           ;incstack = 0
   819  0010D0  2E21               	decfsz	_dem500ms,f,c
   820  0010D2  0012               	return	
   821                           
   822                           ;Tn04_Timer.c: 33: {
   823                           ;Tn04_Timer.c: 34: xuatled();
   824  0010D4  EC2E  F008         	call	i1_xuatled	;wreg free
   825                           
   826                           ;Tn04_Timer.c: 35: dem500ms=10;
   827  0010D8  0E0A               	movlw	10
   828  0010DA  6E21               	movwf	_dem500ms,c
   829  0010DC  0012               	return	
   830  0010DE                     __end_of_timer_process:
   831                           	opt stack 0
   832                           pclatu	equ	0xFFB
   833                           pclath	equ	0xFFA
   834                           tblptru	equ	0xFF8
   835                           tblptrh	equ	0xFF7
   836                           tblptrl	equ	0xFF6
   837                           tablat	equ	0xFF5
   838                           prodh	equ	0xFF4
   839                           prodl	equ	0xFF3
   840                           intcon	equ	0xFF2
   841                           intcon2	equ	0xFF1
   842                           postinc0	equ	0xFEE
   843                           fsr0h	equ	0xFEA
   844                           fsr0l	equ	0xFE9
   845                           wreg	equ	0xFE8
   846                           fsr1h	equ	0xFE2
   847                           fsr1l	equ	0xFE1
   848                           bsr	equ	0xFE0
   849                           indf2	equ	0xFDF
   850                           fsr2h	equ	0xFDA
   851                           fsr2l	equ	0xFD9
   852                           status	equ	0xFD8
   853                           
   854 ;; *************** function i1_xuatled *****************
   855 ;; Defined at:
   856 ;;		line 25 in file "Tn04_Timer.c"
   857 ;; Parameters:    Size  Location     Type
   858 ;;		None
   859 ;; Auto vars:     Size  Location     Type
   860 ;;		None
   861 ;; Return value:  Size  Location     Type
   862 ;;                  1    wreg      void 
   863 ;; Registers used:
   864 ;;		wreg, fsr2l, fsr2h, status,2, status,0, prodl, prodh
   865 ;; Tracked objects:
   866 ;;		On entry : 0/0
   867 ;;		On exit  : 0/0
   868 ;;		Unchanged: 0/0
   869 ;; Data sizes:     COMRAM   BANK0   BANK1   BANK2   BANK3   BANK4   BANK5   BANK6   BANK7   BANK8   BANK9  BANK10  BANK1
      +1  BANK12  BANK13  BANK14  BANK15
   870 ;;      Params:         0       0       0       0       0       0       0       0       0       0       0       0       
      +0       0       0       0       0
   871 ;;      Locals:         0       0       0       0       0       0       0       0       0       0       0       0       
      +0       0       0       0       0
   872 ;;      Temps:          0       0       0       0       0       0       0       0       0       0       0       0       
      +0       0       0       0       0
   873 ;;      Totals:         0       0       0       0       0       0       0       0       0       0       0       0       
      +0       0       0       0       0
   874 ;;Total ram usage:        0 bytes
   875 ;; Hardware stack levels used:    1
   876 ;; This function calls:
   877 ;;		Nothing
   878 ;; This function is called by:
   879 ;;		_timer_process
   880 ;; This function uses a non-reentrant model
   881 ;;
   882                           
   883                           	psect	text9
   884  00105C                     __ptext9:
   885                           	opt stack 0
   886  00105C                     i1_xuatled:
   887                           	opt stack 26
   888                           
   889                           ;Tn04_Timer.c: 27: led=dl_ram[ramidx++];
   890                           
   891                           ;incstack = 0
   892  00105C  501F               	movf	_ramidx,w,c
   893  00105E  0D01               	mullw	1
   894  001060  0E16               	movlw	low _dl_ram
   895  001062  24F3               	addwf	prodl,w,c
   896  001064  6ED9               	movwf	fsr2l,c
   897  001066  0E00               	movlw	high _dl_ram
   898  001068  20F4               	addwfc	prodh,w,c
   899  00106A  6EDA               	movwf	fsr2h,c
   900  00106C  50DF               	movf	indf2,w,c
   901  00106E  6E8C               	movwf	3980,c	;volatile
   902  001070  2A1F               	incf	_ramidx,f,c
   903                           
   904                           ;Tn04_Timer.c: 28: ramidx%=8;
   905  001072  0E07               	movlw	7
   906  001074  161F               	andwf	_ramidx,f,c
   907  001076  0012               	return		;funcret
   908  001078                     __end_ofi1_xuatled:
   909                           	opt stack 0
   910                           pclatu	equ	0xFFB
   911                           pclath	equ	0xFFA
   912                           tblptru	equ	0xFF8
   913                           tblptrh	equ	0xFF7
   914                           tblptrl	equ	0xFF6
   915                           tablat	equ	0xFF5
   916                           prodh	equ	0xFF4
   917                           prodl	equ	0xFF3
   918                           intcon	equ	0xFF2
   919                           intcon2	equ	0xFF1
   920                           postinc0	equ	0xFEE
   921                           fsr0h	equ	0xFEA
   922                           fsr0l	equ	0xFE9
   923                           wreg	equ	0xFE8
   924                           fsr1h	equ	0xFE2
   925                           fsr1l	equ	0xFE1
   926                           bsr	equ	0xFE0
   927                           indf2	equ	0xFDF
   928                           fsr2h	equ	0xFDA
   929                           fsr2l	equ	0xFD9
   930                           status	equ	0xFD8
   931                           pclatu	equ	0xFFB
   932                           pclath	equ	0xFFA
   933                           tblptru	equ	0xFF8
   934                           tblptrh	equ	0xFF7
   935                           tblptrl	equ	0xFF6
   936                           tablat	equ	0xFF5
   937                           prodh	equ	0xFF4
   938                           prodl	equ	0xFF3
   939                           intcon	equ	0xFF2
   940                           intcon2	equ	0xFF1
   941                           postinc0	equ	0xFEE
   942                           fsr0h	equ	0xFEA
   943                           fsr0l	equ	0xFE9
   944                           wreg	equ	0xFE8
   945                           fsr1h	equ	0xFE2
   946                           fsr1l	equ	0xFE1
   947                           bsr	equ	0xFE0
   948                           indf2	equ	0xFDF
   949                           fsr2h	equ	0xFDA
   950                           fsr2l	equ	0xFD9
   951                           status	equ	0xFD8
   952                           
   953                           	psect	rparam
   954  0000                     pclatu	equ	0xFFB
   955                           pclath	equ	0xFFA
   956                           tblptru	equ	0xFF8
   957                           tblptrh	equ	0xFF7
   958                           tblptrl	equ	0xFF6
   959                           tablat	equ	0xFF5
   960                           prodh	equ	0xFF4
   961                           prodl	equ	0xFF3
   962                           intcon	equ	0xFF2
   963                           intcon2	equ	0xFF1
   964                           postinc0	equ	0xFEE
   965                           fsr0h	equ	0xFEA
   966                           fsr0l	equ	0xFE9
   967                           wreg	equ	0xFE8
   968                           fsr1h	equ	0xFE2
   969                           fsr1l	equ	0xFE1
   970                           bsr	equ	0xFE0
   971                           indf2	equ	0xFDF
   972                           fsr2h	equ	0xFDA
   973                           fsr2l	equ	0xFD9
   974                           status	equ	0xFD8
   975                           
   976                           	psect	temp
   977  000022                     btemp:
   978                           	opt stack 0
   979  000022                     	ds	1
   980  0000                     int$flags	set	btemp
   981  0000                     wtemp6	set	btemp+1
   982                           pclatu	equ	0xFFB
   983                           pclath	equ	0xFFA
   984                           tblptru	equ	0xFF8
   985                           tblptrh	equ	0xFF7
   986                           tblptrl	equ	0xFF6
   987                           tablat	equ	0xFF5
   988                           prodh	equ	0xFF4
   989                           prodl	equ	0xFF3
   990                           intcon	equ	0xFF2
   991                           intcon2	equ	0xFF1
   992                           postinc0	equ	0xFEE
   993                           fsr0h	equ	0xFEA
   994                           fsr0l	equ	0xFE9
   995                           wreg	equ	0xFE8
   996                           fsr1h	equ	0xFE2
   997                           fsr1l	equ	0xFE1
   998                           bsr	equ	0xFE0
   999                           indf2	equ	0xFDF
  1000                           fsr2h	equ	0xFDA
  1001                           fsr2l	equ	0xFD9
  1002                           status	equ	0xFD8


Data Sizes:
    Strings     0
    Constant    32
    Data        0
    BSS         10
    Persistent  2
    Stack       0

Auto Spaces:
    Space          Size  Autos    Used
    COMRAM           94     21      33
    BANK0           160      0       0
    BANK1           256      0       0
    BANK2           256      0       0
    BANK3           256      0       0
    BANK4           256      0       0
    BANK5           256      0       0
    BANK6           256      0       0
    BANK7           256      0       0
    BANK8           256      0       0
    BANK9           256      0       0
    BANK10          256      0       0
    BANK11          256      0       0
    BANK12          256      0       0
    BANK13          256      0       0
    BANK14          256      0       0
    BANK15           96      0       0

Pointer List with Targets:

    None.

Critical Paths under _main in COMRAM

    None.

Critical Paths under _timer0_isr in COMRAM

    None.

Critical Paths under _main in BANK0

    None.

Critical Paths under _timer0_isr in BANK0

    None.

Critical Paths under _main in BANK1

    None.

Critical Paths under _timer0_isr in BANK1

    None.

Critical Paths under _main in BANK2

    None.

Critical Paths under _timer0_isr in BANK2

    None.

Critical Paths under _main in BANK3

    None.

Critical Paths under _timer0_isr in BANK3

    None.

Critical Paths under _main in BANK4

    None.

Critical Paths under _timer0_isr in BANK4

    None.

Critical Paths under _main in BANK5

    None.

Critical Paths under _timer0_isr in BANK5

    None.

Critical Paths under _main in BANK6

    None.

Critical Paths under _timer0_isr in BANK6

    None.

Critical Paths under _main in BANK7

    None.

Critical Paths under _timer0_isr in BANK7

    None.

Critical Paths under _main in BANK8

    None.

Critical Paths under _timer0_isr in BANK8

    None.

Critical Paths under _main in BANK9

    None.

Critical Paths under _timer0_isr in BANK9

    None.

Critical Paths under _main in BANK10

    None.

Critical Paths under _timer0_isr in BANK10

    None.

Critical Paths under _main in BANK11

    None.

Critical Paths under _timer0_isr in BANK11

    None.

Critical Paths under _main in BANK12

    None.

Critical Paths under _timer0_isr in BANK12

    None.

Critical Paths under _main in BANK13

    None.

Critical Paths under _timer0_isr in BANK13

    None.

Critical Paths under _main in BANK14

    None.

Critical Paths under _timer0_isr in BANK14

    None.

Critical Paths under _main in BANK15

    None.

Critical Paths under _timer0_isr in BANK15

    None.

Call Graph Tables:

 ---------------------------------------------------------------------------------
 (Depth) Function   	        Calls       Base Space   Used Autos Params    Refs
 ---------------------------------------------------------------------------------
 (0) _main                                                 0     0      0       0
                               _init
                        _timer0_init
                              _tre1s
                            _xuatled
 ---------------------------------------------------------------------------------
 (1) _xuatled                                              0     0      0       0
 ---------------------------------------------------------------------------------
 (1) _tre1s                                                0     0      0       0
 ---------------------------------------------------------------------------------
 (1) _timer0_init                                          0     0      0       0
                       _timer0_reset
 ---------------------------------------------------------------------------------
 (2) _timer0_reset                                         0     0      0       0
 ---------------------------------------------------------------------------------
 (1) _init                                                 0     0      0       0
 ---------------------------------------------------------------------------------
 Estimated maximum stack depth 2
 ---------------------------------------------------------------------------------
 (Depth) Function   	        Calls       Base Space   Used Autos Params    Refs
 ---------------------------------------------------------------------------------
 (3) _timer0_isr                                          21    21      0       0
                                              0 COMRAM    21    21      0
                      _timer_process
                     i1_timer0_reset
 ---------------------------------------------------------------------------------
 (4) i1_timer0_reset                                       0     0      0       0
 ---------------------------------------------------------------------------------
 (4) _timer_process                                        0     0      0       0
                          i1_xuatled
 ---------------------------------------------------------------------------------
 (5) i1_xuatled                                            0     0      0       0
 ---------------------------------------------------------------------------------
 Estimated maximum stack depth 5
 ---------------------------------------------------------------------------------

 Call Graph Graphs:

 _main (ROOT)
   _init
   _timer0_init
     _timer0_reset
   _tre1s
   _xuatled

 _timer0_isr (ROOT)
   _timer_process
     i1_xuatled
   i1_timer0_reset

 Address spaces:
Name               Size   Autos  Total    Cost      Usage
BIGRAM             F5F      0       0      37        0.0%
EEDATA             400      0       0       0        0.0%
BITBANK14          100      0       0      33        0.0%
BANK14             100      0       0      34        0.0%
BITBANK13          100      0       0      30        0.0%
BANK13             100      0       0      31        0.0%
BITBANK12          100      0       0      28        0.0%
BANK12             100      0       0      29        0.0%
BITBANK11          100      0       0      26        0.0%
BANK11             100      0       0      27        0.0%
BITBANK10          100      0       0      24        0.0%
BANK10             100      0       0      25        0.0%
BITBANK9           100      0       0      22        0.0%
BANK9              100      0       0      23        0.0%
BITBANK8           100      0       0      20        0.0%
BANK8              100      0       0      21        0.0%
BITBANK7           100      0       0      18        0.0%
BANK7              100      0       0      19        0.0%
BITBANK6           100      0       0      16        0.0%
BANK6              100      0       0      17        0.0%
BITBANK5           100      0       0      14        0.0%
BANK5              100      0       0      15        0.0%
BITBANK4           100      0       0      12        0.0%
BANK4              100      0       0      13        0.0%
BITBANK3           100      0       0      10        0.0%
BANK3              100      0       0      11        0.0%
BITBANK2           100      0       0       8        0.0%
BANK2              100      0       0       9        0.0%
BITBANK1           100      0       0       6        0.0%
BANK1              100      0       0       7        0.0%
BITBANK0            A0      0       0       4        0.0%
BANK0               A0      0       0       5        0.0%
BITBANK15           60      0       0      35        0.0%
BANK15              60      0       0      36        0.0%
BITCOMRAM           5E      0       0       0        0.0%
COMRAM              5E     15      21       1       35.1%
BITSFR               0      0       0     200        0.0%
SFR                  0      0       0     200        0.0%
STACK                0      0       0       2        0.0%
NULL                 0      0       0       0        0.0%
ABS                  0      0      21      32        0.0%
DATA                 0      0      21       3        0.0%
CODE                 0      0       0       0        0.0%


Microchip Technology PIC18 Macro Assembler V1.45 build -152302408 
Symbol Table                                                                                   Tue Oct 08 13:45:55 2019

                     l46 1094                       l39 10E2                       bsr 000FE0  
            __CFG_OSC$HS 000000   __end_ofi1_timer0_reset 10D0                      _led 000F8C  
                    prod 000FF3                      wreg 000FE8             __CFG_LVP$OFF 000000  
           __CFG_WDT$OFF 000000                     i1l78 0084                     _TMR0 000FD6  
                   _main 108C                     _init 109E                     fsr0h 000FEA  
                   fsr1h 000FE2                     fsr2h 000FDA                     fsr0l 000FE9  
                   indf2 000FDF                     fsr1l 000FE1                     fsr2l 000FD9  
                   btemp 0022                     prodh 000FF4                     prodl 000FF3  
                   start 00DC             ___param_bank 000000          ??_timer_process 0001  
                  ?_main 0001                    ?_init 0001          ?i1_timer0_reset 0001  
                  _T0CON 000FD5                    _dem1s 0020                    _tre1s 10DE  
                  pclath 000FFA                    tablat 000FF5                    status 000FD8  
                  wtemp6 0023          __end_of_xuatled 105C          __initialization 1022  
           __end_of_main 109E             __end_of_init 10B0                   ??_main 0016  
                 ??_init 0016            __activetblptr 000001       __size_ofi1_xuatled 001C  
                 _ADCON1 000FC1                   ?_tre1s 0001                   _TMR0IE 007F95  
                 _TMR0IF 007F92                   _TMR0ON 007EAF             ?_timer0_init 0001  
                 _dl_ram 0016                   _dl_rom 1001                   _led_io 000F95  
                 clear_0 1028                   _ramidx 001F                   _romidx 001E  
           __mediumconst 0000                   tblptrh 000FF7                   tblptrl 000FF6  
                 tblptru 000FF8                ??_xuatled 0016               __accesstop 0060  
__end_of__initialization 102E            ___rparam_used 000001        __end_ofi1_xuatled 1078  
         __pcstackCOMRAM 0001            __end_of_tre1s 10EA                  ??_tre1s 0016  
             __pnvCOMRAM 0020         ??i1_timer0_reset 0001                  __Hparam 0000  
                __Lparam 0000             __psmallconst 1000                  __pcinit 1022  
                __ramtop 1000     __size_of_timer0_init 0014            ?_timer0_reset 0001  
                __ptext0 108C                  __ptext1 1040                  __ptext2 10DE  
                __ptext3 1078                  __ptext4 10B0                  __ptext5 109E  
                __ptext7 10C0                  __ptext8 10D0                  __ptext9 105C  
  __end_of_timer_process 10DE     end_of_initialization 102E                  _xuatled 1040  
             _timer0_isr 0018                  postinc0 000FEE           ??_timer0_reset 0016  
              i1_xuatled 105C           __end_of_dl_rom 1021      start_initialization 1022  
            ?_timer0_isr 0001               ?i1_xuatled 0001              __pbssCOMRAM 0016  
   __end_of_timer0_reset 10C0              __pintcodelo 0018              __smallconst 1000  
         __size_of_tre1s 000C      __size_of_timer0_isr 00C4                 ?_xuatled 0001  
               _RCONbits 000FD0              ??i1_xuatled 0001            ??_timer0_init 0016  
__size_ofi1_timer0_reset 0010              _INTCON2bits 000FF1   __size_of_timer_process 000E  
               __Hrparam 0000                 __Lrparam 0000             __Lsmallconst 1000  
               _dem500ms 0021      __end_of_timer0_init 108C    __size_of_timer0_reset 0010  
       __size_of_xuatled 001C            __size_of_main 0012            __size_of_init 0012  
           ??_timer0_isr 0001                 int$flags 0022             _timer0_reset 10B0  
          _timer_process 10D0               _INTCONbits 000FF2                 intlevel1 0000  
     __end_of_timer0_isr 00DC              _timer0_init 1078           ?_timer_process 0001  
         i1_timer0_reset 10C0  
