:040000006EEF00F0AF
:100018002280D8CF01F0E8CF02F0E0CF03F0FACF8A
:1000280004F0FBCF05F0E9CF06F0EACF07F0E1CF07
:1000380008F0E2CF09F0D9CF0AF0DACF0BF0F3CF0E
:100048000CF0F4CF0DF0F6CF0EF0F7CF0FF0F8CF9D
:1000580010F0F5CF11F022C012F023C013F024C025
:1000680014F025C015F0010EF2AA000EF2A4000E3D
:10007800E8A004D060EC08F068EC08F015C025F0A2
:1000880014C024F013C023F012C022F011C0F5FFF1
:1000980010C0F8FF0FC0F7FF0EC0F6FF0DC0F4FF49
:1000A8000CC0F3FF0BC0DAFF0AC0D9FF09C0E2FF9A
:1000B80008C0E1FF07C0EAFF06C0E9FF05C0FBFF73
:1000C80004C0FAFF03C0E0FF02C0E8FF01C0D8FF88
:0800D8002290100011EF08F066
:1010000000FF7E3C1800183C7E0103070F1F3F7F46
:10101000FF01020408102040800081C3E7FFE7C3FE
:10102000810000EE16F00A0EEE6AE806FDE122905D
:101030002292000EF86E100EF76E000146EF08F0D7
:101040001F50010D160EF324D96E000EF420DA6E37
:10105000DF508C6E1F2A070E1F1612001F50010D45
:10106000160EF324D96E000EF420DA6EDF508C6E6B
:101070001F2A070E1F161200D08EF194F28AF28EEC
:10108000F28C000ED56E58EC08F012004FEC08F010
:101090003CEC08F06FEC08F020EC08F0FBD70F0EEA
:1010A000C16E000E956E000E8C6E0A0E216E12003F
:1010B000F294D59EF30ED76ECB0ED66ED58E12005F
:1010C000F294D59EF30ED76ECB0ED66ED58E12004F
:1010D000212E12002EEC08F00A0E216E1200140EC2
:0A10E000206E2050D8B41200FCD797
:020000040020DA
:08000000FFFFFFFFFFFFFFFF00
:020000040030CA
:0E000000FF021F1EF38381FFFFC0FFE0FF40E1
:00000001FF
