

Microchip Technology PIC18 LITE Macro Assembler V1.45 build -152302408 
                                                                                               Mon Oct 21 15:32:37 2019

Microchip Technology Omniscient Code Generator v1.45 (Free mode) build 201711160504
     1                           	processor	18F8722
     2                           	fnconf	rparam,??,?,0
     3                           	opt	pw 120
     4                           	opt	lm
     5                           	psect	smallconst,global,reloc=2,class=SMALLCONST,delta=1,noexec
     6                           	psect	cinit,global,reloc=2,class=CODE,delta=1
     7                           	psect	cstackBANK0,global,class=BANK0,space=1,delta=1,noexec
     8                           	psect	cstackCOMRAM,global,class=COMRAM,space=1,delta=1,noexec
     9                           	psect	text0,global,reloc=2,class=CODE,delta=1
    10                           	psect	text1,global,reloc=2,class=CODE,delta=1
    11                           	psect	text2,global,reloc=2,class=CODE,delta=1
    12                           	psect	text3,global,reloc=2,class=CODE,delta=1
    13                           	psect	text4,global,reloc=2,class=CODE,delta=1,group=1
    14                           	psect	text5,global,reloc=2,class=CODE,delta=1,group=1
    15                           	psect	text6,global,reloc=2,class=CODE,delta=1,group=1
    16                           	psect	text7,global,reloc=2,class=CODE,delta=1,group=1
    17                           	psect	text8,global,reloc=2,class=CODE,delta=1,group=1
    18                           	psect	text9,global,reloc=2,class=CODE,delta=1,group=1
    19                           	psect	text10,global,reloc=2,class=CODE,delta=1,group=1
    20                           	psect	text11,global,reloc=2,class=CODE,delta=1,group=1
    21                           	psect	text12,global,reloc=2,class=CODE,delta=1,group=1
    22                           	psect	text13,global,reloc=2,class=CODE,delta=1,group=1
    23                           	psect	text14,global,reloc=2,class=CODE,delta=1,group=1
    24                           	psect	text15,global,reloc=2,class=CODE,delta=1,group=1
    25                           	psect	text16,global,reloc=2,class=CODE,delta=1,group=1
    26                           	psect	text17,global,reloc=2,class=CODE,delta=1,group=1
    27                           	psect	text18,global,reloc=2,class=CODE,delta=1,group=1
    28                           	psect	text19,global,reloc=2,class=CODE,delta=1
    29                           	psect	text20,global,reloc=2,class=CODE,delta=1
    30                           	psect	text21,global,reloc=2,class=CODE,delta=1
    31                           	psect	text22,global,reloc=2,class=CODE,delta=1
    32                           	psect	text23,global,reloc=2,class=CODE,delta=1
    33                           	psect	text24,global,reloc=2,class=CODE,delta=1
    34                           	psect	text25,global,reloc=2,class=CODE,delta=1
    35                           	psect	text26,global,reloc=2,class=CODE,delta=1
    36                           	psect	text27,global,reloc=2,class=CODE,delta=1
    37                           	psect	text28,global,reloc=2,class=CODE,delta=1
    38                           	psect	text29,global,reloc=2,class=CODE,delta=1
    39                           	psect	text30,global,reloc=2,class=CODE,delta=1
    40                           	psect	text31,global,reloc=2,class=CODE,delta=1
    41                           	psect	text32,global,reloc=2,class=CODE,delta=1
    42                           	psect	text33,global,reloc=2,class=CODE,delta=1
    43                           	psect	text34,global,reloc=2,class=CODE,delta=1
    44                           	psect	text35,global,reloc=2,class=CODE,delta=1
    45                           	psect	text36,global,reloc=2,class=CODE,delta=1,group=1
    46                           	psect	text37,global,reloc=2,class=CODE,delta=1,group=1
    47                           	psect	intsave_regs,global,class=BIGRAM,space=1,delta=1,noexec
    48                           	psect	rparam,global,class=COMRAM,space=1,delta=1,noexec
    49  0000                     
    50                           ; Version 1.45
    51                           ; Generated 16/11/2017 GMT
    52                           ; 
    53                           ; Copyright © 2017, Microchip Technology Inc. and its subsidiaries ("Microchip")
    54                           ; All rights reserved.
    55                           ; 
    56                           ; This software is developed by Microchip Technology Inc. and its subsidiaries ("Microch
      +                          ip").
    57                           ; 
    58                           ; Redistribution and use in source and binary forms, with or without modification, are
    59                           ; permitted provided that the following conditions are met:
    60                           ; 
    61                           ;     1. Redistributions of source code must retain the above copyright notice, this lis
      +                          t of
    62                           ;        conditions and the following disclaimer.
    63                           ; 
    64                           ;     2. Redistributions in binary form must reproduce the above copyright notice, this 
      +                          list
    65                           ;        of conditions and the following disclaimer in the documentation and/or other
    66                           ;        materials provided with the distribution.
    67                           ; 
    68                           ;     3. Microchip's name may not be used to endorse or promote products derived from th
      +                          is
    69                           ;        software without specific prior written permission.
    70                           ; 
    71                           ; THIS SOFTWARE IS PROVIDED BY MICROCHIP "AS IS" AND ANY EXPRESS OR IMPLIED WARRANTIES,
    72                           ; INCLUDING, BUT NOT LIMITED TO, THE IMPLIED WARRANTIES OF MERCHANTABILITY AND FITNESS F
      +                          OR
    73                           ; PURPOSE ARE DISCLAIMED.  IN NO EVENT SHALL MICROCHIP BE LIABLE FOR ANY DIRECT, INDIREC
      +                          T,
    74                           ; INCIDENTAL, SPECIAL, EXEMPLARY, OR CONSEQUENTIAL DAMAGES (INCLUDING BUT NOT LIMITED TO
    75                           ; PROCUREMENT OF SUBSTITUTE GOODS OR SERVICES; LOSS OF USE, DATA OR PROFITS; OR BUSINESS
    76                           ; INTERRUPTION) HOWSOEVER CAUSED AND ON ANY THEORY OF LIABILITY, WHETHER IN CONTRACT, ST
      +                          RICT
    77                           ; LIABILITY, OR TORT (INCLUDING NEGLIGENCE OR OTHERWISE) ARISING IN ANY WAY OUT OF THE U
      +                          SE OF
    78                           ; THIS SOFTWARE, EVEN IF ADVISED OF THE POSSIBILITY OF SUCH DAMAGE.
    79                           ; 
    80                           ; 
    81                           ; Code-generator required, PIC18F8722 Definitions
    82                           ; 
    83                           ; SFR Addresses
    84  0000                     
    85                           	psect	smallconst
    86  001000                     __psmallconst:
    87                           	opt stack 0
    88  001000  00                 	db	0
    89  001001                     _dpowers:
    90                           	opt stack 0
    91  001001  0001               	dw	1
    92  001003  0000               	dw	0
    93  001005  000A               	dw	10
    94  001007  0000               	dw	0
    95  001009  0064               	dw	100
    96  00100B  0000               	dw	0
    97  00100D  03E8               	dw	1000
    98  00100F  0000               	dw	0
    99  001011  2710               	dw	10000
   100  001013  0000               	dw	0
   101  001015  86A0               	dw	34464
   102  001017  0001               	dw	1
   103  001019  4240               	dw	16960
   104  00101B  000F               	dw	15
   105  00101D  9680               	dw	38528
   106  00101F  0098               	dw	152
   107  001021  E100               	dw	57600
   108  001023  05F5               	dw	1525
   109  001025  CA00               	dw	51712
   110  001027  3B9A               	dw	15258
   111  001029                     __end_of_dpowers:
   112                           	opt stack 0
   113  001029                     __powers_:
   114                           	opt stack 0
   115  001029  00                 	db	0
   116  00102A  80                 	db	128
   117  00102B  3F                 	db	63
   118  00102C  00                 	db	0
   119  00102D  20                 	db	32
   120  00102E  41                 	db	65
   121  00102F  00                 	db	0
   122  001030  C8                 	db	200
   123  001031  42                 	db	66
   124  001032  00                 	db	0
   125  001033  7A                 	db	122
   126  001034  44                 	db	68
   127  001035  40                 	db	64
   128  001036  1C                 	db	28
   129  001037  46                 	db	70
   130  001038  50                 	db	80
   131  001039  C3                 	db	195
   132  00103A  47                 	db	71
   133  00103B  24                 	db	36
   134  00103C  74                 	db	116
   135  00103D  49                 	db	73
   136  00103E  97                 	db	151
   137  00103F  18                 	db	24
   138  001040  4B                 	db	75
   139  001041  BC                 	db	188
   140  001042  BE                 	db	190
   141  001043  4C                 	db	76
   142  001044  6B                 	db	107
   143  001045  6E                 	db	110
   144  001046  4E                 	db	78
   145  001047  03                 	db	3
   146  001048  15                 	db	21
   147  001049  50                 	db	80
   148  00104A  79                 	db	121
   149  00104B  AD                 	db	173
   150  00104C  60                 	db	96
   151  00104D  F3                 	db	243
   152  00104E  49                 	db	73
   153  00104F  71                 	db	113
   154  001050                     __end_of__powers_:
   155                           	opt stack 0
   156  001050                     __npowers_:
   157                           	opt stack 0
   158  001050  00                 	db	0
   159  001051  80                 	db	128
   160  001052  3F                 	db	63
   161  001053  CD                 	db	205
   162  001054  CC                 	db	204
   163  001055  3D                 	db	61
   164  001056  D7                 	db	215
   165  001057  23                 	db	35
   166  001058  3C                 	db	60
   167  001059  12                 	db	18
   168  00105A  83                 	db	131
   169  00105B  3A                 	db	58
   170  00105C  B7                 	db	183
   171  00105D  D1                 	db	209
   172  00105E  38                 	db	56
   173  00105F  C6                 	db	198
   174  001060  27                 	db	39
   175  001061  37                 	db	55
   176  001062  38                 	db	56
   177  001063  86                 	db	134
   178  001064  35                 	db	53
   179  001065  C0                 	db	192
   180  001066  D6                 	db	214
   181  001067  33                 	db	51
   182  001068  CC                 	db	204
   183  001069  2B                 	db	43
   184  00106A  32                 	db	50
   185  00106B  70                 	db	112
   186  00106C  89                 	db	137
   187  00106D  30                 	db	48
   188  00106E  E7                 	db	231
   189  00106F  DB                 	db	219
   190  001070  2E                 	db	46
   191  001071  E5                 	db	229
   192  001072  3C                 	db	60
   193  001073  1E                 	db	30
   194  001074  42                 	db	66
   195  001075  A2                 	db	162
   196  001076  0D                 	db	13
   197  001077                     __end_of__npowers_:
   198                           	opt stack 0
   199  001077                     _dhbkstr:
   200                           	opt stack 0
   201  001077  0F                 	db	15
   202  001078  0F                 	db	15
   203  001079  0E                 	db	14
   204  00107A  1F                 	db	31
   205  00107B  0E                 	db	14
   206  00107C  0F                 	db	15
   207  00107D  0F                 	db	15
   208  00107E  00                 	db	0
   209  00107F  1E                 	db	30
   210  001080  1F                 	db	31
   211  001081  07                 	db	7
   212  001082  07                 	db	7
   213  001083  07                 	db	7
   214  001084  1F                 	db	31
   215  001085  1E                 	db	30
   216  001086  00                 	db	0
   217  001087  1C                 	db	28
   218  001088  1C                 	db	28
   219  001089  1C                 	db	28
   220  00108A  1F                 	db	31
   221  00108B  1F                 	db	31
   222  00108C  1C                 	db	28
   223  00108D  1C                 	db	28
   224  00108E  00                 	db	0
   225  00108F  07                 	db	7
   226  001090  07                 	db	7
   227  001091  07                 	db	7
   228  001092  1F                 	db	31
   229  001093  1F                 	db	31
   230  001094  07                 	db	7
   231  001095  07                 	db	7
   232  001096  00                 	db	0
   233  001097  1F                 	db	31
   234  001098  1C                 	db	28
   235  001099  1C                 	db	28
   236  00109A  1F                 	db	31
   237  00109B  1C                 	db	28
   238  00109C  1F                 	db	31
   239  00109D  1F                 	db	31
   240  00109E  00                 	db	0
   241  00109F  18                 	db	24
   242  0010A0  1C                 	db	28
   243  0010A1  1C                 	db	28
   244  0010A2  1E                 	db	30
   245  0010A3  07                 	db	7
   246  0010A4  1F                 	db	31
   247  0010A5  1E                 	db	30
   248  0010A6  00                 	db	0
   249  0010A7  1C                 	db	28
   250  0010A8  1D                 	db	29
   251  0010A9  1F                 	db	31
   252  0010AA  1F                 	db	31
   253  0010AB  1E                 	db	30
   254  0010AC  1C                 	db	28
   255  0010AD  1C                 	db	28
   256  0010AE  00                 	db	0
   257  0010AF  1C                 	db	28
   258  0010B0  18                 	db	24
   259  0010B1  10                 	db	16
   260  0010B2  18                 	db	24
   261  0010B3  1C                 	db	28
   262  0010B4  0E                 	db	14
   263  0010B5  07                 	db	7
   264  0010B6  00                 	db	0
   265  0010B7                     __end_of_dhbkstr:
   266                           	opt stack 0
   267  0000                     _SSP1BUF	set	4041
   268  0000                     _SSP1CON1	set	4038
   269  0000                     _ADCON1	set	4033
   270  0000                     _LATF6	set	31862
   271  0000                     _TRISF6	set	31934
   272  0000                     _TRISA2	set	31890
   273  0000                     _LATA2	set	31818
   274  0000                     _SSP1IF	set	31987
   275  0000                     _CKE1	set	32318
   276  0000                     _TRISC3	set	31907
   277  0000                     _TRISC5	set	31909
   278  0010B7                     STR_1:
   279  0010B7  0C                 	db	12
   280  0010B8  20                 	db	32
   281  0010B9  20                 	db	32
   282  0010BA  25                 	db	37
   283  0010BB  64                 	db	100	;'d'
   284  0010BC  21                 	db	33
   285  0010BD  3D                 	db	61	;'='
   286  0010BE  0A                 	db	10
   287  0010BF  20                 	db	32
   288  0010C0  20                 	db	32
   289  0010C1  25                 	db	37
   290  0010C2  65                 	db	101	;'e'
   291  0010C3  00                 	db	0
   292                           
   293                           ; #config settings
   294  0010C4  00                 	db	0	; dummy byte at the end
   295  0000                     
   296                           	psect	cinit
   297  00307E                     __pcinit:
   298                           	opt stack 0
   299  00307E                     start_initialization:
   300                           	opt stack 0
   301  00307E                     __initialization:
   302                           	opt stack 0
   303  00307E                     end_of_initialization:
   304                           	opt stack 0
   305  00307E                     __end_of__initialization:
   306                           	opt stack 0
   307  00307E  0100               	movlb	0
   308  003080  EF05  F016         	goto	_main	;jump to C main() function
   309                           
   310                           	psect	cstackBANK0
   311  000060                     __pcstackBANK0:
   312                           	opt stack 0
   313  000060                     ?_printf:
   314                           	opt stack 0
   315  000060                     printf@f:
   316                           	opt stack 0
   317                           
   318                           ; 2 bytes @ 0x0
   319  000060                     	ds	7
   320  000067                     ??_printf:
   321                           
   322                           ; 1 bytes @ 0x7
   323  000067                     	ds	6
   324  00006D                     _printf$758:
   325                           	opt stack 0
   326                           
   327                           ; 3 bytes @ 0xD
   328  00006D                     	ds	3
   329  000070                     printf@ap:
   330                           	opt stack 0
   331                           
   332                           ; 2 bytes @ 0x10
   333  000070                     	ds	2
   334  000072                     printf@flag:
   335                           	opt stack 0
   336                           
   337                           ; 2 bytes @ 0x12
   338  000072                     	ds	2
   339  000074                     printf@tmpval:
   340                           	opt stack 0
   341                           
   342                           ; 4 bytes @ 0x14
   343  000074                     	ds	4
   344  000078                     printf@prec:
   345                           	opt stack 0
   346                           
   347                           ; 2 bytes @ 0x18
   348  000078                     	ds	2
   349  00007A                     printf@val:
   350                           	opt stack 0
   351                           
   352                           ; 4 bytes @ 0x1A
   353  00007A                     	ds	4
   354  00007E                     printf@exp:
   355                           	opt stack 0
   356                           
   357                           ; 2 bytes @ 0x1E
   358  00007E                     	ds	2
   359  000080                     printf@fval:
   360                           	opt stack 0
   361                           
   362                           ; 3 bytes @ 0x20
   363  000080                     	ds	3
   364  000083                     printf@c:
   365                           	opt stack 0
   366                           
   367                           ; 1 bytes @ 0x23
   368  000083                     	ds	1
   369                           
   370                           	psect	cstackCOMRAM
   371  000001                     __pcstackCOMRAM:
   372                           	opt stack 0
   373  000001                     ?___awmod:
   374                           	opt stack 0
   375  000001                     ?___ftpack:
   376                           	opt stack 0
   377  000001                     ?__tdiv_to_l_:
   378                           	opt stack 0
   379  000001                     ?__div_to_l_:
   380                           	opt stack 0
   381  000001                     ?___lldiv:
   382                           	opt stack 0
   383  000001                     SPI_send@c:
   384                           	opt stack 0
   385  000001                     tre_ms@ms:
   386                           	opt stack 0
   387  000001                     ___awmod@dividend:
   388                           	opt stack 0
   389  000001                     __div_to_l_@f1:
   390                           	opt stack 0
   391  000001                     ___ftpack@arg:
   392                           	opt stack 0
   393  000001                     __tdiv_to_l_@f1:
   394                           	opt stack 0
   395  000001                     ___lldiv@dividend:
   396                           	opt stack 0
   397                           
   398                           ; 4 bytes @ 0x0
   399  000001                     	ds	1
   400  000002                     Write_PortB@d:
   401                           	opt stack 0
   402  000002                     Write_PortA@mask:
   403                           	opt stack 0
   404                           
   405                           ; 1 bytes @ 0x1
   406  000002                     	ds	1
   407  000003                     ??_tre_ms:
   408  000003                     ___awmod@divisor:
   409                           	opt stack 0
   410                           
   411                           ; 2 bytes @ 0x2
   412  000003                     	ds	1
   413  000004                     i_write@d:
   414                           	opt stack 0
   415  000004                     d_write@d:
   416                           	opt stack 0
   417  000004                     ___ftpack@exp:
   418                           	opt stack 0
   419  000004                     __div_to_l_@f2:
   420                           	opt stack 0
   421  000004                     __tdiv_to_l_@f2:
   422                           	opt stack 0
   423                           
   424                           ; 3 bytes @ 0x3
   425  000004                     	ds	1
   426  000005                     lcd_gotoxy@col:
   427                           	opt stack 0
   428  000005                     ___awmod@counter:
   429                           	opt stack 0
   430  000005                     ___ftpack@sign:
   431                           	opt stack 0
   432  000005                     lcd_download@data:
   433                           	opt stack 0
   434  000005                     ___lldiv@divisor:
   435                           	opt stack 0
   436                           
   437                           ; 4 bytes @ 0x4
   438  000005                     	ds	1
   439  000006                     ??___ftpack:
   440  000006                     lcd_gotoxy@row:
   441                           	opt stack 0
   442  000006                     ___awmod@sign:
   443                           	opt stack 0
   444                           
   445                           ; 1 bytes @ 0x5
   446  000006                     	ds	1
   447  000007                     ??__tdiv_to_l_:
   448  000007                     ??_lcd_download:
   449  000007                     ?___awdiv:
   450                           	opt stack 0
   451  000007                     lcd_putc@c:
   452                           	opt stack 0
   453  000007                     ___awdiv@dividend:
   454                           	opt stack 0
   455  000007                     __div_to_l_@quot:
   456                           	opt stack 0
   457                           
   458                           ; 4 bytes @ 0x6
   459  000007                     	ds	1
   460  000008                     putch@c:
   461                           	opt stack 0
   462                           
   463                           ; 1 bytes @ 0x7
   464  000008                     	ds	1
   465  000009                     ?___lbtoft:
   466                           	opt stack 0
   467  000009                     lcd_download@addr:
   468                           	opt stack 0
   469  000009                     ___awdiv@divisor:
   470                           	opt stack 0
   471  000009                     ___lldiv@quotient:
   472                           	opt stack 0
   473                           
   474                           ; 4 bytes @ 0x8
   475  000009                     	ds	1
   476  00000A                     lcd_download@j:
   477                           	opt stack 0
   478  00000A                     __tdiv_to_l_@quot:
   479                           	opt stack 0
   480                           
   481                           ; 4 bytes @ 0x9
   482  00000A                     	ds	1
   483  00000B                     lcd_DHBK@i:
   484                           	opt stack 0
   485  00000B                     ___awdiv@counter:
   486                           	opt stack 0
   487  00000B                     __div_to_l_@cntr:
   488                           	opt stack 0
   489                           
   490                           ; 1 bytes @ 0xA
   491  00000B                     	ds	1
   492  00000C                     ___awdiv@sign:
   493                           	opt stack 0
   494  00000C                     __div_to_l_@exp1:
   495                           	opt stack 0
   496  00000C                     ___lbtoft@c:
   497                           	opt stack 0
   498                           
   499                           ; 1 bytes @ 0xB
   500  00000C                     	ds	1
   501  00000D                     ___lldiv@counter:
   502                           	opt stack 0
   503  00000D                     ___awdiv@quotient:
   504                           	opt stack 0
   505                           
   506                           ; 2 bytes @ 0xC
   507  00000D                     	ds	1
   508  00000E                     ?___llmod:
   509                           	opt stack 0
   510  00000E                     __tdiv_to_l_@cntr:
   511                           	opt stack 0
   512  00000E                     ___llmod@dividend:
   513                           	opt stack 0
   514                           
   515                           ; 4 bytes @ 0xD
   516  00000E                     	ds	1
   517  00000F                     ?___wmul:
   518                           	opt stack 0
   519  00000F                     __tdiv_to_l_@exp1:
   520                           	opt stack 0
   521  00000F                     ___wmul@multiplier:
   522                           	opt stack 0
   523                           
   524                           ; 2 bytes @ 0xE
   525  00000F                     	ds	2
   526  000011                     ___wmul@multiplicand:
   527                           	opt stack 0
   528                           
   529                           ; 2 bytes @ 0x10
   530  000011                     	ds	1
   531  000012                     ___llmod@divisor:
   532                           	opt stack 0
   533                           
   534                           ; 4 bytes @ 0x11
   535  000012                     	ds	1
   536  000013                     ___wmul@product:
   537                           	opt stack 0
   538                           
   539                           ; 2 bytes @ 0x12
   540  000013                     	ds	2
   541  000015                     ?___ftmul:
   542                           	opt stack 0
   543  000015                     ___ftmul@f1:
   544                           	opt stack 0
   545                           
   546                           ; 3 bytes @ 0x14
   547  000015                     	ds	1
   548  000016                     ___llmod@counter:
   549                           	opt stack 0
   550                           
   551                           ; 1 bytes @ 0x15
   552  000016                     	ds	2
   553  000018                     ___ftmul@f2:
   554                           	opt stack 0
   555                           
   556                           ; 3 bytes @ 0x17
   557  000018                     	ds	3
   558  00001B                     ??___ftmul:
   559                           
   560                           ; 1 bytes @ 0x1A
   561  00001B                     	ds	3
   562  00001E                     ___ftmul@exp:
   563                           	opt stack 0
   564                           
   565                           ; 1 bytes @ 0x1D
   566  00001E                     	ds	1
   567  00001F                     ___ftmul@f3_as_product:
   568                           	opt stack 0
   569                           
   570                           ; 3 bytes @ 0x1E
   571  00001F                     	ds	3
   572  000022                     ___ftmul@cntr:
   573                           	opt stack 0
   574                           
   575                           ; 1 bytes @ 0x21
   576  000022                     	ds	1
   577  000023                     ___ftmul@sign:
   578                           	opt stack 0
   579                           
   580                           ; 1 bytes @ 0x22
   581  000023                     	ds	1
   582  000024                     ?_fround:
   583                           	opt stack 0
   584  000024                     ?_scale:
   585                           	opt stack 0
   586                           
   587                           ; 3 bytes @ 0x23
   588  000024                     	ds	3
   589  000027                     _fround$756:
   590                           	opt stack 0
   591  000027                     _scale$757:
   592                           	opt stack 0
   593                           
   594                           ; 3 bytes @ 0x26
   595  000027                     	ds	3
   596  00002A                     scale@scl:
   597                           	opt stack 0
   598  00002A                     _fround$755:
   599                           	opt stack 0
   600                           
   601                           ; 3 bytes @ 0x29
   602  00002A                     	ds	1
   603  00002B                     ?___ftdiv:
   604                           	opt stack 0
   605  00002B                     ?___fttol:
   606                           	opt stack 0
   607  00002B                     ___ftdiv@f1:
   608                           	opt stack 0
   609  00002B                     ___fttol@f1:
   610                           	opt stack 0
   611                           
   612                           ; 3 bytes @ 0x2A
   613  00002B                     	ds	2
   614  00002D                     fround@prec:
   615                           	opt stack 0
   616                           
   617                           ; 1 bytes @ 0x2C
   618  00002D                     	ds	1
   619  00002E                     ___ftdiv@f2:
   620                           	opt stack 0
   621                           
   622                           ; 3 bytes @ 0x2D
   623  00002E                     	ds	1
   624  00002F                     ??___fttol:
   625                           
   626                           ; 1 bytes @ 0x2E
   627  00002F                     	ds	2
   628  000031                     ??___ftdiv:
   629                           
   630                           ; 1 bytes @ 0x30
   631  000031                     	ds	3
   632  000034                     ___ftdiv@cntr:
   633                           	opt stack 0
   634  000034                     ___fttol@sign1:
   635                           	opt stack 0
   636                           
   637                           ; 1 bytes @ 0x33
   638  000034                     	ds	1
   639  000035                     ___ftdiv@f3:
   640                           	opt stack 0
   641  000035                     ___fttol@lval:
   642                           	opt stack 0
   643                           
   644                           ; 4 bytes @ 0x34
   645  000035                     	ds	3
   646  000038                     ___ftdiv@exp:
   647                           	opt stack 0
   648                           
   649                           ; 1 bytes @ 0x37
   650  000038                     	ds	1
   651  000039                     ___ftdiv@sign:
   652                           	opt stack 0
   653  000039                     ___fttol@exp1:
   654                           	opt stack 0
   655                           
   656                           ; 1 bytes @ 0x38
   657  000039                     	ds	1
   658  00003A                     ?___lltoft:
   659                           	opt stack 0
   660  00003A                     ___lltoft@c:
   661                           	opt stack 0
   662                           
   663                           ; 4 bytes @ 0x39
   664  00003A                     	ds	4
   665  00003E                     ??___lltoft:
   666                           
   667                           ; 1 bytes @ 0x3D
   668  00003E                     	ds	4
   669  000042                     ___lltoft@exp:
   670                           	opt stack 0
   671                           
   672                           ; 1 bytes @ 0x41
   673  000042                     	ds	1
   674  000043                     ?___ftneg:
   675                           	opt stack 0
   676  000043                     ___ftneg@f1:
   677                           	opt stack 0
   678                           
   679                           ; 3 bytes @ 0x42
   680  000043                     	ds	3
   681  000046                     ?___ftadd:
   682                           	opt stack 0
   683  000046                     ___ftadd@f1:
   684                           	opt stack 0
   685                           
   686                           ; 3 bytes @ 0x45
   687  000046                     	ds	3
   688  000049                     ___ftadd@f2:
   689                           	opt stack 0
   690                           
   691                           ; 3 bytes @ 0x48
   692  000049                     	ds	3
   693  00004C                     ??___ftadd:
   694                           
   695                           ; 1 bytes @ 0x4B
   696  00004C                     	ds	3
   697  00004F                     ___ftadd@sign:
   698                           	opt stack 0
   699                           
   700                           ; 1 bytes @ 0x4E
   701  00004F                     	ds	1
   702  000050                     ___ftadd@exp2:
   703                           	opt stack 0
   704                           
   705                           ; 1 bytes @ 0x4F
   706  000050                     	ds	1
   707  000051                     ___ftadd@exp1:
   708                           	opt stack 0
   709                           
   710                           ; 1 bytes @ 0x50
   711  000051                     	ds	1
   712  000052                     ?___ftsub:
   713                           	opt stack 0
   714  000052                     ___ftge@ff1:
   715                           	opt stack 0
   716  000052                     ___ftsub@f1:
   717                           	opt stack 0
   718                           
   719                           ; 3 bytes @ 0x51
   720  000052                     	ds	3
   721  000055                     ___ftge@ff2:
   722                           	opt stack 0
   723  000055                     ___ftsub@f2:
   724                           	opt stack 0
   725                           
   726                           ; 3 bytes @ 0x54
   727  000055                     	ds	3
   728  000058                     ??___ftge:
   729                           
   730                           ; 1 bytes @ 0x57
   731  000058                     	ds	3
   732  00005B                     main@x:
   733                           	opt stack 0
   734                           
   735                           ; 3 bytes @ 0x5A
   736  00005B                     	ds	3
   737  00005E                     main@i:
   738                           	opt stack 0
   739                           
   740                           ; 1 bytes @ 0x5D
   741  00005E                     	ds	1
   742                           
   743 ;;
   744 ;;Main: autosize = 0, tempsize = 0, incstack = 0, save=0
   745 ;;
   746 ;; *************** function _main *****************
   747 ;; Defined at:
   748 ;;		line 10 in file "Tn04_Lcd.c"
   749 ;; Parameters:    Size  Location     Type
   750 ;;		None
   751 ;; Auto vars:     Size  Location     Type
   752 ;;  x               3   90[COMRAM] float 
   753 ;;  i               1   93[COMRAM] unsigned char 
   754 ;; Return value:  Size  Location     Type
   755 ;;                  1    wreg      void 
   756 ;; Registers used:
   757 ;;		wreg, fsr2l, fsr2h, status,2, status,0, tblptrl, tblptrh, tblptru, prodl, prodh, cstack
   758 ;; Tracked objects:
   759 ;;		On entry : 0/0
   760 ;;		On exit  : 0/0
   761 ;;		Unchanged: 0/0
   762 ;; Data sizes:     COMRAM   BANK0   BANK1   BANK2   BANK3   BANK4   BANK5   BANK6   BANK7   BANK8   BANK9  BANK10  BANK1
      +1  BANK12  BANK13  BANK14  BANK15
   763 ;;      Params:         0       0       0       0       0       0       0       0       0       0       0       0       
      +0       0       0       0       0
   764 ;;      Locals:         4       0       0       0       0       0       0       0       0       0       0       0       
      +0       0       0       0       0
   765 ;;      Temps:          0       0       0       0       0       0       0       0       0       0       0       0       
      +0       0       0       0       0
   766 ;;      Totals:         4       0       0       0       0       0       0       0       0       0       0       0       
      +0       0       0       0       0
   767 ;;Total ram usage:        4 bytes
   768 ;; Hardware stack levels required when called:    8
   769 ;; This function calls:
   770 ;;		___ftmul
   771 ;;		___lbtoft
   772 ;;		_init
   773 ;;		_lcd_init
   774 ;;		_printf
   775 ;; This function is called by:
   776 ;;		Startup code after reset
   777 ;; This function uses a non-reentrant model
   778 ;;
   779                           
   780                           	psect	text0
   781  002C0A                     __ptext0:
   782                           	opt stack 0
   783  002C0A                     _main:
   784                           	opt stack 23
   785                           
   786                           ;Tn04_Lcd.c: 12: float x;
   787                           ;Tn04_Lcd.c: 13: unsigned char i;
   788                           ;Tn04_Lcd.c: 14: init();
   789                           
   790                           ;incstack = 0
   791  002C0A  EC42  F018         	call	_init	;wreg free
   792                           
   793                           ;Tn04_Lcd.c: 15: lcd_init();
   794  002C0E  ECD9  F016         	call	_lcd_init	;wreg free
   795                           
   796                           ;Tn04_Lcd.c: 16: for(i=1,x=1;i<=20;i++) x*=i;
   797  002C12  0E01               	movlw	1
   798  002C14  6E5E               	movwf	main@i,c
   799  002C16  0E00               	movlw	0
   800  002C18  6E5B               	movwf	main@x,c
   801  002C1A  0E80               	movlw	128
   802  002C1C  6E5C               	movwf	main@x+1,c
   803  002C1E  0E3F               	movlw	63
   804  002C20  6E5D               	movwf	main@x+2,c
   805  002C22                     l2899:
   806  002C22  0E14               	movlw	20
   807  002C24  645E               	cpfsgt	main@i,c
   808  002C26  D001               	goto	l14
   809  002C28  D019               	goto	u3020
   810  002C2A                     l14:
   811  002C2A  C05B  F015         	movff	main@x,___ftmul@f1
   812  002C2E  C05C  F016         	movff	main@x+1,___ftmul@f1+1
   813  002C32  C05D  F017         	movff	main@x+2,___ftmul@f1+2
   814  002C36  505E               	movf	main@i,w,c
   815  002C38  ECA5  F017         	call	___lbtoft
   816  002C3C  C009  F018         	movff	?___lbtoft,___ftmul@f2
   817  002C40  C00A  F019         	movff	?___lbtoft+1,___ftmul@f2+1
   818  002C44  C00B  F01A         	movff	?___lbtoft+2,___ftmul@f2+2
   819  002C48  EC7C  F013         	call	___ftmul	;wreg free
   820  002C4C  C015  F05B         	movff	?___ftmul,main@x
   821  002C50  C016  F05C         	movff	?___ftmul+1,main@x+1
   822  002C54  C017  F05D         	movff	?___ftmul+2,main@x+2
   823  002C58  2A5E               	incf	main@i,f,c
   824  002C5A  D7E3               	goto	l2899
   825  002C5C                     u3020:
   826                           
   827                           ;Tn04_Lcd.c: 17: printf("\f  %d!=\n  %e",20,x);
   828  002C5C  0EB7               	movlw	low STR_1
   829  002C5E  0100               	movlb	0	; () banked
   830  002C60  6F60               	movwf	printf@f& (0+255),b
   831  002C62  0E10               	movlw	high STR_1
   832  002C64  6F61               	movwf	(printf@f+1)& (0+255),b
   833  002C66  0E00               	movlw	0
   834  002C68  6F63               	movwf	(?_printf+3)& (0+255),b
   835  002C6A  0E14               	movlw	20
   836  002C6C  6F62               	movwf	(?_printf+2)& (0+255),b
   837  002C6E  C05B  F064         	movff	main@x,?_printf+4
   838  002C72  C05C  F065         	movff	main@x+1,?_printf+5
   839  002C76  C05D  F066         	movff	main@x+2,?_printf+6
   840  002C7A  EC63  F008         	call	_printf	;wreg free
   841  002C7E                     l16:
   842  002C7E  D7FF               	goto	l16
   843  002C80                     __end_of_main:
   844                           	opt stack 0
   845                           
   846 ;; *************** function _printf *****************
   847 ;; Defined at:
   848 ;;		line 464 in file "D:\Apps\MPLab\New folder (2)\sources\common\doprnt.c"
   849 ;; Parameters:    Size  Location     Type
   850 ;;  f               2    0[BANK0 ] PTR const unsigned char 
   851 ;;		 -> STR_1(13), 
   852 ;; Auto vars:     Size  Location     Type
   853 ;;  val             4   26[BANK0 ] unsigned long 
   854 ;;  tmpval          4   20[BANK0 ] struct .
   855 ;;  fval            3   32[BANK0 ] struct .
   856 ;;  cp              3    0        PTR const unsigned char 
   857 ;;  exp             2   30[BANK0 ] int 
   858 ;;  prec            2   24[BANK0 ] int 
   859 ;;  flag            2   18[BANK0 ] unsigned short 
   860 ;;  ap              2   16[BANK0 ] PTR void [1]
   861 ;;		 -> ?_printf(2), 
   862 ;;  len             2    0        unsigned int 
   863 ;;  width           2    0        int 
   864 ;;  c               1   35[BANK0 ] char 
   865 ;;  d               1    0        unsigned char 
   866 ;; Return value:  Size  Location     Type
   867 ;;                  2    0[BANK0 ] int 
   868 ;; Registers used:
   869 ;;		wreg, fsr2l, fsr2h, status,2, status,0, tblptrl, tblptrh, tblptru, prodl, prodh, cstack
   870 ;; Tracked objects:
   871 ;;		On entry : 0/0
   872 ;;		On exit  : 0/0
   873 ;;		Unchanged: 0/0
   874 ;; Data sizes:     COMRAM   BANK0   BANK1   BANK2   BANK3   BANK4   BANK5   BANK6   BANK7   BANK8   BANK9  BANK10  BANK1
      +1  BANK12  BANK13  BANK14  BANK15
   875 ;;      Params:         0       7       0       0       0       0       0       0       0       0       0       0       
      +0       0       0       0       0
   876 ;;      Locals:         0      23       0       0       0       0       0       0       0       0       0       0       
      +0       0       0       0       0
   877 ;;      Temps:          0       6       0       0       0       0       0       0       0       0       0       0       
      +0       0       0       0       0
   878 ;;      Totals:         0      36       0       0       0       0       0       0       0       0       0       0       
      +0       0       0       0       0
   879 ;;Total ram usage:       36 bytes
   880 ;; Hardware stack levels used:    1
   881 ;; Hardware stack levels required when called:    6
   882 ;; This function calls:
   883 ;;		___awdiv
   884 ;;		___awmod
   885 ;;		___ftadd
   886 ;;		___ftdiv
   887 ;;		___ftge
   888 ;;		___ftmul
   889 ;;		___ftneg
   890 ;;		___ftsub
   891 ;;		___fttol
   892 ;;		___lldiv
   893 ;;		___llmod
   894 ;;		___lltoft
   895 ;;		___wmul
   896 ;;		__div_to_l_
   897 ;;		__tdiv_to_l_
   898 ;;		_fround
   899 ;;		_putch
   900 ;;		_scale
   901 ;; This function is called by:
   902 ;;		_main
   903 ;; This function uses a non-reentrant model
   904 ;;
   905                           
   906                           	psect	text1
   907  0010C6                     __ptext1:
   908                           	opt stack 0
   909  0010C6                     _printf:
   910                           	opt stack 24
   911                           
   912                           ;doprnt.c: 466: va_list ap;
   913                           ;doprnt.c: 499: signed char c;
   914                           ;doprnt.c: 501: int width;
   915                           ;doprnt.c: 504: int prec;
   916                           ;doprnt.c: 508: unsigned short flag;
   917                           ;doprnt.c: 515: char d;
   918                           ;doprnt.c: 516: double fval;
   919                           ;doprnt.c: 517: int exp;
   920                           ;doprnt.c: 523: union {
   921                           ;doprnt.c: 524: unsigned long vd;
   922                           ;doprnt.c: 525: double integ;
   923                           ;doprnt.c: 526: } tmpval;
   924                           ;doprnt.c: 528: unsigned long val;
   925                           ;doprnt.c: 529: unsigned len;
   926                           ;doprnt.c: 530: const char * cp;
   927                           ;doprnt.c: 533: *ap = __va_start();
   928                           
   929                           ;incstack = 0
   930  0010C6  0E62               	movlw	low (?_printf+2)
   931  0010C8  0100               	movlb	0	; () banked
   932  0010CA  6F70               	movwf	printf@ap& (0+255),b
   933  0010CC  0E00               	movlw	high (?_printf+2)
   934  0010CE  6F71               	movwf	(printf@ap+1)& (0+255),b
   935                           
   936                           ;doprnt.c: 536: while(c = *f++) {
   937  0010D0  EF05  F00E         	goto	u2990
   938  0010D4                     
   939                           ; BSR set to: 0
   940                           ;doprnt.c: 538: if(c != '%')
   941                           
   942                           ; BSR set to: 0
   943  0010D4  0E25               	movlw	37
   944  0010D6  1983               	xorwf	printf@c& (0+255),w,b
   945  0010D8  B4D8               	btfsc	status,2,c
   946  0010DA  D005               	goto	l164
   947                           
   948                           ; BSR set to: 0
   949                           ;doprnt.c: 540: {
   950                           ;doprnt.c: 541: (putch(c) );
   951  0010DC  5183               	movf	printf@c& (0+255),w,b
   952  0010DE  EC3A  F018         	call	_putch
   953                           
   954                           ;doprnt.c: 542: continue;
   955  0010E2  EF05  F00E         	goto	u2990
   956  0010E6                     l164:
   957                           
   958                           ;doprnt.c: 543: }
   959                           ;doprnt.c: 548: flag = 0;
   960  0010E6  0E00               	movlw	0
   961  0010E8  0100               	movlb	0	; () banked
   962  0010EA  6F73               	movwf	(printf@flag+1)& (0+255),b
   963  0010EC  0E00               	movlw	0
   964  0010EE  6F72               	movwf	printf@flag& (0+255),b
   965                           
   966                           ;doprnt.c: 635: switch(c = *f++) {
   967  0010F0  D002               	goto	l165
   968  0010F2                     
   969                           ; BSR set to: 0
   970                           ;doprnt.c: 673: flag |= 0x100;
   971                           
   972                           ; BSR set to: 0
   973  0010F2  8173               	bsf	(printf@flag+1)& (0+255),0,b
   974                           
   975                           ; BSR set to: 0
   976                           ;doprnt.c: 698: case 'i':
   977                           ;doprnt.c: 699: break;
   978                           
   979                           ; BSR set to: 0
   980                           
   981                           ;doprnt.c: 697: case 'd':
   982                           
   983                           ;doprnt.c: 674: break;
   984  0010F4  D019               	goto	l169
   985  0010F6                     l165:
   986                           
   987                           ; BSR set to: 0
   988                           
   989                           ; BSR set to: 0
   990  0010F6  C060  FFF6         	movff	printf@f,tblptrl
   991  0010FA  C061  FFF7         	movff	printf@f+1,tblptrh
   992  0010FE  4B60               	infsnz	printf@f& (0+255),f,b
   993  001100  2B61               	incf	(printf@f+1)& (0+255),f,b
   994  001102                     	if	0	;tblptru may be non-zero
   995  001102                     	endif
   996  001102                     	if	1	;Program memory is > 0xFFFF, there are 3 active tblptr bytes
   997  001102  0E00               	movlw	low (__mediumconst shr (0+16))
   998  001104  6EF8               	movwf	tblptru,c
   999  001106                     	endif
  1000  001106  0008               	tblrd		*
  1001  001108  CFF5 F083          	movff	tablat,printf@c
  1002  00110C  5183               	movf	printf@c& (0+255),w,b
  1003                           
  1004                           ; Switch size 1, requested type "space"
  1005                           ; Number of cases is 4, Range of values is 0 to 105
  1006                           ; switch strategies available:
  1007                           ; Name         Instructions Cycles
  1008                           ; simple_byte           13     7 (average)
  1009                           ;	Chosen strategy is simple_byte
  1010  00110E  0A00               	xorlw	0	; case 0
  1011  001110  B4D8               	btfsc	status,2,c
  1012  001112  0012               	return	
  1013  001114  0A64               	xorlw	100	; case 100
  1014  001116  B4D8               	btfsc	status,2,c
  1015  001118  D007               	goto	l169
  1016  00111A  0A01               	xorlw	1	; case 101
  1017  00111C  B4D8               	btfsc	status,2,c
  1018  00111E  D7E9               	goto	l168
  1019  001120  0A0C               	xorlw	12	; case 105
  1020  001122  A4D8               	btfss	status,2,c
  1021  001124  EF05  F00E         	goto	u2990
  1022  001128                     l169:
  1023                           
  1024                           ; BSR set to: 0
  1025                           ;doprnt.c: 825: if(flag & (0x700)) {
  1026                           
  1027                           ; BSR set to: 0
  1028  001128  0E07               	movlw	7
  1029  00112A  1573               	andwf	(printf@flag+1)& (0+255),w,b
  1030  00112C  B4D8               	btfsc	status,2,c
  1031  00112E  EF68  F00D         	goto	l173
  1032                           
  1033                           ; BSR set to: 0
  1034                           ;doprnt.c: 829: prec = 6;
  1035  001132  0E00               	movlw	0
  1036  001134  6F79               	movwf	(printf@prec+1)& (0+255),b
  1037  001136  0E06               	movlw	6
  1038  001138  6F78               	movwf	printf@prec& (0+255),b
  1039                           
  1040                           ; BSR set to: 0
  1041                           ;doprnt.c: 830: fval = (*(double *)__va_arg((*(double **)ap), (double)0));
  1042  00113A  C070  FFD9         	movff	printf@ap,fsr2l
  1043  00113E  C071  FFDA         	movff	printf@ap+1,fsr2h
  1044  001142  CFDE F080          	movff	postinc2,printf@fval
  1045  001146  CFDE F081          	movff	postinc2,printf@fval+1
  1046  00114A  CFDD F082          	movff	postdec2,printf@fval+2
  1047                           
  1048                           ; BSR set to: 0
  1049  00114E  0E03               	movlw	3
  1050  001150  2770               	addwf	printf@ap& (0+255),f,b
  1051  001152  0E00               	movlw	0
  1052  001154  2371               	addwfc	(printf@ap+1)& (0+255),f,b
  1053                           
  1054                           ; BSR set to: 0
  1055                           ;doprnt.c: 831: if(fval < 0.0) {
  1056  001156  AF82               	btfss	(printf@fval+2)& (0+255),7,b
  1057  001158  D011               	goto	l174
  1058                           
  1059                           ; BSR set to: 0
  1060                           ;doprnt.c: 832: fval = -fval;
  1061  00115A  C080  F043         	movff	printf@fval,___ftneg@f1
  1062  00115E  C081  F044         	movff	printf@fval+1,___ftneg@f1+1
  1063  001162  C082  F045         	movff	printf@fval+2,___ftneg@f1+2
  1064  001166  EC93  F017         	call	___ftneg	;wreg free
  1065  00116A  C043  F080         	movff	?___ftneg,printf@fval
  1066  00116E  C044  F081         	movff	?___ftneg+1,printf@fval+1
  1067  001172  C045  F082         	movff	?___ftneg+2,printf@fval+2
  1068                           
  1069                           ;doprnt.c: 833: flag |= 0x03;
  1070  001176  0E03               	movlw	3
  1071  001178  0100               	movlb	0	; () banked
  1072  00117A  1372               	iorwf	printf@flag& (0+255),f,b
  1073  00117C                     l174:
  1074                           
  1075                           ; BSR set to: 0
  1076                           ;doprnt.c: 834: }
  1077                           ;doprnt.c: 835: exp = 0;
  1078                           
  1079                           ; BSR set to: 0
  1080  00117C  0E00               	movlw	0
  1081  00117E  6F7F               	movwf	(printf@exp+1)& (0+255),b
  1082  001180  0E00               	movlw	0
  1083  001182  6F7E               	movwf	printf@exp& (0+255),b
  1084                           
  1085                           ; BSR set to: 0
  1086                           ;doprnt.c: 836: if( fval!=0) {
  1087  001184  5180               	movf	printf@fval& (0+255),w,b
  1088  001186  1181               	iorwf	(printf@fval+1)& (0+255),w,b
  1089  001188  1182               	iorwf	(printf@fval+2)& (0+255),w,b
  1090  00118A  B4D8               	btfsc	status,2,c
  1091  00118C  D086               	goto	l179
  1092                           
  1093                           ; BSR set to: 0
  1094                           ;doprnt.c: 837: (void)(*(&exp) = ((*(unsigned long *)&fval >> 15) & 255) - 126);
  1095  00118E  0E82               	movlw	130
  1096  001190  6F67               	movwf	??_printf& (0+255),b
  1097  001192  0EFF               	movlw	255
  1098  001194  6F68               	movwf	(??_printf+1)& (0+255),b
  1099  001196  C080  F069         	movff	printf@fval,??_printf+2
  1100  00119A  C081  F06A         	movff	printf@fval+1,??_printf+3
  1101  00119E  C082  F06B         	movff	printf@fval+2,??_printf+4
  1102  0011A2  C083  F06C         	movff	printf@fval+3,??_printf+5
  1103  0011A6  0E10               	movlw	16
  1104  0011A8  D005               	goto	u2620
  1105  0011AA                     u2625:
  1106  0011AA  90D8               	bcf	status,0,c
  1107  0011AC  336C               	rrcf	(??_printf+5)& (0+255),f,b
  1108  0011AE  336B               	rrcf	(??_printf+4)& (0+255),f,b
  1109  0011B0  336A               	rrcf	(??_printf+3)& (0+255),f,b
  1110  0011B2  3369               	rrcf	(??_printf+2)& (0+255),f,b
  1111  0011B4                     u2620:
  1112  0011B4  2EE8               	decfsz	wreg,f,c
  1113  0011B6  D7F9               	goto	u2625
  1114  0011B8  5169               	movf	(??_printf+2)& (0+255),w,b
  1115  0011BA  2567               	addwf	??_printf& (0+255),w,b
  1116  0011BC  6F7E               	movwf	printf@exp& (0+255),b
  1117  0011BE  0E00               	movlw	0
  1118  0011C0  2168               	addwfc	(??_printf+1)& (0+255),w,b
  1119  0011C2  6F7F               	movwf	(printf@exp+1)& (0+255),b
  1120                           
  1121                           ; BSR set to: 0
  1122                           ;doprnt.c: 838: exp--;
  1123  0011C4  077E               	decf	printf@exp& (0+255),f,b
  1124  0011C6  A0D8               	btfss	status,0,c
  1125  0011C8  077F               	decf	(printf@exp+1)& (0+255),f,b
  1126                           
  1127                           ; BSR set to: 0
  1128                           ;doprnt.c: 839: exp *= 3;
  1129  0011CA  C07E  F00F         	movff	printf@exp,___wmul@multiplier
  1130  0011CE  C07F  F010         	movff	printf@exp+1,___wmul@multiplier+1
  1131  0011D2  0E00               	movlw	0
  1132  0011D4  6E12               	movwf	___wmul@multiplicand+1,c
  1133  0011D6  0E03               	movlw	3
  1134  0011D8  6E11               	movwf	___wmul@multiplicand,c
  1135  0011DA  EC80  F017         	call	___wmul	;wreg free
  1136  0011DE  C00F  F07E         	movff	?___wmul,printf@exp
  1137  0011E2  C010  F07F         	movff	?___wmul+1,printf@exp+1
  1138                           
  1139                           ;doprnt.c: 840: exp /= 10;
  1140  0011E6  C07E  F007         	movff	printf@exp,___awdiv@dividend
  1141  0011EA  C07F  F008         	movff	printf@exp+1,___awdiv@dividend+1
  1142  0011EE  0E00               	movlw	0
  1143  0011F0  6E0A               	movwf	___awdiv@divisor+1,c
  1144  0011F2  0E0A               	movlw	10
  1145  0011F4  6E09               	movwf	___awdiv@divisor,c
  1146  0011F6  EC82  F015         	call	___awdiv	;wreg free
  1147  0011FA  C007  F07E         	movff	?___awdiv,printf@exp
  1148  0011FE  C008  F07F         	movff	?___awdiv+1,printf@exp+1
  1149                           
  1150                           ;doprnt.c: 841: if(exp < 0)
  1151  001202  0100               	movlb	0	; () banked
  1152  001204  AF7F               	btfss	(printf@exp+1)& (0+255),7,b
  1153  001206  D003               	goto	l176
  1154                           
  1155                           ; BSR set to: 0
  1156                           ;doprnt.c: 842: exp--;
  1157  001208  077E               	decf	printf@exp& (0+255),f,b
  1158  00120A  A0D8               	btfss	status,0,c
  1159  00120C  077F               	decf	(printf@exp+1)& (0+255),f,b
  1160  00120E                     l176:
  1161                           
  1162                           ; BSR set to: 0
  1163                           ;doprnt.c: 846: tmpval.integ = scale(-exp);
  1164                           
  1165                           ; BSR set to: 0
  1166  00120E  517E               	movf	printf@exp& (0+255),w,b
  1167  001210  0800               	sublw	0
  1168  001212  EC16  F00E         	call	_scale
  1169  001216  C024  F074         	movff	?_scale,printf@tmpval
  1170  00121A  C025  F075         	movff	?_scale+1,printf@tmpval+1
  1171  00121E  C026  F076         	movff	?_scale+2,printf@tmpval+2
  1172                           
  1173                           ;doprnt.c: 847: tmpval.integ *= fval;
  1174  001222  C074  F015         	movff	printf@tmpval,___ftmul@f1
  1175  001226  C075  F016         	movff	printf@tmpval+1,___ftmul@f1+1
  1176  00122A  C076  F017         	movff	printf@tmpval+2,___ftmul@f1+2
  1177  00122E  C080  F018         	movff	printf@fval,___ftmul@f2
  1178  001232  C081  F019         	movff	printf@fval+1,___ftmul@f2+1
  1179  001236  C082  F01A         	movff	printf@fval+2,___ftmul@f2+2
  1180  00123A  EC7C  F013         	call	___ftmul	;wreg free
  1181  00123E  C015  F074         	movff	?___ftmul,printf@tmpval
  1182  001242  C016  F075         	movff	?___ftmul+1,printf@tmpval+1
  1183  001246  C017  F076         	movff	?___ftmul+2,printf@tmpval+2
  1184                           
  1185                           ;doprnt.c: 848: if(tmpval.integ < 1.0)
  1186  00124A  C074  F052         	movff	printf@tmpval,___ftge@ff1
  1187  00124E  C075  F053         	movff	printf@tmpval+1,___ftge@ff1+1
  1188  001252  C076  F054         	movff	printf@tmpval+2,___ftge@ff1+2
  1189  001256  0E00               	movlw	0
  1190  001258  6E55               	movwf	___ftge@ff2,c
  1191  00125A  0E80               	movlw	128
  1192  00125C  6E56               	movwf	___ftge@ff2+1,c
  1193  00125E  0E3F               	movlw	63
  1194  001260  6E57               	movwf	___ftge@ff2+2,c
  1195  001262  EC3A  F015         	call	___ftge	;wreg free
  1196  001266  B0D8               	btfsc	status,0,c
  1197  001268  D005               	goto	l177
  1198                           
  1199                           ;doprnt.c: 849: exp--;
  1200  00126A  0100               	movlb	0	; () banked
  1201  00126C  077E               	decf	printf@exp& (0+255),f,b
  1202  00126E  A0D8               	btfss	status,0,c
  1203  001270  077F               	decf	(printf@exp+1)& (0+255),f,b
  1204  001272  D013               	goto	l179
  1205  001274                     l177:
  1206                           
  1207                           ;doprnt.c: 850: else if(tmpval.integ >= 10.0)
  1208                           
  1209                           ; BSR set to: 0
  1210  001274  C074  F052         	movff	printf@tmpval,___ftge@ff1
  1211  001278  C075  F053         	movff	printf@tmpval+1,___ftge@ff1+1
  1212  00127C  C076  F054         	movff	printf@tmpval+2,___ftge@ff1+2
  1213  001280  0E00               	movlw	0
  1214  001282  6E55               	movwf	___ftge@ff2,c
  1215  001284  0E20               	movlw	32
  1216  001286  6E56               	movwf	___ftge@ff2+1,c
  1217  001288  0E41               	movlw	65
  1218  00128A  6E57               	movwf	___ftge@ff2+2,c
  1219  00128C  EC3A  F015         	call	___ftge	;wreg free
  1220  001290  A0D8               	btfss	status,0,c
  1221  001292  D003               	goto	l179
  1222                           
  1223                           ;doprnt.c: 851: exp++;
  1224  001294  0100               	movlb	0	; () banked
  1225  001296  4B7E               	infsnz	printf@exp& (0+255),f,b
  1226  001298  2B7F               	incf	(printf@exp+1)& (0+255),f,b
  1227  00129A                     l179:
  1228                           
  1229                           ;doprnt.c: 852: }
  1230                           ;doprnt.c: 854: if(exp <= 0)
  1231                           
  1232                           ; BSR set to: 0
  1233                           
  1234                           ; BSR set to: 0
  1235                           
  1236                           ; BSR set to: 0
  1237  00129A  0100               	movlb	0	; () banked
  1238  00129C  BF7F               	btfsc	(printf@exp+1)& (0+255),7,b
  1239  00129E  D005               	goto	u2660
  1240  0012A0  517F               	movf	(printf@exp+1)& (0+255),w,b
  1241  0012A2  E106               	bnz	l180
  1242  0012A4  057E               	decf	printf@exp& (0+255),w,b
  1243  0012A6  B0D8               	btfsc	status,0,c
  1244  0012A8  D003               	goto	l180
  1245  0012AA                     u2660:
  1246                           
  1247                           ; BSR set to: 0
  1248                           ;doprnt.c: 855: c = 1;
  1249  0012AA  0E01               	movlw	1
  1250  0012AC  6F83               	movwf	printf@c& (0+255),b
  1251  0012AE  D002               	goto	l181
  1252  0012B0                     l180:
  1253                           
  1254                           ; BSR set to: 0
  1255                           ;doprnt.c: 856: else
  1256                           ;doprnt.c: 857: c = exp;
  1257  0012B0  C07E  F083         	movff	printf@exp,printf@c
  1258  0012B4                     l181:
  1259                           
  1260                           ; BSR set to: 0
  1261                           ;doprnt.c: 858: if(
  1262                           ;doprnt.c: 860: flag & 0x100
  1263                           ;doprnt.c: 868: ) {
  1264  0012B4  A173               	btfss	(printf@flag+1)& (0+255),0,b
  1265  0012B6  D202               	goto	l182
  1266                           
  1267                           ; BSR set to: 0
  1268                           ;doprnt.c: 873: if((unsigned)prec > (sizeof dpowers/sizeof dpowers[0]) - 2)
  1269  0012B8  5179               	movf	(printf@prec+1)& (0+255),w,b
  1270  0012BA  E104               	bnz	u2680
  1271  0012BC  0E09               	movlw	9
  1272  0012BE  5D78               	subwf	printf@prec& (0+255),w,b
  1273  0012C0  A0D8               	btfss	status,0,c
  1274  0012C2  D003               	goto	l183
  1275  0012C4                     u2680:
  1276                           
  1277                           ; BSR set to: 0
  1278                           ;doprnt.c: 874: c = (sizeof dpowers/sizeof dpowers[0]) - 2;
  1279  0012C4  0E08               	movlw	8
  1280  0012C6  6F83               	movwf	printf@c& (0+255),b
  1281  0012C8  D002               	goto	l184
  1282  0012CA                     l183:
  1283                           
  1284                           ; BSR set to: 0
  1285                           ;doprnt.c: 875: else
  1286                           ;doprnt.c: 876: c = prec;
  1287  0012CA  C078  F083         	movff	printf@prec,printf@c
  1288  0012CE                     l184:
  1289                           
  1290                           ; BSR set to: 0
  1291                           ;doprnt.c: 877: if( fval!=0) {
  1292                           
  1293                           ; BSR set to: 0
  1294  0012CE  5180               	movf	printf@fval& (0+255),w,b
  1295  0012D0  1181               	iorwf	(printf@fval+1)& (0+255),w,b
  1296  0012D2  1182               	iorwf	(printf@fval+2)& (0+255),w,b
  1297  0012D4  B4D8               	btfsc	status,2,c
  1298  0012D6  D0E6               	goto	l189
  1299                           
  1300                           ; BSR set to: 0
  1301                           ;doprnt.c: 878: fval /= scale(exp-c);
  1302  0012D8  C080  F02B         	movff	printf@fval,___ftdiv@f1
  1303  0012DC  C081  F02C         	movff	printf@fval+1,___ftdiv@f1+1
  1304  0012E0  C082  F02D         	movff	printf@fval+2,___ftdiv@f1+2
  1305  0012E4  5183               	movf	printf@c& (0+255),w,b
  1306  0012E6  0800               	sublw	0
  1307  0012E8  257E               	addwf	printf@exp& (0+255),w,b
  1308  0012EA  EC16  F00E         	call	_scale
  1309  0012EE  C024  F02E         	movff	?_scale,___ftdiv@f2
  1310  0012F2  C025  F02F         	movff	?_scale+1,___ftdiv@f2+1
  1311  0012F6  C026  F030         	movff	?_scale+2,___ftdiv@f2+2
  1312  0012FA  EC70  F014         	call	___ftdiv	;wreg free
  1313  0012FE  C02B  F080         	movff	?___ftdiv,printf@fval
  1314  001302  C02C  F081         	movff	?___ftdiv+1,printf@fval+1
  1315  001306  C02D  F082         	movff	?___ftdiv+2,printf@fval+2
  1316                           
  1317                           ;doprnt.c: 893: if(fval - (double)(unsigned long)fval >= 0.5)
  1318  00130A  C080  F049         	movff	printf@fval,___ftadd@f2
  1319  00130E  C081  F04A         	movff	printf@fval+1,___ftadd@f2+1
  1320  001312  C082  F04B         	movff	printf@fval+2,___ftadd@f2+2
  1321  001316  C080  F02B         	movff	printf@fval,___fttol@f1
  1322  00131A  C081  F02C         	movff	printf@fval+1,___fttol@f1+1
  1323  00131E  C082  F02D         	movff	printf@fval+2,___fttol@f1+2
  1324  001322  ECF6  F013         	call	___fttol	;wreg free
  1325  001326  C02B  F03A         	movff	?___fttol,___lltoft@c
  1326  00132A  C02C  F03B         	movff	?___fttol+1,___lltoft@c+1
  1327  00132E  C02D  F03C         	movff	?___fttol+2,___lltoft@c+2
  1328  001332  C02E  F03D         	movff	?___fttol+3,___lltoft@c+3
  1329  001336  ECAB  F016         	call	___lltoft	;wreg free
  1330  00133A  C03A  F043         	movff	?___lltoft,___ftneg@f1
  1331  00133E  C03B  F044         	movff	?___lltoft+1,___ftneg@f1+1
  1332  001342  C03C  F045         	movff	?___lltoft+2,___ftneg@f1+2
  1333  001346  EC93  F017         	call	___ftneg	;wreg free
  1334  00134A  C043  F046         	movff	?___ftneg,___ftadd@f1
  1335  00134E  C044  F047         	movff	?___ftneg+1,___ftadd@f1+1
  1336  001352  C045  F048         	movff	?___ftneg+2,___ftadd@f1+2
  1337  001356  EC79  F011         	call	___ftadd	;wreg free
  1338  00135A  C046  F052         	movff	?___ftadd,___ftge@ff1
  1339  00135E  C047  F053         	movff	?___ftadd+1,___ftge@ff1+1
  1340  001362  C048  F054         	movff	?___ftadd+2,___ftge@ff1+2
  1341  001366  0E00               	movlw	0
  1342  001368  6E55               	movwf	___ftge@ff2,c
  1343  00136A  0E00               	movlw	0
  1344  00136C  6E56               	movwf	___ftge@ff2+1,c
  1345  00136E  0E3F               	movlw	63
  1346  001370  6E57               	movwf	___ftge@ff2+2,c
  1347  001372  EC3A  F015         	call	___ftge	;wreg free
  1348  001376  A0D8               	btfss	status,0,c
  1349  001378  D014               	goto	l186
  1350                           
  1351                           ;doprnt.c: 894: fval += 0.5;
  1352  00137A  C080  F046         	movff	printf@fval,___ftadd@f1
  1353  00137E  C081  F047         	movff	printf@fval+1,___ftadd@f1+1
  1354  001382  C082  F048         	movff	printf@fval+2,___ftadd@f1+2
  1355  001386  0E00               	movlw	0
  1356  001388  6E49               	movwf	___ftadd@f2,c
  1357  00138A  0E00               	movlw	0
  1358  00138C  6E4A               	movwf	___ftadd@f2+1,c
  1359  00138E  0E3F               	movlw	63
  1360  001390  6E4B               	movwf	___ftadd@f2+2,c
  1361  001392  EC79  F011         	call	___ftadd	;wreg free
  1362  001396  C046  F080         	movff	?___ftadd,printf@fval
  1363  00139A  C047  F081         	movff	?___ftadd+1,printf@fval+1
  1364  00139E  C048  F082         	movff	?___ftadd+2,printf@fval+2
  1365  0013A2                     l186:
  1366                           
  1367                           ;doprnt.c: 895: if((unsigned long)fval >= dpowers[c+1]) {
  1368  0013A2  C083  F067         	movff	printf@c,??_printf
  1369  0013A6  0100               	movlb	0	; () banked
  1370  0013A8  6B68               	clrf	(??_printf+1)& (0+255),b
  1371  0013AA  BF67               	btfsc	??_printf& (0+255),7,b
  1372  0013AC  0768               	decf	(??_printf+1)& (0+255),f,b
  1373  0013AE  90D8               	bcf	status,0,c
  1374  0013B0  3767               	rlcf	??_printf& (0+255),f,b
  1375  0013B2  3768               	rlcf	(??_printf+1)& (0+255),f,b
  1376  0013B4  90D8               	bcf	status,0,c
  1377  0013B6  3767               	rlcf	??_printf& (0+255),f,b
  1378  0013B8  3768               	rlcf	(??_printf+1)& (0+255),f,b
  1379  0013BA  0E04               	movlw	4
  1380  0013BC  2767               	addwf	??_printf& (0+255),f,b
  1381  0013BE  0E00               	movlw	0
  1382  0013C0  2368               	addwfc	(??_printf+1)& (0+255),f,b
  1383  0013C2  0E01               	movlw	low _dpowers
  1384  0013C4  2567               	addwf	??_printf& (0+255),w,b
  1385  0013C6  6EF6               	movwf	tblptrl,c
  1386  0013C8  0E10               	movlw	high _dpowers
  1387  0013CA  2168               	addwfc	(??_printf+1)& (0+255),w,b
  1388  0013CC  6EF7               	movwf	tblptrh,c
  1389  0013CE                     	if	1	;There are 3 active tblptr bytes
  1390  0013CE  6AF8               	clrf	tblptru,c
  1391  0013D0  0E00               	movlw	low (__mediumconst shr (0+16))
  1392  0013D2  22F8               	addwfc	tblptru,f,c
  1393  0013D4                     	endif
  1394  0013D4  C080  F02B         	movff	printf@fval,___fttol@f1
  1395  0013D8  C081  F02C         	movff	printf@fval+1,___fttol@f1+1
  1396  0013DC  C082  F02D         	movff	printf@fval+2,___fttol@f1+2
  1397  0013E0  ECF6  F013         	call	___fttol	;wreg free
  1398  0013E4  0009               	tblrd		*+
  1399  0013E6  50F5               	movf	tablat,w,c
  1400  0013E8  5C2B               	subwf	?___fttol,w,c
  1401  0013EA  0009               	tblrd		*+
  1402  0013EC  50F5               	movf	tablat,w,c
  1403  0013EE  582C               	subwfb	?___fttol+1,w,c
  1404  0013F0  0009               	tblrd		*+
  1405  0013F2  50F5               	movf	tablat,w,c
  1406  0013F4  582D               	subwfb	?___fttol+2,w,c
  1407  0013F6  0009               	tblrd		*+
  1408  0013F8  50F5               	movf	tablat,w,c
  1409  0013FA  582E               	subwfb	?___fttol+3,w,c
  1410  0013FC  A0D8               	btfss	status,0,c
  1411  0013FE  D018               	goto	l187
  1412                           
  1413                           ;doprnt.c: 896: fval *= 1e-1;
  1414  001400  C080  F015         	movff	printf@fval,___ftmul@f1
  1415  001404  C081  F016         	movff	printf@fval+1,___ftmul@f1+1
  1416  001408  C082  F017         	movff	printf@fval+2,___ftmul@f1+2
  1417  00140C  0ECD               	movlw	205
  1418  00140E  6E18               	movwf	___ftmul@f2,c
  1419  001410  0ECC               	movlw	204
  1420  001412  6E19               	movwf	___ftmul@f2+1,c
  1421  001414  0E3D               	movlw	61
  1422  001416  6E1A               	movwf	___ftmul@f2+2,c
  1423  001418  EC7C  F013         	call	___ftmul	;wreg free
  1424  00141C  C015  F080         	movff	?___ftmul,printf@fval
  1425  001420  C016  F081         	movff	?___ftmul+1,printf@fval+1
  1426  001424  C017  F082         	movff	?___ftmul+2,printf@fval+2
  1427                           
  1428                           ;doprnt.c: 897: exp++;
  1429  001428  0100               	movlb	0	; () banked
  1430  00142A  4B7E               	infsnz	printf@exp& (0+255),f,b
  1431  00142C  2B7F               	incf	(printf@exp+1)& (0+255),f,b
  1432                           
  1433                           ;doprnt.c: 898: } else if((unsigned long)fval < dpowers[c]) {
  1434  00142E  D03A               	goto	l189
  1435  001430                     l187:
  1436                           
  1437                           ; BSR set to: 0
  1438  001430  0100               	movlb	0	; () banked
  1439  001432  5183               	movf	printf@c& (0+255),w,b
  1440  001434  0D04               	mullw	4
  1441  001436  0E01               	movlw	low _dpowers
  1442  001438  24F3               	addwf	prodl,w,c
  1443  00143A  6EF6               	movwf	tblptrl,c
  1444  00143C  0E10               	movlw	high _dpowers
  1445  00143E  20F4               	addwfc	prodh,w,c
  1446  001440  6EF7               	movwf	tblptrh,c
  1447  001442                     	if	1	;There are 3 active tblptr bytes
  1448  001442  6AF8               	clrf	tblptru,c
  1449  001444  0E00               	movlw	low (__mediumconst shr (0+16))
  1450  001446  22F8               	addwfc	tblptru,f,c
  1451  001448                     	endif
  1452  001448  C080  F02B         	movff	printf@fval,___fttol@f1
  1453  00144C  C081  F02C         	movff	printf@fval+1,___fttol@f1+1
  1454  001450  C082  F02D         	movff	printf@fval+2,___fttol@f1+2
  1455  001454  ECF6  F013         	call	___fttol	;wreg free
  1456  001458  0009               	tblrd		*+
  1457  00145A  50F5               	movf	tablat,w,c
  1458  00145C  5C2B               	subwf	?___fttol,w,c
  1459  00145E  0009               	tblrd		*+
  1460  001460  50F5               	movf	tablat,w,c
  1461  001462  582C               	subwfb	?___fttol+1,w,c
  1462  001464  0009               	tblrd		*+
  1463  001466  50F5               	movf	tablat,w,c
  1464  001468  582D               	subwfb	?___fttol+2,w,c
  1465  00146A  0009               	tblrd		*+
  1466  00146C  50F5               	movf	tablat,w,c
  1467  00146E  582E               	subwfb	?___fttol+3,w,c
  1468  001470  B0D8               	btfsc	status,0,c
  1469  001472  D018               	goto	l189
  1470                           
  1471                           ;doprnt.c: 899: fval *= 10.0;
  1472  001474  C080  F015         	movff	printf@fval,___ftmul@f1
  1473  001478  C081  F016         	movff	printf@fval+1,___ftmul@f1+1
  1474  00147C  C082  F017         	movff	printf@fval+2,___ftmul@f1+2
  1475  001480  0E00               	movlw	0
  1476  001482  6E18               	movwf	___ftmul@f2,c
  1477  001484  0E20               	movlw	32
  1478  001486  6E19               	movwf	___ftmul@f2+1,c
  1479  001488  0E41               	movlw	65
  1480  00148A  6E1A               	movwf	___ftmul@f2+2,c
  1481  00148C  EC7C  F013         	call	___ftmul	;wreg free
  1482  001490  C015  F080         	movff	?___ftmul,printf@fval
  1483  001494  C016  F081         	movff	?___ftmul+1,printf@fval+1
  1484  001498  C017  F082         	movff	?___ftmul+2,printf@fval+2
  1485                           
  1486                           ;doprnt.c: 900: exp--;
  1487  00149C  0100               	movlb	0	; () banked
  1488  00149E  077E               	decf	printf@exp& (0+255),f,b
  1489  0014A0  A0D8               	btfss	status,0,c
  1490  0014A2  077F               	decf	(printf@exp+1)& (0+255),f,b
  1491  0014A4                     l189:
  1492                           
  1493                           ;doprnt.c: 901: }
  1494                           ;doprnt.c: 903: }
  1495                           ;doprnt.c: 959: {
  1496                           ;doprnt.c: 973: if(flag & 0x03)
  1497                           
  1498                           ; BSR set to: 0
  1499                           
  1500                           ; BSR set to: 0
  1501                           
  1502                           ; BSR set to: 0
  1503  0014A4  0E03               	movlw	3
  1504  0014A6  0100               	movlb	0	; () banked
  1505  0014A8  1572               	andwf	printf@flag& (0+255),w,b
  1506  0014AA  6F67               	movwf	??_printf& (0+255),b
  1507  0014AC  0E00               	movlw	0
  1508  0014AE  1573               	andwf	(printf@flag+1)& (0+255),w,b
  1509  0014B0  6F68               	movwf	(??_printf+1)& (0+255),b
  1510  0014B2  5167               	movf	??_printf& (0+255),w,b
  1511  0014B4  1168               	iorwf	(??_printf+1)& (0+255),w,b
  1512  0014B6  B4D8               	btfsc	status,2,c
  1513  0014B8  D003               	goto	l190
  1514                           
  1515                           ; BSR set to: 0
  1516                           ;doprnt.c: 974: (putch('-') );
  1517  0014BA  0E2D               	movlw	45
  1518  0014BC  EC3A  F018         	call	_putch
  1519  0014C0                     l190:
  1520                           
  1521                           ;doprnt.c: 980: }
  1522                           ;doprnt.c: 985: val = (unsigned long)fval;
  1523  0014C0  C080  F02B         	movff	printf@fval,___fttol@f1
  1524  0014C4  C081  F02C         	movff	printf@fval+1,___fttol@f1+1
  1525  0014C8  C082  F02D         	movff	printf@fval+2,___fttol@f1+2
  1526  0014CC  ECF6  F013         	call	___fttol	;wreg free
  1527  0014D0  C02B  F07A         	movff	?___fttol,printf@val
  1528  0014D4  C02C  F07B         	movff	?___fttol+1,printf@val+1
  1529  0014D8  C02D  F07C         	movff	?___fttol+2,printf@val+2
  1530  0014DC  C02E  F07D         	movff	?___fttol+3,printf@val+3
  1531                           
  1532                           ;doprnt.c: 986: (putch(val/dpowers[c] + '0') );
  1533  0014E0  C07A  F001         	movff	printf@val,___lldiv@dividend
  1534  0014E4  C07B  F002         	movff	printf@val+1,___lldiv@dividend+1
  1535  0014E8  C07C  F003         	movff	printf@val+2,___lldiv@dividend+2
  1536  0014EC  C07D  F004         	movff	printf@val+3,___lldiv@dividend+3
  1537  0014F0  0100               	movlb	0	; () banked
  1538  0014F2  5183               	movf	printf@c& (0+255),w,b
  1539  0014F4  0D04               	mullw	4
  1540  0014F6  0E01               	movlw	low _dpowers
  1541  0014F8  24F3               	addwf	prodl,w,c
  1542  0014FA  6EF6               	movwf	tblptrl,c
  1543  0014FC  0E10               	movlw	high _dpowers
  1544  0014FE  20F4               	addwfc	prodh,w,c
  1545  001500  6EF7               	movwf	tblptrh,c
  1546  001502                     	if	1	;There are 3 active tblptr bytes
  1547  001502  6AF8               	clrf	tblptru,c
  1548  001504  0E00               	movlw	low (__mediumconst shr (0+16))
  1549  001506  22F8               	addwfc	tblptru,f,c
  1550  001508                     	endif
  1551  001508  0009               	tblrd		*+
  1552  00150A  CFF5 F005          	movff	tablat,___lldiv@divisor
  1553  00150E  0009               	tblrd		*+
  1554  001510  CFF5 F006          	movff	tablat,___lldiv@divisor+1
  1555  001514  0009               	tblrd		*+
  1556  001516  CFF5 F007          	movff	tablat,___lldiv@divisor+2
  1557  00151A  000A               	tblrd		*-
  1558  00151C  CFF5 F008          	movff	tablat,___lldiv@divisor+3
  1559  001520  ECC4  F015         	call	___lldiv	;wreg free
  1560  001524  5001               	movf	?___lldiv,w,c
  1561  001526  0F30               	addlw	48
  1562  001528  EC3A  F018         	call	_putch
  1563                           
  1564                           ;doprnt.c: 987: val %= dpowers[c];
  1565  00152C  C07A  F00E         	movff	printf@val,___llmod@dividend
  1566  001530  C07B  F00F         	movff	printf@val+1,___llmod@dividend+1
  1567  001534  C07C  F010         	movff	printf@val+2,___llmod@dividend+2
  1568  001538  C07D  F011         	movff	printf@val+3,___llmod@dividend+3
  1569  00153C  0100               	movlb	0	; () banked
  1570  00153E  5183               	movf	printf@c& (0+255),w,b
  1571  001540  0D04               	mullw	4
  1572  001542  0E01               	movlw	low _dpowers
  1573  001544  24F3               	addwf	prodl,w,c
  1574  001546  6EF6               	movwf	tblptrl,c
  1575  001548  0E10               	movlw	high _dpowers
  1576  00154A  20F4               	addwfc	prodh,w,c
  1577  00154C  6EF7               	movwf	tblptrh,c
  1578  00154E                     	if	1	;There are 3 active tblptr bytes
  1579  00154E  6AF8               	clrf	tblptru,c
  1580  001550  0E00               	movlw	low (__mediumconst shr (0+16))
  1581  001552  22F8               	addwfc	tblptru,f,c
  1582  001554                     	endif
  1583  001554  0009               	tblrd		*+
  1584  001556  CFF5 F012          	movff	tablat,___llmod@divisor
  1585  00155A  0009               	tblrd		*+
  1586  00155C  CFF5 F013          	movff	tablat,___llmod@divisor+1
  1587  001560  0009               	tblrd		*+
  1588  001562  CFF5 F014          	movff	tablat,___llmod@divisor+2
  1589  001566  000A               	tblrd		*-
  1590  001568  CFF5 F015          	movff	tablat,___llmod@divisor+3
  1591  00156C  EC78  F016         	call	___llmod	;wreg free
  1592  001570  C00E  F07A         	movff	?___llmod,printf@val
  1593  001574  C00F  F07B         	movff	?___llmod+1,printf@val+1
  1594  001578  C010  F07C         	movff	?___llmod+2,printf@val+2
  1595  00157C  C011  F07D         	movff	?___llmod+3,printf@val+3
  1596                           
  1597                           ;doprnt.c: 992: if(prec)
  1598  001580  0100               	movlb	0	; () banked
  1599  001582  5178               	movf	printf@prec& (0+255),w,b
  1600  001584  1179               	iorwf	(printf@prec+1)& (0+255),w,b
  1601  001586  B4D8               	btfsc	status,2,c
  1602  001588  D06B               	goto	u2760
  1603                           
  1604                           ; BSR set to: 0
  1605                           ;doprnt.c: 994: {
  1606                           ;doprnt.c: 995: (putch('.') );
  1607  00158A  0E2E               	movlw	46
  1608  00158C  EC3A  F018         	call	_putch
  1609                           
  1610                           ;doprnt.c: 996: prec -= c;
  1611  001590  0100               	movlb	0	; () banked
  1612  001592  5183               	movf	printf@c& (0+255),w,b
  1613  001594  5F78               	subwf	printf@prec& (0+255),f,b
  1614  001596  0E00               	movlw	0
  1615  001598  BF83               	btfsc	printf@c& (0+255),7,b
  1616  00159A  0EFF               	movlw	255
  1617  00159C  5B79               	subwfb	(printf@prec+1)& (0+255),f,b
  1618                           
  1619                           ;doprnt.c: 997: while(c--) {
  1620  00159E  D04F               	goto	l192
  1621  0015A0                     
  1622                           ; BSR set to: 0
  1623                           ;doprnt.c: 1007: (putch('0' + (val/dpowers[c])) );
  1624                           
  1625                           ; BSR set to: 0
  1626  0015A0  C07A  F001         	movff	printf@val,___lldiv@dividend
  1627  0015A4  C07B  F002         	movff	printf@val+1,___lldiv@dividend+1
  1628  0015A8  C07C  F003         	movff	printf@val+2,___lldiv@dividend+2
  1629  0015AC  C07D  F004         	movff	printf@val+3,___lldiv@dividend+3
  1630  0015B0  5183               	movf	printf@c& (0+255),w,b
  1631  0015B2  0D04               	mullw	4
  1632  0015B4  0E01               	movlw	low _dpowers
  1633  0015B6  24F3               	addwf	prodl,w,c
  1634  0015B8  6EF6               	movwf	tblptrl,c
  1635  0015BA  0E10               	movlw	high _dpowers
  1636  0015BC  20F4               	addwfc	prodh,w,c
  1637  0015BE  6EF7               	movwf	tblptrh,c
  1638  0015C0                     	if	1	;There are 3 active tblptr bytes
  1639  0015C0  6AF8               	clrf	tblptru,c
  1640  0015C2  0E00               	movlw	low (__mediumconst shr (0+16))
  1641  0015C4  22F8               	addwfc	tblptru,f,c
  1642  0015C6                     	endif
  1643  0015C6  0009               	tblrd		*+
  1644  0015C8  CFF5 F005          	movff	tablat,___lldiv@divisor
  1645  0015CC  0009               	tblrd		*+
  1646  0015CE  CFF5 F006          	movff	tablat,___lldiv@divisor+1
  1647  0015D2  0009               	tblrd		*+
  1648  0015D4  CFF5 F007          	movff	tablat,___lldiv@divisor+2
  1649  0015D8  000A               	tblrd		*-
  1650  0015DA  CFF5 F008          	movff	tablat,___lldiv@divisor+3
  1651  0015DE  ECC4  F015         	call	___lldiv	;wreg free
  1652  0015E2  5001               	movf	?___lldiv,w,c
  1653  0015E4  0F30               	addlw	48
  1654  0015E6  EC3A  F018         	call	_putch
  1655                           
  1656                           ;doprnt.c: 1008: val %= dpowers[c];
  1657  0015EA  C07A  F00E         	movff	printf@val,___llmod@dividend
  1658  0015EE  C07B  F00F         	movff	printf@val+1,___llmod@dividend+1
  1659  0015F2  C07C  F010         	movff	printf@val+2,___llmod@dividend+2
  1660  0015F6  C07D  F011         	movff	printf@val+3,___llmod@dividend+3
  1661  0015FA  0100               	movlb	0	; () banked
  1662  0015FC  5183               	movf	printf@c& (0+255),w,b
  1663  0015FE  0D04               	mullw	4
  1664  001600  0E01               	movlw	low _dpowers
  1665  001602  24F3               	addwf	prodl,w,c
  1666  001604  6EF6               	movwf	tblptrl,c
  1667  001606  0E10               	movlw	high _dpowers
  1668  001608  20F4               	addwfc	prodh,w,c
  1669  00160A  6EF7               	movwf	tblptrh,c
  1670  00160C                     	if	1	;There are 3 active tblptr bytes
  1671  00160C  6AF8               	clrf	tblptru,c
  1672  00160E  0E00               	movlw	low (__mediumconst shr (0+16))
  1673  001610  22F8               	addwfc	tblptru,f,c
  1674  001612                     	endif
  1675  001612  0009               	tblrd		*+
  1676  001614  CFF5 F012          	movff	tablat,___llmod@divisor
  1677  001618  0009               	tblrd		*+
  1678  00161A  CFF5 F013          	movff	tablat,___llmod@divisor+1
  1679  00161E  0009               	tblrd		*+
  1680  001620  CFF5 F014          	movff	tablat,___llmod@divisor+2
  1681  001624  000A               	tblrd		*-
  1682  001626  CFF5 F015          	movff	tablat,___llmod@divisor+3
  1683  00162A  EC78  F016         	call	___llmod	;wreg free
  1684  00162E  C00E  F07A         	movff	?___llmod,printf@val
  1685  001632  C00F  F07B         	movff	?___llmod+1,printf@val+1
  1686  001636  C010  F07C         	movff	?___llmod+2,printf@val+2
  1687  00163A  C011  F07D         	movff	?___llmod+3,printf@val+3
  1688  00163E                     l192:
  1689  00163E  0100               	movlb	0	; () banked
  1690  001640  0783               	decf	printf@c& (0+255),f,b
  1691  001642  2983               	incf	printf@c& (0+255),w,b
  1692  001644  B4D8               	btfsc	status,2,c
  1693  001646  D008               	goto	l195
  1694  001648  D7AB               	goto	l193
  1695  00164A                     
  1696                           ; BSR set to: 0
  1697                           ;doprnt.c: 1012: (putch('0') );
  1698                           
  1699                           ; BSR set to: 0
  1700  00164A  0E30               	movlw	48
  1701  00164C  EC3A  F018         	call	_putch
  1702                           
  1703                           ;doprnt.c: 1013: prec--;
  1704  001650  0100               	movlb	0	; () banked
  1705  001652  0778               	decf	printf@prec& (0+255),f,b
  1706  001654  A0D8               	btfss	status,0,c
  1707  001656  0779               	decf	(printf@prec+1)& (0+255),f,b
  1708  001658                     l195:
  1709                           
  1710                           ; BSR set to: 0
  1711                           
  1712                           ; BSR set to: 0
  1713  001658  5178               	movf	printf@prec& (0+255),w,b
  1714  00165A  1179               	iorwf	(printf@prec+1)& (0+255),w,b
  1715  00165C  A4D8               	btfss	status,2,c
  1716  00165E  D7F5               	goto	l196
  1717  001660                     u2760:
  1718                           
  1719                           ; BSR set to: 0
  1720                           ;doprnt.c: 1014: }
  1721                           ;doprnt.c: 1015: }
  1722                           ;doprnt.c: 1021: (putch('e') );
  1723                           
  1724                           ; BSR set to: 0
  1725                           
  1726                           ; BSR set to: 0
  1727  001660  0E65               	movlw	101
  1728  001662  EC3A  F018         	call	_putch
  1729                           
  1730                           ;doprnt.c: 1022: if(exp < 0) {
  1731  001666  0100               	movlb	0	; () banked
  1732  001668  AF7F               	btfss	(printf@exp+1)& (0+255),7,b
  1733  00166A  D008               	goto	l198
  1734                           
  1735                           ; BSR set to: 0
  1736                           ;doprnt.c: 1023: exp = -exp;
  1737  00166C  6D7E               	negf	printf@exp& (0+255),b
  1738  00166E  1F7F               	comf	(printf@exp+1)& (0+255),f,b
  1739  001670  B0D8               	btfsc	status,0,c
  1740  001672  2B7F               	incf	(printf@exp+1)& (0+255),f,b
  1741                           
  1742                           ; BSR set to: 0
  1743                           ;doprnt.c: 1024: (putch('-') );
  1744  001674  0E2D               	movlw	45
  1745  001676  EC3A  F018         	call	_putch
  1746                           
  1747                           ;doprnt.c: 1025: } else
  1748  00167A  D003               	goto	l199
  1749  00167C                     l198:
  1750                           
  1751                           ;doprnt.c: 1026: (putch('+') );
  1752  00167C  0E2B               	movlw	43
  1753  00167E  EC3A  F018         	call	_putch
  1754  001682                     l199:
  1755                           
  1756                           ;doprnt.c: 1039: (putch(exp / 10 + '0') );
  1757  001682  C07E  F007         	movff	printf@exp,___awdiv@dividend
  1758  001686  C07F  F008         	movff	printf@exp+1,___awdiv@dividend+1
  1759  00168A  0E00               	movlw	0
  1760  00168C  6E0A               	movwf	___awdiv@divisor+1,c
  1761  00168E  0E0A               	movlw	10
  1762  001690  6E09               	movwf	___awdiv@divisor,c
  1763  001692  EC82  F015         	call	___awdiv	;wreg free
  1764  001696  5007               	movf	?___awdiv,w,c
  1765  001698  0F30               	addlw	48
  1766  00169A  EC3A  F018         	call	_putch
  1767                           
  1768                           ;doprnt.c: 1040: (putch(exp % 10 + '0') );
  1769  00169E  C07E  F001         	movff	printf@exp,___awmod@dividend
  1770  0016A2  C07F  F002         	movff	printf@exp+1,___awmod@dividend+1
  1771  0016A6  0E00               	movlw	0
  1772  0016A8  6E04               	movwf	___awmod@divisor+1,c
  1773  0016AA  0E0A               	movlw	10
  1774  0016AC  6E03               	movwf	___awmod@divisor,c
  1775  0016AE  EC40  F016         	call	___awmod	;wreg free
  1776  0016B2  5001               	movf	?___awmod,w,c
  1777  0016B4  0F30               	addlw	48
  1778  0016B6  EC3A  F018         	call	_putch
  1779                           
  1780                           ;doprnt.c: 1047: continue;
  1781  0016BA  D2A7               	goto	u2990
  1782  0016BC                     l182:
  1783                           
  1784                           ;doprnt.c: 1048: }
  1785                           ;doprnt.c: 1112: if(prec <= 12)
  1786  0016BC  0100               	movlb	0	; () banked
  1787  0016BE  BF79               	btfsc	(printf@prec+1)& (0+255),7,b
  1788  0016C0  D006               	goto	u2780
  1789  0016C2  5179               	movf	(printf@prec+1)& (0+255),w,b
  1790  0016C4  E11B               	bnz	l2763
  1791  0016C6  0E0D               	movlw	13
  1792  0016C8  5D78               	subwf	printf@prec& (0+255),w,b
  1793  0016CA  B0D8               	btfsc	status,0,c
  1794  0016CC  D017               	goto	l200
  1795  0016CE                     u2780:
  1796                           
  1797                           ; BSR set to: 0
  1798                           ;doprnt.c: 1113: fval += fround(prec);
  1799  0016CE  C080  F046         	movff	printf@fval,___ftadd@f1
  1800  0016D2  C081  F047         	movff	printf@fval+1,___ftadd@f1+1
  1801  0016D6  C082  F048         	movff	printf@fval+2,___ftadd@f1+2
  1802  0016DA  5178               	movf	printf@prec& (0+255),w,b
  1803  0016DC  EC3E  F010         	call	_fround
  1804  0016E0  C024  F049         	movff	?_fround,___ftadd@f2
  1805  0016E4  C025  F04A         	movff	?_fround+1,___ftadd@f2+1
  1806  0016E8  C026  F04B         	movff	?_fround+2,___ftadd@f2+2
  1807  0016EC  EC79  F011         	call	___ftadd	;wreg free
  1808  0016F0  C046  F080         	movff	?___ftadd,printf@fval
  1809  0016F4  C047  F081         	movff	?___ftadd+1,printf@fval+1
  1810  0016F8  C048  F082         	movff	?___ftadd+2,printf@fval+2
  1811  0016FC                     l200:
  1812  0016FC                     l2763:
  1813                           
  1814                           ;doprnt.c: 1116: if((exp > 9)||(fval != 0 && (unsigned long)fval == 0 && exp > 1)) {
  1815  0016FC  0100               	movlb	0	; () banked
  1816  0016FE  BF7F               	btfsc	(printf@exp+1)& (0+255),7,b
  1817  001700  D006               	goto	u2790
  1818  001702  517F               	movf	(printf@exp+1)& (0+255),w,b
  1819  001704  E120               	bnz	l2771
  1820  001706  0E0A               	movlw	10
  1821  001708  5D7E               	subwf	printf@exp& (0+255),w,b
  1822  00170A  B0D8               	btfsc	status,0,c
  1823  00170C  D01C               	goto	u2820
  1824  00170E                     u2790:
  1825                           
  1826                           ; BSR set to: 0
  1827  00170E  5180               	movf	printf@fval& (0+255),w,b
  1828  001710  1181               	iorwf	(printf@fval+1)& (0+255),w,b
  1829  001712  1182               	iorwf	(printf@fval+2)& (0+255),w,b
  1830  001714  B4D8               	btfsc	status,2,c
  1831  001716  D056               	goto	l201
  1832                           
  1833                           ; BSR set to: 0
  1834  001718  C080  F02B         	movff	printf@fval,___fttol@f1
  1835  00171C  C081  F02C         	movff	printf@fval+1,___fttol@f1+1
  1836  001720  C082  F02D         	movff	printf@fval+2,___fttol@f1+2
  1837  001724  ECF6  F013         	call	___fttol	;wreg free
  1838  001728  502B               	movf	?___fttol,w,c
  1839  00172A  102C               	iorwf	?___fttol+1,w,c
  1840  00172C  102D               	iorwf	?___fttol+2,w,c
  1841  00172E  102E               	iorwf	?___fttol+3,w,c
  1842  001730  A4D8               	btfss	status,2,c
  1843  001732  D048               	goto	l201
  1844  001734  0100               	movlb	0	; () banked
  1845  001736  BF7F               	btfsc	(printf@exp+1)& (0+255),7,b
  1846  001738  D045               	goto	l201
  1847  00173A  517F               	movf	(printf@exp+1)& (0+255),w,b
  1848  00173C  E104               	bnz	l2771
  1849  00173E  0E02               	movlw	2
  1850  001740  5D7E               	subwf	printf@exp& (0+255),w,b
  1851  001742  A0D8               	btfss	status,0,c
  1852  001744  D03F               	goto	l201
  1853  001746                     u2820:
  1854  001746                     l2771:
  1855                           
  1856                           ; BSR set to: 0
  1857                           ;doprnt.c: 1120: if(tmpval.integ < 4.294967296){
  1858  001746  C074  F052         	movff	printf@tmpval,___ftge@ff1
  1859  00174A  C075  F053         	movff	printf@tmpval+1,___ftge@ff1+1
  1860  00174E  C076  F054         	movff	printf@tmpval+2,___ftge@ff1+2
  1861  001752  0E70               	movlw	112
  1862  001754  6E55               	movwf	___ftge@ff2,c
  1863  001756  0E89               	movlw	137
  1864  001758  6E56               	movwf	___ftge@ff2+1,c
  1865  00175A  0E40               	movlw	64
  1866  00175C  6E57               	movwf	___ftge@ff2+2,c
  1867  00175E  EC3A  F015         	call	___ftge	;wreg free
  1868  001762  B0D8               	btfsc	status,0,c
  1869  001764  D003               	goto	l204
  1870                           
  1871                           ;doprnt.c: 1121: exp -= (sizeof dpowers/sizeof dpowers[0])-1;
  1872  001766  0100               	movlb	0	; () banked
  1873  001768  0EF7               	movlw	247
  1874  00176A  D002               	goto	L1
  1875  00176C                     l204:
  1876                           
  1877                           ;doprnt.c: 1123: exp -= (sizeof dpowers/sizeof dpowers[0])-2;
  1878                           
  1879                           ; BSR set to: 0
  1880  00176C  0100               	movlb	0	; () banked
  1881  00176E  0EF8               	movlw	248
  1882  001770                     L1:
  1883  001770  277E               	addwf	printf@exp& (0+255),f,b
  1884  001772  0EFF               	movlw	255
  1885  001774  237F               	addwfc	(printf@exp+1)& (0+255),f,b
  1886                           
  1887                           ; BSR set to: 0
  1888                           ;doprnt.c: 1124: }
  1889                           ;doprnt.c: 1125: tmpval.integ = scale(exp);
  1890                           
  1891                           ; BSR set to: 0
  1892  001776  517E               	movf	printf@exp& (0+255),w,b
  1893  001778  EC16  F00E         	call	_scale
  1894  00177C  C024  F074         	movff	?_scale,printf@tmpval
  1895  001780  C025  F075         	movff	?_scale+1,printf@tmpval+1
  1896  001784  C026  F076         	movff	?_scale+2,printf@tmpval+2
  1897                           
  1898                           ;doprnt.c: 1126: val = ((sizeof(double)== 3) ? _tdiv_to_l_(fval,tmpval.integ) : _div_to_
      +                          l_(fval,tmpval.integ));
  1899  001788  C080  F001         	movff	printf@fval,__tdiv_to_l_@f1
  1900  00178C  C081  F002         	movff	printf@fval+1,__tdiv_to_l_@f1+1
  1901  001790  C082  F003         	movff	printf@fval+2,__tdiv_to_l_@f1+2
  1902  001794  C074  F004         	movff	printf@tmpval,__tdiv_to_l_@f2
  1903  001798  C075  F005         	movff	printf@tmpval+1,__tdiv_to_l_@f2+1
  1904  00179C  C076  F006         	movff	printf@tmpval+2,__tdiv_to_l_@f2+2
  1905  0017A0  EC4F  F012         	call	__tdiv_to_l_	;wreg free
  1906  0017A4  C001  F07A         	movff	?__tdiv_to_l_,printf@val
  1907  0017A8  C002  F07B         	movff	?__tdiv_to_l_+1,printf@val+1
  1908  0017AC  C003  F07C         	movff	?__tdiv_to_l_+2,printf@val+2
  1909  0017B0  C004  F07D         	movff	?__tdiv_to_l_+3,printf@val+3
  1910                           
  1911                           ;doprnt.c: 1129: fval = 0.0;
  1912  0017B4  0E00               	movlw	0
  1913  0017B6  0100               	movlb	0	; () banked
  1914  0017B8  6F80               	movwf	printf@fval& (0+255),b
  1915  0017BA  0E00               	movlw	0
  1916  0017BC  6F81               	movwf	(printf@fval+1)& (0+255),b
  1917  0017BE  0E00               	movlw	0
  1918  0017C0  6F82               	movwf	(printf@fval+2)& (0+255),b
  1919                           
  1920                           ;doprnt.c: 1130: } else {
  1921  0017C2  D033               	goto	l210
  1922  0017C4                     l201:
  1923                           
  1924                           ;doprnt.c: 1131: val = (unsigned long)fval;
  1925                           
  1926                           ; BSR set to: 0
  1927  0017C4  C080  F02B         	movff	printf@fval,___fttol@f1
  1928  0017C8  C081  F02C         	movff	printf@fval+1,___fttol@f1+1
  1929  0017CC  C082  F02D         	movff	printf@fval+2,___fttol@f1+2
  1930  0017D0  ECF6  F013         	call	___fttol	;wreg free
  1931  0017D4  C02B  F07A         	movff	?___fttol,printf@val
  1932  0017D8  C02C  F07B         	movff	?___fttol+1,printf@val+1
  1933  0017DC  C02D  F07C         	movff	?___fttol+2,printf@val+2
  1934  0017E0  C02E  F07D         	movff	?___fttol+3,printf@val+3
  1935                           
  1936                           ;doprnt.c: 1132: fval -= (double)val;
  1937  0017E4  C080  F052         	movff	printf@fval,___ftsub@f1
  1938  0017E8  C081  F053         	movff	printf@fval+1,___ftsub@f1+1
  1939  0017EC  C082  F054         	movff	printf@fval+2,___ftsub@f1+2
  1940  0017F0  C07A  F03A         	movff	printf@val,___lltoft@c
  1941  0017F4  C07B  F03B         	movff	printf@val+1,___lltoft@c+1
  1942  0017F8  C07C  F03C         	movff	printf@val+2,___lltoft@c+2
  1943  0017FC  C07D  F03D         	movff	printf@val+3,___lltoft@c+3
  1944  001800  ECAB  F016         	call	___lltoft	;wreg free
  1945  001804  C03A  F055         	movff	?___lltoft,___ftsub@f2
  1946  001808  C03B  F056         	movff	?___lltoft+1,___ftsub@f2+1
  1947  00180C  C03C  F057         	movff	?___lltoft+2,___ftsub@f2+2
  1948  001810  EC48  F017         	call	___ftsub	;wreg free
  1949  001814  C052  F080         	movff	?___ftsub,printf@fval
  1950  001818  C053  F081         	movff	?___ftsub+1,printf@fval+1
  1951  00181C  C054  F082         	movff	?___ftsub+2,printf@fval+2
  1952                           
  1953                           ;doprnt.c: 1133: exp = 0;
  1954  001820  0E00               	movlw	0
  1955  001822  0100               	movlb	0	; () banked
  1956  001824  6F7F               	movwf	(printf@exp+1)& (0+255),b
  1957  001826  0E00               	movlw	0
  1958  001828  6F7E               	movwf	printf@exp& (0+255),b
  1959  00182A                     l210:
  1960                           
  1961                           ; BSR set to: 0
  1962                           ;doprnt.c: 1134: }
  1963                           ;doprnt.c: 1136: for(c = 1 ; c != (sizeof dpowers/sizeof dpowers[0]) ; c++)
  1964                           
  1965                           ; BSR set to: 0
  1966  00182A  0E01               	movlw	1
  1967  00182C  6F83               	movwf	printf@c& (0+255),b
  1968  00182E                     l2791:
  1969                           
  1970                           ; BSR set to: 0
  1971  00182E  0E0A               	movlw	10
  1972  001830  1983               	xorwf	printf@c& (0+255),w,b
  1973  001832  B4D8               	btfsc	status,2,c
  1974  001834  D01B               	goto	u2860
  1975                           
  1976                           ; BSR set to: 0
  1977                           ;doprnt.c: 1137: if(val < dpowers[c])
  1978                           
  1979                           ; BSR set to: 0
  1980                           
  1981                           ; BSR set to: 0
  1982  001836  5183               	movf	printf@c& (0+255),w,b
  1983  001838  0D04               	mullw	4
  1984  00183A  0E01               	movlw	low _dpowers
  1985  00183C  24F3               	addwf	prodl,w,c
  1986  00183E  6EF6               	movwf	tblptrl,c
  1987  001840  0E10               	movlw	high _dpowers
  1988  001842  20F4               	addwfc	prodh,w,c
  1989  001844  6EF7               	movwf	tblptrh,c
  1990  001846                     	if	1	;There are 3 active tblptr bytes
  1991  001846  6AF8               	clrf	tblptru,c
  1992  001848  0E00               	movlw	low (__mediumconst shr (0+16))
  1993  00184A  22F8               	addwfc	tblptru,f,c
  1994  00184C                     	endif
  1995  00184C  0009               	tblrd		*+
  1996  00184E  50F5               	movf	tablat,w,c
  1997  001850  5D7A               	subwf	printf@val& (0+255),w,b
  1998  001852  0009               	tblrd		*+
  1999  001854  50F5               	movf	tablat,w,c
  2000  001856  597B               	subwfb	(printf@val+1)& (0+255),w,b
  2001  001858  0009               	tblrd		*+
  2002  00185A  50F5               	movf	tablat,w,c
  2003  00185C  597C               	subwfb	(printf@val+2)& (0+255),w,b
  2004  00185E  0009               	tblrd		*+
  2005  001860  50F5               	movf	tablat,w,c
  2006  001862  597D               	subwfb	(printf@val+3)& (0+255),w,b
  2007  001864  A0D8               	btfss	status,0,c
  2008  001866  D002               	goto	u2860
  2009                           
  2010                           ; BSR set to: 0
  2011                           
  2012                           ; BSR set to: 0
  2013                           
  2014                           ; BSR set to: 0
  2015                           ;doprnt.c: 1138: break;
  2016  001868  2B83               	incf	printf@c& (0+255),f,b
  2017  00186A  D7E1               	goto	l2791
  2018  00186C                     u2860:
  2019                           
  2020                           ; BSR set to: 0
  2021                           ;doprnt.c: 1175: {
  2022                           ;doprnt.c: 1188: if(flag & 0x03)
  2023                           
  2024                           ; BSR set to: 0
  2025  00186C  0E03               	movlw	3
  2026  00186E  1572               	andwf	printf@flag& (0+255),w,b
  2027  001870  6F67               	movwf	??_printf& (0+255),b
  2028  001872  0E00               	movlw	0
  2029  001874  1573               	andwf	(printf@flag+1)& (0+255),w,b
  2030  001876  6F68               	movwf	(??_printf+1)& (0+255),b
  2031  001878  5167               	movf	??_printf& (0+255),w,b
  2032  00187A  1168               	iorwf	(??_printf+1)& (0+255),w,b
  2033  00187C  B4D8               	btfsc	status,2,c
  2034  00187E  D04D               	goto	l215
  2035                           
  2036                           ; BSR set to: 0
  2037                           ;doprnt.c: 1190: (putch('-') );
  2038  001880  0E2D               	movlw	45
  2039  001882  EC3A  F018         	call	_putch
  2040                           
  2041                           ;doprnt.c: 1195: }
  2042                           ;doprnt.c: 1196: while(c--) {
  2043  001886  D049               	goto	l215
  2044  001888                     
  2045                           ;doprnt.c: 1200: {
  2046                           ;doprnt.c: 1201: tmpval.vd = val/dpowers[c];
  2047  001888  C07A  F001         	movff	printf@val,___lldiv@dividend
  2048  00188C  C07B  F002         	movff	printf@val+1,___lldiv@dividend+1
  2049  001890  C07C  F003         	movff	printf@val+2,___lldiv@dividend+2
  2050  001894  C07D  F004         	movff	printf@val+3,___lldiv@dividend+3
  2051  001898  0100               	movlb	0	; () banked
  2052  00189A  5183               	movf	printf@c& (0+255),w,b
  2053  00189C  0D04               	mullw	4
  2054  00189E  0E01               	movlw	low _dpowers
  2055  0018A0  24F3               	addwf	prodl,w,c
  2056  0018A2  6EF6               	movwf	tblptrl,c
  2057  0018A4  0E10               	movlw	high _dpowers
  2058  0018A6  20F4               	addwfc	prodh,w,c
  2059  0018A8  6EF7               	movwf	tblptrh,c
  2060  0018AA                     	if	1	;There are 3 active tblptr bytes
  2061  0018AA  6AF8               	clrf	tblptru,c
  2062  0018AC  0E00               	movlw	low (__mediumconst shr (0+16))
  2063  0018AE  22F8               	addwfc	tblptru,f,c
  2064  0018B0                     	endif
  2065  0018B0  0009               	tblrd		*+
  2066  0018B2  CFF5 F005          	movff	tablat,___lldiv@divisor
  2067  0018B6  0009               	tblrd		*+
  2068  0018B8  CFF5 F006          	movff	tablat,___lldiv@divisor+1
  2069  0018BC  0009               	tblrd		*+
  2070  0018BE  CFF5 F007          	movff	tablat,___lldiv@divisor+2
  2071  0018C2  000A               	tblrd		*-
  2072  0018C4  CFF5 F008          	movff	tablat,___lldiv@divisor+3
  2073  0018C8  ECC4  F015         	call	___lldiv	;wreg free
  2074  0018CC  C001  F074         	movff	?___lldiv,printf@tmpval
  2075  0018D0  C002  F075         	movff	?___lldiv+1,printf@tmpval+1
  2076  0018D4  C003  F076         	movff	?___lldiv+2,printf@tmpval+2
  2077  0018D8  C004  F077         	movff	?___lldiv+3,printf@tmpval+3
  2078                           
  2079                           ;doprnt.c: 1202: tmpval.vd %= 10;
  2080  0018DC  C074  F00E         	movff	printf@tmpval,___llmod@dividend
  2081  0018E0  C075  F00F         	movff	printf@tmpval+1,___llmod@dividend+1
  2082  0018E4  C076  F010         	movff	printf@tmpval+2,___llmod@dividend+2
  2083  0018E8  C077  F011         	movff	printf@tmpval+3,___llmod@dividend+3
  2084  0018EC  0E0A               	movlw	10
  2085  0018EE  6E12               	movwf	___llmod@divisor,c
  2086  0018F0  0E00               	movlw	0
  2087  0018F2  6E13               	movwf	___llmod@divisor+1,c
  2088  0018F4  0E00               	movlw	0
  2089  0018F6  6E14               	movwf	___llmod@divisor+2,c
  2090  0018F8  0E00               	movlw	0
  2091  0018FA  6E15               	movwf	___llmod@divisor+3,c
  2092  0018FC  EC78  F016         	call	___llmod	;wreg free
  2093  001900  C00E  F074         	movff	?___llmod,printf@tmpval
  2094  001904  C00F  F075         	movff	?___llmod+1,printf@tmpval+1
  2095  001908  C010  F076         	movff	?___llmod+2,printf@tmpval+2
  2096  00190C  C011  F077         	movff	?___llmod+3,printf@tmpval+3
  2097                           
  2098                           ;doprnt.c: 1203: (putch('0' + tmpval.vd) );
  2099  001910  0100               	movlb	0	; () banked
  2100  001912  5174               	movf	printf@tmpval& (0+255),w,b
  2101  001914  0F30               	addlw	48
  2102  001916  EC3A  F018         	call	_putch
  2103  00191A                     l215:
  2104  00191A  0100               	movlb	0	; () banked
  2105  00191C  0783               	decf	printf@c& (0+255),f,b
  2106  00191E  2983               	incf	printf@c& (0+255),w,b
  2107  001920  B4D8               	btfsc	status,2,c
  2108  001922  D008               	goto	l218
  2109  001924  D7B1               	goto	l216
  2110  001926                     l2815:
  2111                           
  2112                           ; BSR set to: 0
  2113                           ;doprnt.c: 1208: (putch('0') );
  2114  001926  0E30               	movlw	48
  2115  001928  EC3A  F018         	call	_putch
  2116                           
  2117                           ;doprnt.c: 1209: exp--;
  2118  00192C  0100               	movlb	0	; () banked
  2119  00192E  077E               	decf	printf@exp& (0+255),f,b
  2120  001930  A0D8               	btfss	status,0,c
  2121  001932  077F               	decf	(printf@exp+1)& (0+255),f,b
  2122  001934                     l218:
  2123                           
  2124                           ; BSR set to: 0
  2125                           
  2126                           ; BSR set to: 0
  2127  001934  BF7F               	btfsc	(printf@exp+1)& (0+255),7,b
  2128  001936  D005               	goto	u2890
  2129  001938  517F               	movf	(printf@exp+1)& (0+255),w,b
  2130  00193A  E1F5               	bnz	l2815
  2131  00193C  057E               	decf	printf@exp& (0+255),w,b
  2132  00193E  B0D8               	btfsc	status,0,c
  2133  001940  D7F2               	goto	l219
  2134  001942                     u2890:
  2135                           
  2136                           ; BSR set to: 0
  2137                           ;doprnt.c: 1210: }
  2138                           ;doprnt.c: 1211: if(prec > (int)((sizeof dpowers/sizeof dpowers[0])-2))
  2139                           
  2140                           ; BSR set to: 0
  2141  001942  BF79               	btfsc	(printf@prec+1)& (0+255),7,b
  2142  001944  D009               	goto	l221
  2143  001946  5179               	movf	(printf@prec+1)& (0+255),w,b
  2144  001948  E104               	bnz	u2900
  2145  00194A  0E09               	movlw	9
  2146  00194C  5D78               	subwf	printf@prec& (0+255),w,b
  2147  00194E  A0D8               	btfss	status,0,c
  2148  001950  D003               	goto	l221
  2149  001952                     u2900:
  2150                           
  2151                           ; BSR set to: 0
  2152                           ;doprnt.c: 1212: c = (sizeof dpowers/sizeof dpowers[0])-2;
  2153  001952  0E08               	movlw	8
  2154  001954  6F83               	movwf	printf@c& (0+255),b
  2155  001956  D002               	goto	l222
  2156  001958                     l221:
  2157                           
  2158                           ; BSR set to: 0
  2159                           ;doprnt.c: 1213: else
  2160                           ;doprnt.c: 1214: c = prec;
  2161  001958  C078  F083         	movff	printf@prec,printf@c
  2162  00195C                     l222:
  2163                           
  2164                           ; BSR set to: 0
  2165                           ;doprnt.c: 1215: prec -= c;
  2166                           
  2167                           ; BSR set to: 0
  2168  00195C  5183               	movf	printf@c& (0+255),w,b
  2169  00195E  5F78               	subwf	printf@prec& (0+255),f,b
  2170  001960  0E00               	movlw	0
  2171  001962  BF83               	btfsc	printf@c& (0+255),7,b
  2172  001964  0EFF               	movlw	255
  2173  001966  5B79               	subwfb	(printf@prec+1)& (0+255),f,b
  2174                           
  2175                           ; BSR set to: 0
  2176                           ;doprnt.c: 1219: if(c)
  2177  001968  5183               	movf	printf@c& (0+255),w,b
  2178  00196A  B4D8               	btfsc	status,2,c
  2179  00196C  D003               	goto	l223
  2180                           
  2181                           ; BSR set to: 0
  2182                           ;doprnt.c: 1221: (putch('.') );
  2183  00196E  0E2E               	movlw	46
  2184  001970  EC3A  F018         	call	_putch
  2185  001974                     l223:
  2186                           
  2187                           ;doprnt.c: 1227: val = (long)(fval * scale(c));
  2188  001974  0100               	movlb	0	; () banked
  2189  001976  5183               	movf	printf@c& (0+255),w,b
  2190  001978  EC16  F00E         	call	_scale
  2191  00197C  C024  F06D         	movff	?_scale,_printf$758
  2192  001980  C025  F06E         	movff	?_scale+1,_printf$758+1
  2193  001984  C026  F06F         	movff	?_scale+2,_printf$758+2
  2194                           
  2195                           ;doprnt.c: 1227: val = (long)(fval * scale(c));
  2196  001988  C080  F018         	movff	printf@fval,___ftmul@f2
  2197  00198C  C081  F019         	movff	printf@fval+1,___ftmul@f2+1
  2198  001990  C082  F01A         	movff	printf@fval+2,___ftmul@f2+2
  2199  001994  C06D  F015         	movff	_printf$758,___ftmul@f1
  2200  001998  C06E  F016         	movff	_printf$758+1,___ftmul@f1+1
  2201  00199C  C06F  F017         	movff	_printf$758+2,___ftmul@f1+2
  2202  0019A0  EC7C  F013         	call	___ftmul	;wreg free
  2203  0019A4  C015  F02B         	movff	?___ftmul,___fttol@f1
  2204  0019A8  C016  F02C         	movff	?___ftmul+1,___fttol@f1+1
  2205  0019AC  C017  F02D         	movff	?___ftmul+2,___fttol@f1+2
  2206  0019B0  ECF6  F013         	call	___fttol	;wreg free
  2207  0019B4  C02B  F07A         	movff	?___fttol,printf@val
  2208  0019B8  C02C  F07B         	movff	?___fttol+1,printf@val+1
  2209  0019BC  C02D  F07C         	movff	?___fttol+2,printf@val+2
  2210  0019C0  C02E  F07D         	movff	?___fttol+3,printf@val+3
  2211                           
  2212                           ;doprnt.c: 1228: while(c--) {
  2213  0019C4  D073               	goto	l224
  2214  0019C6                     
  2215                           ;doprnt.c: 1229: tmpval.vd = val/dpowers[c];
  2216  0019C6  C07A  F001         	movff	printf@val,___lldiv@dividend
  2217  0019CA  C07B  F002         	movff	printf@val+1,___lldiv@dividend+1
  2218  0019CE  C07C  F003         	movff	printf@val+2,___lldiv@dividend+2
  2219  0019D2  C07D  F004         	movff	printf@val+3,___lldiv@dividend+3
  2220  0019D6  0100               	movlb	0	; () banked
  2221  0019D8  5183               	movf	printf@c& (0+255),w,b
  2222  0019DA  0D04               	mullw	4
  2223  0019DC  0E01               	movlw	low _dpowers
  2224  0019DE  24F3               	addwf	prodl,w,c
  2225  0019E0  6EF6               	movwf	tblptrl,c
  2226  0019E2  0E10               	movlw	high _dpowers
  2227  0019E4  20F4               	addwfc	prodh,w,c
  2228  0019E6  6EF7               	movwf	tblptrh,c
  2229  0019E8                     	if	1	;There are 3 active tblptr bytes
  2230  0019E8  6AF8               	clrf	tblptru,c
  2231  0019EA  0E00               	movlw	low (__mediumconst shr (0+16))
  2232  0019EC  22F8               	addwfc	tblptru,f,c
  2233  0019EE                     	endif
  2234  0019EE  0009               	tblrd		*+
  2235  0019F0  CFF5 F005          	movff	tablat,___lldiv@divisor
  2236  0019F4  0009               	tblrd		*+
  2237  0019F6  CFF5 F006          	movff	tablat,___lldiv@divisor+1
  2238  0019FA  0009               	tblrd		*+
  2239  0019FC  CFF5 F007          	movff	tablat,___lldiv@divisor+2
  2240  001A00  000A               	tblrd		*-
  2241  001A02  CFF5 F008          	movff	tablat,___lldiv@divisor+3
  2242  001A06  ECC4  F015         	call	___lldiv	;wreg free
  2243  001A0A  C001  F074         	movff	?___lldiv,printf@tmpval
  2244  001A0E  C002  F075         	movff	?___lldiv+1,printf@tmpval+1
  2245  001A12  C003  F076         	movff	?___lldiv+2,printf@tmpval+2
  2246  001A16  C004  F077         	movff	?___lldiv+3,printf@tmpval+3
  2247                           
  2248                           ;doprnt.c: 1230: tmpval.vd %= 10;
  2249  001A1A  C074  F00E         	movff	printf@tmpval,___llmod@dividend
  2250  001A1E  C075  F00F         	movff	printf@tmpval+1,___llmod@dividend+1
  2251  001A22  C076  F010         	movff	printf@tmpval+2,___llmod@dividend+2
  2252  001A26  C077  F011         	movff	printf@tmpval+3,___llmod@dividend+3
  2253  001A2A  0E0A               	movlw	10
  2254  001A2C  6E12               	movwf	___llmod@divisor,c
  2255  001A2E  0E00               	movlw	0
  2256  001A30  6E13               	movwf	___llmod@divisor+1,c
  2257  001A32  0E00               	movlw	0
  2258  001A34  6E14               	movwf	___llmod@divisor+2,c
  2259  001A36  0E00               	movlw	0
  2260  001A38  6E15               	movwf	___llmod@divisor+3,c
  2261  001A3A  EC78  F016         	call	___llmod	;wreg free
  2262  001A3E  C00E  F074         	movff	?___llmod,printf@tmpval
  2263  001A42  C00F  F075         	movff	?___llmod+1,printf@tmpval+1
  2264  001A46  C010  F076         	movff	?___llmod+2,printf@tmpval+2
  2265  001A4A  C011  F077         	movff	?___llmod+3,printf@tmpval+3
  2266                           
  2267                           ;doprnt.c: 1231: (putch('0' + tmpval.vd) );
  2268  001A4E  0100               	movlb	0	; () banked
  2269  001A50  5174               	movf	printf@tmpval& (0+255),w,b
  2270  001A52  0F30               	addlw	48
  2271  001A54  EC3A  F018         	call	_putch
  2272                           
  2273                           ;doprnt.c: 1232: val %= dpowers[c];
  2274  001A58  C07A  F00E         	movff	printf@val,___llmod@dividend
  2275  001A5C  C07B  F00F         	movff	printf@val+1,___llmod@dividend+1
  2276  001A60  C07C  F010         	movff	printf@val+2,___llmod@dividend+2
  2277  001A64  C07D  F011         	movff	printf@val+3,___llmod@dividend+3
  2278  001A68  0100               	movlb	0	; () banked
  2279  001A6A  5183               	movf	printf@c& (0+255),w,b
  2280  001A6C  0D04               	mullw	4
  2281  001A6E  0E01               	movlw	low _dpowers
  2282  001A70  24F3               	addwf	prodl,w,c
  2283  001A72  6EF6               	movwf	tblptrl,c
  2284  001A74  0E10               	movlw	high _dpowers
  2285  001A76  20F4               	addwfc	prodh,w,c
  2286  001A78  6EF7               	movwf	tblptrh,c
  2287  001A7A                     	if	1	;There are 3 active tblptr bytes
  2288  001A7A  6AF8               	clrf	tblptru,c
  2289  001A7C  0E00               	movlw	low (__mediumconst shr (0+16))
  2290  001A7E  22F8               	addwfc	tblptru,f,c
  2291  001A80                     	endif
  2292  001A80  0009               	tblrd		*+
  2293  001A82  CFF5 F012          	movff	tablat,___llmod@divisor
  2294  001A86  0009               	tblrd		*+
  2295  001A88  CFF5 F013          	movff	tablat,___llmod@divisor+1
  2296  001A8C  0009               	tblrd		*+
  2297  001A8E  CFF5 F014          	movff	tablat,___llmod@divisor+2
  2298  001A92  000A               	tblrd		*-
  2299  001A94  CFF5 F015          	movff	tablat,___llmod@divisor+3
  2300  001A98  EC78  F016         	call	___llmod	;wreg free
  2301  001A9C  C00E  F07A         	movff	?___llmod,printf@val
  2302  001AA0  C00F  F07B         	movff	?___llmod+1,printf@val+1
  2303  001AA4  C010  F07C         	movff	?___llmod+2,printf@val+2
  2304  001AA8  C011  F07D         	movff	?___llmod+3,printf@val+3
  2305  001AAC                     l224:
  2306  001AAC  0100               	movlb	0	; () banked
  2307  001AAE  0783               	decf	printf@c& (0+255),f,b
  2308  001AB0  2983               	incf	printf@c& (0+255),w,b
  2309  001AB2  B4D8               	btfsc	status,2,c
  2310  001AB4  D008               	goto	l227
  2311  001AB6  D787               	goto	l225
  2312  001AB8                     
  2313                           ; BSR set to: 0
  2314                           ;doprnt.c: 1236: (putch('0') );
  2315                           
  2316                           ; BSR set to: 0
  2317  001AB8  0E30               	movlw	48
  2318  001ABA  EC3A  F018         	call	_putch
  2319                           
  2320                           ;doprnt.c: 1237: prec--;
  2321  001ABE  0100               	movlb	0	; () banked
  2322  001AC0  0778               	decf	printf@prec& (0+255),f,b
  2323  001AC2  A0D8               	btfss	status,0,c
  2324  001AC4  0779               	decf	(printf@prec+1)& (0+255),f,b
  2325  001AC6                     l227:
  2326                           
  2327                           ; BSR set to: 0
  2328                           
  2329                           ; BSR set to: 0
  2330  001AC6  5178               	movf	printf@prec& (0+255),w,b
  2331  001AC8  1179               	iorwf	(printf@prec+1)& (0+255),w,b
  2332  001ACA  B4D8               	btfsc	status,2,c
  2333  001ACC  D09E               	goto	u2990
  2334  001ACE  D7F4               	goto	l228
  2335  001AD0                     l173:
  2336                           
  2337                           ; BSR set to: 0
  2338                           ;doprnt.c: 1246: }
  2339                           ;doprnt.c: 1253: {
  2340                           ;doprnt.c: 1259: val = (long)(*(int *)__va_arg((*(int **)ap), (int)0));
  2341                           
  2342                           ; BSR set to: 0
  2343  001AD0  C070  FFD9         	movff	printf@ap,fsr2l
  2344  001AD4  C071  FFDA         	movff	printf@ap+1,fsr2h
  2345  001AD8  CFDE F07A          	movff	postinc2,printf@val
  2346  001ADC  CFDD F07B          	movff	postdec2,printf@val+1
  2347  001AE0  0E00               	movlw	0
  2348  001AE2  BF7B               	btfsc	(printf@val+1)& (0+255),7,b
  2349  001AE4  0EFF               	movlw	-1
  2350  001AE6  6F7C               	movwf	(printf@val+2)& (0+255),b
  2351  001AE8  6F7D               	movwf	(printf@val+3)& (0+255),b
  2352                           
  2353                           ; BSR set to: 0
  2354  001AEA  0E02               	movlw	2
  2355  001AEC  2770               	addwf	printf@ap& (0+255),f,b
  2356  001AEE  0E00               	movlw	0
  2357  001AF0  2371               	addwfc	(printf@ap+1)& (0+255),f,b
  2358                           
  2359                           ; BSR set to: 0
  2360                           ;doprnt.c: 1261: if((long)val < 0) {
  2361  001AF2  AF7D               	btfss	(printf@val+3)& (0+255),7,b
  2362  001AF4  D00A               	goto	l230
  2363                           
  2364                           ; BSR set to: 0
  2365                           ;doprnt.c: 1262: flag |= 0x03;
  2366  001AF6  0E03               	movlw	3
  2367  001AF8  1372               	iorwf	printf@flag& (0+255),f,b
  2368                           
  2369                           ; BSR set to: 0
  2370                           ;doprnt.c: 1263: val = -val;
  2371  001AFA  1F7D               	comf	(printf@val+3)& (0+255),f,b
  2372  001AFC  1F7C               	comf	(printf@val+2)& (0+255),f,b
  2373  001AFE  1F7B               	comf	(printf@val+1)& (0+255),f,b
  2374  001B00  6D7A               	negf	printf@val& (0+255),b
  2375  001B02  0E00               	movlw	0
  2376  001B04  237B               	addwfc	(printf@val+1)& (0+255),f,b
  2377  001B06  237C               	addwfc	(printf@val+2)& (0+255),f,b
  2378  001B08  237D               	addwfc	(printf@val+3)& (0+255),f,b
  2379  001B0A                     l230:
  2380                           
  2381                           ; BSR set to: 0
  2382                           ;doprnt.c: 1264: }
  2383                           ;doprnt.c: 1266: }
  2384                           ;doprnt.c: 1305: for(c = 1 ; c != sizeof dpowers/sizeof dpowers[0] ; c++)
  2385                           
  2386                           ; BSR set to: 0
  2387  001B0A  0E01               	movlw	1
  2388  001B0C  6F83               	movwf	printf@c& (0+255),b
  2389  001B0E                     l2861:
  2390                           
  2391                           ; BSR set to: 0
  2392  001B0E  0E0A               	movlw	10
  2393  001B10  1983               	xorwf	printf@c& (0+255),w,b
  2394  001B12  B4D8               	btfsc	status,2,c
  2395  001B14  D01B               	goto	u2970
  2396                           
  2397                           ; BSR set to: 0
  2398                           ;doprnt.c: 1306: if(val < dpowers[c])
  2399                           
  2400                           ; BSR set to: 0
  2401                           
  2402                           ; BSR set to: 0
  2403  001B16  5183               	movf	printf@c& (0+255),w,b
  2404  001B18  0D04               	mullw	4
  2405  001B1A  0E01               	movlw	low _dpowers
  2406  001B1C  24F3               	addwf	prodl,w,c
  2407  001B1E  6EF6               	movwf	tblptrl,c
  2408  001B20  0E10               	movlw	high _dpowers
  2409  001B22  20F4               	addwfc	prodh,w,c
  2410  001B24  6EF7               	movwf	tblptrh,c
  2411  001B26                     	if	1	;There are 3 active tblptr bytes
  2412  001B26  6AF8               	clrf	tblptru,c
  2413  001B28  0E00               	movlw	low (__mediumconst shr (0+16))
  2414  001B2A  22F8               	addwfc	tblptru,f,c
  2415  001B2C                     	endif
  2416  001B2C  0009               	tblrd		*+
  2417  001B2E  50F5               	movf	tablat,w,c
  2418  001B30  5D7A               	subwf	printf@val& (0+255),w,b
  2419  001B32  0009               	tblrd		*+
  2420  001B34  50F5               	movf	tablat,w,c
  2421  001B36  597B               	subwfb	(printf@val+1)& (0+255),w,b
  2422  001B38  0009               	tblrd		*+
  2423  001B3A  50F5               	movf	tablat,w,c
  2424  001B3C  597C               	subwfb	(printf@val+2)& (0+255),w,b
  2425  001B3E  0009               	tblrd		*+
  2426  001B40  50F5               	movf	tablat,w,c
  2427  001B42  597D               	subwfb	(printf@val+3)& (0+255),w,b
  2428  001B44  A0D8               	btfss	status,0,c
  2429  001B46  D002               	goto	u2970
  2430                           
  2431                           ; BSR set to: 0
  2432                           
  2433                           ; BSR set to: 0
  2434                           
  2435                           ; BSR set to: 0
  2436                           ;doprnt.c: 1307: break;
  2437  001B48  2B83               	incf	printf@c& (0+255),f,b
  2438  001B4A  D7E1               	goto	l2861
  2439  001B4C                     u2970:
  2440                           
  2441                           ; BSR set to: 0
  2442                           ;doprnt.c: 1422: {
  2443                           ;doprnt.c: 1438: if(flag & 0x03)
  2444                           
  2445                           ; BSR set to: 0
  2446  001B4C  0E03               	movlw	3
  2447  001B4E  1572               	andwf	printf@flag& (0+255),w,b
  2448  001B50  6F67               	movwf	??_printf& (0+255),b
  2449  001B52  0E00               	movlw	0
  2450  001B54  1573               	andwf	(printf@flag+1)& (0+255),w,b
  2451  001B56  6F68               	movwf	(??_printf+1)& (0+255),b
  2452  001B58  5167               	movf	??_printf& (0+255),w,b
  2453  001B5A  1168               	iorwf	(??_printf+1)& (0+255),w,b
  2454  001B5C  B4D8               	btfsc	status,2,c
  2455  001B5E  D003               	goto	l234
  2456                           
  2457                           ; BSR set to: 0
  2458                           ;doprnt.c: 1439: (putch('-') );
  2459  001B60  0E2D               	movlw	45
  2460  001B62  EC3A  F018         	call	_putch
  2461  001B66                     l234:
  2462                           
  2463                           ;doprnt.c: 1469: }
  2464                           ;doprnt.c: 1472: prec = c;
  2465  001B66  0100               	movlb	0	; () banked
  2466  001B68  5183               	movf	printf@c& (0+255),w,b
  2467  001B6A  6F78               	movwf	printf@prec& (0+255),b
  2468  001B6C  6B79               	clrf	(printf@prec+1)& (0+255),b
  2469  001B6E  BF78               	btfsc	printf@prec& (0+255),7,b
  2470  001B70  0779               	decf	(printf@prec+1)& (0+255),f,b
  2471                           
  2472                           ;doprnt.c: 1474: while(prec--) {
  2473  001B72  D042               	goto	l235
  2474  001B74                     l2879:
  2475                           
  2476                           ; BSR set to: 0
  2477                           ;doprnt.c: 1478: {
  2478                           ;doprnt.c: 1489: c = (val / dpowers[prec]) % 10 + '0';
  2479  001B74  C078  F067         	movff	printf@prec,??_printf
  2480  001B78  C079  F068         	movff	printf@prec+1,??_printf+1
  2481  001B7C  90D8               	bcf	status,0,c
  2482  001B7E  3767               	rlcf	??_printf& (0+255),f,b
  2483  001B80  3768               	rlcf	(??_printf+1)& (0+255),f,b
  2484  001B82  90D8               	bcf	status,0,c
  2485  001B84  3767               	rlcf	??_printf& (0+255),f,b
  2486  001B86  3768               	rlcf	(??_printf+1)& (0+255),f,b
  2487  001B88  0E01               	movlw	low _dpowers
  2488  001B8A  2567               	addwf	??_printf& (0+255),w,b
  2489  001B8C  6EF6               	movwf	tblptrl,c
  2490  001B8E  0E10               	movlw	high _dpowers
  2491  001B90  2168               	addwfc	(??_printf+1)& (0+255),w,b
  2492  001B92  6EF7               	movwf	tblptrh,c
  2493  001B94                     	if	1	;There are 3 active tblptr bytes
  2494  001B94  6AF8               	clrf	tblptru,c
  2495  001B96  0E00               	movlw	low (__mediumconst shr (0+16))
  2496  001B98  22F8               	addwfc	tblptru,f,c
  2497  001B9A                     	endif
  2498  001B9A  0009               	tblrd		*+
  2499  001B9C  CFF5 F005          	movff	tablat,___lldiv@divisor
  2500  001BA0  0009               	tblrd		*+
  2501  001BA2  CFF5 F006          	movff	tablat,___lldiv@divisor+1
  2502  001BA6  0009               	tblrd		*+
  2503  001BA8  CFF5 F007          	movff	tablat,___lldiv@divisor+2
  2504  001BAC  000A               	tblrd		*-
  2505  001BAE  CFF5 F008          	movff	tablat,___lldiv@divisor+3
  2506  001BB2  C07A  F001         	movff	printf@val,___lldiv@dividend
  2507  001BB6  C07B  F002         	movff	printf@val+1,___lldiv@dividend+1
  2508  001BBA  C07C  F003         	movff	printf@val+2,___lldiv@dividend+2
  2509  001BBE  C07D  F004         	movff	printf@val+3,___lldiv@dividend+3
  2510  001BC2  ECC4  F015         	call	___lldiv	;wreg free
  2511  001BC6  C001  F00E         	movff	?___lldiv,___llmod@dividend
  2512  001BCA  C002  F00F         	movff	?___lldiv+1,___llmod@dividend+1
  2513  001BCE  C003  F010         	movff	?___lldiv+2,___llmod@dividend+2
  2514  001BD2  C004  F011         	movff	?___lldiv+3,___llmod@dividend+3
  2515  001BD6  0E0A               	movlw	10
  2516  001BD8  6E12               	movwf	___llmod@divisor,c
  2517  001BDA  0E00               	movlw	0
  2518  001BDC  6E13               	movwf	___llmod@divisor+1,c
  2519  001BDE  0E00               	movlw	0
  2520  001BE0  6E14               	movwf	___llmod@divisor+2,c
  2521  001BE2  0E00               	movlw	0
  2522  001BE4  6E15               	movwf	___llmod@divisor+3,c
  2523  001BE6  EC78  F016         	call	___llmod	;wreg free
  2524  001BEA  500E               	movf	?___llmod,w,c
  2525  001BEC  0F30               	addlw	48
  2526  001BEE  0100               	movlb	0	; () banked
  2527  001BF0  6F83               	movwf	printf@c& (0+255),b
  2528                           
  2529                           ; BSR set to: 0
  2530                           ;doprnt.c: 1523: }
  2531                           ;doprnt.c: 1524: (putch(c) );
  2532  001BF2  5183               	movf	printf@c& (0+255),w,b
  2533  001BF4  EC3A  F018         	call	_putch
  2534  001BF8                     l235:
  2535  001BF8  0100               	movlb	0	; () banked
  2536  001BFA  0778               	decf	printf@prec& (0+255),f,b
  2537  001BFC  A0D8               	btfss	status,0,c
  2538  001BFE  0779               	decf	(printf@prec+1)& (0+255),f,b
  2539  001C00  2978               	incf	printf@prec& (0+255),w,b
  2540  001C02  E1B8               	bnz	l2879
  2541  001C04  2979               	incf	(printf@prec+1)& (0+255),w,b
  2542  001C06  A4D8               	btfss	status,2,c
  2543  001C08  D7B5               	goto	l236
  2544  001C0A                     u2990:
  2545                           
  2546                           ; BSR set to: 0
  2547                           
  2548                           ; BSR set to: 0
  2549  001C0A  C060  FFF6         	movff	printf@f,tblptrl
  2550  001C0E  C061  FFF7         	movff	printf@f+1,tblptrh
  2551  001C12  0100               	movlb	0	; () banked
  2552  001C14  4B60               	infsnz	printf@f& (0+255),f,b
  2553  001C16  2B61               	incf	(printf@f+1)& (0+255),f,b
  2554  001C18                     	if	0	;tblptru may be non-zero
  2555  001C18                     	endif
  2556  001C18                     	if	1	;Program memory is > 0xFFFF, there are 3 active tblptr bytes
  2557  001C18  0E00               	movlw	low (__mediumconst shr (0+16))
  2558  001C1A  6EF8               	movwf	tblptru,c
  2559  001C1C                     	endif
  2560  001C1C  0008               	tblrd		*
  2561  001C1E  CFF5 F083          	movff	tablat,printf@c
  2562  001C22  5183               	movf	printf@c& (0+255),w,b
  2563  001C24  B4D8               	btfsc	status,2,c
  2564  001C26  0012               	return	
  2565  001C28  EF6A  F008         	goto	l163
  2566  001C2C                     __end_of_printf:
  2567                           	opt stack 0
  2568                           tblptru	equ	0xFF8
  2569                           tblptrh	equ	0xFF7
  2570                           tblptrl	equ	0xFF6
  2571                           tablat	equ	0xFF5
  2572                           prodh	equ	0xFF4
  2573                           prodl	equ	0xFF3
  2574                           wreg	equ	0xFE8
  2575                           postinc2	equ	0xFDE
  2576                           postdec2	equ	0xFDD
  2577                           fsr2h	equ	0xFDA
  2578                           fsr2l	equ	0xFD9
  2579                           status	equ	0xFD8
  2580                           
  2581 ;; *************** function _scale *****************
  2582 ;; Defined at:
  2583 ;;		line 425 in file "D:\Apps\MPLab\New folder (2)\sources\common\doprnt.c"
  2584 ;; Parameters:    Size  Location     Type
  2585 ;;  scl             1    wreg     char 
  2586 ;; Auto vars:     Size  Location     Type
  2587 ;;  scl             1   41[COMRAM] char 
  2588 ;; Return value:  Size  Location     Type
  2589 ;;                  3   35[COMRAM] char 
  2590 ;; Registers used:
  2591 ;;		wreg, status,2, status,0, tblptrl, tblptrh, tblptru, prodl, prodh, cstack
  2592 ;; Tracked objects:
  2593 ;;		On entry : 0/0
  2594 ;;		On exit  : 0/0
  2595 ;;		Unchanged: 0/0
  2596 ;; Data sizes:     COMRAM   BANK0   BANK1   BANK2   BANK3   BANK4   BANK5   BANK6   BANK7   BANK8   BANK9  BANK10  BANK1
      +1  BANK12  BANK13  BANK14  BANK15
  2597 ;;      Params:         3       0       0       0       0       0       0       0       0       0       0       0       
      +0       0       0       0       0
  2598 ;;      Locals:         4       0       0       0       0       0       0       0       0       0       0       0       
      +0       0       0       0       0
  2599 ;;      Temps:          0       0       0       0       0       0       0       0       0       0       0       0       
      +0       0       0       0       0
  2600 ;;      Totals:         7       0       0       0       0       0       0       0       0       0       0       0       
      +0       0       0       0       0
  2601 ;;Total ram usage:        7 bytes
  2602 ;; Hardware stack levels used:    1
  2603 ;; Hardware stack levels required when called:    2
  2604 ;; This function calls:
  2605 ;;		___awdiv
  2606 ;;		___awmod
  2607 ;;		___ftmul
  2608 ;;		___wmul
  2609 ;; This function is called by:
  2610 ;;		_printf
  2611 ;; This function uses a non-reentrant model
  2612 ;;
  2613                           
  2614                           	psect	text2
  2615  001C2C                     __ptext2:
  2616                           	opt stack 0
  2617  001C2C                     _scale:
  2618                           	opt stack 27
  2619                           
  2620                           ; BSR set to: 0
  2621                           ;incstack = 0
  2622                           ;scale@scl stored from wreg
  2623  001C2C  6E2A               	movwf	scale@scl,c
  2624                           
  2625                           ;doprnt.c: 428: if(scl < 0) {
  2626  001C2E  AE2A               	btfss	scale@scl,7,c
  2627  001C30  D113               	goto	l152
  2628                           
  2629                           ;doprnt.c: 429: scl = -scl;
  2630  001C32  6C2A               	negf	scale@scl,c
  2631                           
  2632                           ;doprnt.c: 430: if(scl>=110)
  2633  001C34  502A               	movf	scale@scl,w,c
  2634  001C36  0A80               	xorlw	128
  2635  001C38  0F12               	addlw	-238
  2636  001C3A  A0D8               	btfss	status,0,c
  2637  001C3C  D09A               	goto	l153
  2638                           
  2639                           ;doprnt.c: 431: return _npowers_[scl/100+18] * _npowers_[(scl%100)/10+9] * _npowers_[scl
      +                          %10];
  2640  001C3E  0E00               	movlw	0
  2641  001C40  6E12               	movwf	___wmul@multiplicand+1,c
  2642  001C42  0E03               	movlw	3
  2643  001C44  6E11               	movwf	___wmul@multiplicand,c
  2644  001C46  0E00               	movlw	0
  2645  001C48  6E0A               	movwf	___awdiv@divisor+1,c
  2646  001C4A  0E0A               	movlw	10
  2647  001C4C  6E09               	movwf	___awdiv@divisor,c
  2648  001C4E  0E00               	movlw	0
  2649  001C50  6E04               	movwf	___awmod@divisor+1,c
  2650  001C52  0E64               	movlw	100
  2651  001C54  6E03               	movwf	___awmod@divisor,c
  2652  001C56  502A               	movf	scale@scl,w,c
  2653  001C58  6E01               	movwf	___awmod@dividend,c
  2654  001C5A  6A02               	clrf	___awmod@dividend+1,c
  2655  001C5C  BE01               	btfsc	___awmod@dividend,7,c
  2656  001C5E  0602               	decf	___awmod@dividend+1,f,c
  2657  001C60  EC40  F016         	call	___awmod	;wreg free
  2658  001C64  C001  F007         	movff	?___awmod,___awdiv@dividend
  2659  001C68  C002  F008         	movff	?___awmod+1,___awdiv@dividend+1
  2660  001C6C  EC82  F015         	call	___awdiv	;wreg free
  2661  001C70  0E09               	movlw	9
  2662  001C72  2407               	addwf	?___awdiv,w,c
  2663  001C74  6E0F               	movwf	___wmul@multiplier,c
  2664  001C76  0E00               	movlw	0
  2665  001C78  2008               	addwfc	?___awdiv+1,w,c
  2666  001C7A  6E10               	movwf	___wmul@multiplier+1,c
  2667  001C7C  EC80  F017         	call	___wmul	;wreg free
  2668  001C80  0E50               	movlw	low __npowers_
  2669  001C82  240F               	addwf	?___wmul,w,c
  2670  001C84  6EF6               	movwf	tblptrl,c
  2671  001C86  0E10               	movlw	high __npowers_
  2672  001C88  2010               	addwfc	?___wmul+1,w,c
  2673  001C8A  6EF7               	movwf	tblptrh,c
  2674  001C8C                     	if	1	;There are 3 active tblptr bytes
  2675  001C8C  6AF8               	clrf	tblptru,c
  2676  001C8E  0E00               	movlw	low (__mediumconst shr (0+16))
  2677  001C90  22F8               	addwfc	tblptru,f,c
  2678  001C92                     	endif
  2679  001C92  0009               	tblrd		*+
  2680  001C94  CFF5 F018          	movff	tablat,___ftmul@f2
  2681  001C98  0009               	tblrd		*+
  2682  001C9A  CFF5 F019          	movff	tablat,___ftmul@f2+1
  2683  001C9E  000A               	tblrd		*-
  2684  001CA0  CFF5 F01A          	movff	tablat,___ftmul@f2+2
  2685  001CA4  0E00               	movlw	0
  2686  001CA6  6E0A               	movwf	___awdiv@divisor+1,c
  2687  001CA8  0E64               	movlw	100
  2688  001CAA  6E09               	movwf	___awdiv@divisor,c
  2689  001CAC  502A               	movf	scale@scl,w,c
  2690  001CAE  6E07               	movwf	___awdiv@dividend,c
  2691  001CB0  6A08               	clrf	___awdiv@dividend+1,c
  2692  001CB2  BE07               	btfsc	___awdiv@dividend,7,c
  2693  001CB4  0608               	decf	___awdiv@dividend+1,f,c
  2694  001CB6  EC82  F015         	call	___awdiv	;wreg free
  2695  001CBA  0E12               	movlw	18
  2696  001CBC  2407               	addwf	?___awdiv,w,c
  2697  001CBE  6E0F               	movwf	___wmul@multiplier,c
  2698  001CC0  0E00               	movlw	0
  2699  001CC2  2008               	addwfc	?___awdiv+1,w,c
  2700  001CC4  6E10               	movwf	___wmul@multiplier+1,c
  2701  001CC6  0E00               	movlw	0
  2702  001CC8  6E12               	movwf	___wmul@multiplicand+1,c
  2703  001CCA  0E03               	movlw	3
  2704  001CCC  6E11               	movwf	___wmul@multiplicand,c
  2705  001CCE  EC80  F017         	call	___wmul	;wreg free
  2706  001CD2  0E50               	movlw	low __npowers_
  2707  001CD4  240F               	addwf	?___wmul,w,c
  2708  001CD6  6EF6               	movwf	tblptrl,c
  2709  001CD8  0E10               	movlw	high __npowers_
  2710  001CDA  2010               	addwfc	?___wmul+1,w,c
  2711  001CDC  6EF7               	movwf	tblptrh,c
  2712  001CDE                     	if	1	;There are 3 active tblptr bytes
  2713  001CDE  6AF8               	clrf	tblptru,c
  2714  001CE0  0E00               	movlw	low (__mediumconst shr (0+16))
  2715  001CE2  22F8               	addwfc	tblptru,f,c
  2716  001CE4                     	endif
  2717  001CE4  0009               	tblrd		*+
  2718  001CE6  CFF5 F015          	movff	tablat,___ftmul@f1
  2719  001CEA  0009               	tblrd		*+
  2720  001CEC  CFF5 F016          	movff	tablat,___ftmul@f1+1
  2721  001CF0  000A               	tblrd		*-
  2722  001CF2  CFF5 F017          	movff	tablat,___ftmul@f1+2
  2723  001CF6  EC7C  F013         	call	___ftmul	;wreg free
  2724  001CFA  C015  F027         	movff	?___ftmul,_scale$757
  2725  001CFE  C016  F028         	movff	?___ftmul+1,_scale$757+1
  2726  001D02  C017  F029         	movff	?___ftmul+2,_scale$757+2
  2727                           
  2728                           ;doprnt.c: 431: return _npowers_[scl/100+18] * _npowers_[(scl%100)/10+9] * _npowers_[scl
      +                          %10];
  2729  001D06  C027  F015         	movff	_scale$757,___ftmul@f1
  2730  001D0A  C028  F016         	movff	_scale$757+1,___ftmul@f1+1
  2731  001D0E  C029  F017         	movff	_scale$757+2,___ftmul@f1+2
  2732  001D12  0E00               	movlw	0
  2733  001D14  6E12               	movwf	___wmul@multiplicand+1,c
  2734  001D16  0E03               	movlw	3
  2735  001D18  6E11               	movwf	___wmul@multiplicand,c
  2736  001D1A  0E00               	movlw	0
  2737  001D1C  6E04               	movwf	___awmod@divisor+1,c
  2738  001D1E  0E0A               	movlw	10
  2739  001D20  6E03               	movwf	___awmod@divisor,c
  2740  001D22  502A               	movf	scale@scl,w,c
  2741  001D24  6E01               	movwf	___awmod@dividend,c
  2742  001D26  6A02               	clrf	___awmod@dividend+1,c
  2743  001D28  BE01               	btfsc	___awmod@dividend,7,c
  2744  001D2A  0602               	decf	___awmod@dividend+1,f,c
  2745  001D2C  EC40  F016         	call	___awmod	;wreg free
  2746  001D30  C001  F00F         	movff	?___awmod,___wmul@multiplier
  2747  001D34  C002  F010         	movff	?___awmod+1,___wmul@multiplier+1
  2748  001D38  EC80  F017         	call	___wmul	;wreg free
  2749  001D3C  0E50               	movlw	low __npowers_
  2750  001D3E  240F               	addwf	?___wmul,w,c
  2751  001D40  6EF6               	movwf	tblptrl,c
  2752  001D42  0E10               	movlw	high __npowers_
  2753  001D44  2010               	addwfc	?___wmul+1,w,c
  2754  001D46  6EF7               	movwf	tblptrh,c
  2755  001D48                     	if	1	;There are 3 active tblptr bytes
  2756  001D48  6AF8               	clrf	tblptru,c
  2757  001D4A  0E00               	movlw	low (__mediumconst shr (0+16))
  2758  001D4C  22F8               	addwfc	tblptru,f,c
  2759  001D4E                     	endif
  2760  001D4E  0009               	tblrd		*+
  2761  001D50  CFF5 F018          	movff	tablat,___ftmul@f2
  2762  001D54  0009               	tblrd		*+
  2763  001D56  CFF5 F019          	movff	tablat,___ftmul@f2+1
  2764  001D5A  000A               	tblrd		*-
  2765  001D5C  CFF5 F01A          	movff	tablat,___ftmul@f2+2
  2766  001D60  EC7C  F013         	call	___ftmul	;wreg free
  2767  001D64  C015  F024         	movff	?___ftmul,?_scale
  2768  001D68  C016  F025         	movff	?___ftmul+1,?_scale+1
  2769  001D6C  C017  F026         	movff	?___ftmul+2,?_scale+2
  2770  001D70  0012               	return	
  2771  001D72                     l153:
  2772                           
  2773                           ;doprnt.c: 432: else if(scl > 10)
  2774  001D72  502A               	movf	scale@scl,w,c
  2775  001D74  0A80               	xorlw	128
  2776  001D76  0F75               	addlw	-139
  2777  001D78  A0D8               	btfss	status,0,c
  2778  001D7A  D059               	goto	l156
  2779                           
  2780                           ;doprnt.c: 433: return _npowers_[scl/10+9] * _npowers_[scl%10];
  2781  001D7C  0E00               	movlw	0
  2782  001D7E  6E0A               	movwf	___awdiv@divisor+1,c
  2783  001D80  0E0A               	movlw	10
  2784  001D82  6E09               	movwf	___awdiv@divisor,c
  2785  001D84  502A               	movf	scale@scl,w,c
  2786  001D86  6E07               	movwf	___awdiv@dividend,c
  2787  001D88  6A08               	clrf	___awdiv@dividend+1,c
  2788  001D8A  BE07               	btfsc	___awdiv@dividend,7,c
  2789  001D8C  0608               	decf	___awdiv@dividend+1,f,c
  2790  001D8E  EC82  F015         	call	___awdiv	;wreg free
  2791  001D92  0E09               	movlw	9
  2792  001D94  2407               	addwf	?___awdiv,w,c
  2793  001D96  6E0F               	movwf	___wmul@multiplier,c
  2794  001D98  0E00               	movlw	0
  2795  001D9A  2008               	addwfc	?___awdiv+1,w,c
  2796  001D9C  6E10               	movwf	___wmul@multiplier+1,c
  2797  001D9E  0E00               	movlw	0
  2798  001DA0  6E12               	movwf	___wmul@multiplicand+1,c
  2799  001DA2  0E03               	movlw	3
  2800  001DA4  6E11               	movwf	___wmul@multiplicand,c
  2801  001DA6  EC80  F017         	call	___wmul	;wreg free
  2802  001DAA  0E50               	movlw	low __npowers_
  2803  001DAC  240F               	addwf	?___wmul,w,c
  2804  001DAE  6EF6               	movwf	tblptrl,c
  2805  001DB0  0E10               	movlw	high __npowers_
  2806  001DB2  2010               	addwfc	?___wmul+1,w,c
  2807  001DB4  6EF7               	movwf	tblptrh,c
  2808  001DB6                     	if	1	;There are 3 active tblptr bytes
  2809  001DB6  6AF8               	clrf	tblptru,c
  2810  001DB8  0E00               	movlw	low (__mediumconst shr (0+16))
  2811  001DBA  22F8               	addwfc	tblptru,f,c
  2812  001DBC                     	endif
  2813  001DBC  0009               	tblrd		*+
  2814  001DBE  CFF5 F015          	movff	tablat,___ftmul@f1
  2815  001DC2  0009               	tblrd		*+
  2816  001DC4  CFF5 F016          	movff	tablat,___ftmul@f1+1
  2817  001DC8  000A               	tblrd		*-
  2818  001DCA  CFF5 F017          	movff	tablat,___ftmul@f1+2
  2819  001DCE  0E00               	movlw	0
  2820  001DD0  6E12               	movwf	___wmul@multiplicand+1,c
  2821  001DD2  0E03               	movlw	3
  2822  001DD4  6E11               	movwf	___wmul@multiplicand,c
  2823  001DD6  0E00               	movlw	0
  2824  001DD8  6E04               	movwf	___awmod@divisor+1,c
  2825  001DDA  0E0A               	movlw	10
  2826  001DDC  6E03               	movwf	___awmod@divisor,c
  2827  001DDE  502A               	movf	scale@scl,w,c
  2828  001DE0  6E01               	movwf	___awmod@dividend,c
  2829  001DE2  6A02               	clrf	___awmod@dividend+1,c
  2830  001DE4  BE01               	btfsc	___awmod@dividend,7,c
  2831  001DE6  0602               	decf	___awmod@dividend+1,f,c
  2832  001DE8  EC40  F016         	call	___awmod	;wreg free
  2833  001DEC  C001  F00F         	movff	?___awmod,___wmul@multiplier
  2834  001DF0  C002  F010         	movff	?___awmod+1,___wmul@multiplier+1
  2835  001DF4  EC80  F017         	call	___wmul	;wreg free
  2836  001DF8  0E50               	movlw	low __npowers_
  2837  001DFA  240F               	addwf	?___wmul,w,c
  2838  001DFC  6EF6               	movwf	tblptrl,c
  2839  001DFE  0E10               	movlw	high __npowers_
  2840  001E00  2010               	addwfc	?___wmul+1,w,c
  2841  001E02  6EF7               	movwf	tblptrh,c
  2842  001E04                     	if	1	;There are 3 active tblptr bytes
  2843  001E04  6AF8               	clrf	tblptru,c
  2844  001E06  0E00               	movlw	low (__mediumconst shr (0+16))
  2845  001E08  22F8               	addwfc	tblptru,f,c
  2846  001E0A                     	endif
  2847  001E0A  0009               	tblrd		*+
  2848  001E0C  CFF5 F018          	movff	tablat,___ftmul@f2
  2849  001E10  0009               	tblrd		*+
  2850  001E12  CFF5 F019          	movff	tablat,___ftmul@f2+1
  2851  001E16  000A               	tblrd		*-
  2852  001E18  CFF5 F01A          	movff	tablat,___ftmul@f2+2
  2853  001E1C  EC7C  F013         	call	___ftmul	;wreg free
  2854  001E20  C015  F024         	movff	?___ftmul,?_scale
  2855  001E24  C016  F025         	movff	?___ftmul+1,?_scale+1
  2856  001E28  C017  F026         	movff	?___ftmul+2,?_scale+2
  2857  001E2C  0012               	return	
  2858  001E2E                     l156:
  2859                           
  2860                           ;doprnt.c: 434: return _npowers_[scl];
  2861  001E2E  502A               	movf	scale@scl,w,c
  2862  001E30  0D03               	mullw	3
  2863  001E32  0E50               	movlw	low __npowers_
  2864  001E34  24F3               	addwf	prodl,w,c
  2865  001E36  6EF6               	movwf	tblptrl,c
  2866  001E38  0E10               	movlw	high __npowers_
  2867  001E3A  20F4               	addwfc	prodh,w,c
  2868  001E3C  6EF7               	movwf	tblptrh,c
  2869  001E3E                     	if	1	;There are 3 active tblptr bytes
  2870  001E3E  6AF8               	clrf	tblptru,c
  2871  001E40  0E00               	movlw	low (__mediumconst shr (0+16))
  2872  001E42  22F8               	addwfc	tblptru,f,c
  2873  001E44                     	endif
  2874  001E44  0009               	tblrd		*+
  2875  001E46  CFF5 F024          	movff	tablat,?_scale
  2876  001E4A  0009               	tblrd		*+
  2877  001E4C  CFF5 F025          	movff	tablat,?_scale+1
  2878  001E50  000A               	tblrd		*-
  2879  001E52  CFF5 F026          	movff	tablat,?_scale+2
  2880  001E56  0012               	return	
  2881  001E58                     l152:
  2882                           
  2883                           ;doprnt.c: 435: }
  2884                           ;doprnt.c: 436: if(scl>=110)
  2885  001E58  502A               	movf	scale@scl,w,c
  2886  001E5A  0A80               	xorlw	128
  2887  001E5C  0F12               	addlw	-238
  2888  001E5E  A0D8               	btfss	status,0,c
  2889  001E60  D09A               	goto	l157
  2890                           
  2891                           ;doprnt.c: 437: return _powers_[scl/100+18] * _powers_[(scl%100)/10+9] * _powers_[scl%10
      +                          ];
  2892  001E62  0E00               	movlw	0
  2893  001E64  6E12               	movwf	___wmul@multiplicand+1,c
  2894  001E66  0E03               	movlw	3
  2895  001E68  6E11               	movwf	___wmul@multiplicand,c
  2896  001E6A  0E00               	movlw	0
  2897  001E6C  6E0A               	movwf	___awdiv@divisor+1,c
  2898  001E6E  0E0A               	movlw	10
  2899  001E70  6E09               	movwf	___awdiv@divisor,c
  2900  001E72  0E00               	movlw	0
  2901  001E74  6E04               	movwf	___awmod@divisor+1,c
  2902  001E76  0E64               	movlw	100
  2903  001E78  6E03               	movwf	___awmod@divisor,c
  2904  001E7A  502A               	movf	scale@scl,w,c
  2905  001E7C  6E01               	movwf	___awmod@dividend,c
  2906  001E7E  6A02               	clrf	___awmod@dividend+1,c
  2907  001E80  BE01               	btfsc	___awmod@dividend,7,c
  2908  001E82  0602               	decf	___awmod@dividend+1,f,c
  2909  001E84  EC40  F016         	call	___awmod	;wreg free
  2910  001E88  C001  F007         	movff	?___awmod,___awdiv@dividend
  2911  001E8C  C002  F008         	movff	?___awmod+1,___awdiv@dividend+1
  2912  001E90  EC82  F015         	call	___awdiv	;wreg free
  2913  001E94  0E09               	movlw	9
  2914  001E96  2407               	addwf	?___awdiv,w,c
  2915  001E98  6E0F               	movwf	___wmul@multiplier,c
  2916  001E9A  0E00               	movlw	0
  2917  001E9C  2008               	addwfc	?___awdiv+1,w,c
  2918  001E9E  6E10               	movwf	___wmul@multiplier+1,c
  2919  001EA0  EC80  F017         	call	___wmul	;wreg free
  2920  001EA4  0E29               	movlw	low __powers_
  2921  001EA6  240F               	addwf	?___wmul,w,c
  2922  001EA8  6EF6               	movwf	tblptrl,c
  2923  001EAA  0E10               	movlw	high __powers_
  2924  001EAC  2010               	addwfc	?___wmul+1,w,c
  2925  001EAE  6EF7               	movwf	tblptrh,c
  2926  001EB0                     	if	1	;There are 3 active tblptr bytes
  2927  001EB0  6AF8               	clrf	tblptru,c
  2928  001EB2  0E00               	movlw	low (__mediumconst shr (0+16))
  2929  001EB4  22F8               	addwfc	tblptru,f,c
  2930  001EB6                     	endif
  2931  001EB6  0009               	tblrd		*+
  2932  001EB8  CFF5 F018          	movff	tablat,___ftmul@f2
  2933  001EBC  0009               	tblrd		*+
  2934  001EBE  CFF5 F019          	movff	tablat,___ftmul@f2+1
  2935  001EC2  000A               	tblrd		*-
  2936  001EC4  CFF5 F01A          	movff	tablat,___ftmul@f2+2
  2937  001EC8  0E00               	movlw	0
  2938  001ECA  6E0A               	movwf	___awdiv@divisor+1,c
  2939  001ECC  0E64               	movlw	100
  2940  001ECE  6E09               	movwf	___awdiv@divisor,c
  2941  001ED0  502A               	movf	scale@scl,w,c
  2942  001ED2  6E07               	movwf	___awdiv@dividend,c
  2943  001ED4  6A08               	clrf	___awdiv@dividend+1,c
  2944  001ED6  BE07               	btfsc	___awdiv@dividend,7,c
  2945  001ED8  0608               	decf	___awdiv@dividend+1,f,c
  2946  001EDA  EC82  F015         	call	___awdiv	;wreg free
  2947  001EDE  0E12               	movlw	18
  2948  001EE0  2407               	addwf	?___awdiv,w,c
  2949  001EE2  6E0F               	movwf	___wmul@multiplier,c
  2950  001EE4  0E00               	movlw	0
  2951  001EE6  2008               	addwfc	?___awdiv+1,w,c
  2952  001EE8  6E10               	movwf	___wmul@multiplier+1,c
  2953  001EEA  0E00               	movlw	0
  2954  001EEC  6E12               	movwf	___wmul@multiplicand+1,c
  2955  001EEE  0E03               	movlw	3
  2956  001EF0  6E11               	movwf	___wmul@multiplicand,c
  2957  001EF2  EC80  F017         	call	___wmul	;wreg free
  2958  001EF6  0E29               	movlw	low __powers_
  2959  001EF8  240F               	addwf	?___wmul,w,c
  2960  001EFA  6EF6               	movwf	tblptrl,c
  2961  001EFC  0E10               	movlw	high __powers_
  2962  001EFE  2010               	addwfc	?___wmul+1,w,c
  2963  001F00  6EF7               	movwf	tblptrh,c
  2964  001F02                     	if	1	;There are 3 active tblptr bytes
  2965  001F02  6AF8               	clrf	tblptru,c
  2966  001F04  0E00               	movlw	low (__mediumconst shr (0+16))
  2967  001F06  22F8               	addwfc	tblptru,f,c
  2968  001F08                     	endif
  2969  001F08  0009               	tblrd		*+
  2970  001F0A  CFF5 F015          	movff	tablat,___ftmul@f1
  2971  001F0E  0009               	tblrd		*+
  2972  001F10  CFF5 F016          	movff	tablat,___ftmul@f1+1
  2973  001F14  000A               	tblrd		*-
  2974  001F16  CFF5 F017          	movff	tablat,___ftmul@f1+2
  2975  001F1A  EC7C  F013         	call	___ftmul	;wreg free
  2976  001F1E  C015  F027         	movff	?___ftmul,_scale$757
  2977  001F22  C016  F028         	movff	?___ftmul+1,_scale$757+1
  2978  001F26  C017  F029         	movff	?___ftmul+2,_scale$757+2
  2979                           
  2980                           ;doprnt.c: 437: return _powers_[scl/100+18] * _powers_[(scl%100)/10+9] * _powers_[scl%10
      +                          ];
  2981  001F2A  C027  F015         	movff	_scale$757,___ftmul@f1
  2982  001F2E  C028  F016         	movff	_scale$757+1,___ftmul@f1+1
  2983  001F32  C029  F017         	movff	_scale$757+2,___ftmul@f1+2
  2984  001F36  0E00               	movlw	0
  2985  001F38  6E12               	movwf	___wmul@multiplicand+1,c
  2986  001F3A  0E03               	movlw	3
  2987  001F3C  6E11               	movwf	___wmul@multiplicand,c
  2988  001F3E  0E00               	movlw	0
  2989  001F40  6E04               	movwf	___awmod@divisor+1,c
  2990  001F42  0E0A               	movlw	10
  2991  001F44  6E03               	movwf	___awmod@divisor,c
  2992  001F46  502A               	movf	scale@scl,w,c
  2993  001F48  6E01               	movwf	___awmod@dividend,c
  2994  001F4A  6A02               	clrf	___awmod@dividend+1,c
  2995  001F4C  BE01               	btfsc	___awmod@dividend,7,c
  2996  001F4E  0602               	decf	___awmod@dividend+1,f,c
  2997  001F50  EC40  F016         	call	___awmod	;wreg free
  2998  001F54  C001  F00F         	movff	?___awmod,___wmul@multiplier
  2999  001F58  C002  F010         	movff	?___awmod+1,___wmul@multiplier+1
  3000  001F5C  EC80  F017         	call	___wmul	;wreg free
  3001  001F60  0E29               	movlw	low __powers_
  3002  001F62  240F               	addwf	?___wmul,w,c
  3003  001F64  6EF6               	movwf	tblptrl,c
  3004  001F66  0E10               	movlw	high __powers_
  3005  001F68  2010               	addwfc	?___wmul+1,w,c
  3006  001F6A  6EF7               	movwf	tblptrh,c
  3007  001F6C                     	if	1	;There are 3 active tblptr bytes
  3008  001F6C  6AF8               	clrf	tblptru,c
  3009  001F6E  0E00               	movlw	low (__mediumconst shr (0+16))
  3010  001F70  22F8               	addwfc	tblptru,f,c
  3011  001F72                     	endif
  3012  001F72  0009               	tblrd		*+
  3013  001F74  CFF5 F018          	movff	tablat,___ftmul@f2
  3014  001F78  0009               	tblrd		*+
  3015  001F7A  CFF5 F019          	movff	tablat,___ftmul@f2+1
  3016  001F7E  000A               	tblrd		*-
  3017  001F80  CFF5 F01A          	movff	tablat,___ftmul@f2+2
  3018  001F84  EC7C  F013         	call	___ftmul	;wreg free
  3019  001F88  C015  F024         	movff	?___ftmul,?_scale
  3020  001F8C  C016  F025         	movff	?___ftmul+1,?_scale+1
  3021  001F90  C017  F026         	movff	?___ftmul+2,?_scale+2
  3022  001F94  0012               	return	
  3023  001F96                     l157:
  3024                           
  3025                           ;doprnt.c: 438: else if(scl > 10)
  3026  001F96  502A               	movf	scale@scl,w,c
  3027  001F98  0A80               	xorlw	128
  3028  001F9A  0F75               	addlw	-139
  3029  001F9C  A0D8               	btfss	status,0,c
  3030  001F9E  D059               	goto	l159
  3031                           
  3032                           ;doprnt.c: 439: return _powers_[scl/10+9] * _powers_[scl%10];
  3033  001FA0  0E00               	movlw	0
  3034  001FA2  6E0A               	movwf	___awdiv@divisor+1,c
  3035  001FA4  0E0A               	movlw	10
  3036  001FA6  6E09               	movwf	___awdiv@divisor,c
  3037  001FA8  502A               	movf	scale@scl,w,c
  3038  001FAA  6E07               	movwf	___awdiv@dividend,c
  3039  001FAC  6A08               	clrf	___awdiv@dividend+1,c
  3040  001FAE  BE07               	btfsc	___awdiv@dividend,7,c
  3041  001FB0  0608               	decf	___awdiv@dividend+1,f,c
  3042  001FB2  EC82  F015         	call	___awdiv	;wreg free
  3043  001FB6  0E09               	movlw	9
  3044  001FB8  2407               	addwf	?___awdiv,w,c
  3045  001FBA  6E0F               	movwf	___wmul@multiplier,c
  3046  001FBC  0E00               	movlw	0
  3047  001FBE  2008               	addwfc	?___awdiv+1,w,c
  3048  001FC0  6E10               	movwf	___wmul@multiplier+1,c
  3049  001FC2  0E00               	movlw	0
  3050  001FC4  6E12               	movwf	___wmul@multiplicand+1,c
  3051  001FC6  0E03               	movlw	3
  3052  001FC8  6E11               	movwf	___wmul@multiplicand,c
  3053  001FCA  EC80  F017         	call	___wmul	;wreg free
  3054  001FCE  0E29               	movlw	low __powers_
  3055  001FD0  240F               	addwf	?___wmul,w,c
  3056  001FD2  6EF6               	movwf	tblptrl,c
  3057  001FD4  0E10               	movlw	high __powers_
  3058  001FD6  2010               	addwfc	?___wmul+1,w,c
  3059  001FD8  6EF7               	movwf	tblptrh,c
  3060  001FDA                     	if	1	;There are 3 active tblptr bytes
  3061  001FDA  6AF8               	clrf	tblptru,c
  3062  001FDC  0E00               	movlw	low (__mediumconst shr (0+16))
  3063  001FDE  22F8               	addwfc	tblptru,f,c
  3064  001FE0                     	endif
  3065  001FE0  0009               	tblrd		*+
  3066  001FE2  CFF5 F015          	movff	tablat,___ftmul@f1
  3067  001FE6  0009               	tblrd		*+
  3068  001FE8  CFF5 F016          	movff	tablat,___ftmul@f1+1
  3069  001FEC  000A               	tblrd		*-
  3070  001FEE  CFF5 F017          	movff	tablat,___ftmul@f1+2
  3071  001FF2  0E00               	movlw	0
  3072  001FF4  6E12               	movwf	___wmul@multiplicand+1,c
  3073  001FF6  0E03               	movlw	3
  3074  001FF8  6E11               	movwf	___wmul@multiplicand,c
  3075  001FFA  0E00               	movlw	0
  3076  001FFC  6E04               	movwf	___awmod@divisor+1,c
  3077  001FFE  0E0A               	movlw	10
  3078  002000  6E03               	movwf	___awmod@divisor,c
  3079  002002  502A               	movf	scale@scl,w,c
  3080  002004  6E01               	movwf	___awmod@dividend,c
  3081  002006  6A02               	clrf	___awmod@dividend+1,c
  3082  002008  BE01               	btfsc	___awmod@dividend,7,c
  3083  00200A  0602               	decf	___awmod@dividend+1,f,c
  3084  00200C  EC40  F016         	call	___awmod	;wreg free
  3085  002010  C001  F00F         	movff	?___awmod,___wmul@multiplier
  3086  002014  C002  F010         	movff	?___awmod+1,___wmul@multiplier+1
  3087  002018  EC80  F017         	call	___wmul	;wreg free
  3088  00201C  0E29               	movlw	low __powers_
  3089  00201E  240F               	addwf	?___wmul,w,c
  3090  002020  6EF6               	movwf	tblptrl,c
  3091  002022  0E10               	movlw	high __powers_
  3092  002024  2010               	addwfc	?___wmul+1,w,c
  3093  002026  6EF7               	movwf	tblptrh,c
  3094  002028                     	if	1	;There are 3 active tblptr bytes
  3095  002028  6AF8               	clrf	tblptru,c
  3096  00202A  0E00               	movlw	low (__mediumconst shr (0+16))
  3097  00202C  22F8               	addwfc	tblptru,f,c
  3098  00202E                     	endif
  3099  00202E  0009               	tblrd		*+
  3100  002030  CFF5 F018          	movff	tablat,___ftmul@f2
  3101  002034  0009               	tblrd		*+
  3102  002036  CFF5 F019          	movff	tablat,___ftmul@f2+1
  3103  00203A  000A               	tblrd		*-
  3104  00203C  CFF5 F01A          	movff	tablat,___ftmul@f2+2
  3105  002040  EC7C  F013         	call	___ftmul	;wreg free
  3106  002044  C015  F024         	movff	?___ftmul,?_scale
  3107  002048  C016  F025         	movff	?___ftmul+1,?_scale+1
  3108  00204C  C017  F026         	movff	?___ftmul+2,?_scale+2
  3109  002050  0012               	return	
  3110  002052                     l159:
  3111                           
  3112                           ;doprnt.c: 440: return _powers_[scl];
  3113  002052  502A               	movf	scale@scl,w,c
  3114  002054  0D03               	mullw	3
  3115  002056  0E29               	movlw	low __powers_
  3116  002058  24F3               	addwf	prodl,w,c
  3117  00205A  6EF6               	movwf	tblptrl,c
  3118  00205C  0E10               	movlw	high __powers_
  3119  00205E  20F4               	addwfc	prodh,w,c
  3120  002060  6EF7               	movwf	tblptrh,c
  3121  002062                     	if	1	;There are 3 active tblptr bytes
  3122  002062  6AF8               	clrf	tblptru,c
  3123  002064  0E00               	movlw	low (__mediumconst shr (0+16))
  3124  002066  22F8               	addwfc	tblptru,f,c
  3125  002068                     	endif
  3126  002068  0009               	tblrd		*+
  3127  00206A  CFF5 F024          	movff	tablat,?_scale
  3128  00206E  0009               	tblrd		*+
  3129  002070  CFF5 F025          	movff	tablat,?_scale+1
  3130  002074  000A               	tblrd		*-
  3131  002076  CFF5 F026          	movff	tablat,?_scale+2
  3132  00207A  0012               	return	
  3133  00207C                     __end_of_scale:
  3134                           	opt stack 0
  3135                           tblptru	equ	0xFF8
  3136                           tblptrh	equ	0xFF7
  3137                           tblptrl	equ	0xFF6
  3138                           tablat	equ	0xFF5
  3139                           prodh	equ	0xFF4
  3140                           prodl	equ	0xFF3
  3141                           wreg	equ	0xFE8
  3142                           postinc2	equ	0xFDE
  3143                           postdec2	equ	0xFDD
  3144                           fsr2h	equ	0xFDA
  3145                           fsr2l	equ	0xFD9
  3146                           status	equ	0xFD8
  3147                           
  3148 ;; *************** function _fround *****************
  3149 ;; Defined at:
  3150 ;;		line 409 in file "D:\Apps\MPLab\New folder (2)\sources\common\doprnt.c"
  3151 ;; Parameters:    Size  Location     Type
  3152 ;;  prec            1    wreg     unsigned char 
  3153 ;; Auto vars:     Size  Location     Type
  3154 ;;  prec            1   44[COMRAM] unsigned char 
  3155 ;; Return value:  Size  Location     Type
  3156 ;;                  3   35[COMRAM] unsigned char 
  3157 ;; Registers used:
  3158 ;;		wreg, status,2, status,0, tblptrl, tblptrh, tblptru, prodl, prodh, cstack
  3159 ;; Tracked objects:
  3160 ;;		On entry : 0/0
  3161 ;;		On exit  : 0/0
  3162 ;;		Unchanged: 0/0
  3163 ;; Data sizes:     COMRAM   BANK0   BANK1   BANK2   BANK3   BANK4   BANK5   BANK6   BANK7   BANK8   BANK9  BANK10  BANK1
      +1  BANK12  BANK13  BANK14  BANK15
  3164 ;;      Params:         3       0       0       0       0       0       0       0       0       0       0       0       
      +0       0       0       0       0
  3165 ;;      Locals:         7       0       0       0       0       0       0       0       0       0       0       0       
      +0       0       0       0       0
  3166 ;;      Temps:          0       0       0       0       0       0       0       0       0       0       0       0       
      +0       0       0       0       0
  3167 ;;      Totals:        10       0       0       0       0       0       0       0       0       0       0       0       
      +0       0       0       0       0
  3168 ;;Total ram usage:       10 bytes
  3169 ;; Hardware stack levels used:    1
  3170 ;; Hardware stack levels required when called:    2
  3171 ;; This function calls:
  3172 ;;		___awdiv
  3173 ;;		___awmod
  3174 ;;		___ftmul
  3175 ;;		___wmul
  3176 ;; This function is called by:
  3177 ;;		_printf
  3178 ;; This function uses a non-reentrant model
  3179 ;;
  3180                           
  3181                           	psect	text3
  3182  00207C                     __ptext3:
  3183                           	opt stack 0
  3184  00207C                     _fround:
  3185                           	opt stack 27
  3186                           
  3187                           ;incstack = 0
  3188                           ;fround@prec stored from wreg
  3189  00207C  6E2D               	movwf	fround@prec,c
  3190                           
  3191                           ;doprnt.c: 413: if(prec>=110)
  3192  00207E  0E6D               	movlw	109
  3193  002080  642D               	cpfsgt	fround@prec,c
  3194  002082  D0A8               	goto	l146
  3195                           
  3196                           ;doprnt.c: 414: return 0.5 * _npowers_[prec/100+18] * _npowers_[(prec%100)/10+9] * _npow
      +                          ers_[prec%10];
  3197  002084  0E00               	movlw	0
  3198  002086  6E12               	movwf	___wmul@multiplicand+1,c
  3199  002088  0E03               	movlw	3
  3200  00208A  6E11               	movwf	___wmul@multiplicand,c
  3201  00208C  0E00               	movlw	0
  3202  00208E  6E0A               	movwf	___awdiv@divisor+1,c
  3203  002090  0E0A               	movlw	10
  3204  002092  6E09               	movwf	___awdiv@divisor,c
  3205  002094  0E00               	movlw	0
  3206  002096  6E04               	movwf	___awmod@divisor+1,c
  3207  002098  0E64               	movlw	100
  3208  00209A  6E03               	movwf	___awmod@divisor,c
  3209  00209C  C02D  F001         	movff	fround@prec,___awmod@dividend
  3210  0020A0  6A02               	clrf	___awmod@dividend+1,c
  3211  0020A2  EC40  F016         	call	___awmod	;wreg free
  3212  0020A6  C001  F007         	movff	?___awmod,___awdiv@dividend
  3213  0020AA  C002  F008         	movff	?___awmod+1,___awdiv@dividend+1
  3214  0020AE  EC82  F015         	call	___awdiv	;wreg free
  3215  0020B2  0E09               	movlw	9
  3216  0020B4  2407               	addwf	?___awdiv,w,c
  3217  0020B6  6E0F               	movwf	___wmul@multiplier,c
  3218  0020B8  0E00               	movlw	0
  3219  0020BA  2008               	addwfc	?___awdiv+1,w,c
  3220  0020BC  6E10               	movwf	___wmul@multiplier+1,c
  3221  0020BE  EC80  F017         	call	___wmul	;wreg free
  3222  0020C2  0E50               	movlw	low __npowers_
  3223  0020C4  240F               	addwf	?___wmul,w,c
  3224  0020C6  6EF6               	movwf	tblptrl,c
  3225  0020C8  0E10               	movlw	high __npowers_
  3226  0020CA  2010               	addwfc	?___wmul+1,w,c
  3227  0020CC  6EF7               	movwf	tblptrh,c
  3228  0020CE                     	if	1	;There are 3 active tblptr bytes
  3229  0020CE  6AF8               	clrf	tblptru,c
  3230  0020D0  0E00               	movlw	low (__mediumconst shr (0+16))
  3231  0020D2  22F8               	addwfc	tblptru,f,c
  3232  0020D4                     	endif
  3233  0020D4  0009               	tblrd		*+
  3234  0020D6  CFF5 F018          	movff	tablat,___ftmul@f2
  3235  0020DA  0009               	tblrd		*+
  3236  0020DC  CFF5 F019          	movff	tablat,___ftmul@f2+1
  3237  0020E0  000A               	tblrd		*-
  3238  0020E2  CFF5 F01A          	movff	tablat,___ftmul@f2+2
  3239  0020E6  0E00               	movlw	0
  3240  0020E8  6E0A               	movwf	___awdiv@divisor+1,c
  3241  0020EA  0E64               	movlw	100
  3242  0020EC  6E09               	movwf	___awdiv@divisor,c
  3243  0020EE  C02D  F007         	movff	fround@prec,___awdiv@dividend
  3244  0020F2  6A08               	clrf	___awdiv@dividend+1,c
  3245  0020F4  EC82  F015         	call	___awdiv	;wreg free
  3246  0020F8  0E12               	movlw	18
  3247  0020FA  2407               	addwf	?___awdiv,w,c
  3248  0020FC  6E0F               	movwf	___wmul@multiplier,c
  3249  0020FE  0E00               	movlw	0
  3250  002100  2008               	addwfc	?___awdiv+1,w,c
  3251  002102  6E10               	movwf	___wmul@multiplier+1,c
  3252  002104  0E00               	movlw	0
  3253  002106  6E12               	movwf	___wmul@multiplicand+1,c
  3254  002108  0E03               	movlw	3
  3255  00210A  6E11               	movwf	___wmul@multiplicand,c
  3256  00210C  EC80  F017         	call	___wmul	;wreg free
  3257  002110  0E50               	movlw	low __npowers_
  3258  002112  240F               	addwf	?___wmul,w,c
  3259  002114  6EF6               	movwf	tblptrl,c
  3260  002116  0E10               	movlw	high __npowers_
  3261  002118  2010               	addwfc	?___wmul+1,w,c
  3262  00211A  6EF7               	movwf	tblptrh,c
  3263  00211C                     	if	1	;There are 3 active tblptr bytes
  3264  00211C  6AF8               	clrf	tblptru,c
  3265  00211E  0E00               	movlw	low (__mediumconst shr (0+16))
  3266  002120  22F8               	addwfc	tblptru,f,c
  3267  002122                     	endif
  3268  002122  0009               	tblrd		*+
  3269  002124  CFF5 F015          	movff	tablat,___ftmul@f1
  3270  002128  0009               	tblrd		*+
  3271  00212A  CFF5 F016          	movff	tablat,___ftmul@f1+1
  3272  00212E  000A               	tblrd		*-
  3273  002130  CFF5 F017          	movff	tablat,___ftmul@f1+2
  3274  002134  EC7C  F013         	call	___ftmul	;wreg free
  3275  002138  C015  F02A         	movff	?___ftmul,_fround$755
  3276  00213C  C016  F02B         	movff	?___ftmul+1,_fround$755+1
  3277  002140  C017  F02C         	movff	?___ftmul+2,_fround$755+2
  3278                           
  3279                           ;doprnt.c: 414: return 0.5 * _npowers_[prec/100+18] * _npowers_[(prec%100)/10+9] * _npow
      +                          ers_[prec%10];
  3280  002144  0E00               	movlw	0
  3281  002146  6E12               	movwf	___wmul@multiplicand+1,c
  3282  002148  0E03               	movlw	3
  3283  00214A  6E11               	movwf	___wmul@multiplicand,c
  3284  00214C  0E00               	movlw	0
  3285  00214E  6E04               	movwf	___awmod@divisor+1,c
  3286  002150  0E0A               	movlw	10
  3287  002152  6E03               	movwf	___awmod@divisor,c
  3288  002154  C02D  F001         	movff	fround@prec,___awmod@dividend
  3289  002158  6A02               	clrf	___awmod@dividend+1,c
  3290  00215A  EC40  F016         	call	___awmod	;wreg free
  3291  00215E  C001  F00F         	movff	?___awmod,___wmul@multiplier
  3292  002162  C002  F010         	movff	?___awmod+1,___wmul@multiplier+1
  3293  002166  EC80  F017         	call	___wmul	;wreg free
  3294  00216A  0E50               	movlw	low __npowers_
  3295  00216C  240F               	addwf	?___wmul,w,c
  3296  00216E  6EF6               	movwf	tblptrl,c
  3297  002170  0E10               	movlw	high __npowers_
  3298  002172  2010               	addwfc	?___wmul+1,w,c
  3299  002174  6EF7               	movwf	tblptrh,c
  3300  002176                     	if	1	;There are 3 active tblptr bytes
  3301  002176  6AF8               	clrf	tblptru,c
  3302  002178  0E00               	movlw	low (__mediumconst shr (0+16))
  3303  00217A  22F8               	addwfc	tblptru,f,c
  3304  00217C                     	endif
  3305  00217C  0009               	tblrd		*+
  3306  00217E  CFF5 F018          	movff	tablat,___ftmul@f2
  3307  002182  0009               	tblrd		*+
  3308  002184  CFF5 F019          	movff	tablat,___ftmul@f2+1
  3309  002188  000A               	tblrd		*-
  3310  00218A  CFF5 F01A          	movff	tablat,___ftmul@f2+2
  3311  00218E  C02A  F015         	movff	_fround$755,___ftmul@f1
  3312  002192  C02B  F016         	movff	_fround$755+1,___ftmul@f1+1
  3313  002196  C02C  F017         	movff	_fround$755+2,___ftmul@f1+2
  3314  00219A  EC7C  F013         	call	___ftmul	;wreg free
  3315  00219E  C015  F027         	movff	?___ftmul,_fround$756
  3316  0021A2  C016  F028         	movff	?___ftmul+1,_fround$756+1
  3317  0021A6  C017  F029         	movff	?___ftmul+2,_fround$756+2
  3318                           
  3319                           ;doprnt.c: 414: return 0.5 * _npowers_[prec/100+18] * _npowers_[(prec%100)/10+9] * _npow
      +                          ers_[prec%10];
  3320  0021AA  C027  F015         	movff	_fround$756,___ftmul@f1
  3321  0021AE  C028  F016         	movff	_fround$756+1,___ftmul@f1+1
  3322  0021B2  C029  F017         	movff	_fround$756+2,___ftmul@f1+2
  3323  0021B6  0E00               	movlw	0
  3324  0021B8  6E18               	movwf	___ftmul@f2,c
  3325  0021BA  0E00               	movlw	0
  3326  0021BC  6E19               	movwf	___ftmul@f2+1,c
  3327  0021BE  0E3F               	movlw	63
  3328  0021C0  6E1A               	movwf	___ftmul@f2+2,c
  3329  0021C2  EC7C  F013         	call	___ftmul	;wreg free
  3330  0021C6  C015  F024         	movff	?___ftmul,?_fround
  3331  0021CA  C016  F025         	movff	?___ftmul+1,?_fround+1
  3332  0021CE  C017  F026         	movff	?___ftmul+2,?_fround+2
  3333  0021D2  0012               	return	
  3334  0021D4                     l146:
  3335                           
  3336                           ;doprnt.c: 415: else if(prec > 10)
  3337  0021D4  0E0A               	movlw	10
  3338  0021D6  642D               	cpfsgt	fround@prec,c
  3339  0021D8  D069               	goto	l149
  3340                           
  3341                           ;doprnt.c: 416: return 0.5 * _npowers_[prec/10+9] * _npowers_[prec%10];
  3342  0021DA  0E00               	movlw	0
  3343  0021DC  6E12               	movwf	___wmul@multiplicand+1,c
  3344  0021DE  0E03               	movlw	3
  3345  0021E0  6E11               	movwf	___wmul@multiplicand,c
  3346  0021E2  0E00               	movlw	0
  3347  0021E4  6E04               	movwf	___awmod@divisor+1,c
  3348  0021E6  0E0A               	movlw	10
  3349  0021E8  6E03               	movwf	___awmod@divisor,c
  3350  0021EA  C02D  F001         	movff	fround@prec,___awmod@dividend
  3351  0021EE  6A02               	clrf	___awmod@dividend+1,c
  3352  0021F0  EC40  F016         	call	___awmod	;wreg free
  3353  0021F4  C001  F00F         	movff	?___awmod,___wmul@multiplier
  3354  0021F8  C002  F010         	movff	?___awmod+1,___wmul@multiplier+1
  3355  0021FC  EC80  F017         	call	___wmul	;wreg free
  3356  002200  0E50               	movlw	low __npowers_
  3357  002202  240F               	addwf	?___wmul,w,c
  3358  002204  6EF6               	movwf	tblptrl,c
  3359  002206  0E10               	movlw	high __npowers_
  3360  002208  2010               	addwfc	?___wmul+1,w,c
  3361  00220A  6EF7               	movwf	tblptrh,c
  3362  00220C                     	if	1	;There are 3 active tblptr bytes
  3363  00220C  6AF8               	clrf	tblptru,c
  3364  00220E  0E00               	movlw	low (__mediumconst shr (0+16))
  3365  002210  22F8               	addwfc	tblptru,f,c
  3366  002212                     	endif
  3367  002212  0009               	tblrd		*+
  3368  002214  CFF5 F018          	movff	tablat,___ftmul@f2
  3369  002218  0009               	tblrd		*+
  3370  00221A  CFF5 F019          	movff	tablat,___ftmul@f2+1
  3371  00221E  000A               	tblrd		*-
  3372  002220  CFF5 F01A          	movff	tablat,___ftmul@f2+2
  3373  002224  0E00               	movlw	0
  3374  002226  6E0A               	movwf	___awdiv@divisor+1,c
  3375  002228  0E0A               	movlw	10
  3376  00222A  6E09               	movwf	___awdiv@divisor,c
  3377  00222C  C02D  F007         	movff	fround@prec,___awdiv@dividend
  3378  002230  6A08               	clrf	___awdiv@dividend+1,c
  3379  002232  EC82  F015         	call	___awdiv	;wreg free
  3380  002236  0E09               	movlw	9
  3381  002238  2407               	addwf	?___awdiv,w,c
  3382  00223A  6E0F               	movwf	___wmul@multiplier,c
  3383  00223C  0E00               	movlw	0
  3384  00223E  2008               	addwfc	?___awdiv+1,w,c
  3385  002240  6E10               	movwf	___wmul@multiplier+1,c
  3386  002242  0E00               	movlw	0
  3387  002244  6E12               	movwf	___wmul@multiplicand+1,c
  3388  002246  0E03               	movlw	3
  3389  002248  6E11               	movwf	___wmul@multiplicand,c
  3390  00224A  EC80  F017         	call	___wmul	;wreg free
  3391  00224E  0E50               	movlw	low __npowers_
  3392  002250  240F               	addwf	?___wmul,w,c
  3393  002252  6EF6               	movwf	tblptrl,c
  3394  002254  0E10               	movlw	high __npowers_
  3395  002256  2010               	addwfc	?___wmul+1,w,c
  3396  002258  6EF7               	movwf	tblptrh,c
  3397  00225A                     	if	1	;There are 3 active tblptr bytes
  3398  00225A  6AF8               	clrf	tblptru,c
  3399  00225C  0E00               	movlw	low (__mediumconst shr (0+16))
  3400  00225E  22F8               	addwfc	tblptru,f,c
  3401  002260                     	endif
  3402  002260  0009               	tblrd		*+
  3403  002262  CFF5 F015          	movff	tablat,___ftmul@f1
  3404  002266  0009               	tblrd		*+
  3405  002268  CFF5 F016          	movff	tablat,___ftmul@f1+1
  3406  00226C  000A               	tblrd		*-
  3407  00226E  CFF5 F017          	movff	tablat,___ftmul@f1+2
  3408  002272  EC7C  F013         	call	___ftmul	;wreg free
  3409  002276  C015  F02A         	movff	?___ftmul,_fround$755
  3410  00227A  C016  F02B         	movff	?___ftmul+1,_fround$755+1
  3411  00227E  C017  F02C         	movff	?___ftmul+2,_fround$755+2
  3412                           
  3413                           ;doprnt.c: 416: return 0.5 * _npowers_[prec/10+9] * _npowers_[prec%10];
  3414  002282  C02A  F015         	movff	_fround$755,___ftmul@f1
  3415  002286  C02B  F016         	movff	_fround$755+1,___ftmul@f1+1
  3416  00228A  C02C  F017         	movff	_fround$755+2,___ftmul@f1+2
  3417  00228E  0E00               	movlw	0
  3418  002290  6E18               	movwf	___ftmul@f2,c
  3419  002292  0E00               	movlw	0
  3420  002294  6E19               	movwf	___ftmul@f2+1,c
  3421  002296  0E3F               	movlw	63
  3422  002298  6E1A               	movwf	___ftmul@f2+2,c
  3423  00229A  EC7C  F013         	call	___ftmul	;wreg free
  3424  00229E  C015  F024         	movff	?___ftmul,?_fround
  3425  0022A2  C016  F025         	movff	?___ftmul+1,?_fround+1
  3426  0022A6  C017  F026         	movff	?___ftmul+2,?_fround+2
  3427  0022AA  0012               	return	
  3428  0022AC                     l149:
  3429                           
  3430                           ;doprnt.c: 417: return 0.5 * _npowers_[prec];
  3431  0022AC  502D               	movf	fround@prec,w,c
  3432  0022AE  0D03               	mullw	3
  3433  0022B0  0E50               	movlw	low __npowers_
  3434  0022B2  24F3               	addwf	prodl,w,c
  3435  0022B4  6EF6               	movwf	tblptrl,c
  3436  0022B6  0E10               	movlw	high __npowers_
  3437  0022B8  20F4               	addwfc	prodh,w,c
  3438  0022BA  6EF7               	movwf	tblptrh,c
  3439  0022BC                     	if	1	;There are 3 active tblptr bytes
  3440  0022BC  6AF8               	clrf	tblptru,c
  3441  0022BE  0E00               	movlw	low (__mediumconst shr (0+16))
  3442  0022C0  22F8               	addwfc	tblptru,f,c
  3443  0022C2                     	endif
  3444  0022C2  0009               	tblrd		*+
  3445  0022C4  CFF5 F015          	movff	tablat,___ftmul@f1
  3446  0022C8  0009               	tblrd		*+
  3447  0022CA  CFF5 F016          	movff	tablat,___ftmul@f1+1
  3448  0022CE  000A               	tblrd		*-
  3449  0022D0  CFF5 F017          	movff	tablat,___ftmul@f1+2
  3450  0022D4  0E00               	movlw	0
  3451  0022D6  6E18               	movwf	___ftmul@f2,c
  3452  0022D8  0E00               	movlw	0
  3453  0022DA  6E19               	movwf	___ftmul@f2+1,c
  3454  0022DC  0E3F               	movlw	63
  3455  0022DE  6E1A               	movwf	___ftmul@f2+2,c
  3456  0022E0  EC7C  F013         	call	___ftmul	;wreg free
  3457  0022E4  C015  F024         	movff	?___ftmul,?_fround
  3458  0022E8  C016  F025         	movff	?___ftmul+1,?_fround+1
  3459  0022EC  C017  F026         	movff	?___ftmul+2,?_fround+2
  3460  0022F0  0012               	return	
  3461  0022F2                     __end_of_fround:
  3462                           	opt stack 0
  3463                           tblptru	equ	0xFF8
  3464                           tblptrh	equ	0xFF7
  3465                           tblptrl	equ	0xFF6
  3466                           tablat	equ	0xFF5
  3467                           prodh	equ	0xFF4
  3468                           prodl	equ	0xFF3
  3469                           wreg	equ	0xFE8
  3470                           postinc2	equ	0xFDE
  3471                           postdec2	equ	0xFDD
  3472                           fsr2h	equ	0xFDA
  3473                           fsr2l	equ	0xFD9
  3474                           status	equ	0xFD8
  3475                           
  3476 ;; *************** function ___wmul *****************
  3477 ;; Defined at:
  3478 ;;		line 15 in file "D:\Apps\MPLab\New folder (2)\sources\common\Umul16.c"
  3479 ;; Parameters:    Size  Location     Type
  3480 ;;  multiplier      2   14[COMRAM] unsigned int 
  3481 ;;  multiplicand    2   16[COMRAM] unsigned int 
  3482 ;; Auto vars:     Size  Location     Type
  3483 ;;  product         2   18[COMRAM] unsigned int 
  3484 ;; Return value:  Size  Location     Type
  3485 ;;                  2   14[COMRAM] unsigned int 
  3486 ;; Registers used:
  3487 ;;		wreg, status,2, status,0, prodl, prodh
  3488 ;; Tracked objects:
  3489 ;;		On entry : 0/0
  3490 ;;		On exit  : 0/0
  3491 ;;		Unchanged: 0/0
  3492 ;; Data sizes:     COMRAM   BANK0   BANK1   BANK2   BANK3   BANK4   BANK5   BANK6   BANK7   BANK8   BANK9  BANK10  BANK1
      +1  BANK12  BANK13  BANK14  BANK15
  3493 ;;      Params:         4       0       0       0       0       0       0       0       0       0       0       0       
      +0       0       0       0       0
  3494 ;;      Locals:         2       0       0       0       0       0       0       0       0       0       0       0       
      +0       0       0       0       0
  3495 ;;      Temps:          0       0       0       0       0       0       0       0       0       0       0       0       
      +0       0       0       0       0
  3496 ;;      Totals:         6       0       0       0       0       0       0       0       0       0       0       0       
      +0       0       0       0       0
  3497 ;;Total ram usage:        6 bytes
  3498 ;; Hardware stack levels used:    1
  3499 ;; This function calls:
  3500 ;;		Nothing
  3501 ;; This function is called by:
  3502 ;;		_fround
  3503 ;;		_scale
  3504 ;;		_printf
  3505 ;; This function uses a non-reentrant model
  3506 ;;
  3507                           
  3508                           	psect	text4
  3509  002F00                     __ptext4:
  3510                           	opt stack 0
  3511  002F00                     ___wmul:
  3512                           	opt stack 28
  3513                           
  3514                           ;incstack = 0
  3515  002F00  500F               	movf	___wmul@multiplier,w,c
  3516  002F02  0211               	mulwf	___wmul@multiplicand,c
  3517  002F04  CFF3 F013          	movff	prodl,___wmul@product
  3518  002F08  CFF4 F014          	movff	prodh,___wmul@product+1
  3519  002F0C  500F               	movf	___wmul@multiplier,w,c
  3520  002F0E  0212               	mulwf	___wmul@multiplicand+1,c
  3521  002F10  50F3               	movf	prodl,w,c
  3522  002F12  2614               	addwf	___wmul@product+1,f,c
  3523  002F14  5010               	movf	___wmul@multiplier+1,w,c
  3524  002F16  0211               	mulwf	___wmul@multiplicand,c
  3525  002F18  50F3               	movf	prodl,w,c
  3526  002F1A  2614               	addwf	___wmul@product+1,f,c
  3527  002F1C  C013  F00F         	movff	___wmul@product,?___wmul
  3528  002F20  C014  F010         	movff	___wmul@product+1,?___wmul+1
  3529  002F24  0012               	return	
  3530  002F26                     __end_of___wmul:
  3531                           	opt stack 0
  3532                           tblptru	equ	0xFF8
  3533                           tblptrh	equ	0xFF7
  3534                           tblptrl	equ	0xFF6
  3535                           tablat	equ	0xFF5
  3536                           prodh	equ	0xFF4
  3537                           prodl	equ	0xFF3
  3538                           wreg	equ	0xFE8
  3539                           postinc2	equ	0xFDE
  3540                           postdec2	equ	0xFDD
  3541                           fsr2h	equ	0xFDA
  3542                           fsr2l	equ	0xFD9
  3543                           status	equ	0xFD8
  3544                           
  3545 ;; *************** function ___ftmul *****************
  3546 ;; Defined at:
  3547 ;;		line 62 in file "D:\Apps\MPLab\New folder (2)\sources\common\ftmul.c"
  3548 ;; Parameters:    Size  Location     Type
  3549 ;;  f1              3   20[COMRAM] float 
  3550 ;;  f2              3   23[COMRAM] float 
  3551 ;; Auto vars:     Size  Location     Type
  3552 ;;  f3_as_produc    3   30[COMRAM] unsigned um
  3553 ;;  sign            1   34[COMRAM] unsigned char 
  3554 ;;  cntr            1   33[COMRAM] unsigned char 
  3555 ;;  exp             1   29[COMRAM] unsigned char 
  3556 ;; Return value:  Size  Location     Type
  3557 ;;                  3   20[COMRAM] float 
  3558 ;; Registers used:
  3559 ;;		wreg, status,2, status,0, cstack
  3560 ;; Tracked objects:
  3561 ;;		On entry : 0/0
  3562 ;;		On exit  : 0/0
  3563 ;;		Unchanged: 0/0
  3564 ;; Data sizes:     COMRAM   BANK0   BANK1   BANK2   BANK3   BANK4   BANK5   BANK6   BANK7   BANK8   BANK9  BANK10  BANK1
      +1  BANK12  BANK13  BANK14  BANK15
  3565 ;;      Params:         6       0       0       0       0       0       0       0       0       0       0       0       
      +0       0       0       0       0
  3566 ;;      Locals:         6       0       0       0       0       0       0       0       0       0       0       0       
      +0       0       0       0       0
  3567 ;;      Temps:          3       0       0       0       0       0       0       0       0       0       0       0       
      +0       0       0       0       0
  3568 ;;      Totals:        15       0       0       0       0       0       0       0       0       0       0       0       
      +0       0       0       0       0
  3569 ;;Total ram usage:       15 bytes
  3570 ;; Hardware stack levels used:    1
  3571 ;; Hardware stack levels required when called:    1
  3572 ;; This function calls:
  3573 ;;		___ftpack
  3574 ;; This function is called by:
  3575 ;;		_main
  3576 ;;		_fround
  3577 ;;		_scale
  3578 ;;		_printf
  3579 ;; This function uses a non-reentrant model
  3580 ;;
  3581                           
  3582                           	psect	text5
  3583  0026F8                     __ptext5:
  3584                           	opt stack 0
  3585  0026F8                     ___ftmul:
  3586                           	opt stack 27
  3587                           
  3588                           ;incstack = 0
  3589  0026F8  C017  F01B         	movff	___ftmul@f1+2,??___ftmul
  3590  0026FC  6A1C               	clrf	(??___ftmul+1)& (0+255),c
  3591  0026FE  6A1D               	clrf	(??___ftmul+2)& (0+255),c
  3592  002700  3416               	rlcf	___ftmul@f1+1,w,c
  3593  002702  361B               	rlcf	??___ftmul& (0+255),f,c
  3594  002704  E301               	bnc	u1881
  3595  002706  801C               	bsf	(??___ftmul+1)& (0+255),0,c
  3596  002708                     u1881:
  3597  002708  501B               	movf	??___ftmul,w,c
  3598  00270A  6E1E               	movwf	___ftmul@exp,c
  3599  00270C  501E               	movf	___ftmul@exp,w,c
  3600  00270E  A4D8               	btfss	status,2,c
  3601  002710  D007               	goto	l567
  3602  002712  0E00               	movlw	0
  3603  002714  6E15               	movwf	?___ftmul,c
  3604  002716  0E00               	movlw	0
  3605  002718  6E16               	movwf	?___ftmul+1,c
  3606  00271A  0E00               	movlw	0
  3607  00271C  6E17               	movwf	?___ftmul+2,c
  3608  00271E  0012               	return	
  3609  002720                     l567:
  3610  002720  C01A  F01B         	movff	___ftmul@f2+2,??___ftmul
  3611  002724  6A1C               	clrf	(??___ftmul+1)& (0+255),c
  3612  002726  6A1D               	clrf	(??___ftmul+2)& (0+255),c
  3613  002728  3419               	rlcf	___ftmul@f2+1,w,c
  3614  00272A  361B               	rlcf	??___ftmul& (0+255),f,c
  3615  00272C  E301               	bnc	u1901
  3616  00272E  801C               	bsf	(??___ftmul+1)& (0+255),0,c
  3617  002730                     u1901:
  3618  002730  501B               	movf	??___ftmul,w,c
  3619  002732  6E23               	movwf	___ftmul@sign,c
  3620  002734  5023               	movf	___ftmul@sign,w,c
  3621  002736  A4D8               	btfss	status,2,c
  3622  002738  D007               	goto	l569
  3623  00273A  0E00               	movlw	0
  3624  00273C  6E15               	movwf	?___ftmul,c
  3625  00273E  0E00               	movlw	0
  3626  002740  6E16               	movwf	?___ftmul+1,c
  3627  002742  0E00               	movlw	0
  3628  002744  6E17               	movwf	?___ftmul+2,c
  3629  002746  0012               	return	
  3630  002748                     l569:
  3631  002748  5023               	movf	___ftmul@sign,w,c
  3632  00274A  0F7B               	addlw	123
  3633  00274C  261E               	addwf	___ftmul@exp,f,c
  3634  00274E  C017  F023         	movff	___ftmul@f1+2,___ftmul@sign
  3635  002752  501A               	movf	___ftmul@f2+2,w,c
  3636  002754  1A23               	xorwf	___ftmul@sign,f,c
  3637  002756  0E80               	movlw	128
  3638  002758  1623               	andwf	___ftmul@sign,f,c
  3639  00275A  8E16               	bsf	___ftmul@f1+1,7,c
  3640  00275C  8E19               	bsf	___ftmul@f2+1,7,c
  3641  00275E  0EFF               	movlw	255
  3642  002760  1618               	andwf	___ftmul@f2,f,c
  3643  002762  0EFF               	movlw	255
  3644  002764  1619               	andwf	___ftmul@f2+1,f,c
  3645  002766  0E00               	movlw	0
  3646  002768  161A               	andwf	___ftmul@f2+2,f,c
  3647  00276A  0E00               	movlw	0
  3648  00276C  6E1F               	movwf	___ftmul@f3_as_product,c
  3649  00276E  0E00               	movlw	0
  3650  002770  6E20               	movwf	___ftmul@f3_as_product+1,c
  3651  002772  0E00               	movlw	0
  3652  002774  6E21               	movwf	___ftmul@f3_as_product+2,c
  3653  002776  0E07               	movlw	7
  3654  002778  6E22               	movwf	___ftmul@cntr,c
  3655  00277A  A015               	btfss	___ftmul@f1,0,c
  3656  00277C  D006               	goto	l571
  3657  00277E  5018               	movf	___ftmul@f2,w,c
  3658  002780  261F               	addwf	___ftmul@f3_as_product,f,c
  3659  002782  5019               	movf	___ftmul@f2+1,w,c
  3660  002784  2220               	addwfc	___ftmul@f3_as_product+1,f,c
  3661  002786  501A               	movf	___ftmul@f2+2,w,c
  3662  002788  2221               	addwfc	___ftmul@f3_as_product+2,f,c
  3663  00278A                     l571:
  3664  00278A  90D8               	bcf	status,0,c
  3665  00278C  3217               	rrcf	___ftmul@f1+2,f,c
  3666  00278E  3216               	rrcf	___ftmul@f1+1,f,c
  3667  002790  3215               	rrcf	___ftmul@f1,f,c
  3668  002792  90D8               	bcf	status,0,c
  3669  002794  3618               	rlcf	___ftmul@f2,f,c
