:040000003FEF18F0C6
:1010000000010000000A00000064000000E8030086
:101010000010270000A086010040420F0080969833
:101020000000E1F50500CA9A3B00803F0020410026
:10103000C842007A44401C4650C34724744997185C
:101040004BBCBE4C6B6E4E03155079AD60F34971CD
:1010500000803FCDCC3DD7233C12833AB7D138C670
:101060002737388635C0D633CC2B32708930E7DB52
:101070002EE53C1E42A20D0F0F0E1F0E0F0F001E7D
:101080001F0707071F1E001C1C1C1F1F1C1C00071E
:1010900007071F1F0707001F1C1C1F1C1F1F00180E
:1010A0001C1C1E071F1E001C1D1F1F1E1C1C001CBD
:1010B0001810181C0E07000C20202564213D0A2062
:0510C000202565000081
:1010C600620E0001706F000E716F05EF0EF0250EB7
:1010D6008319D8B405D083513AEC18F005EF0EF019
:1010E600000E0001736F000E726F02D0738119D06B
:1010F60060C0F6FF61C0F7FF604B612B000EF86E13
:101106000800F5CF83F08351000AD8B41200640AB0
:10111600D8B407D0010AD8B4E9D70C0AD8A405EF89
:101126000EF0070E7315D8B468EF0DF0000E796F48
:10113600060E786F70C0D9FF71C0DAFFDECF80F07F
:10114600DECF81F0DDCF82F0030E7027000E712313
:1011560082AF11D080C043F081C044F082C045F018
:1011660093EC17F043C080F044C081F045C082F094
:10117600030E00017213000E7F6F000E7E6F80510A
:1011860081118211D8B486D0820E676FFF0E686F08
:1011960080C069F081C06AF082C06BF083C06CF0D9
:1011A600100E05D0D8906C336B336A336933E82E52
:1011B600F9D7695167257E6F000E68217F6F7E071C
:1011C600D8A07F077EC00FF07FC010F0000E126E11
:1011D600030E116E80EC17F00FC07EF010C07FF08A
:1011E6007EC007F07FC008F0000E0A6E0A0E096E78
:1011F60082EC15F007C07EF008C07FF000017FAFDB
:1012060003D07E07D8A07F077E51000816EC0EF0AB
:1012160024C074F025C075F026C076F074C015F0B1
:1012260075C016F076C017F080C018F081C019F0AE
:1012360082C01AF07CEC13F015C074F016C075F07D
:1012460017C076F074C052F075C053F076C054F0F3
:10125600000E556E800E566E3F0E576E3AEC15F028
:10126600D8B005D000017E07D8A07F0713D074C080
:1012760052F075C053F076C054F0000E556E200E35
:10128600566E410E576E3AEC15F0D8A003D0000109
:101296007E4B7F2B00017FBF05D07F5106E17E0587
:1012A600D8B003D0010E836F02D07EC083F073A145
:1012B60002D2795104E1090E785DD8A003D0080E58
:1012C600836F02D078C083F0805181118211D8B427
:1012D600E6D080C02BF081C02CF082C02DF0835167
:1012E60000087E2516EC0EF024C02EF025C02FF047
:1012F60026C030F070EC14F02BC080F02CC081F0CA
:101306002DC082F080C049F081C04AF082C04BF007
:1013160080C02BF081C02CF082C02DF0F6EC13F0CB
:101326002BC03AF02CC03BF02DC03CF02EC03DF057
:10133600ABEC16F03AC043F03BC044F03CC045F07D
:1013460093EC17F043C046F044C047F045C048F060
:1013560079EC11F046C052F047C053F048C054F043
:10136600000E556E000E566E3F0E576E3AEC15F097
:10137600D8A014D080C046F081C047F082C048F0A3
:10138600000E496E000E4A6E3F0E4B6E79EC11F060
:1013960046C080F047C081F048C082F083C067F045
:1013A6000001686B67BF6807D89067376837D890C1
:1013B60067376837040E6727000E6823010E672516
:1013C600F66E100E6821F76EF86A000EF82280C0DD
:1013D6002BF081C02CF082C02DF0F6EC13F0090042
:1013E600F5502B5C0900F5502C580900F5502D5886
:1013F6000900F5502E58D8A018D080C015F081C02D
:1014060016F082C017F0CD0E186ECC0E196E3D0E7A
:101416001A6E7CEC13F015C080F016C081F017C070
:1014260082F000017E4B7F2B3AD000018351040DE0
:10143600010EF324F66E100EF420F76EF86A000E15
:10144600F82280C02BF081C02CF082C02DF0F6EC83
:1014560013F00900F5502B5C0900F5502C580900D3
:10146600F5502D580900F5502E58D8B018D080C028
:1014760015F081C016F082C017F0000E186E200E0F
:10148600196E410E1A6E7CEC13F015C080F016C072
:1014960081F017C082F000017E07D8A07F07030EF7
:1014A60000017215676F000E7315686F675168113A
:1014B600D8B403D02D0E3AEC18F080C02BF081C0C2
:1014C6002CF082C02DF0F6EC13F02BC07AF02CC075
:1014D6007BF02DC07CF02EC07DF07AC001F07BC081
:1014E60002F07CC003F07DC004F000018351040DBE
:1014F600010EF324F66E100EF420F76EF86A000E55
:10150600F8220900F5CF05F00900F5CF06F009002D
:10151600F5CF07F00A00F5CF08F0C4EC15F001503E
:10152600300F3AEC18F07AC00EF07BC00FF07CC09A
:1015360010F07DC011F000018351040D010EF3245B
:10154600F66E100EF420F76EF86A000EF822090007
:10155600F5CF12F00900F5CF13F00900F5CF14F01E
:101566000A00F5CF15F078EC16F00EC07AF00FC031
:101576007BF010C07CF011C07DF00001785179112C
:10158600D8B46BD02E0E3AEC18F000018351785F78
:10159600000E83BFFF0E795B4FD07AC001F07BC08F
:1015A60002F07CC003F07DC004F08351040D010EEF
:1015B600F324F66E100EF420F76EF86A000EF82289
:1015C6000900F5CF05F00900F5CF06F00900F5CFC3
:1015D60007F00A00F5CF08F0C4EC15F00150300F03
:1015E6003AEC18F07AC00EF07BC00FF07CC010F019
:1015F6007DC011F000018351040D010EF324F66E37
:10160600100EF420F76EF86A000EF8220900F5CFE6
:1016160012F00900F5CF13F00900F5CF14F00A0017
:10162600F5CF15F078EC16F00EC07AF00FC07BF00F
:1016360010C07CF011C07DF0000183078329D8B467
:1016460008D0ABD7300E3AEC18F000017807D8A0D6
:10165600790778517911D8A4F5D7650E3AEC18F0C8
:1016660000017FAF08D07E6D7F1FD8B07F2B2D0E77
:101676003AEC18F003D02B0E3AEC18F07EC007F0C7
:101686007FC008F0000E0A6E0A0E096E82EC15F095
:101696000750300F3AEC18F07EC001F07FC002F020
:1016A600000E046E0A0E036E40EC16F00150300F69
:1016B6003AEC18F0A7D2000179BF06D079511BE1A8
:1016C6000D0E785DD8B017D080C046F081C047F0C7
:1016D60082C048F078513EEC10F024C049F025C095
:1016E6004AF026C04BF079EC11F046C080F047C0B6
:1016F60081F048C082F000017FBF06D07F5120E113
:101706000A0E7E5DD8B01CD0805181118211D8B4EA
:1017160056D080C02BF081C02CF082C02DF0F6ECA4
:1017260013F02B502C102D102E10D8A448D00001E9
:101736007FBF45D07F5104E1020E7E5DD8A03FD029
:1017460074C052F075C053F076C054F0700E556EEA
:10175600890E566E400E576E3AEC15F0D8B003D08F
:101766000001F70E02D00001F80E7E27FF0E7F2340
:101776007E5116EC0EF024C074F025C075F026C01C
:1017860076F080C001F081C002F082C003F074C020
:1017960004F075C005F076C006F04FEC12F001C0FB
:1017A6007AF002C07BF003C07CF004C07DF0000E2E
:1017B6000001806F000E816F000E826F33D080C0F3
:1017C6002BF081C02CF082C02DF0F6EC13F02BC06C
:1017D6007AF02CC07BF02DC07CF02EC07DF080C04E
:1017E60052F081C053F082C054F07AC03AF07BC008
:1017F6003BF07CC03CF07DC03DF0ABEC16F03AC04F
:1018060055F03BC056F03CC057F048EC17F052C0BC
:1018160080F053C081F054C082F0000E00017F6F4B
:10182600000E7E6F010E836F0A0E8319D8B41BD08B
:101836008351040D010EF324F66E100EF420F76E9C
:10184600F86A000EF8220900F5507A5D0900F55095
:101856007B590900F5507C590900F5507D59D8A0EF
:1018660002D0832BE1D7030E7215676F000E731536
:10187600686F67516811D8B44DD02D0E3AEC18F048
:1018860049D07AC001F07BC002F07CC003F07DC075
:1018960004F000018351040D010EF324F66E100EC0
:1018A600F420F76EF86A000EF8220900F5CF05F06D
:1018B6000900F5CF06F00900F5CF07F00A00F5CFCD
:1018C60008F0C4EC15F001C074F002C075F003C056
:1018D60076F004C077F074C00EF075C00FF076C0D5
:1018E60010F077C011F00A0E126E000E136E000E85
:1018F600146E000E156E78EC16F00EC074F00FC064
:1019060075F010C076F011C077F000017451300FF9
:101916003AEC18F0000183078329D8B408D0B1D770
:10192600300E3AEC18F000017E07D8A07F077FBF83
:1019360005D07F51F5E17E05D8B0F2D779BF09D041
:10194600795104E1090E785DD8A003D0080E836FA3
:1019560002D078C083F08351785F000E83BFFF0EFC
:10196600795B8351D8B403D02E0E3AEC18F00001FF
:10197600835116EC0EF024C06DF025C06EF026C023
:101986006FF080C018F081C019F082C01AF06DC0E7
:1019960015F06EC016F06FC017F07CEC13F015C092
:1019A6002BF016C02CF017C02DF0F6EC13F02BC060
:1019B6007AF02CC07BF02DC07CF02EC07DF073D069
:1019C6007AC001F07BC002F07CC003F07DC004F059
:1019D60000018351040D010EF324F66E100EF4205F
:1019E600F76EF86A000EF8220900F5CF05F0090037
:1019F600F5CF06F00900F5CF07F00A00F5CF08F09D
:101A0600C4EC15F001C074F002C075F003C076F0A6
:101A160004C077F074C00EF075C00FF076C010F0F9
:101A260077C011F00A0E126E000E136E000E146EC1
:101A3600000E156E78EC16F00EC074F00FC075F03F
:101A460010C076F011C077F000017451300F3AECF7
:101A560018F07AC00EF07BC00FF07CC010F07DC08D
:101A660011F000018351040D010EF324F66E100EE1
:101A7600F420F76EF86A000EF8220900F5CF12F08E
:101A86000900F5CF13F00900F5CF14F00A00F5CFE1
:101A960015F078EC16F00EC07AF00FC07BF010C08F
:101AA6007CF011C07DF0000183078329D8B408D0EB
:101AB60087D7300E3AEC18F000017807D8A07907DE
:101AC60078517911D8B49ED0F4D770C0D9FF71C0BF
:101AD600DAFFDECF7AF0DDCF7BF0000E7BBFFF0EA4
:101AE6007C6F7D6F020E7027000E71237DAF0AD0CA
:101AF600030E72137D1F7C1F7B1F7A6D000E7B23E6
:101B06007C237D23010E836F0A0E8319D8B41BD064
:101B16008351040D010EF324F66E100EF420F76EB9
:101B2600F86A000EF8220900F5507A5D0900F550B2
:101B36007B590900F5507C590900F5507D59D8A00C
:101B460002D0832BE1D7030E7215676F000E731553
:101B5600686F67516811D8B403D02D0E3AEC18F0AF
:101B660000018351786F796B78BF790742D078C0CE
:101B760067F079C068F0D89067376837D8906737CC
:101B86006837010E6725F66E100E6821F76EF86A43
:101B9600000EF8220900F5CF05F00900F5CF06F092
:101BA6000900F5CF07F00A00F5CF08F07AC001F07A
:101BB6007BC002F07CC003F07DC004F0C4EC15F0DD
:101BC60001C00EF002C00FF003C010F004C011F007
:101BD6000A0E126E000E136E000E146E000E156EB7
:101BE60078EC16F00E50300F0001836F83513AECFB
:101BF60018F000017807D8A079077829B8E1792983
:101C0600D8A4B5D760C0F6FF61C0F7FF0001604BEE
:101C1600612B000EF86E0800F5CF83F08351D8B41F
:101C260012006AEF08F02A6E2AAE13D12A6C2A50E7
:101C3600800A120FD8A09AD0000E126E030E116EF3
:101C4600000E0A6E0A0E096E000E046E640E036E16
:101C56002A50016E026A01BE020640EC16F001C06F
:101C660007F002C008F082EC15F0090E07240F6E8B
:101C7600000E0820106E80EC17F0500E0F24F66E42
:101C8600100E1020F76EF86A000EF8220900F5CF44
:101C960018F00900F5CF19F00A00F5CF1AF0000E7A
:101CA6000A6E640E096E2A50076E086A07BE080699
:101CB60082EC15F0120E07240F6E000E0820106E2F
:101CC600000E126E030E116E80EC17F0500E0F24EC
:101CD600F66E100E1020F76EF86A000EF822090054
:101CE600F5CF15F00900F5CF16F00A00F5CF17F07D
:101CF6007CEC13F015C027F016C028F017C029F0A9
:101D060027C015F028C016F029C017F0000E126E75
:101D1600030E116E000E046E0A0E036E2A50016E3B
:101D2600026A01BE020640EC16F001C00FF002C0C6
:101D360010F080EC17F0500E0F24F66E100E1020E7
:101D4600F76EF86A000EF8220900F5CF18F00900C0
:101D5600F5CF19F00A00F5CF1AF07CEC13F015C098
:101D660024F016C025F017C026F012002A50800A6B
:101D7600750FD8A059D0000E0A6E0A0E096E2A50A9
:101D8600076E086A07BE080682EC15F0090E0724DE
:101D96000F6E000E0820106E000E126E030E116EEE
:101DA60080EC17F0500E0F24F66E100E1020F76E12
:101DB600F86A000EF8220900F5CF15F00900F5CFF4
:101DC60016F00A00F5CF17F0000E126E030E116E14
:101DD600000E046E0A0E036E2A50016E026A01BEE0
:101DE600020640EC16F001C00FF002C010F080ECC5
:101DF60017F0500E0F24F66E100E1020F76EF86ACC
:101E0600000EF8220900F5CF18F00900F5CF19F0F9
:101E16000A00F5CF1AF07CEC13F015C024F016C0BA
:101E260025F017C026F012002A50030D500EF32499
:101E3600F66E100EF420F76EF86A000EF82209000E
:101E4600F5CF24F00900F5CF25F00A00F5CF26F0EE
:101E560012002A50800A120FD8A09AD0000E126ED5
:101E6600030E116E000E0A6E0A0E096E000E046E47
:101E7600640E036E2A50016E026A01BE020640EC31
:101E860016F001C007F002C008F082EC15F0090E4A
:101E960007240F6E000E0820106E80EC17F0290E36
:101EA6000F24F66E100E1020F76EF86A000EF82258
:101EB6000900F5CF18F00900F5CF19F00A00F5CFA3
:101EC6001AF0000E0A6E640E096E2A50076E086A32
:101ED60007BE080682EC15F0120E07240F6E000EE0
:101EE6000820106E000E126E030E116E80EC17F0B5
:101EF600290E0F24F66E100E1020F76EF86A000EEB
:101F0600F8220900F5CF15F00900F5CF16F00A0002
:101F1600F5CF17F07CEC13F015C027F016C028F0AB
:101F260017C029F027C015F028C016F029C017F0F1
:101F3600000E126E030E116E000E046E0A0E036E74
:101F46002A50016E026A01BE020640EC16F001C07C
:101F56000FF002C010F080EC17F0290E0F24F66E79
:101F6600100E1020F76EF86A000EF8220900F5CF61
:101F760018F00900F5CF19F00A00F5CF1AF07CEC3D
:101F860013F015C024F016C025F017C026F0120075
:101F96002A50800A750FD8A059D0000E0A6E0A0E74
:101FA600096E2A50076E086A07BE080682EC15F00D
:101FB600090E07240F6E000E0820106E000E126E1A
:101FC600030E116E80EC17F0290E0F24F66E100E1C
:101FD6001020F76EF86A000EF8220900F5CF15F00A
:101FE6000900F5CF16F00A00F5CF17F0000E126EB5
:101FF600030E116E000E046E0A0E036E2A50016E59
:10200600026A01BE020640EC16F001C00FF002C0E3
:1020160010F080EC17F0290E0F24F66E100E10202B
:10202600F76EF86A000EF8220900F5CF18F00900DD
:10203600F5CF19F00A00F5CF1AF07CEC13F015C0B5
:1020460024F016C025F017C026F012002A50030D02
:10205600290EF324F66E100EF420F76EF86A000EC1
:10206600F8220900F5CF24F00900F5CF25F00A0083
:10207600F5CF26F012002D6E6D0E2D64A8D0000E41
:10208600126E030E116E000E0A6E0A0E096E000E17
:10209600046E640E036E2DC001F0026A40EC16F069
:1020A60001C007F002C008F082EC15F0090E072403
:1020B6000F6E000E0820106E80EC17F0500E0F24E5
:1020C600F66E100E1020F76EF86A000EF822090060
:1020D600F5CF18F00900F5CF19F00A00F5CF1AF080
:1020E600000E0A6E640E096E2DC007F0086A82ECB7
:1020F60015F0120E07240F6E000E0820106E000E4B
:10210600126E030E116E80EC17F0500E0F24F66E51
:10211600100E1020F76EF86A000EF8220900F5CFAF
:1021260015F00900F5CF16F00A00F5CF17F07CEC94
:1021360013F015C02AF016C02BF017C02CF0000EB5
:10214600126E030E116E000E046E0A0E036E2DC083
:1021560001F0026A40EC16F001C00FF002C010F068
:1021660080EC17F0500E0F24F66E100E1020F76E4E
:10217600F86A000EF8220900F5CF18F00900F5CF2D
:1021860019F00A00F5CF1AF02AC015F02BC016F088
:102196002CC017F07CEC13F015C027F016C028F001
:1021A60017C029F027C015F028C016F029C017F06F
:1021B600000E186E000E196E3F0E1A6E7CEC13F0B0
:1021C60015C024F016C025F017C026F012000A0E1E
:1021D6002D6469D0000E126E030E116E000E046E91
:1021E6000A0E036E2DC001F0026A40EC16F001C023
:1021F6000FF002C010F080EC17F0500E0F24F66EB0
:10220600100E1020F76EF86A000EF8220900F5CFBE
:1022160018F00900F5CF19F00A00F5CF1AF0000EF4
:102226000A6E0A0E096E2DC007F0086A82EC15F0D8
:10223600090E07240F6E000E0820106E000E126E97
:10224600030E116E80EC17F0500E0F24F66E100E72
:102256001020F76EF86A000EF8220900F5CF15F087
:102266000900F5CF16F00A00F5CF17F07CEC13F055
:1022760015C02AF016C02BF017C02CF02AC015F096
:102286002BC016F02CC017F0000E186E000E196E3B
:102296003F0E1A6E7CEC13F015C024F016C025F024
:1022A60017C026F012002D50030D500EF324F66EC3
:1022B600100EF420F76EF86A000EF8220900F5CF2A
:1022C60015F00900F5CF16F00A00F5CF17F0000E4D
:1022D600186E000E196E3F0E1A6E7CEC13F015C0C8
:1022E60024F016C025F017C026F0120048C04CF0A6
:1022F6004D6A4E6A47344C3601E34D804C50516E60
:102306004BC04CF04D6A4E6A4A344C3601E34D8060
:102316004C50506E5150D8B40BD05050515CD8B080
:102326000ED05150000850244C6E180E4C6407D045
:1023360049C046F04AC047F04BC048F01200505022
:10234600D8B40BD05150505CD8B00ED050500008C5
:1023560051244C6E180E4C6407D046C046F047C058
:1023660047F048C048F01200060E4F6E48BE4F8E2A
:102376004BBE4F8C478EFF0E4616FF0E4716000EBD
:1023860048164A8EFF0E4916FF0E4A16000E4B16C9
:102396005050515CD8B01BD0D89049364A364B368F
:1023A600500651505018D8B40DD04F064FC04CF0BF
:1023B600070E4C16D8B406D0EFD7D890483247321D
:1023C6004632512A50505118D8B41FD0F6D7515022
:1023D600505CD8B01AD0D8904636473648365106A3
:1023E60051505018D8B40DD04F064FC04CF0070EC0
:1023F6004C16D8B406D0EFD7D8904B324A32493271
:10240600502A50505118D8A4F7D74FAE0CD0FF0E13
:10241600461AFF0E471AFF0E481A010E4626000EF0
:102426004722000E48224FAC0CD0FF0E491AFF0E71
:102436004A1AFF0E4B1A010E4926000E4A22000EBA
:102446004B22000E4F6E4650492647504A224850AE
:102456004B224BAE0ED0FF0E491AFF0E4A1AFF0E44
:102466004B1A010E4926000E4A22000E4B22010E7F
:102476004F6E49C001F04AC002F04BC003F051C094
:1024860004F04FC005F0E3EC14F001C046F002C0C2
:1024960047F003C048F0120003C007F0086A096A53
:1024A6000234073601E3088007500F6E0F50D8A498
:1024B60009D0000E016E000E026E000E036E000EB5
:1024C600046E120006C007F0086A096A053407366A
:1024D60001E3088007500E6E0E50D8A409D0000EF6
:1024E600016E000E026E000E036E000E046E1200E8
:1024F600028EFF0E0116FF0E0216000E0316058E43
:10250600FF0E0416FF0E0516000E0616000E0A6EC6
:10251600000E0B6E000E0C6E000E0D6E7F0E0F5E23
:102526000E50980F0F5E180E0E6ED8900A360B36A8
:102536000C360D360450015C0550025806500358FF
:10254600D8A007D00450015E0550025A0650035A1F
:102556000A80D8900136023603360E2EE6D70FAE25
:1025660016D00F50800A970FD8B009D0000E016E12
:10257600000E026E000E036E000E046E1200D8905E
:102586000D320C320B320A320F3EF9D715D0170E28
:102596000F640FD0000E016E000E026E000E036E69
:1025A600000E046E1200D8900A360B360C360D3625
:1025B6000F060F50D8A4F7D70AC001F00BC002F0DF
:1025C6000CC003F00DC004F01200033404340C6E8A
:1025D6000C50D8A409D0000E016E000E026E000E3B
:1025E600036E000E046E1200063407340B6E0B5099
:1025F600D8A409D0000E016E000E026E000E036E06
:10260600000E046E1200038EFF0E0116FF0E021658
:10261600FF0E0316000E0416068EFF0E0416FF0E9E
:102626000516FF0E0616000E0716000E076E000EA4
:10263600086E000E096E000E0A6E7F0E0C5E0B50C1
:10264600A00F0C5E200E0B6ED890073608360936A2
:102656000A360450015C05500258065003580750CC
:102666000458D8A009D00450015E0550025A0650FD
:10267600035A0750045A0780D890013602360336AB
:1026860004360B2EE1D70CAE16D00C50800A9F0FE5
:10269600D8B009D0000E016E000E026E000E036E59
:1026A600000E046E1200D8900A3209320832073240
:1026B6000C3EF9D715D01F0E0C640FD0000E016E1C
:1026C600000E026E000E036E000E046E1200D8900D
:1026D6000736083609360A360C060C50D8A4F7D742
:1026E60007C001F008C002F009C003F00AC004F0F8
:1026F600120017C01BF01C6A1D6A16341B3601E354
:102706001C801B501E6E1E50D8A407D0000E156EDE
:10271600000E166E000E176E12001AC01BF01C6A11
:102726001D6A19341B3601E31C801B50236E23508F
:10273600D8A407D0000E156E000E166E000E176E8A
:10274600120023507B0F1E2617C023F01A50231A9F
:10275600800E2316168E198EFF0E1816FF0E1916EA
:10276600000E1A16000E1F6E000E206E000E216E51
:10277600070E226E15A006D018501F2619502022CB
:102786001A502122D890173216321532D8901836A0
:1027960019361A36222EEED7090E226E15A006D04D
:1027A60018501F26195020221A502122D89017326D
:1027B60016321532D890213220321F32222EEED711
:1027C6001FC001F020C002F021C003F01EC004F0BB
:1027D60023C005F0E3EC14F001C015F002C016F0BA
:1027E60003C017F012002DC02FF0306A316A2C3466
:1027F6002F3601E330802F50396E3950D8A409D0D6
:10280600000E2B6E000E2C6E000E2D6E000E2E6E20
:102816001200170E2F6E2BC030F02CC031F02DC0D9
:1028260032F02F28336E04D0D89032323132303223
:10283600332EFAD73050346E2C8EFF0E2B16FF0E29
:102846002C16000E2D162B50356E2C50366E2D5034
:10285600376E386A8E0E395E39AE16D03950800A18
:102866008F0FD8B009D0000E2B6E000E2C6E000E06
:102876002D6E000E2E6E1200D89038323732363258
:102886003532393EF9D715D0170E39640FD0000E00
:102896002B6E000E2C6E000E2D6E000E2E6E12008C
:1028A600D890353636363736383639063950D8A4C4
:1028B600F7D73450D8B408D0381E371E361E356CBC
:1028C600000E36223722382235C02BF036C02CF0C7
:1028D60037C02DF038C02EF012002DC031F0326A0C
:1028E600336A2C34313601E332803150386E385039
:1028F600D8A407D0000E2B6E000E2C6E000E2D6E87
:10290600120030C031F0326A336A2F34313601E3B7
:1029160032803150396E3950D8A407D0000E2B6E54
:10292600000E2C6E000E2D6E1200000E356E000E7F
:10293600366E000E376E3950890F385E2DC039F06D
:102946003050391A800E39162C8EFF0E2B16FF0EBC
:102956002C16000E2D162F8EFF0E2E16FF0E2F167E
:10296600000E3016180E346ED89035363636373699
:102976002E502B5C2F502C5830502D58D8A007D0F5
:102986002E502B5E2F502C5A30502D5A3580D89011
:102996002B362C362D36342EE7D735C001F036C00F
:1029A60002F037C003F038C004F039C005F0E3EC9C
:1029B60014F001C02BF002C02CF003C02DF0120061
:1029C6000450D8B405D0015002100310D8A40CD07E
:1029D600000E016E000E026E000E036E1200042A37
:1029E600D890033202320132000E0114066E000E38
:1029F6000214076EFE0E0314086E06500710081028
:102A0600D8B40CD0ECD7042A010E0126000E0222FF
:102A1600000E0322D890033202320132000E011456
:102A2600066E000E0214076EFF0E0314086E0650A3
:102A360007100810D8B406D0E6D70406D890013699
:102A46000236033602BE03D0020E0460F6D704A097
:102A5600029ED8900432045003120550D8A4038E67
:102A660001C001F002C002F003C003F0120054AE30
:102A760016D052C058F053C059F054C05AF0581EE0
:102A8600591E5A1E582A000E59225A22000E582440
:102A9600526E000E5920536E800E5A20546E57AE59
:102AA60016D055C058F056C059F057C05AF0581EA7
:102AB600591E5A1E582A000E59225A22000E582410
:102AC600556E000E5920566E800E5A20576E000E17
:102AD600521A000E531A800E541A000E551A000E82
:102AE600561A800E571A5550525C56505358575026
:102AF6005458D8B002D0D8901200D8801200000ED8
:102B06000C6E0AAE06D0096C0A1ED8B00A2A010E4F
:102B16000C6E08AE06D0076C081ED8B0082A010E47
:102B26000C1A000E0E6E000E0D6E09500A10D8B467
:102B36001CD0010E0B6E04D0D89009360A360B2A2B
:102B46000AAEFAD7D8900D360E360950075C0A50F1
:102B56000858D8A005D00950075E0A50085A0D80BB
:102B6600D8900A3209320B2EEDD70C50D8B404D0C7
:102B76000D6C0E1ED8B00E2A0DC007F00EC008F060
:102B86001200000E096E000E0A6E000E0B6E000E8D
:102B96000C6E0550061007100810D8B42AD0010E86
:102BA6000D6E06D0D89005360636073608360D2A3D
:102BB60008AEF8D7D89009360A360B360C360550CB
:102BC600015C065002580750035808500458D8A014
:102BD60009D00550015E0650025A0750035A0850A4
:102BE600045A0980D89008320732063205320D2E73
:102BF600E1D709C001F00AC002F00BC003F00CC017
:102C060004F0120042EC18F0D9EC16F0010E5E6EDC
:102C1600000E5B6E800E5C6E3F0E5D6E140E5E6483
:102C260001D019D05BC015F05CC016F05DC017F07E
:102C36005E50A5EC17F009C018F00AC019F00BC0D9
:102C46001AF07CEC13F015C05BF016C05CF017C0F0
:102C56005DF05E2AE3D7B70E0001606F100E616F5C
:102C6600000E636F140E626F5BC064F05CC065F0AB
:102C76005DC066F063EC08F0FFD7000E066E02AE8C
:102C860006D0016C021ED8B0022A010E066E04AEF2
:102C960004D0036C041ED8B0042A03500410D8B420
:102CA60018D0010E056E04D0D89003360436052AD6
:102CB60004AEFAD70350015C04500258D8A004D0E1
:102CC6000350015E0450025AD89004320332052E96
:102CD600F1D70650D8B404D0016C021ED8B0022A2F
:102CE60001C001F002C002F01200125013101410BD
:102CF6001510D8B424D0010E166E06D0D890123610
:102D0600133614361536162A15AEF8D712500E5C41
:102D160013500F581450105815501158D8A008D0F9
:102D260012500E5E13500F5A1450105A1550115A65
:102D3600D8901532143213321232162EE7D70EC03F
:102D46000EF00FC00FF010C010F011C011F01200FD
:102D56008E0E426E06D0D8903D323C323B323A322D
:102D6600422A000E3A143E6E000E3B143F6E000ED1
:102D76003C14406EFF0E3D14416E3E503F10401015
:102D86004110D8A4E8D73AC001F03BC002F03CC0DD
:102D960003F042C004F0000E056EE3EC14F001C02F
:102DA6003AF002C03BF003C03CF0120092948984D2
:102DB600979C8E9C00D000D08E8C33EC18F00CECD7
:102DC60018F000EC18F0000E026E640E016ED7ECDF
:102DD60017F0380EB7EC17F00C0EB7EC17F0060E1E
:102DE600B7EC17F0010EB7EC17F0030E026EE80E03
:102DF600016ED7EC17F025EC17F01200096E09509A
:102E0600080DF3503F0B4009B7EC17F0000E0A6EA1
:102E1600070E0A6401D012000A50010D05C007F022
:102E260006C008F0F3500726F450082207C0F6FF44
:102E360008C0F7FF000EF86E0800F550C7EC17F053
:102E46000A2AE6D7000E0B6E070E0B6401D00DD0D2
:102E56000B50080D770EF324056E100EF420066E47
:102E66000B5001EC17F00B2AEFD7000E0B6E070E76
:102E76000B6401D012000B28056E010E18EC18F039
:102E86000B503AEC18F00B2AF2D755505610571043
:102E9600D8B406D0000E551A000E561A800E571AD0
:102EA60052C046F053C047F054C048F055C049F0F0
:102EB60056C04AF057C04BF079EC11F046C052F0BC
:102EC60047C053F048C054F01200076E0ED0010EF2
:102ED600B7EC17F01200000E056E010E18EC18F094
:102EE60012000750C7EC17F0120007500A0AD8B4B0
:102EF600F2D7060AD8B4EBD7F4D70F501102F3CFA6
:102F060013F0F4CF14F00F501202F35014261050A1
:102F16001102F350142613C00FF014C010F0120063
:102F2600435044104510D8B406D0000E431A000E84
:102F3600441A800E451A43C043F044C044F045C0CD
:102F460045F012000C6E0C50016E026A036A8E0E7A
:102F5600046E000E056EE3EC14F001C009F002C029
:102F66000AF003C00BF01200046E000EF3EC17F02B
:102F76000450E6EC17F0400EF3EC17F0000EF3ECFD
:102F860017F02CEC18F01200046E800EF3EC17F01C
:102F96000450E6EC17F0C00EF3EC17F0000EF3EC5D
:102FA60017F02CEC18F0120001500210D8B41200E1
:102FB600040E036E3E0EE82EFED7032EFCD7010646
:102FC600D8A00206F1D7026E8994400E23EC18F0C1
:102FD600130E23EC18F0025023EC18F0898412002B
:102FE600026E8994400E23EC18F0120E23EC18F0B2
:102FF600025023EC18F0898412008994400E23ECC9
:1030060018F0010E23EC18F0000E23EC18F089845A
:1030160012008994400E23EC18F0000E23EC18F0F1
:10302600000E23EC18F089841200066E0650D8B400
:1030360002D0400E052605508009B7EC17F01200A5
:10304600016E01C0C9FF9EA6FED79E96C9CF01F0AC
:103056001200000E026E020E016ED7EC17F012007F
:10306600949A9496200EC66EC78C9E961200086E91
:10307600085068EC17F01200000105EF16F00F0E6D
:04308600C16E120005
:020000040020DA
:08000000FFFFFFFFFFFFFFFF00
:020000040030CA
:0E000000FF021F1EF38381FFFFC0FFE0FF40E1
:00000001FF
