:0400000072EF00F0AB
:100018002580D8CF02F0E8CF03F0E0CF04F0FACF84
:1000280005F0FBCF06F0E9CF07F0EACF08F0E1CF03
:1000380009F0E2CF0AF0D9CF0BF0DACF0CF0F3CF0A
:100048000DF0F4CF0EF0F6CF0FF0F7CF10F0F8CF99
:1000580011F0F5CF12F025C013F026C014F027C018
:1000680015F028C016F09DBA9EAA0CD09E9AABCF68
:1000780001F0060E0116D8A403D05CEC09F002D0FA
:100088007CEC09F016C028F015C027F014C026F043
:1000980013C025F012C0F5FF11C0F8FF10C0F7FF1C
:1000A8000FC0F6FF0EC0F4FF0DC0F3FF0CC0DAFF5F
:1000B8000BC0D9FF0AC0E2FF09C0E1FF08C0EAFF90
:1000C80007C0E9FF06C0FBFF05C0FAFF04C0E0FF58
:1000D80003C0E8FF02C0D8FF2590100064EF09F0C4
:10100000000F0F0E1F0E0F0F001E1F0707071F1EDA
:10101000001C1C1C1F1F1C1C000707071F1F0707A5
:10102000001F1C1C1F1C1F1F00181C1C1E071F1E3E
:10103000001C1D1F1F1E1C1C001C1810181C0E0756
:1010400000009294979C89848E9C00D000D08E8C56
:101050006BEC09F014EC09F008EC09F0000E186EC6
:101060003C0E176EFCEC08F0300EB3EC08F0000EEE
:10107000186E290E176EFCEC08F0300EB3EC08F079
:10108000340EE82EFED700D0300EB3EC08F0380E48
:10109000B3EC08F00C0EB3EC08F0060EB3EC08F05D
:1010A00037EC09F079EC08F012001E6E1E50080DA6
:1010B000F3503F0B4009B3EC08F0000E1F6E070E13
:1010C0001F6401D012001F50010D1AC01CF01BC07C
:1010D0001DF0F3501C26F4501D221CC0F6FF1DC04D
:1010E000F7FF000EF86E0800F550C3EC08F01F2A59
:1010F000E6D7000E206E070E206401D00DD02050E0
:10110000080D010EF3241A6E100EF4201B6E2050F1
:1011100055EC08F0202AEFD7080E1A6E010E2CECC1
:1011200009F0000E206E070E206401D0120020503E
:1011300072EC09F0202AF7D71C6E0DD037EC09F0BD
:101140001200000E1A6E010E2CEC09F012001C5059
:10115000C3EC08F012001C500A0AD8B4F2D7060AF1
:10116000D8B4ECD7F4D7196E000EEFEC08F0195094
:10117000E2EC08F0400EEFEC08F0000EEFEC08F0A7
:1011800077EC09F01200196E800EEFEC08F01950A0
:10119000E2EC08F0C00EEFEC08F0000EEFEC08F007
:1011A00077EC09F01200240EAC6E400EAF6E900E7C
:1011B000AB6ED08E9F9A9E9A9D8AF28EF28C949CF2
:1011C000948E1200186E8994400E4BEC09F0130EA9
:1011D0004BEC09F018504BEC09F089841200186EA2
:1011E0008994400E4BEC09F0120E4BEC09F01850AC
:1011F0004BEC09F08984120017501810D8B4120073
:10120000530EE82EFED700F01706D8A01806F4D724
:101210008994400E4BEC09F0010E4BEC09F0000EE6
:101220004BEC09F0898412008994400E4BEC09F0D4
:10123000000E4BEC09F0000E4BEC09F08984120013
:101240000F0EC16E92500A0E226E010E216E000E1C
:10125000236E000E956E12001B6E1B50D8B402D088
:10126000400E1A261A508009B3EC08F01200010E45
:10127000B3EC08F0050E1A6ED00EE82EFED71A2E2B
:10128000FCD7120020EC09F0D3EC08F021EC08F0B8
:1012900054EC09F0FDD7176E17C0C9FF9EA6FED704
:1012A0009E96C9CF17F01200AECF23F0610E23181F
:1012B000D8A4120083801200AECF23F0610E231851
:1012C000D8A4120083801200246A236A25902592F4
:1012D000000142EF09F0949A9496200EC66EC78CD6
:1012E0009E9612001D6E1D509CEC08F012001F0E01
:1012F000E82EFED700D01200AB98AB888C681200A5
:020000040020DA
:08000000FFFFFFFFFFFFFFFF00
:020000040030CA
:0E000000FF021F1EF38381FFFFC0FFE0FF40E1
:00000001FF
