:020000040000FA
:0400000049EF00F0D4
:100018001D80D8CF09F0E8CF0AF0E0CF0BF0D9CF98
:100028000CF0DACF0DF0F6CF0EF0F7CF0FF0F8CFD7
:1000380010F0F5CF11F0010E9DA0000E9EA0000E4D
:10004800E8A004D0EFEC08F009EC08F0010EF2AAE1
:10005800000EF2A4000EE8A004D0E7EC08F009ECCA
:1000680008F011C0F5FF10C0F8FF0FC0F7FF0EC071
:10007800F6FF0DC0DAFF0CC0D9FF0BC0E0FF0AC0C5
:0E008800E8FF09C0D8FF1D901000B7EF08F088
:10100000003F065B4F666D7D077F6F777C395E79A9
:101010007100000E8A6E140E1C24D96EDA6A000E5E
:10102000DA22DF5083EC08F08C6E18501CC007F0F9
:10103000086A0726000E0822080E07180810D8A410
:1010400002D0010E1AD018501CC007F0086A0726FB
:10105000000E0822090E07180810D8A402D0020EAC
:101060000CD01C501824076E010E086E072A02D0FF
:10107000D8900836072EFCD708508A6E1C2A1CC050
:1010800001F0026A000E046E030E036E4BEC08F0D2
:1010900001501C6E1200000E066E02AE06D0016CEE
:1010A000021ED8B0022A010E066E04AE04D0036CF4
:1010B000041ED8B0042A03500410D8B418D0010E6E
:1010C000056E04D0D89003360436052A04AEFAD74C
:1010D0000350015C04500258D8A004D00350015EB4
:1010E0000450025AD89004320332052EF1D706502C
:1010F000D8B404D0016C021ED8B0022A01C001F09D
:1011000002C002F01200036E1F0E036402D0000E34
:101110001200100E036009D0010E0324F66EF76A68
:10112000100EF7220800F550120003500F0B016E4D
:10113000026A010E0124F66E100E0220F76E0800FE
:10114000F55080091200C6EC08F0D5EC08F0182A1A
:10115000070E18160D0E136EAF0E126EB60EE82E99
:10116000FED7122EFCD7132EFAD700D0F0D700EE00
:1011700014F0090EEE6AE806FDE11D901D92000EC6
:10118000F86E100EF76E0001A3EF08F0000E936EDC
:10119000000E956E000E1C6E000E186E010E146E81
:1011A000020E156E030E166E1200D08EF194F28AA6
:1011B000F28EF28C020ED56EDFEC08F01200F29483
:1011C000D59EFF0ED76E830ED66ED58E1200F2948A
:1011D000D59EFF0ED76E830ED66ED58E12009E90D2
:0E11E000CD909E0ECF6E580ECE6ECD801200BA
:020000040020DA
:08000000FFFFFFFFFFFFFFFF00
:020000040030CA
:0E000000FF021F1EF38381FFFFC0FFE0FF40E1
:00000001FF
