

Microchip MPLAB XC8 Assembler V2.05 build -831301201 
                                                                                               Tue Nov 05 14:28:40 2019

Microchip MPLAB XC8 C Compiler v2.05 (Free license) build 20181220022703 Og1 
     1                           	processor	18F8722
     2                           	fnconf	rparam,??,?,0
     3                           	opt	pw 120
     4                           	opt	flic
     5                           	psect	smallconst,global,reloc=2,class=SMALLCONST,delta=1,noexec
     6                           	psect	cinit,global,reloc=2,class=CODE,delta=1
     7                           	psect	bssCOMRAM,global,class=COMRAM,space=1,delta=1,noexec
     8                           	psect	cstackCOMRAM,global,class=COMRAM,space=1,delta=1,noexec
     9                           	psect	text0,global,reloc=2,class=CODE,delta=1
    10                           	psect	text1,global,reloc=2,class=CODE,delta=1
    11                           	psect	text2,global,reloc=2,class=CODE,delta=1
    12                           	psect	text3,global,reloc=2,class=CODE,delta=1
    13                           	psect	intcodelo,global,reloc=2,class=CODE,delta=1
    14                           	psect	text5,global,reloc=2,class=CODE,delta=1
    15                           	psect	text6,global,reloc=2,class=CODE,delta=1
    16                           	psect	text7,global,reloc=2,class=CODE,delta=1
    17                           	psect	text8,global,reloc=2,class=CODE,delta=1,group=1
    18                           	psect	text9,global,reloc=2,class=CODE,delta=1
    19                           	psect	intsave_regs,global,class=BIGRAM,space=1,delta=1,noexec
    20                           	psect	rparam,global,class=COMRAM,space=1,delta=1,noexec
    21                           	psect	temp,global,ovrld,common,class=COMRAM,space=1,delta=1
    22  0000                     
    23                           ; Version 2.05
    24                           ; Generated 20/12/2018 GMT
    25                           ; 
    26                           ; Copyright © 2018, Microchip Technology Inc. and its subsidiaries ("Microchip")
    27                           ; All rights reserved.
    28                           ; 
    29                           ; This software is developed by Microchip Technology Inc. and its subsidiaries ("Microch
      +                          ip").
    30                           ; 
    31                           ; Redistribution and use in source and binary forms, with or without modification, are
    32                           ; permitted provided that the following conditions are met:
    33                           ; 
    34                           ;     1. Redistributions of source code must retain the above copyright notice, this lis
      +                          t of
    35                           ;        conditions and the following disclaimer.
    36                           ; 
    37                           ;     2. Redistributions in binary form must reproduce the above copyright notice, this 
      +                          list
    38                           ;        of conditions and the following disclaimer in the documentation and/or other
    39                           ;        materials provided with the distribution.
    40                           ; 
    41                           ;     3. Microchip's name may not be used to endorse or promote products derived from th
      +                          is
    42                           ;        software without specific prior written permission.
    43                           ; 
    44                           ; THIS SOFTWARE IS PROVIDED BY MICROCHIP "AS IS" AND ANY EXPRESS OR IMPLIED WARRANTIES,
    45                           ; INCLUDING, BUT NOT LIMITED TO, THE IMPLIED WARRANTIES OF MERCHANTABILITY AND FITNESS F
      +                          OR
    46                           ; PURPOSE ARE DISCLAIMED.  IN NO EVENT SHALL MICROCHIP BE LIABLE FOR ANY DIRECT, INDIREC
      +                          T,
    47                           ; INCIDENTAL, SPECIAL, EXEMPLARY, OR CONSEQUENTIAL DAMAGES (INCLUDING BUT NOT LIMITED TO
    48                           ; PROCUREMENT OF SUBSTITUTE GOODS OR SERVICES; LOSS OF USE, DATA OR PROFITS; OR BUSINESS
    49                           ; INTERRUPTION) HOWSOEVER CAUSED AND ON ANY THEORY OF LIABILITY, WHETHER IN CONTRACT, ST
      +                          RICT
    50                           ; LIABILITY, OR TORT (INCLUDING NEGLIGENCE OR OTHERWISE) ARISING IN ANY WAY OUT OF THE U
      +                          SE OF
    51                           ; THIS SOFTWARE, EVEN IF ADVISED OF THE POSSIBILITY OF SUCH DAMAGE.
    52                           ; 
    53                           ; 
    54                           ; Code-generator required, PIC18F8722 Definitions
    55                           ; 
    56                           ; SFR Addresses
    57  0000                     
    58                           	psect	smallconst
    59  001000                     __psmallconst:
    60                           	opt callstack 0
    61  001000  00                 	db	0
    62  001001                     _dl7doan:
    63                           	opt callstack 0
    64  001001  3F                 	db	63
    65  001002  06                 	db	6
    66  001003  5B                 	db	91
    67  001004  4F                 	db	79
    68  001005  66                 	db	102
    69  001006  6D                 	db	109
    70  001007  7D                 	db	125
    71  001008  07                 	db	7
    72  001009  7F                 	db	127
    73  00100A  6F                 	db	111
    74  00100B  77                 	db	119
    75  00100C  7C                 	db	124
    76  00100D  39                 	db	57
    77  00100E  5E                 	db	94
    78  00100F  79                 	db	121
    79  001010  71                 	db	113
    80  001011                     __end_of_dl7doan:
    81                           	opt callstack 0
    82  0000                     _TMR0	set	4054
    83  0000                     _T1CON	set	4045
    84  0000                     _TMR1L	set	4046
    85  0000                     _TMR1H	set	4047
    86  0000                     _T0CON	set	4053
    87  0000                     _RCONbits	set	4048
    88  0000                     _TRISD	set	3989
    89  0000                     _TRISB	set	3987
    90  0000                     _LATD	set	3980
    91  0000                     _LATB	set	3978
    92  0000                     _TMR1IE	set	31976
    93  0000                     _TMR1IP	set	31992
    94  0000                     _TMR1ON	set	32360
    95  0000                     _TMR1IF	set	31984
    96  0000                     _GIEL	set	32662
    97  0000                     _GIEH	set	32663
    98  0000                     _TMR0IE	set	32661
    99  0000                     _TMR0IP	set	32650
   100  0000                     _TMR0ON	set	32431
   101  0000                     _TMR0IF	set	32658
   102                           
   103                           ; #config settings
   104  001011  00                 	db	0	; dummy byte at the end
   105  0000                     
   106                           	psect	cinit
   107  00116E                     __pcinit:
   108                           	opt callstack 0
   109  00116E                     start_initialization:
   110                           	opt callstack 0
   111  00116E                     __initialization:
   112                           	opt callstack 0
   113                           
   114                           ; Clear objects allocated to COMRAM (9 bytes)
   115  00116E  EE00  F014         	lfsr	0,__pbssCOMRAM
   116  001172  0E09               	movlw	9
   117  001174                     clear_0:
   118  001174  6AEE               	clrf	postinc0,c
   119  001176  06E8               	decf	wreg,f,c
   120  001178  E1FD               	bnz	clear_0
   121  00117A                     end_of_initialization:
   122                           	opt callstack 0
   123  00117A                     __end_of__initialization:
   124                           	opt callstack 0
   125  00117A  901D               	bcf	int$flags,0,c	;clear compiler interrupt flag (level 1)
   126  00117C  921D               	bcf	int$flags,1,c	;clear compiler interrupt flag (level 2)
   127  00117E  0E00               	movlw	low (__Lsmallconst shr (0+16))
   128  001180  6EF8               	movwf	tblptru,c
   129  001182  0E10               	movlw	high __Lsmallconst
   130  001184  6EF7               	movwf	tblptrh,c
   131  001186  0100               	movlb	0
   132  001188  EFA3  F008         	goto	_main	;jump to C main() function
   133                           
   134                           	psect	bssCOMRAM
   135  000014                     __pbssCOMRAM:
   136                           	opt callstack 0
   137  000014                     _dbuf:
   138                           	opt callstack 0
   139  000014                     	ds	3
   140  000017                     _select:
   141                           	opt callstack 0
   142  000017                     	ds	1
   143  000018                     _index:
   144                           	opt callstack 0
   145  000018                     	ds	1
   146  000019                     _row:
   147                           	opt callstack 0
   148  000019                     	ds	1
   149  00001A                     _rcol:
   150                           	opt callstack 0
   151  00001A                     	ds	1
   152  00001B                     _gcol:
   153                           	opt callstack 0
   154  00001B                     	ds	1
   155  00001C                     _selidx:
   156                           	opt callstack 0
   157  00001C                     	ds	1
   158                           
   159                           	psect	cstackCOMRAM
   160  000001                     __pcstackCOMRAM:
   161                           	opt callstack 0
   162  000001                     ??_gm_7doan:
   163  000001                     ?___awmod:
   164                           	opt callstack 0
   165  000001                     ___awmod@dividend:
   166                           	opt callstack 0
   167                           
   168                           ; 2 bytes @ 0x0
   169  000001                     	ds	2
   170  000003                     gm_7doan@so:
   171                           	opt callstack 0
   172  000003                     ___awmod@divisor:
   173                           	opt callstack 0
   174                           
   175                           ; 2 bytes @ 0x2
   176  000003                     	ds	2
   177  000005                     ___awmod@counter:
   178                           	opt callstack 0
   179                           
   180                           ; 1 bytes @ 0x4
   181  000005                     	ds	1
   182  000006                     ___awmod@sign:
   183                           	opt callstack 0
   184                           
   185                           ; 1 bytes @ 0x5
   186  000006                     	ds	1
   187  000007                     ??_timer_process:
   188                           
   189                           ; 1 bytes @ 0x6
   190  000007                     	ds	2
   191  000009                     ??_timer1_isr:
   192                           
   193                           ; 1 bytes @ 0x8
   194  000009                     	ds	9
   195  000012                     ??_main:
   196  000012                     
   197                           ; 1 bytes @ 0x11
   198  000012                     	ds	2
   199                           
   200 ;;
   201 ;;Main: autosize = 0, tempsize = 2, incstack = 0, save=0
   202 ;;
   203 ;; *************** function _main *****************
   204 ;; Defined at:
   205 ;;		line 127 in file "main.c"
   206 ;; Parameters:    Size  Location     Type
   207 ;;		None
   208 ;; Auto vars:     Size  Location     Type
   209 ;;		None
   210 ;; Return value:  Size  Location     Type
   211 ;;                  1    wreg      void 
   212 ;; Registers used:
   213 ;;		wreg, status,2, status,0, cstack
   214 ;; Tracked objects:
   215 ;;		On entry : 0/0
   216 ;;		On exit  : 0/0
   217 ;;		Unchanged: 0/0
   218 ;; Data sizes:     COMRAM   BANK0   BANK1   BANK2   BANK3   BANK4   BANK5   BANK6   BANK7   BANK8   BANK9  BANK10  BANK1
      +1  BANK12  BANK13  BANK14  BANK15
   219 ;;      Params:         0       0       0       0       0       0       0       0       0       0       0       0       
      +0       0       0       0       0
   220 ;;      Locals:         0       0       0       0       0       0       0       0       0       0       0       0       
      +0       0       0       0       0
   221 ;;      Temps:          2       0       0       0       0       0       0       0       0       0       0       0       
      +0       0       0       0       0
   222 ;;      Totals:         2       0       0       0       0       0       0       0       0       0       0       0       
      +0       0       0       0       0
   223 ;;Total ram usage:        2 bytes
   224 ;; Hardware stack levels required when called:    5
   225 ;; This function calls:
   226 ;;		_init
   227 ;;		_timer0_init
   228 ;; This function is called by:
   229 ;;		Startup code after reset
   230 ;; This function uses a non-reentrant model
   231 ;;
   232                           
   233                           	psect	text0
   234  001146                     __ptext0:
   235                           	opt callstack 0
   236  001146                     _main:
   237                           	opt callstack 26
   238                           
   239                           ;main.c: 128:     init();
   240                           
   241                           ;incstack = 0
   242  001146  ECC6  F008         	call	_init	;wreg free
   243                           
   244                           ;main.c: 129:     timer0_init();
   245  00114A  ECD5  F008         	call	_timer0_init	;wreg free
   246  00114E                     l878:
   247                           
   248                           ;main.c: 131:     {;main.c: 132:         index++;
   249  00114E  2A18               	incf	_index,f,c	;volatile
   250                           
   251                           ;main.c: 133:         index %= 8;
   252  001150  0E07               	movlw	7
   253  001152  1618               	andwf	_index,f,c	;volatile
   254                           
   255                           ;main.c: 134:         _delay((unsigned long)((1000)*(10000000/4000.0)));
   256  001154  0E0D               	movlw	13
   257  001156  6E13               	movwf	(??_main+1)& (0+255),c
   258  001158  0EAF               	movlw	175
   259  00115A  6E12               	movwf	??_main& (0+255),c
   260  00115C  0EB6               	movlw	182
   261  00115E                     u257:
   262  00115E  2EE8               	decfsz	wreg,f,c
   263  001160  D7FE               	bra	u257
   264  001162  2E12               	decfsz	??_main& (0+255),f,c
   265  001164  D7FC               	bra	u257
   266  001166  2E13               	decfsz	(??_main+1)& (0+255),f,c
   267  001168  D7FA               	bra	u257
   268  00116A  D000               	nop2	
   269  00116C  D7F0               	goto	l878
   270  00116E                     __end_of_main:
   271                           	opt callstack 0
   272                           
   273 ;; *************** function _timer0_init *****************
   274 ;; Defined at:
   275 ;;		line 17 in file "Timer.c"
   276 ;; Parameters:    Size  Location     Type
   277 ;;		None
   278 ;; Auto vars:     Size  Location     Type
   279 ;;		None
   280 ;; Return value:  Size  Location     Type
   281 ;;                  1    wreg      void 
   282 ;; Registers used:
   283 ;;		wreg, status,2, cstack
   284 ;; Tracked objects:
   285 ;;		On entry : 0/0
   286 ;;		On exit  : 0/0
   287 ;;		Unchanged: 0/0
   288 ;; Data sizes:     COMRAM   BANK0   BANK1   BANK2   BANK3   BANK4   BANK5   BANK6   BANK7   BANK8   BANK9  BANK10  BANK1
      +1  BANK12  BANK13  BANK14  BANK15
   289 ;;      Params:         0       0       0       0       0       0       0       0       0       0       0       0       
      +0       0       0       0       0
   290 ;;      Locals:         0       0       0       0       0       0       0       0       0       0       0       0       
      +0       0       0       0       0
   291 ;;      Temps:          0       0       0       0       0       0       0       0       0       0       0       0       
      +0       0       0       0       0
   292 ;;      Totals:         0       0       0       0       0       0       0       0       0       0       0       0       
      +0       0       0       0       0
   293 ;;Total ram usage:        0 bytes
   294 ;; Hardware stack levels used:    1
   295 ;; Hardware stack levels required when called:    4
   296 ;; This function calls:
   297 ;;		_timer0_reset
   298 ;; This function is called by:
   299 ;;		_main
   300 ;; This function uses a non-reentrant model
   301 ;;
   302                           
   303                           	psect	text1
   304  0011AA                     __ptext1:
   305                           	opt callstack 0
   306  0011AA                     _timer0_init:
   307                           	opt callstack 26
   308                           
   309                           ;Timer.c: 18:     RCONbits.IPEN = 1;
   310                           
   311                           ;incstack = 0
   312  0011AA  8ED0               	bsf	4048,7,c	;volatile
   313                           
   314                           ;Timer.c: 19:     TMR0IP = 0;
   315  0011AC  94F1               	bcf	4081,2,c	;volatile
   316                           
   317                           ;Timer.c: 20:     TMR0IE = 1;
   318  0011AE  8AF2               	bsf	4082,5,c	;volatile
   319                           
   320                           ;Timer.c: 21:     GIEH = 1;
   321  0011B0  8EF2               	bsf	4082,7,c	;volatile
   322                           
   323                           ;Timer.c: 22:     GIEL = 1;
   324  0011B2  8CF2               	bsf	4082,6,c	;volatile
   325                           
   326                           ;Timer.c: 23:     T0CON = 2;
   327  0011B4  0E02               	movlw	2
   328  0011B6  6ED5               	movwf	4053,c	;volatile
   329                           
   330                           ;Timer.c: 24:     timer0_reset();
   331  0011B8  ECDF  F008         	call	_timer0_reset	;wreg free
   332  0011BC  0012               	return		;funcret
   333  0011BE                     __end_of_timer0_init:
   334                           	opt callstack 0
   335                           
   336 ;; *************** function _timer0_reset *****************
   337 ;; Defined at:
   338 ;;		line 11 in file "Timer.c"
   339 ;; Parameters:    Size  Location     Type
   340 ;;		None
   341 ;; Auto vars:     Size  Location     Type
   342 ;;		None
   343 ;; Return value:  Size  Location     Type
   344 ;;                  1    wreg      void 
   345 ;; Registers used:
   346 ;;		wreg, status,2
   347 ;; Tracked objects:
   348 ;;		On entry : 0/0
   349 ;;		On exit  : 0/0
   350 ;;		Unchanged: 0/0
   351 ;; Data sizes:     COMRAM   BANK0   BANK1   BANK2   BANK3   BANK4   BANK5   BANK6   BANK7   BANK8   BANK9  BANK10  BANK1
      +1  BANK12  BANK13  BANK14  BANK15
   352 ;;      Params:         0       0       0       0       0       0       0       0       0       0       0       0       
      +0       0       0       0       0
   353 ;;      Locals:         0       0       0       0       0       0       0       0       0       0       0       0       
      +0       0       0       0       0
   354 ;;      Temps:          0       0       0       0       0       0       0       0       0       0       0       0       
      +0       0       0       0       0
   355 ;;      Totals:         0       0       0       0       0       0       0       0       0       0       0       0       
      +0       0       0       0       0
   356 ;;Total ram usage:        0 bytes
   357 ;; Hardware stack levels used:    1
   358 ;; Hardware stack levels required when called:    3
   359 ;; This function calls:
   360 ;;		Nothing
   361 ;; This function is called by:
   362 ;;		_timer0_init
   363 ;; This function uses a non-reentrant model
   364 ;;
   365                           
   366                           	psect	text2
   367  0011BE                     __ptext2:
   368                           	opt callstack 0
   369  0011BE                     _timer0_reset:
   370                           	opt callstack 26
   371                           
   372                           ;Timer.c: 12:     TMR0IF = 0;
   373                           
   374                           ;incstack = 0
   375  0011BE  94F2               	bcf	4082,2,c	;volatile
   376                           
   377                           ;Timer.c: 13:     TMR0ON = 0;
   378  0011C0  9ED5               	bcf	4053,7,c	;volatile
   379                           
   380                           ;Timer.c: 14:     TMR0 = -125;
   381  0011C2  0EFF               	movlw	255
   382  0011C4  6ED7               	movwf	4055,c	;volatile
   383  0011C6  0E83               	movlw	131
   384  0011C8  6ED6               	movwf	4054,c	;volatile
   385                           
   386                           ;Timer.c: 15:     TMR0ON = 1;
   387  0011CA  8ED5               	bsf	4053,7,c	;volatile
   388  0011CC  0012               	return		;funcret
   389  0011CE                     __end_of_timer0_reset:
   390                           	opt callstack 0
   391                           
   392 ;; *************** function _init *****************
   393 ;; Defined at:
   394 ;;		line 117 in file "main.c"
   395 ;; Parameters:    Size  Location     Type
   396 ;;		None
   397 ;; Auto vars:     Size  Location     Type
   398 ;;		None
   399 ;; Return value:  Size  Location     Type
   400 ;;                  1    wreg      void 
   401 ;; Registers used:
   402 ;;		wreg, status,2
   403 ;; Tracked objects:
   404 ;;		On entry : 0/0
   405 ;;		On exit  : 0/0
   406 ;;		Unchanged: 0/0
   407 ;; Data sizes:     COMRAM   BANK0   BANK1   BANK2   BANK3   BANK4   BANK5   BANK6   BANK7   BANK8   BANK9  BANK10  BANK1
      +1  BANK12  BANK13  BANK14  BANK15
   408 ;;      Params:         0       0       0       0       0       0       0       0       0       0       0       0       
      +0       0       0       0       0
   409 ;;      Locals:         0       0       0       0       0       0       0       0       0       0       0       0       
      +0       0       0       0       0
   410 ;;      Temps:          0       0       0       0       0       0       0       0       0       0       0       0       
      +0       0       0       0       0
   411 ;;      Totals:         0       0       0       0       0       0       0       0       0       0       0       0       
      +0       0       0       0       0
   412 ;;Total ram usage:        0 bytes
   413 ;; Hardware stack levels used:    1
   414 ;; Hardware stack levels required when called:    3
   415 ;; This function calls:
   416 ;;		Nothing
   417 ;; This function is called by:
   418 ;;		_main
   419 ;; This function uses a non-reentrant model
   420 ;;
   421                           
   422                           	psect	text3
   423  00118C                     __ptext3:
   424                           	opt callstack 0
   425  00118C                     _init:
   426                           	opt callstack 27
   427                           
   428                           ;main.c: 118:     TRISB = 0;
   429                           
   430                           ;incstack = 0
   431  00118C  0E00               	movlw	0
   432  00118E  6E93               	movwf	3987,c	;volatile
   433                           
   434                           ;main.c: 119:     TRISD = 0;
   435  001190  0E00               	movlw	0
   436  001192  6E95               	movwf	3989,c	;volatile
   437                           
   438                           ;main.c: 120:     selidx = 0;
   439  001194  0E00               	movlw	0
   440  001196  6E1C               	movwf	_selidx,c
   441                           
   442                           ;main.c: 121:     index = 0;
   443  001198  0E00               	movlw	0
   444  00119A  6E18               	movwf	_index,c	;volatile
   445                           
   446                           ;main.c: 122:     dbuf[0] = 1;
   447  00119C  0E01               	movlw	1
   448  00119E  6E14               	movwf	_dbuf,c
   449                           
   450                           ;main.c: 123:     dbuf[1] = 2;
   451  0011A0  0E02               	movlw	2
   452  0011A2  6E15               	movwf	_dbuf+1,c
   453                           
   454                           ;main.c: 124:     dbuf[2] = 3;
   455  0011A4  0E03               	movlw	3
   456  0011A6  6E16               	movwf	_dbuf+2,c
   457  0011A8  0012               	return		;funcret
   458  0011AA                     __end_of_init:
   459                           	opt callstack 0
   460                           
   461 ;; *************** function _timer1_isr *****************
   462 ;; Defined at:
   463 ;;		line 42 in file "Timer.c"
   464 ;; Parameters:    Size  Location     Type
   465 ;;		None
   466 ;; Auto vars:     Size  Location     Type
   467 ;;		None
   468 ;; Return value:  Size  Location     Type
   469 ;;                  1    wreg      void 
   470 ;; Registers used:
   471 ;;		wreg, fsr2l, fsr2h, status,2, status,0, tblptrl, tblptrh, tblptru, cstack
   472 ;; Tracked objects:
   473 ;;		On entry : 0/0
   474 ;;		On exit  : 0/0
   475 ;;		Unchanged: 0/0
   476 ;; Data sizes:     COMRAM   BANK0   BANK1   BANK2   BANK3   BANK4   BANK5   BANK6   BANK7   BANK8   BANK9  BANK10  BANK1
      +1  BANK12  BANK13  BANK14  BANK15
   477 ;;      Params:         0       0       0       0       0       0       0       0       0       0       0       0       
      +0       0       0       0       0
   478 ;;      Locals:         0       0       0       0       0       0       0       0       0       0       0       0       
      +0       0       0       0       0
   479 ;;      Temps:          9       0       0       0       0       0       0       0       0       0       0       0       
      +0       0       0       0       0
   480 ;;      Totals:         9       0       0       0       0       0       0       0       0       0       0       0       
      +0       0       0       0       0
   481 ;;Total ram usage:        9 bytes
   482 ;; Hardware stack levels used:    1
   483 ;; Hardware stack levels required when called:    2
   484 ;; This function calls:
   485 ;;		_timer1_reset
   486 ;;		_timer_process
   487 ;;		i1_timer0_reset
   488 ;; This function is called by:
   489 ;;		Interrupt level 1
   490 ;; This function uses a non-reentrant model
   491 ;;
   492                           
   493                           	psect	intcodelo
   494  000018                     __pintcodelo:
   495                           	opt callstack 0
   496  000018                     _timer1_isr:
   497                           	opt callstack 26
   498                           
   499                           ;incstack = 0
   500  000018  801D               	bsf	btemp,0,c	;set compiler interrupt flag (level 1)
   501  00001A  CFD8 F009          	movff	status,??_timer1_isr
   502  00001E  CFE8 F00A          	movff	wreg,??_timer1_isr+1
   503  000022  CFE0 F00B          	movff	bsr,??_timer1_isr+2
   504  000026  CFD9 F00C          	movff	fsr2l,??_timer1_isr+3
   505  00002A  CFDA F00D          	movff	fsr2h,??_timer1_isr+4
   506  00002E  CFF6 F00E          	movff	tblptrl,??_timer1_isr+5
   507  000032  CFF7 F00F          	movff	tblptrh,??_timer1_isr+6
   508  000036  CFF8 F010          	movff	tblptru,??_timer1_isr+7
   509  00003A  CFF5 F011          	movff	tablat,??_timer1_isr+8
   510                           
   511                           ;Timer.c: 43:     if(TMR1IE & TMR1IF){
   512  00003E  0E01               	movlw	1
   513  000040  A09D               	btfss	3997,0,c	;volatile
   514  000042  0E00               	movlw	0
   515  000044  A09E               	btfss	3998,0,c	;volatile
   516  000046  0E00               	movlw	0
   517  000048  A0E8               	btfss	wreg,0,c
   518  00004A  D004               	goto	i1l962
   519                           
   520                           ;Timer.c: 44:         timer1_reset();
   521  00004C  ECEF  F008         	call	_timer1_reset	;wreg free
   522                           
   523                           ;Timer.c: 45:         timer_process();
   524  000050  EC09  F008         	call	_timer_process	;wreg free
   525  000054                     i1l962:
   526                           
   527                           ;Timer.c: 47:     if(TMR0IE & TMR0IF){
   528  000054  0E01               	movlw	1
   529  000056  AAF2               	btfss	4082,5,c	;volatile
   530  000058  0E00               	movlw	0
   531  00005A  A4F2               	btfss	4082,2,c	;volatile
   532  00005C  0E00               	movlw	0
   533  00005E  A0E8               	btfss	wreg,0,c
   534  000060  D004               	goto	i1l104
   535                           
   536                           ;Timer.c: 48:         timer0_reset();
   537  000062  ECE7  F008         	call	i1_timer0_reset	;wreg free
   538                           
   539                           ;Timer.c: 49:         timer_process();
   540  000066  EC09  F008         	call	_timer_process	;wreg free
   541  00006A                     i1l104:
   542  00006A  C011  FFF5         	movff	??_timer1_isr+8,tablat
   543  00006E  C010  FFF8         	movff	??_timer1_isr+7,tblptru
   544  000072  C00F  FFF7         	movff	??_timer1_isr+6,tblptrh
   545  000076  C00E  FFF6         	movff	??_timer1_isr+5,tblptrl
   546  00007A  C00D  FFDA         	movff	??_timer1_isr+4,fsr2h
   547  00007E  C00C  FFD9         	movff	??_timer1_isr+3,fsr2l
   548  000082  C00B  FFE0         	movff	??_timer1_isr+2,bsr
   549  000086  C00A  FFE8         	movff	??_timer1_isr+1,wreg
   550  00008A  C009  FFD8         	movff	??_timer1_isr,status
   551  00008E  901D               	bcf	btemp,0,c	;clear compiler interrupt flag (level 1)
   552  000090  0010               	retfie	
   553  000092                     __end_of_timer1_isr:
   554                           	opt callstack 0
   555                           
   556 ;; *************** function i1_timer0_reset *****************
   557 ;; Defined at:
   558 ;;		line 11 in file "Timer.c"
   559 ;; Parameters:    Size  Location     Type
   560 ;;		None
   561 ;; Auto vars:     Size  Location     Type
   562 ;;		None
   563 ;; Return value:  Size  Location     Type
   564 ;;                  1    wreg      void 
   565 ;; Registers used:
   566 ;;		wreg, status,2
   567 ;; Tracked objects:
   568 ;;		On entry : 0/0
   569 ;;		On exit  : 0/0
   570 ;;		Unchanged: 0/0
   571 ;; Data sizes:     COMRAM   BANK0   BANK1   BANK2   BANK3   BANK4   BANK5   BANK6   BANK7   BANK8   BANK9  BANK10  BANK1
      +1  BANK12  BANK13  BANK14  BANK15
   572 ;;      Params:         0       0       0       0       0       0       0       0       0       0       0       0       
      +0       0       0       0       0
   573 ;;      Locals:         0       0       0       0       0       0       0       0       0       0       0       0       
      +0       0       0       0       0
   574 ;;      Temps:          0       0       0       0       0       0       0       0       0       0       0       0       
      +0       0       0       0       0
   575 ;;      Totals:         0       0       0       0       0       0       0       0       0       0       0       0       
      +0       0       0       0       0
   576 ;;Total ram usage:        0 bytes
   577 ;; Hardware stack levels used:    1
   578 ;; This function calls:
   579 ;;		Nothing
   580 ;; This function is called by:
   581 ;;		_timer1_isr
   582 ;; This function uses a non-reentrant model
   583 ;;
   584                           
   585                           	psect	text5
   586  0011CE                     __ptext5:
   587                           	opt callstack 0
   588  0011CE                     i1_timer0_reset:
   589                           	opt callstack 27
   590                           
   591                           ;Timer.c: 12:     TMR0IF = 0;
   592                           
   593                           ;incstack = 0
   594  0011CE  94F2               	bcf	4082,2,c	;volatile
   595                           
   596                           ;Timer.c: 13:     TMR0ON = 0;
   597  0011D0  9ED5               	bcf	4053,7,c	;volatile
   598                           
   599                           ;Timer.c: 14:     TMR0 = -125;
   600  0011D2  0EFF               	movlw	255
   601  0011D4  6ED7               	movwf	4055,c	;volatile
   602  0011D6  0E83               	movlw	131
   603  0011D8  6ED6               	movwf	4054,c	;volatile
   604                           
   605                           ;Timer.c: 15:     TMR0ON = 1;
   606  0011DA  8ED5               	bsf	4053,7,c	;volatile
   607  0011DC  0012               	return		;funcret
   608  0011DE                     __end_ofi1_timer0_reset:
   609                           	opt callstack 0
   610                           
   611 ;; *************** function _timer_process *****************
   612 ;; Defined at:
   613 ;;		line 101 in file "main.c"
   614 ;; Parameters:    Size  Location     Type
   615 ;;		None
   616 ;; Auto vars:     Size  Location     Type
   617 ;;		None
   618 ;; Return value:  Size  Location     Type
   619 ;;                  1    wreg      void 
   620 ;; Registers used:
   621 ;;		wreg, fsr2l, fsr2h, status,2, status,0, tblptrl, tblptrh, tblptru, cstack
   622 ;; Tracked objects:
   623 ;;		On entry : 0/0
   624 ;;		On exit  : 0/0
   625 ;;		Unchanged: 0/0
   626 ;; Data sizes:     COMRAM   BANK0   BANK1   BANK2   BANK3   BANK4   BANK5   BANK6   BANK7   BANK8   BANK9  BANK10  BANK1
      +1  BANK12  BANK13  BANK14  BANK15
   627 ;;      Params:         0       0       0       0       0       0       0       0       0       0       0       0       
      +0       0       0       0       0
   628 ;;      Locals:         0       0       0       0       0       0       0       0       0       0       0       0       
      +0       0       0       0       0
   629 ;;      Temps:          2       0       0       0       0       0       0       0       0       0       0       0       
      +0       0       0       0       0
   630 ;;      Totals:         2       0       0       0       0       0       0       0       0       0       0       0       
      +0       0       0       0       0
   631 ;;Total ram usage:        2 bytes
   632 ;; Hardware stack levels used:    1
   633 ;; Hardware stack levels required when called:    1
   634 ;; This function calls:
   635 ;;		___awmod
   636 ;;		_gm_7doan
   637 ;; This function is called by:
   638 ;;		_timer1_isr
   639 ;; This function uses a non-reentrant model
   640 ;;
   641                           
   642                           	psect	text6
   643  001012                     __ptext6:
   644                           	opt callstack 0
   645  001012                     _timer_process:
   646                           	opt callstack 26
   647                           
   648                           ;main.c: 102:     LATB = 0;
   649                           
   650                           ;incstack = 0
   651  001012  0E00               	movlw	0
   652  001014  6E8A               	movwf	3978,c	;volatile
   653                           
   654                           ;main.c: 103:     LATD = gm_7doan(dbuf[selidx]);
   655  001016  0E14               	movlw	low _dbuf
   656  001018  241C               	addwf	_selidx,w,c
   657  00101A  6ED9               	movwf	fsr2l,c
   658  00101C  6ADA               	clrf	fsr2h,c
   659  00101E  0E00               	movlw	high _dbuf
   660  001020  22DA               	addwfc	fsr2h,f,c
   661  001022  50DF               	movf	indf2,w,c
   662  001024  EC83  F008         	call	_gm_7doan
   663  001028  6E8C               	movwf	3980,c	;volatile
   664                           
   665                           ;main.c: 104:     if (selidx + index == 8)
   666  00102A  5018               	movf	_index,w,c	;volatile
   667  00102C  C01C  F007         	movff	_selidx,??_timer_process
   668  001030  6A08               	clrf	(??_timer_process+1)& (0+255),c
   669  001032  2607               	addwf	??_timer_process,f,c
   670  001034  0E00               	movlw	0
   671  001036  2208               	addwfc	??_timer_process+1,f,c
   672  001038  0E08               	movlw	8
   673  00103A  1807               	xorwf	??_timer_process,w,c
   674  00103C  1008               	iorwf	??_timer_process+1,w,c
   675  00103E  A4D8               	btfss	status,2,c
   676  001040  D002               	goto	i1l946
   677                           
   678                           ;main.c: 105:         LATB = 1;
   679  001042  0E01               	movlw	1
   680  001044  D01A               	goto	L1
   681  001046                     i1l946:
   682  001046  5018               	movf	_index,w,c	;volatile
   683  001048  C01C  F007         	movff	_selidx,??_timer_process
   684  00104C  6A08               	clrf	(??_timer_process+1)& (0+255),c
   685  00104E  2607               	addwf	??_timer_process,f,c
   686  001050  0E00               	movlw	0
   687  001052  2208               	addwfc	??_timer_process+1,f,c
   688  001054  0E09               	movlw	9
   689  001056  1807               	xorwf	??_timer_process,w,c
   690  001058  1008               	iorwf	??_timer_process+1,w,c
   691  00105A  A4D8               	btfss	status,2,c
   692  00105C  D002               	goto	i1l950
   693                           
   694                           ;main.c: 107:         LATB = 2;
   695  00105E  0E02               	movlw	2
   696  001060  D00C               	goto	L1
   697  001062                     i1l950:
   698                           
   699                           ;main.c: 109:         LATB = 1 << selidx + index;
   700  001062  501C               	movf	_selidx,w,c
   701  001064  2418               	addwf	_index,w,c	;volatile
   702  001066  6E07               	movwf	??_timer_process& (0+255),c
   703  001068  0E01               	movlw	1
   704  00106A  6E08               	movwf	(??_timer_process+1)& (0+255),c
   705  00106C  2A07               	incf	??_timer_process,f,c
   706  00106E  D002               	goto	i1u22_24
   707  001070                     i1u22_25:
   708  001070  90D8               	bcf	status,0,c
   709  001072  3608               	rlcf	??_timer_process+1,f,c
   710  001074                     i1u22_24:
   711  001074  2E07               	decfsz	??_timer_process,f,c
   712  001076  D7FC               	goto	i1u22_25
   713  001078  5008               	movf	??_timer_process+1,w,c
   714  00107A                     L1:
   715  00107A  6E8A               	movwf	3978,c	;volatile
   716                           
   717                           ;main.c: 110:     selidx++;
   718  00107C  2A1C               	incf	_selidx,f,c
   719                           
   720                           ;main.c: 114:     selidx %= 3;
   721  00107E  C01C  F001         	movff	_selidx,___awmod@dividend
   722  001082  6A02               	clrf	___awmod@dividend+1,c
   723  001084  0E00               	movlw	0
   724  001086  6E04               	movwf	___awmod@divisor+1,c
   725  001088  0E03               	movlw	3
   726  00108A  6E03               	movwf	___awmod@divisor,c
   727  00108C  EC4B  F008         	call	___awmod	;wreg free
   728  001090  5001               	movf	?___awmod,w,c
   729  001092  6E1C               	movwf	_selidx,c
   730  001094  0012               	return		;funcret
   731  001096                     __end_of_timer_process:
   732                           	opt callstack 0
   733                           
   734 ;; *************** function _gm_7doan *****************
   735 ;; Defined at:
   736 ;;		line 95 in file "main.c"
   737 ;; Parameters:    Size  Location     Type
   738 ;;  so              1    wreg     unsigned char 
   739 ;; Auto vars:     Size  Location     Type
   740 ;;  so              1    2[COMRAM] unsigned char 
   741 ;; Return value:  Size  Location     Type
   742 ;;                  1    wreg      unsigned char 
   743 ;; Registers used:
   744 ;;		wreg, status,2, status,0, tblptrl, tblptrh, tblptru
   745 ;; Tracked objects:
   746 ;;		On entry : 0/0
   747 ;;		On exit  : 0/0
   748 ;;		Unchanged: 0/0
   749 ;; Data sizes:     COMRAM   BANK0   BANK1   BANK2   BANK3   BANK4   BANK5   BANK6   BANK7   BANK8   BANK9  BANK10  BANK1
      +1  BANK12  BANK13  BANK14  BANK15
   750 ;;      Params:         0       0       0       0       0       0       0       0       0       0       0       0       
      +0       0       0       0       0
   751 ;;      Locals:         1       0       0       0       0       0       0       0       0       0       0       0       
      +0       0       0       0       0
   752 ;;      Temps:          2       0       0       0       0       0       0       0       0       0       0       0       
      +0       0       0       0       0
   753 ;;      Totals:         3       0       0       0       0       0       0       0       0       0       0       0       
      +0       0       0       0       0
   754 ;;Total ram usage:        3 bytes
   755 ;; Hardware stack levels used:    1
   756 ;; This function calls:
   757 ;;		Nothing
   758 ;; This function is called by:
   759 ;;		_timer_process
   760 ;; This function uses a non-reentrant model
   761 ;;
   762                           
   763                           	psect	text7
   764  001106                     __ptext7:
   765                           	opt callstack 0
   766  001106                     _gm_7doan:
   767                           	opt callstack 26
   768                           
   769                           ;incstack = 0
   770                           ;gm_7doan@so stored from wreg
   771  001106  6E03               	movwf	gm_7doan@so,c
   772                           
   773                           ;main.c: 96:     if (so > 0x1F) return 0;
   774  001108  0E1F               	movlw	31
   775  00110A  6403               	cpfsgt	gm_7doan@so,c
   776  00110C  D002               	goto	i1l786
   777  00110E  0E00               	movlw	0
   778  001110  0012               	return	
   779  001112                     i1l786:
   780                           
   781                           ;main.c: 97:     if (so < 0x10) return dl7doan[so];
   782  001112  0E10               	movlw	16
   783  001114  6003               	cpfslt	gm_7doan@so,c
   784  001116  D009               	goto	i1l792
   785  001118  0E01               	movlw	low _dl7doan
   786  00111A  2403               	addwf	gm_7doan@so,w,c
   787  00111C  6EF6               	movwf	tblptrl,c
   788  00111E  6AF7               	clrf	tblptrh,c
   789  001120  0E10               	movlw	high _dl7doan
   790  001122  22F7               	addwfc	tblptrh,f,c
   791  001124                     	if	0	;There are less than 3 active tblptr bytes
   792  001124                     	endif
   793  001124  0008               	tblrd		*
   794  001126  50F5               	movf	tablat,w,c
   795  001128  0012               	return	
   796  00112A                     i1l792:
   797                           
   798                           ;main.c: 98:     return dl7doan[so&0x0f]|0x80;
   799  00112A  5003               	movf	gm_7doan@so,w,c
   800  00112C  0B0F               	andlw	15
   801  00112E  6E01               	movwf	??_gm_7doan& (0+255),c
   802  001130  6A02               	clrf	(??_gm_7doan+1)& (0+255),c
   803  001132  0E01               	movlw	low _dl7doan
   804  001134  2401               	addwf	??_gm_7doan,w,c
   805  001136  6EF6               	movwf	tblptrl,c
   806  001138  0E10               	movlw	high _dl7doan
   807  00113A  2002               	addwfc	??_gm_7doan+1,w,c
   808  00113C  6EF7               	movwf	tblptrh,c
   809  00113E                     	if	0	;There are less than 3 active tblptr bytes
   810  00113E                     	endif
   811  00113E  0008               	tblrd		*
   812  001140  50F5               	movf	tablat,w,c
   813  001142  0980               	iorlw	128
   814  001144  0012               	return		;funcret
   815  001146                     __end_of_gm_7doan:
   816                           	opt callstack 0
   817                           
   818 ;; *************** function ___awmod *****************
   819 ;; Defined at:
   820 ;;		line 7 in file "C:\Program Files (x86)\Microchip\xc8\v2.05\pic\sources\c99\common\awmod.c"
   821 ;; Parameters:    Size  Location     Type
   822 ;;  dividend        2    0[COMRAM] int 
   823 ;;  divisor         2    2[COMRAM] int 
   824 ;; Auto vars:     Size  Location     Type
   825 ;;  sign            1    5[COMRAM] unsigned char 
   826 ;;  counter         1    4[COMRAM] unsigned char 
   827 ;; Return value:  Size  Location     Type
   828 ;;                  2    0[COMRAM] int 
   829 ;; Registers used:
   830 ;;		wreg, status,2, status,0
   831 ;; Tracked objects:
   832 ;;		On entry : 0/0
   833 ;;		On exit  : 0/0
   834 ;;		Unchanged: 0/0
   835 ;; Data sizes:     COMRAM   BANK0   BANK1   BANK2   BANK3   BANK4   BANK5   BANK6   BANK7   BANK8   BANK9  BANK10  BANK1
      +1  BANK12  BANK13  BANK14  BANK15
   836 ;;      Params:         4       0       0       0       0       0       0       0       0       0       0       0       
      +0       0       0       0       0
   837 ;;      Locals:         2       0       0       0       0       0       0       0       0       0       0       0       
      +0       0       0       0       0
   838 ;;      Temps:          0       0       0       0       0       0       0       0       0       0       0       0       
      +0       0       0       0       0
   839 ;;      Totals:         6       0       0       0       0       0       0       0       0       0       0       0       
      +0       0       0       0       0
   840 ;;Total ram usage:        6 bytes
   841 ;; Hardware stack levels used:    1
   842 ;; This function calls:
   843 ;;		Nothing
   844 ;; This function is called by:
   845 ;;		_timer_process
   846 ;; This function uses a non-reentrant model
   847 ;;
   848                           
   849                           	psect	text8
   850  001096                     __ptext8:
   851                           	opt callstack 0
   852  001096                     ___awmod:
   853                           	opt callstack 26
   854                           
   855                           ;incstack = 0
   856  001096  0E00               	movlw	0
   857  001098  6E06               	movwf	___awmod@sign,c
   858  00109A  AE02               	btfss	___awmod@dividend+1,7,c
   859  00109C  D006               	goto	i1l910
   860  00109E  6C01               	negf	___awmod@dividend,c
   861  0010A0  1E02               	comf	___awmod@dividend+1,f,c
   862  0010A2  B0D8               	btfsc	status,0,c
   863  0010A4  2A02               	incf	___awmod@dividend+1,f,c
   864  0010A6  0E01               	movlw	1
   865  0010A8  6E06               	movwf	___awmod@sign,c
   866  0010AA                     i1l910:
   867  0010AA  AE04               	btfss	___awmod@divisor+1,7,c
   868  0010AC  D004               	goto	i1l914
   869  0010AE  6C03               	negf	___awmod@divisor,c
   870  0010B0  1E04               	comf	___awmod@divisor+1,f,c
   871  0010B2  B0D8               	btfsc	status,0,c
   872  0010B4  2A04               	incf	___awmod@divisor+1,f,c
   873  0010B6                     i1l914:
   874  0010B6  5003               	movf	___awmod@divisor,w,c
   875  0010B8  1004               	iorwf	___awmod@divisor+1,w,c
   876  0010BA  B4D8               	btfsc	status,2,c
   877  0010BC  D018               	goto	i1l930
   878  0010BE  0E01               	movlw	1
   879  0010C0  6E05               	movwf	___awmod@counter,c
   880  0010C2  D004               	goto	i1l920
   881  0010C4                     i1l918:
   882  0010C4  90D8               	bcf	status,0,c
   883  0010C6  3603               	rlcf	___awmod@divisor,f,c
   884  0010C8  3604               	rlcf	___awmod@divisor+1,f,c
   885  0010CA  2A05               	incf	___awmod@counter,f,c
   886  0010CC                     i1l920:
   887  0010CC  AE04               	btfss	___awmod@divisor+1,7,c
   888  0010CE  D7FA               	goto	i1l918
   889  0010D0                     i1u17_20:
   890  0010D0  5003               	movf	___awmod@divisor,w,c
   891  0010D2  5C01               	subwf	___awmod@dividend,w,c
   892  0010D4  5004               	movf	___awmod@divisor+1,w,c
   893  0010D6  5802               	subwfb	___awmod@dividend+1,w,c
   894  0010D8  A0D8               	btfss	status,0,c
   895  0010DA  D004               	goto	i1l926
   896  0010DC  5003               	movf	___awmod@divisor,w,c
   897  0010DE  5E01               	subwf	___awmod@dividend,f,c
   898  0010E0  5004               	movf	___awmod@divisor+1,w,c
   899  0010E2  5A02               	subwfb	___awmod@dividend+1,f,c
   900  0010E4                     i1l926:
   901  0010E4  90D8               	bcf	status,0,c
   902  0010E6  3204               	rrcf	___awmod@divisor+1,f,c
   903  0010E8  3203               	rrcf	___awmod@divisor,f,c
   904  0010EA  2E05               	decfsz	___awmod@counter,f,c
   905  0010EC  D7F1               	goto	i1u17_20
   906  0010EE                     i1l930:
   907  0010EE  5006               	movf	___awmod@sign,w,c
   908  0010F0  B4D8               	btfsc	status,2,c
   909  0010F2  D004               	goto	i1l934
   910  0010F4  6C01               	negf	___awmod@dividend,c
   911  0010F6  1E02               	comf	___awmod@dividend+1,f,c
   912  0010F8  B0D8               	btfsc	status,0,c
   913  0010FA  2A02               	incf	___awmod@dividend+1,f,c
   914  0010FC                     i1l934:
   915  0010FC  C001  F001         	movff	___awmod@dividend,?___awmod
   916  001100  C002  F002         	movff	___awmod@dividend+1,?___awmod+1
   917  001104  0012               	return		;funcret
   918  001106                     __end_of___awmod:
   919                           	opt callstack 0
   920                           
   921 ;; *************** function _timer1_reset *****************
   922 ;; Defined at:
   923 ;;		line 26 in file "Timer.c"
   924 ;; Parameters:    Size  Location     Type
   925 ;;		None
   926 ;; Auto vars:     Size  Location     Type
   927 ;;		None
   928 ;; Return value:  Size  Location     Type
   929 ;;                  1    wreg      void 
   930 ;; Registers used:
   931 ;;		wreg, status,2
   932 ;; Tracked objects:
   933 ;;		On entry : 0/0
   934 ;;		On exit  : 0/0
   935 ;;		Unchanged: 0/0
   936 ;; Data sizes:     COMRAM   BANK0   BANK1   BANK2   BANK3   BANK4   BANK5   BANK6   BANK7   BANK8   BANK9  BANK10  BANK1
      +1  BANK12  BANK13  BANK14  BANK15
   937 ;;      Params:         0       0       0       0       0       0       0       0       0       0       0       0       
      +0       0       0       0       0
   938 ;;      Locals:         0       0       0       0       0       0       0       0       0       0       0       0       
      +0       0       0       0       0
   939 ;;      Temps:          0       0       0       0       0       0       0       0       0       0       0       0       
      +0       0       0       0       0
   940 ;;      Totals:         0       0       0       0       0       0       0       0       0       0       0       0       
      +0       0       0       0       0
   941 ;;Total ram usage:        0 bytes
   942 ;; Hardware stack levels used:    1
   943 ;; This function calls:
   944 ;;		Nothing
   945 ;; This function is called by:
   946 ;;		_timer1_isr
   947 ;;		_timer1_init
   948 ;; This function uses a non-reentrant model
   949 ;;
   950                           
   951                           	psect	text9
   952  0011DE                     __ptext9:
   953                           	opt callstack 0
   954  0011DE                     _timer1_reset:
   955                           	opt callstack 27
   956                           
   957                           ;Timer.c: 27:     TMR1IF = 0;
   958                           
   959                           ;incstack = 0
   960  0011DE  909E               	bcf	3998,0,c	;volatile
   961                           
   962                           ;Timer.c: 28:     TMR1ON = 0;
   963  0011E0  90CD               	bcf	4045,0,c	;volatile
   964                           
   965                           ;Timer.c: 29:     TMR1H = 0x9E;
   966  0011E2  0E9E               	movlw	158
   967  0011E4  6ECF               	movwf	4047,c	;volatile
   968                           
   969                           ;Timer.c: 30:     TMR1L = 0x58;
   970  0011E6  0E58               	movlw	88
   971  0011E8  6ECE               	movwf	4046,c	;volatile
   972                           
   973                           ;Timer.c: 31:     TMR1ON = 1;
   974  0011EA  80CD               	bsf	4045,0,c	;volatile
   975  0011EC  0012               	return		;funcret
   976  0011EE                     __end_of_timer1_reset:
   977                           	opt callstack 0
   978                           
   979                           	psect	rparam
   980  0000                     
   981                           	psect	temp
   982  00001D                     btemp:
   983                           	opt callstack 0
   984  00001D                     	ds	1
   985  0000                     int$flags	set	btemp
   986  0000                     wtemp8	set	btemp+1
   987  0000                     ttemp5	set	btemp+1
   988  0000                     ttemp6	set	btemp+4
   989  0000                     ttemp7	set	btemp+8
   990                           tosu	equ	0xFFF
   991                           tosh	equ	0xFFE
   992                           tosl	equ	0xFFD
   993                           stkptr	equ	0xFFC
   994                           pclatu	equ	0xFFB
   995                           pclath	equ	0xFFA
   996                           pcl	equ	0xFF9
   997                           tblptru	equ	0xFF8
   998                           tblptrh	equ	0xFF7
   999                           tblptrl	equ	0xFF6
  1000                           tablat	equ	0xFF5
  1001                           prodh	equ	0xFF4
  1002                           prodl	equ	0xFF3
  1003                           indf0	equ	0xFEF
  1004                           postinc0	equ	0xFEE
  1005                           postdec0	equ	0xFED
  1006                           preinc0	equ	0xFEC
  1007                           plusw0	equ	0xFEB
  1008                           fsr0h	equ	0xFEA
  1009                           fsr0l	equ	0xFE9
  1010                           wreg	equ	0xFE8
  1011                           indf1	equ	0xFE7
  1012                           postinc1	equ	0xFE6
  1013                           postdec1	equ	0xFE5
  1014                           preinc1	equ	0xFE4
  1015                           plusw1	equ	0xFE3
  1016                           fsr1h	equ	0xFE2
  1017                           fsr1l	equ	0xFE1
  1018                           bsr	equ	0xFE0
  1019                           indf2	equ	0xFDF
  1020                           postinc2	equ	0xFDE
  1021                           postdec2	equ	0xFDD
  1022                           preinc2	equ	0xFDC
  1023                           plusw2	equ	0xFDB
  1024                           fsr2h	equ	0xFDA
  1025                           fsr2l	equ	0xFD9
  1026                           status	equ	0xFD8


Data Sizes:
    Strings     0
    Constant    16
    Data        0
    BSS         9
    Persistent  0
    Stack       0

Auto Spaces:
    Space          Size  Autos    Used
    COMRAM           94     19      28
    BANK0           160      0       0
    BANK1           256      0       0
    BANK2           256      0       0
    BANK3           256      0       0
    BANK4           256      0       0
    BANK5           256      0       0
    BANK6           256      0       0
    BANK7           256      0       0
    BANK8           256      0       0
    BANK9           256      0       0
    BANK10          256      0       0
    BANK11          256      0       0
    BANK12          256      0       0
    BANK13          256      0       0
    BANK14          256      0       0
    BANK15           96      0       0

Pointer List with Targets:

    None.

Critical Paths under _main in COMRAM

    None.

Critical Paths under _timer1_isr in COMRAM

    _timer1_isr->_timer_process
    _timer_process->___awmod

Critical Paths under _main in BANK0

    None.

Critical Paths under _timer1_isr in BANK0

    None.

Critical Paths under _main in BANK1

    None.

Critical Paths under _timer1_isr in BANK1

    None.

Critical Paths under _main in BANK2

    None.

Critical Paths under _timer1_isr in BANK2

    None.

Critical Paths under _main in BANK3

    None.

Critical Paths under _timer1_isr in BANK3

    None.

Critical Paths under _main in BANK4

    None.

Critical Paths under _timer1_isr in BANK4

    None.

Critical Paths under _main in BANK5

    None.

Critical Paths under _timer1_isr in BANK5

    None.

Critical Paths under _main in BANK6

    None.

Critical Paths under _timer1_isr in BANK6

    None.

Critical Paths under _main in BANK7

    None.

Critical Paths under _timer1_isr in BANK7

    None.

Critical Paths under _main in BANK8

    None.

Critical Paths under _timer1_isr in BANK8

    None.

Critical Paths under _main in BANK9

    None.

Critical Paths under _timer1_isr in BANK9

    None.

Critical Paths under _main in BANK10

    None.

Critical Paths under _timer1_isr in BANK10

    None.

Critical Paths under _main in BANK11

    None.

Critical Paths under _timer1_isr in BANK11

    None.

Critical Paths under _main in BANK12

    None.

Critical Paths under _timer1_isr in BANK12

    None.

Critical Paths under _main in BANK13

    None.

Critical Paths under _timer1_isr in BANK13

    None.

Critical Paths under _main in BANK14

    None.

Critical Paths under _timer1_isr in BANK14

    None.

Critical Paths under _main in BANK15

    None.

Critical Paths under _timer1_isr in BANK15

    None.

Call Graph Tables:

 ---------------------------------------------------------------------------------
 (Depth) Function   	        Calls       Base Space   Used Autos Params    Refs
 ---------------------------------------------------------------------------------
 (0) _main                                                 2     2      0       0
                                             17 COMRAM     2     2      0
                               _init
                        _timer0_init
 ---------------------------------------------------------------------------------
 (1) _timer0_init                                          0     0      0       0
                       _timer0_reset
 ---------------------------------------------------------------------------------
 (2) _timer0_reset                                         0     0      0       0
 ---------------------------------------------------------------------------------
 (1) _init                                                 0     0      0       0
 ---------------------------------------------------------------------------------
 Estimated maximum stack depth 2
 ---------------------------------------------------------------------------------
 (Depth) Function   	        Calls       Base Space   Used Autos Params    Refs
 ---------------------------------------------------------------------------------
 (3) _timer1_isr                                           9     9      0     508
                                              8 COMRAM     9     9      0
                       _timer1_reset
                      _timer_process
                     i1_timer0_reset
 ---------------------------------------------------------------------------------
 (4) i1_timer0_reset                                       0     0      0       0
 ---------------------------------------------------------------------------------
 (4) _timer_process                                        2     2      0     508
                                              6 COMRAM     2     2      0
                            ___awmod
                           _gm_7doan
 ---------------------------------------------------------------------------------
 (5) _gm_7doan                                             3     3      0      60
                                              0 COMRAM     3     3      0
 ---------------------------------------------------------------------------------
 (5) ___awmod                                              6     2      4     448
                                              0 COMRAM     6     2      4
 ---------------------------------------------------------------------------------
 (4) _timer1_reset                                         0     0      0       0
 ---------------------------------------------------------------------------------
 Estimated maximum stack depth 5
 ---------------------------------------------------------------------------------

 Call Graph Graphs:

 _main (ROOT)
   _init
   _timer0_init
     _timer0_reset

 _timer1_isr (ROOT)
   _timer1_reset
   _timer_process
     ___awmod
     _gm_7doan
   i1_timer0_reset

 Address spaces:
Name               Size   Autos  Total    Cost      Usage
BIGRAM             F5F      0       0      37        0.0%
EEDATA             400      0       0       0        0.0%
BITBANK14          100      0       0      33        0.0%
BANK14             100      0       0      34        0.0%
BITBANK13          100      0       0      30        0.0%
BANK13             100      0       0      31        0.0%
BITBANK12          100      0       0      28        0.0%
BANK12             100      0       0      29        0.0%
BITBANK11          100      0       0      26        0.0%
BANK11             100      0       0      27        0.0%
BITBANK10          100      0       0      24        0.0%
BANK10             100      0       0      25        0.0%
BITBANK9           100      0       0      22        0.0%
BANK9              100      0       0      23        0.0%
BITBANK8           100      0       0      20        0.0%
BANK8              100      0       0      21        0.0%
BITBANK7           100      0       0      18        0.0%
BANK7              100      0       0      19        0.0%
BITBANK6           100      0       0      16        0.0%
BANK6              100      0       0      17        0.0%
BITBANK5           100      0       0      14        0.0%
BANK5              100      0       0      15        0.0%
BITBANK4           100      0       0      12        0.0%
BANK4              100      0       0      13        0.0%
BITBANK3           100      0       0      10        0.0%
BANK3              100      0       0      11        0.0%
BITBANK2           100      0       0       8        0.0%
BANK2              100      0       0       9        0.0%
BITBANK1           100      0       0       6        0.0%
BANK1              100      0       0       7        0.0%
BITBANK0            A0      0       0       4        0.0%
BANK0               A0      0       0       5        0.0%
BITBANK15           60      0       0      35        0.0%
BANK15              60      0       0      36        0.0%
BITCOMRAM           5E      0       0       0        0.0%
COMRAM              5E     13      1C       1       29.8%
BITSFR               0      0       0     200        0.0%
SFR                  0      0       0     200        0.0%
STACK                0      0       0       2        0.0%
NULL                 0      0       0       0        0.0%
ABS                  0      0      1C      32        0.0%
DATA                 0      0      1C       3        0.0%
CODE                 0      0       0       0        0.0%


Microchip Technology PIC18 Macro Assembler V2.05 build -831301201 
Symbol Table                                                                                   Tue Nov 05 14:28:40 2019

                     bsr 000FE0              __CFG_BORV$3 000000             __CFG_CP0$OFF 000000  
           __CFG_CP1$OFF 000000             __CFG_CP2$OFF 000000             __CFG_CP3$OFF 000000  
            __CFG_OSC$HS 000000             __CFG_CP4$OFF 000000             __CFG_CP5$OFF 000000  
           __CFG_CP6$OFF 000000             __CFG_CP7$OFF 000000   __end_ofi1_timer0_reset 11DE  
                    l878 114E             __CFG_CPB$OFF 000000                      u257 115E  
           __CFG_CPD$OFF 000000                      _row 0019             ___awmod@sign 0006  
                    wreg 000FE8             __CFG_MODE$MC 000000             __CFG_LVP$OFF 000000  
           __CFG_WDT$OFF 000000                     _GIEH 007F97                     _GIEL 007F96  
                   _LATB 000F8A                     _LATD 000F8C                     _TMR0 000FD6  
                   _dbuf 0014                     _gcol 001B                     _main 1146  
                   _init 118C                     _rcol 001A                     fsr2h 000FDA  
                   indf2 000FDF                     fsr2l 000FD9                     btemp 001D  
                   start 0092            __CFG_IESO$OFF 000000            __CFG_MCLRE$ON 000000  
           ___param_bank 000000          ??_timer_process 0007            __CFG_WAIT$OFF 000000  
        __end_of_dl7doan 1011                    ?_main 0001                    ?_init 0001  
        ?i1_timer0_reset 0001          __end_of___awmod 1106                    _T0CON 000FD5  
                  _T1CON 000FCD                    i1l104 006A                    i1l910 10AA  
                  i1l920 10CC                    i1l930 10EE                    i1l914 10B6  
                  i1l934 10FC                    i1l926 10E4                    i1l918 10C4  
                  i1l950 1062                    i1l792 112A                    i1l786 1112  
                  i1l946 1046                    i1l962 0054                    _TMR1H 000FCF  
                  _TMR1L 000FCE                    _TRISB 000F93                    _TRISD 000F95  
          __CFG_PWRT$OFF 000000            __CFG_WRT0$OFF 000000            __CFG_WRT1$OFF 000000  
          __CFG_WRT2$OFF 000000            __CFG_WRT3$OFF 000000            __CFG_WRT4$OFF 000000  
          __CFG_WRT5$OFF 000000            __CFG_WRT6$OFF 000000            __CFG_WRT7$OFF 000000  
         __CFG_EBTR0$OFF 000000           __CFG_FCMEN$OFF 000000           __CFG_EBTR1$OFF 000000  
         __CFG_EBTR2$OFF 000000           __CFG_EBTR3$OFF 000000           __CFG_EBTR4$OFF 000000  
         __CFG_EBTR5$OFF 000000           __CFG_EBTR6$OFF 000000           __CFG_EBTR7$OFF 000000  
          __CFG_WRTB$OFF 000000            __CFG_WRTC$OFF 000000            __CFG_WRTD$OFF 000000  
         __CFG_EBTRB$OFF 000000                    _index 0018                    tablat 000FF5  
                  ttemp5 001E                    ttemp6 0021                    ttemp7 0025  
                  status 000FD8                    wtemp8 001E          __initialization 116E  
           __end_of_main 116E             __end_of_init 11AA                   ??_main 0012  
                 ??_init 0012            __activetblptr 000001          __CFG_BBSIZ$BB2K 000000  
                 _TMR0IE 007F95                   _TMR0IF 007F92                   _TMR1IE 007CE8  
                 _TMR1IF 007CF0                   _TMR0IP 007F8A                   _TMR1IP 007CF8  
                 _TMR0ON 007EAF                   _TMR1ON 007E68         __end_of_gm_7doan 1146  
         __CFG_XINST$OFF 000000           __CFG_STVREN$ON 000000                ??___awmod 0005  
           ?_timer0_init 0001                   clear_0 1174          ___awmod@divisor 0003  
                 _select 0017                   _selidx 001C          ___awmod@counter 0005  
           __mediumconst 0000                   tblptrh 000FF7                   tblptrl 000FF6  
                 tblptru 000FF8               __accesstop 0060  __end_of__initialization 117A  
          ___rparam_used 000001           __pcstackCOMRAM 0001         ??i1_timer0_reset 0001  
              ?_gm_7doan 0001                  i1u22_24 1074                  i1u22_25 1070  
                i1u17_20 10D0                  __Hparam 0000                  __Lparam 0000  
             gm_7doan@so 0003                  _dl7doan 1001                  ___awmod 1096  
           __psmallconst 1000                  __pcinit 116E                  __ramtop 1000  
   __size_of_timer0_init 0014            ?_timer0_reset 0001                  __ptext0 1146  
                __ptext1 11AA                  __ptext2 11BE                  __ptext3 118C  
                __ptext5 11CE                  __ptext6 1012                  __ptext7 1106  
                __ptext8 1096                  __ptext9 11DE            ?_timer1_reset 0001  
  __end_of_timer_process 1096               ??_gm_7doan 0001         ___awmod@dividend 0001  
   end_of_initialization 117A               _timer1_isr 0018                  postinc0 000FEE  
         ??_timer0_reset 0012           ??_timer1_reset 0001      start_initialization 116E  
            ?_timer1_isr 0001         __CFG_LPT1OSC$OFF 000000              __pbssCOMRAM 0014  
      __size_of_gm_7doan 0040     __end_of_timer0_reset 11CE     __end_of_timer1_reset 11EE  
      __CFG_CCP2MX$PORTC 000000                 ?___awmod 0001              __pintcodelo 0018  
            __smallconst 1000      __size_of_timer1_isr 007A    __CFG_DATABW$DATA16BIT 000000  
               _RCONbits 000FD0         __CFG_WDTPS$32768 000000            ??_timer0_init 0012  
      __CFG_ECCPMX$PORTE 000000  __size_ofi1_timer0_reset 0010   __size_of_timer_process 0084  
               __Hrparam 0000                 __Lrparam 0000             __Lsmallconst 1000  
     __CFG_BOREN$SBORDIS 000000         __size_of___awmod 0070      __end_of_timer0_init 11BE  
               _gm_7doan 1106    __size_of_timer0_reset 0010    __size_of_timer1_reset 0010  
          __size_of_main 0028            __size_of_init 001E             ??_timer1_isr 0009  
               int$flags 001D             _timer0_reset 11BE             _timer1_reset 11DE  
  __CFG_ADDRBW$ADDR20BIT 000000            _timer_process 1012                 intlevel1 0000  
     __end_of_timer1_isr 0092              _timer0_init 11AA           ?_timer_process 0001  
         i1_timer0_reset 11CE  
