

Microchip MPLAB XC8 Assembler V2.05 build -831301201 
                                                                                               Tue Nov 05 13:59:37 2019

Microchip MPLAB XC8 C Compiler v2.05 (Free license) build 20181220022703 Og1 
     1                           	processor	18F8722
     2                           	fnconf	rparam,??,?,0
     3                           	opt	pw 120
     4                           	opt	flic
     5                           	psect	smallconst,global,reloc=2,class=SMALLCONST,delta=1,noexec
     6                           	psect	cinit,global,reloc=2,class=CODE,delta=1
     7                           	psect	bssCOMRAM,global,class=COMRAM,space=1,delta=1,noexec
     8                           	psect	cstackCOMRAM,global,class=COMRAM,space=1,delta=1,noexec
     9                           	psect	text0,global,reloc=2,class=CODE,delta=1
    10                           	psect	text1,global,reloc=2,class=CODE,delta=1
    11                           	psect	text2,global,reloc=2,class=CODE,delta=1
    12                           	psect	text3,global,reloc=2,class=CODE,delta=1
    13                           	psect	text4,global,reloc=2,class=CODE,delta=1
    14                           	psect	text5,global,reloc=2,class=CODE,delta=1
    15                           	psect	intcodelo,global,reloc=2,class=CODE,delta=1
    16                           	psect	text7,global,reloc=2,class=CODE,delta=1
    17                           	psect	text8,global,reloc=2,class=CODE,delta=1
    18                           	psect	text9,global,reloc=2,class=CODE,delta=1
    19                           	psect	text10,global,reloc=2,class=CODE,delta=1
    20                           	psect	text11,global,reloc=2,class=CODE,delta=1
    21                           	psect	text12,global,reloc=2,class=CODE,delta=1,group=1
    22                           	psect	text13,global,reloc=2,class=CODE,delta=1,group=1
    23                           	psect	intsave_regs,global,class=BIGRAM,space=1,delta=1,noexec
    24                           	psect	rparam,global,class=COMRAM,space=1,delta=1,noexec
    25                           	psect	temp,global,ovrld,common,class=COMRAM,space=1,delta=1
    26  0000                     
    27                           ; Version 2.05
    28                           ; Generated 20/12/2018 GMT
    29                           ; 
    30                           ; Copyright © 2018, Microchip Technology Inc. and its subsidiaries ("Microchip")
    31                           ; All rights reserved.
    32                           ; 
    33                           ; This software is developed by Microchip Technology Inc. and its subsidiaries ("Microch
      +                          ip").
    34                           ; 
    35                           ; Redistribution and use in source and binary forms, with or without modification, are
    36                           ; permitted provided that the following conditions are met:
    37                           ; 
    38                           ;     1. Redistributions of source code must retain the above copyright notice, this lis
      +                          t of
    39                           ;        conditions and the following disclaimer.
    40                           ; 
    41                           ;     2. Redistributions in binary form must reproduce the above copyright notice, this 
      +                          list
    42                           ;        of conditions and the following disclaimer in the documentation and/or other
    43                           ;        materials provided with the distribution.
    44                           ; 
    45                           ;     3. Microchip's name may not be used to endorse or promote products derived from th
      +                          is
    46                           ;        software without specific prior written permission.
    47                           ; 
    48                           ; THIS SOFTWARE IS PROVIDED BY MICROCHIP "AS IS" AND ANY EXPRESS OR IMPLIED WARRANTIES,
    49                           ; INCLUDING, BUT NOT LIMITED TO, THE IMPLIED WARRANTIES OF MERCHANTABILITY AND FITNESS F
      +                          OR
    50                           ; PURPOSE ARE DISCLAIMED.  IN NO EVENT SHALL MICROCHIP BE LIABLE FOR ANY DIRECT, INDIREC
      +                          T,
    51                           ; INCIDENTAL, SPECIAL, EXEMPLARY, OR CONSEQUENTIAL DAMAGES (INCLUDING BUT NOT LIMITED TO
    52                           ; PROCUREMENT OF SUBSTITUTE GOODS OR SERVICES; LOSS OF USE, DATA OR PROFITS; OR BUSINESS
    53                           ; INTERRUPTION) HOWSOEVER CAUSED AND ON ANY THEORY OF LIABILITY, WHETHER IN CONTRACT, ST
      +                          RICT
    54                           ; LIABILITY, OR TORT (INCLUDING NEGLIGENCE OR OTHERWISE) ARISING IN ANY WAY OUT OF THE U
      +                          SE OF
    55                           ; THIS SOFTWARE, EVEN IF ADVISED OF THE POSSIBILITY OF SUCH DAMAGE.
    56                           ; 
    57                           ; 
    58                           ; Code-generator required, PIC18F8722 Definitions
    59                           ; 
    60                           ; SFR Addresses
    61  0000                     
    62                           	psect	smallconst
    63  001000                     __psmallconst:
    64                           	opt callstack 0
    65  001000  00                 	db	0
    66  001001                     _dl7doan:
    67                           	opt callstack 0
    68  001001  3F                 	db	63
    69  001002  06                 	db	6
    70  001003  5B                 	db	91
    71  001004  4F                 	db	79
    72  001005  66                 	db	102
    73  001006  6D                 	db	109
    74  001007  7D                 	db	125
    75  001008  07                 	db	7
    76  001009  7F                 	db	127
    77  00100A  6F                 	db	111
    78  00100B  77                 	db	119
    79  00100C  7C                 	db	124
    80  00100D  39                 	db	57
    81  00100E  5E                 	db	94
    82  00100F  79                 	db	121
    83  001010  71                 	db	113
    84  001011                     __end_of_dl7doan:
    85                           	opt callstack 0
    86  0000                     _TMR0	set	4054
    87  0000                     _T1CON	set	4045
    88  0000                     _TMR1L	set	4046
    89  0000                     _TMR1H	set	4047
    90  0000                     _T0CON	set	4053
    91  0000                     _RCONbits	set	4048
    92  0000                     _TRISD	set	3989
    93  0000                     _TRISB	set	3987
    94  0000                     _PORTD	set	3971
    95  0000                     _PORTB	set	3969
    96  0000                     _TMR1IE	set	31976
    97  0000                     _TMR1IP	set	31992
    98  0000                     _TMR1ON	set	32360
    99  0000                     _TMR1IF	set	31984
   100  0000                     _GIEL	set	32662
   101  0000                     _GIEH	set	32663
   102  0000                     _TMR0IE	set	32661
   103  0000                     _TMR0IP	set	32650
   104  0000                     _TMR0ON	set	32431
   105  0000                     _TMR0IF	set	32658
   106                           
   107                           ; #config settings
   108  001011  00                 	db	0	; dummy byte at the end
   109  0000                     
   110                           	psect	cinit
   111  00129C                     __pcinit:
   112                           	opt callstack 0
   113  00129C                     start_initialization:
   114                           	opt callstack 0
   115  00129C                     __initialization:
   116                           	opt callstack 0
   117                           
   118                           ; Clear objects allocated to COMRAM (17 bytes)
   119  00129C  EE00  F018         	lfsr	0,__pbssCOMRAM
   120  0012A0  0E11               	movlw	17
   121  0012A2                     clear_0:
   122  0012A2  6AEE               	clrf	postinc0,c
   123  0012A4  06E8               	decf	wreg,f,c
   124  0012A6  E1FD               	bnz	clear_0
   125  0012A8                     end_of_initialization:
   126                           	opt callstack 0
   127  0012A8                     __end_of__initialization:
   128                           	opt callstack 0
   129  0012A8  9029               	bcf	int$flags,0,c	;clear compiler interrupt flag (level 1)
   130  0012AA  9229               	bcf	int$flags,1,c	;clear compiler interrupt flag (level 2)
   131  0012AC  0E00               	movlw	low (__Lsmallconst shr (0+16))
   132  0012AE  6EF8               	movwf	tblptru,c
   133  0012B0  0E10               	movlw	high __Lsmallconst
   134  0012B2  6EF7               	movwf	tblptrh,c
   135  0012B4  0100               	movlb	0
   136  0012B6  EFA0  F009         	goto	_main	;jump to C main() function
   137                           
   138                           	psect	bssCOMRAM
   139  000018                     __pbssCOMRAM:
   140                           	opt callstack 0
   141  000018                     _dbuf:
   142                           	opt callstack 0
   143  000018                     	ds	8
   144  000020                     _select:
   145                           	opt callstack 0
   146  000020                     	ds	1
   147  000021                     _gio:
   148                           	opt callstack 0
   149  000021                     	ds	1
   150  000022                     _phut:
   151                           	opt callstack 0
   152  000022                     	ds	1
   153  000023                     _giay:
   154                           	opt callstack 0
   155  000023                     	ds	1
   156  000024                     _index:
   157                           	opt callstack 0
   158  000024                     	ds	1
   159  000025                     _row:
   160                           	opt callstack 0
   161  000025                     	ds	1
   162  000026                     _rcol:
   163                           	opt callstack 0
   164  000026                     	ds	1
   165  000027                     _gcol:
   166                           	opt callstack 0
   167  000027                     	ds	1
   168  000028                     _selidx:
   169                           	opt callstack 0
   170  000028                     	ds	1
   171                           
   172                           	psect	cstackCOMRAM
   173  000001                     __pcstackCOMRAM:
   174                           	opt callstack 0
   175  000001                     ??_gm_7doan:
   176  000001                     ?___awmod:
   177                           	opt callstack 0
   178  000001                     ___awmod@dividend:
   179                           	opt callstack 0
   180                           
   181                           ; 2 bytes @ 0x0
   182  000001                     	ds	2
   183  000003                     gm_7doan@so:
   184                           	opt callstack 0
   185  000003                     ___awmod@divisor:
   186                           	opt callstack 0
   187                           
   188                           ; 2 bytes @ 0x2
   189  000003                     	ds	1
   190  000004                     ??_timer_process:
   191                           
   192                           ; 1 bytes @ 0x3
   193  000004                     	ds	1
   194  000005                     ___awmod@counter:
   195                           	opt callstack 0
   196                           
   197                           ; 1 bytes @ 0x4
   198  000005                     	ds	1
   199  000006                     ___awmod@sign:
   200                           	opt callstack 0
   201                           
   202                           ; 1 bytes @ 0x5
   203  000006                     	ds	1
   204  000007                     ?___awdiv:
   205                           	opt callstack 0
   206  000007                     ___awdiv@dividend:
   207                           	opt callstack 0
   208                           
   209                           ; 2 bytes @ 0x6
   210  000007                     	ds	2
   211  000009                     ___awdiv@divisor:
   212                           	opt callstack 0
   213                           
   214                           ; 2 bytes @ 0x8
   215  000009                     	ds	2
   216  00000B                     ___awdiv@counter:
   217                           	opt callstack 0
   218                           
   219                           ; 1 bytes @ 0xA
   220  00000B                     	ds	1
   221  00000C                     ___awdiv@sign:
   222                           	opt callstack 0
   223                           
   224                           ; 1 bytes @ 0xB
   225  00000C                     	ds	1
   226  00000D                     ___awdiv@quotient:
   227                           	opt callstack 0
   228                           
   229                           ; 2 bytes @ 0xC
   230  00000D                     	ds	2
   231  00000F                     ??_timer1_isr:
   232                           
   233                           ; 1 bytes @ 0xE
   234  00000F                     	ds	9
   235  000018                     
   236                           ; 1 bytes @ 0x17
   237 ;;
   238 ;;Main: autosize = 0, tempsize = 0, incstack = 0, save=0
   239 ;;
   240 ;; *************** function _main *****************
   241 ;; Defined at:
   242 ;;		line 146 in file "main.c"
   243 ;; Parameters:    Size  Location     Type
   244 ;;		None
   245 ;; Auto vars:     Size  Location     Type
   246 ;;		None
   247 ;; Return value:  Size  Location     Type
   248 ;;                  1    wreg      void 
   249 ;; Registers used:
   250 ;;		wreg, status,2, cstack
   251 ;; Tracked objects:
   252 ;;		On entry : 0/0
   253 ;;		On exit  : 0/0
   254 ;;		Unchanged: 0/0
   255 ;; Data sizes:     COMRAM   BANK0   BANK1   BANK2   BANK3   BANK4   BANK5   BANK6   BANK7   BANK8   BANK9  BANK10  BANK1
      +1  BANK12  BANK13  BANK14  BANK15
   256 ;;      Params:         0       0       0       0       0       0       0       0       0       0       0       0       
      +0       0       0       0       0
   257 ;;      Locals:         0       0       0       0       0       0       0       0       0       0       0       0       
      +0       0       0       0       0
   258 ;;      Temps:          0       0       0       0       0       0       0       0       0       0       0       0       
      +0       0       0       0       0
   259 ;;      Totals:         0       0       0       0       0       0       0       0       0       0       0       0       
      +0       0       0       0       0
   260 ;;Total ram usage:        0 bytes
   261 ;; Hardware stack levels required when called:    5
   262 ;; This function calls:
   263 ;;		_init
   264 ;;		_timer0_init
   265 ;;		_timer1_init
   266 ;; This function is called by:
   267 ;;		Startup code after reset
   268 ;; This function uses a non-reentrant model
   269 ;;
   270                           
   271                           	psect	text0
   272  001340                     __ptext0:
   273                           	opt callstack 0
   274  001340                     _main:
   275                           	opt callstack 26
   276                           
   277                           ;main.c: 147:     init();
   278                           
   279                           ;incstack = 0
   280  001340  EC5D  F009         	call	_init	;wreg free
   281                           
   282                           ;main.c: 148:     timer0_init();
   283  001344  EC76  F009         	call	_timer0_init	;wreg free
   284                           
   285                           ;main.c: 149:     timer1_init();
   286  001348  EC6C  F009         	call	_timer1_init	;wreg free
   287  00134C                     l57:
   288  00134C  D7FF               	goto	l57
   289  00134E                     __end_of_main:
   290                           	opt callstack 0
   291                           
   292 ;; *************** function _timer1_init *****************
   293 ;; Defined at:
   294 ;;		line 33 in file "Timer.c"
   295 ;; Parameters:    Size  Location     Type
   296 ;;		None
   297 ;; Auto vars:     Size  Location     Type
   298 ;;		None
   299 ;; Return value:  Size  Location     Type
   300 ;;                  1    wreg      void 
   301 ;; Registers used:
   302 ;;		wreg, status,2, cstack
   303 ;; Tracked objects:
   304 ;;		On entry : 0/0
   305 ;;		On exit  : 0/0
   306 ;;		Unchanged: 0/0
   307 ;; Data sizes:     COMRAM   BANK0   BANK1   BANK2   BANK3   BANK4   BANK5   BANK6   BANK7   BANK8   BANK9  BANK10  BANK1
      +1  BANK12  BANK13  BANK14  BANK15
   308 ;;      Params:         0       0       0       0       0       0       0       0       0       0       0       0       
      +0       0       0       0       0
   309 ;;      Locals:         0       0       0       0       0       0       0       0       0       0       0       0       
      +0       0       0       0       0
   310 ;;      Temps:          0       0       0       0       0       0       0       0       0       0       0       0       
      +0       0       0       0       0
   311 ;;      Totals:         0       0       0       0       0       0       0       0       0       0       0       0       
      +0       0       0       0       0
   312 ;;Total ram usage:        0 bytes
   313 ;; Hardware stack levels used:    1
   314 ;; Hardware stack levels required when called:    4
   315 ;; This function calls:
   316 ;;		_timer1_reset
   317 ;; This function is called by:
   318 ;;		_main
   319 ;; This function uses a non-reentrant model
   320 ;;
   321                           
   322                           	psect	text1
   323  0012D8                     __ptext1:
   324                           	opt callstack 0
   325  0012D8                     _timer1_init:
   326                           	opt callstack 26
   327                           
   328                           ;Timer.c: 34:     RCONbits.IPEN = 1;
   329                           
   330                           ;incstack = 0
   331  0012D8  8ED0               	bsf	4048,7,c	;volatile
   332                           
   333                           ;Timer.c: 35:     TMR1IP = 0;
   334  0012DA  909F               	bcf	3999,0,c	;volatile
   335                           
   336                           ;Timer.c: 36:     TMR1IE = 1;
   337  0012DC  809D               	bsf	3997,0,c	;volatile
   338                           
   339                           ;Timer.c: 37:     GIEH = 1;
   340  0012DE  8EF2               	bsf	4082,7,c	;volatile
   341                           
   342                           ;Timer.c: 38:     GIEL = 1;
   343  0012E0  8CF2               	bsf	4082,6,c	;volatile
   344                           
   345                           ;Timer.c: 39:     T1CON = 0b00110001;
   346  0012E2  0E31               	movlw	49
   347  0012E4  6ECD               	movwf	4045,c	;volatile
   348                           
   349                           ;Timer.c: 40:     timer1_reset();
   350  0012E6  EC80  F009         	call	_timer1_reset	;wreg free
   351  0012EA  0012               	return		;funcret
   352  0012EC                     __end_of_timer1_init:
   353                           	opt callstack 0
   354                           
   355 ;; *************** function _timer1_reset *****************
   356 ;; Defined at:
   357 ;;		line 26 in file "Timer.c"
   358 ;; Parameters:    Size  Location     Type
   359 ;;		None
   360 ;; Auto vars:     Size  Location     Type
   361 ;;		None
   362 ;; Return value:  Size  Location     Type
   363 ;;                  1    wreg      void 
   364 ;; Registers used:
   365 ;;		wreg, status,2
   366 ;; Tracked objects:
   367 ;;		On entry : 0/0
   368 ;;		On exit  : 0/0
   369 ;;		Unchanged: 0/0
   370 ;; Data sizes:     COMRAM   BANK0   BANK1   BANK2   BANK3   BANK4   BANK5   BANK6   BANK7   BANK8   BANK9  BANK10  BANK1
      +1  BANK12  BANK13  BANK14  BANK15
   371 ;;      Params:         0       0       0       0       0       0       0       0       0       0       0       0       
      +0       0       0       0       0
   372 ;;      Locals:         0       0       0       0       0       0       0       0       0       0       0       0       
      +0       0       0       0       0
   373 ;;      Temps:          0       0       0       0       0       0       0       0       0       0       0       0       
      +0       0       0       0       0
   374 ;;      Totals:         0       0       0       0       0       0       0       0       0       0       0       0       
      +0       0       0       0       0
   375 ;;Total ram usage:        0 bytes
   376 ;; Hardware stack levels used:    1
   377 ;; Hardware stack levels required when called:    3
   378 ;; This function calls:
   379 ;;		Nothing
   380 ;; This function is called by:
   381 ;;		_timer1_init
   382 ;; This function uses a non-reentrant model
   383 ;;
   384                           
   385                           	psect	text2
   386  001300                     __ptext2:
   387                           	opt callstack 0
   388  001300                     _timer1_reset:
   389                           	opt callstack 26
   390                           
   391                           ;Timer.c: 27:     TMR1IF = 0;
   392                           
   393                           ;incstack = 0
   394  001300  909E               	bcf	3998,0,c	;volatile
   395                           
   396                           ;Timer.c: 28:     TMR1ON = 0;
   397  001302  90CD               	bcf	4045,0,c	;volatile
   398                           
   399                           ;Timer.c: 29:     TMR1H = 0x7A;
   400  001304  0E7A               	movlw	122
   401  001306  6ECF               	movwf	4047,c	;volatile
   402                           
   403                           ;Timer.c: 30:     TMR1L = 0x12;
   404  001308  0E12               	movlw	18
   405  00130A  6ECE               	movwf	4046,c	;volatile
   406                           
   407                           ;Timer.c: 31:     TMR1ON = 1;
   408  00130C  80CD               	bsf	4045,0,c	;volatile
   409  00130E  0012               	return		;funcret
   410  001310                     __end_of_timer1_reset:
   411                           	opt callstack 0
   412                           
   413 ;; *************** function _timer0_init *****************
   414 ;; Defined at:
   415 ;;		line 17 in file "Timer.c"
   416 ;; Parameters:    Size  Location     Type
   417 ;;		None
   418 ;; Auto vars:     Size  Location     Type
   419 ;;		None
   420 ;; Return value:  Size  Location     Type
   421 ;;                  1    wreg      void 
   422 ;; Registers used:
   423 ;;		wreg, status,2, cstack
   424 ;; Tracked objects:
   425 ;;		On entry : 0/0
   426 ;;		On exit  : 0/0
   427 ;;		Unchanged: 0/0
   428 ;; Data sizes:     COMRAM   BANK0   BANK1   BANK2   BANK3   BANK4   BANK5   BANK6   BANK7   BANK8   BANK9  BANK10  BANK1
      +1  BANK12  BANK13  BANK14  BANK15
   429 ;;      Params:         0       0       0       0       0       0       0       0       0       0       0       0       
      +0       0       0       0       0
   430 ;;      Locals:         0       0       0       0       0       0       0       0       0       0       0       0       
      +0       0       0       0       0
   431 ;;      Temps:          0       0       0       0       0       0       0       0       0       0       0       0       
      +0       0       0       0       0
   432 ;;      Totals:         0       0       0       0       0       0       0       0       0       0       0       0       
      +0       0       0       0       0
   433 ;;Total ram usage:        0 bytes
   434 ;; Hardware stack levels used:    1
   435 ;; Hardware stack levels required when called:    4
   436 ;; This function calls:
   437 ;;		_timer0_reset
   438 ;; This function is called by:
   439 ;;		_main
   440 ;; This function uses a non-reentrant model
   441 ;;
   442                           
   443                           	psect	text3
   444  0012EC                     __ptext3:
   445                           	opt callstack 0
   446  0012EC                     _timer0_init:
   447                           	opt callstack 26
   448                           
   449                           ;Timer.c: 18:     RCONbits.IPEN = 1;
   450                           
   451                           ;incstack = 0
   452  0012EC  8ED0               	bsf	4048,7,c	;volatile
   453                           
   454                           ;Timer.c: 19:     TMR0IP = 0;
   455  0012EE  94F1               	bcf	4081,2,c	;volatile
   456                           
   457                           ;Timer.c: 20:     TMR0IE = 1;
   458  0012F0  8AF2               	bsf	4082,5,c	;volatile
   459                           
   460                           ;Timer.c: 21:     GIEH = 1;
   461  0012F2  8EF2               	bsf	4082,7,c	;volatile
   462                           
   463                           ;Timer.c: 22:     GIEL = 1;
   464  0012F4  8CF2               	bsf	4082,6,c	;volatile
   465                           
   466                           ;Timer.c: 23:     T0CON = 2;
   467  0012F6  0E02               	movlw	2
   468  0012F8  6ED5               	movwf	4053,c	;volatile
   469                           
   470                           ;Timer.c: 24:     timer0_reset();
   471  0012FA  EC88  F009         	call	_timer0_reset	;wreg free
   472  0012FE  0012               	return		;funcret
   473  001300                     __end_of_timer0_init:
   474                           	opt callstack 0
   475                           
   476 ;; *************** function _timer0_reset *****************
   477 ;; Defined at:
   478 ;;		line 11 in file "Timer.c"
   479 ;; Parameters:    Size  Location     Type
   480 ;;		None
   481 ;; Auto vars:     Size  Location     Type
   482 ;;		None
   483 ;; Return value:  Size  Location     Type
   484 ;;                  1    wreg      void 
   485 ;; Registers used:
   486 ;;		wreg, status,2
   487 ;; Tracked objects:
   488 ;;		On entry : 0/0
   489 ;;		On exit  : 0/0
   490 ;;		Unchanged: 0/0
   491 ;; Data sizes:     COMRAM   BANK0   BANK1   BANK2   BANK3   BANK4   BANK5   BANK6   BANK7   BANK8   BANK9  BANK10  BANK1
      +1  BANK12  BANK13  BANK14  BANK15
   492 ;;      Params:         0       0       0       0       0       0       0       0       0       0       0       0       
      +0       0       0       0       0
   493 ;;      Locals:         0       0       0       0       0       0       0       0       0       0       0       0       
      +0       0       0       0       0
   494 ;;      Temps:          0       0       0       0       0       0       0       0       0       0       0       0       
      +0       0       0       0       0
   495 ;;      Totals:         0       0       0       0       0       0       0       0       0       0       0       0       
      +0       0       0       0       0
   496 ;;Total ram usage:        0 bytes
   497 ;; Hardware stack levels used:    1
   498 ;; Hardware stack levels required when called:    3
   499 ;; This function calls:
   500 ;;		Nothing
   501 ;; This function is called by:
   502 ;;		_timer0_init
   503 ;; This function uses a non-reentrant model
   504 ;;
   505                           
   506                           	psect	text4
   507  001310                     __ptext4:
   508                           	opt callstack 0
   509  001310                     _timer0_reset:
   510                           	opt callstack 26
   511                           
   512                           ;Timer.c: 12:     TMR0IF = 0;
   513                           
   514                           ;incstack = 0
   515  001310  94F2               	bcf	4082,2,c	;volatile
   516                           
   517                           ;Timer.c: 13:     TMR0ON = 0;
   518  001312  9ED5               	bcf	4053,7,c	;volatile
   519                           
   520                           ;Timer.c: 14:     TMR0 = -125;
   521  001314  0EFF               	movlw	255
   522  001316  6ED7               	movwf	4055,c	;volatile
   523  001318  0E83               	movlw	131
   524  00131A  6ED6               	movwf	4054,c	;volatile
   525                           
   526                           ;Timer.c: 15:     TMR0ON = 1;
   527  00131C  8ED5               	bsf	4053,7,c	;volatile
   528  00131E  0012               	return		;funcret
   529  001320                     __end_of_timer0_reset:
   530                           	opt callstack 0
   531                           
   532 ;; *************** function _init *****************
   533 ;; Defined at:
   534 ;;		line 136 in file "main.c"
   535 ;; Parameters:    Size  Location     Type
   536 ;;		None
   537 ;; Auto vars:     Size  Location     Type
   538 ;;		None
   539 ;; Return value:  Size  Location     Type
   540 ;;                  1    wreg      void 
   541 ;; Registers used:
   542 ;;		wreg, status,2
   543 ;; Tracked objects:
   544 ;;		On entry : 0/0
   545 ;;		On exit  : 0/0
   546 ;;		Unchanged: 0/0
   547 ;; Data sizes:     COMRAM   BANK0   BANK1   BANK2   BANK3   BANK4   BANK5   BANK6   BANK7   BANK8   BANK9  BANK10  BANK1
      +1  BANK12  BANK13  BANK14  BANK15
   548 ;;      Params:         0       0       0       0       0       0       0       0       0       0       0       0       
      +0       0       0       0       0
   549 ;;      Locals:         0       0       0       0       0       0       0       0       0       0       0       0       
      +0       0       0       0       0
   550 ;;      Temps:          0       0       0       0       0       0       0       0       0       0       0       0       
      +0       0       0       0       0
   551 ;;      Totals:         0       0       0       0       0       0       0       0       0       0       0       0       
      +0       0       0       0       0
   552 ;;Total ram usage:        0 bytes
   553 ;; Hardware stack levels used:    1
   554 ;; Hardware stack levels required when called:    3
   555 ;; This function calls:
   556 ;;		Nothing
   557 ;; This function is called by:
   558 ;;		_main
   559 ;; This function uses a non-reentrant model
   560 ;;
   561                           
   562                           	psect	text5
   563  0012BA                     __ptext5:
   564                           	opt callstack 0
   565  0012BA                     _init:
   566                           	opt callstack 27
   567                           
   568                           ;main.c: 137:     TRISB = 0;
   569                           
   570                           ;incstack = 0
   571  0012BA  0E00               	movlw	0
   572  0012BC  6E93               	movwf	3987,c	;volatile
   573                           
   574                           ;main.c: 138:     TRISD = 0;
   575  0012BE  0E00               	movlw	0
   576  0012C0  6E95               	movwf	3989,c	;volatile
   577                           
   578                           ;main.c: 139:     selidx = 0;
   579  0012C2  0E00               	movlw	0
   580  0012C4  6E28               	movwf	_selidx,c
   581                           
   582                           ;main.c: 140:     index = 0;
   583  0012C6  0E00               	movlw	0
   584  0012C8  6E24               	movwf	_index,c	;volatile
   585                           
   586                           ;main.c: 141:     giay = 0;
   587  0012CA  0E00               	movlw	0
   588  0012CC  6E23               	movwf	_giay,c	;volatile
   589                           
   590                           ;main.c: 142:     phut = 0;
   591  0012CE  0E00               	movlw	0
   592  0012D0  6E22               	movwf	_phut,c	;volatile
   593                           
   594                           ;main.c: 143:     gio = 0;
   595  0012D2  0E00               	movlw	0
   596  0012D4  6E21               	movwf	_gio,c	;volatile
   597  0012D6  0012               	return		;funcret
   598  0012D8                     __end_of_init:
   599                           	opt callstack 0
   600                           
   601 ;; *************** function _timer1_isr *****************
   602 ;; Defined at:
   603 ;;		line 42 in file "Timer.c"
   604 ;; Parameters:    Size  Location     Type
   605 ;;		None
   606 ;; Auto vars:     Size  Location     Type
   607 ;;		None
   608 ;; Return value:  Size  Location     Type
   609 ;;                  1    wreg      void 
   610 ;; Registers used:
   611 ;;		wreg, fsr2l, fsr2h, status,2, status,0, tblptrl, tblptrh, tblptru, cstack
   612 ;; Tracked objects:
   613 ;;		On entry : 0/0
   614 ;;		On exit  : 0/0
   615 ;;		Unchanged: 0/0
   616 ;; Data sizes:     COMRAM   BANK0   BANK1   BANK2   BANK3   BANK4   BANK5   BANK6   BANK7   BANK8   BANK9  BANK10  BANK1
      +1  BANK12  BANK13  BANK14  BANK15
   617 ;;      Params:         0       0       0       0       0       0       0       0       0       0       0       0       
      +0       0       0       0       0
   618 ;;      Locals:         0       0       0       0       0       0       0       0       0       0       0       0       
      +0       0       0       0       0
   619 ;;      Temps:          9       0       0       0       0       0       0       0       0       0       0       0       
      +0       0       0       0       0
   620 ;;      Totals:         9       0       0       0       0       0       0       0       0       0       0       0       
      +0       0       0       0       0
   621 ;;Total ram usage:        9 bytes
   622 ;; Hardware stack levels used:    1
   623 ;; Hardware stack levels required when called:    2
   624 ;; This function calls:
   625 ;;		_timer1_process
   626 ;;		_timer_process
   627 ;;		i1_timer0_reset
   628 ;;		i1_timer1_reset
   629 ;; This function is called by:
   630 ;;		Interrupt level 1
   631 ;; This function uses a non-reentrant model
   632 ;;
   633                           
   634                           	psect	intcodelo
   635  000018                     __pintcodelo:
   636                           	opt callstack 0
   637  000018                     _timer1_isr:
   638                           	opt callstack 26
   639                           
   640                           ;incstack = 0
   641  000018  8029               	bsf	btemp,0,c	;set compiler interrupt flag (level 1)
   642  00001A  CFD8 F00F          	movff	status,??_timer1_isr
   643  00001E  CFE8 F010          	movff	wreg,??_timer1_isr+1
   644  000022  CFE0 F011          	movff	bsr,??_timer1_isr+2
   645  000026  CFD9 F012          	movff	fsr2l,??_timer1_isr+3
   646  00002A  CFDA F013          	movff	fsr2h,??_timer1_isr+4
   647  00002E  CFF6 F014          	movff	tblptrl,??_timer1_isr+5
   648  000032  CFF7 F015          	movff	tblptrh,??_timer1_isr+6
   649  000036  CFF8 F016          	movff	tblptru,??_timer1_isr+7
   650  00003A  CFF5 F017          	movff	tablat,??_timer1_isr+8
   651                           
   652                           ;Timer.c: 43:     if(TMR1IE & TMR1IF){
   653  00003E  0E01               	movlw	1
   654  000040  A09D               	btfss	3997,0,c	;volatile
   655  000042  0E00               	movlw	0
   656  000044  A09E               	btfss	3998,0,c	;volatile
   657  000046  0E00               	movlw	0
   658  000048  A0E8               	btfss	wreg,0,c
   659  00004A  D004               	goto	i1l1103
   660                           
   661                           ;Timer.c: 44:         timer1_reset();
   662  00004C  EC90  F009         	call	i1_timer1_reset	;wreg free
   663                           
   664                           ;Timer.c: 45:         timer1_process();
   665  000050  EC09  F008         	call	_timer1_process	;wreg free
   666  000054                     i1l1103:
   667                           
   668                           ;Timer.c: 47:     if(TMR0IE & TMR0IF){
   669  000054  0E01               	movlw	1
   670  000056  AAF2               	btfss	4082,5,c	;volatile
   671  000058  0E00               	movlw	0
   672  00005A  A4F2               	btfss	4082,2,c	;volatile
   673  00005C  0E00               	movlw	0
   674  00005E  A0E8               	btfss	wreg,0,c
   675  000060  D004               	goto	i1l115
   676                           
   677                           ;Timer.c: 48:         timer0_reset();
   678  000062  EC98  F009         	call	i1_timer0_reset	;wreg free
   679                           
   680                           ;Timer.c: 49:         timer_process();
   681  000066  EC32  F009         	call	_timer_process	;wreg free
   682  00006A                     i1l115:
   683  00006A  C017  FFF5         	movff	??_timer1_isr+8,tablat
   684  00006E  C016  FFF8         	movff	??_timer1_isr+7,tblptru
   685  000072  C015  FFF7         	movff	??_timer1_isr+6,tblptrh
   686  000076  C014  FFF6         	movff	??_timer1_isr+5,tblptrl
   687  00007A  C013  FFDA         	movff	??_timer1_isr+4,fsr2h
   688  00007E  C012  FFD9         	movff	??_timer1_isr+3,fsr2l
   689  000082  C011  FFE0         	movff	??_timer1_isr+2,bsr
   690  000086  C010  FFE8         	movff	??_timer1_isr+1,wreg
   691  00008A  C00F  FFD8         	movff	??_timer1_isr,status
   692  00008E  9029               	bcf	btemp,0,c	;clear compiler interrupt flag (level 1)
   693  000090  0010               	retfie	
   694  000092                     __end_of_timer1_isr:
   695                           	opt callstack 0
   696                           
   697 ;; *************** function i1_timer1_reset *****************
   698 ;; Defined at:
   699 ;;		line 26 in file "Timer.c"
   700 ;; Parameters:    Size  Location     Type
   701 ;;		None
   702 ;; Auto vars:     Size  Location     Type
   703 ;;		None
   704 ;; Return value:  Size  Location     Type
   705 ;;                  1    wreg      void 
   706 ;; Registers used:
   707 ;;		wreg, status,2
   708 ;; Tracked objects:
   709 ;;		On entry : 0/0
   710 ;;		On exit  : 0/0
   711 ;;		Unchanged: 0/0
   712 ;; Data sizes:     COMRAM   BANK0   BANK1   BANK2   BANK3   BANK4   BANK5   BANK6   BANK7   BANK8   BANK9  BANK10  BANK1
      +1  BANK12  BANK13  BANK14  BANK15
   713 ;;      Params:         0       0       0       0       0       0       0       0       0       0       0       0       
      +0       0       0       0       0
   714 ;;      Locals:         0       0       0       0       0       0       0       0       0       0       0       0       
      +0       0       0       0       0
   715 ;;      Temps:          0       0       0       0       0       0       0       0       0       0       0       0       
      +0       0       0       0       0
   716 ;;      Totals:         0       0       0       0       0       0       0       0       0       0       0       0       
      +0       0       0       0       0
   717 ;;Total ram usage:        0 bytes
   718 ;; Hardware stack levels used:    1
   719 ;; This function calls:
   720 ;;		Nothing
   721 ;; This function is called by:
   722 ;;		_timer1_isr
   723 ;; This function uses a non-reentrant model
   724 ;;
   725                           
   726                           	psect	text7
   727  001320                     __ptext7:
   728                           	opt callstack 0
   729  001320                     i1_timer1_reset:
   730                           	opt callstack 27
   731                           
   732                           ;Timer.c: 27:     TMR1IF = 0;
   733                           
   734                           ;incstack = 0
   735  001320  909E               	bcf	3998,0,c	;volatile
   736                           
   737                           ;Timer.c: 28:     TMR1ON = 0;
   738  001322  90CD               	bcf	4045,0,c	;volatile
   739                           
   740                           ;Timer.c: 29:     TMR1H = 0x7A;
   741  001324  0E7A               	movlw	122
   742  001326  6ECF               	movwf	4047,c	;volatile
   743                           
   744                           ;Timer.c: 30:     TMR1L = 0x12;
   745  001328  0E12               	movlw	18
   746  00132A  6ECE               	movwf	4046,c	;volatile
   747                           
   748                           ;Timer.c: 31:     TMR1ON = 1;
   749  00132C  80CD               	bsf	4045,0,c	;volatile
   750  00132E  0012               	return		;funcret
   751  001330                     __end_ofi1_timer1_reset:
   752                           	opt callstack 0
   753                           
   754 ;; *************** function i1_timer0_reset *****************
   755 ;; Defined at:
   756 ;;		line 11 in file "Timer.c"
   757 ;; Parameters:    Size  Location     Type
   758 ;;		None
   759 ;; Auto vars:     Size  Location     Type
   760 ;;		None
   761 ;; Return value:  Size  Location     Type
   762 ;;                  1    wreg      void 
   763 ;; Registers used:
   764 ;;		wreg, status,2
   765 ;; Tracked objects:
   766 ;;		On entry : 0/0
   767 ;;		On exit  : 0/0
   768 ;;		Unchanged: 0/0
   769 ;; Data sizes:     COMRAM   BANK0   BANK1   BANK2   BANK3   BANK4   BANK5   BANK6   BANK7   BANK8   BANK9  BANK10  BANK1
      +1  BANK12  BANK13  BANK14  BANK15
   770 ;;      Params:         0       0       0       0       0       0       0       0       0       0       0       0       
      +0       0       0       0       0
   771 ;;      Locals:         0       0       0       0       0       0       0       0       0       0       0       0       
      +0       0       0       0       0
   772 ;;      Temps:          0       0       0       0       0       0       0       0       0       0       0       0       
      +0       0       0       0       0
   773 ;;      Totals:         0       0       0       0       0       0       0       0       0       0       0       0       
      +0       0       0       0       0
   774 ;;Total ram usage:        0 bytes
   775 ;; Hardware stack levels used:    1
   776 ;; This function calls:
   777 ;;		Nothing
   778 ;; This function is called by:
   779 ;;		_timer1_isr
   780 ;; This function uses a non-reentrant model
   781 ;;
   782                           
   783                           	psect	text8
   784  001330                     __ptext8:
   785                           	opt callstack 0
   786  001330                     i1_timer0_reset:
   787                           	opt callstack 27
   788                           
   789                           ;Timer.c: 12:     TMR0IF = 0;
   790                           
   791                           ;incstack = 0
   792  001330  94F2               	bcf	4082,2,c	;volatile
   793                           
   794                           ;Timer.c: 13:     TMR0ON = 0;
   795  001332  9ED5               	bcf	4053,7,c	;volatile
   796                           
   797                           ;Timer.c: 14:     TMR0 = -125;
   798  001334  0EFF               	movlw	255
   799  001336  6ED7               	movwf	4055,c	;volatile
   800  001338  0E83               	movlw	131
   801  00133A  6ED6               	movwf	4054,c	;volatile
   802                           
   803                           ;Timer.c: 15:     TMR0ON = 1;
   804  00133C  8ED5               	bsf	4053,7,c	;volatile
   805  00133E  0012               	return		;funcret
   806  001340                     __end_ofi1_timer0_reset:
   807                           	opt callstack 0
   808                           
   809 ;; *************** function _timer_process *****************
   810 ;; Defined at:
   811 ;;		line 105 in file "main.c"
   812 ;; Parameters:    Size  Location     Type
   813 ;;		None
   814 ;; Auto vars:     Size  Location     Type
   815 ;;		None
   816 ;; Return value:  Size  Location     Type
   817 ;;                  1    wreg      void 
   818 ;; Registers used:
   819 ;;		wreg, fsr2l, fsr2h, status,2, status,0, tblptrl, tblptrh, tblptru, cstack
   820 ;; Tracked objects:
   821 ;;		On entry : 0/0
   822 ;;		On exit  : 0/0
   823 ;;		Unchanged: 0/0
   824 ;; Data sizes:     COMRAM   BANK0   BANK1   BANK2   BANK3   BANK4   BANK5   BANK6   BANK7   BANK8   BANK9  BANK10  BANK1
      +1  BANK12  BANK13  BANK14  BANK15
   825 ;;      Params:         0       0       0       0       0       0       0       0       0       0       0       0       
      +0       0       0       0       0
   826 ;;      Locals:         0       0       0       0       0       0       0       0       0       0       0       0       
      +0       0       0       0       0
   827 ;;      Temps:          2       0       0       0       0       0       0       0       0       0       0       0       
      +0       0       0       0       0
   828 ;;      Totals:         2       0       0       0       0       0       0       0       0       0       0       0       
      +0       0       0       0       0
   829 ;;Total ram usage:        2 bytes
   830 ;; Hardware stack levels used:    1
   831 ;; Hardware stack levels required when called:    1
   832 ;; This function calls:
   833 ;;		_gm_7doan
   834 ;; This function is called by:
   835 ;;		_timer1_isr
   836 ;; This function uses a non-reentrant model
   837 ;;
   838                           
   839                           	psect	text9
   840  001264                     __ptext9:
   841                           	opt callstack 0
   842  001264                     _timer_process:
   843                           	opt callstack 26
   844                           
   845                           ;main.c: 106:     PORTB = 0;
   846                           
   847                           ;incstack = 0
   848  001264  0E00               	movlw	0
   849  001266  6E81               	movwf	3969,c	;volatile
   850                           
   851                           ;main.c: 107:     PORTD = gm_7doan(dbuf[selidx]);
   852  001268  0E18               	movlw	low _dbuf
   853  00126A  2428               	addwf	_selidx,w,c
   854  00126C  6ED9               	movwf	fsr2l,c
   855  00126E  6ADA               	clrf	fsr2h,c
   856  001270  0E00               	movlw	high _dbuf
   857  001272  22DA               	addwfc	fsr2h,f,c
   858  001274  50DF               	movf	indf2,w,c
   859  001276  EC12  F009         	call	_gm_7doan
   860  00127A  6E83               	movwf	3971,c	;volatile
   861                           
   862                           ;main.c: 108:     PORTB = 1 << selidx++;
   863  00127C  C028  F004         	movff	_selidx,??_timer_process
   864  001280  0E01               	movlw	1
   865  001282  6E05               	movwf	(??_timer_process+1)& (0+255),c
   866  001284  2A04               	incf	??_timer_process,f,c
   867  001286  D002               	goto	i1u15_24
   868  001288                     i1u15_25:
   869  001288  90D8               	bcf	status,0,c
   870  00128A  3605               	rlcf	??_timer_process+1,f,c
   871  00128C                     i1u15_24:
   872  00128C  2E04               	decfsz	??_timer_process,f,c
   873  00128E  D7FC               	goto	i1u15_25
   874  001290  5005               	movf	??_timer_process+1,w,c
   875  001292  6E81               	movwf	3969,c	;volatile
   876  001294  2A28               	incf	_selidx,f,c
   877                           
   878                           ;main.c: 109:     selidx %= 8;
   879  001296  0E07               	movlw	7
   880  001298  1628               	andwf	_selidx,f,c
   881  00129A  0012               	return		;funcret
   882  00129C                     __end_of_timer_process:
   883                           	opt callstack 0
   884                           
   885 ;; *************** function _gm_7doan *****************
   886 ;; Defined at:
   887 ;;		line 100 in file "main.c"
   888 ;; Parameters:    Size  Location     Type
   889 ;;  so              1    wreg     unsigned char 
   890 ;; Auto vars:     Size  Location     Type
   891 ;;  so              1    2[COMRAM] unsigned char 
   892 ;; Return value:  Size  Location     Type
   893 ;;                  1    wreg      unsigned char 
   894 ;; Registers used:
   895 ;;		wreg, status,2, status,0, tblptrl, tblptrh, tblptru
   896 ;; Tracked objects:
   897 ;;		On entry : 0/0
   898 ;;		On exit  : 0/0
   899 ;;		Unchanged: 0/0
   900 ;; Data sizes:     COMRAM   BANK0   BANK1   BANK2   BANK3   BANK4   BANK5   BANK6   BANK7   BANK8   BANK9  BANK10  BANK1
      +1  BANK12  BANK13  BANK14  BANK15
   901 ;;      Params:         0       0       0       0       0       0       0       0       0       0       0       0       
      +0       0       0       0       0
   902 ;;      Locals:         1       0       0       0       0       0       0       0       0       0       0       0       
      +0       0       0       0       0
   903 ;;      Temps:          2       0       0       0       0       0       0       0       0       0       0       0       
      +0       0       0       0       0
   904 ;;      Totals:         3       0       0       0       0       0       0       0       0       0       0       0       
      +0       0       0       0       0
   905 ;;Total ram usage:        3 bytes
   906 ;; Hardware stack levels used:    1
   907 ;; This function calls:
   908 ;;		Nothing
   909 ;; This function is called by:
   910 ;;		_timer_process
   911 ;; This function uses a non-reentrant model
   912 ;;
   913                           
   914                           	psect	text10
   915  001224                     __ptext10:
   916                           	opt callstack 0
   917  001224                     _gm_7doan:
   918                           	opt callstack 26
   919                           
   920                           ;incstack = 0
   921                           ;gm_7doan@so stored from wreg
   922  001224  6E03               	movwf	gm_7doan@so,c
   923                           
   924                           ;main.c: 101:     if (so > 0x1F) return 0;
   925  001226  0E1F               	movlw	31
   926  001228  6403               	cpfsgt	gm_7doan@so,c
   927  00122A  D002               	goto	i1l797
   928  00122C  0E00               	movlw	0
   929  00122E  0012               	return	
   930  001230                     i1l797:
   931                           
   932                           ;main.c: 102:     if (so < 0x10) return dl7doan[so];
   933  001230  0E10               	movlw	16
   934  001232  6003               	cpfslt	gm_7doan@so,c
   935  001234  D009               	goto	i1l803
   936  001236  0E01               	movlw	low _dl7doan
   937  001238  2403               	addwf	gm_7doan@so,w,c
   938  00123A  6EF6               	movwf	tblptrl,c
   939  00123C  6AF7               	clrf	tblptrh,c
   940  00123E  0E10               	movlw	high _dl7doan
   941  001240  22F7               	addwfc	tblptrh,f,c
   942  001242                     	if	0	;There are less than 3 active tblptr bytes
   943  001242                     	endif
   944  001242  0008               	tblrd		*
   945  001244  50F5               	movf	tablat,w,c
   946  001246  0012               	return	
   947  001248                     i1l803:
   948                           
   949                           ;main.c: 103:     return dl7doan[so&0x0f]|0x80;
   950  001248  5003               	movf	gm_7doan@so,w,c
   951  00124A  0B0F               	andlw	15
   952  00124C  6E01               	movwf	??_gm_7doan& (0+255),c
   953  00124E  6A02               	clrf	(??_gm_7doan+1)& (0+255),c
   954  001250  0E01               	movlw	low _dl7doan
   955  001252  2401               	addwf	??_gm_7doan,w,c
   956  001254  6EF6               	movwf	tblptrl,c
   957  001256  0E10               	movlw	high _dl7doan
   958  001258  2002               	addwfc	??_gm_7doan+1,w,c
   959  00125A  6EF7               	movwf	tblptrh,c
   960  00125C                     	if	0	;There are less than 3 active tblptr bytes
   961  00125C                     	endif
   962  00125C  0008               	tblrd		*
   963  00125E  50F5               	movf	tablat,w,c
   964  001260  0980               	iorlw	128
   965  001262  0012               	return		;funcret
   966  001264                     __end_of_gm_7doan:
   967                           	opt callstack 0
   968                           
   969 ;; *************** function _timer1_process *****************
   970 ;; Defined at:
   971 ;;		line 111 in file "main.c"
   972 ;; Parameters:    Size  Location     Type
   973 ;;		None
   974 ;; Auto vars:     Size  Location     Type
   975 ;;		None
   976 ;; Return value:  Size  Location     Type
   977 ;;                  1    wreg      void 
   978 ;; Registers used:
   979 ;;		wreg, status,2, status,0, cstack
   980 ;; Tracked objects:
   981 ;;		On entry : 0/0
   982 ;;		On exit  : 0/0
   983 ;;		Unchanged: 0/0
   984 ;; Data sizes:     COMRAM   BANK0   BANK1   BANK2   BANK3   BANK4   BANK5   BANK6   BANK7   BANK8   BANK9  BANK10  BANK1
      +1  BANK12  BANK13  BANK14  BANK15
   985 ;;      Params:         0       0       0       0       0       0       0       0       0       0       0       0       
      +0       0       0       0       0
   986 ;;      Locals:         0       0       0       0       0       0       0       0       0       0       0       0       
      +0       0       0       0       0
   987 ;;      Temps:          0       0       0       0       0       0       0       0       0       0       0       0       
      +0       0       0       0       0
   988 ;;      Totals:         0       0       0       0       0       0       0       0       0       0       0       0       
      +0       0       0       0       0
   989 ;;Total ram usage:        0 bytes
   990 ;; Hardware stack levels used:    1
   991 ;; Hardware stack levels required when called:    1
   992 ;; This function calls:
   993 ;;		___awdiv
   994 ;;		___awmod
   995 ;; This function is called by:
   996 ;;		_timer1_isr
   997 ;; This function uses a non-reentrant model
   998 ;;
   999                           
  1000                           	psect	text11
  1001  001012                     __ptext11:
  1002                           	opt callstack 0
  1003  001012                     _timer1_process:
  1004                           	opt callstack 26
  1005                           
  1006                           ;main.c: 112:     index = index + 1;
  1007                           
  1008                           ;incstack = 0
  1009  001012  2824               	incf	_index,w,c	;volatile
  1010  001014  6E24               	movwf	_index,c	;volatile
  1011                           
  1012                           ;main.c: 113:     if (index == 10){
  1013  001016  0E0A               	movlw	10
  1014  001018  1824               	xorwf	_index,w,c	;volatile
  1015  00101A  A4D8               	btfss	status,2,c
  1016  00101C  D004               	goto	i1l1069
  1017                           
  1018                           ;main.c: 114:         index = 0;
  1019  00101E  0E00               	movlw	0
  1020  001020  6E24               	movwf	_index,c	;volatile
  1021                           
  1022                           ;main.c: 115:         giay = giay + 1;
  1023  001022  2823               	incf	_giay,w,c	;volatile
  1024  001024  6E23               	movwf	_giay,c	;volatile
  1025  001026                     i1l1069:
  1026                           
  1027                           ;main.c: 117:     if (giay == 60){
  1028  001026  0E3C               	movlw	60
  1029  001028  1823               	xorwf	_giay,w,c	;volatile
  1030  00102A  A4D8               	btfss	status,2,c
  1031  00102C  D004               	goto	i1l1075
  1032                           
  1033                           ;main.c: 118:         giay = 0;
  1034  00102E  0E00               	movlw	0
  1035  001030  6E23               	movwf	_giay,c	;volatile
  1036                           
  1037                           ;main.c: 119:         phut = phut + 1;
  1038  001032  2822               	incf	_phut,w,c	;volatile
  1039  001034  6E22               	movwf	_phut,c	;volatile
  1040  001036                     i1l1075:
  1041                           
  1042                           ;main.c: 121:     if (phut == 60){
  1043  001036  0E3C               	movlw	60
  1044  001038  1822               	xorwf	_phut,w,c	;volatile
  1045  00103A  A4D8               	btfss	status,2,c
  1046  00103C  D004               	goto	i1l1081
  1047                           
  1048                           ;main.c: 122:         phut = 0;
  1049  00103E  0E00               	movlw	0
  1050  001040  6E22               	movwf	_phut,c	;volatile
  1051                           
  1052                           ;main.c: 123:         gio = gio + 1;
  1053  001042  2821               	incf	_gio,w,c	;volatile
  1054  001044  6E21               	movwf	_gio,c	;volatile
  1055  001046                     i1l1081:
  1056                           
  1057                           ;main.c: 125:     if (gio == 24){
  1058  001046  0E18               	movlw	24
  1059  001048  1821               	xorwf	_gio,w,c	;volatile
  1060  00104A  A4D8               	btfss	status,2,c
  1061  00104C  D002               	goto	i1l1085
  1062                           
  1063                           ;main.c: 126:         gio = 0;
  1064  00104E  0E00               	movlw	0
  1065  001050  6E21               	movwf	_gio,c	;volatile
  1066  001052                     i1l1085:
  1067                           
  1068                           ;main.c: 128:     dbuf[5] = (gio - gio%10)/10;
  1069  001052  0E00               	movlw	0
  1070  001054  6E04               	movwf	___awmod@divisor+1,c
  1071  001056  0E0A               	movlw	10
  1072  001058  6E03               	movwf	___awmod@divisor,c
  1073  00105A  C021  F001         	movff	_gio,___awmod@dividend	;volatile
  1074  00105E  6A02               	clrf	___awmod@dividend+1,c
  1075  001060  ECDA  F008         	call	___awmod	;wreg free
  1076  001064  5001               	movf	?___awmod,w,c
  1077  001066  5C21               	subwf	_gio,w,c	;volatile
  1078  001068  6E07               	movwf	___awdiv@dividend,c
  1079  00106A  5002               	movf	?___awmod+1,w,c
  1080  00106C  A0D8               	btfss	status,0,c
  1081  00106E  2802               	incf	?___awmod+1,w,c
  1082  001070  6A08               	clrf	___awdiv@dividend+1,c
  1083  001072  5E08               	subwf	___awdiv@dividend+1,f,c
  1084  001074  0E00               	movlw	0
  1085  001076  6E0A               	movwf	___awdiv@divisor+1,c
  1086  001078  0E0A               	movlw	10
  1087  00107A  6E09               	movwf	___awdiv@divisor,c
  1088  00107C  EC98  F008         	call	___awdiv	;wreg free
  1089  001080  5007               	movf	?___awdiv,w,c
  1090  001082  6E1D               	movwf	_dbuf+5,c
  1091                           
  1092                           ;main.c: 129:     dbuf[4] = (gio%10)+16;
  1093  001084  C021  F001         	movff	_gio,___awmod@dividend	;volatile
  1094  001088  6A02               	clrf	___awmod@dividend+1,c
  1095  00108A  0E00               	movlw	0
  1096  00108C  6E04               	movwf	___awmod@divisor+1,c
  1097  00108E  0E0A               	movlw	10
  1098  001090  6E03               	movwf	___awmod@divisor,c
  1099  001092  ECDA  F008         	call	___awmod	;wreg free
  1100  001096  5001               	movf	?___awmod,w,c
  1101  001098  0F10               	addlw	16
  1102  00109A  6E1C               	movwf	_dbuf+4,c
  1103                           
  1104                           ;main.c: 130:     dbuf[3] = (phut - phut%10)/10;
  1105  00109C  0E00               	movlw	0
  1106  00109E  6E04               	movwf	___awmod@divisor+1,c
  1107  0010A0  0E0A               	movlw	10
  1108  0010A2  6E03               	movwf	___awmod@divisor,c
  1109  0010A4  C022  F001         	movff	_phut,___awmod@dividend	;volatile
  1110  0010A8  6A02               	clrf	___awmod@dividend+1,c
  1111  0010AA  ECDA  F008         	call	___awmod	;wreg free
  1112  0010AE  5001               	movf	?___awmod,w,c
  1113  0010B0  5C22               	subwf	_phut,w,c	;volatile
  1114  0010B2  6E07               	movwf	___awdiv@dividend,c
  1115  0010B4  5002               	movf	?___awmod+1,w,c
  1116  0010B6  A0D8               	btfss	status,0,c
  1117  0010B8  2802               	incf	?___awmod+1,w,c
  1118  0010BA  6A08               	clrf	___awdiv@dividend+1,c
  1119  0010BC  5E08               	subwf	___awdiv@dividend+1,f,c
  1120  0010BE  0E00               	movlw	0
  1121  0010C0  6E0A               	movwf	___awdiv@divisor+1,c
  1122  0010C2  0E0A               	movlw	10
  1123  0010C4  6E09               	movwf	___awdiv@divisor,c
  1124  0010C6  EC98  F008         	call	___awdiv	;wreg free
  1125  0010CA  5007               	movf	?___awdiv,w,c
  1126  0010CC  6E1B               	movwf	_dbuf+3,c
  1127                           
  1128                           ;main.c: 131:     dbuf[2] = (phut%10)+16;
  1129  0010CE  C022  F001         	movff	_phut,___awmod@dividend	;volatile
  1130  0010D2  6A02               	clrf	___awmod@dividend+1,c
  1131  0010D4  0E00               	movlw	0
  1132  0010D6  6E04               	movwf	___awmod@divisor+1,c
  1133  0010D8  0E0A               	movlw	10
  1134  0010DA  6E03               	movwf	___awmod@divisor,c
  1135  0010DC  ECDA  F008         	call	___awmod	;wreg free
  1136  0010E0  5001               	movf	?___awmod,w,c
  1137  0010E2  0F10               	addlw	16
  1138  0010E4  6E1A               	movwf	_dbuf+2,c
  1139                           
  1140                           ;main.c: 132:     dbuf[1] = (giay-giay%10)/10;
  1141  0010E6  0E00               	movlw	0
  1142  0010E8  6E04               	movwf	___awmod@divisor+1,c
  1143  0010EA  0E0A               	movlw	10
  1144  0010EC  6E03               	movwf	___awmod@divisor,c
  1145  0010EE  C023  F001         	movff	_giay,___awmod@dividend	;volatile
  1146  0010F2  6A02               	clrf	___awmod@dividend+1,c
  1147  0010F4  ECDA  F008         	call	___awmod	;wreg free
  1148  0010F8  5001               	movf	?___awmod,w,c
  1149  0010FA  5C23               	subwf	_giay,w,c	;volatile
  1150  0010FC  6E07               	movwf	___awdiv@dividend,c
  1151  0010FE  5002               	movf	?___awmod+1,w,c
  1152  001100  A0D8               	btfss	status,0,c
  1153  001102  2802               	incf	?___awmod+1,w,c
  1154  001104  6A08               	clrf	___awdiv@dividend+1,c
  1155  001106  5E08               	subwf	___awdiv@dividend+1,f,c
  1156  001108  0E00               	movlw	0
  1157  00110A  6E0A               	movwf	___awdiv@divisor+1,c
  1158  00110C  0E0A               	movlw	10
  1159  00110E  6E09               	movwf	___awdiv@divisor,c
  1160  001110  EC98  F008         	call	___awdiv	;wreg free
  1161  001114  5007               	movf	?___awdiv,w,c
  1162  001116  6E19               	movwf	_dbuf+1,c
  1163                           
  1164                           ;main.c: 133:     dbuf[0] = giay%10;
  1165  001118  C023  F001         	movff	_giay,___awmod@dividend	;volatile
  1166  00111C  6A02               	clrf	___awmod@dividend+1,c
  1167  00111E  0E00               	movlw	0
  1168  001120  6E04               	movwf	___awmod@divisor+1,c
  1169  001122  0E0A               	movlw	10
  1170  001124  6E03               	movwf	___awmod@divisor,c
  1171  001126  ECDA  F008         	call	___awmod	;wreg free
  1172  00112A  5001               	movf	?___awmod,w,c
  1173  00112C  6E18               	movwf	_dbuf,c
  1174  00112E  0012               	return		;funcret
  1175  001130                     __end_of_timer1_process:
  1176                           	opt callstack 0
  1177                           
  1178 ;; *************** function ___awmod *****************
  1179 ;; Defined at:
  1180 ;;		line 7 in file "C:\Program Files (x86)\Microchip\xc8\v2.05\pic\sources\c99\common\awmod.c"
  1181 ;; Parameters:    Size  Location     Type
  1182 ;;  dividend        2    0[COMRAM] int 
  1183 ;;  divisor         2    2[COMRAM] int 
  1184 ;; Auto vars:     Size  Location     Type
  1185 ;;  sign            1    5[COMRAM] unsigned char 
  1186 ;;  counter         1    4[COMRAM] unsigned char 
  1187 ;; Return value:  Size  Location     Type
  1188 ;;                  2    0[COMRAM] int 
  1189 ;; Registers used:
  1190 ;;		wreg, status,2, status,0
  1191 ;; Tracked objects:
  1192 ;;		On entry : 0/0
  1193 ;;		On exit  : 0/0
  1194 ;;		Unchanged: 0/0
  1195 ;; Data sizes:     COMRAM   BANK0   BANK1   BANK2   BANK3   BANK4   BANK5   BANK6   BANK7   BANK8   BANK9  BANK10  BANK1
      +1  BANK12  BANK13  BANK14  BANK15
  1196 ;;      Params:         4       0       0       0       0       0       0       0       0       0       0       0       
      +0       0       0       0       0
  1197 ;;      Locals:         2       0       0       0       0       0       0       0       0       0       0       0       
      +0       0       0       0       0
  1198 ;;      Temps:          0       0       0       0       0       0       0       0       0       0       0       0       
      +0       0       0       0       0
  1199 ;;      Totals:         6       0       0       0       0       0       0       0       0       0       0       0       
      +0       0       0       0       0
  1200 ;;Total ram usage:        6 bytes
  1201 ;; Hardware stack levels used:    1
  1202 ;; This function calls:
  1203 ;;		Nothing
  1204 ;; This function is called by:
  1205 ;;		_timer1_process
  1206 ;; This function uses a non-reentrant model
  1207 ;;
  1208                           
  1209                           	psect	text12
  1210  0011B4                     __ptext12:
  1211                           	opt callstack 0
  1212  0011B4                     ___awmod:
  1213                           	opt callstack 26
  1214                           
  1215                           ;incstack = 0
  1216  0011B4  0E00               	movlw	0
  1217  0011B6  6E06               	movwf	___awmod@sign,c
  1218  0011B8  AE02               	btfss	___awmod@dividend+1,7,c
  1219  0011BA  D006               	goto	i1l1035
  1220  0011BC  6C01               	negf	___awmod@dividend,c
  1221  0011BE  1E02               	comf	___awmod@dividend+1,f,c
  1222  0011C0  B0D8               	btfsc	status,0,c
  1223  0011C2  2A02               	incf	___awmod@dividend+1,f,c
  1224  0011C4  0E01               	movlw	1
  1225  0011C6  6E06               	movwf	___awmod@sign,c
  1226  0011C8                     i1l1035:
  1227  0011C8  AE04               	btfss	___awmod@divisor+1,7,c
  1228  0011CA  D004               	goto	i1l1039
  1229  0011CC  6C03               	negf	___awmod@divisor,c
  1230  0011CE  1E04               	comf	___awmod@divisor+1,f,c
  1231  0011D0  B0D8               	btfsc	status,0,c
  1232  0011D2  2A04               	incf	___awmod@divisor+1,f,c
  1233  0011D4                     i1l1039:
  1234  0011D4  5003               	movf	___awmod@divisor,w,c
  1235  0011D6  1004               	iorwf	___awmod@divisor+1,w,c
  1236  0011D8  B4D8               	btfsc	status,2,c
  1237  0011DA  D018               	goto	i1l1055
  1238  0011DC  0E01               	movlw	1
  1239  0011DE  6E05               	movwf	___awmod@counter,c
  1240  0011E0  D004               	goto	i1l1045
  1241  0011E2                     i1l1043:
  1242  0011E2  90D8               	bcf	status,0,c
  1243  0011E4  3603               	rlcf	___awmod@divisor,f,c
  1244  0011E6  3604               	rlcf	___awmod@divisor+1,f,c
  1245  0011E8  2A05               	incf	___awmod@counter,f,c
  1246  0011EA                     i1l1045:
  1247  0011EA  AE04               	btfss	___awmod@divisor+1,7,c
  1248  0011EC  D7FA               	goto	i1l1043
  1249  0011EE                     i1u31_20:
  1250  0011EE  5003               	movf	___awmod@divisor,w,c
  1251  0011F0  5C01               	subwf	___awmod@dividend,w,c
  1252  0011F2  5004               	movf	___awmod@divisor+1,w,c
  1253  0011F4  5802               	subwfb	___awmod@dividend+1,w,c
  1254  0011F6  A0D8               	btfss	status,0,c
  1255  0011F8  D004               	goto	i1l1051
  1256  0011FA  5003               	movf	___awmod@divisor,w,c
  1257  0011FC  5E01               	subwf	___awmod@dividend,f,c
  1258  0011FE  5004               	movf	___awmod@divisor+1,w,c
  1259  001200  5A02               	subwfb	___awmod@dividend+1,f,c
  1260  001202                     i1l1051:
  1261  001202  90D8               	bcf	status,0,c
  1262  001204  3204               	rrcf	___awmod@divisor+1,f,c
  1263  001206  3203               	rrcf	___awmod@divisor,f,c
  1264  001208  2E05               	decfsz	___awmod@counter,f,c
  1265  00120A  D7F1               	goto	i1u31_20
  1266  00120C                     i1l1055:
  1267  00120C  5006               	movf	___awmod@sign,w,c
  1268  00120E  B4D8               	btfsc	status,2,c
  1269  001210  D004               	goto	i1l1059
  1270  001212  6C01               	negf	___awmod@dividend,c
  1271  001214  1E02               	comf	___awmod@dividend+1,f,c
  1272  001216  B0D8               	btfsc	status,0,c
  1273  001218  2A02               	incf	___awmod@dividend+1,f,c
  1274  00121A                     i1l1059:
  1275  00121A  C001  F001         	movff	___awmod@dividend,?___awmod
  1276  00121E  C002  F002         	movff	___awmod@dividend+1,?___awmod+1
  1277  001222  0012               	return		;funcret
  1278  001224                     __end_of___awmod:
  1279                           	opt callstack 0
  1280                           
  1281 ;; *************** function ___awdiv *****************
  1282 ;; Defined at:
  1283 ;;		line 7 in file "C:\Program Files (x86)\Microchip\xc8\v2.05\pic\sources\c99\common\awdiv.c"
  1284 ;; Parameters:    Size  Location     Type
  1285 ;;  dividend        2    6[COMRAM] int 
  1286 ;;  divisor         2    8[COMRAM] int 
  1287 ;; Auto vars:     Size  Location     Type
  1288 ;;  quotient        2   12[COMRAM] int 
  1289 ;;  sign            1   11[COMRAM] unsigned char 
  1290 ;;  counter         1   10[COMRAM] unsigned char 
  1291 ;; Return value:  Size  Location     Type
  1292 ;;                  2    6[COMRAM] int 
  1293 ;; Registers used:
  1294 ;;		wreg, status,2, status,0
  1295 ;; Tracked objects:
  1296 ;;		On entry : 0/0
  1297 ;;		On exit  : 0/0
  1298 ;;		Unchanged: 0/0
  1299 ;; Data sizes:     COMRAM   BANK0   BANK1   BANK2   BANK3   BANK4   BANK5   BANK6   BANK7   BANK8   BANK9  BANK10  BANK1
      +1  BANK12  BANK13  BANK14  BANK15
  1300 ;;      Params:         4       0       0       0       0       0       0       0       0       0       0       0       
      +0       0       0       0       0
  1301 ;;      Locals:         4       0       0       0       0       0       0       0       0       0       0       0       
      +0       0       0       0       0
  1302 ;;      Temps:          0       0       0       0       0       0       0       0       0       0       0       0       
      +0       0       0       0       0
  1303 ;;      Totals:         8       0       0       0       0       0       0       0       0       0       0       0       
      +0       0       0       0       0
  1304 ;;Total ram usage:        8 bytes
  1305 ;; Hardware stack levels used:    1
  1306 ;; This function calls:
  1307 ;;		Nothing
  1308 ;; This function is called by:
  1309 ;;		_timer1_process
  1310 ;; This function uses a non-reentrant model
  1311 ;;
  1312                           
  1313                           	psect	text13
  1314  001130                     __ptext13:
  1315                           	opt callstack 0
  1316  001130                     ___awdiv:
  1317                           	opt callstack 26
  1318                           
  1319                           ;incstack = 0
  1320  001130  0E00               	movlw	0
  1321  001132  6E0C               	movwf	___awdiv@sign,c
  1322  001134  AE0A               	btfss	___awdiv@divisor+1,7,c
  1323  001136  D006               	goto	i1l991
  1324  001138  6C09               	negf	___awdiv@divisor,c
  1325  00113A  1E0A               	comf	___awdiv@divisor+1,f,c
  1326  00113C  B0D8               	btfsc	status,0,c
  1327  00113E  2A0A               	incf	___awdiv@divisor+1,f,c
  1328  001140  0E01               	movlw	1
  1329  001142  6E0C               	movwf	___awdiv@sign,c
  1330  001144                     i1l991:
  1331  001144  AE08               	btfss	___awdiv@dividend+1,7,c
  1332  001146  D006               	goto	i1l997
  1333  001148  6C07               	negf	___awdiv@dividend,c
  1334  00114A  1E08               	comf	___awdiv@dividend+1,f,c
  1335  00114C  B0D8               	btfsc	status,0,c
  1336  00114E  2A08               	incf	___awdiv@dividend+1,f,c
  1337  001150  0E01               	movlw	1
  1338  001152  1A0C               	xorwf	___awdiv@sign,f,c
  1339  001154                     i1l997:
  1340  001154  0E00               	movlw	0
  1341  001156  6E0E               	movwf	___awdiv@quotient+1,c
  1342  001158  0E00               	movlw	0
  1343  00115A  6E0D               	movwf	___awdiv@quotient,c
  1344  00115C  5009               	movf	___awdiv@divisor,w,c
  1345  00115E  100A               	iorwf	___awdiv@divisor+1,w,c
  1346  001160  B4D8               	btfsc	status,2,c
  1347  001162  D01C               	goto	i1l1019
  1348  001164  0E01               	movlw	1
  1349  001166  6E0B               	movwf	___awdiv@counter,c
  1350  001168  D004               	goto	i1l1005
  1351  00116A                     i1l1003:
  1352  00116A  90D8               	bcf	status,0,c
  1353  00116C  3609               	rlcf	___awdiv@divisor,f,c
  1354  00116E  360A               	rlcf	___awdiv@divisor+1,f,c
  1355  001170  2A0B               	incf	___awdiv@counter,f,c
  1356  001172                     i1l1005:
  1357  001172  AE0A               	btfss	___awdiv@divisor+1,7,c
  1358  001174  D7FA               	goto	i1l1003
  1359  001176                     i1u25_20:
  1360  001176  90D8               	bcf	status,0,c
  1361  001178  360D               	rlcf	___awdiv@quotient,f,c
  1362  00117A  360E               	rlcf	___awdiv@quotient+1,f,c
  1363  00117C  5009               	movf	___awdiv@divisor,w,c
  1364  00117E  5C07               	subwf	___awdiv@dividend,w,c
  1365  001180  500A               	movf	___awdiv@divisor+1,w,c
  1366  001182  5808               	subwfb	___awdiv@dividend+1,w,c
  1367  001184  A0D8               	btfss	status,0,c
  1368  001186  D005               	goto	i1l1015
  1369  001188  5009               	movf	___awdiv@divisor,w,c
  1370  00118A  5E07               	subwf	___awdiv@dividend,f,c
  1371  00118C  500A               	movf	___awdiv@divisor+1,w,c
  1372  00118E  5A08               	subwfb	___awdiv@dividend+1,f,c
  1373  001190  800D               	bsf	___awdiv@quotient,0,c
  1374  001192                     i1l1015:
  1375  001192  90D8               	bcf	status,0,c
  1376  001194  320A               	rrcf	___awdiv@divisor+1,f,c
  1377  001196  3209               	rrcf	___awdiv@divisor,f,c
  1378  001198  2E0B               	decfsz	___awdiv@counter,f,c
  1379  00119A  D7ED               	goto	i1u25_20
  1380  00119C                     i1l1019:
  1381  00119C  500C               	movf	___awdiv@sign,w,c
  1382  00119E  B4D8               	btfsc	status,2,c
  1383  0011A0  D004               	goto	i1l1023
  1384  0011A2  6C0D               	negf	___awdiv@quotient,c
  1385  0011A4  1E0E               	comf	___awdiv@quotient+1,f,c
  1386  0011A6  B0D8               	btfsc	status,0,c
  1387  0011A8  2A0E               	incf	___awdiv@quotient+1,f,c
  1388  0011AA                     i1l1023:
  1389  0011AA  C00D  F007         	movff	___awdiv@quotient,?___awdiv
  1390  0011AE  C00E  F008         	movff	___awdiv@quotient+1,?___awdiv+1
  1391  0011B2  0012               	return		;funcret
  1392  0011B4                     __end_of___awdiv:
  1393                           	opt callstack 0
  1394                           
  1395                           	psect	rparam
  1396  0000                     
  1397                           	psect	temp
  1398  000029                     btemp:
  1399                           	opt callstack 0
  1400  000029                     	ds	1
  1401  0000                     int$flags	set	btemp
  1402  0000                     wtemp8	set	btemp+1
  1403  0000                     ttemp5	set	btemp+1
  1404  0000                     ttemp6	set	btemp+4
  1405  0000                     ttemp7	set	btemp+8
  1406                           tosu	equ	0xFFF
  1407                           tosh	equ	0xFFE
  1408                           tosl	equ	0xFFD
  1409                           stkptr	equ	0xFFC
  1410                           pclatu	equ	0xFFB
  1411                           pclath	equ	0xFFA
  1412                           pcl	equ	0xFF9
  1413                           tblptru	equ	0xFF8
  1414                           tblptrh	equ	0xFF7
  1415                           tblptrl	equ	0xFF6
  1416                           tablat	equ	0xFF5
  1417                           prodh	equ	0xFF4
  1418                           prodl	equ	0xFF3
  1419                           indf0	equ	0xFEF
  1420                           postinc0	equ	0xFEE
  1421                           postdec0	equ	0xFED
  1422                           preinc0	equ	0xFEC
  1423                           plusw0	equ	0xFEB
  1424                           fsr0h	equ	0xFEA
  1425                           fsr0l	equ	0xFE9
  1426                           wreg	equ	0xFE8
  1427                           indf1	equ	0xFE7
  1428                           postinc1	equ	0xFE6
  1429                           postdec1	equ	0xFE5
  1430                           preinc1	equ	0xFE4
  1431                           plusw1	equ	0xFE3
  1432                           fsr1h	equ	0xFE2
  1433                           fsr1l	equ	0xFE1
  1434                           bsr	equ	0xFE0
  1435                           indf2	equ	0xFDF
  1436                           postinc2	equ	0xFDE
  1437                           postdec2	equ	0xFDD
  1438                           preinc2	equ	0xFDC
  1439                           plusw2	equ	0xFDB
  1440                           fsr2h	equ	0xFDA
  1441                           fsr2l	equ	0xFD9
  1442                           status	equ	0xFD8


Data Sizes:
    Strings     0
    Constant    16
    Data        0
    BSS         17
    Persistent  0
    Stack       0

Auto Spaces:
    Space          Size  Autos    Used
    COMRAM           94     23      40
    BANK0           160      0       0
    BANK1           256      0       0
    BANK2           256      0       0
    BANK3           256      0       0
    BANK4           256      0       0
    BANK5           256      0       0
    BANK6           256      0       0
    BANK7           256      0       0
    BANK8           256      0       0
    BANK9           256      0       0
    BANK10          256      0       0
    BANK11          256      0       0
    BANK12          256      0       0
    BANK13          256      0       0
    BANK14          256      0       0
    BANK15           96      0       0

Pointer List with Targets:

    None.

Critical Paths under _main in COMRAM

    None.

Critical Paths under _timer1_isr in COMRAM

    _timer_process->_gm_7doan
    _timer1_process->___awdiv
    ___awdiv->___awmod

Critical Paths under _main in BANK0

    None.

Critical Paths under _timer1_isr in BANK0

    None.

Critical Paths under _main in BANK1

    None.

Critical Paths under _timer1_isr in BANK1

    None.

Critical Paths under _main in BANK2

    None.

Critical Paths under _timer1_isr in BANK2

    None.

Critical Paths under _main in BANK3

    None.

Critical Paths under _timer1_isr in BANK3

    None.

Critical Paths under _main in BANK4

    None.

Critical Paths under _timer1_isr in BANK4

    None.

Critical Paths under _main in BANK5

    None.

Critical Paths under _timer1_isr in BANK5

    None.

Critical Paths under _main in BANK6

    None.

Critical Paths under _timer1_isr in BANK6

    None.

Critical Paths under _main in BANK7

    None.

Critical Paths under _timer1_isr in BANK7

    None.

Critical Paths under _main in BANK8

    None.

Critical Paths under _timer1_isr in BANK8

    None.

Critical Paths under _main in BANK9

    None.

Critical Paths under _timer1_isr in BANK9

    None.

Critical Paths under _main in BANK10

    None.

Critical Paths under _timer1_isr in BANK10

    None.

Critical Paths under _main in BANK11

    None.

Critical Paths under _timer1_isr in BANK11

    None.

Critical Paths under _main in BANK12

    None.

Critical Paths under _timer1_isr in BANK12

    None.

Critical Paths under _main in BANK13

    None.

Critical Paths under _timer1_isr in BANK13

    None.

Critical Paths under _main in BANK14

    None.

Critical Paths under _timer1_isr in BANK14

    None.

Critical Paths under _main in BANK15

    None.

Critical Paths under _timer1_isr in BANK15

    None.

Call Graph Tables:

 ---------------------------------------------------------------------------------
 (Depth) Function   	        Calls       Base Space   Used Autos Params    Refs
 ---------------------------------------------------------------------------------
 (0) _main                                                 0     0      0       0
                               _init
                        _timer0_init
                        _timer1_init
 ---------------------------------------------------------------------------------
 (1) _timer1_init                                          0     0      0       0
                       _timer1_reset
 ---------------------------------------------------------------------------------
 (2) _timer1_reset                                         0     0      0       0
 ---------------------------------------------------------------------------------
 (1) _timer0_init                                          0     0      0       0
                       _timer0_reset
 ---------------------------------------------------------------------------------
 (2) _timer0_reset                                         0     0      0       0
 ---------------------------------------------------------------------------------
 (1) _init                                                 0     0      0       0
 ---------------------------------------------------------------------------------
 Estimated maximum stack depth 2
 ---------------------------------------------------------------------------------
 (Depth) Function   	        Calls       Base Space   Used Autos Params    Refs
 ---------------------------------------------------------------------------------
 (3) _timer1_isr                                           9     9      0    2024
                                             14 COMRAM     9     9      0
                     _timer1_process
                      _timer_process
                     i1_timer0_reset
                     i1_timer1_reset
 ---------------------------------------------------------------------------------
 (4) i1_timer1_reset                                       0     0      0       0
 ---------------------------------------------------------------------------------
 (4) i1_timer0_reset                                       0     0      0       0
 ---------------------------------------------------------------------------------
 (4) _timer_process                                        2     2      0      60
                                              3 COMRAM     2     2      0
                           _gm_7doan
 ---------------------------------------------------------------------------------
 (5) _gm_7doan                                             3     3      0      60
                                              0 COMRAM     3     3      0
 ---------------------------------------------------------------------------------
 (4) _timer1_process                                       0     0      0    1964
                            ___awdiv
                            ___awmod
 ---------------------------------------------------------------------------------
 (5) ___awmod                                              6     2      4    1208
                                              0 COMRAM     6     2      4
 ---------------------------------------------------------------------------------
 (5) ___awdiv                                              8     4      4     756
                                              6 COMRAM     8     4      4
                            ___awmod (ARG)
 ---------------------------------------------------------------------------------
 Estimated maximum stack depth 5
 ---------------------------------------------------------------------------------

 Call Graph Graphs:

 _main (ROOT)
   _init
   _timer0_init
     _timer0_reset
   _timer1_init
     _timer1_reset

 _timer1_isr (ROOT)
   _timer1_process
     ___awdiv
       ___awmod (ARG)
     ___awmod
   _timer_process
     _gm_7doan
   i1_timer0_reset
   i1_timer1_reset

 Address spaces:
Name               Size   Autos  Total    Cost      Usage
BIGRAM             F5F      0       0      37        0.0%
EEDATA             400      0       0       0        0.0%
BITBANK14          100      0       0      33        0.0%
BANK14             100      0       0      34        0.0%
BITBANK13          100      0       0      30        0.0%
BANK13             100      0       0      31        0.0%
BITBANK12          100      0       0      28        0.0%
BANK12             100      0       0      29        0.0%
BITBANK11          100      0       0      26        0.0%
BANK11             100      0       0      27        0.0%
BITBANK10          100      0       0      24        0.0%
BANK10             100      0       0      25        0.0%
BITBANK9           100      0       0      22        0.0%
BANK9              100      0       0      23        0.0%
BITBANK8           100      0       0      20        0.0%
BANK8              100      0       0      21        0.0%
BITBANK7           100      0       0      18        0.0%
BANK7              100      0       0      19        0.0%
BITBANK6           100      0       0      16        0.0%
BANK6              100      0       0      17        0.0%
BITBANK5           100      0       0      14        0.0%
BANK5              100      0       0      15        0.0%
BITBANK4           100      0       0      12        0.0%
BANK4              100      0       0      13        0.0%
BITBANK3           100      0       0      10        0.0%
BANK3              100      0       0      11        0.0%
BITBANK2           100      0       0       8        0.0%
BANK2              100      0       0       9        0.0%
BITBANK1           100      0       0       6        0.0%
BANK1              100      0       0       7        0.0%
BITBANK0            A0      0       0       4        0.0%
BANK0               A0      0       0       5        0.0%
BITBANK15           60      0       0      35        0.0%
BANK15              60      0       0      36        0.0%
BITCOMRAM           5E      0       0       0        0.0%
COMRAM              5E     17      28       1       42.6%
BITSFR               0      0       0     200        0.0%
SFR                  0      0       0     200        0.0%
STACK                0      0       0       2        0.0%
NULL                 0      0       0       0        0.0%
ABS                  0      0      28      32        0.0%
DATA                 0      0      28       3        0.0%
CODE                 0      0       0       0        0.0%


Microchip Technology PIC18 Macro Assembler V2.05 build -831301201 
Symbol Table                                                                                   Tue Nov 05 13:59:37 2019

                     l57 134C             ___awdiv@sign 000C                       bsr 000FE0  
            __CFG_BORV$3 000000             __CFG_CP0$OFF 000000             __CFG_CP1$OFF 000000  
           __CFG_CP2$OFF 000000             __CFG_CP3$OFF 000000              __CFG_OSC$HS 000000  
           __CFG_CP4$OFF 000000             __CFG_CP5$OFF 000000             __CFG_CP6$OFF 000000  
           __CFG_CP7$OFF 000000   __end_ofi1_timer0_reset 1340   __end_ofi1_timer1_reset 1330  
           __CFG_CPB$OFF 000000             __CFG_CPD$OFF 000000                      _gio 0021  
                    _row 0025             ___awmod@sign 0006                      wreg 000FE8  
           __CFG_MODE$MC 000000             __CFG_LVP$OFF 000000             __CFG_WDT$OFF 000000  
                   _GIEH 007F97                     _GIEL 007F96                     _TMR0 000FD6  
                   _dbuf 0018                     _gcol 0027                     _giay 0023  
                   _main 1340                     _init 12BA                     _rcol 0026  
                   _phut 0022                     fsr2h 000FDA                     indf2 000FDF  
                   fsr2l 000FD9                     btemp 0029                     start 0092  
          __CFG_IESO$OFF 000000            __CFG_MCLRE$ON 000000             ___param_bank 000000  
        ??_timer_process 0004            __CFG_WAIT$OFF 000000          __end_of_dl7doan 1011  
                  ?_main 0001                    ?_init 0001          __end_of___awdiv 11B4  
        ?i1_timer0_reset 0001          __end_of___awmod 1224          ?i1_timer1_reset 0001  
                  _T0CON 000FD5          ___awdiv@divisor 0009                    _T1CON 000FCD  
                  i1l115 006A                    i1l803 1248                    i1l797 1230  
                  i1l991 1144                    i1l997 1154          ___awdiv@counter 000B  
                  _TMR1H 000FCF                    _TMR1L 000FCE                    _PORTB 000F81  
                  _PORTD 000F83                    _TRISB 000F93                    _TRISD 000F95  
          __CFG_PWRT$OFF 000000            __CFG_WRT0$OFF 000000            __CFG_WRT1$OFF 000000  
          __CFG_WRT2$OFF 000000            __CFG_WRT3$OFF 000000            __CFG_WRT4$OFF 000000  
          __CFG_WRT5$OFF 000000            __CFG_WRT6$OFF 000000            __CFG_WRT7$OFF 000000  
         __CFG_EBTR0$OFF 000000           __CFG_FCMEN$OFF 000000           __CFG_EBTR1$OFF 000000  
         __CFG_EBTR2$OFF 000000           __CFG_EBTR3$OFF 000000           __CFG_EBTR4$OFF 000000  
         __CFG_EBTR5$OFF 000000           __CFG_EBTR6$OFF 000000           __CFG_EBTR7$OFF 000000  
          __CFG_WRTB$OFF 000000            __CFG_WRTC$OFF 000000            __CFG_WRTD$OFF 000000  
         __CFG_EBTRB$OFF 000000                    _index 0024                    tablat 000FF5  
                  ttemp5 002A                    ttemp6 002D                    ttemp7 0031  
                  status 000FD8                    wtemp8 002A          __initialization 129C  
           __end_of_main 134E             __end_of_init 12D8                   ??_main 0018  
                 ??_init 0018            __activetblptr 000001         ___awdiv@dividend 0007  
                 i1l1003 116A                   i1l1005 1172                   i1l1023 11AA  
                 i1l1015 1192                   i1l1103 0054                   i1l1019 119C  
                 i1l1051 1202                   i1l1043 11E2                   i1l1035 11C8  
                 i1l1045 11EA                   i1l1055 120C                   i1l1039 11D4  
                 i1l1081 1046                   i1l1059 121A                   i1l1075 1036  
                 i1l1085 1052                   i1l1069 1026          __CFG_BBSIZ$BB2K 000000  
                 _TMR0IE 007F95                   _TMR0IF 007F92                   _TMR1IE 007CE8  
                 _TMR1IF 007CF0                   _TMR0IP 007F8A                   _TMR1IP 007CF8  
                 _TMR0ON 007EAF                   _TMR1ON 007E68         __end_of_gm_7doan 1264  
         __CFG_XINST$OFF 000000                ??___awdiv 000B           __CFG_STVREN$ON 000000  
              ??___awmod 0005             ?_timer0_init 0001             ?_timer1_init 0001  
                 clear_0 12A2         ___awdiv@quotient 000D          ___awmod@divisor 0003  
                 _select 0020                   _selidx 0028          ___awmod@counter 0005  
           __mediumconst 0000                   tblptrh 000FF7                   tblptrl 000FF6  
                 tblptru 000FF8               __accesstop 0060  __end_of__initialization 12A8  
          ___rparam_used 000001           __pcstackCOMRAM 0001         ??i1_timer0_reset 0001  
       ??i1_timer1_reset 0001  __size_of_timer1_process 011E                ?_gm_7doan 0001  
                i1u31_20 11EE                  i1u15_24 128C                  i1u15_25 1288  
                i1u25_20 1176                  __Hparam 0000                  __Lparam 0000  
             gm_7doan@so 0003                  _dl7doan 1001                  ___awdiv 1130  
                ___awmod 11B4             __psmallconst 1000                  __pcinit 129C  
                __ramtop 1000     __size_of_timer0_init 0014     __size_of_timer1_init 0014  
          ?_timer0_reset 0001                  __ptext0 1340                  __ptext1 12D8  
                __ptext2 1300                  __ptext3 12EC                  __ptext4 1310  
                __ptext5 12BA                  __ptext7 1320                  __ptext8 1330  
                __ptext9 1264            ?_timer1_reset 0001    __end_of_timer_process 129C  
             ??_gm_7doan 0001         ___awmod@dividend 0001     end_of_initialization 12A8  
             _timer1_isr 0018                  postinc0 000FEE           ??_timer0_reset 0018  
         ??_timer1_reset 0018           _timer1_process 1012      start_initialization 129C  
            ?_timer1_isr 0001         __CFG_LPT1OSC$OFF 000000   __end_of_timer1_process 1130  
            __pbssCOMRAM 0018        __size_of_gm_7doan 0040     __end_of_timer0_reset 1320  
   __end_of_timer1_reset 1310        __CFG_CCP2MX$PORTC 000000                 ?___awdiv 0007  
               ?___awmod 0001              __pintcodelo 0018          ?_timer1_process 0001  
            __smallconst 1000      __size_of_timer1_isr 007A    __CFG_DATABW$DATA16BIT 000000  
               _RCONbits 000FD0         __CFG_WDTPS$32768 000000            ??_timer0_init 0018  
          ??_timer1_init 0018        __CFG_ECCPMX$PORTE 000000  __size_ofi1_timer0_reset 0010  
__size_ofi1_timer1_reset 0010   __size_of_timer_process 0038                 __Hrparam 0000  
               __Lrparam 0000             __Lsmallconst 1000       __CFG_BOREN$SBORDIS 000000  
       __size_of___awdiv 0084         __size_of___awmod 0070      __end_of_timer0_init 1300  
    __end_of_timer1_init 12EC                 _gm_7doan 1224                 __ptext10 1224  
               __ptext11 1012                 __ptext12 11B4                 __ptext13 1130  
  __size_of_timer0_reset 0010    __size_of_timer1_reset 0010            __size_of_main 000E  
          __size_of_init 001E             ??_timer1_isr 000F                 int$flags 0029  
           _timer0_reset 1310             _timer1_reset 1300    __CFG_ADDRBW$ADDR20BIT 000000  
          _timer_process 1264                 intlevel1 0000       __end_of_timer1_isr 0092  
       ??_timer1_process 000F              _timer0_init 12EC              _timer1_init 12D8  
         ?_timer_process 0001           i1_timer0_reset 1330           i1_timer1_reset 1320  
