:020000040000FA
:0400000049EF00F0D4
:100018002980D8CF0FF0E8CF10F0E0CF11F0D9CF7A
:1000280012F0DACF13F0F6CF14F0F7CF15F0F8CFBF
:1000380016F0F5CF17F0010E9DA0000E9EA0000E41
:10004800E8A004D090EC09F009EC08F0010EF2AA3F
:10005800000EF2A4000EE8A004D098EC09F032ECEF
:1000680009F017C0F5FF16C0F8FF15C0F7FF14C058
:10007800F6FF13C0DAFF12C0D9FF11C0E0FF10C0AD
:0E008800E8FF0FC0D8FF299010004EEF09F0DE
:10100000003F065B4F666D7D077F6F777C395E79A9
:1010100071002428246E0A0E2418D8A404D0000ECF
:10102000246E2328236E3C0E2318D8A404D0000E6F
:10103000236E2228226E3C0E2218D8A404D0000E63
:10104000226E2128216E180E2118D8A402D0000E7D
:10105000216E000E046E0A0E036E21C001F0026ABA
:10106000DAEC08F00150215C076E0250D8A002288B
:10107000086A085E000E0A6E0A0E096E98EC08F007
:1010800007501D6E21C001F0026A000E046E0A0EA8
:10109000036EDAEC08F00150100F1C6E000E046EA7
:1010A0000A0E036E22C001F0026ADAEC08F0015069
:1010B000225C076E0250D8A00228086A085E000E63
:1010C0000A6E0A0E096E98EC08F007501B6E22C0DB
:1010D00001F0026A000E046E0A0E036EDAEC08F0EC
:1010E0000150100F1A6E000E046E0A0E036E23C01C
:1010F00001F0026ADAEC08F00150235C076E02503E
:10110000D8A00228086A085E000E0A6E0A0E096E50
:1011100098EC08F00750196E23C001F0026A000E27
:10112000046E0A0E036EDAEC08F00150186E12001D
:10113000000E0C6E0AAE06D0096C0A1ED8B00A2A40
:10114000010E0C6E08AE06D0076C081ED8B0082A37
:10115000010E0C1A000E0E6E000E0D6E09500A10D4
:10116000D8B41CD0010E0B6E04D0D89009360A36C4
:101170000B2A0AAEFAD7D8900D360E360950075C06
:101180000A500858D8A005D00950075E0A50085ADE
:101190000D80D8900A3209320B2EEDD70C50D8B4FE
:1011A00004D00D6C0E1ED8B00E2A0DC007F00EC074
:1011B00008F01200000E066E02AE06D0016C021E90
:1011C000D8B0022A010E066E04AE04D0036C041ED1
:1011D000D8B0042A03500410D8B418D0010E056EFC
:1011E00004D0D89003360436052A04AEFAD703504B
:1011F000015C04500258D8A004D00350015E045092
:10120000025AD89004320332052EF1D70650D8B4D2
:1012100004D0016C021ED8B0022A01C001F002C045
:1012200002F01200036E1F0E036402D0000E1200C3
:10123000100E036009D0010E0324F66EF76A100E3B
:10124000F7220800F550120003500F0B016E026ADE
:10125000010E0124F66E100E0220F76E0800F55004
:1012600080091200000E816E180E2824D96EDA6AE9
:10127000000EDA22DF5012EC09F0836E28C004F071
:10128000010E056E042A02D0D8900536042EFCD734
:101290000550816E282A070E2816120000EE18F05D
:1012A000110EEE6AE806FDE129902992000EF86E13
:1012B000100EF76E0001A0EF09F0000E936E000E05
:1012C000956E000E286E000E246E000E236E000E2A
:1012D000226E000E216E1200D08E9F909D80F28EA5
:1012E000F28C310ECD6E80EC09F01200D08EF194AC
:1012F000F28AF28EF28C020ED56E88EC09F01200A2
:101300009E90CD907A0ECF6E120ECE6ECD801200D2
:10131000F294D59EFF0ED76E830ED66ED58E120038
:101320009E90CD907A0ECF6E120ECE6ECD801200B2
:10133000F294D59EFF0ED76E830ED66ED58E120018
:0E1340005DEC09F076EC09F06CEC09F0FFD7DB
:020000040020DA
:08000000FFFFFFFFFFFFFFFF00
:020000040030CA
:0E000000FF021F1EF38381FFFFC0FFE0FF40E1
:00000001FF
