

Microchip Technology PIC18 LITE Macro Assembler V1.45 build -152302408 
                                                                                               Tue Oct 01 13:44:11 2019

Microchip Technology Omniscient Code Generator v1.45 (Free mode) build 201711160504
     1                           	processor	18F8722
     2                           	fnconf	rparam,??,?,0
     3                           	opt	pw 120
     4                           	opt	lm
     5                           	psect	smallconst,global,reloc=2,class=SMALLCONST,delta=1,noexec
     6                           	psect	cinit,global,reloc=2,class=CODE,delta=1
     7                           	psect	bssCOMRAM,global,class=COMRAM,space=1,delta=1,noexec
     8                           	psect	cstackCOMRAM,global,class=COMRAM,space=1,delta=1,noexec
     9                           	psect	text0,global,reloc=2,class=CODE,delta=1
    10                           	psect	text1,global,reloc=2,class=CODE,delta=1
    11                           	psect	text2,global,reloc=2,class=CODE,delta=1
    12                           	psect	text3,global,reloc=2,class=CODE,delta=1
    13                           	psect	intcode,global,reloc=2,class=CODE,delta=1
    14                           	psect	intcode_body,global,reloc=2,class=CODE,delta=1
    15                           	psect	text5,global,reloc=2,class=CODE,delta=1
    16                           	psect	intsave_regs,global,class=BIGRAM,space=1,delta=1,noexec
    17                           	psect	rparam,global,class=COMRAM,space=1,delta=1,noexec
    18                           	psect	temp,global,ovrld,common,class=COMRAM,space=1,delta=1
    19  0000                     
    20                           ; Version 1.45
    21                           ; Generated 16/11/2017 GMT
    22                           ; 
    23                           ; Copyright © 2017, Microchip Technology Inc. and its subsidiaries ("Microchip")
    24                           ; All rights reserved.
    25                           ; 
    26                           ; This software is developed by Microchip Technology Inc. and its subsidiaries ("Microch
      +                          ip").
    27                           ; 
    28                           ; Redistribution and use in source and binary forms, with or without modification, are
    29                           ; permitted provided that the following conditions are met:
    30                           ; 
    31                           ;     1. Redistributions of source code must retain the above copyright notice, this lis
      +                          t of
    32                           ;        conditions and the following disclaimer.
    33                           ; 
    34                           ;     2. Redistributions in binary form must reproduce the above copyright notice, this 
      +                          list
    35                           ;        of conditions and the following disclaimer in the documentation and/or other
    36                           ;        materials provided with the distribution.
    37                           ; 
    38                           ;     3. Microchip's name may not be used to endorse or promote products derived from th
      +                          is
    39                           ;        software without specific prior written permission.
    40                           ; 
    41                           ; THIS SOFTWARE IS PROVIDED BY MICROCHIP "AS IS" AND ANY EXPRESS OR IMPLIED WARRANTIES,
    42                           ; INCLUDING, BUT NOT LIMITED TO, THE IMPLIED WARRANTIES OF MERCHANTABILITY AND FITNESS F
      +                          OR
    43                           ; PURPOSE ARE DISCLAIMED.  IN NO EVENT SHALL MICROCHIP BE LIABLE FOR ANY DIRECT, INDIREC
      +                          T,
    44                           ; INCIDENTAL, SPECIAL, EXEMPLARY, OR CONSEQUENTIAL DAMAGES (INCLUDING BUT NOT LIMITED TO
    45                           ; PROCUREMENT OF SUBSTITUTE GOODS OR SERVICES; LOSS OF USE, DATA OR PROFITS; OR BUSINESS
    46                           ; INTERRUPTION) HOWSOEVER CAUSED AND ON ANY THEORY OF LIABILITY, WHETHER IN CONTRACT, ST
      +                          RICT
    47                           ; LIABILITY, OR TORT (INCLUDING NEGLIGENCE OR OTHERWISE) ARISING IN ANY WAY OUT OF THE U
      +                          SE OF
    48                           ; THIS SOFTWARE, EVEN IF ADVISED OF THE POSSIBILITY OF SUCH DAMAGE.
    49                           ; 
    50                           ; 
    51                           ; Code-generator required, PIC18F8722 Definitions
    52                           ; 
    53                           ; SFR Addresses
    54  0000                     
    55                           	psect	smallconst
    56  001000                     __psmallconst:
    57                           	opt stack 0
    58  001000  00                 	db	0
    59  001001                     _dl_rom:
    60                           	opt stack 0
    61  001001  55                 	db	85
    62  001002  AA                 	db	170
    63  001003  3C                 	db	60
    64  001004  C3                 	db	195
    65  001005                     __end_of_dl_rom:
    66                           	opt stack 0
    67  0000                     _INTCONbits	set	4082
    68  0000                     _RCONbits	set	4048
    69  0000                     _TRISBbits	set	3987
    70  0000                     _ADCON1	set	4033
    71                           
    72                           ; #config settings
    73  001005  00                 	db	0	; dummy byte at the end
    74  0000                     
    75                           	psect	cinit
    76  0010DE                     __pcinit:
    77                           	opt stack 0
    78  0010DE                     start_initialization:
    79                           	opt stack 0
    80  0010DE                     __initialization:
    81                           	opt stack 0
    82                           
    83                           ; Clear objects allocated to COMRAM (1 bytes)
    84  0010DE  6A13               	clrf	__pbssCOMRAM& (0+255),c
    85  0010E0                     end_of_initialization:
    86                           	opt stack 0
    87  0010E0                     __end_of__initialization:
    88                           	opt stack 0
    89  0010E0  9014               	bcf	int$flags,0,c	;clear compiler interrupt flag (level 1)
    90  0010E2  9214               	bcf	int$flags,1,c	;clear compiler interrupt flag (level 2)
    91  0010E4  0E00               	movlw	low (__Lsmallconst shr (0+16))
    92  0010E6  6EF8               	movwf	tblptru,c
    93  0010E8  0E10               	movlw	high __Lsmallconst
    94  0010EA  6EF7               	movwf	tblptrh,c
    95  0010EC  0100               	movlb	0
    96  0010EE  EF83  F008         	goto	_main	;jump to C main() function
    97                           tblptru	equ	0xFF8
    98                           tblptrh	equ	0xFF7
    99                           
   100                           	psect	bssCOMRAM
   101  000013                     __pbssCOMRAM:
   102                           	opt stack 0
   103  000013                     _idx:
   104                           	opt stack 0
   105  000013                     	ds	1
   106                           tblptru	equ	0xFF8
   107                           tblptrh	equ	0xFF7
   108                           
   109                           	psect	cstackCOMRAM
   110  000001                     __pcstackCOMRAM:
   111                           	opt stack 0
   112  000001                     ??_init0_isr:
   113  000001                     
   114                           ; 1 bytes @ 0x0
   115  000001                     	ds	18
   116  000013                     tblptru	equ	0xFF8
   117                           tblptrh	equ	0xFF7
   118                           
   119                           ; 1 bytes @ 0x12
   120 ;;
   121 ;;Main: autosize = 0, tempsize = 0, incstack = 0, save=0
   122 ;;
   123 ;; *************** function _main *****************
   124 ;; Defined at:
   125 ;;		line 44 in file "Tn03.c"
   126 ;; Parameters:    Size  Location     Type
   127 ;;		None
   128 ;; Auto vars:     Size  Location     Type
   129 ;;		None
   130 ;; Return value:  Size  Location     Type
   131 ;;                  1    wreg      void 
   132 ;; Registers used:
   133 ;;		wreg, status,2, status,0, tblptrl, tblptrh, tblptru, prodl, prodh, cstack
   134 ;; Tracked objects:
   135 ;;		On entry : 0/0
   136 ;;		On exit  : 0/0
   137 ;;		Unchanged: 0/0
   138 ;; Data sizes:     COMRAM   BANK0   BANK1   BANK2   BANK3   BANK4   BANK5   BANK6   BANK7   BANK8   BANK9  BANK10  BANK1
      +1  BANK12  BANK13  BANK14  BANK15
   139 ;;      Params:         0       0       0       0       0       0       0       0       0       0       0       0       
      +0       0       0       0       0
   140 ;;      Locals:         0       0       0       0       0       0       0       0       0       0       0       0       
      +0       0       0       0       0
   141 ;;      Temps:          0       0       0       0       0       0       0       0       0       0       0       0       
      +0       0       0       0       0
   142 ;;      Totals:         0       0       0       0       0       0       0       0       0       0       0       0       
      +0       0       0       0       0
   143 ;;Total ram usage:        0 bytes
   144 ;; Hardware stack levels required when called:    4
   145 ;; This function calls:
   146 ;;		_init
   147 ;;		_int0_init
   148 ;; This function is called by:
   149 ;;		Startup code after reset
   150 ;; This function uses a non-reentrant model
   151 ;;
   152                           
   153                           	psect	text0
   154  001106                     __ptext0:
   155                           	opt stack 0
   156  001106                     _main:
   157                           	opt stack 27
   158                           
   159                           ;Tn03.c: 46: init();
   160                           
   161                           ;incstack = 0
   162  001106  EC79  F008         	call	_init	;wreg free
   163                           
   164                           ;Tn03.c: 47: int0_init();
   165  00110A  EC88  F008         	call	_int0_init	;wreg free
   166  00110E                     l35:
   167  00110E  D7FF               	goto	l35
   168  001110                     __end_of_main:
   169                           	opt stack 0
   170                           tblptru	equ	0xFF8
   171                           tblptrh	equ	0xFF7
   172                           
   173 ;; *************** function _int0_init *****************
   174 ;; Defined at:
   175 ;;		line 27 in file "Tn03.c"
   176 ;; Parameters:    Size  Location     Type
   177 ;;		None
   178 ;; Auto vars:     Size  Location     Type
   179 ;;		None
   180 ;; Return value:  Size  Location     Type
   181 ;;                  1    wreg      void 
   182 ;; Registers used:
   183 ;;		None
   184 ;; Tracked objects:
   185 ;;		On entry : 0/0
   186 ;;		On exit  : 0/0
   187 ;;		Unchanged: 0/0
   188 ;; Data sizes:     COMRAM   BANK0   BANK1   BANK2   BANK3   BANK4   BANK5   BANK6   BANK7   BANK8   BANK9  BANK10  BANK1
      +1  BANK12  BANK13  BANK14  BANK15
   189 ;;      Params:         0       0       0       0       0       0       0       0       0       0       0       0       
      +0       0       0       0       0
   190 ;;      Locals:         0       0       0       0       0       0       0       0       0       0       0       0       
      +0       0       0       0       0
   191 ;;      Temps:          0       0       0       0       0       0       0       0       0       0       0       0       
      +0       0       0       0       0
   192 ;;      Totals:         0       0       0       0       0       0       0       0       0       0       0       0       
      +0       0       0       0       0
   193 ;;Total ram usage:        0 bytes
   194 ;; Hardware stack levels used:    1
   195 ;; Hardware stack levels required when called:    2
   196 ;; This function calls:
   197 ;;		Nothing
   198 ;; This function is called by:
   199 ;;		_main
   200 ;; This function uses a non-reentrant model
   201 ;;
   202                           
   203                           	psect	text1
   204  001110                     __ptext1:
   205                           	opt stack 0
   206  001110                     _int0_init:
   207                           	opt stack 28
   208                           
   209                           ;Tn03.c: 29: RCONbits.IPEN = 1;
   210                           
   211                           ;incstack = 0
   212  001110  8ED0               	bsf	4048,7,c	;volatile
   213                           
   214                           ;Tn03.c: 30: INTCONbits.INT0IF = 0;
   215  001112  92F2               	bcf	intcon,1,c	;volatile
   216                           
   217                           ;Tn03.c: 31: INTCONbits.INT0IE = 1;
   218  001114  88F2               	bsf	intcon,4,c	;volatile
   219                           
   220                           ;Tn03.c: 32: INTCONbits.GIEH = 1;
   221  001116  8EF2               	bsf	intcon,7,c	;volatile
   222  001118  0012               	return		;funcret
   223  00111A                     __end_of_int0_init:
   224                           	opt stack 0
   225                           tblptru	equ	0xFF8
   226                           tblptrh	equ	0xFF7
   227                           intcon	equ	0xFF2
   228                           
   229 ;; *************** function _init *****************
   230 ;; Defined at:
   231 ;;		line 19 in file "Tn03.c"
   232 ;; Parameters:    Size  Location     Type
   233 ;;		None
   234 ;; Auto vars:     Size  Location     Type
   235 ;;		None
   236 ;; Return value:  Size  Location     Type
   237 ;;                  1    wreg      void 
   238 ;; Registers used:
   239 ;;		wreg, status,2, status,0, tblptrl, tblptrh, tblptru, prodl, prodh, cstack
   240 ;; Tracked objects:
   241 ;;		On entry : 0/0
   242 ;;		On exit  : 0/0
   243 ;;		Unchanged: 0/0
   244 ;; Data sizes:     COMRAM   BANK0   BANK1   BANK2   BANK3   BANK4   BANK5   BANK6   BANK7   BANK8   BANK9  BANK10  BANK1
      +1  BANK12  BANK13  BANK14  BANK15
   245 ;;      Params:         0       0       0       0       0       0       0       0       0       0       0       0       
      +0       0       0       0       0
   246 ;;      Locals:         0       0       0       0       0       0       0       0       0       0       0       0       
      +0       0       0       0       0
   247 ;;      Temps:          0       0       0       0       0       0       0       0       0       0       0       0       
      +0       0       0       0       0
   248 ;;      Totals:         0       0       0       0       0       0       0       0       0       0       0       0       
      +0       0       0       0       0
   249 ;;Total ram usage:        0 bytes
   250 ;; Hardware stack levels used:    1
   251 ;; Hardware stack levels required when called:    3
   252 ;; This function calls:
   253 ;;		_xuatled
   254 ;; This function is called by:
   255 ;;		_main
   256 ;; This function uses a non-reentrant model
   257 ;;
   258                           
   259                           	psect	text2
   260  0010F2                     __ptext2:
   261                           	opt stack 0
   262  0010F2                     _init:
   263                           	opt stack 27
   264                           
   265                           ;Tn03.c: 21: ADCON1 = 0x0F;
   266                           
   267                           ;incstack = 0
   268  0010F2  0E0F               	movlw	15
   269  0010F4  6EC1               	movwf	4033,c	;volatile
   270                           
   271                           ;Tn03.c: 22: led_io = 0;
   272  0010F6  0E00               	movlw	0
   273  0010F8  6E95               	movwf	3989,c	;volatile
   274                           
   275                           ;Tn03.c: 23: TRISBbits.RB0 = 1;
   276  0010FA  8093               	bsf	3987,0,c	;volatile
   277                           
   278                           ;Tn03.c: 24: idx = 0;
   279  0010FC  0E00               	movlw	0
   280  0010FE  6E13               	movwf	_idx,c
   281                           
   282                           ;Tn03.c: 25: xuatled();
   283  001100  EC51  F008         	call	_xuatled	;wreg free
   284  001104  0012               	return		;funcret
   285  001106                     __end_of_init:
   286                           	opt stack 0
   287                           tblptru	equ	0xFF8
   288                           tblptrh	equ	0xFF7
   289                           intcon	equ	0xFF2
   290                           
   291 ;; *************** function _xuatled *****************
   292 ;; Defined at:
   293 ;;		line 13 in file "Tn03.c"
   294 ;; Parameters:    Size  Location     Type
   295 ;;		None
   296 ;; Auto vars:     Size  Location     Type
   297 ;;		None
   298 ;; Return value:  Size  Location     Type
   299 ;;                  1    wreg      void 
   300 ;; Registers used:
   301 ;;		wreg, status,2, status,0, tblptrl, tblptrh, tblptru, prodl, prodh
   302 ;; Tracked objects:
   303 ;;		On entry : 0/0
   304 ;;		On exit  : 0/0
   305 ;;		Unchanged: 0/0
   306 ;; Data sizes:     COMRAM   BANK0   BANK1   BANK2   BANK3   BANK4   BANK5   BANK6   BANK7   BANK8   BANK9  BANK10  BANK1
      +1  BANK12  BANK13  BANK14  BANK15
   307 ;;      Params:         0       0       0       0       0       0       0       0       0       0       0       0       
      +0       0       0       0       0
   308 ;;      Locals:         0       0       0       0       0       0       0       0       0       0       0       0       
      +0       0       0       0       0
   309 ;;      Temps:          0       0       0       0       0       0       0       0       0       0       0       0       
      +0       0       0       0       0
   310 ;;      Totals:         0       0       0       0       0       0       0       0       0       0       0       0       
      +0       0       0       0       0
   311 ;;Total ram usage:        0 bytes
   312 ;; Hardware stack levels used:    1
   313 ;; Hardware stack levels required when called:    2
   314 ;; This function calls:
   315 ;;		Nothing
   316 ;; This function is called by:
   317 ;;		_init
   318 ;; This function uses a non-reentrant model
   319 ;;
   320                           
   321                           	psect	text3
   322  0010A2                     __ptext3:
   323                           	opt stack 0
   324  0010A2                     _xuatled:
   325                           	opt stack 27
   326                           
   327                           ;Tn03.c: 15: led = dl_rom[idx++];
   328                           
   329                           ;incstack = 0
   330  0010A2  5013               	movf	_idx,w,c
   331  0010A4  0D01               	mullw	1
   332  0010A6  0E01               	movlw	low _dl_rom
   333  0010A8  24F3               	addwf	prodl,w,c
   334  0010AA  6EF6               	movwf	tblptrl,c
   335  0010AC  0E10               	movlw	high _dl_rom
   336  0010AE  20F4               	addwfc	prodh,w,c
   337  0010B0  6EF7               	movwf	tblptrh,c
   338  0010B2                     	if	0	;There are less than 3 active tblptr bytes
   339  0010B2                     	endif
   340  0010B2  0008               	tblrd		*
   341  0010B4  CFF5 FF8C          	movff	tablat,3980	;volatile
   342  0010B8  2A13               	incf	_idx,f,c
   343                           
   344                           ;Tn03.c: 16: idx% = 4;
   345  0010BA  0E03               	movlw	3
   346  0010BC  1613               	andwf	_idx,f,c
   347  0010BE  0012               	return		;funcret
   348  0010C0                     __end_of_xuatled:
   349                           	opt stack 0
   350                           tblptru	equ	0xFF8
   351                           tblptrh	equ	0xFF7
   352                           tblptrl	equ	0xFF6
   353                           tablat	equ	0xFF5
   354                           prodh	equ	0xFF4
   355                           prodl	equ	0xFF3
   356                           intcon	equ	0xFF2
   357                           
   358 ;; *************** function _init0_isr *****************
   359 ;; Defined at:
   360 ;;		line 38 in file "Tn03.c"
   361 ;; Parameters:    Size  Location     Type
   362 ;;		None
   363 ;; Auto vars:     Size  Location     Type
   364 ;;		None
   365 ;; Return value:  Size  Location     Type
   366 ;;                  1    wreg      void 
   367 ;; Registers used:
   368 ;;		wreg, status,2, status,0, tblptrl, tblptrh, tblptru, prodl, prodh, cstack
   369 ;; Tracked objects:
   370 ;;		On entry : 0/0
   371 ;;		On exit  : 0/0
   372 ;;		Unchanged: 0/0
   373 ;; Data sizes:     COMRAM   BANK0   BANK1   BANK2   BANK3   BANK4   BANK5   BANK6   BANK7   BANK8   BANK9  BANK10  BANK1
      +1  BANK12  BANK13  BANK14  BANK15
   374 ;;      Params:         0       0       0       0       0       0       0       0       0       0       0       0       
      +0       0       0       0       0
   375 ;;      Locals:         0       0       0       0       0       0       0       0       0       0       0       0       
      +0       0       0       0       0
   376 ;;      Temps:         18       0       0       0       0       0       0       0       0       0       0       0       
      +0       0       0       0       0
   377 ;;      Totals:        18       0       0       0       0       0       0       0       0       0       0       0       
      +0       0       0       0       0
   378 ;;Total ram usage:       18 bytes
   379 ;; Hardware stack levels used:    1
   380 ;; Hardware stack levels required when called:    1
   381 ;; This function calls:
   382 ;;		i2_xuatled
   383 ;; This function is called by:
   384 ;;		Interrupt level 2
   385 ;; This function uses a non-reentrant model
   386 ;;
   387                           
   388                           	psect	intcode
   389  000008                     __pintcode:
   390                           	opt stack 0
   391  000008                     _init0_isr:
   392                           	opt stack 27
   393                           
   394                           ;incstack = 0
   395  000008  8214               	bsf	btemp,1,c	;set compiler interrupt flag (level 2)
   396  00000A  ED03  F008         	call	int_func,f	;refresh shadow registers
   397                           tblptru	equ	0xFF8
   398                           tblptrh	equ	0xFF7
   399                           tblptrl	equ	0xFF6
   400                           tablat	equ	0xFF5
   401                           prodh	equ	0xFF4
   402                           prodl	equ	0xFF3
   403                           intcon	equ	0xFF2
   404                           
   405                           	psect	intcode_body
   406  001006                     __pintcode_body:
   407                           	opt stack 27
   408  001006                     int_func:
   409                           	opt stack 27
   410  001006  0006               	pop		; remove dummy address from shadow register refresh
   411  001008  CFFA F001          	movff	pclath,??_init0_isr
   412  00100C  CFFB F002          	movff	pclatu,??_init0_isr+1
   413  001010  CFE9 F003          	movff	fsr0l,??_init0_isr+2
   414  001014  CFEA F004          	movff	fsr0h,??_init0_isr+3
   415  001018  CFE1 F005          	movff	fsr1l,??_init0_isr+4
   416  00101C  CFE2 F006          	movff	fsr1h,??_init0_isr+5
   417  001020  CFD9 F007          	movff	fsr2l,??_init0_isr+6
   418  001024  CFDA F008          	movff	fsr2h,??_init0_isr+7
   419  001028  CFF3 F009          	movff	prodl,??_init0_isr+8
   420  00102C  CFF4 F00A          	movff	prodh,??_init0_isr+9
   421  001030  CFF6 F00B          	movff	tblptrl,??_init0_isr+10
   422  001034  CFF7 F00C          	movff	tblptrh,??_init0_isr+11
   423  001038  CFF8 F00D          	movff	tblptru,??_init0_isr+12
   424  00103C  CFF5 F00E          	movff	tablat,??_init0_isr+13
   425  001040  C014  F00F         	movff	btemp,??_init0_isr+14
   426  001044  C015  F010         	movff	btemp+1,??_init0_isr+15
   427  001048  C016  F011         	movff	btemp+2,??_init0_isr+16
   428  00104C  C017  F012         	movff	btemp+3,??_init0_isr+17
   429                           
   430                           ;Tn03.c: 40: INTCONbits.INT0IF = 0;
   431  001050  92F2               	bcf	intcon,1,c	;volatile
   432                           
   433                           ;Tn03.c: 41: xuatled();
   434  001052  EC60  F008         	call	i2_xuatled	;wreg free
   435  001056  C012  F017         	movff	??_init0_isr+17,btemp+3
   436  00105A  C011  F016         	movff	??_init0_isr+16,btemp+2
   437  00105E  C010  F015         	movff	??_init0_isr+15,btemp+1
   438  001062  C00F  F014         	movff	??_init0_isr+14,btemp
   439  001066  C00E  FFF5         	movff	??_init0_isr+13,tablat
   440  00106A  C00D  FFF8         	movff	??_init0_isr+12,tblptru
   441  00106E  C00C  FFF7         	movff	??_init0_isr+11,tblptrh
   442  001072  C00B  FFF6         	movff	??_init0_isr+10,tblptrl
   443  001076  C00A  FFF4         	movff	??_init0_isr+9,prodh
   444  00107A  C009  FFF3         	movff	??_init0_isr+8,prodl
   445  00107E  C008  FFDA         	movff	??_init0_isr+7,fsr2h
   446  001082  C007  FFD9         	movff	??_init0_isr+6,fsr2l
   447  001086  C006  FFE2         	movff	??_init0_isr+5,fsr1h
   448  00108A  C005  FFE1         	movff	??_init0_isr+4,fsr1l
   449  00108E  C004  FFEA         	movff	??_init0_isr+3,fsr0h
   450  001092  C003  FFE9         	movff	??_init0_isr+2,fsr0l
   451  001096  C002  FFFB         	movff	??_init0_isr+1,pclatu
   452  00109A  C001  FFFA         	movff	??_init0_isr,pclath
   453  00109E  9214               	bcf	btemp,1,c	;clear compiler interrupt flag (level 2)
   454  0010A0  0011               	retfie		f
   455  0010A2                     __end_of_init0_isr:
   456                           	opt stack 0
   457                           pclatu	equ	0xFFB
   458                           pclath	equ	0xFFA
   459                           tblptru	equ	0xFF8
   460                           tblptrh	equ	0xFF7
   461                           tblptrl	equ	0xFF6
   462                           tablat	equ	0xFF5
   463                           prodh	equ	0xFF4
   464                           prodl	equ	0xFF3
   465                           intcon	equ	0xFF2
   466                           fsr0h	equ	0xFEA
   467                           fsr0l	equ	0xFE9
   468                           fsr1h	equ	0xFE2
   469                           fsr1l	equ	0xFE1
   470                           fsr2h	equ	0xFDA
   471                           fsr2l	equ	0xFD9
   472                           
   473 ;; *************** function i2_xuatled *****************
   474 ;; Defined at:
   475 ;;		line 13 in file "Tn03.c"
   476 ;; Parameters:    Size  Location     Type
   477 ;;		None
   478 ;; Auto vars:     Size  Location     Type
   479 ;;		None
   480 ;; Return value:  Size  Location     Type
   481 ;;                  1    wreg      void 
   482 ;; Registers used:
   483 ;;		wreg, status,2, status,0, tblptrl, tblptrh, tblptru, prodl, prodh
   484 ;; Tracked objects:
   485 ;;		On entry : 0/0
   486 ;;		On exit  : 0/0
   487 ;;		Unchanged: 0/0
   488 ;; Data sizes:     COMRAM   BANK0   BANK1   BANK2   BANK3   BANK4   BANK5   BANK6   BANK7   BANK8   BANK9  BANK10  BANK1
      +1  BANK12  BANK13  BANK14  BANK15
   489 ;;      Params:         0       0       0       0       0       0       0       0       0       0       0       0       
      +0       0       0       0       0
   490 ;;      Locals:         0       0       0       0       0       0       0       0       0       0       0       0       
      +0       0       0       0       0
   491 ;;      Temps:          0       0       0       0       0       0       0       0       0       0       0       0       
      +0       0       0       0       0
   492 ;;      Totals:         0       0       0       0       0       0       0       0       0       0       0       0       
      +0       0       0       0       0
   493 ;;Total ram usage:        0 bytes
   494 ;; Hardware stack levels used:    1
   495 ;; This function calls:
   496 ;;		Nothing
   497 ;; This function is called by:
   498 ;;		_init0_isr
   499 ;; This function uses a non-reentrant model
   500 ;;
   501                           
   502                           	psect	text5
   503  0010C0                     __ptext5:
   504                           	opt stack 0
   505  0010C0                     i2_xuatled:
   506                           	opt stack 27
   507                           
   508                           ;Tn03.c: 15: led = dl_rom[idx++];
   509                           
   510                           ;incstack = 0
   511  0010C0  5013               	movf	_idx,w,c
   512  0010C2  0D01               	mullw	1
   513  0010C4  0E01               	movlw	low _dl_rom
   514  0010C6  24F3               	addwf	prodl,w,c
   515  0010C8  6EF6               	movwf	tblptrl,c
   516  0010CA  0E10               	movlw	high _dl_rom
   517  0010CC  20F4               	addwfc	prodh,w,c
   518  0010CE  6EF7               	movwf	tblptrh,c
   519  0010D0                     	if	0	;There are less than 3 active tblptr bytes
   520  0010D0                     	endif
   521  0010D0  0008               	tblrd		*
   522  0010D2  CFF5 FF8C          	movff	tablat,3980	;volatile
   523  0010D6  2A13               	incf	_idx,f,c
   524                           
   525                           ;Tn03.c: 16: idx% = 4;
   526  0010D8  0E03               	movlw	3
   527  0010DA  1613               	andwf	_idx,f,c
   528  0010DC  0012               	return		;funcret
   529  0010DE                     __end_ofi2_xuatled:
   530                           	opt stack 0
   531                           pclatu	equ	0xFFB
   532                           pclath	equ	0xFFA
   533                           tblptru	equ	0xFF8
   534                           tblptrh	equ	0xFF7
   535                           tblptrl	equ	0xFF6
   536                           tablat	equ	0xFF5
   537                           prodh	equ	0xFF4
   538                           prodl	equ	0xFF3
   539                           intcon	equ	0xFF2
   540                           fsr0h	equ	0xFEA
   541                           fsr0l	equ	0xFE9
   542                           fsr1h	equ	0xFE2
   543                           fsr1l	equ	0xFE1
   544                           fsr2h	equ	0xFDA
   545                           fsr2l	equ	0xFD9
   546                           pclatu	equ	0xFFB
   547                           pclath	equ	0xFFA
   548                           tblptru	equ	0xFF8
   549                           tblptrh	equ	0xFF7
   550                           tblptrl	equ	0xFF6
   551                           tablat	equ	0xFF5
   552                           prodh	equ	0xFF4
   553                           prodl	equ	0xFF3
   554                           intcon	equ	0xFF2
   555                           fsr0h	equ	0xFEA
   556                           fsr0l	equ	0xFE9
   557                           fsr1h	equ	0xFE2
   558                           fsr1l	equ	0xFE1
   559                           fsr2h	equ	0xFDA
   560                           fsr2l	equ	0xFD9
   561                           
   562                           	psect	rparam
   563  0000                     pclatu	equ	0xFFB
   564                           pclath	equ	0xFFA
   565                           tblptru	equ	0xFF8
   566                           tblptrh	equ	0xFF7
   567                           tblptrl	equ	0xFF6
   568                           tablat	equ	0xFF5
   569                           prodh	equ	0xFF4
   570                           prodl	equ	0xFF3
   571                           intcon	equ	0xFF2
   572                           fsr0h	equ	0xFEA
   573                           fsr0l	equ	0xFE9
   574                           fsr1h	equ	0xFE2
   575                           fsr1l	equ	0xFE1
   576                           fsr2h	equ	0xFDA
   577                           fsr2l	equ	0xFD9
   578                           
   579                           	psect	temp
   580  000014                     btemp:
   581                           	opt stack 0
   582  000014                     	ds	1
   583  0000                     int$flags	set	btemp
   584  0000                     wtemp6	set	btemp+1
   585                           pclatu	equ	0xFFB
   586                           pclath	equ	0xFFA
   587                           tblptru	equ	0xFF8
   588                           tblptrh	equ	0xFF7
   589                           tblptrl	equ	0xFF6
   590                           tablat	equ	0xFF5
   591                           prodh	equ	0xFF4
   592                           prodl	equ	0xFF3
   593                           intcon	equ	0xFF2
   594                           fsr0h	equ	0xFEA
   595                           fsr0l	equ	0xFE9
   596                           fsr1h	equ	0xFE2
   597                           fsr1l	equ	0xFE1
   598                           fsr2h	equ	0xFDA
   599                           fsr2l	equ	0xFD9


Data Sizes:
    Strings     0
    Constant    4
    Data        0
    BSS         1
    Persistent  0
    Stack       0

Auto Spaces:
    Space          Size  Autos    Used
    COMRAM           94     18      19
    BANK0           160      0       0
    BANK1           256      0       0
    BANK2           256      0       0
    BANK3           256      0       0
    BANK4           256      0       0
    BANK5           256      0       0
    BANK6           256      0       0
    BANK7           256      0       0
    BANK8           256      0       0
    BANK9           256      0       0
    BANK10          256      0       0
    BANK11          256      0       0
    BANK12          256      0       0
    BANK13          256      0       0
    BANK14          256      0       0
    BANK15           96      0       0

Pointer List with Targets:

    None.

Critical Paths under _main in COMRAM

    None.

Critical Paths under _init0_isr in COMRAM

    None.

Critical Paths under _main in BANK0

    None.

Critical Paths under _init0_isr in BANK0

    None.

Critical Paths under _main in BANK1

    None.

Critical Paths under _init0_isr in BANK1

    None.

Critical Paths under _main in BANK2

    None.

Critical Paths under _init0_isr in BANK2

    None.

Critical Paths under _main in BANK3

    None.

Critical Paths under _init0_isr in BANK3

    None.

Critical Paths under _main in BANK4

    None.

Critical Paths under _init0_isr in BANK4

    None.

Critical Paths under _main in BANK5

    None.

Critical Paths under _init0_isr in BANK5

    None.

Critical Paths under _main in BANK6

    None.

Critical Paths under _init0_isr in BANK6

    None.

Critical Paths under _main in BANK7

    None.

Critical Paths under _init0_isr in BANK7

    None.

Critical Paths under _main in BANK8

    None.

Critical Paths under _init0_isr in BANK8

    None.

Critical Paths under _main in BANK9

    None.

Critical Paths under _init0_isr in BANK9

    None.

Critical Paths under _main in BANK10

    None.

Critical Paths under _init0_isr in BANK10

    None.

Critical Paths under _main in BANK11

    None.

Critical Paths under _init0_isr in BANK11

    None.

Critical Paths under _main in BANK12

    None.

Critical Paths under _init0_isr in BANK12

    None.

Critical Paths under _main in BANK13

    None.

Critical Paths under _init0_isr in BANK13

    None.

Critical Paths under _main in BANK14

    None.

Critical Paths under _init0_isr in BANK14

    None.

Critical Paths under _main in BANK15

    None.

Critical Paths under _init0_isr in BANK15

    None.

Call Graph Tables:

 ---------------------------------------------------------------------------------
 (Depth) Function   	        Calls       Base Space   Used Autos Params    Refs
 ---------------------------------------------------------------------------------
 (0) _main                                                 0     0      0       0
                               _init
                          _int0_init
 ---------------------------------------------------------------------------------
 (1) _int0_init                                            0     0      0       0
 ---------------------------------------------------------------------------------
 (1) _init                                                 0     0      0       0
                            _xuatled
 ---------------------------------------------------------------------------------
 (2) _xuatled                                              0     0      0       0
 ---------------------------------------------------------------------------------
 Estimated maximum stack depth 2
 ---------------------------------------------------------------------------------
 (Depth) Function   	        Calls       Base Space   Used Autos Params    Refs
 ---------------------------------------------------------------------------------
 (3) _init0_isr                                           18    18      0       0
                                              0 COMRAM    18    18      0
                          i2_xuatled
 ---------------------------------------------------------------------------------
 (4) i2_xuatled                                            0     0      0       0
 ---------------------------------------------------------------------------------
 Estimated maximum stack depth 4
 ---------------------------------------------------------------------------------

 Call Graph Graphs:

 _main (ROOT)
   _init
     _xuatled
   _int0_init

 _init0_isr (ROOT)
   i2_xuatled

 Address spaces:
Name               Size   Autos  Total    Cost      Usage
BIGRAM             F5F      0       0      37        0.0%
EEDATA             400      0       0       0        0.0%
BITBANK14          100      0       0      33        0.0%
BANK14             100      0       0      34        0.0%
BITBANK13          100      0       0      30        0.0%
BANK13             100      0       0      31        0.0%
BITBANK12          100      0       0      28        0.0%
BANK12             100      0       0      29        0.0%
BITBANK11          100      0       0      26        0.0%
BANK11             100      0       0      27        0.0%
BITBANK10          100      0       0      24        0.0%
BANK10             100      0       0      25        0.0%
BITBANK9           100      0       0      22        0.0%
BANK9              100      0       0      23        0.0%
BITBANK8           100      0       0      20        0.0%
BANK8              100      0       0      21        0.0%
BITBANK7           100      0       0      18        0.0%
BANK7              100      0       0      19        0.0%
BITBANK6           100      0       0      16        0.0%
BANK6              100      0       0      17        0.0%
BITBANK5           100      0       0      14        0.0%
BANK5              100      0       0      15        0.0%
BITBANK4           100      0       0      12        0.0%
BANK4              100      0       0      13        0.0%
BITBANK3           100      0       0      10        0.0%
BANK3              100      0       0      11        0.0%
BITBANK2           100      0       0       8        0.0%
BANK2              100      0       0       9        0.0%
BITBANK1           100      0       0       6        0.0%
BANK1              100      0       0       7        0.0%
BITBANK0            A0      0       0       4        0.0%
BANK0               A0      0       0       5        0.0%
BITBANK15           60      0       0      35        0.0%
BANK15              60      0       0      36        0.0%
BITCOMRAM           5E      0       0       0        0.0%
COMRAM              5E     12      13       1       20.2%
BITSFR               0      0       0     200        0.0%
SFR                  0      0       0     200        0.0%
STACK                0      0       0       2        0.0%
NULL                 0      0       0       0        0.0%
ABS                  0      0      13      32        0.0%
DATA                 0      0      13       3        0.0%
CODE                 0      0       0       0        0.0%


Microchip Technology PIC18 Macro Assembler V1.45 build -152302408 
Symbol Table                                                                                   Tue Oct 01 13:44:11 2019

                     l35 110E              __CFG_OSC$HS 000000                      _led 000F8C  
                    _idx 0013             __CFG_LVP$OFF 000000             __CFG_WDT$OFF 000000  
                   _main 1106                     _init 10F2                     fsr0h 000FEA  
                   fsr1h 000FE2                     fsr2h 000FDA                     fsr0l 000FE9  
                   fsr1l 000FE1                     fsr2l 000FD9                     btemp 0014  
                   prodh 000FF4                     prodl 000FF3                     start 000E  
           ___param_bank 000000                    ?_main 0001                    ?_init 0001  
                  pclath 000FFA                    tablat 000FF5                    wtemp6 0015  
        __end_of_xuatled 10C0          __initialization 10DE             __end_of_main 1110  
           __end_of_init 1106                   ??_main 0013                   ??_init 0013  
          __activetblptr 000001       __size_ofi2_xuatled 001E                   _ADCON1 000FC1  
                 _dl_rom 1001                   _led_io 000F95             __mediumconst 0000  
                 tblptrh 000FF7                   tblptrl 000FF6                   tblptru 000FF8  
              ??_xuatled 0013               __accesstop 0060  __end_of__initialization 10E0  
          ___rparam_used 000001        __end_ofi2_xuatled 10DE           __pcstackCOMRAM 0001  
     __size_of_int0_init 000A       __size_of_init0_isr 109A                  __Hparam 0000  
                __Lparam 0000        __end_of_int0_init 111A             __psmallconst 1000  
      __end_of_init0_isr 10A2                  __pcinit 10DE                  __ramtop 1000  
                __ptext0 1106                  __ptext1 1110                  __ptext2 10F2  
                __ptext3 10A2                  __ptext5 10C0           __pintcode_body 1006  
   end_of_initialization 10E0                  _xuatled 10A2                  int_func 1006  
              _TRISBbits 000F93                i2_xuatled 10C0           __end_of_dl_rom 1005  
    start_initialization 10DE               ?i2_xuatled 0001              __pbssCOMRAM 0013  
              __pintcode 0008                _int0_init 1110              __smallconst 1000  
              _init0_isr 0008                 ?_xuatled 0001                 _RCONbits 000FD0  
            ??i2_xuatled 0001               ?_int0_init 0001               ?_init0_isr 0001  
               __Hrparam 0000                 __Lrparam 0000             __Lsmallconst 1000  
       __size_of_xuatled 001E            __size_of_main 000A            __size_of_init 0014  
               int$flags 0014              ??_int0_init 0013              ??_init0_isr 0001  
             _INTCONbits 000FF2                 intlevel2 0000  
