:0400000007EF00F016
:0A000800148203ED08F06FEF08F01A
:101000000055AA3CC3000600FACF01F0FBCF02F066
:10101000E9CF03F0EACF04F0E1CF05F0E2CF06F02C
:10102000D9CF07F0DACF08F0F3CF09F0F4CF0AF008
:10103000F6CF0BF0F7CF0CF0F8CF0DF0F5CF0EF0A8
:1010400014C00FF015C010F016C011F017C012F048
:10105000F29260EC08F012C017F011C016F010C048
:1010600015F00FC014F00EC0F5FF0DC0F8FF0CC056
:10107000F7FF0BC0F6FF0AC0F4FF09C0F3FF08C07A
:10108000DAFF07C0D9FF06C0E2FF05C0E1FF04C0D8
:10109000EAFF03C0E9FF02C0FBFF01C0FAFF1492A0
:1010A00011001350010D010EF324F66E100EF42002
:1010B000F76E0800F5CF8CFF132A030E13161200EB
:1010C0001350010D010EF324F66E100EF420F76E8E
:1010D0000800F5CF8CFF132A030E13161200136AB3
:1010E00014901492000EF86E100EF76E000183EF4C
:1010F00008F00F0EC16E000E956E9380000E136EF9
:1011000051EC08F0120079EC08F088EC08F0FFD7F9
:0A111000D08EF292F288F28E1200E7
:020000040020DA
:08000000FFFFFFFFFFFFFFFF00
:020000040030CA
:0E000000FF021F1EF38381FFFFC0FFE0FF40E1
:00000001FF
