:020000040000FA
:0400000051EF00F0CC
:060008003B8241ED0AF00D
:100018003B80D8CF0DF0E8CF0EF0E0CF0FF0D9CF6E
:1000280010F0DACF11F0F3CF12F0F4CF13F0F6CFCF
:1000380014F0F7CF15F0F8CF16F0F5CF17F0010E42
:100048009DA0000E9EA0000EE8A004D029EC0AF0A6
:10005800B6EC09F0010EF2AA000EF2A4000EE8A018
:1000680004D031EC0AF03DEC09F017C0F5FF16C0DA
:10007800F8FF15C0F7FF14C0F6FF13C0F4FF12C055
:10008800F3FF11C0DAFF10C0D9FF0FC0E0FF0EC0A8
:0E009800E8FF0DC0D8FF3B901000E8EF09F024
:1010000000000000000000000100000000000003DC
:10101000020000000000070404000000000F0808A0
:10102000080000001F1810101000003F24243C206E
:1010300020007F424242427E40FF81818181818146
:10104000FF00226E3450D8A443D0000E236E2250ED
:10105000080D010E206E100E216EF3502026F45064
:10106000212223502026000E212220C0F6FF21C07D
:10107000F7FF240E2324D96EDA6A000EDA22080064
:10108000F5CFDFFF2C0E2324D96EDA6A000EDA22A8
:101090002250080D010E206E100E216EF3502026F6
:1010A000F45021222350205E000E215A070E2026E4
:1010B000000E212220C0F6FF21C0F7FF0800F550E6
:1010C00066EC09F0DF6E232A070E2364C0D71200F6
:1010D000000E236E2250080D010E206E100E216EA0
:1010E000F3502026F450212223502026000E2122E6
:1010F00020C0F6FF21C0F7FF23502B08D96E000E49
:10110000D8A0E82A0008DA6E0800F5CFDFFF2350E8
:101110003308D96E000ED8A0E82A0008DA6E2250F3
:10112000080D010E206E100E216EF3502026F45093
:1011300021222350205E000E215A070E2026000E89
:10114000212220C0F6FF21C0F7FF0800F55066EC11
:1011500009F0DF6E232A070E2364BCD712000B6E42
:101160003450D8A443D0000E0C6E0B50080D010E65
:10117000096E100E0A6EF3500926F4500A220C5024
:101180000926000E0A2209C0F6FF0AC0F7FF240E46
:101190000C24D96EDA6A000EDA220800F5CFDFFFE0
:1011A0002C0E0C24D96EDA6A000EDA220B50080DD0
:1011B000010E096E100E0A6EF3500926F4500A2231
:1011C0000C50095E000E0A5A070E0926000E0A226C
:1011D00009C0F6FF0AC0F7FF0800F5508EEC09F0D1
:1011E000DF6E0C2A070E0C64C0D71200000E0C6EC6
:1011F0000B50080D010E096E100E0A6EF3500926F1
:10120000F4500A220C500926000E0A2209C0F6FFEB
:101210000AC0F7FF0C502B08D96E000ED8A0E82AA0
:101220000008DA6E0800F5CFDFFF0C503308D96EE6
:10123000000ED8A0E82A0008DA6E0B50080D010E47
:10124000096E100E0A6EF3500926F4500A220C5053
:10125000095E000E0A5A070E0926000E0A2209C06E
:10126000F6FF0AC0F7FF0800F5508EEC09F0DF6EBC
:101270000C2A070E0C64BCD71200000E376E2C0E21
:101280003A24D96EDA6A000EDA22DF50396E240E63
:101290003A24D96EDA6A000EDA22DF50386E3AC08C
:1012A00004F0010E056E042A02D0D8900536042EF3
:1012B000FCD70550376E3A2A39C001F037C002F02A
:1012C000385039EC0AF0070E3A1612001B6E000E69
:1012D0001F6E070E1E6E000E1C6E000E1D6E1AD0C5
:1012E0001EC018F01CC019F01BC01AF0192A02D039
:1012F000D8901A32192EFCD7010E1A16182A02D0CD
:10130000D8901A36182EFCD71A501D121E06D8A0D7
:101310001F061C2A1FAEE4D71D501200046E000EDB
:10132000086E070E076E000E056E000E066E1AD0D0
:1013300007C001F005C002F004C003F0022A02D089
:10134000D8900332022EFCD7010E0316012A02D0D8
:10135000D8900336012EFCD7035006120706D8A0FA
:101360000806052A08AEE4D7065012003550D8A466
:101370000DD03628366E3650AFEC08F0070E361812
:10138000D8A410D03628366E010E0BD03604366E37
:101390003650AFEC08F03650D8A404D03604366E80
:1013A000000E356E000E3A6E12000F0EC16E928A5C
:1013B000000E936E000E946E000E956E000E366E4B
:1013C000000E21EC08F0000E356E000E346E120097
:1013D00000EE24F0170EEE6AE806FDE13B903B922A
:1013E000000EF86E100EF76E0001F7EF09F0D5EC65
:1013F00009F00FEC0AF005EC0AF080BAFED7345081
:101400000108346E80BAF9D7FDD7D08E9F909D80A9
:10141000F28EF28C310ECD6E19EC0AF01200D08EE5
:10142000F194F28AF28EF28C020ED56E21EC0AF063
:1014300012009E90CD907A0ECF6E120ECE6ECD80A1
:101440001200F294D59EFF0ED76E830ED66ED58E07
:1014500012009E90CD907A0ECF6E120ECE6ECD8081
:101460001200F294D59EFF0ED76E830ED66ED58EE7
:101470001200036E03C081FF01C082FF02C083FF20
:1014800012000600F29234500108346E3B921100B3
:020000040020DA
:08000000FFFFFFFFFFFFFFFF00
:020000040030CA
:0E000000FF021F1EF38381FFFFC0FFE0FF40E1
:00000001FF
