

Microchip MPLAB XC8 Assembler V2.05 build -831301201 
                                                                                               Tue Nov 05 14:06:50 2019

Microchip MPLAB XC8 C Compiler v2.05 (Free license) build 20181220022703 Og1 
     1                           	processor	18F8722
     2                           	fnconf	rparam,??,?,0
     3                           	opt	pw 120
     4                           	opt	flic
     5                           	psect	smallconst,global,reloc=2,class=SMALLCONST,delta=1,noexec
     6                           	psect	cinit,global,reloc=2,class=CODE,delta=1
     7                           	psect	bssCOMRAM,global,class=COMRAM,space=1,delta=1,noexec
     8                           	psect	cstackCOMRAM,global,class=COMRAM,space=1,delta=1,noexec
     9                           	psect	text0,global,reloc=2,class=CODE,delta=1
    10                           	psect	text1,global,reloc=2,class=CODE,delta=1
    11                           	psect	text2,global,reloc=2,class=CODE,delta=1
    12                           	psect	text3,global,reloc=2,class=CODE,delta=1
    13                           	psect	text4,global,reloc=2,class=CODE,delta=1
    14                           	psect	text5,global,reloc=2,class=CODE,delta=1
    15                           	psect	text6,global,reloc=2,class=CODE,delta=1
    16                           	psect	text7,global,reloc=2,class=CODE,delta=1
    17                           	psect	intcodelo,global,reloc=2,class=CODE,delta=1
    18                           	psect	text9,global,reloc=2,class=CODE,delta=1
    19                           	psect	text10,global,reloc=2,class=CODE,delta=1
    20                           	psect	text11,global,reloc=2,class=CODE,delta=1
    21                           	psect	text12,global,reloc=2,class=CODE,delta=1
    22                           	psect	text13,global,reloc=2,class=CODE,delta=1
    23                           	psect	text14,global,reloc=2,class=CODE,delta=1
    24                           	psect	text15,global,reloc=2,class=CODE,delta=1
    25                           	psect	intcode,global,reloc=2,class=CODE,delta=1
    26                           	psect	intcode_body,global,reloc=2,class=CODE,delta=1
    27                           	psect	intsave_regs,global,class=BIGRAM,space=1,delta=1,noexec
    28                           	psect	rparam,global,class=COMRAM,space=1,delta=1,noexec
    29                           	psect	temp,global,ovrld,common,class=COMRAM,space=1,delta=1
    30  0000                     
    31                           ; Version 2.05
    32                           ; Generated 20/12/2018 GMT
    33                           ; 
    34                           ; Copyright © 2018, Microchip Technology Inc. and its subsidiaries ("Microchip")
    35                           ; All rights reserved.
    36                           ; 
    37                           ; This software is developed by Microchip Technology Inc. and its subsidiaries ("Microch
      +                          ip").
    38                           ; 
    39                           ; Redistribution and use in source and binary forms, with or without modification, are
    40                           ; permitted provided that the following conditions are met:
    41                           ; 
    42                           ;     1. Redistributions of source code must retain the above copyright notice, this lis
      +                          t of
    43                           ;        conditions and the following disclaimer.
    44                           ; 
    45                           ;     2. Redistributions in binary form must reproduce the above copyright notice, this 
      +                          list
    46                           ;        of conditions and the following disclaimer in the documentation and/or other
    47                           ;        materials provided with the distribution.
    48                           ; 
    49                           ;     3. Microchip's name may not be used to endorse or promote products derived from th
      +                          is
    50                           ;        software without specific prior written permission.
    51                           ; 
    52                           ; THIS SOFTWARE IS PROVIDED BY MICROCHIP "AS IS" AND ANY EXPRESS OR IMPLIED WARRANTIES,
    53                           ; INCLUDING, BUT NOT LIMITED TO, THE IMPLIED WARRANTIES OF MERCHANTABILITY AND FITNESS F
      +                          OR
    54                           ; PURPOSE ARE DISCLAIMED.  IN NO EVENT SHALL MICROCHIP BE LIABLE FOR ANY DIRECT, INDIREC
      +                          T,
    55                           ; INCIDENTAL, SPECIAL, EXEMPLARY, OR CONSEQUENTIAL DAMAGES (INCLUDING BUT NOT LIMITED TO
    56                           ; PROCUREMENT OF SUBSTITUTE GOODS OR SERVICES; LOSS OF USE, DATA OR PROFITS; OR BUSINESS
    57                           ; INTERRUPTION) HOWSOEVER CAUSED AND ON ANY THEORY OF LIABILITY, WHETHER IN CONTRACT, ST
      +                          RICT
    58                           ; LIABILITY, OR TORT (INCLUDING NEGLIGENCE OR OTHERWISE) ARISING IN ANY WAY OUT OF THE U
      +                          SE OF
    59                           ; THIS SOFTWARE, EVEN IF ADVISED OF THE POSSIBILITY OF SUCH DAMAGE.
    60                           ; 
    61                           ; 
    62                           ; Code-generator required, PIC18F8722 Definitions
    63                           ; 
    64                           ; SFR Addresses
    65  0000                     
    66                           	psect	smallconst
    67  001000                     __psmallconst:
    68                           	opt callstack 0
    69  001000  00                 	db	0
    70  001001                     _maurom:
    71                           	opt callstack 0
    72  001001  00                 	db	0
    73  001002  00                 	db	0
    74  001003  00                 	db	0
    75  001004  00                 	db	0
    76  001005  00                 	db	0
    77  001006  00                 	db	0
    78  001007  00                 	db	0
    79  001008  01                 	db	1
    80  001009  00                 	db	0
    81  00100A  00                 	db	0
    82  00100B  00                 	db	0
    83  00100C  00                 	db	0
    84  00100D  00                 	db	0
    85  00100E  00                 	db	0
    86  00100F  03                 	db	3
    87  001010  02                 	db	2
    88  001011  00                 	db	0
    89  001012  00                 	db	0
    90  001013  00                 	db	0
    91  001014  00                 	db	0
    92  001015  00                 	db	0
    93  001016  07                 	db	7
    94  001017  04                 	db	4
    95  001018  04                 	db	4
    96  001019  00                 	db	0
    97  00101A  00                 	db	0
    98  00101B  00                 	db	0
    99  00101C  00                 	db	0
   100  00101D  0F                 	db	15
   101  00101E  08                 	db	8
   102  00101F  08                 	db	8
   103  001020  08                 	db	8
   104  001021  00                 	db	0
   105  001022  00                 	db	0
   106  001023  00                 	db	0
   107  001024  1F                 	db	31
   108  001025  18                 	db	24
   109  001026  10                 	db	16
   110  001027  10                 	db	16
   111  001028  10                 	db	16
   112  001029  00                 	db	0
   113  00102A  00                 	db	0
   114  00102B  3F                 	db	63
   115  00102C  24                 	db	36
   116  00102D  24                 	db	36
   117  00102E  3C                 	db	60
   118  00102F  20                 	db	32
   119  001030  20                 	db	32
   120  001031  00                 	db	0
   121  001032  7F                 	db	127
   122  001033  42                 	db	66
   123  001034  42                 	db	66
   124  001035  42                 	db	66
   125  001036  42                 	db	66
   126  001037  7E                 	db	126
   127  001038  40                 	db	64
   128  001039  FF                 	db	255
   129  00103A  81                 	db	129
   130  00103B  81                 	db	129
   131  00103C  81                 	db	129
   132  00103D  81                 	db	129
   133  00103E  81                 	db	129
   134  00103F  81                 	db	129
   135  001040  FF                 	db	255
   136  001041                     __end_of_maurom:
   137                           	opt callstack 0
   138  0000                     _TMR0	set	4054
   139  0000                     _T1CON	set	4045
   140  0000                     _TMR1L	set	4046
   141  0000                     _TMR1H	set	4047
   142  0000                     _T0CON	set	4053
   143  0000                     _RCONbits	set	4048
   144  0000                     _PORTAbits	set	3968
   145  0000                     _TRISD	set	3989
   146  0000                     _TRISC	set	3988
   147  0000                     _TRISB	set	3987
   148  0000                     _TRISAbits	set	3986
   149  0000                     _ADCON1	set	4033
   150  0000                     _PORTD	set	3971
   151  0000                     _PORTC	set	3970
   152  0000                     _PORTB	set	3969
   153  0000                     _TMR1IE	set	31976
   154  0000                     _TMR1IP	set	31992
   155  0000                     _TMR1ON	set	32360
   156  0000                     _TMR1IF	set	31984
   157  0000                     _GIEL	set	32662
   158  0000                     _TMR0IE	set	32661
   159  0000                     _TMR0IP	set	32650
   160  0000                     _TMR0ON	set	32431
   161  0000                     _TMR0IF	set	32658
   162  0000                     _GIEH	set	32663
   163  0000                     _INT0IE	set	32660
   164  0000                     _IPEN	set	32391
   165  0000                     _INT0IF	set	32657
   166                           
   167                           ; #config settings
   168  001041  00                 	db	0	; dummy byte at the end
   169  0000                     
   170                           	psect	cinit
   171  0013D0                     __pcinit:
   172                           	opt callstack 0
   173  0013D0                     start_initialization:
   174                           	opt callstack 0
   175  0013D0                     __initialization:
   176                           	opt callstack 0
   177                           
   178                           ; Clear objects allocated to COMRAM (23 bytes)
   179  0013D0  EE00  F024         	lfsr	0,__pbssCOMRAM
   180  0013D4  0E17               	movlw	23
   181  0013D6                     clear_0:
   182  0013D6  6AEE               	clrf	postinc0,c
   183  0013D8  06E8               	decf	wreg,f,c
   184  0013DA  E1FD               	bnz	clear_0
   185  0013DC                     end_of_initialization:
   186                           	opt callstack 0
   187  0013DC                     __end_of__initialization:
   188                           	opt callstack 0
   189  0013DC  903B               	bcf	int$flags,0,c	;clear compiler interrupt flag (level 1)
   190  0013DE  923B               	bcf	int$flags,1,c	;clear compiler interrupt flag (level 2)
   191  0013E0  0E00               	movlw	low (__Lsmallconst shr (0+16))
   192  0013E2  6EF8               	movwf	tblptru,c
   193  0013E4  0E10               	movlw	high __Lsmallconst
   194  0013E6  6EF7               	movwf	tblptrh,c
   195  0013E8  0100               	movlb	0
   196  0013EA  EFF7  F009         	goto	_main	;jump to C main() function
   197                           
   198                           	psect	bssCOMRAM
   199  000024                     __pbssCOMRAM:
   200                           	opt callstack 0
   201  000024                     _rambuf:
   202                           	opt callstack 0
   203  000024                     	ds	16
   204  000034                     _flagFlip:
   205                           	opt callstack 0
   206  000034                     	ds	1
   207  000035                     _flag:
   208                           	opt callstack 0
   209  000035                     	ds	1
   210  000036                     _index:
   211                           	opt callstack 0
   212  000036                     	ds	1
   213  000037                     _row:
   214                           	opt callstack 0
   215  000037                     	ds	1
   216  000038                     _rcol:
   217                           	opt callstack 0
   218  000038                     	ds	1
   219  000039                     _gcol:
   220                           	opt callstack 0
   221  000039                     	ds	1
   222  00003A                     _rowidx:
   223                           	opt callstack 0
   224  00003A                     	ds	1
   225                           
   226                           	psect	cstackCOMRAM
   227  000001                     __pcstackCOMRAM:
   228                           	opt callstack 0
   229  000001                     ??i1_Reverse_bits:
   230  000001                     lightLED@green:
   231                           	opt callstack 0
   232                           
   233                           ; 1 bytes @ 0x0
   234  000001                     	ds	1
   235  000002                     lightLED@row:
   236                           	opt callstack 0
   237                           
   238                           ; 1 bytes @ 0x1
   239  000002                     	ds	1
   240  000003                     lightLED@red:
   241                           	opt callstack 0
   242                           
   243                           ; 1 bytes @ 0x2
   244  000003                     	ds	1
   245  000004                     ??_timer_process:
   246  000004                     i1Reverse_bits@num:
   247                           	opt callstack 0
   248                           
   249                           ; 1 bytes @ 0x3
   250  000004                     	ds	1
   251  000005                     i1Reverse_bits@j:
   252                           	opt callstack 0
   253                           
   254                           ; 1 bytes @ 0x4
   255  000005                     	ds	1
   256  000006                     i1Reverse_bits@temp:
   257                           	opt callstack 0
   258                           
   259                           ; 1 bytes @ 0x5
   260  000006                     	ds	1
   261  000007                     i1Reverse_bits@i:
   262                           	opt callstack 0
   263                           
   264                           ; 2 bytes @ 0x6
   265  000007                     	ds	2
   266  000009                     ??i1_rom2ramup:
   267                           
   268                           ; 1 bytes @ 0x8
   269  000009                     	ds	2
   270  00000B                     i1rom2ramup@index:
   271                           	opt callstack 0
   272                           
   273                           ; 1 bytes @ 0xA
   274  00000B                     	ds	1
   275  00000C                     i1rom2ramup@i:
   276                           	opt callstack 0
   277                           
   278                           ; 1 bytes @ 0xB
   279  00000C                     	ds	1
   280  00000D                     ??_timer1_isr:
   281                           
   282                           ; 1 bytes @ 0xC
   283  00000D                     	ds	11
   284  000018                     ??_Reverse_bits:
   285  000018                     
   286                           ; 1 bytes @ 0x17
   287  000018                     	ds	3
   288  00001B                     Reverse_bits@num:
   289                           	opt callstack 0
   290                           
   291                           ; 1 bytes @ 0x1A
   292  00001B                     	ds	1
   293  00001C                     Reverse_bits@j:
   294                           	opt callstack 0
   295                           
   296                           ; 1 bytes @ 0x1B
   297  00001C                     	ds	1
   298  00001D                     Reverse_bits@temp:
   299                           	opt callstack 0
   300                           
   301                           ; 1 bytes @ 0x1C
   302  00001D                     	ds	1
   303  00001E                     Reverse_bits@i:
   304                           	opt callstack 0
   305                           
   306                           ; 2 bytes @ 0x1D
   307  00001E                     	ds	2
   308  000020                     ??_rom2ramup:
   309                           
   310                           ; 1 bytes @ 0x1F
   311  000020                     	ds	2
   312  000022                     rom2ramup@index:
   313                           	opt callstack 0
   314                           
   315                           ; 1 bytes @ 0x21
   316  000022                     	ds	1
   317  000023                     rom2ramup@i:
   318                           	opt callstack 0
   319                           
   320                           ; 1 bytes @ 0x22
   321  000023                     	ds	1
   322  000024                     
   323                           ; 1 bytes @ 0x23
   324 ;;
   325 ;;Main: autosize = 0, tempsize = 0, incstack = 0, save=0
   326 ;;
   327 ;; *************** function _main *****************
   328 ;; Defined at:
   329 ;;		line 204 in file "main.c"
   330 ;; Parameters:    Size  Location     Type
   331 ;;		None
   332 ;; Auto vars:     Size  Location     Type
   333 ;;		None
   334 ;; Return value:  Size  Location     Type
   335 ;;                  1    wreg      void 
   336 ;; Registers used:
   337 ;;		wreg, fsr2l, fsr2h, status,2, status,0, tblptrl, tblptrh, tblptru, prodl, prodh, cstack
   338 ;; Tracked objects:
   339 ;;		On entry : 0/0
   340 ;;		On exit  : 0/0
   341 ;;		Unchanged: 0/0
   342 ;; Data sizes:     COMRAM   BANK0   BANK1   BANK2   BANK3   BANK4   BANK5   BANK6   BANK7   BANK8   BANK9  BANK10  BANK1
      +1  BANK12  BANK13  BANK14  BANK15
   343 ;;      Params:         0       0       0       0       0       0       0       0       0       0       0       0       
      +0       0       0       0       0
   344 ;;      Locals:         0       0       0       0       0       0       0       0       0       0       0       0       
      +0       0       0       0       0
   345 ;;      Temps:          0       0       0       0       0       0       0       0       0       0       0       0       
      +0       0       0       0       0
   346 ;;      Totals:         0       0       0       0       0       0       0       0       0       0       0       0       
      +0       0       0       0       0
   347 ;;Total ram usage:        0 bytes
   348 ;; Hardware stack levels required when called:    8
   349 ;; This function calls:
   350 ;;		_init
   351 ;;		_timer0_init
   352 ;;		_timer1_init
   353 ;; This function is called by:
   354 ;;		Startup code after reset
   355 ;; This function uses a non-reentrant model
   356 ;;
   357                           
   358                           	psect	text0
   359  0013EE                     __ptext0:
   360                           	opt callstack 0
   361  0013EE                     _main:
   362                           	opt callstack 23
   363                           
   364                           ;main.c: 205:     init();
   365                           
   366                           ;incstack = 0
   367  0013EE  ECD5  F009         	call	_init	;wreg free
   368                           
   369                           ;main.c: 207:     timer0_init();
   370  0013F2  EC0F  F00A         	call	_timer0_init	;wreg free
   371                           
   372                           ;main.c: 208:     timer1_init();
   373  0013F6  EC05  F00A         	call	_timer1_init	;wreg free
   374  0013FA                     l96:
   375  0013FA  BA80               	btfsc	3968,5,c	;volatile
   376  0013FC  D7FE               	goto	l96
   377                           
   378                           ;main.c: 211:         flagFlip = 1-flagFlip;
   379  0013FE  5034               	movf	_flagFlip,w,c
   380  001400  0801               	sublw	1
   381  001402  6E34               	movwf	_flagFlip,c
   382  001404                     l99:
   383  001404  BA80               	btfsc	3968,5,c	;volatile
   384  001406  D7F9               	goto	l96
   385  001408  D7FD               	goto	l99
   386  00140A                     __end_of_main:
   387                           	opt callstack 0
   388                           
   389 ;; *************** function _timer1_init *****************
   390 ;; Defined at:
   391 ;;		line 28 in file "Timer.c"
   392 ;; Parameters:    Size  Location     Type
   393 ;;		None
   394 ;; Auto vars:     Size  Location     Type
   395 ;;		None
   396 ;; Return value:  Size  Location     Type
   397 ;;                  1    wreg      void 
   398 ;; Registers used:
   399 ;;		wreg, status,2, cstack
   400 ;; Tracked objects:
   401 ;;		On entry : 0/0
   402 ;;		On exit  : 0/0
   403 ;;		Unchanged: 0/0
   404 ;; Data sizes:     COMRAM   BANK0   BANK1   BANK2   BANK3   BANK4   BANK5   BANK6   BANK7   BANK8   BANK9  BANK10  BANK1
      +1  BANK12  BANK13  BANK14  BANK15
   405 ;;      Params:         0       0       0       0       0       0       0       0       0       0       0       0       
      +0       0       0       0       0
   406 ;;      Locals:         0       0       0       0       0       0       0       0       0       0       0       0       
      +0       0       0       0       0
   407 ;;      Temps:          0       0       0       0       0       0       0       0       0       0       0       0       
      +0       0       0       0       0
   408 ;;      Totals:         0       0       0       0       0       0       0       0       0       0       0       0       
      +0       0       0       0       0
   409 ;;Total ram usage:        0 bytes
   410 ;; Hardware stack levels used:    1
   411 ;; Hardware stack levels required when called:    6
   412 ;; This function calls:
   413 ;;		_timer1_reset
   414 ;; This function is called by:
   415 ;;		_main
   416 ;; This function uses a non-reentrant model
   417 ;;
   418                           
   419                           	psect	text1
   420  00140A                     __ptext1:
   421                           	opt callstack 0
   422  00140A                     _timer1_init:
   423                           	opt callstack 24
   424                           
   425                           ;Timer.c: 29:     RCONbits.IPEN = 1;
   426                           
   427                           ;incstack = 0
   428  00140A  8ED0               	bsf	4048,7,c	;volatile
   429                           
   430                           ;Timer.c: 30:     TMR1IP = 0;
   431  00140C  909F               	bcf	3999,0,c	;volatile
   432                           
   433                           ;Timer.c: 31:     TMR1IE = 1;
   434  00140E  809D               	bsf	3997,0,c	;volatile
   435                           
   436                           ;Timer.c: 32:     GIEH = 1;
   437  001410  8EF2               	bsf	4082,7,c	;volatile
   438                           
   439                           ;Timer.c: 33:     GIEL = 1;
   440  001412  8CF2               	bsf	4082,6,c	;volatile
   441                           
   442                           ;Timer.c: 34:     T1CON = 0b00110001;
   443  001414  0E31               	movlw	49
   444  001416  6ECD               	movwf	4045,c	;volatile
   445                           
   446                           ;Timer.c: 35:     timer1_reset();
   447  001418  EC19  F00A         	call	_timer1_reset	;wreg free
   448  00141C  0012               	return		;funcret
   449  00141E                     __end_of_timer1_init:
   450                           	opt callstack 0
   451                           
   452 ;; *************** function _timer1_reset *****************
   453 ;; Defined at:
   454 ;;		line 21 in file "Timer.c"
   455 ;; Parameters:    Size  Location     Type
   456 ;;		None
   457 ;; Auto vars:     Size  Location     Type
   458 ;;		None
   459 ;; Return value:  Size  Location     Type
   460 ;;                  1    wreg      void 
   461 ;; Registers used:
   462 ;;		wreg, status,2
   463 ;; Tracked objects:
   464 ;;		On entry : 0/0
   465 ;;		On exit  : 0/0
   466 ;;		Unchanged: 0/0
   467 ;; Data sizes:     COMRAM   BANK0   BANK1   BANK2   BANK3   BANK4   BANK5   BANK6   BANK7   BANK8   BANK9  BANK10  BANK1
      +1  BANK12  BANK13  BANK14  BANK15
   468 ;;      Params:         0       0       0       0       0       0       0       0       0       0       0       0       
      +0       0       0       0       0
   469 ;;      Locals:         0       0       0       0       0       0       0       0       0       0       0       0       
      +0       0       0       0       0
   470 ;;      Temps:          0       0       0       0       0       0       0       0       0       0       0       0       
      +0       0       0       0       0
   471 ;;      Totals:         0       0       0       0       0       0       0       0       0       0       0       0       
      +0       0       0       0       0
   472 ;;Total ram usage:        0 bytes
   473 ;; Hardware stack levels used:    1
   474 ;; Hardware stack levels required when called:    5
   475 ;; This function calls:
   476 ;;		Nothing
   477 ;; This function is called by:
   478 ;;		_timer1_init
   479 ;; This function uses a non-reentrant model
   480 ;;
   481                           
   482                           	psect	text2
   483  001432                     __ptext2:
   484                           	opt callstack 0
   485  001432                     _timer1_reset:
   486                           	opt callstack 24
   487                           
   488                           ;Timer.c: 22:     TMR1IF = 0;
   489                           
   490                           ;incstack = 0
   491  001432  909E               	bcf	3998,0,c	;volatile
   492                           
   493                           ;Timer.c: 23:     TMR1ON = 0;
   494  001434  90CD               	bcf	4045,0,c	;volatile
   495                           
   496                           ;Timer.c: 24:     TMR1H = 0x7A;
   497  001436  0E7A               	movlw	122
   498  001438  6ECF               	movwf	4047,c	;volatile
   499                           
   500                           ;Timer.c: 25:     TMR1L = 0x12;
   501  00143A  0E12               	movlw	18
   502  00143C  6ECE               	movwf	4046,c	;volatile
   503                           
   504                           ;Timer.c: 26:     TMR1ON = 1;
   505  00143E  80CD               	bsf	4045,0,c	;volatile
   506  001440  0012               	return		;funcret
   507  001442                     __end_of_timer1_reset:
   508                           	opt callstack 0
   509                           
   510 ;; *************** function _timer0_init *****************
   511 ;; Defined at:
   512 ;;		line 12 in file "Timer.c"
   513 ;; Parameters:    Size  Location     Type
   514 ;;		None
   515 ;; Auto vars:     Size  Location     Type
   516 ;;		None
   517 ;; Return value:  Size  Location     Type
   518 ;;                  1    wreg      void 
   519 ;; Registers used:
   520 ;;		wreg, status,2, cstack
   521 ;; Tracked objects:
   522 ;;		On entry : 0/0
   523 ;;		On exit  : 0/0
   524 ;;		Unchanged: 0/0
   525 ;; Data sizes:     COMRAM   BANK0   BANK1   BANK2   BANK3   BANK4   BANK5   BANK6   BANK7   BANK8   BANK9  BANK10  BANK1
      +1  BANK12  BANK13  BANK14  BANK15
   526 ;;      Params:         0       0       0       0       0       0       0       0       0       0       0       0       
      +0       0       0       0       0
   527 ;;      Locals:         0       0       0       0       0       0       0       0       0       0       0       0       
      +0       0       0       0       0
   528 ;;      Temps:          0       0       0       0       0       0       0       0       0       0       0       0       
      +0       0       0       0       0
   529 ;;      Totals:         0       0       0       0       0       0       0       0       0       0       0       0       
      +0       0       0       0       0
   530 ;;Total ram usage:        0 bytes
   531 ;; Hardware stack levels used:    1
   532 ;; Hardware stack levels required when called:    6
   533 ;; This function calls:
   534 ;;		_timer0_reset
   535 ;; This function is called by:
   536 ;;		_main
   537 ;; This function uses a non-reentrant model
   538 ;;
   539                           
   540                           	psect	text3
   541  00141E                     __ptext3:
   542                           	opt callstack 0
   543  00141E                     _timer0_init:
   544                           	opt callstack 24
   545                           
   546                           ;Timer.c: 13:     RCONbits.IPEN = 1;
   547                           
   548                           ;incstack = 0
   549  00141E  8ED0               	bsf	4048,7,c	;volatile
   550                           
   551                           ;Timer.c: 14:     TMR0IP = 0;
   552  001420  94F1               	bcf	4081,2,c	;volatile
   553                           
   554                           ;Timer.c: 15:     TMR0IE = 1;
   555  001422  8AF2               	bsf	4082,5,c	;volatile
   556                           
   557                           ;Timer.c: 16:     GIEH = 1;
   558  001424  8EF2               	bsf	4082,7,c	;volatile
   559                           
   560                           ;Timer.c: 17:     GIEL = 1;
   561  001426  8CF2               	bsf	4082,6,c	;volatile
   562                           
   563                           ;Timer.c: 18:     T0CON = 2;
   564  001428  0E02               	movlw	2
   565  00142A  6ED5               	movwf	4053,c	;volatile
   566                           
   567                           ;Timer.c: 19:     timer0_reset();
   568  00142C  EC21  F00A         	call	_timer0_reset	;wreg free
   569  001430  0012               	return		;funcret
   570  001432                     __end_of_timer0_init:
   571                           	opt callstack 0
   572                           
   573 ;; *************** function _timer0_reset *****************
   574 ;; Defined at:
   575 ;;		line 6 in file "Timer.c"
   576 ;; Parameters:    Size  Location     Type
   577 ;;		None
   578 ;; Auto vars:     Size  Location     Type
   579 ;;		None
   580 ;; Return value:  Size  Location     Type
   581 ;;                  1    wreg      void 
   582 ;; Registers used:
   583 ;;		wreg, status,2
   584 ;; Tracked objects:
   585 ;;		On entry : 0/0
   586 ;;		On exit  : 0/0
   587 ;;		Unchanged: 0/0
   588 ;; Data sizes:     COMRAM   BANK0   BANK1   BANK2   BANK3   BANK4   BANK5   BANK6   BANK7   BANK8   BANK9  BANK10  BANK1
      +1  BANK12  BANK13  BANK14  BANK15
   589 ;;      Params:         0       0       0       0       0       0       0       0       0       0       0       0       
      +0       0       0       0       0
   590 ;;      Locals:         0       0       0       0       0       0       0       0       0       0       0       0       
      +0       0       0       0       0
   591 ;;      Temps:          0       0       0       0       0       0       0       0       0       0       0       0       
      +0       0       0       0       0
   592 ;;      Totals:         0       0       0       0       0       0       0       0       0       0       0       0       
      +0       0       0       0       0
   593 ;;Total ram usage:        0 bytes
   594 ;; Hardware stack levels used:    1
   595 ;; Hardware stack levels required when called:    5
   596 ;; This function calls:
   597 ;;		Nothing
   598 ;; This function is called by:
   599 ;;		_timer0_init
   600 ;; This function uses a non-reentrant model
   601 ;;
   602                           
   603                           	psect	text4
   604  001442                     __ptext4:
   605                           	opt callstack 0
   606  001442                     _timer0_reset:
   607                           	opt callstack 24
   608                           
   609                           ;Timer.c: 7:     TMR0IF = 0;
   610                           
   611                           ;incstack = 0
   612  001442  94F2               	bcf	4082,2,c	;volatile
   613                           
   614                           ;Timer.c: 8:     TMR0ON = 0;
   615  001444  9ED5               	bcf	4053,7,c	;volatile
   616                           
   617                           ;Timer.c: 9:     TMR0 = -125;
   618  001446  0EFF               	movlw	255
   619  001448  6ED7               	movwf	4055,c	;volatile
   620  00144A  0E83               	movlw	131
   621  00144C  6ED6               	movwf	4054,c	;volatile
   622                           
   623                           ;Timer.c: 10:     TMR0ON = 1;
   624  00144E  8ED5               	bsf	4053,7,c	;volatile
   625  001450  0012               	return		;funcret
   626  001452                     __end_of_timer0_reset:
   627                           	opt callstack 0
   628                           
   629 ;; *************** function _init *****************
   630 ;; Defined at:
   631 ;;		line 192 in file "main.c"
   632 ;; Parameters:    Size  Location     Type
   633 ;;		None
   634 ;; Auto vars:     Size  Location     Type
   635 ;;		None
   636 ;; Return value:  Size  Location     Type
   637 ;;                  1    wreg      void 
   638 ;; Registers used:
   639 ;;		wreg, fsr2l, fsr2h, status,2, status,0, tblptrl, tblptrh, tblptru, prodl, prodh, cstack
   640 ;; Tracked objects:
   641 ;;		On entry : 0/0
   642 ;;		On exit  : 0/0
   643 ;;		Unchanged: 0/0
   644 ;; Data sizes:     COMRAM   BANK0   BANK1   BANK2   BANK3   BANK4   BANK5   BANK6   BANK7   BANK8   BANK9  BANK10  BANK1
      +1  BANK12  BANK13  BANK14  BANK15
   645 ;;      Params:         0       0       0       0       0       0       0       0       0       0       0       0       
      +0       0       0       0       0
   646 ;;      Locals:         0       0       0       0       0       0       0       0       0       0       0       0       
      +0       0       0       0       0
   647 ;;      Temps:          0       0       0       0       0       0       0       0       0       0       0       0       
      +0       0       0       0       0
   648 ;;      Totals:         0       0       0       0       0       0       0       0       0       0       0       0       
      +0       0       0       0       0
   649 ;;Total ram usage:        0 bytes
   650 ;; Hardware stack levels used:    1
   651 ;; Hardware stack levels required when called:    7
   652 ;; This function calls:
   653 ;;		_rom2ramup
   654 ;; This function is called by:
   655 ;;		_main
   656 ;; This function uses a non-reentrant model
   657 ;;
   658                           
   659                           	psect	text5
   660  0013AA                     __ptext5:
   661                           	opt callstack 0
   662  0013AA                     _init:
   663                           	opt callstack 23
   664                           
   665                           ;main.c: 193:     ADCON1 = 0x0F;
   666                           
   667                           ;incstack = 0
   668  0013AA  0E0F               	movlw	15
   669  0013AC  6EC1               	movwf	4033,c	;volatile
   670                           
   671                           ;main.c: 194:     TRISAbits.RA5 = 1;
   672  0013AE  8A92               	bsf	3986,5,c	;volatile
   673                           
   674                           ;main.c: 195:     TRISB = 0;
   675  0013B0  0E00               	movlw	0
   676  0013B2  6E93               	movwf	3987,c	;volatile
   677                           
   678                           ;main.c: 196:     TRISC = 0;
   679  0013B4  0E00               	movlw	0
   680  0013B6  6E94               	movwf	3988,c	;volatile
   681                           
   682                           ;main.c: 197:     TRISD = 0;
   683  0013B8  0E00               	movlw	0
   684  0013BA  6E95               	movwf	3989,c	;volatile
   685                           
   686                           ;main.c: 198:     index = 0;
   687  0013BC  0E00               	movlw	0
   688  0013BE  6E36               	movwf	_index,c
   689                           
   690                           ;main.c: 199:     rom2ramup(0);
   691  0013C0  0E00               	movlw	0
   692  0013C2  EC21  F008         	call	_rom2ramup
   693                           
   694                           ;main.c: 200:     flag = 0;
   695  0013C6  0E00               	movlw	0
   696  0013C8  6E35               	movwf	_flag,c
   697                           
   698                           ;main.c: 201:     flagFlip = 0;
   699  0013CA  0E00               	movlw	0
   700  0013CC  6E34               	movwf	_flagFlip,c
   701  0013CE  0012               	return		;funcret
   702  0013D0                     __end_of_init:
   703                           	opt callstack 0
   704                           
   705 ;; *************** function _rom2ramup *****************
   706 ;; Defined at:
   707 ;;		line 127 in file "main.c"
   708 ;; Parameters:    Size  Location     Type
   709 ;;  index           1    wreg     unsigned char 
   710 ;; Auto vars:     Size  Location     Type
   711 ;;  index           1   33[COMRAM] unsigned char 
   712 ;;  i               1   34[COMRAM] unsigned char 
   713 ;; Return value:  Size  Location     Type
   714 ;;                  1    wreg      void 
   715 ;; Registers used:
   716 ;;		wreg, fsr2l, fsr2h, status,2, status,0, tblptrl, tblptrh, tblptru, prodl, prodh, cstack
   717 ;; Tracked objects:
   718 ;;		On entry : 0/0
   719 ;;		On exit  : 0/0
   720 ;;		Unchanged: 0/0
   721 ;; Data sizes:     COMRAM   BANK0   BANK1   BANK2   BANK3   BANK4   BANK5   BANK6   BANK7   BANK8   BANK9  BANK10  BANK1
      +1  BANK12  BANK13  BANK14  BANK15
   722 ;;      Params:         0       0       0       0       0       0       0       0       0       0       0       0       
      +0       0       0       0       0
   723 ;;      Locals:         2       0       0       0       0       0       0       0       0       0       0       0       
      +0       0       0       0       0
   724 ;;      Temps:          2       0       0       0       0       0       0       0       0       0       0       0       
      +0       0       0       0       0
   725 ;;      Totals:         4       0       0       0       0       0       0       0       0       0       0       0       
      +0       0       0       0       0
   726 ;;Total ram usage:        4 bytes
   727 ;; Hardware stack levels used:    1
   728 ;; Hardware stack levels required when called:    6
   729 ;; This function calls:
   730 ;;		_Reverse_bits
   731 ;; This function is called by:
   732 ;;		_init
   733 ;; This function uses a non-reentrant model
   734 ;;
   735                           
   736                           	psect	text6
   737  001042                     __ptext6:
   738                           	opt callstack 0
   739  001042                     _rom2ramup:
   740                           	opt callstack 23
   741                           
   742                           ;incstack = 0
   743                           ;rom2ramup@index stored from wreg
   744  001042  6E22               	movwf	rom2ramup@index,c
   745                           
   746                           ;main.c: 128:     unsigned char i;;main.c: 129:     if (flagFlip == 0)
   747  001044  5034               	movf	_flagFlip,w,c
   748  001046  A4D8               	btfss	status,2,c
   749  001048  D043               	goto	l875
   750                           
   751                           ;main.c: 130:         for (i = 0 ; i < 8 ; i++){
   752  00104A  0E00               	movlw	0
   753  00104C  6E23               	movwf	rom2ramup@i,c
   754  00104E                     l867:
   755                           
   756                           ;main.c: 131:         rambuf[0][i] = maurom[index][i];
   757  00104E  5022               	movf	rom2ramup@index,w,c
   758  001050  0D08               	mullw	8
   759  001052  0E01               	movlw	low _maurom
   760  001054  6E20               	movwf	??_rom2ramup& (0+255),c
   761  001056  0E10               	movlw	high _maurom
   762  001058  6E21               	movwf	(??_rom2ramup+1)& (0+255),c
   763  00105A  50F3               	movf	prodl,w,c
   764  00105C  2620               	addwf	??_rom2ramup,f,c
   765  00105E  50F4               	movf	prodh,w,c
   766  001060  2221               	addwfc	??_rom2ramup+1,f,c
   767  001062  5023               	movf	rom2ramup@i,w,c
   768  001064  2620               	addwf	??_rom2ramup,f,c
   769  001066  0E00               	movlw	0
   770  001068  2221               	addwfc	??_rom2ramup+1,f,c
   771  00106A  C020  FFF6         	movff	??_rom2ramup,tblptrl
   772  00106E  C021  FFF7         	movff	??_rom2ramup+1,tblptrh
   773  001072                     	if	0	;tblptru may be non-zero
   774  001072                     	endif
   775  001072                     	if	0	;tblptru may be non-zero
   776  001072                     	endif
   777  001072  0E24               	movlw	low _rambuf
   778  001074  2423               	addwf	rom2ramup@i,w,c
   779  001076  6ED9               	movwf	fsr2l,c
   780  001078  6ADA               	clrf	fsr2h,c
   781  00107A  0E00               	movlw	high _rambuf
   782  00107C  22DA               	addwfc	fsr2h,f,c
   783  00107E  0008               	tblrd		*
   784  001080  CFF5 FFDF          	movff	tablat,indf2
   785                           
   786                           ;main.c: 132:         rambuf[1][i] = Reverse_bits(maurom[index][7-i]);
   787  001084  0E2C               	movlw	low (_rambuf+8)
   788  001086  2423               	addwf	rom2ramup@i,w,c
   789  001088  6ED9               	movwf	fsr2l,c
   790  00108A  6ADA               	clrf	fsr2h,c
   791  00108C  0E00               	movlw	high (_rambuf+8)
   792  00108E  22DA               	addwfc	fsr2h,f,c
   793  001090  5022               	movf	rom2ramup@index,w,c
   794  001092  0D08               	mullw	8
   795  001094  0E01               	movlw	low _maurom
   796  001096  6E20               	movwf	??_rom2ramup& (0+255),c
   797  001098  0E10               	movlw	high _maurom
   798  00109A  6E21               	movwf	(??_rom2ramup+1)& (0+255),c
   799  00109C  50F3               	movf	prodl,w,c
   800  00109E  2620               	addwf	??_rom2ramup,f,c
   801  0010A0  50F4               	movf	prodh,w,c
   802  0010A2  2221               	addwfc	??_rom2ramup+1,f,c
   803  0010A4  5023               	movf	rom2ramup@i,w,c
   804  0010A6  5E20               	subwf	??_rom2ramup,f,c
   805  0010A8  0E00               	movlw	0
   806  0010AA  5A21               	subwfb	??_rom2ramup+1,f,c
   807  0010AC  0E07               	movlw	7
   808  0010AE  2620               	addwf	??_rom2ramup,f,c
   809  0010B0  0E00               	movlw	0
   810  0010B2  2221               	addwfc	??_rom2ramup+1,f,c
   811  0010B4  C020  FFF6         	movff	??_rom2ramup,tblptrl
   812  0010B8  C021  FFF7         	movff	??_rom2ramup+1,tblptrh
   813  0010BC                     	if	0	;tblptru may be non-zero
   814  0010BC                     	endif
   815  0010BC                     	if	0	;tblptru may be non-zero
   816  0010BC                     	endif
   817  0010BC  0008               	tblrd		*
   818  0010BE  50F5               	movf	tablat,w,c
   819  0010C0  EC66  F009         	call	_Reverse_bits
   820  0010C4  6EDF               	movwf	indf2,c
   821                           
   822                           ;main.c: 133:         }
   823  0010C6  2A23               	incf	rom2ramup@i,f,c
   824  0010C8  0E07               	movlw	7
   825  0010CA  6423               	cpfsgt	rom2ramup@i,c
   826  0010CC  D7C0               	goto	l867
   827  0010CE  0012               	return	
   828  0010D0                     l875:
   829                           
   830                           ;main.c: 135:         for (i = 0 ; i < 8 ; i++){
   831  0010D0  0E00               	movlw	0
   832  0010D2  6E23               	movwf	rom2ramup@i,c
   833  0010D4                     l881:
   834                           
   835                           ;main.c: 136:         rambuf[0][7-i] = maurom[index][i];
   836  0010D4  5022               	movf	rom2ramup@index,w,c
   837  0010D6  0D08               	mullw	8
   838  0010D8  0E01               	movlw	low _maurom
   839  0010DA  6E20               	movwf	??_rom2ramup& (0+255),c
   840  0010DC  0E10               	movlw	high _maurom
   841  0010DE  6E21               	movwf	(??_rom2ramup+1)& (0+255),c
   842  0010E0  50F3               	movf	prodl,w,c
   843  0010E2  2620               	addwf	??_rom2ramup,f,c
   844  0010E4  50F4               	movf	prodh,w,c
   845  0010E6  2221               	addwfc	??_rom2ramup+1,f,c
   846  0010E8  5023               	movf	rom2ramup@i,w,c
   847  0010EA  2620               	addwf	??_rom2ramup,f,c
   848  0010EC  0E00               	movlw	0
   849  0010EE  2221               	addwfc	??_rom2ramup+1,f,c
   850  0010F0  C020  FFF6         	movff	??_rom2ramup,tblptrl
   851  0010F4  C021  FFF7         	movff	??_rom2ramup+1,tblptrh
   852  0010F8                     	if	0	;tblptru may be non-zero
   853  0010F8                     	endif
   854  0010F8                     	if	0	;tblptru may be non-zero
   855  0010F8                     	endif
   856  0010F8  5023               	movf	rom2ramup@i,w,c
   857  0010FA  082B               	sublw	low (_rambuf+7)
   858  0010FC  6ED9               	movwf	fsr2l,c
   859  0010FE  0E00               	movlw	0
   860  001100  A0D8               	btfss	status,0,c
   861  001102  2AE8               	incf	wreg,f,c
   862  001104  0800               	sublw	high (_rambuf+7)
   863  001106  6EDA               	movwf	fsr2h,c
   864  001108  0008               	tblrd		*
   865  00110A  CFF5 FFDF          	movff	tablat,indf2
   866                           
   867                           ;main.c: 137:         rambuf[1][7-i] = Reverse_bits(maurom[index][7-i]);
   868  00110E  5023               	movf	rom2ramup@i,w,c
   869  001110  0833               	sublw	low (_rambuf+15)
   870  001112  6ED9               	movwf	fsr2l,c
   871  001114  0E00               	movlw	0
   872  001116  A0D8               	btfss	status,0,c
   873  001118  2AE8               	incf	wreg,f,c
   874  00111A  0800               	sublw	high (_rambuf+15)
   875  00111C  6EDA               	movwf	fsr2h,c
   876  00111E  5022               	movf	rom2ramup@index,w,c
   877  001120  0D08               	mullw	8
   878  001122  0E01               	movlw	low _maurom
   879  001124  6E20               	movwf	??_rom2ramup& (0+255),c
   880  001126  0E10               	movlw	high _maurom
   881  001128  6E21               	movwf	(??_rom2ramup+1)& (0+255),c
   882  00112A  50F3               	movf	prodl,w,c
   883  00112C  2620               	addwf	??_rom2ramup,f,c
   884  00112E  50F4               	movf	prodh,w,c
   885  001130  2221               	addwfc	??_rom2ramup+1,f,c
   886  001132  5023               	movf	rom2ramup@i,w,c
   887  001134  5E20               	subwf	??_rom2ramup,f,c
   888  001136  0E00               	movlw	0
   889  001138  5A21               	subwfb	??_rom2ramup+1,f,c
   890  00113A  0E07               	movlw	7
   891  00113C  2620               	addwf	??_rom2ramup,f,c
   892  00113E  0E00               	movlw	0
   893  001140  2221               	addwfc	??_rom2ramup+1,f,c
   894  001142  C020  FFF6         	movff	??_rom2ramup,tblptrl
   895  001146  C021  FFF7         	movff	??_rom2ramup+1,tblptrh
   896  00114A                     	if	0	;tblptru may be non-zero
   897  00114A                     	endif
   898  00114A                     	if	0	;tblptru may be non-zero
   899  00114A                     	endif
   900  00114A  0008               	tblrd		*
   901  00114C  50F5               	movf	tablat,w,c
   902  00114E  EC66  F009         	call	_Reverse_bits
   903  001152  6EDF               	movwf	indf2,c
   904                           
   905                           ;main.c: 138:         }
   906  001154  2A23               	incf	rom2ramup@i,f,c
   907  001156  0E07               	movlw	7
   908  001158  6423               	cpfsgt	rom2ramup@i,c
   909  00115A  D7BC               	goto	l881
   910  00115C  0012               	return	
   911  00115E                     __end_of_rom2ramup:
   912                           	opt callstack 0
   913                           
   914 ;; *************** function _Reverse_bits *****************
   915 ;; Defined at:
   916 ;;		line 112 in file "main.c"
   917 ;; Parameters:    Size  Location     Type
   918 ;;  num             1    wreg     unsigned char 
   919 ;; Auto vars:     Size  Location     Type
   920 ;;  num             1   26[COMRAM] unsigned char 
   921 ;;  i               2   29[COMRAM] int 
   922 ;;  temp            1   28[COMRAM] unsigned char 
   923 ;;  j               1   27[COMRAM] unsigned char 
   924 ;; Return value:  Size  Location     Type
   925 ;;                  1    wreg      unsigned char 
   926 ;; Registers used:
   927 ;;		wreg, status,2, status,0
   928 ;; Tracked objects:
   929 ;;		On entry : 0/0
   930 ;;		On exit  : 0/0
   931 ;;		Unchanged: 0/0
   932 ;; Data sizes:     COMRAM   BANK0   BANK1   BANK2   BANK3   BANK4   BANK5   BANK6   BANK7   BANK8   BANK9  BANK10  BANK1
      +1  BANK12  BANK13  BANK14  BANK15
   933 ;;      Params:         0       0       0       0       0       0       0       0       0       0       0       0       
      +0       0       0       0       0
   934 ;;      Locals:         5       0       0       0       0       0       0       0       0       0       0       0       
      +0       0       0       0       0
   935 ;;      Temps:          3       0       0       0       0       0       0       0       0       0       0       0       
      +0       0       0       0       0
   936 ;;      Totals:         8       0       0       0       0       0       0       0       0       0       0       0       
      +0       0       0       0       0
   937 ;;Total ram usage:        8 bytes
   938 ;; Hardware stack levels used:    1
   939 ;; Hardware stack levels required when called:    5
   940 ;; This function calls:
   941 ;;		Nothing
   942 ;; This function is called by:
   943 ;;		_rom2ramup
   944 ;; This function uses a non-reentrant model
   945 ;;
   946                           
   947                           	psect	text7
   948  0012CC                     __ptext7:
   949                           	opt callstack 0
   950  0012CC                     _Reverse_bits:
   951                           	opt callstack 23
   952                           
   953                           ;incstack = 0
   954                           ;Reverse_bits@num stored from wreg
   955  0012CC  6E1B               	movwf	Reverse_bits@num,c
   956                           
   957                           ;main.c: 114:     int i=7;
   958  0012CE  0E00               	movlw	0
   959  0012D0  6E1F               	movwf	Reverse_bits@i+1,c
   960  0012D2  0E07               	movlw	7
   961  0012D4  6E1E               	movwf	Reverse_bits@i,c
   962                           
   963                           ;main.c: 115:     unsigned char j=0;
   964  0012D6  0E00               	movlw	0
   965  0012D8  6E1C               	movwf	Reverse_bits@j,c
   966                           
   967                           ;main.c: 116:     unsigned char temp=0;
   968  0012DA  0E00               	movlw	0
   969  0012DC  6E1D               	movwf	Reverse_bits@temp,c
   970                           
   971                           ;main.c: 118:     while(i>=0){
   972  0012DE  D01A               	goto	l51
   973  0012E0                     l837:
   974                           
   975                           ;main.c: 119:     temp |= ((num>>j)&1)<< i;
   976  0012E0  C01E  F018         	movff	Reverse_bits@i,??_Reverse_bits
   977  0012E4  C01C  F019         	movff	Reverse_bits@j,??_Reverse_bits+1
   978  0012E8  C01B  F01A         	movff	Reverse_bits@num,??_Reverse_bits+2
   979  0012EC  2A19               	incf	??_Reverse_bits+1,f,c
   980  0012EE  D002               	goto	u14
   981  0012F0                     u15:
   982  0012F0  90D8               	bcf	status,0,c
   983  0012F2  321A               	rrcf	??_Reverse_bits+2,f,c
   984  0012F4                     u14:
   985  0012F4  2E19               	decfsz	??_Reverse_bits+1,f,c
   986  0012F6  D7FC               	goto	u15
   987  0012F8  0E01               	movlw	1
   988  0012FA  161A               	andwf	??_Reverse_bits+2,f,c
   989  0012FC  2A18               	incf	??_Reverse_bits,f,c
   990  0012FE  D002               	goto	u24
   991  001300                     u25:
   992  001300  90D8               	bcf	status,0,c
   993  001302  361A               	rlcf	??_Reverse_bits+2,f,c
   994  001304                     u24:
   995  001304  2E18               	decfsz	??_Reverse_bits,f,c
   996  001306  D7FC               	goto	u25
   997  001308  501A               	movf	??_Reverse_bits+2,w,c
   998  00130A  121D               	iorwf	Reverse_bits@temp,f,c
   999                           
  1000                           ;main.c: 120:     i--;
  1001  00130C  061E               	decf	Reverse_bits@i,f,c
  1002  00130E  A0D8               	btfss	status,0,c
  1003  001310  061F               	decf	Reverse_bits@i+1,f,c
  1004                           
  1005                           ;main.c: 121:     j++;
  1006  001312  2A1C               	incf	Reverse_bits@j,f,c
  1007  001314                     l51:
  1008                           
  1009                           ;main.c: 118:     while(i>=0){
  1010  001314  AE1F               	btfss	Reverse_bits@i+1,7,c
  1011  001316  D7E4               	goto	l837
  1012                           
  1013                           ;main.c: 123:     return(temp);
  1014  001318  501D               	movf	Reverse_bits@temp,w,c
  1015  00131A  0012               	return		;funcret
  1016  00131C                     __end_of_Reverse_bits:
  1017                           	opt callstack 0
  1018                           
  1019 ;; *************** function _timer1_isr *****************
  1020 ;; Defined at:
  1021 ;;		line 37 in file "Timer.c"
  1022 ;; Parameters:    Size  Location     Type
  1023 ;;		None
  1024 ;; Auto vars:     Size  Location     Type
  1025 ;;		None
  1026 ;; Return value:  Size  Location     Type
  1027 ;;                  1    wreg      void 
  1028 ;; Registers used:
  1029 ;;		wreg, fsr2l, fsr2h, status,2, status,0, tblptrl, tblptrh, tblptru, prodl, prodh, cstack
  1030 ;; Tracked objects:
  1031 ;;		On entry : 0/0
  1032 ;;		On exit  : 0/0
  1033 ;;		Unchanged: 0/0
  1034 ;; Data sizes:     COMRAM   BANK0   BANK1   BANK2   BANK3   BANK4   BANK5   BANK6   BANK7   BANK8   BANK9  BANK10  BANK1
      +1  BANK12  BANK13  BANK14  BANK15
  1035 ;;      Params:         0       0       0       0       0       0       0       0       0       0       0       0       
      +0       0       0       0       0
  1036 ;;      Locals:         0       0       0       0       0       0       0       0       0       0       0       0       
      +0       0       0       0       0
  1037 ;;      Temps:         11       0       0       0       0       0       0       0       0       0       0       0       
      +0       0       0       0       0
  1038 ;;      Totals:        11       0       0       0       0       0       0       0       0       0       0       0       
      +0       0       0       0       0
  1039 ;;Total ram usage:       11 bytes
  1040 ;; Hardware stack levels used:    1
  1041 ;; Hardware stack levels required when called:    4
  1042 ;; This function calls:
  1043 ;;		_timer1_process
  1044 ;;		_timer_process
  1045 ;;		i1_timer0_reset
  1046 ;;		i1_timer1_reset
  1047 ;; This function is called by:
  1048 ;;		Interrupt level 1
  1049 ;; This function uses a non-reentrant model
  1050 ;;
  1051                           
  1052                           	psect	intcodelo
  1053  000018                     __pintcodelo:
  1054                           	opt callstack 0
  1055  000018                     _timer1_isr:
  1056                           	opt callstack 23
  1057                           
  1058                           ;incstack = 0
  1059  000018  803B               	bsf	btemp,0,c	;set compiler interrupt flag (level 1)
  1060  00001A  CFD8 F00D          	movff	status,??_timer1_isr
  1061  00001E  CFE8 F00E          	movff	wreg,??_timer1_isr+1
  1062  000022  CFE0 F00F          	movff	bsr,??_timer1_isr+2
  1063  000026  CFD9 F010          	movff	fsr2l,??_timer1_isr+3
  1064  00002A  CFDA F011          	movff	fsr2h,??_timer1_isr+4
  1065  00002E  CFF3 F012          	movff	prodl,??_timer1_isr+5
  1066  000032  CFF4 F013          	movff	prodh,??_timer1_isr+6
  1067  000036  CFF6 F014          	movff	tblptrl,??_timer1_isr+7
  1068  00003A  CFF7 F015          	movff	tblptrh,??_timer1_isr+8
  1069  00003E  CFF8 F016          	movff	tblptru,??_timer1_isr+9
  1070  000042  CFF5 F017          	movff	tablat,??_timer1_isr+10
  1071                           
  1072                           ;Timer.c: 38:     if(TMR1IE & TMR1IF){
  1073  000046  0E01               	movlw	1
  1074  000048  A09D               	btfss	3997,0,c	;volatile
  1075  00004A  0E00               	movlw	0
  1076  00004C  A09E               	btfss	3998,0,c	;volatile
  1077  00004E  0E00               	movlw	0
  1078  000050  A0E8               	btfss	wreg,0,c
  1079  000052  D004               	goto	i1l1129
  1080                           
  1081                           ;Timer.c: 39:         timer1_reset();
  1082  000054  EC29  F00A         	call	i1_timer1_reset	;wreg free
  1083                           
  1084                           ;Timer.c: 40:         timer1_process();
  1085  000058  ECB6  F009         	call	_timer1_process	;wreg free
  1086  00005C                     i1l1129:
  1087                           
  1088                           ;Timer.c: 42:     if(TMR0IE & TMR0IF){
  1089  00005C  0E01               	movlw	1
  1090  00005E  AAF2               	btfss	4082,5,c	;volatile
  1091  000060  0E00               	movlw	0
  1092  000062  A4F2               	btfss	4082,2,c	;volatile
  1093  000064  0E00               	movlw	0
  1094  000066  A0E8               	btfss	wreg,0,c
  1095  000068  D004               	goto	i1l159
  1096                           
  1097                           ;Timer.c: 43:         timer0_reset();
  1098  00006A  EC31  F00A         	call	i1_timer0_reset	;wreg free
  1099                           
  1100                           ;Timer.c: 44:         timer_process();
  1101  00006E  EC3D  F009         	call	_timer_process	;wreg free
  1102  000072                     i1l159:
  1103  000072  C017  FFF5         	movff	??_timer1_isr+10,tablat
  1104  000076  C016  FFF8         	movff	??_timer1_isr+9,tblptru
  1105  00007A  C015  FFF7         	movff	??_timer1_isr+8,tblptrh
  1106  00007E  C014  FFF6         	movff	??_timer1_isr+7,tblptrl
  1107  000082  C013  FFF4         	movff	??_timer1_isr+6,prodh
  1108  000086  C012  FFF3         	movff	??_timer1_isr+5,prodl
  1109  00008A  C011  FFDA         	movff	??_timer1_isr+4,fsr2h
  1110  00008E  C010  FFD9         	movff	??_timer1_isr+3,fsr2l
  1111  000092  C00F  FFE0         	movff	??_timer1_isr+2,bsr
  1112  000096  C00E  FFE8         	movff	??_timer1_isr+1,wreg
  1113  00009A  C00D  FFD8         	movff	??_timer1_isr,status
  1114  00009E  903B               	bcf	btemp,0,c	;clear compiler interrupt flag (level 1)
  1115  0000A0  0010               	retfie	
  1116  0000A2                     __end_of_timer1_isr:
  1117                           	opt callstack 0
  1118                           
  1119 ;; *************** function i1_timer1_reset *****************
  1120 ;; Defined at:
  1121 ;;		line 21 in file "Timer.c"
  1122 ;; Parameters:    Size  Location     Type
  1123 ;;		None
  1124 ;; Auto vars:     Size  Location     Type
  1125 ;;		None
  1126 ;; Return value:  Size  Location     Type
  1127 ;;                  1    wreg      void 
  1128 ;; Registers used:
  1129 ;;		wreg, status,2
  1130 ;; Tracked objects:
  1131 ;;		On entry : 0/0
  1132 ;;		On exit  : 0/0
  1133 ;;		Unchanged: 0/0
  1134 ;; Data sizes:     COMRAM   BANK0   BANK1   BANK2   BANK3   BANK4   BANK5   BANK6   BANK7   BANK8   BANK9  BANK10  BANK1
      +1  BANK12  BANK13  BANK14  BANK15
  1135 ;;      Params:         0       0       0       0       0       0       0       0       0       0       0       0       
      +0       0       0       0       0
  1136 ;;      Locals:         0       0       0       0       0       0       0       0       0       0       0       0       
      +0       0       0       0       0
  1137 ;;      Temps:          0       0       0       0       0       0       0       0       0       0       0       0       
      +0       0       0       0       0
  1138 ;;      Totals:         0       0       0       0       0       0       0       0       0       0       0       0       
      +0       0       0       0       0
  1139 ;;Total ram usage:        0 bytes
  1140 ;; Hardware stack levels used:    1
  1141 ;; Hardware stack levels required when called:    1
  1142 ;; This function calls:
  1143 ;;		Nothing
  1144 ;; This function is called by:
  1145 ;;		_timer1_isr
  1146 ;; This function uses a non-reentrant model
  1147 ;;
  1148                           
  1149                           	psect	text9
  1150  001452                     __ptext9:
  1151                           	opt callstack 0
  1152  001452                     i1_timer1_reset:
  1153                           	opt callstack 25
  1154                           
  1155                           ;Timer.c: 22:     TMR1IF = 0;
  1156                           
  1157                           ;incstack = 0
  1158  001452  909E               	bcf	3998,0,c	;volatile
  1159                           
  1160                           ;Timer.c: 23:     TMR1ON = 0;
  1161  001454  90CD               	bcf	4045,0,c	;volatile
  1162                           
  1163                           ;Timer.c: 24:     TMR1H = 0x7A;
  1164  001456  0E7A               	movlw	122
  1165  001458  6ECF               	movwf	4047,c	;volatile
  1166                           
  1167                           ;Timer.c: 25:     TMR1L = 0x12;
  1168  00145A  0E12               	movlw	18
  1169  00145C  6ECE               	movwf	4046,c	;volatile
  1170                           
  1171                           ;Timer.c: 26:     TMR1ON = 1;
  1172  00145E  80CD               	bsf	4045,0,c	;volatile
  1173  001460  0012               	return		;funcret
  1174  001462                     __end_ofi1_timer1_reset:
  1175                           	opt callstack 0
  1176                           
  1177 ;; *************** function i1_timer0_reset *****************
  1178 ;; Defined at:
  1179 ;;		line 6 in file "Timer.c"
  1180 ;; Parameters:    Size  Location     Type
  1181 ;;		None
  1182 ;; Auto vars:     Size  Location     Type
  1183 ;;		None
  1184 ;; Return value:  Size  Location     Type
  1185 ;;                  1    wreg      void 
  1186 ;; Registers used:
  1187 ;;		wreg, status,2
  1188 ;; Tracked objects:
  1189 ;;		On entry : 0/0
  1190 ;;		On exit  : 0/0
  1191 ;;		Unchanged: 0/0
  1192 ;; Data sizes:     COMRAM   BANK0   BANK1   BANK2   BANK3   BANK4   BANK5   BANK6   BANK7   BANK8   BANK9  BANK10  BANK1
      +1  BANK12  BANK13  BANK14  BANK15
  1193 ;;      Params:         0       0       0       0       0       0       0       0       0       0       0       0       
      +0       0       0       0       0
  1194 ;;      Locals:         0       0       0       0       0       0       0       0       0       0       0       0       
      +0       0       0       0       0
  1195 ;;      Temps:          0       0       0       0       0       0       0       0       0       0       0       0       
      +0       0       0       0       0
  1196 ;;      Totals:         0       0       0       0       0       0       0       0       0       0       0       0       
      +0       0       0       0       0
  1197 ;;Total ram usage:        0 bytes
  1198 ;; Hardware stack levels used:    1
  1199 ;; Hardware stack levels required when called:    1
  1200 ;; This function calls:
  1201 ;;		Nothing
  1202 ;; This function is called by:
  1203 ;;		_timer1_isr
  1204 ;; This function uses a non-reentrant model
  1205 ;;
  1206                           
  1207                           	psect	text10
  1208  001462                     __ptext10:
  1209                           	opt callstack 0
  1210  001462                     i1_timer0_reset:
  1211                           	opt callstack 25
  1212                           
  1213                           ;Timer.c: 7:     TMR0IF = 0;
  1214                           
  1215                           ;incstack = 0
  1216  001462  94F2               	bcf	4082,2,c	;volatile
  1217                           
  1218                           ;Timer.c: 8:     TMR0ON = 0;
  1219  001464  9ED5               	bcf	4053,7,c	;volatile
  1220                           
  1221                           ;Timer.c: 9:     TMR0 = -125;
  1222  001466  0EFF               	movlw	255
  1223  001468  6ED7               	movwf	4055,c	;volatile
  1224  00146A  0E83               	movlw	131
  1225  00146C  6ED6               	movwf	4054,c	;volatile
  1226                           
  1227                           ;Timer.c: 10:     TMR0ON = 1;
  1228  00146E  8ED5               	bsf	4053,7,c	;volatile
  1229  001470  0012               	return		;funcret
  1230  001472                     __end_ofi1_timer0_reset:
  1231                           	opt callstack 0
  1232                           
  1233 ;; *************** function _timer_process *****************
  1234 ;; Defined at:
  1235 ;;		line 154 in file "main.c"
  1236 ;; Parameters:    Size  Location     Type
  1237 ;;		None
  1238 ;; Auto vars:     Size  Location     Type
  1239 ;;		None
  1240 ;; Return value:  Size  Location     Type
  1241 ;;                  1    wreg      void 
  1242 ;; Registers used:
  1243 ;;		wreg, fsr2l, fsr2h, status,2, status,0, cstack
  1244 ;; Tracked objects:
  1245 ;;		On entry : 0/0
  1246 ;;		On exit  : 0/0
  1247 ;;		Unchanged: 0/0
  1248 ;; Data sizes:     COMRAM   BANK0   BANK1   BANK2   BANK3   BANK4   BANK5   BANK6   BANK7   BANK8   BANK9  BANK10  BANK1
      +1  BANK12  BANK13  BANK14  BANK15
  1249 ;;      Params:         0       0       0       0       0       0       0       0       0       0       0       0       
      +0       0       0       0       0
  1250 ;;      Locals:         0       0       0       0       0       0       0       0       0       0       0       0       
      +0       0       0       0       0
  1251 ;;      Temps:          2       0       0       0       0       0       0       0       0       0       0       0       
      +0       0       0       0       0
  1252 ;;      Totals:         2       0       0       0       0       0       0       0       0       0       0       0       
      +0       0       0       0       0
  1253 ;;Total ram usage:        2 bytes
  1254 ;; Hardware stack levels used:    1
  1255 ;; Hardware stack levels required when called:    2
  1256 ;; This function calls:
  1257 ;;		_lightLED
  1258 ;; This function is called by:
  1259 ;;		_timer1_isr
  1260 ;; This function uses a non-reentrant model
  1261 ;;
  1262                           
  1263                           	psect	text11
  1264  00127A                     __ptext11:
  1265                           	opt callstack 0
  1266  00127A                     _timer_process:
  1267                           	opt callstack 24
  1268                           
  1269                           ;main.c: 155:     row = 0;
  1270                           
  1271                           ;incstack = 0
  1272  00127A  0E00               	movlw	0
  1273  00127C  6E37               	movwf	_row,c	;volatile
  1274                           
  1275                           ;main.c: 156:     gcol = rambuf[1][rowidx];
  1276  00127E  0E2C               	movlw	low (_rambuf+8)
  1277  001280  243A               	addwf	_rowidx,w,c
  1278  001282  6ED9               	movwf	fsr2l,c
  1279  001284  6ADA               	clrf	fsr2h,c
  1280  001286  0E00               	movlw	high (_rambuf+8)
  1281  001288  22DA               	addwfc	fsr2h,f,c
  1282  00128A  50DF               	movf	indf2,w,c
  1283  00128C  6E39               	movwf	_gcol,c	;volatile
  1284                           
  1285                           ;main.c: 157:     rcol = rambuf[0][rowidx];
  1286  00128E  0E24               	movlw	low _rambuf
  1287  001290  243A               	addwf	_rowidx,w,c
  1288  001292  6ED9               	movwf	fsr2l,c
  1289  001294  6ADA               	clrf	fsr2h,c
  1290  001296  0E00               	movlw	high _rambuf
  1291  001298  22DA               	addwfc	fsr2h,f,c
  1292  00129A  50DF               	movf	indf2,w,c
  1293  00129C  6E38               	movwf	_rcol,c	;volatile
  1294                           
  1295                           ;main.c: 158:     row = 1<<rowidx++;
  1296  00129E  C03A  F004         	movff	_rowidx,??_timer_process
  1297  0012A2  0E01               	movlw	1
  1298  0012A4  6E05               	movwf	(??_timer_process+1)& (0+255),c
  1299  0012A6  2A04               	incf	??_timer_process,f,c
  1300  0012A8  D002               	goto	i1u27_24
  1301  0012AA                     i1u27_25:
  1302  0012AA  90D8               	bcf	status,0,c
  1303  0012AC  3605               	rlcf	??_timer_process+1,f,c
  1304  0012AE                     i1u27_24:
  1305  0012AE  2E04               	decfsz	??_timer_process,f,c
  1306  0012B0  D7FC               	goto	i1u27_25
  1307  0012B2  5005               	movf	??_timer_process+1,w,c
  1308  0012B4  6E37               	movwf	_row,c	;volatile
  1309  0012B6  2A3A               	incf	_rowidx,f,c
  1310                           
  1311                           ;main.c: 159:     lightLED(rcol, gcol, row);
  1312  0012B8  C039  F001         	movff	_gcol,lightLED@green	;volatile
  1313  0012BC  C037  F002         	movff	_row,lightLED@row	;volatile
  1314  0012C0  5038               	movf	_rcol,w,c	;volatile
  1315  0012C2  EC39  F00A         	call	_lightLED
  1316                           
  1317                           ;main.c: 160:     rowidx%=8;
  1318  0012C6  0E07               	movlw	7
  1319  0012C8  163A               	andwf	_rowidx,f,c
  1320  0012CA  0012               	return		;funcret
  1321  0012CC                     __end_of_timer_process:
  1322                           	opt callstack 0
  1323                           
  1324 ;; *************** function _lightLED *****************
  1325 ;; Defined at:
  1326 ;;		line 147 in file "main.c"
  1327 ;; Parameters:    Size  Location     Type
  1328 ;;  red             1    wreg     unsigned char 
  1329 ;;  green           1    0[COMRAM] unsigned char 
  1330 ;;  row             1    1[COMRAM] unsigned char 
  1331 ;; Auto vars:     Size  Location     Type
  1332 ;;  red             1    2[COMRAM] unsigned char 
  1333 ;; Return value:  Size  Location     Type
  1334 ;;                  1    wreg      void 
  1335 ;; Registers used:
  1336 ;;		wreg
  1337 ;; Tracked objects:
  1338 ;;		On entry : 0/0
  1339 ;;		On exit  : 0/0
  1340 ;;		Unchanged: 0/0
  1341 ;; Data sizes:     COMRAM   BANK0   BANK1   BANK2   BANK3   BANK4   BANK5   BANK6   BANK7   BANK8   BANK9  BANK10  BANK1
      +1  BANK12  BANK13  BANK14  BANK15
  1342 ;;      Params:         2       0       0       0       0       0       0       0       0       0       0       0       
      +0       0       0       0       0
  1343 ;;      Locals:         1       0       0       0       0       0       0       0       0       0       0       0       
      +0       0       0       0       0
  1344 ;;      Temps:          0       0       0       0       0       0       0       0       0       0       0       0       
      +0       0       0       0       0
  1345 ;;      Totals:         3       0       0       0       0       0       0       0       0       0       0       0       
      +0       0       0       0       0
  1346 ;;Total ram usage:        3 bytes
  1347 ;; Hardware stack levels used:    1
  1348 ;; Hardware stack levels required when called:    1
  1349 ;; This function calls:
  1350 ;;		Nothing
  1351 ;; This function is called by:
  1352 ;;		_timer_process
  1353 ;; This function uses a non-reentrant model
  1354 ;;
  1355                           
  1356                           	psect	text12
  1357  001472                     __ptext12:
  1358                           	opt callstack 0
  1359  001472                     _lightLED:
  1360                           	opt callstack 24
  1361                           
  1362                           ;incstack = 0
  1363                           ;lightLED@red stored from wreg
  1364  001472  6E03               	movwf	lightLED@red,c
  1365                           
  1366                           ;main.c: 149:     PORTB = red;
  1367  001474  C003  FF81         	movff	lightLED@red,3969	;volatile
  1368                           
  1369                           ;main.c: 150:     PORTC = green;
  1370  001478  C001  FF82         	movff	lightLED@green,3970	;volatile
  1371                           
  1372                           ;main.c: 151:     PORTD = row;
  1373  00147C  C002  FF83         	movff	lightLED@row,3971	;volatile
  1374  001480  0012               	return		;funcret
  1375  001482                     __end_of_lightLED:
  1376                           	opt callstack 0
  1377                           
  1378 ;; *************** function _timer1_process *****************
  1379 ;; Defined at:
  1380 ;;		line 162 in file "main.c"
  1381 ;; Parameters:    Size  Location     Type
  1382 ;;		None
  1383 ;; Auto vars:     Size  Location     Type
  1384 ;;		None
  1385 ;; Return value:  Size  Location     Type
  1386 ;;                  1    wreg      void 
  1387 ;; Registers used:
  1388 ;;		wreg, fsr2l, fsr2h, status,2, status,0, tblptrl, tblptrh, tblptru, prodl, prodh, cstack
  1389 ;; Tracked objects:
  1390 ;;		On entry : 0/0
  1391 ;;		On exit  : 0/0
  1392 ;;		Unchanged: 0/0
  1393 ;; Data sizes:     COMRAM   BANK0   BANK1   BANK2   BANK3   BANK4   BANK5   BANK6   BANK7   BANK8   BANK9  BANK10  BANK1
      +1  BANK12  BANK13  BANK14  BANK15
  1394 ;;      Params:         0       0       0       0       0       0       0       0       0       0       0       0       
      +0       0       0       0       0
  1395 ;;      Locals:         0       0       0       0       0       0       0       0       0       0       0       0       
      +0       0       0       0       0
  1396 ;;      Temps:          0       0       0       0       0       0       0       0       0       0       0       0       
      +0       0       0       0       0
  1397 ;;      Totals:         0       0       0       0       0       0       0       0       0       0       0       0       
      +0       0       0       0       0
  1398 ;;Total ram usage:        0 bytes
  1399 ;; Hardware stack levels used:    1
  1400 ;; Hardware stack levels required when called:    3
  1401 ;; This function calls:
  1402 ;;		i1_rom2ramup
  1403 ;; This function is called by:
  1404 ;;		_timer1_isr
  1405 ;; This function uses a non-reentrant model
  1406 ;;
  1407                           
  1408                           	psect	text13
  1409  00136C                     __ptext13:
  1410                           	opt callstack 0
  1411  00136C                     _timer1_process:
  1412                           	opt callstack 23
  1413                           
  1414                           ;main.c: 163:     if (flag == 0){
  1415                           
  1416                           ;incstack = 0
  1417  00136C  5035               	movf	_flag,w,c
  1418  00136E  A4D8               	btfss	status,2,c
  1419  001370  D00D               	goto	i1l1111
  1420                           
  1421                           ;main.c: 164:         index = index + 1;
  1422  001372  2836               	incf	_index,w,c
  1423  001374  6E36               	movwf	_index,c
  1424                           
  1425                           ;main.c: 165:         rom2ramup(index);
  1426  001376  5036               	movf	_index,w,c
  1427  001378  ECAF  F008         	call	i1_rom2ramup
  1428                           
  1429                           ;main.c: 166:         if (index == 7){
  1430  00137C  0E07               	movlw	7
  1431  00137E  1836               	xorwf	_index,w,c
  1432  001380  A4D8               	btfss	status,2,c
  1433  001382  D010               	goto	i1l1121
  1434                           
  1435                           ;main.c: 167:             index = index + 1;
  1436  001384  2836               	incf	_index,w,c
  1437  001386  6E36               	movwf	_index,c
  1438                           
  1439                           ;main.c: 168:             flag = 1;
  1440  001388  0E01               	movlw	1
  1441  00138A  D00B               	goto	L1
  1442  00138C                     i1l1111:
  1443                           
  1444                           ;main.c: 172:         index = index - 1;
  1445  00138C  0436               	decf	_index,w,c
  1446  00138E  6E36               	movwf	_index,c
  1447                           
  1448                           ;main.c: 173:         rom2ramup(index);
  1449  001390  5036               	movf	_index,w,c
  1450  001392  ECAF  F008         	call	i1_rom2ramup
  1451                           
  1452                           ;main.c: 174:         if (index == 0){
  1453  001396  5036               	movf	_index,w,c
  1454  001398  A4D8               	btfss	status,2,c
  1455  00139A  D004               	goto	i1l1121
  1456                           
  1457                           ;main.c: 175:             index = index - 1;
  1458  00139C  0436               	decf	_index,w,c
  1459  00139E  6E36               	movwf	_index,c
  1460                           
  1461                           ;main.c: 176:             flag = 0;
  1462  0013A0  0E00               	movlw	0
  1463  0013A2                     L1:
  1464  0013A2  6E35               	movwf	_flag,c
  1465  0013A4                     i1l1121:
  1466                           
  1467                           ;main.c: 179:     rowidx = 0;
  1468  0013A4  0E00               	movlw	0
  1469  0013A6  6E3A               	movwf	_rowidx,c
  1470  0013A8  0012               	return		;funcret
  1471  0013AA                     __end_of_timer1_process:
  1472                           	opt callstack 0
  1473                           
  1474 ;; *************** function i1_rom2ramup *****************
  1475 ;; Defined at:
  1476 ;;		line 127 in file "main.c"
  1477 ;; Parameters:    Size  Location     Type
  1478 ;;  index           1    wreg     unsigned char 
  1479 ;; Auto vars:     Size  Location     Type
  1480 ;;  index           1   10[COMRAM] unsigned char 
  1481 ;;  rom2ramup       1   11[COMRAM] unsigned char 
  1482 ;; Return value:  Size  Location     Type
  1483 ;;                  1    wreg      void 
  1484 ;; Registers used:
  1485 ;;		wreg, fsr2l, fsr2h, status,2, status,0, tblptrl, tblptrh, tblptru, prodl, prodh, cstack
  1486 ;; Tracked objects:
  1487 ;;		On entry : 0/0
  1488 ;;		On exit  : 0/0
  1489 ;;		Unchanged: 0/0
  1490 ;; Data sizes:     COMRAM   BANK0   BANK1   BANK2   BANK3   BANK4   BANK5   BANK6   BANK7   BANK8   BANK9  BANK10  BANK1
      +1  BANK12  BANK13  BANK14  BANK15
  1491 ;;      Params:         0       0       0       0       0       0       0       0       0       0       0       0       
      +0       0       0       0       0
  1492 ;;      Locals:         2       0       0       0       0       0       0       0       0       0       0       0       
      +0       0       0       0       0
  1493 ;;      Temps:          2       0       0       0       0       0       0       0       0       0       0       0       
      +0       0       0       0       0
  1494 ;;      Totals:         4       0       0       0       0       0       0       0       0       0       0       0       
      +0       0       0       0       0
  1495 ;;Total ram usage:        4 bytes
  1496 ;; Hardware stack levels used:    1
  1497 ;; Hardware stack levels required when called:    2
  1498 ;; This function calls:
  1499 ;;		i1_Reverse_bits
  1500 ;; This function is called by:
  1501 ;;		_timer1_process
  1502 ;; This function uses a non-reentrant model
  1503 ;;
  1504                           
  1505                           	psect	text14
  1506  00115E                     __ptext14:
  1507                           	opt callstack 0
  1508  00115E                     i1_rom2ramup:
  1509                           	opt callstack 23
  1510                           
  1511                           ;incstack = 0
  1512                           ;i1rom2ramup@index stored from wreg
  1513  00115E  6E0B               	movwf	i1rom2ramup@index,c
  1514                           
  1515                           ;main.c: 128:     unsigned char i;;main.c: 129:     if (flagFlip == 0)
  1516  001160  5034               	movf	_flagFlip,w,c
  1517  001162  A4D8               	btfss	status,2,c
  1518  001164  D043               	goto	i1l1071
  1519                           
  1520                           ;main.c: 130:         for (i = 0 ; i < 8 ; i++){
  1521  001166  0E00               	movlw	0
  1522  001168  6E0C               	movwf	i1rom2ramup@i,c
  1523  00116A                     i1l1063:
  1524                           
  1525                           ;main.c: 131:         rambuf[0][i] = maurom[index][i];
  1526  00116A  500B               	movf	i1rom2ramup@index,w,c
  1527  00116C  0D08               	mullw	8
  1528  00116E  0E01               	movlw	low _maurom
  1529  001170  6E09               	movwf	??i1_rom2ramup& (0+255),c
  1530  001172  0E10               	movlw	high _maurom
  1531  001174  6E0A               	movwf	(??i1_rom2ramup+1)& (0+255),c
  1532  001176  50F3               	movf	prodl,w,c
  1533  001178  2609               	addwf	??i1_rom2ramup,f,c
  1534  00117A  50F4               	movf	prodh,w,c
  1535  00117C  220A               	addwfc	??i1_rom2ramup+1,f,c
  1536  00117E  500C               	movf	i1rom2ramup@i,w,c
  1537  001180  2609               	addwf	??i1_rom2ramup,f,c
  1538  001182  0E00               	movlw	0
  1539  001184  220A               	addwfc	??i1_rom2ramup+1,f,c
  1540  001186  C009  FFF6         	movff	??i1_rom2ramup,tblptrl
  1541  00118A  C00A  FFF7         	movff	??i1_rom2ramup+1,tblptrh
  1542  00118E                     	if	0	;tblptru may be non-zero
  1543  00118E                     	endif
  1544  00118E                     	if	0	;tblptru may be non-zero
  1545  00118E                     	endif
  1546  00118E  0E24               	movlw	low _rambuf
  1547  001190  240C               	addwf	i1rom2ramup@i,w,c
  1548  001192  6ED9               	movwf	fsr2l,c
  1549  001194  6ADA               	clrf	fsr2h,c
  1550  001196  0E00               	movlw	high _rambuf
  1551  001198  22DA               	addwfc	fsr2h,f,c
  1552  00119A  0008               	tblrd		*
  1553  00119C  CFF5 FFDF          	movff	tablat,indf2
  1554                           
  1555                           ;main.c: 132:         rambuf[1][i] = Reverse_bits(maurom[index][7-i]);
  1556  0011A0  0E2C               	movlw	low (_rambuf+8)
  1557  0011A2  240C               	addwf	i1rom2ramup@i,w,c
  1558  0011A4  6ED9               	movwf	fsr2l,c
  1559  0011A6  6ADA               	clrf	fsr2h,c
  1560  0011A8  0E00               	movlw	high (_rambuf+8)
  1561  0011AA  22DA               	addwfc	fsr2h,f,c
  1562  0011AC  500B               	movf	i1rom2ramup@index,w,c
  1563  0011AE  0D08               	mullw	8
  1564  0011B0  0E01               	movlw	low _maurom
  1565  0011B2  6E09               	movwf	??i1_rom2ramup& (0+255),c
  1566  0011B4  0E10               	movlw	high _maurom
  1567  0011B6  6E0A               	movwf	(??i1_rom2ramup+1)& (0+255),c
  1568  0011B8  50F3               	movf	prodl,w,c
  1569  0011BA  2609               	addwf	??i1_rom2ramup,f,c
  1570  0011BC  50F4               	movf	prodh,w,c
  1571  0011BE  220A               	addwfc	??i1_rom2ramup+1,f,c
  1572  0011C0  500C               	movf	i1rom2ramup@i,w,c
  1573  0011C2  5E09               	subwf	??i1_rom2ramup,f,c
  1574  0011C4  0E00               	movlw	0
  1575  0011C6  5A0A               	subwfb	??i1_rom2ramup+1,f,c
  1576  0011C8  0E07               	movlw	7
  1577  0011CA  2609               	addwf	??i1_rom2ramup,f,c
  1578  0011CC  0E00               	movlw	0
  1579  0011CE  220A               	addwfc	??i1_rom2ramup+1,f,c
  1580  0011D0  C009  FFF6         	movff	??i1_rom2ramup,tblptrl
  1581  0011D4  C00A  FFF7         	movff	??i1_rom2ramup+1,tblptrh
  1582  0011D8                     	if	0	;tblptru may be non-zero
  1583  0011D8                     	endif
  1584  0011D8                     	if	0	;tblptru may be non-zero
  1585  0011D8                     	endif
  1586  0011D8  0008               	tblrd		*
  1587  0011DA  50F5               	movf	tablat,w,c
  1588  0011DC  EC8E  F009         	call	i1_Reverse_bits
  1589  0011E0  6EDF               	movwf	indf2,c
  1590                           
  1591                           ;main.c: 133:         }
  1592  0011E2  2A0C               	incf	i1rom2ramup@i,f,c
  1593  0011E4  0E07               	movlw	7
  1594  0011E6  640C               	cpfsgt	i1rom2ramup@i,c
  1595  0011E8  D7C0               	goto	i1l1063
  1596  0011EA  0012               	return	
  1597  0011EC                     i1l1071:
  1598                           
  1599                           ;main.c: 135:         for (i = 0 ; i < 8 ; i++){
  1600  0011EC  0E00               	movlw	0
  1601  0011EE  6E0C               	movwf	i1rom2ramup@i,c
  1602  0011F0                     i1l1077:
  1603                           
  1604                           ;main.c: 136:         rambuf[0][7-i] = maurom[index][i];
  1605  0011F0  500B               	movf	i1rom2ramup@index,w,c
  1606  0011F2  0D08               	mullw	8
  1607  0011F4  0E01               	movlw	low _maurom
  1608  0011F6  6E09               	movwf	??i1_rom2ramup& (0+255),c
  1609  0011F8  0E10               	movlw	high _maurom
  1610  0011FA  6E0A               	movwf	(??i1_rom2ramup+1)& (0+255),c
  1611  0011FC  50F3               	movf	prodl,w,c
  1612  0011FE  2609               	addwf	??i1_rom2ramup,f,c
  1613  001200  50F4               	movf	prodh,w,c
  1614  001202  220A               	addwfc	??i1_rom2ramup+1,f,c
  1615  001204  500C               	movf	i1rom2ramup@i,w,c
  1616  001206  2609               	addwf	??i1_rom2ramup,f,c
  1617  001208  0E00               	movlw	0
  1618  00120A  220A               	addwfc	??i1_rom2ramup+1,f,c
  1619  00120C  C009  FFF6         	movff	??i1_rom2ramup,tblptrl
  1620  001210  C00A  FFF7         	movff	??i1_rom2ramup+1,tblptrh
  1621  001214                     	if	0	;tblptru may be non-zero
  1622  001214                     	endif
  1623  001214                     	if	0	;tblptru may be non-zero
  1624  001214                     	endif
  1625  001214  500C               	movf	i1rom2ramup@i,w,c
  1626  001216  082B               	sublw	low (_rambuf+7)
  1627  001218  6ED9               	movwf	fsr2l,c
  1628  00121A  0E00               	movlw	0
  1629  00121C  A0D8               	btfss	status,0,c
  1630  00121E  2AE8               	incf	wreg,f,c
  1631  001220  0800               	sublw	high (_rambuf+7)
  1632  001222  6EDA               	movwf	fsr2h,c
  1633  001224  0008               	tblrd		*
  1634  001226  CFF5 FFDF          	movff	tablat,indf2
  1635                           
  1636                           ;main.c: 137:         rambuf[1][7-i] = Reverse_bits(maurom[index][7-i]);
  1637  00122A  500C               	movf	i1rom2ramup@i,w,c
  1638  00122C  0833               	sublw	low (_rambuf+15)
  1639  00122E  6ED9               	movwf	fsr2l,c
  1640  001230  0E00               	movlw	0
  1641  001232  A0D8               	btfss	status,0,c
  1642  001234  2AE8               	incf	wreg,f,c
  1643  001236  0800               	sublw	high (_rambuf+15)
  1644  001238  6EDA               	movwf	fsr2h,c
  1645  00123A  500B               	movf	i1rom2ramup@index,w,c
  1646  00123C  0D08               	mullw	8
  1647  00123E  0E01               	movlw	low _maurom
  1648  001240  6E09               	movwf	??i1_rom2ramup& (0+255),c
  1649  001242  0E10               	movlw	high _maurom
  1650  001244  6E0A               	movwf	(??i1_rom2ramup+1)& (0+255),c
  1651  001246  50F3               	movf	prodl,w,c
  1652  001248  2609               	addwf	??i1_rom2ramup,f,c
  1653  00124A  50F4               	movf	prodh,w,c
  1654  00124C  220A               	addwfc	??i1_rom2ramup+1,f,c
  1655  00124E  500C               	movf	i1rom2ramup@i,w,c
  1656  001250  5E09               	subwf	??i1_rom2ramup,f,c
  1657  001252  0E00               	movlw	0
  1658  001254  5A0A               	subwfb	??i1_rom2ramup+1,f,c
  1659  001256  0E07               	movlw	7
  1660  001258  2609               	addwf	??i1_rom2ramup,f,c
  1661  00125A  0E00               	movlw	0
  1662  00125C  220A               	addwfc	??i1_rom2ramup+1,f,c
  1663  00125E  C009  FFF6         	movff	??i1_rom2ramup,tblptrl
  1664  001262  C00A  FFF7         	movff	??i1_rom2ramup+1,tblptrh
  1665  001266                     	if	0	;tblptru may be non-zero
  1666  001266                     	endif
  1667  001266                     	if	0	;tblptru may be non-zero
  1668  001266                     	endif
  1669  001266  0008               	tblrd		*
  1670  001268  50F5               	movf	tablat,w,c
  1671  00126A  EC8E  F009         	call	i1_Reverse_bits
  1672  00126E  6EDF               	movwf	indf2,c
  1673                           
  1674                           ;main.c: 138:         }
  1675  001270  2A0C               	incf	i1rom2ramup@i,f,c
  1676  001272  0E07               	movlw	7
  1677  001274  640C               	cpfsgt	i1rom2ramup@i,c
  1678  001276  D7BC               	goto	i1l1077
  1679  001278  0012               	return	
  1680  00127A                     __end_ofi1_rom2ramup:
  1681                           	opt callstack 0
  1682                           
  1683 ;; *************** function i1_Reverse_bits *****************
  1684 ;; Defined at:
  1685 ;;		line 112 in file "main.c"
  1686 ;; Parameters:    Size  Location     Type
  1687 ;;  num             1    wreg     unsigned char 
  1688 ;; Auto vars:     Size  Location     Type
  1689 ;;  num             1    3[COMRAM] unsigned char 
  1690 ;;  Reverse_bits    2    6[COMRAM] int 
  1691 ;;  Reverse_bits    1    5[COMRAM] unsigned char 
  1692 ;;  Reverse_bits    1    4[COMRAM] unsigned char 
  1693 ;; Return value:  Size  Location     Type
  1694 ;;                  1    wreg      unsigned char 
  1695 ;; Registers used:
  1696 ;;		wreg, status,2, status,0
  1697 ;; Tracked objects:
  1698 ;;		On entry : 0/0
  1699 ;;		On exit  : 0/0
  1700 ;;		Unchanged: 0/0
  1701 ;; Data sizes:     COMRAM   BANK0   BANK1   BANK2   BANK3   BANK4   BANK5   BANK6   BANK7   BANK8   BANK9  BANK10  BANK1
      +1  BANK12  BANK13  BANK14  BANK15
  1702 ;;      Params:         0       0       0       0       0       0       0       0       0       0       0       0       
      +0       0       0       0       0
  1703 ;;      Locals:         5       0       0       0       0       0       0       0       0       0       0       0       
      +0       0       0       0       0
  1704 ;;      Temps:          3       0       0       0       0       0       0       0       0       0       0       0       
      +0       0       0       0       0
  1705 ;;      Totals:         8       0       0       0       0       0       0       0       0       0       0       0       
      +0       0       0       0       0
  1706 ;;Total ram usage:        8 bytes
  1707 ;; Hardware stack levels used:    1
  1708 ;; Hardware stack levels required when called:    1
  1709 ;; This function calls:
  1710 ;;		Nothing
  1711 ;; This function is called by:
  1712 ;;		i1_rom2ramup
  1713 ;; This function uses a non-reentrant model
  1714 ;;
  1715                           
  1716                           	psect	text15
  1717  00131C                     __ptext15:
  1718                           	opt callstack 0
  1719  00131C                     i1_Reverse_bits:
  1720                           	opt callstack 23
  1721                           
  1722                           ;incstack = 0
  1723                           ;i1Reverse_bits@num stored from wreg
  1724  00131C  6E04               	movwf	i1Reverse_bits@num,c
  1725                           
  1726                           ;main.c: 114:     int i=7;
  1727  00131E  0E00               	movlw	0
  1728  001320  6E08               	movwf	i1Reverse_bits@i+1,c
  1729  001322  0E07               	movlw	7
  1730  001324  6E07               	movwf	i1Reverse_bits@i,c
  1731                           
  1732                           ;main.c: 115:     unsigned char j=0;
  1733  001326  0E00               	movlw	0
  1734  001328  6E05               	movwf	i1Reverse_bits@j,c
  1735                           
  1736                           ;main.c: 116:     unsigned char temp=0;
  1737  00132A  0E00               	movlw	0
  1738  00132C  6E06               	movwf	i1Reverse_bits@temp,c
  1739                           
  1740                           ;main.c: 118:     while(i>=0){
  1741  00132E  D01A               	goto	i1l51
  1742  001330                     i1l1039:
  1743                           
  1744                           ;main.c: 119:     temp |= ((num>>j)&1)<< i;
  1745  001330  C007  F001         	movff	i1Reverse_bits@i,??i1_Reverse_bits
  1746  001334  C005  F002         	movff	i1Reverse_bits@j,??i1_Reverse_bits+1
  1747  001338  C004  F003         	movff	i1Reverse_bits@num,??i1_Reverse_bits+2
  1748  00133C  2A02               	incf	??i1_Reverse_bits+1,f,c
  1749  00133E  D002               	goto	i1u21_24
  1750  001340                     i1u21_25:
  1751  001340  90D8               	bcf	status,0,c
  1752  001342  3203               	rrcf	??i1_Reverse_bits+2,f,c
  1753  001344                     i1u21_24:
  1754  001344  2E02               	decfsz	??i1_Reverse_bits+1,f,c
  1755  001346  D7FC               	goto	i1u21_25
  1756  001348  0E01               	movlw	1
  1757  00134A  1603               	andwf	??i1_Reverse_bits+2,f,c
  1758  00134C  2A01               	incf	??i1_Reverse_bits,f,c
  1759  00134E  D002               	goto	i1u22_24
  1760  001350                     i1u22_25:
  1761  001350  90D8               	bcf	status,0,c
  1762  001352  3603               	rlcf	??i1_Reverse_bits+2,f,c
  1763  001354                     i1u22_24:
  1764  001354  2E01               	decfsz	??i1_Reverse_bits,f,c
  1765  001356  D7FC               	goto	i1u22_25
  1766  001358  5003               	movf	??i1_Reverse_bits+2,w,c
  1767  00135A  1206               	iorwf	i1Reverse_bits@temp,f,c
  1768                           
  1769                           ;main.c: 120:     i--;
  1770  00135C  0607               	decf	i1Reverse_bits@i,f,c
  1771  00135E  A0D8               	btfss	status,0,c
  1772  001360  0608               	decf	i1Reverse_bits@i+1,f,c
  1773                           
  1774                           ;main.c: 121:     j++;
  1775  001362  2A05               	incf	i1Reverse_bits@j,f,c
  1776  001364                     i1l51:
  1777                           
  1778                           ;main.c: 118:     while(i>=0){
  1779  001364  AE08               	btfss	i1Reverse_bits@i+1,7,c
  1780  001366  D7E4               	goto	i1l1039
  1781                           
  1782                           ;main.c: 123:     return(temp);
  1783  001368  5006               	movf	i1Reverse_bits@temp,w,c
  1784  00136A  0012               	return		;funcret
  1785  00136C                     __end_ofi1_Reverse_bits:
  1786                           	opt callstack 0
  1787                           
  1788 ;; *************** function _int0_isr *****************
  1789 ;; Defined at:
  1790 ;;		line 181 in file "main.c"
  1791 ;; Parameters:    Size  Location     Type
  1792 ;;		None
  1793 ;; Auto vars:     Size  Location     Type
  1794 ;;		None
  1795 ;; Return value:  Size  Location     Type
  1796 ;;                  1    wreg      void 
  1797 ;; Registers used:
  1798 ;;		wreg, status,2, status,0
  1799 ;; Tracked objects:
  1800 ;;		On entry : 0/0
  1801 ;;		On exit  : 0/0
  1802 ;;		Unchanged: 0/0
  1803 ;; Data sizes:     COMRAM   BANK0   BANK1   BANK2   BANK3   BANK4   BANK5   BANK6   BANK7   BANK8   BANK9  BANK10  BANK1
      +1  BANK12  BANK13  BANK14  BANK15
  1804 ;;      Params:         0       0       0       0       0       0       0       0       0       0       0       0       
      +0       0       0       0       0
  1805 ;;      Locals:         0       0       0       0       0       0       0       0       0       0       0       0       
      +0       0       0       0       0
  1806 ;;      Temps:          0       0       0       0       0       0       0       0       0       0       0       0       
      +0       0       0       0       0
  1807 ;;      Totals:         0       0       0       0       0       0       0       0       0       0       0       0       
      +0       0       0       0       0
  1808 ;;Total ram usage:        0 bytes
  1809 ;; Hardware stack levels used:    1
  1810 ;; This function calls:
  1811 ;;		Nothing
  1812 ;; This function is called by:
  1813 ;;		Interrupt level 2
  1814 ;; This function uses a non-reentrant model
  1815 ;;
  1816                           
  1817                           	psect	intcode
  1818  000008                     __pintcode:
  1819                           	opt callstack 0
  1820  000008                     _int0_isr:
  1821                           	opt callstack 23
  1822                           
  1823                           ;incstack = 0
  1824  000008  823B               	bsf	btemp,1,c	;set compiler interrupt flag (level 2)
  1825  00000A  ED41  F00A         	call	int_func,f	;refresh shadow registers
  1826                           
  1827                           	psect	intcode_body
  1828  001482                     __pintcode_body:
  1829                           	opt callstack 23
  1830  001482                     int_func:
  1831                           	opt callstack 23
  1832  001482  0006               	pop		; remove dummy address from shadow register refresh
  1833                           
  1834                           ;main.c: 183:     INT0IF = 0;
  1835  001484  92F2               	bcf	4082,1,c	;volatile
  1836                           
  1837                           ;main.c: 184:     flagFlip = 1-flagFlip;
  1838  001486  5034               	movf	_flagFlip,w,c
  1839  001488  0801               	sublw	1
  1840  00148A  6E34               	movwf	_flagFlip,c
  1841  00148C  923B               	bcf	btemp,1,c	;clear compiler interrupt flag (level 2)
  1842  00148E  0011               	retfie		f
  1843  001490                     __end_of_int0_isr:
  1844                           	opt callstack 0
  1845                           
  1846                           	psect	rparam
  1847  0000                     
  1848                           	psect	temp
  1849  00003B                     btemp:
  1850                           	opt callstack 0
  1851  00003B                     	ds	1
  1852  0000                     int$flags	set	btemp
  1853  0000                     wtemp8	set	btemp+1
  1854  0000                     ttemp5	set	btemp+1
  1855  0000                     ttemp6	set	btemp+4
  1856  0000                     ttemp7	set	btemp+8
  1857                           tosu	equ	0xFFF
  1858                           tosh	equ	0xFFE
  1859                           tosl	equ	0xFFD
  1860                           stkptr	equ	0xFFC
  1861                           pclatu	equ	0xFFB
  1862                           pclath	equ	0xFFA
  1863                           pcl	equ	0xFF9
  1864                           tblptru	equ	0xFF8
  1865                           tblptrh	equ	0xFF7
  1866                           tblptrl	equ	0xFF6
  1867                           tablat	equ	0xFF5
  1868                           prodh	equ	0xFF4
  1869                           prodl	equ	0xFF3
  1870                           indf0	equ	0xFEF
  1871                           postinc0	equ	0xFEE
  1872                           postdec0	equ	0xFED
  1873                           preinc0	equ	0xFEC
  1874                           plusw0	equ	0xFEB
  1875                           fsr0h	equ	0xFEA
  1876                           fsr0l	equ	0xFE9
  1877                           wreg	equ	0xFE8
  1878                           indf1	equ	0xFE7
  1879                           postinc1	equ	0xFE6
  1880                           postdec1	equ	0xFE5
  1881                           preinc1	equ	0xFE4
  1882                           plusw1	equ	0xFE3
  1883                           fsr1h	equ	0xFE2
  1884                           fsr1l	equ	0xFE1
  1885                           bsr	equ	0xFE0
  1886                           indf2	equ	0xFDF
  1887                           postinc2	equ	0xFDE
  1888                           postdec2	equ	0xFDD
  1889                           preinc2	equ	0xFDC
  1890                           plusw2	equ	0xFDB
  1891                           fsr2h	equ	0xFDA
  1892                           fsr2l	equ	0xFD9
  1893                           status	equ	0xFD8


Data Sizes:
    Strings     0
    Constant    64
    Data        0
    BSS         23
    Persistent  0
    Stack       0

Auto Spaces:
    Space          Size  Autos    Used
    COMRAM           94     35      58
    BANK0           160      0       0
    BANK1           256      0       0
    BANK2           256      0       0
    BANK3           256      0       0
    BANK4           256      0       0
    BANK5           256      0       0
    BANK6           256      0       0
    BANK7           256      0       0
    BANK8           256      0       0
    BANK9           256      0       0
    BANK10          256      0       0
    BANK11          256      0       0
    BANK12          256      0       0
    BANK13          256      0       0
    BANK14          256      0       0
    BANK15           96      0       0

Pointer List with Targets:

    None.

Critical Paths under _main in COMRAM

    _init->_rom2ramup
    _rom2ramup->_Reverse_bits

Critical Paths under _timer1_isr in COMRAM

    _timer_process->_lightLED
    _timer1_process->i1_rom2ramup
    i1_rom2ramup->i1_Reverse_bits

Critical Paths under _int0_isr in COMRAM

    None.

Critical Paths under _main in BANK0

    None.

Critical Paths under _timer1_isr in BANK0

    None.

Critical Paths under _int0_isr in BANK0

    None.

Critical Paths under _main in BANK1

    None.

Critical Paths under _timer1_isr in BANK1

    None.

Critical Paths under _int0_isr in BANK1

    None.

Critical Paths under _main in BANK2

    None.

Critical Paths under _timer1_isr in BANK2

    None.

Critical Paths under _int0_isr in BANK2

    None.

Critical Paths under _main in BANK3

    None.

Critical Paths under _timer1_isr in BANK3

    None.

Critical Paths under _int0_isr in BANK3

    None.

Critical Paths under _main in BANK4

    None.

Critical Paths under _timer1_isr in BANK4

    None.

Critical Paths under _int0_isr in BANK4

    None.

Critical Paths under _main in BANK5

    None.

Critical Paths under _timer1_isr in BANK5

    None.

Critical Paths under _int0_isr in BANK5

    None.

Critical Paths under _main in BANK6

    None.

Critical Paths under _timer1_isr in BANK6

    None.

Critical Paths under _int0_isr in BANK6

    None.

Critical Paths under _main in BANK7

    None.

Critical Paths under _timer1_isr in BANK7

    None.

Critical Paths under _int0_isr in BANK7

    None.

Critical Paths under _main in BANK8

    None.

Critical Paths under _timer1_isr in BANK8

    None.

Critical Paths under _int0_isr in BANK8

    None.

Critical Paths under _main in BANK9

    None.

Critical Paths under _timer1_isr in BANK9

    None.

Critical Paths under _int0_isr in BANK9

    None.

Critical Paths under _main in BANK10

    None.

Critical Paths under _timer1_isr in BANK10

    None.

Critical Paths under _int0_isr in BANK10

    None.

Critical Paths under _main in BANK11

    None.

Critical Paths under _timer1_isr in BANK11

    None.

Critical Paths under _int0_isr in BANK11

    None.

Critical Paths under _main in BANK12

    None.

Critical Paths under _timer1_isr in BANK12

    None.

Critical Paths under _int0_isr in BANK12

    None.

Critical Paths under _main in BANK13

    None.

Critical Paths under _timer1_isr in BANK13

    None.

Critical Paths under _int0_isr in BANK13

    None.

Critical Paths under _main in BANK14

    None.

Critical Paths under _timer1_isr in BANK14

    None.

Critical Paths under _int0_isr in BANK14

    None.

Critical Paths under _main in BANK15

    None.

Critical Paths under _timer1_isr in BANK15

    None.

Critical Paths under _int0_isr in BANK15

    None.

Call Graph Tables:

 ---------------------------------------------------------------------------------
 (Depth) Function   	        Calls       Base Space   Used Autos Params    Refs
 ---------------------------------------------------------------------------------
 (0) _main                                                 0     0      0     315
                               _init
                        _timer0_init
                        _timer1_init
 ---------------------------------------------------------------------------------
 (1) _timer1_init                                          0     0      0       0
                       _timer1_reset
 ---------------------------------------------------------------------------------
 (2) _timer1_reset                                         0     0      0       0
 ---------------------------------------------------------------------------------
 (1) _timer0_init                                          0     0      0       0
                       _timer0_reset
 ---------------------------------------------------------------------------------
 (2) _timer0_reset                                         0     0      0       0
 ---------------------------------------------------------------------------------
 (1) _init                                                 0     0      0     315
                          _rom2ramup
 ---------------------------------------------------------------------------------
 (2) _rom2ramup                                            4     4      0     315
                                             31 COMRAM     4     4      0
                       _Reverse_bits
 ---------------------------------------------------------------------------------
 (3) _Reverse_bits                                         8     8      0      75
                                             23 COMRAM     8     8      0
 ---------------------------------------------------------------------------------
 Estimated maximum stack depth 3
 ---------------------------------------------------------------------------------
 (Depth) Function   	        Calls       Base Space   Used Autos Params    Refs
 ---------------------------------------------------------------------------------
 (4) _timer1_isr                                          11    11      0     690
                                             12 COMRAM    11    11      0
                     _timer1_process
                      _timer_process
                     i1_timer0_reset
                     i1_timer1_reset
 ---------------------------------------------------------------------------------
 (5) i1_timer1_reset                                       0     0      0       0
 ---------------------------------------------------------------------------------
 (5) i1_timer0_reset                                       0     0      0       0
 ---------------------------------------------------------------------------------
 (5) _timer_process                                        2     2      0     218
                                              3 COMRAM     2     2      0
                           _lightLED
 ---------------------------------------------------------------------------------
 (6) _lightLED                                             3     1      2     218
                                              0 COMRAM     3     1      2
 ---------------------------------------------------------------------------------
 (5) _timer1_process                                       0     0      0     472
                        i1_rom2ramup
 ---------------------------------------------------------------------------------
 (6) i1_rom2ramup                                          4     4      0     472
                                              8 COMRAM     4     4      0
                     i1_Reverse_bits
 ---------------------------------------------------------------------------------
 (7) i1_Reverse_bits                                       8     8      0     116
                                              0 COMRAM     8     8      0
 ---------------------------------------------------------------------------------
 Estimated maximum stack depth 7
 ---------------------------------------------------------------------------------
 (Depth) Function   	        Calls       Base Space   Used Autos Params    Refs
 ---------------------------------------------------------------------------------
 (8) _int0_isr                                             0     0      0       0
 ---------------------------------------------------------------------------------
 Estimated maximum stack depth 8
 ---------------------------------------------------------------------------------

 Call Graph Graphs:

 _main (ROOT)
   _init
     _rom2ramup
       _Reverse_bits
   _timer0_init
     _timer0_reset
   _timer1_init
     _timer1_reset

 _timer1_isr (ROOT)
   _timer1_process
     i1_rom2ramup
       i1_Reverse_bits
   _timer_process
     _lightLED
   i1_timer0_reset
   i1_timer1_reset

 _int0_isr (ROOT)

 Address spaces:
Name               Size   Autos  Total    Cost      Usage
BIGRAM             F5F      0       0      37        0.0%
EEDATA             400      0       0       0        0.0%
BITBANK14          100      0       0      33        0.0%
BANK14             100      0       0      34        0.0%
BITBANK13          100      0       0      30        0.0%
BANK13             100      0       0      31        0.0%
BITBANK12          100      0       0      28        0.0%
BANK12             100      0       0      29        0.0%
BITBANK11          100      0       0      26        0.0%
BANK11             100      0       0      27        0.0%
BITBANK10          100      0       0      24        0.0%
BANK10             100      0       0      25        0.0%
BITBANK9           100      0       0      22        0.0%
BANK9              100      0       0      23        0.0%
BITBANK8           100      0       0      20        0.0%
BANK8              100      0       0      21        0.0%
BITBANK7           100      0       0      18        0.0%
BANK7              100      0       0      19        0.0%
BITBANK6           100      0       0      16        0.0%
BANK6              100      0       0      17        0.0%
BITBANK5           100      0       0      14        0.0%
BANK5              100      0       0      15        0.0%
BITBANK4           100      0       0      12        0.0%
BANK4              100      0       0      13        0.0%
BITBANK3           100      0       0      10        0.0%
BANK3              100      0       0      11        0.0%
BITBANK2           100      0       0       8        0.0%
BANK2              100      0       0       9        0.0%
BITBANK1           100      0       0       6        0.0%
BANK1              100      0       0       7        0.0%
BITBANK0            A0      0       0       4        0.0%
BANK0               A0      0       0       5        0.0%
BITBANK15           60      0       0      35        0.0%
BANK15              60      0       0      36        0.0%
BITCOMRAM           5E      0       0       0        0.0%
COMRAM              5E     23      3A       1       61.7%
BITSFR               0      0       0     200        0.0%
SFR                  0      0       0     200        0.0%
STACK                0      0       0       2        0.0%
NULL                 0      0       0       0        0.0%
ABS                  0      0      3A      32        0.0%
DATA                 0      0      3A       3        0.0%
CODE                 0      0       0       0        0.0%


Microchip Technology PIC18 Macro Assembler V2.05 build -831301201 
Symbol Table                                                                                   Tue Nov 05 14:06:50 2019

                     l51 1314                       l96 13FA                       l99 1404  
                     u14 12F4                       u15 12F0                       u24 1304  
                     u25 1300          ?i1_Reverse_bits 0001                       bsr 000FE0  
            __CFG_BORV$3 000000             __CFG_CP0$OFF 000000             __CFG_CP1$OFF 000000  
           __CFG_CP2$OFF 000000             __CFG_CP3$OFF 000000              __CFG_OSC$HS 000000  
           __CFG_CP4$OFF 000000             __CFG_CP5$OFF 000000             __CFG_CP6$OFF 000000  
           __CFG_CP7$OFF 000000   __end_ofi1_timer0_reset 1472   __end_ofi1_timer1_reset 1462  
                    l837 12E0                      l881 10D4                      l867 104E  
                    l875 10D0             __CFG_CPB$OFF 000000             __CFG_CPD$OFF 000000  
                    _row 0037                      wreg 000FE8             __CFG_MODE$MC 000000  
           __CFG_LVP$OFF 000000             __CFG_WDT$OFF 000000                     _GIEH 007F97  
                   _GIEL 007F96                     _IPEN 007E87                     i1l51 1364  
                   _TMR0 000FD6                     _flag 0035                     _gcol 0039  
                   _main 13EE                     _init 13AA                     _rcol 0038  
                   fsr2h 000FDA                     indf2 000FDF                     fsr2l 000FD9  
                   btemp 003B                     prodh 000FF4                     prodl 000FF3  
                   start 00A2            __CFG_IESO$OFF 000000            __CFG_MCLRE$ON 000000  
           ___param_bank 000000          ??_timer_process 0004            __CFG_WAIT$OFF 000000  
                  ?_main 0001                    ?_init 0001          ?i1_timer0_reset 0001  
        Reverse_bits@num 001B          ?i1_timer1_reset 0001                    _T0CON 000FD5  
                  _T1CON 000FCD                    i1l159 0072                    _TMR1H 000FCF  
                  _TMR1L 000FCE                    _PORTB 000F81                    _PORTC 000F82  
                  _PORTD 000F83                    _TRISB 000F93                    _TRISC 000F94  
                  _TRISD 000F95            __CFG_PWRT$OFF 000000            __CFG_WRT0$OFF 000000  
          __CFG_WRT1$OFF 000000            __CFG_WRT2$OFF 000000            __CFG_WRT3$OFF 000000  
          __CFG_WRT4$OFF 000000            __CFG_WRT5$OFF 000000            __CFG_WRT6$OFF 000000  
          __CFG_WRT7$OFF 000000           __CFG_EBTR0$OFF 000000           __CFG_FCMEN$OFF 000000  
         __CFG_EBTR1$OFF 000000           __CFG_EBTR2$OFF 000000           __CFG_EBTR3$OFF 000000  
         __CFG_EBTR4$OFF 000000           __CFG_EBTR5$OFF 000000           __CFG_EBTR6$OFF 000000  
         __CFG_EBTR7$OFF 000000            __CFG_WRTB$OFF 000000            __CFG_WRTC$OFF 000000  
          __CFG_WRTD$OFF 000000           __CFG_EBTRB$OFF 000000              i1_rom2ramup 115E  
                  _index 0036                    tablat 000FF5                    ttemp5 003C  
                  ttemp6 003F                    ttemp7 0043                    status 000FD8  
                  wtemp8 003C          __initialization 13D0             __end_of_main 140A  
           __end_of_init 13D0              lightLED@red 0003              lightLED@row 0002  
                 ??_main 0024                   ??_init 0024            __activetblptr 000001  
                 _ADCON1 000FC1         Reverse_bits@temp 001D                   _INT0IE 007F94  
                 _INT0IF 007F91                   i1l1111 138C                   i1l1121 13A4  
                 i1l1039 1330                   i1l1063 116A                   i1l1071 11EC  
                 i1l1129 005C                   i1l1077 11F0          __CFG_BBSIZ$BB2K 000000  
                 _TMR0IE 007F95                   _TMR0IF 007F92                   _TMR1IE 007CE8  
                 _TMR1IF 007CF0                   _TMR0IP 007F8A                   _TMR1IP 007CF8  
                 _TMR0ON 007EAF                   _TMR1ON 007E68           __CFG_XINST$OFF 000000  
       __end_of_int0_isr 1490           __CFG_STVREN$ON 000000             ?_timer0_init 0001  
           ?_timer1_init 0001         __end_of_lightLED 1482                   _maurom 1001  
                 clear_0 13D6                   _rambuf 0024                   _rowidx 003A  
           __mediumconst 0000                   tblptrh 000FF7                   tblptrl 000FF6  
                 tblptru 000FF8               __accesstop 0060  __end_of__initialization 13DC  
          ___rparam_used 000001         ??i1_Reverse_bits 0001           __pcstackCOMRAM 0001  
       ??i1_timer0_reset 0001       __size_of_rom2ramup 011C         ??i1_timer1_reset 0001  
          ?_Reverse_bits 0001       i1Reverse_bits@temp 0006  __size_of_timer1_process 003E  
                i1u21_24 1344                  i1u21_25 1340                  i1u22_24 1354  
                i1u22_25 1350                  i1u27_24 12AE                  i1u27_25 12AA  
           ?i1_rom2ramup 0001                ?_int0_isr 0001                ?_lightLED 0001  
                __Hparam 0000                  __Lparam 0000           ??_Reverse_bits 0018  
           __psmallconst 1000                  __pcinit 13D0                  __ramtop 1000  
   __size_of_timer0_init 0014     __size_of_timer1_init 0014            ?_timer0_reset 0001  
                __ptext0 13EE                  __ptext1 140A                  __ptext2 1432  
                __ptext3 141E                  __ptext4 1442                  __ptext5 13AA  
                __ptext6 1042                  __ptext7 12CC                  __ptext9 1452  
          ?_timer1_reset 0001    __end_of_timer_process 12CC             i1rom2ramup@i 000C  
             ??_int0_isr 0001        __end_of_rom2ramup 115E           __pintcode_body 1482  
   end_of_initialization 13DC               ??_lightLED 0003                  int_func 1482  
             _timer1_isr 0018                  postinc0 000FEE           ??_timer0_reset 0018  
         ??_timer1_reset 0018                _PORTAbits 000F80                _TRISAbits 000F92  
          Reverse_bits@i 001E            Reverse_bits@j 001C           __end_of_maurom 1041  
         _timer1_process 136C      start_initialization 13D0     __end_of_Reverse_bits 131C  
   __size_ofi1_rom2ramup 011C            lightLED@green 0001              ?_timer1_isr 0001  
       __CFG_LPT1OSC$OFF 000000   __end_of_timer1_process 13AA              __pbssCOMRAM 0024  
         rom2ramup@index 0022        __size_of_int0_isr 1488     __end_of_timer0_reset 1452  
   __end_of_timer1_reset 1442        __size_of_lightLED 0010               rom2ramup@i 0023  
      __CFG_CCP2MX$PORTC 000000          i1Reverse_bits@i 0007          i1Reverse_bits@j 0005  
              __pintcode 0008        i1Reverse_bits@num 0004              __pintcodelo 0018  
        ?_timer1_process 0001  __size_ofi1_Reverse_bits 0050              __smallconst 1000  
    __size_of_timer1_isr 008A                _rom2ramup 1042    __CFG_DATABW$DATA16BIT 000000  
               _RCONbits 000FD0         __CFG_WDTPS$32768 000000            ??_timer0_init 0018  
          ??_timer1_init 0018        __CFG_ECCPMX$PORTE 000000    __size_of_Reverse_bits 0050  
__size_ofi1_timer0_reset 0010  __size_ofi1_timer1_reset 0010               ?_rom2ramup 0001  
 __size_of_timer_process 0052                 __Hrparam 0000                 __Lrparam 0000  
           __Lsmallconst 1000       __CFG_BOREN$SBORDIS 000000             _Reverse_bits 12CC  
    __end_of_timer0_init 1432      __end_of_timer1_init 141E                 _flagFlip 0034  
               __ptext10 1462                 __ptext11 127A                 __ptext12 1472  
               __ptext13 136C                 __ptext14 115E                 __ptext15 131C  
  __size_of_timer0_reset 0010    __size_of_timer1_reset 0010                 _int0_isr 0008  
               _lightLED 1472            __size_of_main 001C            __size_of_init 0026  
           ??_timer1_isr 000D                 int$flags 003B           i1_Reverse_bits 131C  
           _timer0_reset 1442             _timer1_reset 1432    __CFG_ADDRBW$ADDR20BIT 000000  
          _timer_process 127A            ??i1_rom2ramup 0009                 intlevel1 0000  
               intlevel2 0000       __end_of_timer1_isr 00A2              ??_rom2ramup 0020  
       ??_timer1_process 000D              _timer0_init 141E              _timer1_init 140A  
       i1rom2ramup@index 000B   __end_ofi1_Reverse_bits 136C           ?_timer_process 0001  
         i1_timer0_reset 1462           i1_timer1_reset 1452      __end_ofi1_rom2ramup 127A  
