:040000006EEF00F0AF
:100018003380D8CF1CF0E8CF1DF0E0CF1EF0FACF28
:100028001FF0FBCF20F0E9CF21F0EACF22F0E1CF9B
:1000380023F0E2CF24F0D9CF25F0DACF26F0F3CFA2
:1000480027F0F4CF28F0F6CF29F0F7CF2AF0F8CF31
:100058002BF0F5CF2CF033C02DF034C02EF035C086
:100068002FF036C030F0010EF2AA000EF2A4000EF6
:10007800E8A004D088EC0BF0AAEC0BF030C036F006
:100088002FC035F02EC034F02DC033F02CC0F5FF52
:100098002BC0F8FF2AC0F7FF29C0F6FF28C0F4FFDD
:1000A80027C0F3FF26C0DAFF25C0D9FF24C0E2FF2E
:1000B80023C0E1FF22C0EAFF21C0E9FF20C0FBFF07
:1000C8001FC0FAFF1EC0E0FF1DC0E8FF1CC0D8FF1C
:0800D800339010005DEF0BF006
:101000000001000A006400E80310270F0F0E1F0EF6
:101010000F0F001E1F0707071F1E001C1C1C1F1F91
:101020001C1C000707071F1F0707001F1C1C1F1C95
:101030001F1F00181C1C1E071F1E001C1D1F1F1E2B
:0F1040001C1C001C1810181C0E07002564000053
:101050006E0E0001716F000E726F8AD0250E771927
:10106000D8B404D0775197EC0BF082D0000E000179
:10107000736F6CC0F6FF6DC0F7FF6C4B6D2B000EED
:10108000F86E0800F5CF77F07751000AD8B4120057
:10109000640AD8B403D00D0AD8A46AD071C0D9FFAD
:1010A00072C0DAFFDECF75F0DDCF76F0020E712769
:1010B000000E722376AF06D0030E7313756D761F84
:1010C000D8B0762B010E776F050E7719D8B415D0EE
:1010D0007751020D010EF324F66E100EF420F76E18
:1010E000F86A000EF8220900F550755D0900F55008
:1010F0007659D8A002D0772BE7D773C070F0030ED3
:101100007017D8B403D02D0E97EC0BF077C074F0A5
:101110002AD000017451020D010EF324F66E100E58
:10112000F420F76EF86A000EF8220900F5CF62F09D
:101130000A00F5CF63F075C060F076C061F061EC35
:1011400009F060C067F061C068F0000E00016A6FCE
:101150000A0E696FDCEC09F000016751300F776F00
:10116000775197EC0BF0000174077429D8A4D1D7FC
:101170006CC0F6FF6DC0F7FF00016C4B6D2B000ECD
:10118000F86E0800F5CF77F07751D8B4120066D723
:101190000F0E126E000E136E85D0250E1818D8B4DF
:1011A00004D01850A5EC0BF07DD0000E146E0DC0CD
:1011B000F6FF0EC0F7FF0D4A0E2A000EF86E08006B
:1011C000F5CF18F01850000AD8B41200640AD8B449
:1011D00003D00D0AD8A466D012C0D9FF13C0DAFF1D
:1011E000DECF16F0DDCF17F0020E1226000E13220E
:1011F00017AE06D0030E1412166C171ED8B0172A9D
:10120000010E186E050E1818D8B415D01850020D1E
:10121000010EF324F66E100EF420F76EF86A000E3D
:10122000F8220900F550165C0900F5501758D8A0AF
:1012300002D0182AE7D714C011F0030E1116D8B443
:1012400003D02D0EA5EC0BF018C015F027D01550CB
:10125000020D010EF324F66E100EF420F76EF86AFC
:10126000000EF8220900F5CF03F00A00F5CF04F0D4
:1012700016C001F017C002F08BEC09F001C008F0B5
:1012800002C009F0000E0B6E0A0E0A6EFEEC09F0A9
:101290000850300F186E1850A5EC0BF015061528E5
:1012A000D8A4D5D70DC0F6FF0EC0F7FF0D4A0E2A01
:1012B000000EF86E0800F5CF18F01850D8B41200E0
:1012C0006CD7000E0001656F000E646F62516311F0
:1012D000D8B41CD0010E666F04D0D8906237633743
:1012E000662B63AFFAD7D890643765376251605D7B
:1012F00063516159D8A005D06251605F6351615B51
:101300006481D89063336233662FEDD764C060F098
:1013100065C061F01200000E066E000E056E0350EF
:101320000410D8B41CD0010E076E04D0D890033638
:101330000436072A04AEFAD7D8900536063603508D
:10134000015C04500258D8A005D00350015E04503F
:10135000025A0580D89004320332072EEDD705C01B
:1013600001F006C002F0120081500F0B016E0DD08B
:10137000000E05D0010E03D0020E01D0030E0001B5
:10138000786F11D0000178690ED00150070AD8B4E7
:10139000F5D70C0AD8B4F0D7060AD8B4EBD7030AAD
:1013A000D8B4E6D7EFD700017829D8B4120032506C
:1013B000040DF35078271200000169516A11D8B466
:1013C00018D0010E6B6F04D0D89069376A376B2B39
:1013D0006AAFFAD76951675D6A516859D8A004D0DD
:1013E0006951675F6A51685BD8906A3369336B2FC4
:1013F000F1D767C067F068C068F012000A500B10A0
:10140000D8B418D0010E0C6E04D0D8900A360B3622
:101410000C2A0BAEFAD70A50085C0B500958D8A01A
:1014200004D00A50085E0B50095AD8900B320A3289
:101430000C2EF1D708C008F009C009F01200000115
:10144000666F10D0010E95EC0AF01200000E00013C
:10145000646F010E17EC0BF0120000016651A7EC4F
:101460000AF01200000166510A0AD8B4EFD7060A42
:10147000D8B4E8D7F2D78A6832C019F0EF0E1A6EE6
:10148000192A02D0D8901A36192EFCD71A501B6E82
:101490001BC08AFFB4EC09F0322A3250030B326EC3
:1014A00000017829D8B41200B9EC0AF01200076ED6
:1014B0000ED0010ECAEC0AF01200000E056E010EED
:1014C0003EEC0BF012000750DAEC0AF01200075065
:1014D0000A0AD8B4F2D7060AD8B4EBD7F4D778C042
:1014E0008CFF030E0001646F010E17EC0BF04B0E26
:1014F00000016C6F100E6D6F78C06EF06F6B28EC92
:1015000008F01200000160516111D8B41200040EFD
:101510000001626F3D0EE82EFED7622FFCD700D08F
:1015200000016007D8A06107EED70001636F000ECD
:10153000F9EC0AF000016351EAEC0AF0400EF9EC14
:101540000AF0000EF9EC0AF078EC0BF01200000142
:10155000636F800EF9EC0AF000016351EAEC0AF0C7
:10156000C00EF9EC0AF0000EF9EC0AF078EC0BF082
:10157000120078C08CFF030E056E010E3EEC0BF0DE
:101580004B0E0D6E100E0E6E78C00FF0106AC8EC88
:1015900008F01200046E000E31EC0BF0045024EC45
:1015A0000BF0400E31EC0BF0000E31EC0BF09EEC2A
:1015B0000BF01200046E800E31EC0BF0045024ECA2
:1015C0000BF0C00E31EC0BF0000E31EC0BF09EEC8A
:1015D0000BF012000001616F8994400E49EC0BF092
:1015E000130E49EC0BF00001615149EC0BF08984BA
:1015F00012000001616F8994400E49EC0BF0120E4D
:1016000049EC0BF00001615149EC0BF089841200A8
:1016100001500210D8B41200040E036E3E0EE82EE4
:10162000FED7032EFCD70106D8A00206F1D7000191
:10163000656F00016551D8B402D0400E6427645133
:10164000800995EC0AF01200026E8994400E6FEC4E
:101650000BF0130E6FEC0BF002506FEC0BF0898463
:101660001200026E8994400E6FEC0BF0120E6FECBC
:101670000BF002506FEC0BF089841200066E0650DE
:10168000D8B402D0400E052605508009CAEC0AF0F5
:1016900012000001606F60C0C9FF9EA6FED79E9633
:1016A000C9CF60F01200D08EF194F28AF28EF28CE3
:1016B000000ED56E80EC0BF012000001786B326AE0
:1016C000316A33903392000190EF0BF00F0EC16E30
:1016D0000F0E936E000E956E000E8C6E1200016E52
:1016E00001C0C9FF9EA6FED79E96C9CF01F0120089
:1016F000000E0001616F020E606F82EC0AF01200B2
:10170000F294D59E170ED76EB80ED66ED58E1200F7
:10171000F294D59E170ED76EB80ED66ED58E1200E7
:1017200066EC0BF053EC0BF06FEC0AF0FFD7000106
:10173000676F000167511FEC0AF01200000E026E85
:10174000020E016E08EC0BF01200086E085057EC08
:0A1750000AF012003BEC0AF0120050
:020000040020DA
:08000000FFFFFFFFFFFFFFFF00
:020000040030CA
:0E000000FF021F1EF38381FFFFC0FFE0FF40E1
:00000001FF
