

Microchip Technology PIC18 LITE Macro Assembler V1.45 build -152302408 
                                                                                               Tue Nov 05 14:16:10 2019

Microchip Technology Omniscient Code Generator v1.45 (Free mode) build 201711160504
     1                           	processor	18F8722
     2                           	fnconf	rparam,??,?,0
     3                           	opt	pw 120
     4                           	opt	lm
     5                           	psect	smallconst,global,reloc=2,class=SMALLCONST,delta=1,noexec
     6                           	psect	cinit,global,reloc=2,class=CODE,delta=1
     7                           	psect	bssCOMRAM,global,class=COMRAM,space=1,delta=1,noexec
     8                           	psect	bssBANK0,global,class=BANK0,space=1,delta=1,lowdata,noexec
     9                           	psect	cstackBANK0,global,class=BANK0,space=1,delta=1,noexec
    10                           	psect	cstackCOMRAM,global,class=COMRAM,space=1,delta=1,noexec
    11                           	psect	text0,global,reloc=2,class=CODE,delta=1
    12                           	psect	text1,global,reloc=2,class=CODE,delta=1
    13                           	psect	text2,global,reloc=2,class=CODE,delta=1
    14                           	psect	text3,global,reloc=2,class=CODE,delta=1
    15                           	psect	text4,global,reloc=2,class=CODE,delta=1
    16                           	psect	text5,global,reloc=2,class=CODE,delta=1
    17                           	psect	text6,global,reloc=2,class=CODE,delta=1
    18                           	psect	text7,global,reloc=2,class=CODE,delta=1
    19                           	psect	text8,global,reloc=2,class=CODE,delta=1
    20                           	psect	text9,global,reloc=2,class=CODE,delta=1
    21                           	psect	text10,global,reloc=2,class=CODE,delta=1
    22                           	psect	text11,global,reloc=2,class=CODE,delta=1
    23                           	psect	text12,global,reloc=2,class=CODE,delta=1
    24                           	psect	text13,global,reloc=2,class=CODE,delta=1,group=1
    25                           	psect	text14,global,reloc=2,class=CODE,delta=1,group=1
    26                           	psect	text15,global,reloc=2,class=CODE,delta=1
    27                           	psect	text16,global,reloc=2,class=CODE,delta=1
    28                           	psect	text17,global,reloc=2,class=CODE,delta=1
    29                           	psect	intcodelo,global,reloc=2,class=CODE,delta=1
    30                           	psect	text19,global,reloc=2,class=CODE,delta=1
    31                           	psect	text20,global,reloc=2,class=CODE,delta=1
    32                           	psect	text21,global,reloc=2,class=CODE,delta=1
    33                           	psect	text22,global,reloc=2,class=CODE,delta=1
    34                           	psect	text23,global,reloc=2,class=CODE,delta=1
    35                           	psect	text24,global,reloc=2,class=CODE,delta=1
    36                           	psect	text25,global,reloc=2,class=CODE,delta=1
    37                           	psect	text26,global,reloc=2,class=CODE,delta=1
    38                           	psect	text27,global,reloc=2,class=CODE,delta=1
    39                           	psect	text28,global,reloc=2,class=CODE,delta=1
    40                           	psect	text29,global,reloc=2,class=CODE,delta=1
    41                           	psect	text30,global,reloc=2,class=CODE,delta=1
    42                           	psect	text31,global,reloc=2,class=CODE,delta=1
    43                           	psect	text32,global,reloc=2,class=CODE,delta=1
    44                           	psect	text33,global,reloc=2,class=CODE,delta=1
    45                           	psect	text34,global,reloc=2,class=CODE,delta=1
    46                           	psect	text35,global,reloc=2,class=CODE,delta=1
    47                           	psect	text36,global,reloc=2,class=CODE,delta=1
    48                           	psect	intsave_regs,global,class=BIGRAM,space=1,delta=1,noexec
    49                           	psect	rparam,global,class=COMRAM,space=1,delta=1,noexec
    50                           	psect	temp,global,ovrld,common,class=COMRAM,space=1,delta=1
    51  0000                     
    52                           ; Version 1.45
    53                           ; Generated 16/11/2017 GMT
    54                           ; 
    55                           ; Copyright © 2017, Microchip Technology Inc. and its subsidiaries ("Microchip")
    56                           ; All rights reserved.
    57                           ; 
    58                           ; This software is developed by Microchip Technology Inc. and its subsidiaries ("Microch
      +                          ip").
    59                           ; 
    60                           ; Redistribution and use in source and binary forms, with or without modification, are
    61                           ; permitted provided that the following conditions are met:
    62                           ; 
    63                           ;     1. Redistributions of source code must retain the above copyright notice, this lis
      +                          t of
    64                           ;        conditions and the following disclaimer.
    65                           ; 
    66                           ;     2. Redistributions in binary form must reproduce the above copyright notice, this 
      +                          list
    67                           ;        of conditions and the following disclaimer in the documentation and/or other
    68                           ;        materials provided with the distribution.
    69                           ; 
    70                           ;     3. Microchip's name may not be used to endorse or promote products derived from th
      +                          is
    71                           ;        software without specific prior written permission.
    72                           ; 
    73                           ; THIS SOFTWARE IS PROVIDED BY MICROCHIP "AS IS" AND ANY EXPRESS OR IMPLIED WARRANTIES,
    74                           ; INCLUDING, BUT NOT LIMITED TO, THE IMPLIED WARRANTIES OF MERCHANTABILITY AND FITNESS F
      +                          OR
    75                           ; PURPOSE ARE DISCLAIMED.  IN NO EVENT SHALL MICROCHIP BE LIABLE FOR ANY DIRECT, INDIREC
      +                          T,
    76                           ; INCIDENTAL, SPECIAL, EXEMPLARY, OR CONSEQUENTIAL DAMAGES (INCLUDING BUT NOT LIMITED TO
    77                           ; PROCUREMENT OF SUBSTITUTE GOODS OR SERVICES; LOSS OF USE, DATA OR PROFITS; OR BUSINESS
    78                           ; INTERRUPTION) HOWSOEVER CAUSED AND ON ANY THEORY OF LIABILITY, WHETHER IN CONTRACT, ST
      +                          RICT
    79                           ; LIABILITY, OR TORT (INCLUDING NEGLIGENCE OR OTHERWISE) ARISING IN ANY WAY OUT OF THE U
      +                          SE OF
    80                           ; THIS SOFTWARE, EVEN IF ADVISED OF THE POSSIBILITY OF SUCH DAMAGE.
    81                           ; 
    82                           ; 
    83                           ; Code-generator required, PIC18F8722 Definitions
    84                           ; 
    85                           ; SFR Addresses
    86  0000                     
    87                           	psect	smallconst
    88  001000                     __psmallconst:
    89                           	opt stack 0
    90  001000  00                 	db	0
    91  001001                     _dpowers:
    92                           	opt stack 0
    93  001001  0001               	dw	1
    94  001003  000A               	dw	10
    95  001005  0064               	dw	100
    96  001007  03E8               	dw	1000
    97  001009  2710               	dw	10000
    98  00100B                     __end_of_dpowers:
    99                           	opt stack 0
   100  00100B                     _dhbkstr:
   101                           	opt stack 0
   102  00100B  0F                 	db	15
   103  00100C  0F                 	db	15
   104  00100D  0E                 	db	14
   105  00100E  1F                 	db	31
   106  00100F  0E                 	db	14
   107  001010  0F                 	db	15
   108  001011  0F                 	db	15
   109  001012  00                 	db	0
   110  001013  1E                 	db	30
   111  001014  1F                 	db	31
   112  001015  07                 	db	7
   113  001016  07                 	db	7
   114  001017  07                 	db	7
   115  001018  1F                 	db	31
   116  001019  1E                 	db	30
   117  00101A  00                 	db	0
   118  00101B  1C                 	db	28
   119  00101C  1C                 	db	28
   120  00101D  1C                 	db	28
   121  00101E  1F                 	db	31
   122  00101F  1F                 	db	31
   123  001020  1C                 	db	28
   124  001021  1C                 	db	28
   125  001022  00                 	db	0
   126  001023  07                 	db	7
   127  001024  07                 	db	7
   128  001025  07                 	db	7
   129  001026  1F                 	db	31
   130  001027  1F                 	db	31
   131  001028  07                 	db	7
   132  001029  07                 	db	7
   133  00102A  00                 	db	0
   134  00102B  1F                 	db	31
   135  00102C  1C                 	db	28
   136  00102D  1C                 	db	28
   137  00102E  1F                 	db	31
   138  00102F  1C                 	db	28
   139  001030  1F                 	db	31
   140  001031  1F                 	db	31
   141  001032  00                 	db	0
   142  001033  18                 	db	24
   143  001034  1C                 	db	28
   144  001035  1C                 	db	28
   145  001036  1E                 	db	30
   146  001037  07                 	db	7
   147  001038  1F                 	db	31
   148  001039  1E                 	db	30
   149  00103A  00                 	db	0
   150  00103B  1C                 	db	28
   151  00103C  1D                 	db	29
   152  00103D  1F                 	db	31
   153  00103E  1F                 	db	31
   154  00103F  1E                 	db	30
   155  001040  1C                 	db	28
   156  001041  1C                 	db	28
   157  001042  00                 	db	0
   158  001043  1C                 	db	28
   159  001044  18                 	db	24
   160  001045  10                 	db	16
   161  001046  18                 	db	24
   162  001047  1C                 	db	28
   163  001048  0E                 	db	14
   164  001049  07                 	db	7
   165  00104A  00                 	db	0
   166  00104B                     __end_of_dhbkstr:
   167                           	opt stack 0
   168  0000                     _TMR0	set	4054
   169  0000                     _SSP1BUF	set	4041
   170  0000                     _SSP1CON1	set	4038
   171  0000                     _ADCON1	set	4033
   172  0000                     _T0CON	set	4053
   173  0000                     _INTCONbits	set	4082
   174  0000                     _INTCON2bits	set	4081
   175  0000                     _RCONbits	set	4048
   176  0000                     _LATF6	set	31862
   177  0000                     _TRISF6	set	31934
   178  0000                     _TRISA2	set	31890
   179  0000                     _LATA2	set	31818
   180  0000                     _SSP1IF	set	31987
   181  0000                     _CKE1	set	32318
   182  0000                     _TRISC3	set	31907
   183  0000                     _TRISC5	set	31909
   184  0000                     _TMR0IE	set	32661
   185  0000                     _TMR0ON	set	32431
   186  0000                     _TMR0IF	set	32658
   187  00104B                     STR_1:
   188                           
   189                           ; BSR set to: 0
   190  00104B  25                 	db	37
   191  00104C  64                 	db	100	;'d'
   192  00104D  00                 	db	0
   193                           
   194                           ; #config settings
   195  00104E  00                 	db	0	; dummy byte at the end
   196  0000                     
   197                           	psect	cinit
   198  0016BA                     __pcinit:
   199                           	opt stack 0
   200  0016BA                     start_initialization:
   201                           	opt stack 0
   202  0016BA                     __initialization:
   203                           	opt stack 0
   204                           
   205                           ; Clear objects allocated to BANK0 (1 bytes)
   206  0016BA  0100               	movlb	0
   207  0016BC  6B78               	clrf	__pbssBANK0& (0+255),b
   208                           
   209                           ; Clear objects allocated to COMRAM (2 bytes)
   210  0016BE  6A32               	clrf	(__pbssCOMRAM+1)& (0+255),c
   211  0016C0  6A31               	clrf	__pbssCOMRAM& (0+255),c
   212  0016C2                     end_of_initialization:
   213                           	opt stack 0
   214  0016C2                     __end_of__initialization:
   215                           	opt stack 0
   216  0016C2  9033               	bcf	int$flags,0,c	;clear compiler interrupt flag (level 1)
   217  0016C4  9233               	bcf	int$flags,1,c	;clear compiler interrupt flag (level 2)
   218  0016C6  0100               	movlb	0
   219  0016C8  EF90  F00B         	goto	_main	;jump to C main() function
   220                           
   221                           	psect	bssCOMRAM
   222  000031                     __pbssCOMRAM:
   223                           	opt stack 0
   224  000031                     _dl_quet:
   225                           	opt stack 0
   226  000031                     	ds	1
   227  000032                     _idx:
   228                           	opt stack 0
   229  000032                     	ds	1
   230                           
   231                           	psect	bssBANK0
   232  000078                     __pbssBANK0:
   233                           	opt stack 0
   234  000078                     _keyreg:
   235                           	opt stack 0
   236  000078                     	ds	1
   237                           
   238                           	psect	cstackBANK0
   239  000060                     __pcstackBANK0:
   240                           	opt stack 0
   241  000060                     ?___lwdiv:
   242                           	opt stack 0
   243  000060                     SPI_send@c:
   244                           	opt stack 0
   245  000060                     tre_ms@ms:
   246                           	opt stack 0
   247  000060                     ___lwdiv@dividend:
   248                           	opt stack 0
   249                           
   250                           ; 2 bytes @ 0x0
   251  000060                     	ds	1
   252  000061                     Write_PortB@d:
   253                           	opt stack 0
   254  000061                     Write_PortA@mask:
   255                           	opt stack 0
   256                           
   257                           ; 1 bytes @ 0x1
   258  000061                     	ds	1
   259  000062                     ??_tre_ms:
   260  000062                     ___lwdiv@divisor:
   261                           	opt stack 0
   262                           
   263                           ; 2 bytes @ 0x2
   264  000062                     	ds	1
   265  000063                     i_write@d:
   266                           	opt stack 0
   267  000063                     d_write@d:
   268                           	opt stack 0
   269                           
   270                           ; 1 bytes @ 0x3
   271  000063                     	ds	1
   272  000064                     lcd_gotoxy@col:
   273                           	opt stack 0
   274  000064                     ___lwdiv@quotient:
   275                           	opt stack 0
   276                           
   277                           ; 2 bytes @ 0x4
   278  000064                     	ds	1
   279  000065                     lcd_gotoxy@row:
   280                           	opt stack 0
   281                           
   282                           ; 1 bytes @ 0x5
   283  000065                     	ds	1
   284  000066                     lcd_putc@c:
   285                           	opt stack 0
   286  000066                     ___lwdiv@counter:
   287                           	opt stack 0
   288                           
   289                           ; 1 bytes @ 0x6
   290  000066                     	ds	1
   291  000067                     ?___lwmod:
   292                           	opt stack 0
   293  000067                     putch@c:
   294                           	opt stack 0
   295  000067                     ___lwmod@dividend:
   296                           	opt stack 0
   297                           
   298                           ; 2 bytes @ 0x7
   299  000067                     	ds	2
   300  000069                     ___lwmod@divisor:
   301                           	opt stack 0
   302                           
   303                           ; 2 bytes @ 0x9
   304  000069                     	ds	2
   305  00006B                     ___lwmod@counter:
   306                           	opt stack 0
   307                           
   308                           ; 1 bytes @ 0xB
   309  00006B                     	ds	1
   310  00006C                     ?_printf:
   311                           	opt stack 0
   312  00006C                     printf@f:
   313                           	opt stack 0
   314                           
   315                           ; 2 bytes @ 0xC
   316  00006C                     	ds	4
   317  000070                     ??_printf:
   318                           
   319                           ; 1 bytes @ 0x10
   320  000070                     	ds	1
   321  000071                     printf@ap:
   322                           	opt stack 0
   323                           
   324                           ; 2 bytes @ 0x11
   325  000071                     	ds	2
   326  000073                     printf@flag:
   327                           	opt stack 0
   328                           
   329                           ; 1 bytes @ 0x13
   330  000073                     	ds	1
   331  000074                     printf@prec:
   332                           	opt stack 0
   333                           
   334                           ; 1 bytes @ 0x14
   335  000074                     	ds	1
   336  000075                     printf@val:
   337                           	opt stack 0
   338                           
   339                           ; 2 bytes @ 0x15
   340  000075                     	ds	2
   341  000077                     printf@c:
   342                           	opt stack 0
   343                           
   344                           ; 1 bytes @ 0x17
   345  000077                     	ds	1
   346  000078                     
   347                           ; 1 bytes @ 0x18
   348                           
   349                           	psect	cstackCOMRAM
   350  000001                     __pcstackCOMRAM:
   351                           	opt stack 0
   352  000001                     ?i1___lwdiv:
   353                           	opt stack 0
   354  000001                     getkey@col:
   355                           	opt stack 0
   356  000001                     i1SPI_send@c:
   357                           	opt stack 0
   358  000001                     i1tre_ms@ms:
   359                           	opt stack 0
   360  000001                     i1___lwdiv@dividend:
   361                           	opt stack 0
   362                           
   363                           ; 2 bytes @ 0x0
   364  000001                     	ds	1
   365  000002                     i1Write_PortB@d:
   366                           	opt stack 0
   367  000002                     i1Write_PortA@mask:
   368                           	opt stack 0
   369                           
   370                           ; 1 bytes @ 0x1
   371  000002                     	ds	1
   372  000003                     ??i1_tre_ms:
   373  000003                     i1___lwdiv@divisor:
   374                           	opt stack 0
   375                           
   376                           ; 2 bytes @ 0x2
   377  000003                     	ds	1
   378  000004                     i1i_write@d:
   379                           	opt stack 0
   380  000004                     i1d_write@d:
   381                           	opt stack 0
   382                           
   383                           ; 1 bytes @ 0x3
   384  000004                     	ds	1
   385  000005                     i1lcd_gotoxy@col:
   386                           	opt stack 0
   387  000005                     i1___lwdiv@quotient:
   388                           	opt stack 0
   389                           
   390                           ; 2 bytes @ 0x4
   391  000005                     	ds	1
   392  000006                     i1lcd_gotoxy@row:
   393                           	opt stack 0
   394                           
   395                           ; 1 bytes @ 0x5
   396  000006                     	ds	1
   397  000007                     i1lcd_putc@c:
   398                           	opt stack 0
   399  000007                     i1___lwdiv@counter:
   400                           	opt stack 0
   401                           
   402                           ; 1 bytes @ 0x6
   403  000007                     	ds	1
   404  000008                     ?i1___lwmod:
   405                           	opt stack 0
   406  000008                     i1putch@c:
   407                           	opt stack 0
   408  000008                     i1___lwmod@dividend:
   409                           	opt stack 0
   410                           
   411                           ; 2 bytes @ 0x7
   412  000008                     	ds	2
   413  00000A                     i1___lwmod@divisor:
   414                           	opt stack 0
   415                           
   416                           ; 2 bytes @ 0x9
   417  00000A                     	ds	2
   418  00000C                     i1___lwmod@counter:
   419                           	opt stack 0
   420                           
   421                           ; 1 bytes @ 0xB
   422  00000C                     	ds	1
   423  00000D                     ?i1_printf:
   424                           	opt stack 0
   425  00000D                     i1printf@f:
   426                           	opt stack 0
   427                           
   428                           ; 2 bytes @ 0xC
   429  00000D                     	ds	4
   430  000011                     ??i1_printf:
   431                           
   432                           ; 1 bytes @ 0x10
   433  000011                     	ds	1
   434  000012                     i1printf@ap:
   435                           	opt stack 0
   436                           
   437                           ; 2 bytes @ 0x11
   438  000012                     	ds	2
   439  000014                     i1printf@flag:
   440                           	opt stack 0
   441                           
   442                           ; 1 bytes @ 0x13
   443  000014                     	ds	1
   444  000015                     i1printf@prec:
   445                           	opt stack 0
   446                           
   447                           ; 1 bytes @ 0x14
   448  000015                     	ds	1
   449  000016                     i1printf@val:
   450                           	opt stack 0
   451                           
   452                           ; 2 bytes @ 0x15
   453  000016                     	ds	2
   454  000018                     i1printf@c:
   455                           	opt stack 0
   456                           
   457                           ; 1 bytes @ 0x17
   458  000018                     	ds	1
   459  000019                     ??_quetphim:
   460  000019                     
   461                           ; 1 bytes @ 0x18
   462  000019                     	ds	2
   463  00001B                     quetphim@dl_quet:
   464                           	opt stack 0
   465                           
   466                           ; 1 bytes @ 0x1A
   467  00001B                     	ds	1
   468  00001C                     ??_timer0_isr:
   469                           
   470                           ; 1 bytes @ 0x1B
   471  00001C                     	ds	21
   472                           
   473 ;;
   474 ;;Main: autosize = 0, tempsize = 0, incstack = 0, save=0
   475 ;;
   476 ;; *************** function _main *****************
   477 ;; Defined at:
   478 ;;		line 76 in file "Tn06_LCD.c"
   479 ;; Parameters:    Size  Location     Type
   480 ;;		None
   481 ;; Auto vars:     Size  Location     Type
   482 ;;		None
   483 ;; Return value:  Size  Location     Type
   484 ;;                  1    wreg      void 
   485 ;; Registers used:
   486 ;;		wreg, fsr2l, fsr2h, status,2, status,0, tblptrl, tblptrh, tblptru, prodl, prodh, cstack
   487 ;; Tracked objects:
   488 ;;		On entry : 0/0
   489 ;;		On exit  : 0/0
   490 ;;		Unchanged: 0/0
   491 ;; Data sizes:     COMRAM   BANK0   BANK1   BANK2   BANK3   BANK4   BANK5   BANK6   BANK7   BANK8   BANK9  BANK10  BANK1
      +1  BANK12  BANK13  BANK14  BANK15
   492 ;;      Params:         0       0       0       0       0       0       0       0       0       0       0       0       
      +0       0       0       0       0
   493 ;;      Locals:         0       0       0       0       0       0       0       0       0       0       0       0       
      +0       0       0       0       0
   494 ;;      Temps:          0       0       0       0       0       0       0       0       0       0       0       0       
      +0       0       0       0       0
   495 ;;      Totals:         0       0       0       0       0       0       0       0       0       0       0       0       
      +0       0       0       0       0
   496 ;;Total ram usage:        0 bytes
   497 ;; Hardware stack levels required when called:   19
   498 ;; This function calls:
   499 ;;		_init
   500 ;;		_timer0_init
   501 ;;		_xulyphim
   502 ;; This function is called by:
   503 ;;		Startup code after reset
   504 ;; This function uses a non-reentrant model
   505 ;;
   506                           
   507                           	psect	text0
   508  001720                     __ptext0:
   509                           	opt stack 0
   510  001720                     _main:
   511                           	opt stack 12
   512                           
   513                           ;Tn06_LCD.c: 78: init();
   514                           
   515                           ;incstack = 0
   516  001720  EC66  F00B         	call	_init	;wreg free
   517                           
   518                           ;Tn06_LCD.c: 79: timer0_init();
   519  001724  EC53  F00B         	call	_timer0_init	;wreg free
   520                           
   521                           ;Tn06_LCD.c: 80: xulyphim();
   522  001728  EC6F  F00A         	call	_xulyphim	;wreg free
   523  00172C                     l85:
   524  00172C  D7FF               	goto	l85
   525  00172E                     __end_of_main:
   526                           	opt stack 0
   527                           
   528 ;; *************** function _xulyphim *****************
   529 ;; Defined at:
   530 ;;		line 39 in file "Tn06_LCD.c"
   531 ;; Parameters:    Size  Location     Type
   532 ;;		None
   533 ;; Auto vars:     Size  Location     Type
   534 ;;		None
   535 ;; Return value:  Size  Location     Type
   536 ;;                  1    wreg      void 
   537 ;; Registers used:
   538 ;;		wreg, fsr2l, fsr2h, status,2, status,0, tblptrl, tblptrh, tblptru, prodl, prodh, cstack
   539 ;; Tracked objects:
   540 ;;		On entry : 0/0
   541 ;;		On exit  : 0/0
   542 ;;		Unchanged: 0/0
   543 ;; Data sizes:     COMRAM   BANK0   BANK1   BANK2   BANK3   BANK4   BANK5   BANK6   BANK7   BANK8   BANK9  BANK10  BANK1
      +1  BANK12  BANK13  BANK14  BANK15
   544 ;;      Params:         0       0       0       0       0       0       0       0       0       0       0       0       
      +0       0       0       0       0
   545 ;;      Locals:         0       0       0       0       0       0       0       0       0       0       0       0       
      +0       0       0       0       0
   546 ;;      Temps:          0       0       0       0       0       0       0       0       0       0       0       0       
      +0       0       0       0       0
   547 ;;      Totals:         0       0       0       0       0       0       0       0       0       0       0       0       
      +0       0       0       0       0
   548 ;;Total ram usage:        0 bytes
   549 ;; Hardware stack levels used:    1
   550 ;; Hardware stack levels required when called:   18
   551 ;; This function calls:
   552 ;;		_lcd_gotoxy
   553 ;;		_printf
   554 ;; This function is called by:
   555 ;;		_main
   556 ;; This function uses a non-reentrant model
   557 ;;
   558                           
   559                           	psect	text1
   560  0014DE                     __ptext1:
   561                           	opt stack 0
   562  0014DE                     _xulyphim:
   563                           	opt stack 12
   564                           
   565                           ;Tn06_LCD.c: 41: led = keyreg;
   566                           
   567                           ;incstack = 0
   568  0014DE  C078  FF8C         	movff	_keyreg,3980	;volatile
   569                           
   570                           ;Tn06_LCD.c: 42: lcd_gotoxy(1,3);
   571  0014E2  0E03               	movlw	3
   572  0014E4  0100               	movlb	0	; () banked
   573  0014E6  6F64               	movwf	lcd_gotoxy@col& (0+255),b
   574  0014E8  0E01               	movlw	1
   575  0014EA  EC17  F00B         	call	_lcd_gotoxy
   576                           
   577                           ;Tn06_LCD.c: 43: printf("%d",keyreg);
   578  0014EE  0E4B               	movlw	low STR_1
   579  0014F0  0100               	movlb	0	; () banked
   580  0014F2  6F6C               	movwf	printf@f& (0+255),b
   581  0014F4  0E10               	movlw	high STR_1
   582  0014F6  6F6D               	movwf	(printf@f+1)& (0+255),b
   583  0014F8  C078  F06E         	movff	_keyreg,?_printf+2	;volatile
   584  0014FC  6B6F               	clrf	(?_printf+3)& (0+255),b
   585  0014FE  EC28  F008         	call	_printf	;wreg free
   586  001502  0012               	return		;funcret
   587  001504                     __end_of_xulyphim:
   588                           	opt stack 0
   589                           
   590 ;; *************** function _printf *****************
   591 ;; Defined at:
   592 ;;		line 464 in file "E:\MPLABX\sources\common\doprnt.c"
   593 ;; Parameters:    Size  Location     Type
   594 ;;  f               2   12[BANK0 ] PTR const unsigned char 
   595 ;;		 -> STR_1(3), 
   596 ;; Auto vars:     Size  Location     Type
   597 ;;  tmpval          4    0        struct .
   598 ;;  cp              3    0        PTR const unsigned char 
   599 ;;  val             2   21[BANK0 ] unsigned int 
   600 ;;  ap              2   17[BANK0 ] PTR void [1]
   601 ;;		 -> ?i1_printf(2), ?_printf(2), 
   602 ;;  len             2    0        unsigned int 
   603 ;;  c               1   23[BANK0 ] char 
   604 ;;  prec            1   20[BANK0 ] char 
   605 ;;  flag            1   19[BANK0 ] unsigned char 
   606 ;; Return value:  Size  Location     Type
   607 ;;                  2   12[BANK0 ] int 
   608 ;; Registers used:
   609 ;;		wreg, fsr2l, fsr2h, status,2, status,0, tblptrl, tblptrh, tblptru, prodl, prodh, cstack
   610 ;; Tracked objects:
   611 ;;		On entry : 0/0
   612 ;;		On exit  : 0/0
   613 ;;		Unchanged: 0/0
   614 ;; Data sizes:     COMRAM   BANK0   BANK1   BANK2   BANK3   BANK4   BANK5   BANK6   BANK7   BANK8   BANK9  BANK10  BANK1
      +1  BANK12  BANK13  BANK14  BANK15
   615 ;;      Params:         0       4       0       0       0       0       0       0       0       0       0       0       
      +0       0       0       0       0
   616 ;;      Locals:         0       7       0       0       0       0       0       0       0       0       0       0       
      +0       0       0       0       0
   617 ;;      Temps:          0       1       0       0       0       0       0       0       0       0       0       0       
      +0       0       0       0       0
   618 ;;      Totals:         0      12       0       0       0       0       0       0       0       0       0       0       
      +0       0       0       0       0
   619 ;;Total ram usage:       12 bytes
   620 ;; Hardware stack levels used:    1
   621 ;; Hardware stack levels required when called:   17
   622 ;; This function calls:
   623 ;;		___lwdiv
   624 ;;		___lwmod
   625 ;;		_putch
   626 ;; This function is called by:
   627 ;;		_xulyphim
   628 ;; This function uses a non-reentrant model
   629 ;;
   630                           
   631                           	psect	text2
   632  001050                     __ptext2:
   633                           	opt stack 0
   634  001050                     _printf:
   635                           	opt stack 12
   636                           
   637                           ;doprnt.c: 466: va_list ap;
   638                           ;doprnt.c: 499: signed char c;
   639                           ;doprnt.c: 506: signed char prec;
   640                           ;doprnt.c: 508: unsigned char flag;
   641                           ;doprnt.c: 523: union {
   642                           ;doprnt.c: 524: unsigned long vd;
   643                           ;doprnt.c: 525: double integ;
   644                           ;doprnt.c: 526: } tmpval;
   645                           ;doprnt.c: 528: unsigned int val;
   646                           ;doprnt.c: 529: unsigned len;
   647                           ;doprnt.c: 530: const char * cp;
   648                           ;doprnt.c: 533: *ap = __va_start();
   649                           
   650                           ;incstack = 0
   651  001050  0E6E               	movlw	low (?_printf+2)
   652  001052  0100               	movlb	0	; () banked
   653  001054  6F71               	movwf	printf@ap& (0+255),b
   654  001056  0E00               	movlw	high (?_printf+2)
   655  001058  6F72               	movwf	(printf@ap+1)& (0+255),b
   656                           
   657                           ;doprnt.c: 536: while(c = *f++) {
   658  00105A  D08A               	goto	u840
   659  00105C                     
   660                           ; BSR set to: 0
   661                           ;doprnt.c: 538: if(c != '%')
   662                           
   663                           ; BSR set to: 0
   664  00105C  0E25               	movlw	37
   665  00105E  1977               	xorwf	printf@c& (0+255),w,b
   666  001060  B4D8               	btfsc	status,2,c
   667  001062  D004               	goto	l209
   668                           
   669                           ; BSR set to: 0
   670                           ;doprnt.c: 540: {
   671                           ;doprnt.c: 541: (putch(c) );
   672  001064  5177               	movf	printf@c& (0+255),w,b
   673  001066  EC97  F00B         	call	_putch
   674                           
   675                           ;doprnt.c: 542: continue;
   676  00106A  D082               	goto	u840
   677  00106C                     l209:
   678                           
   679                           ;doprnt.c: 543: }
   680                           ;doprnt.c: 548: flag = 0;
   681  00106C  0E00               	movlw	0
   682  00106E  0100               	movlb	0	; () banked
   683  001070  6F73               	movwf	printf@flag& (0+255),b
   684                           
   685                           ; BSR set to: 0
   686                           
   687                           ; BSR set to: 0
   688                           
   689                           ; BSR set to: 0
   690                           ;doprnt.c: 822: }
   691                           
   692                           ; BSR set to: 0
   693                           ;doprnt.c: 813: continue;
   694                           
   695                           ;doprnt.c: 802: default:
   696                           
   697                           ; BSR set to: 0
   698                           ;doprnt.c: 698: case 'i':
   699                           ;doprnt.c: 699: break;
   700                           
   701                           ; BSR set to: 0
   702                           
   703                           ;doprnt.c: 697: case 'd':
   704                           
   705                           ; BSR set to: 0
   706                           ;doprnt.c: 638: goto alldone;
   707                           
   708                           ;doprnt.c: 637: case 0:
   709                           
   710                           ;doprnt.c: 635: switch(c = *f++) {
   711  001072  C06C  FFF6         	movff	printf@f,tblptrl
   712  001076  C06D  FFF7         	movff	printf@f+1,tblptrh
   713  00107A  4B6C               	infsnz	printf@f& (0+255),f,b
   714  00107C  2B6D               	incf	(printf@f+1)& (0+255),f,b
   715  00107E                     	if	0	;tblptru may be non-zero
   716  00107E                     	endif
   717  00107E                     	if	1	;Program memory is > 0xFFFF, there are 3 active tblptr bytes
   718  00107E  0E00               	movlw	low (__mediumconst shr (0+16))
   719  001080  6EF8               	movwf	tblptru,c
   720  001082                     	endif
   721  001082  0008               	tblrd		*
   722  001084  CFF5 F077          	movff	tablat,printf@c
   723  001088  5177               	movf	printf@c& (0+255),w,b
   724                           
   725                           ; Switch size 1, requested type "space"
   726                           ; Number of cases is 3, Range of values is 0 to 105
   727                           ; switch strategies available:
   728                           ; Name         Instructions Cycles
   729                           ; simple_byte           10     6 (average)
   730                           ;	Chosen strategy is simple_byte
   731  00108A  0A00               	xorlw	0	; case 0
   732  00108C  B4D8               	btfsc	status,2,c
   733  00108E  0012               	return	
   734  001090  0A64               	xorlw	100	; case 100
   735  001092  B4D8               	btfsc	status,2,c
   736  001094  D003               	goto	l215
   737  001096  0A0D               	xorlw	13	; case 105
   738  001098  A4D8               	btfss	status,2,c
   739  00109A  D06A               	goto	u840
   740  00109C                     l215:
   741                           
   742                           ; BSR set to: 0
   743                           ;doprnt.c: 1253: {
   744                           ;doprnt.c: 1259: val = (int)(*(int *)__va_arg((*(int **)ap), (int)0));
   745                           
   746                           ; BSR set to: 0
   747  00109C  C071  FFD9         	movff	printf@ap,fsr2l
   748  0010A0  C072  FFDA         	movff	printf@ap+1,fsr2h
   749  0010A4  CFDE F075          	movff	postinc2,printf@val
   750  0010A8  CFDD F076          	movff	postdec2,printf@val+1
   751                           
   752                           ; BSR set to: 0
   753  0010AC  0E02               	movlw	2
   754  0010AE  2771               	addwf	printf@ap& (0+255),f,b
   755  0010B0  0E00               	movlw	0
   756  0010B2  2372               	addwfc	(printf@ap+1)& (0+255),f,b
   757                           
   758                           ; BSR set to: 0
   759                           ;doprnt.c: 1261: if((int)val < 0) {
   760  0010B4  AF76               	btfss	(printf@val+1)& (0+255),7,b
   761  0010B6  D006               	goto	l217
   762                           
   763                           ; BSR set to: 0
   764                           ;doprnt.c: 1262: flag |= 0x03;
   765  0010B8  0E03               	movlw	3
   766  0010BA  1373               	iorwf	printf@flag& (0+255),f,b
   767                           
   768                           ; BSR set to: 0
   769                           ;doprnt.c: 1263: val = -val;
   770  0010BC  6D75               	negf	printf@val& (0+255),b
   771  0010BE  1F76               	comf	(printf@val+1)& (0+255),f,b
   772  0010C0  B0D8               	btfsc	status,0,c
   773  0010C2  2B76               	incf	(printf@val+1)& (0+255),f,b
   774  0010C4                     l217:
   775                           
   776                           ; BSR set to: 0
   777                           ;doprnt.c: 1264: }
   778                           ;doprnt.c: 1266: }
   779                           ;doprnt.c: 1305: for(c = 1 ; c != sizeof dpowers/sizeof dpowers[0] ; c++)
   780                           
   781                           ; BSR set to: 0
   782  0010C4  0E01               	movlw	1
   783  0010C6  6F77               	movwf	printf@c& (0+255),b
   784  0010C8                     l1598:
   785                           
   786                           ; BSR set to: 0
   787  0010C8  0E05               	movlw	5
   788  0010CA  1977               	xorwf	printf@c& (0+255),w,b
   789  0010CC  B4D8               	btfsc	status,2,c
   790  0010CE  D015               	goto	u820
   791                           
   792                           ; BSR set to: 0
   793                           ;doprnt.c: 1306: if(val < dpowers[c])
   794                           
   795                           ; BSR set to: 0
   796                           
   797                           ; BSR set to: 0
   798  0010D0  5177               	movf	printf@c& (0+255),w,b
   799  0010D2  0D02               	mullw	2
   800  0010D4  0E01               	movlw	low _dpowers
   801  0010D6  24F3               	addwf	prodl,w,c
   802  0010D8  6EF6               	movwf	tblptrl,c
   803  0010DA  0E10               	movlw	high _dpowers
   804  0010DC  20F4               	addwfc	prodh,w,c
   805  0010DE  6EF7               	movwf	tblptrh,c
   806  0010E0                     	if	1	;There are 3 active tblptr bytes
   807  0010E0  6AF8               	clrf	tblptru,c
   808  0010E2  0E00               	movlw	low (__mediumconst shr (0+16))
   809  0010E4  22F8               	addwfc	tblptru,f,c
   810  0010E6                     	endif
   811  0010E6  0009               	tblrd		*+
   812  0010E8  50F5               	movf	tablat,w,c
   813  0010EA  5D75               	subwf	printf@val& (0+255),w,b
   814  0010EC  0009               	tblrd		*+
   815  0010EE  50F5               	movf	tablat,w,c
   816  0010F0  5976               	subwfb	(printf@val+1)& (0+255),w,b
   817  0010F2  A0D8               	btfss	status,0,c
   818  0010F4  D002               	goto	u820
   819                           
   820                           ; BSR set to: 0
   821                           
   822                           ; BSR set to: 0
   823                           
   824                           ; BSR set to: 0
   825                           ;doprnt.c: 1307: break;
   826  0010F6  2B77               	incf	printf@c& (0+255),f,b
   827  0010F8  D7E7               	goto	l1598
   828  0010FA                     u820:
   829                           
   830                           ; BSR set to: 0
   831                           ;doprnt.c: 1422: {
   832                           ;doprnt.c: 1438: if(flag & 0x03)
   833                           
   834                           ; BSR set to: 0
   835  0010FA  C073  F070         	movff	printf@flag,??_printf
   836  0010FE  0E03               	movlw	3
   837  001100  1770               	andwf	??_printf& (0+255),f,b
   838  001102  B4D8               	btfsc	status,2,c
   839  001104  D003               	goto	l221
   840                           
   841                           ; BSR set to: 0
   842                           ;doprnt.c: 1439: (putch('-') );
   843  001106  0E2D               	movlw	45
   844  001108  EC97  F00B         	call	_putch
   845  00110C                     l221:
   846                           
   847                           ;doprnt.c: 1469: }
   848                           ;doprnt.c: 1472: prec = c;
   849  00110C  C077  F074         	movff	printf@c,printf@prec
   850                           
   851                           ;doprnt.c: 1474: while(prec--) {
   852  001110  D02A               	goto	l222
   853  001112                     
   854                           ;doprnt.c: 1478: {
   855                           ;doprnt.c: 1489: c = (val / dpowers[prec]) % 10 + '0';
   856  001112  0100               	movlb	0	; () banked
   857  001114  5174               	movf	printf@prec& (0+255),w,b
   858  001116  0D02               	mullw	2
   859  001118  0E01               	movlw	low _dpowers
   860  00111A  24F3               	addwf	prodl,w,c
   861  00111C  6EF6               	movwf	tblptrl,c
   862  00111E  0E10               	movlw	high _dpowers
   863  001120  20F4               	addwfc	prodh,w,c
   864  001122  6EF7               	movwf	tblptrh,c
   865  001124                     	if	1	;There are 3 active tblptr bytes
   866  001124  6AF8               	clrf	tblptru,c
   867  001126  0E00               	movlw	low (__mediumconst shr (0+16))
   868  001128  22F8               	addwfc	tblptru,f,c
   869  00112A                     	endif
   870  00112A  0009               	tblrd		*+
   871  00112C  CFF5 F062          	movff	tablat,___lwdiv@divisor
   872  001130  000A               	tblrd		*-
   873  001132  CFF5 F063          	movff	tablat,___lwdiv@divisor+1
   874  001136  C075  F060         	movff	printf@val,___lwdiv@dividend
   875  00113A  C076  F061         	movff	printf@val+1,___lwdiv@dividend+1
   876  00113E  EC61  F009         	call	___lwdiv	;wreg free
   877  001142  C060  F067         	movff	?___lwdiv,___lwmod@dividend
   878  001146  C061  F068         	movff	?___lwdiv+1,___lwmod@dividend+1
   879  00114A  0E00               	movlw	0
   880  00114C  0100               	movlb	0	; () banked
   881  00114E  6F6A               	movwf	(___lwmod@divisor+1)& (0+255),b
   882  001150  0E0A               	movlw	10
   883  001152  6F69               	movwf	___lwmod@divisor& (0+255),b
   884  001154  ECDC  F009         	call	___lwmod	;wreg free
   885  001158  0100               	movlb	0	; () banked
   886  00115A  5167               	movf	?___lwmod& (0+255),w,b
   887  00115C  0F30               	addlw	48
   888  00115E  6F77               	movwf	printf@c& (0+255),b
   889                           
   890                           ; BSR set to: 0
   891                           ;doprnt.c: 1523: }
   892                           ;doprnt.c: 1524: (putch(c) );
   893  001160  5177               	movf	printf@c& (0+255),w,b
   894  001162  EC97  F00B         	call	_putch
   895  001166                     l222:
   896  001166  0100               	movlb	0	; () banked
   897  001168  0774               	decf	printf@prec& (0+255),f,b
   898  00116A  2974               	incf	printf@prec& (0+255),w,b
   899  00116C  A4D8               	btfss	status,2,c
   900  00116E  D7D1               	goto	l223
   901  001170                     u840:
   902                           
   903                           ; BSR set to: 0
   904                           
   905                           ; BSR set to: 0
   906  001170  C06C  FFF6         	movff	printf@f,tblptrl
   907  001174  C06D  FFF7         	movff	printf@f+1,tblptrh
   908  001178  0100               	movlb	0	; () banked
   909  00117A  4B6C               	infsnz	printf@f& (0+255),f,b
   910  00117C  2B6D               	incf	(printf@f+1)& (0+255),f,b
   911  00117E                     	if	0	;tblptru may be non-zero
   912  00117E                     	endif
   913  00117E                     	if	1	;Program memory is > 0xFFFF, there are 3 active tblptr bytes
   914  00117E  0E00               	movlw	low (__mediumconst shr (0+16))
   915  001180  6EF8               	movwf	tblptru,c
   916  001182                     	endif
   917  001182  0008               	tblrd		*
   918  001184  CFF5 F077          	movff	tablat,printf@c
   919  001188  5177               	movf	printf@c& (0+255),w,b
   920  00118A  B4D8               	btfsc	status,2,c
   921  00118C  0012               	return	
   922  00118E  D766               	goto	l208
   923  001190                     __end_of_printf:
   924                           	opt stack 0
   925                           tblptru	equ	0xFF8
   926                           tblptrh	equ	0xFF7
   927                           tblptrl	equ	0xFF6
   928                           tablat	equ	0xFF5
   929                           prodh	equ	0xFF4
   930                           prodl	equ	0xFF3
   931                           postinc2	equ	0xFDE
   932                           postdec2	equ	0xFDD
   933                           fsr2h	equ	0xFDA
   934                           fsr2l	equ	0xFD9
   935                           status	equ	0xFD8
   936                           
   937 ;; *************** function _putch *****************
   938 ;; Defined at:
   939 ;;		line 128 in file "LCD.c"
   940 ;; Parameters:    Size  Location     Type
   941 ;;  c               1    wreg     unsigned char 
   942 ;; Auto vars:     Size  Location     Type
   943 ;;  c               1    7[BANK0 ] unsigned char 
   944 ;; Return value:  Size  Location     Type
   945 ;;                  1    wreg      void 
   946 ;; Registers used:
   947 ;;		wreg, status,2, status,0, cstack
   948 ;; Tracked objects:
   949 ;;		On entry : 0/0
   950 ;;		On exit  : 0/0
   951 ;;		Unchanged: 0/0
   952 ;; Data sizes:     COMRAM   BANK0   BANK1   BANK2   BANK3   BANK4   BANK5   BANK6   BANK7   BANK8   BANK9  BANK10  BANK1
      +1  BANK12  BANK13  BANK14  BANK15
   953 ;;      Params:         0       0       0       0       0       0       0       0       0       0       0       0       
      +0       0       0       0       0
   954 ;;      Locals:         0       1       0       0       0       0       0       0       0       0       0       0       
      +0       0       0       0       0
   955 ;;      Temps:          0       0       0       0       0       0       0       0       0       0       0       0       
      +0       0       0       0       0
   956 ;;      Totals:         0       1       0       0       0       0       0       0       0       0       0       0       
      +0       0       0       0       0
   957 ;;Total ram usage:        1 bytes
   958 ;; Hardware stack levels used:    1
   959 ;; Hardware stack levels required when called:   16
   960 ;; This function calls:
   961 ;;		_lcd_putc
   962 ;; This function is called by:
   963 ;;		_printf
   964 ;;		_lcd_DHBK
   965 ;; This function uses a non-reentrant model
   966 ;;
   967                           
   968                           	psect	text3
   969  00172E                     __ptext3:
   970                           	opt stack 0
   971  00172E                     _putch:
   972                           	opt stack 12
   973                           
   974                           ; BSR set to: 0
   975                           ;incstack = 0
   976                           ;putch@c stored from wreg
   977  00172E  0100               	movlb	0	; () banked
   978  001730  6F67               	movwf	putch@c& (0+255),b
   979  001732  0100               	movlb	0	; () banked
   980  001734  5167               	movf	putch@c& (0+255),w,b
   981  001736  EC1F  F00A         	call	_lcd_putc
   982  00173A  0012               	return		;funcret
   983  00173C                     __end_of_putch:
   984                           	opt stack 0
   985                           tblptru	equ	0xFF8
   986                           tblptrh	equ	0xFF7
   987                           tblptrl	equ	0xFF6
   988                           tablat	equ	0xFF5
   989                           prodh	equ	0xFF4
   990                           prodl	equ	0xFF3
   991                           postinc2	equ	0xFDE
   992                           postdec2	equ	0xFDD
   993                           fsr2h	equ	0xFDA
   994                           fsr2l	equ	0xFD9
   995                           status	equ	0xFD8
   996                           
   997 ;; *************** function _lcd_putc *****************
   998 ;; Defined at:
   999 ;;		line 116 in file "LCD.c"
  1000 ;; Parameters:    Size  Location     Type
  1001 ;;  c               1    wreg     unsigned char 
  1002 ;; Auto vars:     Size  Location     Type
  1003 ;;  c               1    6[BANK0 ] unsigned char 
  1004 ;; Return value:  Size  Location     Type
  1005 ;;                  1    wreg      void 
  1006 ;; Registers used:
  1007 ;;		wreg, status,2, status,0, cstack
  1008 ;; Tracked objects:
  1009 ;;		On entry : 0/0
  1010 ;;		On exit  : 0/0
  1011 ;;		Unchanged: 0/0
  1012 ;; Data sizes:     COMRAM   BANK0   BANK1   BANK2   BANK3   BANK4   BANK5   BANK6   BANK7   BANK8   BANK9  BANK10  BANK1
      +1  BANK12  BANK13  BANK14  BANK15
  1013 ;;      Params:         0       0       0       0       0       0       0       0       0       0       0       0       
      +0       0       0       0       0
  1014 ;;      Locals:         0       1       0       0       0       0       0       0       0       0       0       0       
      +0       0       0       0       0
  1015 ;;      Temps:          0       0       0       0       0       0       0       0       0       0       0       0       
      +0       0       0       0       0
  1016 ;;      Totals:         0       1       0       0       0       0       0       0       0       0       0       0       
      +0       0       0       0       0
  1017 ;;Total ram usage:        1 bytes
  1018 ;; Hardware stack levels used:    1
  1019 ;; Hardware stack levels required when called:   15
  1020 ;; This function calls:
  1021 ;;		_d_write
  1022 ;;		_i_write
  1023 ;;		_lcd_gotoxy
  1024 ;; This function is called by:
  1025 ;;		_putch
  1026 ;;		_lcd_puts
  1027 ;; This function uses a non-reentrant model
  1028 ;;
  1029                           
  1030                           	psect	text4
  1031  00143E                     __ptext4:
  1032                           	opt stack 0
  1033  00143E                     _lcd_putc:
  1034                           	opt stack 12
  1035                           
  1036                           ;incstack = 0
  1037                           ;lcd_putc@c stored from wreg
  1038  00143E  0100               	movlb	0	; () banked
  1039  001440  6F66               	movwf	lcd_putc@c& (0+255),b
  1040                           
  1041                           ;LCD.c: 117: switch(c){
  1042  001442  D010               	goto	l175
  1043  001444                     
  1044                           ;LCD.c: 119: i_write(0b00000001); break;
  1045  001444  0E01               	movlw	1
  1046  001446  EC95  F00A         	call	_i_write
  1047  00144A  0012               	return	
  1048  00144C                     
  1049                           ;LCD.c: 121: lcd_gotoxy(1,0); break;
  1050  00144C  0E00               	movlw	0
  1051  00144E  0100               	movlb	0	; () banked
  1052  001450  6F64               	movwf	lcd_gotoxy@col& (0+255),b
  1053  001452  0E01               	movlw	1
  1054  001454  EC17  F00B         	call	_lcd_gotoxy
  1055  001458  0012               	return	
  1056  00145A                     
  1057                           ;LCD.c: 123: d_write(c);
  1058  00145A  0100               	movlb	0	; () banked
  1059  00145C  5166               	movf	lcd_putc@c& (0+255),w,b
  1060  00145E  ECA7  F00A         	call	_d_write
  1061                           
  1062                           ;LCD.c: 124: }
  1063  001462  0012               	return	
  1064  001464                     l175:
  1065  001464  0100               	movlb	0	; () banked
  1066  001466  5166               	movf	lcd_putc@c& (0+255),w,b
  1067                           
  1068                           ; Switch size 1, requested type "space"
  1069                           ; Number of cases is 2, Range of values is 10 to 12
  1070                           ; switch strategies available:
  1071                           ; Name         Instructions Cycles
  1072                           ; simple_byte            7     4 (average)
  1073                           ;	Chosen strategy is simple_byte
  1074  001468  0A0A               	xorlw	10	; case 10
  1075  00146A  B4D8               	btfsc	status,2,c
  1076  00146C  D7EF               	goto	l178
  1077  00146E  0A06               	xorlw	6	; case 12
  1078  001470  B4D8               	btfsc	status,2,c
  1079  001472  D7E8               	goto	l176
  1080  001474  D7F2               	goto	l179
  1081  001476                     __end_of_lcd_putc:
  1082                           	opt stack 0
  1083                           tblptru	equ	0xFF8
  1084                           tblptrh	equ	0xFF7
  1085                           tblptrl	equ	0xFF6
  1086                           tablat	equ	0xFF5
  1087                           prodh	equ	0xFF4
  1088                           prodl	equ	0xFF3
  1089                           postinc2	equ	0xFDE
  1090                           postdec2	equ	0xFDD
  1091                           fsr2h	equ	0xFDA
  1092                           fsr2l	equ	0xFD9
  1093                           status	equ	0xFD8
  1094                           
  1095 ;; *************** function _lcd_gotoxy *****************
  1096 ;; Defined at:
  1097 ;;		line 89 in file "LCD.c"
  1098 ;; Parameters:    Size  Location     Type
  1099 ;;  row             1    wreg     unsigned char 
  1100 ;;  col             1    4[BANK0 ] unsigned char 
  1101 ;; Auto vars:     Size  Location     Type
  1102 ;;  row             1    5[BANK0 ] unsigned char 
  1103 ;; Return value:  Size  Location     Type
  1104 ;;                  1    wreg      void 
  1105 ;; Registers used:
  1106 ;;		wreg, status,2, status,0, cstack
  1107 ;; Tracked objects:
  1108 ;;		On entry : 0/0
  1109 ;;		On exit  : 0/0
  1110 ;;		Unchanged: 0/0
  1111 ;; Data sizes:     COMRAM   BANK0   BANK1   BANK2   BANK3   BANK4   BANK5   BANK6   BANK7   BANK8   BANK9  BANK10  BANK1
      +1  BANK12  BANK13  BANK14  BANK15
  1112 ;;      Params:         0       1       0       0       0       0       0       0       0       0       0       0       
      +0       0       0       0       0
  1113 ;;      Locals:         0       1       0       0       0       0       0       0       0       0       0       0       
      +0       0       0       0       0
  1114 ;;      Temps:          0       0       0       0       0       0       0       0       0       0       0       0       
      +0       0       0       0       0
  1115 ;;      Totals:         0       2       0       0       0       0       0       0       0       0       0       0       
      +0       0       0       0       0
  1116 ;;Total ram usage:        2 bytes
  1117 ;; Hardware stack levels used:    1
  1118 ;; Hardware stack levels required when called:   14
  1119 ;; This function calls:
  1120 ;;		_i_write
  1121 ;; This function is called by:
  1122 ;;		_xulyphim
  1123 ;;		_lcd_putc
  1124 ;;		_lcd_DHBK
  1125 ;; This function uses a non-reentrant model
  1126 ;;
  1127                           
  1128                           	psect	text5
  1129  00162E                     __ptext5:
  1130                           	opt stack 0
  1131  00162E                     _lcd_gotoxy:
  1132                           	opt stack 12
  1133                           
  1134                           ;incstack = 0
  1135                           ;lcd_gotoxy@row stored from wreg
  1136  00162E  0100               	movlb	0	; () banked
  1137  001630  6F65               	movwf	lcd_gotoxy@row& (0+255),b
  1138                           
  1139                           ;LCD.c: 91: if(row!=0) col+=0x40;
  1140  001632  0100               	movlb	0	; () banked
  1141  001634  5165               	movf	lcd_gotoxy@row& (0+255),w,b
  1142  001636  B4D8               	btfsc	status,2,c
  1143  001638  D002               	goto	l160
  1144                           
  1145                           ; BSR set to: 0
  1146  00163A  0E40               	movlw	64
  1147  00163C  2764               	addwf	lcd_gotoxy@col& (0+255),f,b
  1148  00163E                     l160:
  1149                           
  1150                           ; BSR set to: 0
  1151                           ;LCD.c: 92: i_write(0x80|col);
  1152                           
  1153                           ; BSR set to: 0
  1154  00163E  5164               	movf	lcd_gotoxy@col& (0+255),w,b
  1155  001640  0980               	iorlw	128
  1156  001642  EC95  F00A         	call	_i_write
  1157  001646  0012               	return		;funcret
  1158  001648                     __end_of_lcd_gotoxy:
  1159                           	opt stack 0
  1160                           tblptru	equ	0xFF8
  1161                           tblptrh	equ	0xFF7
  1162                           tblptrl	equ	0xFF6
  1163                           tablat	equ	0xFF5
  1164                           prodh	equ	0xFF4
  1165                           prodl	equ	0xFF3
  1166                           postinc2	equ	0xFDE
  1167                           postdec2	equ	0xFDD
  1168                           fsr2h	equ	0xFDA
  1169                           fsr2l	equ	0xFD9
  1170                           status	equ	0xFD8
  1171                           
  1172 ;; *************** function _i_write *****************
  1173 ;; Defined at:
  1174 ;;		line 73 in file "LCD.c"
  1175 ;; Parameters:    Size  Location     Type
  1176 ;;  d               1    wreg     unsigned char 
  1177 ;; Auto vars:     Size  Location     Type
  1178 ;;  d               1    3[BANK0 ] unsigned char 
  1179 ;; Return value:  Size  Location     Type
  1180 ;;                  1    wreg      void 
  1181 ;; Registers used:
  1182 ;;		wreg, status,2, status,0, cstack
  1183 ;; Tracked objects:
  1184 ;;		On entry : 0/0
  1185 ;;		On exit  : 0/0
  1186 ;;		Unchanged: 0/0
  1187 ;; Data sizes:     COMRAM   BANK0   BANK1   BANK2   BANK3   BANK4   BANK5   BANK6   BANK7   BANK8   BANK9  BANK10  BANK1
      +1  BANK12  BANK13  BANK14  BANK15
  1188 ;;      Params:         0       0       0       0       0       0       0       0       0       0       0       0       
      +0       0       0       0       0
  1189 ;;      Locals:         0       1       0       0       0       0       0       0       0       0       0       0       
      +0       0       0       0       0
  1190 ;;      Temps:          0       0       0       0       0       0       0       0       0       0       0       0       
      +0       0       0       0       0
  1191 ;;      Totals:         0       1       0       0       0       0       0       0       0       0       0       0       
      +0       0       0       0       0
  1192 ;;Total ram usage:        1 bytes
  1193 ;; Hardware stack levels used:    1
  1194 ;; Hardware stack levels required when called:   13
  1195 ;; This function calls:
  1196 ;;		_LCDBusy
  1197 ;;		_Write_PortA
  1198 ;;		_Write_PortB
  1199 ;; This function is called by:
  1200 ;;		_lcd_gotoxy
  1201 ;;		_lcd_putc
  1202 ;;		_lcd_put_byte
  1203 ;;		_lcd_download
  1204 ;;		_lcd_init
  1205 ;;		_lcd_cls
  1206 ;; This function uses a non-reentrant model
  1207 ;;
  1208                           
  1209                           	psect	text6
  1210  00152A                     __ptext6:
  1211                           	opt stack 0
  1212  00152A                     _i_write:
  1213                           	opt stack 12
  1214                           
  1215                           ;incstack = 0
  1216                           ;i_write@d stored from wreg
  1217  00152A  0100               	movlb	0	; () banked
  1218  00152C  6F63               	movwf	i_write@d& (0+255),b
  1219  00152E  0E00               	movlw	0
  1220  001530  ECF9  F00A         	call	_Write_PortA
  1221                           
  1222                           ;LCD.c: 75: Write_PortB(d);
  1223  001534  0100               	movlb	0	; () banked
  1224  001536  5163               	movf	i_write@d& (0+255),w,b
  1225  001538  ECEA  F00A         	call	_Write_PortB
  1226                           
  1227                           ;LCD.c: 76: Write_PortA(0b01000000);
  1228  00153C  0E40               	movlw	64
  1229  00153E  ECF9  F00A         	call	_Write_PortA
  1230                           
  1231                           ;LCD.c: 77: Write_PortA(0b00000000);
  1232  001542  0E00               	movlw	0
  1233  001544  ECF9  F00A         	call	_Write_PortA
  1234                           
  1235                           ;LCD.c: 78: LCDBusy();
  1236  001548  EC78  F00B         	call	_LCDBusy	;wreg free
  1237  00154C  0012               	return		;funcret
  1238  00154E                     __end_of_i_write:
  1239                           	opt stack 0
  1240                           tblptru	equ	0xFF8
  1241                           tblptrh	equ	0xFF7
  1242                           tblptrl	equ	0xFF6
  1243                           tablat	equ	0xFF5
  1244                           prodh	equ	0xFF4
  1245                           prodl	equ	0xFF3
  1246                           postinc2	equ	0xFDE
  1247                           postdec2	equ	0xFDD
  1248                           fsr2h	equ	0xFDA
  1249                           fsr2l	equ	0xFD9
  1250                           status	equ	0xFD8
  1251                           
  1252 ;; *************** function _d_write *****************
  1253 ;; Defined at:
  1254 ;;		line 80 in file "LCD.c"
  1255 ;; Parameters:    Size  Location     Type
  1256 ;;  d               1    wreg     unsigned char 
  1257 ;; Auto vars:     Size  Location     Type
  1258 ;;  d               1    3[BANK0 ] unsigned char 
  1259 ;; Return value:  Size  Location     Type
  1260 ;;                  1    wreg      void 
  1261 ;; Registers used:
  1262 ;;		wreg, status,2, status,0, cstack
  1263 ;; Tracked objects:
  1264 ;;		On entry : 0/0
  1265 ;;		On exit  : 0/0
  1266 ;;		Unchanged: 0/0
  1267 ;; Data sizes:     COMRAM   BANK0   BANK1   BANK2   BANK3   BANK4   BANK5   BANK6   BANK7   BANK8   BANK9  BANK10  BANK1
      +1  BANK12  BANK13  BANK14  BANK15
  1268 ;;      Params:         0       0       0       0       0       0       0       0       0       0       0       0       
      +0       0       0       0       0
  1269 ;;      Locals:         0       1       0       0       0       0       0       0       0       0       0       0       
      +0       0       0       0       0
  1270 ;;      Temps:          0       0       0       0       0       0       0       0       0       0       0       0       
      +0       0       0       0       0
  1271 ;;      Totals:         0       1       0       0       0       0       0       0       0       0       0       0       
      +0       0       0       0       0
  1272 ;;Total ram usage:        1 bytes
  1273 ;; Hardware stack levels used:    1
  1274 ;; Hardware stack levels required when called:   13
  1275 ;; This function calls:
  1276 ;;		_LCDBusy
  1277 ;;		_Write_PortA
  1278 ;;		_Write_PortB
  1279 ;; This function is called by:
  1280 ;;		_lcd_putc
  1281 ;;		_lcd_put_byte
  1282 ;;		_lcd_download
  1283 ;; This function uses a non-reentrant model
  1284 ;;
  1285                           
  1286                           	psect	text7
  1287  00154E                     __ptext7:
  1288                           	opt stack 0
  1289  00154E                     _d_write:
  1290                           	opt stack 13
  1291                           
  1292                           ;incstack = 0
  1293                           ;d_write@d stored from wreg
  1294  00154E  0100               	movlb	0	; () banked
  1295  001550  6F63               	movwf	d_write@d& (0+255),b
  1296  001552  0E80               	movlw	128
  1297  001554  ECF9  F00A         	call	_Write_PortA
  1298                           
  1299                           ;LCD.c: 82: Write_PortB(d);
  1300  001558  0100               	movlb	0	; () banked
  1301  00155A  5163               	movf	d_write@d& (0+255),w,b
  1302  00155C  ECEA  F00A         	call	_Write_PortB
  1303                           
  1304                           ;LCD.c: 83: Write_PortA(0b11000000);
  1305  001560  0EC0               	movlw	192
  1306  001562  ECF9  F00A         	call	_Write_PortA
  1307                           
  1308                           ;LCD.c: 84: Write_PortA(0b00000000);
  1309  001566  0E00               	movlw	0
  1310  001568  ECF9  F00A         	call	_Write_PortA
  1311                           
  1312                           ;LCD.c: 85: LCDBusy();
  1313  00156C  EC78  F00B         	call	_LCDBusy	;wreg free
  1314  001570  0012               	return		;funcret
  1315  001572                     __end_of_d_write:
  1316                           	opt stack 0
  1317                           tblptru	equ	0xFF8
  1318                           tblptrh	equ	0xFF7
  1319                           tblptrl	equ	0xFF6
  1320                           tablat	equ	0xFF5
  1321                           prodh	equ	0xFF4
  1322                           prodl	equ	0xFF3
  1323                           postinc2	equ	0xFDE
  1324                           postdec2	equ	0xFDD
  1325                           fsr2h	equ	0xFDA
  1326                           fsr2l	equ	0xFD9
  1327                           status	equ	0xFD8
  1328                           
  1329 ;; *************** function _Write_PortB *****************
  1330 ;; Defined at:
  1331 ;;		line 57 in file "LCD.c"
  1332 ;; Parameters:    Size  Location     Type
  1333 ;;  d               1    wreg     unsigned char 
  1334 ;; Auto vars:     Size  Location     Type
  1335 ;;  d               1    1[BANK0 ] unsigned char 
  1336 ;; Return value:  Size  Location     Type
  1337 ;;                  1    wreg      void 
  1338 ;; Registers used:
  1339 ;;		wreg, status,2, cstack
  1340 ;; Tracked objects:
  1341 ;;		On entry : 0/0
  1342 ;;		On exit  : 0/0
  1343 ;;		Unchanged: 0/0
  1344 ;; Data sizes:     COMRAM   BANK0   BANK1   BANK2   BANK3   BANK4   BANK5   BANK6   BANK7   BANK8   BANK9  BANK10  BANK1
      +1  BANK12  BANK13  BANK14  BANK15
  1345 ;;      Params:         0       0       0       0       0       0       0       0       0       0       0       0       
      +0       0       0       0       0
  1346 ;;      Locals:         0       1       0       0       0       0       0       0       0       0       0       0       
      +0       0       0       0       0
  1347 ;;      Temps:          0       0       0       0       0       0       0       0       0       0       0       0       
      +0       0       0       0       0
  1348 ;;      Totals:         0       1       0       0       0       0       0       0       0       0       0       0       
      +0       0       0       0       0
  1349 ;;Total ram usage:        1 bytes
  1350 ;; Hardware stack levels used:    1
  1351 ;; Hardware stack levels required when called:   12
  1352 ;; This function calls:
  1353 ;;		_SPI_send
  1354 ;; This function is called by:
  1355 ;;		_i_write
  1356 ;;		_d_write
  1357 ;; This function uses a non-reentrant model
  1358 ;;
  1359                           
  1360                           	psect	text8
  1361  0015D4                     __ptext8:
  1362                           	opt stack 0
  1363  0015D4                     _Write_PortB:
  1364                           	opt stack 12
  1365                           
  1366                           ;incstack = 0
  1367                           ;Write_PortB@d stored from wreg
  1368  0015D4  0100               	movlb	0	; () banked
  1369  0015D6  6F61               	movwf	Write_PortB@d& (0+255),b
  1370                           
  1371                           ;LCD.c: 59: LATA2=0;
  1372  0015D8  9489               	bcf	3977,2,c	;volatile
  1373                           
  1374                           ;LCD.c: 60: SPI_send(0x40);
  1375  0015DA  0E40               	movlw	64
  1376  0015DC  EC49  F00B         	call	_SPI_send
  1377                           
  1378                           ;LCD.c: 61: SPI_send(0x13);
  1379  0015E0  0E13               	movlw	19
  1380  0015E2  EC49  F00B         	call	_SPI_send
  1381                           
  1382                           ;LCD.c: 62: SPI_send(d);
  1383  0015E6  0100               	movlb	0	; () banked
  1384  0015E8  5161               	movf	Write_PortB@d& (0+255),w,b
  1385  0015EA  EC49  F00B         	call	_SPI_send
  1386                           
  1387                           ;LCD.c: 63: LATA2=1;
  1388  0015EE  8489               	bsf	3977,2,c	;volatile
  1389  0015F0  0012               	return		;funcret
  1390  0015F2                     __end_of_Write_PortB:
  1391                           	opt stack 0
  1392                           tblptru	equ	0xFF8
  1393                           tblptrh	equ	0xFF7
  1394                           tblptrl	equ	0xFF6
  1395                           tablat	equ	0xFF5
  1396                           prodh	equ	0xFF4
  1397                           prodl	equ	0xFF3
  1398                           postinc2	equ	0xFDE
  1399                           postdec2	equ	0xFDD
  1400                           fsr2h	equ	0xFDA
  1401                           fsr2l	equ	0xFD9
  1402                           status	equ	0xFD8
  1403                           
  1404 ;; *************** function _Write_PortA *****************
  1405 ;; Defined at:
  1406 ;;		line 65 in file "LCD.c"
  1407 ;; Parameters:    Size  Location     Type
  1408 ;;  mask            1    wreg     unsigned char 
  1409 ;; Auto vars:     Size  Location     Type
  1410 ;;  mask            1    1[BANK0 ] unsigned char 
  1411 ;; Return value:  Size  Location     Type
  1412 ;;                  1    wreg      void 
  1413 ;; Registers used:
  1414 ;;		wreg, status,2, cstack
  1415 ;; Tracked objects:
  1416 ;;		On entry : 0/0
  1417 ;;		On exit  : 0/0
  1418 ;;		Unchanged: 0/0
  1419 ;; Data sizes:     COMRAM   BANK0   BANK1   BANK2   BANK3   BANK4   BANK5   BANK6   BANK7   BANK8   BANK9  BANK10  BANK1
      +1  BANK12  BANK13  BANK14  BANK15
  1420 ;;      Params:         0       0       0       0       0       0       0       0       0       0       0       0       
      +0       0       0       0       0
  1421 ;;      Locals:         0       1       0       0       0       0       0       0       0       0       0       0       
      +0       0       0       0       0
  1422 ;;      Temps:          0       0       0       0       0       0       0       0       0       0       0       0       
      +0       0       0       0       0
  1423 ;;      Totals:         0       1       0       0       0       0       0       0       0       0       0       0       
      +0       0       0       0       0
  1424 ;;Total ram usage:        1 bytes
  1425 ;; Hardware stack levels used:    1
  1426 ;; Hardware stack levels required when called:   12
  1427 ;; This function calls:
  1428 ;;		_SPI_send
  1429 ;; This function is called by:
  1430 ;;		_i_write
  1431 ;;		_d_write
  1432 ;; This function uses a non-reentrant model
  1433 ;;
  1434                           
  1435                           	psect	text9
  1436  0015F2                     __ptext9:
  1437                           	opt stack 0
  1438  0015F2                     _Write_PortA:
  1439                           	opt stack 12
  1440                           
  1441                           ;incstack = 0
  1442                           ;Write_PortA@mask stored from wreg
  1443  0015F2  0100               	movlb	0	; () banked
  1444  0015F4  6F61               	movwf	Write_PortA@mask& (0+255),b
  1445                           
  1446                           ;LCD.c: 67: LATA2=0;
  1447  0015F6  9489               	bcf	3977,2,c	;volatile
  1448                           
  1449                           ;LCD.c: 68: SPI_send(0x40);
  1450  0015F8  0E40               	movlw	64
  1451  0015FA  EC49  F00B         	call	_SPI_send
  1452                           
  1453                           ;LCD.c: 69: SPI_send(0x12);
  1454  0015FE  0E12               	movlw	18
  1455  001600  EC49  F00B         	call	_SPI_send
  1456                           
  1457                           ;LCD.c: 70: SPI_send(mask);
  1458  001604  0100               	movlb	0	; () banked
  1459  001606  5161               	movf	Write_PortA@mask& (0+255),w,b
  1460  001608  EC49  F00B         	call	_SPI_send
  1461                           
  1462                           ;LCD.c: 71: LATA2=1;
  1463  00160C  8489               	bsf	3977,2,c	;volatile
  1464  00160E  0012               	return		;funcret
  1465  001610                     __end_of_Write_PortA:
  1466                           	opt stack 0
  1467                           tblptru	equ	0xFF8
  1468                           tblptrh	equ	0xFF7
  1469                           tblptrl	equ	0xFF6
  1470                           tablat	equ	0xFF5
  1471                           prodh	equ	0xFF4
  1472                           prodl	equ	0xFF3
  1473                           postinc2	equ	0xFDE
  1474                           postdec2	equ	0xFDD
  1475                           fsr2h	equ	0xFDA
  1476                           fsr2l	equ	0xFD9
  1477                           status	equ	0xFD8
  1478                           
  1479 ;; *************** function _SPI_send *****************
  1480 ;; Defined at:
  1481 ;;		line 35 in file "LCD.c"
  1482 ;; Parameters:    Size  Location     Type
  1483 ;;  c               1    wreg     unsigned char 
  1484 ;; Auto vars:     Size  Location     Type
  1485 ;;  c               1    0[BANK0 ] unsigned char 
  1486 ;; Return value:  Size  Location     Type
  1487 ;;                  1    wreg      void 
  1488 ;; Registers used:
  1489 ;;		wreg
  1490 ;; Tracked objects:
  1491 ;;		On entry : 0/0
  1492 ;;		On exit  : 0/0
  1493 ;;		Unchanged: 0/0
  1494 ;; Data sizes:     COMRAM   BANK0   BANK1   BANK2   BANK3   BANK4   BANK5   BANK6   BANK7   BANK8   BANK9  BANK10  BANK1
      +1  BANK12  BANK13  BANK14  BANK15
  1495 ;;      Params:         0       0       0       0       0       0       0       0       0       0       0       0       
      +0       0       0       0       0
  1496 ;;      Locals:         0       1       0       0       0       0       0       0       0       0       0       0       
      +0       0       0       0       0
  1497 ;;      Temps:          0       0       0       0       0       0       0       0       0       0       0       0       
      +0       0       0       0       0
  1498 ;;      Totals:         0       1       0       0       0       0       0       0       0       0       0       0       
      +0       0       0       0       0
  1499 ;;Total ram usage:        1 bytes
  1500 ;; Hardware stack levels used:    1
  1501 ;; Hardware stack levels required when called:   11
  1502 ;; This function calls:
  1503 ;;		Nothing
  1504 ;; This function is called by:
  1505 ;;		_Write_PortB
  1506 ;;		_Write_PortA
  1507 ;;		_SPIportA_init
  1508 ;;		_SPIportB_init
  1509 ;; This function uses a non-reentrant model
  1510 ;;
  1511                           
  1512                           	psect	text10
  1513  001692                     __ptext10:
  1514                           	opt stack 0
  1515  001692                     _SPI_send:
  1516                           	opt stack 12
  1517                           
  1518                           ;incstack = 0
  1519                           ;SPI_send@c stored from wreg
  1520  001692  0100               	movlb	0	; () banked
  1521  001694  6F60               	movwf	SPI_send@c& (0+255),b
  1522  001696  C060  FFC9         	movff	SPI_send@c,4041	;volatile
  1523  00169A  A69E               	btfss	3998,3,c	;volatile
  1524  00169C  D7FE               	goto	l132
  1525                           
  1526                           ;LCD.c: 38: SSP1IF=0;
  1527  00169E  969E               	bcf	3998,3,c	;volatile
  1528                           
  1529                           ;LCD.c: 39: c=SSP1BUF;
  1530  0016A0  CFC9 F060          	movff	4041,SPI_send@c	;volatile
  1531  0016A4  0012               	return		;funcret
  1532  0016A6                     __end_of_SPI_send:
  1533                           	opt stack 0
  1534                           tblptru	equ	0xFF8
  1535                           tblptrh	equ	0xFF7
  1536                           tblptrl	equ	0xFF6
  1537                           tablat	equ	0xFF5
  1538                           prodh	equ	0xFF4
  1539                           prodl	equ	0xFF3
  1540                           postinc2	equ	0xFDE
  1541                           postdec2	equ	0xFDD
  1542                           fsr2h	equ	0xFDA
  1543                           fsr2l	equ	0xFD9
  1544                           status	equ	0xFD8
  1545                           
  1546 ;; *************** function _LCDBusy *****************
  1547 ;; Defined at:
  1548 ;;		line 27 in file "LCD.c"
  1549 ;; Parameters:    Size  Location     Type
  1550 ;;		None
  1551 ;; Auto vars:     Size  Location     Type
  1552 ;;		None
  1553 ;; Return value:  Size  Location     Type
  1554 ;;                  1    wreg      void 
  1555 ;; Registers used:
  1556 ;;		wreg, status,2, status,0, cstack
  1557 ;; Tracked objects:
  1558 ;;		On entry : 0/0
  1559 ;;		On exit  : 0/0
  1560 ;;		Unchanged: 0/0
  1561 ;; Data sizes:     COMRAM   BANK0   BANK1   BANK2   BANK3   BANK4   BANK5   BANK6   BANK7   BANK8   BANK9  BANK10  BANK1
      +1  BANK12  BANK13  BANK14  BANK15
  1562 ;;      Params:         0       0       0       0       0       0       0       0       0       0       0       0       
      +0       0       0       0       0
  1563 ;;      Locals:         0       0       0       0       0       0       0       0       0       0       0       0       
      +0       0       0       0       0
  1564 ;;      Temps:          0       0       0       0       0       0       0       0       0       0       0       0       
      +0       0       0       0       0
  1565 ;;      Totals:         0       0       0       0       0       0       0       0       0       0       0       0       
      +0       0       0       0       0
  1566 ;;Total ram usage:        0 bytes
  1567 ;; Hardware stack levels used:    1
  1568 ;; Hardware stack levels required when called:   12
  1569 ;; This function calls:
  1570 ;;		_tre_ms
  1571 ;; This function is called by:
  1572 ;;		_i_write
  1573 ;;		_d_write
  1574 ;; This function uses a non-reentrant model
  1575 ;;
  1576                           
  1577                           	psect	text11
  1578  0016F0                     __ptext11:
  1579                           	opt stack 0
  1580  0016F0                     _LCDBusy:
  1581                           	opt stack 12
  1582                           
  1583                           ;incstack = 0
  1584  0016F0  0E00               	movlw	0
  1585  0016F2  0100               	movlb	0	; () banked
  1586  0016F4  6F61               	movwf	(tre_ms@ms+1)& (0+255),b
  1587  0016F6  0E02               	movlw	2
  1588  0016F8  6F60               	movwf	tre_ms@ms& (0+255),b
  1589  0016FA  EC82  F00A         	call	_tre_ms	;wreg free
  1590  0016FE  0012               	return		;funcret
  1591  001700                     __end_of_LCDBusy:
  1592                           	opt stack 0
  1593                           tblptru	equ	0xFF8
  1594                           tblptrh	equ	0xFF7
  1595                           tblptrl	equ	0xFF6
  1596                           tablat	equ	0xFF5
  1597                           prodh	equ	0xFF4
  1598                           prodl	equ	0xFF3
  1599                           postinc2	equ	0xFDE
  1600                           postdec2	equ	0xFDD
  1601                           fsr2h	equ	0xFDA
  1602                           fsr2l	equ	0xFD9
  1603                           status	equ	0xFD8
  1604                           
  1605 ;; *************** function _tre_ms *****************
  1606 ;; Defined at:
  1607 ;;		line 23 in file "LCD.c"
  1608 ;; Parameters:    Size  Location     Type
  1609 ;;  ms              2    0[BANK0 ] unsigned int 
  1610 ;; Auto vars:     Size  Location     Type
  1611 ;;		None
  1612 ;; Return value:  Size  Location     Type
  1613 ;;                  1    wreg      void 
  1614 ;; Registers used:
  1615 ;;		wreg, status,2, status,0
  1616 ;; Tracked objects:
  1617 ;;		On entry : 0/0
  1618 ;;		On exit  : 0/0
  1619 ;;		Unchanged: 0/0
  1620 ;; Data sizes:     COMRAM   BANK0   BANK1   BANK2   BANK3   BANK4   BANK5   BANK6   BANK7   BANK8   BANK9  BANK10  BANK1
      +1  BANK12  BANK13  BANK14  BANK15
  1621 ;;      Params:         0       2       0       0       0       0       0       0       0       0       0       0       
      +0       0       0       0       0
  1622 ;;      Locals:         0       0       0       0       0       0       0       0       0       0       0       0       
      +0       0       0       0       0
  1623 ;;      Temps:          0       1       0       0       0       0       0       0       0       0       0       0       
      +0       0       0       0       0
  1624 ;;      Totals:         0       3       0       0       0       0       0       0       0       0       0       0       
      +0       0       0       0       0
  1625 ;;Total ram usage:        3 bytes
  1626 ;; Hardware stack levels used:    1
  1627 ;; Hardware stack levels required when called:   11
  1628 ;; This function calls:
  1629 ;;		Nothing
  1630 ;; This function is called by:
  1631 ;;		_LCDBusy
  1632 ;;		_Delay
  1633 ;;		_lcd_init
  1634 ;; This function uses a non-reentrant model
  1635 ;;
  1636                           
  1637                           	psect	text12
  1638  001504                     __ptext12:
  1639                           	opt stack 0
  1640  001504                     _tre_ms:
  1641                           	opt stack 12
  1642                           
  1643                           ;incstack = 0
  1644  001504  0100               	movlb	0	; () banked
  1645  001506  5160               	movf	tre_ms@ms& (0+255),w,b
  1646  001508  1161               	iorwf	(tre_ms@ms+1)& (0+255),w,b
  1647  00150A  B4D8               	btfsc	status,2,c
  1648  00150C  0012               	return	
  1649                           
  1650                           ; BSR set to: 0
  1651                           
  1652                           ; BSR set to: 0
  1653                           
  1654                           ; BSR set to: 0
  1655  00150E  0E04               	movlw	4
  1656  001510  0100               	movlb	0	; () banked
  1657  001512  6F62               	movwf	??_tre_ms& (0+255),b
  1658  001514  0E3D               	movlw	61
  1659  001516                     u977:
  1660  001516  2EE8               	decfsz	wreg,f,c
  1661  001518  D7FE               	bra	u977
  1662  00151A  2F62               	decfsz	??_tre_ms& (0+255),f,b
  1663  00151C  D7FC               	bra	u977
  1664  00151E  D000               	nop2	
  1665  001520  0100               	movlb	0	; () banked
  1666  001522  0760               	decf	tre_ms@ms& (0+255),f,b
  1667  001524  A0D8               	btfss	status,0,c
  1668  001526  0761               	decf	(tre_ms@ms+1)& (0+255),f,b
  1669  001528  D7EE               	goto	L1
  1670  00152A                     __end_of_tre_ms:
  1671                           	opt stack 0
  1672                           tblptru	equ	0xFF8
  1673                           tblptrh	equ	0xFF7
  1674                           tblptrl	equ	0xFF6
  1675                           tablat	equ	0xFF5
  1676                           prodh	equ	0xFF4
  1677                           prodl	equ	0xFF3
  1678                           wreg	equ	0xFE8
  1679                           postinc2	equ	0xFDE
  1680                           postdec2	equ	0xFDD
  1681                           fsr2h	equ	0xFDA
  1682                           fsr2l	equ	0xFD9
  1683                           status	equ	0xFD8
  1684                           
  1685 ;; *************** function ___lwmod *****************
  1686 ;; Defined at:
  1687 ;;		line 8 in file "E:\MPLABX\sources\common\lwmod.c"
  1688 ;; Parameters:    Size  Location     Type
  1689 ;;  dividend        2    7[BANK0 ] unsigned int 
  1690 ;;  divisor         2    9[BANK0 ] unsigned int 
  1691 ;; Auto vars:     Size  Location     Type
  1692 ;;  counter         1   11[BANK0 ] unsigned char 
  1693 ;; Return value:  Size  Location     Type
  1694 ;;                  2    7[BANK0 ] unsigned int 
  1695 ;; Registers used:
  1696 ;;		wreg, status,2, status,0
  1697 ;; Tracked objects:
  1698 ;;		On entry : 0/0
  1699 ;;		On exit  : 0/0
  1700 ;;		Unchanged: 0/0
  1701 ;; Data sizes:     COMRAM   BANK0   BANK1   BANK2   BANK3   BANK4   BANK5   BANK6   BANK7   BANK8   BANK9  BANK10  BANK1
      +1  BANK12  BANK13  BANK14  BANK15
  1702 ;;      Params:         0       4       0       0       0       0       0       0       0       0       0       0       
      +0       0       0       0       0
  1703 ;;      Locals:         0       1       0       0       0       0       0       0       0       0       0       0       
      +0       0       0       0       0
  1704 ;;      Temps:          0       0       0       0       0       0       0       0       0       0       0       0       
      +0       0       0       0       0
  1705 ;;      Totals:         0       5       0       0       0       0       0       0       0       0       0       0       
      +0       0       0       0       0
  1706 ;;Total ram usage:        5 bytes
  1707 ;; Hardware stack levels used:    1
  1708 ;; Hardware stack levels required when called:   11
  1709 ;; This function calls:
  1710 ;;		Nothing
  1711 ;; This function is called by:
  1712 ;;		_printf
  1713 ;; This function uses a non-reentrant model
  1714 ;;
  1715                           
  1716                           	psect	text13
  1717  0013B8                     __ptext13:
  1718                           	opt stack 0
  1719  0013B8                     ___lwmod:
  1720                           	opt stack 17
  1721                           
  1722                           ; BSR set to: 0
  1723                           ;incstack = 0
  1724  0013B8  0100               	movlb	0	; () banked
  1725  0013BA  5169               	movf	___lwmod@divisor& (0+255),w,b
  1726  0013BC  116A               	iorwf	(___lwmod@divisor+1)& (0+255),w,b
  1727  0013BE  B4D8               	btfsc	status,2,c
  1728  0013C0  D018               	goto	l645
  1729                           
  1730                           ; BSR set to: 0
  1731  0013C2  0E01               	movlw	1
  1732  0013C4  6F6B               	movwf	___lwmod@counter& (0+255),b
  1733  0013C6  D004               	goto	l640
  1734  0013C8                     
  1735                           ; BSR set to: 0
  1736                           
  1737                           ; BSR set to: 0
  1738  0013C8  90D8               	bcf	status,0,c
  1739  0013CA  3769               	rlcf	___lwmod@divisor& (0+255),f,b
  1740  0013CC  376A               	rlcf	(___lwmod@divisor+1)& (0+255),f,b
  1741  0013CE  2B6B               	incf	___lwmod@counter& (0+255),f,b
  1742  0013D0                     l640:
  1743                           
  1744                           ; BSR set to: 0
  1745                           
  1746                           ; BSR set to: 0
  1747  0013D0  AF6A               	btfss	(___lwmod@divisor+1)& (0+255),7,b
  1748  0013D2  D7FA               	goto	l641
  1749  0013D4                     u760:
  1750                           
  1751                           ; BSR set to: 0
  1752                           
  1753                           ; BSR set to: 0
  1754                           
  1755                           ; BSR set to: 0
  1756  0013D4  5169               	movf	___lwmod@divisor& (0+255),w,b
  1757  0013D6  5D67               	subwf	___lwmod@dividend& (0+255),w,b
  1758  0013D8  516A               	movf	(___lwmod@divisor+1)& (0+255),w,b
  1759  0013DA  5968               	subwfb	(___lwmod@dividend+1)& (0+255),w,b
  1760  0013DC  A0D8               	btfss	status,0,c
  1761  0013DE  D004               	goto	l644
  1762                           
  1763                           ; BSR set to: 0
  1764  0013E0  5169               	movf	___lwmod@divisor& (0+255),w,b
  1765  0013E2  5F67               	subwf	___lwmod@dividend& (0+255),f,b
  1766  0013E4  516A               	movf	(___lwmod@divisor+1)& (0+255),w,b
  1767  0013E6  5B68               	subwfb	(___lwmod@dividend+1)& (0+255),f,b
  1768  0013E8                     l644:
  1769                           
  1770                           ; BSR set to: 0
  1771                           
  1772                           ; BSR set to: 0
  1773  0013E8  90D8               	bcf	status,0,c
  1774  0013EA  336A               	rrcf	(___lwmod@divisor+1)& (0+255),f,b
  1775  0013EC  3369               	rrcf	___lwmod@divisor& (0+255),f,b
  1776                           
  1777                           ; BSR set to: 0
  1778  0013EE  2F6B               	decfsz	___lwmod@counter& (0+255),f,b
  1779  0013F0  D7F1               	goto	u760
  1780  0013F2                     l645:
  1781                           
  1782                           ; BSR set to: 0
  1783                           
  1784                           ; BSR set to: 0
  1785  0013F2  C067  F067         	movff	___lwmod@dividend,?___lwmod
  1786  0013F6  C068  F068         	movff	___lwmod@dividend+1,?___lwmod+1
  1787                           
  1788                           ; BSR set to: 0
  1789  0013FA  0012               	return		;funcret
  1790  0013FC                     __end_of___lwmod:
  1791                           	opt stack 0
  1792                           tblptru	equ	0xFF8
  1793                           tblptrh	equ	0xFF7
  1794                           tblptrl	equ	0xFF6
  1795                           tablat	equ	0xFF5
  1796                           prodh	equ	0xFF4
  1797                           prodl	equ	0xFF3
  1798                           wreg	equ	0xFE8
  1799                           postinc2	equ	0xFDE
  1800                           postdec2	equ	0xFDD
  1801                           fsr2h	equ	0xFDA
  1802                           fsr2l	equ	0xFD9
  1803                           status	equ	0xFD8
  1804                           
  1805 ;; *************** function ___lwdiv *****************
  1806 ;; Defined at:
  1807 ;;		line 8 in file "E:\MPLABX\sources\common\lwdiv.c"
  1808 ;; Parameters:    Size  Location     Type
  1809 ;;  dividend        2    0[BANK0 ] unsigned int 
  1810 ;;  divisor         2    2[BANK0 ] unsigned int 
  1811 ;; Auto vars:     Size  Location     Type
  1812 ;;  quotient        2    4[BANK0 ] unsigned int 
  1813 ;;  counter         1    6[BANK0 ] unsigned char 
  1814 ;; Return value:  Size  Location     Type
  1815 ;;                  2    0[BANK0 ] unsigned int 
  1816 ;; Registers used:
  1817 ;;		wreg, status,2, status,0
  1818 ;; Tracked objects:
  1819 ;;		On entry : 0/0
  1820 ;;		On exit  : 0/0
  1821 ;;		Unchanged: 0/0
  1822 ;; Data sizes:     COMRAM   BANK0   BANK1   BANK2   BANK3   BANK4   BANK5   BANK6   BANK7   BANK8   BANK9  BANK10  BANK1
      +1  BANK12  BANK13  BANK14  BANK15
  1823 ;;      Params:         0       4       0       0       0       0       0       0       0       0       0       0       
      +0       0       0       0       0
  1824 ;;      Locals:         0       3       0       0       0       0       0       0       0       0       0       0       
      +0       0       0       0       0
  1825 ;;      Temps:          0       0       0       0       0       0       0       0       0       0       0       0       
      +0       0       0       0       0
  1826 ;;      Totals:         0       7       0       0       0       0       0       0       0       0       0       0       
      +0       0       0       0       0
  1827 ;;Total ram usage:        7 bytes
  1828 ;; Hardware stack levels used:    1
  1829 ;; Hardware stack levels required when called:   11
  1830 ;; This function calls:
  1831 ;;		Nothing
  1832 ;; This function is called by:
  1833 ;;		_printf
  1834 ;; This function uses a non-reentrant model
  1835 ;;
  1836                           
  1837                           	psect	text14
  1838  0012C2                     __ptext14:
  1839                           	opt stack 0
  1840  0012C2                     ___lwdiv:
  1841                           	opt stack 17
  1842                           
  1843                           ; BSR set to: 0
  1844                           ;incstack = 0
  1845  0012C2  0E00               	movlw	0
  1846  0012C4  0100               	movlb	0	; () banked
  1847  0012C6  6F65               	movwf	(___lwdiv@quotient+1)& (0+255),b
  1848  0012C8  0E00               	movlw	0
  1849  0012CA  6F64               	movwf	___lwdiv@quotient& (0+255),b
  1850                           
  1851                           ; BSR set to: 0
  1852  0012CC  5162               	movf	___lwdiv@divisor& (0+255),w,b
  1853  0012CE  1163               	iorwf	(___lwdiv@divisor+1)& (0+255),w,b
  1854  0012D0  B4D8               	btfsc	status,2,c
  1855  0012D2  D01C               	goto	l635
  1856                           
  1857                           ; BSR set to: 0
  1858  0012D4  0E01               	movlw	1
  1859  0012D6  6F66               	movwf	___lwdiv@counter& (0+255),b
  1860  0012D8  D004               	goto	l630
  1861  0012DA                     
  1862                           ; BSR set to: 0
  1863                           
  1864                           ; BSR set to: 0
  1865  0012DA  90D8               	bcf	status,0,c
  1866  0012DC  3762               	rlcf	___lwdiv@divisor& (0+255),f,b
  1867  0012DE  3763               	rlcf	(___lwdiv@divisor+1)& (0+255),f,b
  1868  0012E0  2B66               	incf	___lwdiv@counter& (0+255),f,b
  1869  0012E2                     l630:
  1870                           
  1871                           ; BSR set to: 0
  1872                           
  1873                           ; BSR set to: 0
  1874  0012E2  AF63               	btfss	(___lwdiv@divisor+1)& (0+255),7,b
  1875  0012E4  D7FA               	goto	l631
  1876  0012E6                     u730:
  1877                           
  1878                           ; BSR set to: 0
  1879                           
  1880                           ; BSR set to: 0
  1881                           
  1882                           ; BSR set to: 0
  1883  0012E6  90D8               	bcf	status,0,c
  1884  0012E8  3764               	rlcf	___lwdiv@quotient& (0+255),f,b
  1885  0012EA  3765               	rlcf	(___lwdiv@quotient+1)& (0+255),f,b
  1886                           
  1887                           ; BSR set to: 0
  1888  0012EC  5162               	movf	___lwdiv@divisor& (0+255),w,b
  1889  0012EE  5D60               	subwf	___lwdiv@dividend& (0+255),w,b
  1890  0012F0  5163               	movf	(___lwdiv@divisor+1)& (0+255),w,b
  1891  0012F2  5961               	subwfb	(___lwdiv@dividend+1)& (0+255),w,b
  1892  0012F4  A0D8               	btfss	status,0,c
  1893  0012F6  D005               	goto	l634
  1894                           
  1895                           ; BSR set to: 0
  1896  0012F8  5162               	movf	___lwdiv@divisor& (0+255),w,b
  1897  0012FA  5F60               	subwf	___lwdiv@dividend& (0+255),f,b
  1898  0012FC  5163               	movf	(___lwdiv@divisor+1)& (0+255),w,b
  1899  0012FE  5B61               	subwfb	(___lwdiv@dividend+1)& (0+255),f,b
  1900                           
  1901                           ; BSR set to: 0
  1902  001300  8164               	bsf	___lwdiv@quotient& (0+255),0,b
  1903  001302                     l634:
  1904                           
  1905                           ; BSR set to: 0
  1906                           
  1907                           ; BSR set to: 0
  1908  001302  90D8               	bcf	status,0,c
  1909  001304  3363               	rrcf	(___lwdiv@divisor+1)& (0+255),f,b
  1910  001306  3362               	rrcf	___lwdiv@divisor& (0+255),f,b
  1911                           
  1912                           ; BSR set to: 0
  1913  001308  2F66               	decfsz	___lwdiv@counter& (0+255),f,b
  1914  00130A  D7ED               	goto	u730
  1915  00130C                     l635:
  1916                           
  1917                           ; BSR set to: 0
  1918                           
  1919                           ; BSR set to: 0
  1920  00130C  C064  F060         	movff	___lwdiv@quotient,?___lwdiv
  1921  001310  C065  F061         	movff	___lwdiv@quotient+1,?___lwdiv+1
  1922                           
  1923                           ; BSR set to: 0
  1924  001314  0012               	return		;funcret
  1925  001316                     __end_of___lwdiv:
  1926                           	opt stack 0
  1927                           tblptru	equ	0xFF8
  1928                           tblptrh	equ	0xFF7
  1929                           tblptrl	equ	0xFF6
  1930                           tablat	equ	0xFF5
  1931                           prodh	equ	0xFF4
  1932                           prodl	equ	0xFF3
  1933                           wreg	equ	0xFE8
  1934                           postinc2	equ	0xFDE
  1935                           postdec2	equ	0xFDD
  1936                           fsr2h	equ	0xFDA
  1937                           fsr2l	equ	0xFD9
  1938                           status	equ	0xFD8
  1939                           
  1940 ;; *************** function _timer0_init *****************
  1941 ;; Defined at:
  1942 ;;		line 5 in file "Timer.c"
  1943 ;; Parameters:    Size  Location     Type
  1944 ;;		None
  1945 ;; Auto vars:     Size  Location     Type
  1946 ;;		None
  1947 ;; Return value:  Size  Location     Type
  1948 ;;                  1    wreg      void 
  1949 ;; Registers used:
  1950 ;;		wreg, status,2, cstack
  1951 ;; Tracked objects:
  1952 ;;		On entry : 0/0
  1953 ;;		On exit  : 0/0
  1954 ;;		Unchanged: 0/0
  1955 ;; Data sizes:     COMRAM   BANK0   BANK1   BANK2   BANK3   BANK4   BANK5   BANK6   BANK7   BANK8   BANK9  BANK10  BANK1
      +1  BANK12  BANK13  BANK14  BANK15
  1956 ;;      Params:         0       0       0       0       0       0       0       0       0       0       0       0       
      +0       0       0       0       0
  1957 ;;      Locals:         0       0       0       0       0       0       0       0       0       0       0       0       
      +0       0       0       0       0
  1958 ;;      Temps:          0       0       0       0       0       0       0       0       0       0       0       0       
      +0       0       0       0       0
  1959 ;;      Totals:         0       0       0       0       0       0       0       0       0       0       0       0       
      +0       0       0       0       0
  1960 ;;Total ram usage:        0 bytes
  1961 ;; Hardware stack levels used:    1
  1962 ;; Hardware stack levels required when called:   12
  1963 ;; This function calls:
  1964 ;;		_timer0_reset
  1965 ;; This function is called by:
  1966 ;;		_main
  1967 ;; This function uses a non-reentrant model
  1968 ;;
  1969                           
  1970                           	psect	text15
  1971  0016A6                     __ptext15:
  1972                           	opt stack 0
  1973  0016A6                     _timer0_init:
  1974                           	opt stack 18
  1975                           
  1976                           ;Timer.c: 7: RCONbits.IPEN = 1;
  1977                           
  1978                           ; BSR set to: 0
  1979                           ;incstack = 0
  1980  0016A6  8ED0               	bsf	4048,7,c	;volatile
  1981                           
  1982                           ;Timer.c: 8: INTCON2bits.TMR0IP = 0;
  1983  0016A8  94F1               	bcf	intcon2,2,c	;volatile
  1984                           
  1985                           ;Timer.c: 9: INTCONbits.TMR0IE = 1;
  1986  0016AA  8AF2               	bsf	intcon,5,c	;volatile
  1987                           
  1988                           ;Timer.c: 10: INTCONbits.GIEH = 1;
  1989  0016AC  8EF2               	bsf	intcon,7,c	;volatile
  1990                           
  1991                           ;Timer.c: 11: INTCONbits.GIEL = 1;
  1992  0016AE  8CF2               	bsf	intcon,6,c	;volatile
  1993                           
  1994                           ;Timer.c: 12: T0CON = 0;
  1995  0016B0  0E00               	movlw	0
  1996  0016B2  6ED5               	movwf	4053,c	;volatile
  1997                           
  1998                           ;Timer.c: 13: timer0_reset();
  1999  0016B4  EC80  F00B         	call	_timer0_reset	;wreg free
  2000  0016B8  0012               	return		;funcret
  2001  0016BA                     __end_of_timer0_init:
  2002                           	opt stack 0
  2003                           tblptru	equ	0xFF8
  2004                           tblptrh	equ	0xFF7
  2005                           tblptrl	equ	0xFF6
  2006                           tablat	equ	0xFF5
  2007                           prodh	equ	0xFF4
  2008                           prodl	equ	0xFF3
  2009                           intcon	equ	0xFF2
  2010                           intcon2	equ	0xFF1
  2011                           wreg	equ	0xFE8
  2012                           postinc2	equ	0xFDE
  2013                           postdec2	equ	0xFDD
  2014                           fsr2h	equ	0xFDA
  2015                           fsr2l	equ	0xFD9
  2016                           status	equ	0xFD8
  2017                           
  2018 ;; *************** function _timer0_reset *****************
  2019 ;; Defined at:
  2020 ;;		line 16 in file "Timer.c"
  2021 ;; Parameters:    Size  Location     Type
  2022 ;;		None
  2023 ;; Auto vars:     Size  Location     Type
  2024 ;;		None
  2025 ;; Return value:  Size  Location     Type
  2026 ;;                  1    wreg      void 
  2027 ;; Registers used:
  2028 ;;		wreg, status,2
  2029 ;; Tracked objects:
  2030 ;;		On entry : 0/0
  2031 ;;		On exit  : 0/0
  2032 ;;		Unchanged: 0/0
  2033 ;; Data sizes:     COMRAM   BANK0   BANK1   BANK2   BANK3   BANK4   BANK5   BANK6   BANK7   BANK8   BANK9  BANK10  BANK1
      +1  BANK12  BANK13  BANK14  BANK15
  2034 ;;      Params:         0       0       0       0       0       0       0       0       0       0       0       0       
      +0       0       0       0       0
  2035 ;;      Locals:         0       0       0       0       0       0       0       0       0       0       0       0       
      +0       0       0       0       0
  2036 ;;      Temps:          0       0       0       0       0       0       0       0       0       0       0       0       
      +0       0       0       0       0
  2037 ;;      Totals:         0       0       0       0       0       0       0       0       0       0       0       0       
      +0       0       0       0       0
  2038 ;;Total ram usage:        0 bytes
  2039 ;; Hardware stack levels used:    1
  2040 ;; Hardware stack levels required when called:   11
  2041 ;; This function calls:
  2042 ;;		Nothing
  2043 ;; This function is called by:
  2044 ;;		_timer0_init
  2045 ;; This function uses a non-reentrant model
  2046 ;;
  2047                           
  2048                           	psect	text16
  2049  001700                     __ptext16:
  2050                           	opt stack 0
  2051  001700                     _timer0_reset:
  2052                           	opt stack 18
  2053                           
  2054                           ;Timer.c: 18: TMR0IF = 0;
  2055                           
  2056                           ;incstack = 0
  2057  001700  94F2               	bcf	intcon,2,c	;volatile
  2058                           
  2059                           ;Timer.c: 19: TMR0ON = 0;
  2060  001702  9ED5               	bcf	4053,7,c	;volatile
  2061                           
  2062                           ;Timer.c: 20: TMR0 = -125000;
  2063  001704  0E17               	movlw	23
  2064  001706  6ED7               	movwf	4055,c	;volatile
  2065  001708  0EB8               	movlw	184
  2066  00170A  6ED6               	movwf	4054,c	;volatile
  2067                           
  2068                           ;Timer.c: 21: TMR0ON = 1;
  2069  00170C  8ED5               	bsf	4053,7,c	;volatile
  2070  00170E  0012               	return		;funcret
  2071  001710                     __end_of_timer0_reset:
  2072                           	opt stack 0
  2073                           tblptru	equ	0xFF8
  2074                           tblptrh	equ	0xFF7
  2075                           tblptrl	equ	0xFF6
  2076                           tablat	equ	0xFF5
  2077                           prodh	equ	0xFF4
  2078                           prodl	equ	0xFF3
  2079                           intcon	equ	0xFF2
  2080                           intcon2	equ	0xFF1
  2081                           wreg	equ	0xFE8
  2082                           postinc2	equ	0xFDE
  2083                           postdec2	equ	0xFDD
  2084                           fsr2h	equ	0xFDA
  2085                           fsr2l	equ	0xFD9
  2086                           status	equ	0xFD8
  2087                           
  2088 ;; *************** function _init *****************
  2089 ;; Defined at:
  2090 ;;		line 31 in file "Tn06_LCD.c"
  2091 ;; Parameters:    Size  Location     Type
  2092 ;;		None
  2093 ;; Auto vars:     Size  Location     Type
  2094 ;;		None
  2095 ;; Return value:  Size  Location     Type
  2096 ;;                  1    wreg      void 
  2097 ;; Registers used:
  2098 ;;		wreg, status,2
  2099 ;; Tracked objects:
  2100 ;;		On entry : 0/0
  2101 ;;		On exit  : 0/0
  2102 ;;		Unchanged: 0/0
  2103 ;; Data sizes:     COMRAM   BANK0   BANK1   BANK2   BANK3   BANK4   BANK5   BANK6   BANK7   BANK8   BANK9  BANK10  BANK1
      +1  BANK12  BANK13  BANK14  BANK15
  2104 ;;      Params:         0       0       0       0       0       0       0       0       0       0       0       0       
      +0       0       0       0       0
  2105 ;;      Locals:         0       0       0       0       0       0       0       0       0       0       0       0       
      +0       0       0       0       0
  2106 ;;      Temps:          0       0       0       0       0       0       0       0       0       0       0       0       
      +0       0       0       0       0
  2107 ;;      Totals:         0       0       0       0       0       0       0       0       0       0       0       0       
      +0       0       0       0       0
  2108 ;;Total ram usage:        0 bytes
  2109 ;; Hardware stack levels used:    1
  2110 ;; Hardware stack levels required when called:   11
  2111 ;; This function calls:
  2112 ;;		Nothing
  2113 ;; This function is called by:
  2114 ;;		_main
  2115 ;; This function uses a non-reentrant model
  2116 ;;
  2117                           
  2118                           	psect	text17
  2119  0016CC                     __ptext17:
  2120                           	opt stack 0
  2121  0016CC                     _init:
  2122                           	opt stack 19
  2123                           
  2124                           ;Tn06_LCD.c: 33: ADCON1 = 0x0F;
  2125                           
  2126                           ;incstack = 0
  2127  0016CC  0E0F               	movlw	15
  2128  0016CE  6EC1               	movwf	4033,c	;volatile
  2129                           
  2130                           ;Tn06_LCD.c: 34: key_io = 0x0F;
  2131  0016D0  0E0F               	movlw	15
  2132  0016D2  6E93               	movwf	3987,c	;volatile
  2133                           
  2134                           ;Tn06_LCD.c: 35: led_io = 0;
  2135  0016D4  0E00               	movlw	0
  2136  0016D6  6E95               	movwf	3989,c	;volatile
  2137                           
  2138                           ;Tn06_LCD.c: 36: led = 0;
  2139  0016D8  0E00               	movlw	0
  2140  0016DA  6E8C               	movwf	3980,c	;volatile
  2141  0016DC  0012               	return		;funcret
  2142  0016DE                     __end_of_init:
  2143                           	opt stack 0
  2144                           tblptru	equ	0xFF8
  2145                           tblptrh	equ	0xFF7
  2146                           tblptrl	equ	0xFF6
  2147                           tablat	equ	0xFF5
  2148                           prodh	equ	0xFF4
  2149                           prodl	equ	0xFF3
  2150                           intcon	equ	0xFF2
  2151                           intcon2	equ	0xFF1
  2152                           wreg	equ	0xFE8
  2153                           postinc2	equ	0xFDE
  2154                           postdec2	equ	0xFDD
  2155                           fsr2h	equ	0xFDA
  2156                           fsr2l	equ	0xFD9
  2157                           status	equ	0xFD8
  2158                           
  2159 ;; *************** function _timer0_isr *****************
  2160 ;; Defined at:
  2161 ;;		line 24 in file "Timer.c"
  2162 ;; Parameters:    Size  Location     Type
  2163 ;;		None
  2164 ;; Auto vars:     Size  Location     Type
  2165 ;;		None
  2166 ;; Return value:  Size  Location     Type
  2167 ;;                  1    wreg      void 
  2168 ;; Registers used:
  2169 ;;		wreg, fsr2l, fsr2h, status,2, status,0, tblptrl, tblptrh, tblptru, prodl, prodh, cstack
  2170 ;; Tracked objects:
  2171 ;;		On entry : 0/0
  2172 ;;		On exit  : 0/0
  2173 ;;		Unchanged: 0/0
  2174 ;; Data sizes:     COMRAM   BANK0   BANK1   BANK2   BANK3   BANK4   BANK5   BANK6   BANK7   BANK8   BANK9  BANK10  BANK1
      +1  BANK12  BANK13  BANK14  BANK15
  2175 ;;      Params:         0       0       0       0       0       0       0       0       0       0       0       0       
      +0       0       0       0       0
  2176 ;;      Locals:         0       0       0       0       0       0       0       0       0       0       0       0       
      +0       0       0       0       0
  2177 ;;      Temps:         21       0       0       0       0       0       0       0       0       0       0       0       
      +0       0       0       0       0
  2178 ;;      Totals:        21       0       0       0       0       0       0       0       0       0       0       0       
      +0       0       0       0       0
  2179 ;;Total ram usage:       21 bytes
  2180 ;; Hardware stack levels used:    1
  2181 ;; Hardware stack levels required when called:   10
  2182 ;; This function calls:
  2183 ;;		_timer_process
  2184 ;;		i1_timer0_reset
  2185 ;; This function is called by:
  2186 ;;		Interrupt level 1
  2187 ;; This function uses a non-reentrant model
  2188 ;;
  2189                           
  2190                           	psect	intcodelo
  2191  000018                     __pintcodelo:
  2192                           	opt stack 0
  2193  000018                     _timer0_isr:
  2194                           	opt stack 12
  2195                           
  2196                           ;incstack = 0
  2197  000018  8033               	bsf	btemp,0,c	;set compiler interrupt flag (level 1)
  2198  00001A  CFD8 F01C          	movff	status,??_timer0_isr
  2199  00001E  CFE8 F01D          	movff	wreg,??_timer0_isr+1
  2200  000022  CFE0 F01E          	movff	bsr,??_timer0_isr+2
  2201  000026  CFFA F01F          	movff	pclath,??_timer0_isr+3
  2202  00002A  CFFB F020          	movff	pclatu,??_timer0_isr+4
  2203  00002E  CFE9 F021          	movff	fsr0l,??_timer0_isr+5
  2204  000032  CFEA F022          	movff	fsr0h,??_timer0_isr+6
  2205  000036  CFE1 F023          	movff	fsr1l,??_timer0_isr+7
  2206  00003A  CFE2 F024          	movff	fsr1h,??_timer0_isr+8
  2207  00003E  CFD9 F025          	movff	fsr2l,??_timer0_isr+9
  2208  000042  CFDA F026          	movff	fsr2h,??_timer0_isr+10
  2209  000046  CFF3 F027          	movff	prodl,??_timer0_isr+11
  2210  00004A  CFF4 F028          	movff	prodh,??_timer0_isr+12
  2211  00004E  CFF6 F029          	movff	tblptrl,??_timer0_isr+13
  2212  000052  CFF7 F02A          	movff	tblptrh,??_timer0_isr+14
  2213  000056  CFF8 F02B          	movff	tblptru,??_timer0_isr+15
  2214  00005A  CFF5 F02C          	movff	tablat,??_timer0_isr+16
  2215  00005E  C033  F02D         	movff	btemp,??_timer0_isr+17
  2216  000062  C034  F02E         	movff	btemp+1,??_timer0_isr+18
  2217  000066  C035  F02F         	movff	btemp+2,??_timer0_isr+19
  2218  00006A  C036  F030         	movff	btemp+3,??_timer0_isr+20
  2219                           
  2220                           ;Timer.c: 26: if (TMR0IE & TMR0IF)
  2221  00006E  0E01               	movlw	1
  2222  000070  AAF2               	btfss	intcon,5,c	;volatile
  2223  000072  0E00               	movlw	0
  2224  000074  A4F2               	btfss	intcon,2,c	;volatile
  2225  000076  0E00               	movlw	0
  2226  000078  A0E8               	btfss	wreg,0,c
  2227  00007A  D004               	goto	i1l31
  2228                           
  2229                           ;Timer.c: 27: {
  2230                           ;Timer.c: 28: timer0_reset();
  2231  00007C  EC88  F00B         	call	i1_timer0_reset	;wreg free
  2232                           
  2233                           ;Timer.c: 29: timer_process();
  2234  000080  ECAA  F00B         	call	_timer_process	;wreg free
  2235  000084                     i1l31:
  2236  000084  C030  F036         	movff	??_timer0_isr+20,btemp+3
  2237  000088  C02F  F035         	movff	??_timer0_isr+19,btemp+2
  2238  00008C  C02E  F034         	movff	??_timer0_isr+18,btemp+1
  2239  000090  C02D  F033         	movff	??_timer0_isr+17,btemp
  2240  000094  C02C  FFF5         	movff	??_timer0_isr+16,tablat
  2241  000098  C02B  FFF8         	movff	??_timer0_isr+15,tblptru
  2242  00009C  C02A  FFF7         	movff	??_timer0_isr+14,tblptrh
  2243  0000A0  C029  FFF6         	movff	??_timer0_isr+13,tblptrl
  2244  0000A4  C028  FFF4         	movff	??_timer0_isr+12,prodh
  2245  0000A8  C027  FFF3         	movff	??_timer0_isr+11,prodl
  2246  0000AC  C026  FFDA         	movff	??_timer0_isr+10,fsr2h
  2247  0000B0  C025  FFD9         	movff	??_timer0_isr+9,fsr2l
  2248  0000B4  C024  FFE2         	movff	??_timer0_isr+8,fsr1h
  2249  0000B8  C023  FFE1         	movff	??_timer0_isr+7,fsr1l
  2250  0000BC  C022  FFEA         	movff	??_timer0_isr+6,fsr0h
  2251  0000C0  C021  FFE9         	movff	??_timer0_isr+5,fsr0l
  2252  0000C4  C020  FFFB         	movff	??_timer0_isr+4,pclatu
  2253  0000C8  C01F  FFFA         	movff	??_timer0_isr+3,pclath
  2254  0000CC  C01E  FFE0         	movff	??_timer0_isr+2,bsr
  2255  0000D0  C01D  FFE8         	movff	??_timer0_isr+1,wreg
  2256  0000D4  C01C  FFD8         	movff	??_timer0_isr,status
  2257  0000D8  9033               	bcf	btemp,0,c	;clear compiler interrupt flag (level 1)
  2258  0000DA  0010               	retfie	
  2259  0000DC                     __end_of_timer0_isr:
  2260                           	opt stack 0
  2261                           pclatu	equ	0xFFB
  2262                           pclath	equ	0xFFA
  2263                           tblptru	equ	0xFF8
  2264                           tblptrh	equ	0xFF7
  2265                           tblptrl	equ	0xFF6
  2266                           tablat	equ	0xFF5
  2267                           prodh	equ	0xFF4
  2268                           prodl	equ	0xFF3
  2269                           intcon	equ	0xFF2
  2270                           intcon2	equ	0xFF1
  2271                           fsr0h	equ	0xFEA
  2272                           fsr0l	equ	0xFE9
  2273                           wreg	equ	0xFE8
  2274                           fsr1h	equ	0xFE2
  2275                           fsr1l	equ	0xFE1
  2276                           bsr	equ	0xFE0
  2277                           postinc2	equ	0xFDE
  2278                           postdec2	equ	0xFDD
  2279                           fsr2h	equ	0xFDA
  2280                           fsr2l	equ	0xFD9
  2281                           status	equ	0xFD8
  2282                           
  2283 ;; *************** function i1_timer0_reset *****************
  2284 ;; Defined at:
  2285 ;;		line 16 in file "Timer.c"
  2286 ;; Parameters:    Size  Location     Type
  2287 ;;		None
  2288 ;; Auto vars:     Size  Location     Type
  2289 ;;		None
  2290 ;; Return value:  Size  Location     Type
  2291 ;;                  1    wreg      void 
  2292 ;; Registers used:
  2293 ;;		wreg, status,2
  2294 ;; Tracked objects:
  2295 ;;		On entry : 0/0
  2296 ;;		On exit  : 0/0
  2297 ;;		Unchanged: 0/0
  2298 ;; Data sizes:     COMRAM   BANK0   BANK1   BANK2   BANK3   BANK4   BANK5   BANK6   BANK7   BANK8   BANK9  BANK10  BANK1
      +1  BANK12  BANK13  BANK14  BANK15
  2299 ;;      Params:         0       0       0       0       0       0       0       0       0       0       0       0       
      +0       0       0       0       0
  2300 ;;      Locals:         0       0       0       0       0       0       0       0       0       0       0       0       
      +0       0       0       0       0
  2301 ;;      Temps:          0       0       0       0       0       0       0       0       0       0       0       0       
      +0       0       0       0       0
  2302 ;;      Totals:         0       0       0       0       0       0       0       0       0       0       0       0       
      +0       0       0       0       0
  2303 ;;Total ram usage:        0 bytes
  2304 ;; Hardware stack levels used:    1
  2305 ;; This function calls:
  2306 ;;		Nothing
  2307 ;; This function is called by:
  2308 ;;		_timer0_isr
  2309 ;; This function uses a non-reentrant model
  2310 ;;
  2311                           
  2312                           	psect	text19
  2313  001710                     __ptext19:
  2314                           	opt stack 0
  2315  001710                     i1_timer0_reset:
  2316                           	opt stack 21
  2317                           
  2318                           ;Timer.c: 18: TMR0IF = 0;
  2319                           
  2320                           ;incstack = 0
  2321  001710  94F2               	bcf	intcon,2,c	;volatile
  2322                           
  2323                           ;Timer.c: 19: TMR0ON = 0;
  2324  001712  9ED5               	bcf	4053,7,c	;volatile
  2325                           
  2326                           ;Timer.c: 20: TMR0 = -125000;
  2327  001714  0E17               	movlw	23
  2328  001716  6ED7               	movwf	4055,c	;volatile
  2329  001718  0EB8               	movlw	184
  2330  00171A  6ED6               	movwf	4054,c	;volatile
  2331                           
  2332                           ;Timer.c: 21: TMR0ON = 1;
  2333  00171C  8ED5               	bsf	4053,7,c	;volatile
  2334  00171E  0012               	return		;funcret
  2335  001720                     __end_ofi1_timer0_reset:
  2336                           	opt stack 0
  2337                           pclatu	equ	0xFFB
  2338                           pclath	equ	0xFFA
  2339                           tblptru	equ	0xFF8
  2340                           tblptrh	equ	0xFF7
  2341                           tblptrl	equ	0xFF6
  2342                           tablat	equ	0xFF5
  2343                           prodh	equ	0xFF4
  2344                           prodl	equ	0xFF3
  2345                           intcon	equ	0xFF2
  2346                           intcon2	equ	0xFF1
  2347                           fsr0h	equ	0xFEA
  2348                           fsr0l	equ	0xFE9
  2349                           wreg	equ	0xFE8
  2350                           fsr1h	equ	0xFE2
  2351                           fsr1l	equ	0xFE1
  2352                           bsr	equ	0xFE0
  2353                           postinc2	equ	0xFDE
  2354                           postdec2	equ	0xFDD
  2355                           fsr2h	equ	0xFDA
  2356                           fsr2l	equ	0xFD9
  2357                           status	equ	0xFD8
  2358                           
  2359 ;; *************** function _timer_process *****************
  2360 ;; Defined at:
  2361 ;;		line 71 in file "Tn06_LCD.c"
  2362 ;; Parameters:    Size  Location     Type
  2363 ;;		None
  2364 ;; Auto vars:     Size  Location     Type
  2365 ;;		None
  2366 ;; Return value:  Size  Location     Type
  2367 ;;                  1    wreg      void 
  2368 ;; Registers used:
  2369 ;;		wreg, fsr2l, fsr2h, status,2, status,0, tblptrl, tblptrh, tblptru, prodl, prodh, cstack
  2370 ;; Tracked objects:
  2371 ;;		On entry : 0/0
  2372 ;;		On exit  : 0/0
  2373 ;;		Unchanged: 0/0
  2374 ;; Data sizes:     COMRAM   BANK0   BANK1   BANK2   BANK3   BANK4   BANK5   BANK6   BANK7   BANK8   BANK9  BANK10  BANK1
      +1  BANK12  BANK13  BANK14  BANK15
  2375 ;;      Params:         0       0       0       0       0       0       0       0       0       0       0       0       
      +0       0       0       0       0
  2376 ;;      Locals:         0       0       0       0       0       0       0       0       0       0       0       0       
      +0       0       0       0       0
  2377 ;;      Temps:          0       0       0       0       0       0       0       0       0       0       0       0       
      +0       0       0       0       0
  2378 ;;      Totals:         0       0       0       0       0       0       0       0       0       0       0       0       
      +0       0       0       0       0
  2379 ;;Total ram usage:        0 bytes
  2380 ;; Hardware stack levels used:    1
  2381 ;; Hardware stack levels required when called:    9
  2382 ;; This function calls:
  2383 ;;		_quetphim
  2384 ;; This function is called by:
  2385 ;;		_timer0_isr
  2386 ;; This function uses a non-reentrant model
  2387 ;;
  2388                           
  2389                           	psect	text20
  2390  001754                     __ptext20:
  2391                           	opt stack 0
  2392  001754                     _timer_process:
  2393                           	opt stack 12
  2394                           
  2395                           ;Tn06_LCD.c: 73: quetphim();
  2396                           
  2397                           ;incstack = 0
  2398  001754  EC3B  F00A         	call	_quetphim	;wreg free
  2399  001758  0012               	return		;funcret
  2400  00175A                     __end_of_timer_process:
  2401                           	opt stack 0
  2402                           pclatu	equ	0xFFB
  2403                           pclath	equ	0xFFA
  2404                           tblptru	equ	0xFF8
  2405                           tblptrh	equ	0xFF7
  2406                           tblptrl	equ	0xFF6
  2407                           tablat	equ	0xFF5
  2408                           prodh	equ	0xFF4
  2409                           prodl	equ	0xFF3
  2410                           intcon	equ	0xFF2
  2411                           intcon2	equ	0xFF1
  2412                           fsr0h	equ	0xFEA
  2413                           fsr0l	equ	0xFE9
  2414                           wreg	equ	0xFE8
  2415                           fsr1h	equ	0xFE2
  2416                           fsr1l	equ	0xFE1
  2417                           bsr	equ	0xFE0
  2418                           postinc2	equ	0xFDE
  2419                           postdec2	equ	0xFDD
  2420                           fsr2h	equ	0xFDA
  2421                           fsr2l	equ	0xFD9
  2422                           status	equ	0xFD8
  2423                           
  2424 ;; *************** function _quetphim *****************
  2425 ;; Defined at:
  2426 ;;		line 61 in file "Tn06_LCD.c"
  2427 ;; Parameters:    Size  Location     Type
  2428 ;;		None
  2429 ;; Auto vars:     Size  Location     Type
  2430 ;;  dl_quet         1   26[COMRAM] unsigned char 
  2431 ;; Return value:  Size  Location     Type
  2432 ;;                  1    wreg      void 
  2433 ;; Registers used:
  2434 ;;		wreg, fsr2l, fsr2h, status,2, status,0, tblptrl, tblptrh, tblptru, prodl, prodh, cstack
  2435 ;; Tracked objects:
  2436 ;;		On entry : 0/0
  2437 ;;		On exit  : 0/0
  2438 ;;		Unchanged: 0/0
  2439 ;; Data sizes:     COMRAM   BANK0   BANK1   BANK2   BANK3   BANK4   BANK5   BANK6   BANK7   BANK8   BANK9  BANK10  BANK1
      +1  BANK12  BANK13  BANK14  BANK15
  2440 ;;      Params:         0       0       0       0       0       0       0       0       0       0       0       0       
      +0       0       0       0       0
  2441 ;;      Locals:         1       0       0       0       0       0       0       0       0       0       0       0       
      +0       0       0       0       0
  2442 ;;      Temps:          2       0       0       0       0       0       0       0       0       0       0       0       
      +0       0       0       0       0
  2443 ;;      Totals:         3       0       0       0       0       0       0       0       0       0       0       0       
      +0       0       0       0       0
  2444 ;;Total ram usage:        3 bytes
  2445 ;; Hardware stack levels used:    1
  2446 ;; Hardware stack levels required when called:    8
  2447 ;; This function calls:
  2448 ;;		_getkey
  2449 ;;		i1_xulyphim
  2450 ;; This function is called by:
  2451 ;;		_timer_process
  2452 ;; This function uses a non-reentrant model
  2453 ;;
  2454                           
  2455                           	psect	text21
  2456  001476                     __ptext21:
  2457                           	opt stack 0
  2458  001476                     _quetphim:
  2459                           	opt stack 12
  2460                           
  2461                           ;Tn06_LCD.c: 63: unsigned char dl_quet;
  2462                           ;Tn06_LCD.c: 64: keyout = 0xFF;
  2463                           
  2464                           ;incstack = 0
  2465  001476  688A               	setf	3978,c	;volatile
  2466                           
  2467                           ;Tn06_LCD.c: 65: dl_quet = 0b11101111<<idx;
  2468  001478  C032  F019         	movff	_idx,??_quetphim	;volatile
  2469  00147C  0EEF               	movlw	239
  2470  00147E  6E1A               	movwf	(??_quetphim+1)& (0+255),c
  2471  001480  2A19               	incf	??_quetphim,f,c
  2472  001482  D002               	goto	i1u86_24
  2473  001484                     i1u86_25:
  2474  001484  90D8               	bcf	status,0,c
  2475  001486  361A               	rlcf	??_quetphim+1,f,c
  2476  001488                     i1u86_24:
  2477  001488  2E19               	decfsz	??_quetphim,f,c
  2478  00148A  D7FC               	goto	i1u86_25
  2479  00148C  501A               	movf	??_quetphim+1,w,c
  2480  00148E  6E1B               	movwf	quetphim@dl_quet,c
  2481                           
  2482                           ;Tn06_LCD.c: 66: keyout = dl_quet;
  2483  001490  C01B  FF8A         	movff	quetphim@dl_quet,3978	;volatile
  2484                           
  2485                           ;Tn06_LCD.c: 67: getkey();
  2486  001494  ECB4  F009         	call	_getkey	;wreg free
  2487                           
  2488                           ;Tn06_LCD.c: 68: idx = (++idx)%4;
  2489  001498  2A32               	incf	_idx,f,c	;volatile
  2490  00149A  5032               	movf	_idx,w,c	;volatile
  2491  00149C  0B03               	andlw	3
  2492  00149E  6E32               	movwf	_idx,c	;volatile
  2493                           
  2494                           ;Tn06_LCD.c: 69: if (keyreg!=0xFF) xulyphim();
  2495  0014A0  0100               	movlb	0	; () banked
  2496  0014A2  2978               	incf	_keyreg& (0+255),w,b	;volatile
  2497  0014A4  B4D8               	btfsc	status,2,c
  2498  0014A6  0012               	return	
  2499                           
  2500                           ; BSR set to: 0
  2501  0014A8  ECB9  F00A         	call	i1_xulyphim	;wreg free
  2502  0014AC  0012               	return	
  2503  0014AE                     __end_of_quetphim:
  2504                           	opt stack 0
  2505                           pclatu	equ	0xFFB
  2506                           pclath	equ	0xFFA
  2507                           tblptru	equ	0xFF8
  2508                           tblptrh	equ	0xFF7
  2509                           tblptrl	equ	0xFF6
  2510                           tablat	equ	0xFF5
  2511                           prodh	equ	0xFF4
  2512                           prodl	equ	0xFF3
  2513                           intcon	equ	0xFF2
  2514                           intcon2	equ	0xFF1
  2515                           fsr0h	equ	0xFEA
  2516                           fsr0l	equ	0xFE9
  2517                           wreg	equ	0xFE8
  2518                           fsr1h	equ	0xFE2
  2519                           fsr1l	equ	0xFE1
  2520                           bsr	equ	0xFE0
  2521                           postinc2	equ	0xFDE
  2522                           postdec2	equ	0xFDD
  2523                           fsr2h	equ	0xFDA
  2524                           fsr2l	equ	0xFD9
  2525                           status	equ	0xFD8
  2526                           
  2527 ;; *************** function i1_xulyphim *****************
  2528 ;; Defined at:
  2529 ;;		line 39 in file "Tn06_LCD.c"
  2530 ;; Parameters:    Size  Location     Type
  2531 ;;		None
  2532 ;; Auto vars:     Size  Location     Type
  2533 ;;		None
  2534 ;; Return value:  Size  Location     Type
  2535 ;;                  1    wreg      void 
  2536 ;; Registers used:
  2537 ;;		wreg, fsr2l, fsr2h, status,2, status,0, tblptrl, tblptrh, tblptru, prodl, prodh, cstack
  2538 ;; Tracked objects:
  2539 ;;		On entry : 0/0
  2540 ;;		On exit  : 0/0
  2541 ;;		Unchanged: 0/0
  2542 ;; Data sizes:     COMRAM   BANK0   BANK1   BANK2   BANK3   BANK4   BANK5   BANK6   BANK7   BANK8   BANK9  BANK10  BANK1
      +1  BANK12  BANK13  BANK14  BANK15
  2543 ;;      Params:         0       0       0       0       0       0       0       0       0       0       0       0       
      +0       0       0       0       0
  2544 ;;      Locals:         0       0       0       0       0       0       0       0       0       0       0       0       
      +0       0       0       0       0
  2545 ;;      Temps:          0       0       0       0       0       0       0       0       0       0       0       0       
      +0       0       0       0       0
  2546 ;;      Totals:         0       0       0       0       0       0       0       0       0       0       0       0       
      +0       0       0       0       0
  2547 ;;Total ram usage:        0 bytes
  2548 ;; Hardware stack levels used:    1
  2549 ;; Hardware stack levels required when called:    7
  2550 ;; This function calls:
  2551 ;;		i1_lcd_gotoxy
  2552 ;;		i1_printf
  2553 ;; This function is called by:
  2554 ;;		_quetphim
  2555 ;; This function uses a non-reentrant model
  2556 ;;
  2557                           
  2558                           	psect	text22
  2559  001572                     __ptext22:
  2560                           	opt stack 0
  2561  001572                     i1_xulyphim:
  2562                           	opt stack 12
  2563                           
  2564                           ;Tn06_LCD.c: 41: led = keyreg;
  2565                           
  2566                           ;incstack = 0
  2567  001572  C078  FF8C         	movff	_keyreg,3980	;volatile
  2568                           
  2569                           ;Tn06_LCD.c: 42: lcd_gotoxy(1,3);
  2570  001576  0E03               	movlw	3
  2571  001578  6E05               	movwf	i1lcd_gotoxy@col,c
  2572  00157A  0E01               	movlw	1
  2573  00157C  EC3E  F00B         	call	i1_lcd_gotoxy
  2574                           
  2575                           ;Tn06_LCD.c: 43: printf("%d",keyreg);
  2576  001580  0E4B               	movlw	low STR_1
  2577  001582  6E0D               	movwf	i1printf@f,c
  2578  001584  0E10               	movlw	high STR_1
  2579  001586  6E0E               	movwf	i1printf@f+1,c
  2580  001588  C078  F00F         	movff	_keyreg,?i1_printf+2	;volatile
  2581  00158C  6A10               	clrf	?i1_printf+3,c
  2582  00158E  ECC8  F008         	call	i1_printf	;wreg free
  2583  001592  0012               	return		;funcret
  2584  001594                     __end_ofi1_xulyphim:
  2585                           	opt stack 0
  2586                           pclatu	equ	0xFFB
  2587                           pclath	equ	0xFFA
  2588                           tblptru	equ	0xFF8
  2589                           tblptrh	equ	0xFF7
  2590                           tblptrl	equ	0xFF6
  2591                           tablat	equ	0xFF5
  2592                           prodh	equ	0xFF4
  2593                           prodl	equ	0xFF3
  2594                           intcon	equ	0xFF2
  2595                           intcon2	equ	0xFF1
  2596                           fsr0h	equ	0xFEA
  2597                           fsr0l	equ	0xFE9
  2598                           wreg	equ	0xFE8
  2599                           fsr1h	equ	0xFE2
  2600                           fsr1l	equ	0xFE1
  2601                           bsr	equ	0xFE0
  2602                           postinc2	equ	0xFDE
  2603                           postdec2	equ	0xFDD
  2604                           fsr2h	equ	0xFDA
  2605                           fsr2l	equ	0xFD9
  2606                           status	equ	0xFD8
  2607                           
  2608 ;; *************** function i1_printf *****************
  2609 ;; Defined at:
  2610 ;;		line 464 in file "E:\MPLABX\sources\common\doprnt.c"
  2611 ;; Parameters:    Size  Location     Type
  2612 ;;  f               2   12[COMRAM] PTR const unsigned char 
  2613 ;;		 -> STR_1(3), 
  2614 ;; Auto vars:     Size  Location     Type
  2615 ;;  printf          4    0        struct .
  2616 ;;  printf          3    0        PTR const unsigned char 
  2617 ;;  printf          2   21[COMRAM] unsigned int 
  2618 ;;  printf          2   17[COMRAM] PTR void [1]
  2619 ;;		 -> ?i1_printf(2), ?_printf(2), 
  2620 ;;  printf          2    0        unsigned int 
  2621 ;;  printf          1   23[COMRAM] char 
  2622 ;;  printf          1   20[COMRAM] char 
  2623 ;;  printf          1   19[COMRAM] unsigned char 
  2624 ;; Return value:  Size  Location     Type
  2625 ;;                  2   12[COMRAM] int 
  2626 ;; Registers used:
  2627 ;;		wreg, fsr2l, fsr2h, status,2, status,0, tblptrl, tblptrh, tblptru, prodl, prodh, cstack
  2628 ;; Tracked objects:
  2629 ;;		On entry : 0/0
  2630 ;;		On exit  : 0/0
  2631 ;;		Unchanged: 0/0
  2632 ;; Data sizes:     COMRAM   BANK0   BANK1   BANK2   BANK3   BANK4   BANK5   BANK6   BANK7   BANK8   BANK9  BANK10  BANK1
      +1  BANK12  BANK13  BANK14  BANK15
  2633 ;;      Params:         4       0       0       0       0       0       0       0       0       0       0       0       
      +0       0       0       0       0
  2634 ;;      Locals:         7       0       0       0       0       0       0       0       0       0       0       0       
      +0       0       0       0       0
  2635 ;;      Temps:          1       0       0       0       0       0       0       0       0       0       0       0       
      +0       0       0       0       0
  2636 ;;      Totals:        12       0       0       0       0       0       0       0       0       0       0       0       
      +0       0       0       0       0
  2637 ;;Total ram usage:       12 bytes
  2638 ;; Hardware stack levels used:    1
  2639 ;; Hardware stack levels required when called:    6
  2640 ;; This function calls:
  2641 ;;		i1___lwdiv
  2642 ;;		i1___lwmod
  2643 ;;		i1_putch
  2644 ;; This function is called by:
  2645 ;;		i1_xulyphim
  2646 ;; This function uses a non-reentrant model
  2647 ;;
  2648                           
  2649                           	psect	text23
  2650  001190                     __ptext23:
  2651                           	opt stack 0
  2652  001190                     i1_printf:
  2653                           	opt stack 12
  2654                           
  2655                           ;doprnt.c: 466: va_list ap;
  2656                           ;doprnt.c: 499: signed char c;
  2657                           ;doprnt.c: 506: signed char prec;
  2658                           ;doprnt.c: 508: unsigned char flag;
  2659                           ;doprnt.c: 523: union {
  2660                           ;doprnt.c: 524: unsigned long vd;
  2661                           ;doprnt.c: 525: double integ;
  2662                           ;doprnt.c: 526: } tmpval;
  2663                           ;doprnt.c: 528: unsigned int val;
  2664                           ;doprnt.c: 529: unsigned len;
  2665                           ;doprnt.c: 530: const char * cp;
  2666                           ;doprnt.c: 533: *ap = __va_start();
  2667                           
  2668                           ;incstack = 0
  2669  001190  0E0F               	movlw	low (?i1_printf+2)
  2670  001192  6E12               	movwf	i1printf@ap,c
  2671  001194  0E00               	movlw	high (?i1_printf+2)
  2672  001196  6E13               	movwf	i1printf@ap+1,c
  2673                           
  2674                           ;doprnt.c: 536: while(c = *f++) {
  2675  001198  D085               	goto	i1u69_20
  2676  00119A                     
  2677                           ;doprnt.c: 538: if(c != '%')
  2678  00119A  0E25               	movlw	37
  2679  00119C  1818               	xorwf	i1printf@c,w,c
  2680  00119E  B4D8               	btfsc	status,2,c
  2681  0011A0  D004               	goto	i1l209
  2682                           
  2683                           ;doprnt.c: 540: {
  2684                           ;doprnt.c: 541: (putch(c) );
  2685  0011A2  5018               	movf	i1printf@c,w,c
  2686  0011A4  ECA5  F00B         	call	i1_putch
  2687                           
  2688                           ;doprnt.c: 542: continue;
  2689  0011A8  D07D               	goto	i1u69_20
  2690  0011AA                     i1l209:
  2691                           
  2692                           ;doprnt.c: 543: }
  2693                           ;doprnt.c: 548: flag = 0;
  2694  0011AA  0E00               	movlw	0
  2695  0011AC  6E14               	movwf	i1printf@flag,c
  2696                           
  2697                           ;doprnt.c: 822: }
  2698                           
  2699                           ;doprnt.c: 813: continue;
  2700                           
  2701                           ;doprnt.c: 802: default:
  2702                           
  2703                           ;doprnt.c: 698: case 'i':
  2704                           ;doprnt.c: 699: break;
  2705                           
  2706                           ;doprnt.c: 697: case 'd':
  2707                           
  2708                           ;doprnt.c: 638: goto alldone;
  2709                           
  2710                           ;doprnt.c: 637: case 0:
  2711                           
  2712                           ;doprnt.c: 635: switch(c = *f++) {
  2713  0011AE  C00D  FFF6         	movff	i1printf@f,tblptrl
  2714  0011B2  C00E  FFF7         	movff	i1printf@f+1,tblptrh
  2715  0011B6  4A0D               	infsnz	i1printf@f,f,c
  2716  0011B8  2A0E               	incf	i1printf@f+1,f,c
  2717  0011BA                     	if	0	;tblptru may be non-zero
  2718  0011BA                     	endif
  2719  0011BA                     	if	1	;Program memory is > 0xFFFF, there are 3 active tblptr bytes
  2720  0011BA  0E00               	movlw	low (__mediumconst shr (0+16))
  2721  0011BC  6EF8               	movwf	tblptru,c
  2722  0011BE                     	endif
  2723  0011BE  0008               	tblrd		*
  2724  0011C0  CFF5 F018          	movff	tablat,i1printf@c
  2725  0011C4  5018               	movf	i1printf@c,w,c
  2726                           
  2727                           ; Switch size 1, requested type "space"
  2728                           ; Number of cases is 3, Range of values is 0 to 105
  2729                           ; switch strategies available:
  2730                           ; Name         Instructions Cycles
  2731                           ; simple_byte           10     6 (average)
  2732                           ;	Chosen strategy is simple_byte
  2733  0011C6  0A00               	xorlw	0	; case 0
  2734  0011C8  B4D8               	btfsc	status,2,c
  2735  0011CA  0012               	return	
  2736  0011CC  0A64               	xorlw	100	; case 100
  2737  0011CE  B4D8               	btfsc	status,2,c
  2738  0011D0  D003               	goto	i1l215
  2739  0011D2  0A0D               	xorlw	13	; case 105
  2740  0011D4  A4D8               	btfss	status,2,c
  2741  0011D6  D066               	goto	i1u69_20
  2742  0011D8                     i1l215:
  2743                           
  2744                           ;doprnt.c: 1253: {
  2745                           ;doprnt.c: 1259: val = (int)(*(int *)__va_arg((*(int **)ap), (int)0));
  2746  0011D8  C012  FFD9         	movff	i1printf@ap,fsr2l
  2747  0011DC  C013  FFDA         	movff	i1printf@ap+1,fsr2h
  2748  0011E0  CFDE F016          	movff	postinc2,i1printf@val
  2749  0011E4  CFDD F017          	movff	postdec2,i1printf@val+1
  2750  0011E8  0E02               	movlw	2
  2751  0011EA  2612               	addwf	i1printf@ap,f,c
  2752  0011EC  0E00               	movlw	0
  2753  0011EE  2213               	addwfc	i1printf@ap+1,f,c
  2754                           
  2755                           ;doprnt.c: 1261: if((int)val < 0) {
  2756  0011F0  AE17               	btfss	i1printf@val+1,7,c
  2757  0011F2  D006               	goto	i1l217
  2758                           
  2759                           ;doprnt.c: 1262: flag |= 0x03;
  2760  0011F4  0E03               	movlw	3
  2761  0011F6  1214               	iorwf	i1printf@flag,f,c
  2762                           
  2763                           ;doprnt.c: 1263: val = -val;
  2764  0011F8  6C16               	negf	i1printf@val,c
  2765  0011FA  1E17               	comf	i1printf@val+1,f,c
  2766  0011FC  B0D8               	btfsc	status,0,c
  2767  0011FE  2A17               	incf	i1printf@val+1,f,c
  2768  001200                     i1l217:
  2769                           
  2770                           ;doprnt.c: 1264: }
  2771                           ;doprnt.c: 1266: }
  2772                           ;doprnt.c: 1305: for(c = 1 ; c != sizeof dpowers/sizeof dpowers[0] ; c++)
  2773  001200  0E01               	movlw	1
  2774  001202  6E18               	movwf	i1printf@c,c
  2775  001204                     i1l1480:
  2776  001204  0E05               	movlw	5
  2777  001206  1818               	xorwf	i1printf@c,w,c
  2778  001208  B4D8               	btfsc	status,2,c
  2779  00120A  D015               	goto	i1u67_20
  2780                           
  2781                           ;doprnt.c: 1306: if(val < dpowers[c])
  2782  00120C  5018               	movf	i1printf@c,w,c
  2783  00120E  0D02               	mullw	2
  2784  001210  0E01               	movlw	low _dpowers
  2785  001212  24F3               	addwf	prodl,w,c
  2786  001214  6EF6               	movwf	tblptrl,c
  2787  001216  0E10               	movlw	high _dpowers
  2788  001218  20F4               	addwfc	prodh,w,c
  2789  00121A  6EF7               	movwf	tblptrh,c
  2790  00121C                     	if	1	;There are 3 active tblptr bytes
  2791  00121C  6AF8               	clrf	tblptru,c
  2792  00121E  0E00               	movlw	low (__mediumconst shr (0+16))
  2793  001220  22F8               	addwfc	tblptru,f,c
  2794  001222                     	endif
  2795  001222  0009               	tblrd		*+
  2796  001224  50F5               	movf	tablat,w,c
  2797  001226  5C16               	subwf	i1printf@val,w,c
  2798  001228  0009               	tblrd		*+
  2799  00122A  50F5               	movf	tablat,w,c
  2800  00122C  5817               	subwfb	i1printf@val+1,w,c
  2801  00122E  A0D8               	btfss	status,0,c
  2802  001230  D002               	goto	i1u67_20
  2803                           
  2804                           ;doprnt.c: 1307: break;
  2805  001232  2A18               	incf	i1printf@c,f,c
  2806  001234  D7E7               	goto	i1l1480
  2807  001236                     i1u67_20:
  2808                           
  2809                           ;doprnt.c: 1422: {
  2810                           ;doprnt.c: 1438: if(flag & 0x03)
  2811  001236  C014  F011         	movff	i1printf@flag,??i1_printf
  2812  00123A  0E03               	movlw	3
  2813  00123C  1611               	andwf	??i1_printf,f,c
  2814  00123E  B4D8               	btfsc	status,2,c
  2815  001240  D003               	goto	i1l221
  2816                           
  2817                           ;doprnt.c: 1439: (putch('-') );
  2818  001242  0E2D               	movlw	45
  2819  001244  ECA5  F00B         	call	i1_putch
  2820  001248                     i1l221:
  2821                           
  2822                           ;doprnt.c: 1469: }
  2823                           ;doprnt.c: 1472: prec = c;
  2824  001248  C018  F015         	movff	i1printf@c,i1printf@prec
  2825                           
  2826                           ;doprnt.c: 1474: while(prec--) {
  2827  00124C  D027               	goto	i1l222
  2828  00124E                     
  2829                           ;doprnt.c: 1478: {
  2830                           ;doprnt.c: 1489: c = (val / dpowers[prec]) % 10 + '0';
  2831  00124E  5015               	movf	i1printf@prec,w,c
  2832  001250  0D02               	mullw	2
  2833  001252  0E01               	movlw	low _dpowers
  2834  001254  24F3               	addwf	prodl,w,c
  2835  001256  6EF6               	movwf	tblptrl,c
  2836  001258  0E10               	movlw	high _dpowers
  2837  00125A  20F4               	addwfc	prodh,w,c
  2838  00125C  6EF7               	movwf	tblptrh,c
  2839  00125E                     	if	1	;There are 3 active tblptr bytes
  2840  00125E  6AF8               	clrf	tblptru,c
  2841  001260  0E00               	movlw	low (__mediumconst shr (0+16))
  2842  001262  22F8               	addwfc	tblptru,f,c
  2843  001264                     	endif
  2844  001264  0009               	tblrd		*+
  2845  001266  CFF5 F003          	movff	tablat,i1___lwdiv@divisor
  2846  00126A  000A               	tblrd		*-
  2847  00126C  CFF5 F004          	movff	tablat,i1___lwdiv@divisor+1
  2848  001270  C016  F001         	movff	i1printf@val,i1___lwdiv@dividend
  2849  001274  C017  F002         	movff	i1printf@val+1,i1___lwdiv@dividend+1
  2850  001278  EC8B  F009         	call	i1___lwdiv	;wreg free
  2851  00127C  C001  F008         	movff	?i1___lwdiv,i1___lwmod@dividend
  2852  001280  C002  F009         	movff	?i1___lwdiv+1,i1___lwmod@dividend+1
  2853  001284  0E00               	movlw	0
  2854  001286  6E0B               	movwf	i1___lwmod@divisor+1,c
  2855  001288  0E0A               	movlw	10
  2856  00128A  6E0A               	movwf	i1___lwmod@divisor,c
  2857  00128C  ECFE  F009         	call	i1___lwmod	;wreg free
  2858  001290  5008               	movf	?i1___lwmod,w,c
  2859  001292  0F30               	addlw	48
  2860  001294  6E18               	movwf	i1printf@c,c
  2861                           
  2862                           ;doprnt.c: 1523: }
  2863                           ;doprnt.c: 1524: (putch(c) );
  2864  001296  5018               	movf	i1printf@c,w,c
  2865  001298  ECA5  F00B         	call	i1_putch
  2866  00129C                     i1l222:
  2867  00129C  0615               	decf	i1printf@prec,f,c
  2868  00129E  2815               	incf	i1printf@prec,w,c
  2869  0012A0  A4D8               	btfss	status,2,c
  2870  0012A2  D7D5               	goto	i1l223
  2871  0012A4                     i1u69_20:
  2872  0012A4  C00D  FFF6         	movff	i1printf@f,tblptrl
  2873  0012A8  C00E  FFF7         	movff	i1printf@f+1,tblptrh
  2874  0012AC  4A0D               	infsnz	i1printf@f,f,c
  2875  0012AE  2A0E               	incf	i1printf@f+1,f,c
  2876  0012B0                     	if	0	;tblptru may be non-zero
  2877  0012B0                     	endif
  2878  0012B0                     	if	1	;Program memory is > 0xFFFF, there are 3 active tblptr bytes
  2879  0012B0  0E00               	movlw	low (__mediumconst shr (0+16))
  2880  0012B2  6EF8               	movwf	tblptru,c
  2881  0012B4                     	endif
  2882  0012B4  0008               	tblrd		*
  2883  0012B6  CFF5 F018          	movff	tablat,i1printf@c
  2884  0012BA  5018               	movf	i1printf@c,w,c
  2885  0012BC  B4D8               	btfsc	status,2,c
  2886  0012BE  0012               	return	
  2887  0012C0  D76C               	goto	i1l208
  2888  0012C2                     __end_ofi1_printf:
  2889                           	opt stack 0
  2890                           pclatu	equ	0xFFB
  2891                           pclath	equ	0xFFA
  2892                           tblptru	equ	0xFF8
  2893                           tblptrh	equ	0xFF7
  2894                           tblptrl	equ	0xFF6
  2895                           tablat	equ	0xFF5
  2896                           prodh	equ	0xFF4
  2897                           prodl	equ	0xFF3
  2898                           intcon	equ	0xFF2
  2899                           intcon2	equ	0xFF1
  2900                           fsr0h	equ	0xFEA
  2901                           fsr0l	equ	0xFE9
  2902                           wreg	equ	0xFE8
  2903                           fsr1h	equ	0xFE2
  2904                           fsr1l	equ	0xFE1
  2905                           bsr	equ	0xFE0
  2906                           postinc2	equ	0xFDE
  2907                           postdec2	equ	0xFDD
  2908                           fsr2h	equ	0xFDA
  2909                           fsr2l	equ	0xFD9
  2910                           status	equ	0xFD8
  2911                           
  2912 ;; *************** function i1_putch *****************
  2913 ;; Defined at:
  2914 ;;		line 128 in file "LCD.c"
  2915 ;; Parameters:    Size  Location     Type
  2916 ;;  c               1    wreg     unsigned char 
  2917 ;; Auto vars:     Size  Location     Type
  2918 ;;  c               1    7[COMRAM] unsigned char 
  2919 ;; Return value:  Size  Location     Type
  2920 ;;                  1    wreg      void 
  2921 ;; Registers used:
  2922 ;;		wreg, status,2, status,0, cstack
  2923 ;; Tracked objects:
  2924 ;;		On entry : 0/0
  2925 ;;		On exit  : 0/0
  2926 ;;		Unchanged: 0/0
  2927 ;; Data sizes:     COMRAM   BANK0   BANK1   BANK2   BANK3   BANK4   BANK5   BANK6   BANK7   BANK8   BANK9  BANK10  BANK1
      +1  BANK12  BANK13  BANK14  BANK15
  2928 ;;      Params:         0       0       0       0       0       0       0       0       0       0       0       0       
      +0       0       0       0       0
  2929 ;;      Locals:         1       0       0       0       0       0       0       0       0       0       0       0       
      +0       0       0       0       0
  2930 ;;      Temps:          0       0       0       0       0       0       0       0       0       0       0       0       
      +0       0       0       0       0
  2931 ;;      Totals:         1       0       0       0       0       0       0       0       0       0       0       0       
      +0       0       0       0       0
  2932 ;;Total ram usage:        1 bytes
  2933 ;; Hardware stack levels used:    1
  2934 ;; Hardware stack levels required when called:    5
  2935 ;; This function calls:
  2936 ;;		i1_lcd_putc
  2937 ;; This function is called by:
  2938 ;;		i1_printf
  2939 ;; This function uses a non-reentrant model
  2940 ;;
  2941                           
  2942                           	psect	text24
  2943  00174A                     __ptext24:
  2944                           	opt stack 0
  2945  00174A                     i1_putch:
  2946                           	opt stack 12
  2947                           
  2948                           ;incstack = 0
  2949                           ;i1putch@c stored from wreg
  2950  00174A  6E08               	movwf	i1putch@c,c
  2951  00174C  5008               	movf	i1putch@c,w,c
  2952  00174E  EC57  F00A         	call	i1_lcd_putc
  2953  001752  0012               	return		;funcret
  2954  001754                     __end_ofi1_putch:
  2955                           	opt stack 0
  2956                           pclatu	equ	0xFFB
  2957                           pclath	equ	0xFFA
  2958                           tblptru	equ	0xFF8
  2959                           tblptrh	equ	0xFF7
  2960                           tblptrl	equ	0xFF6
  2961                           tablat	equ	0xFF5
  2962                           prodh	equ	0xFF4
  2963                           prodl	equ	0xFF3
  2964                           intcon	equ	0xFF2
  2965                           intcon2	equ	0xFF1
  2966                           fsr0h	equ	0xFEA
  2967                           fsr0l	equ	0xFE9
  2968                           wreg	equ	0xFE8
  2969                           fsr1h	equ	0xFE2
  2970                           fsr1l	equ	0xFE1
  2971                           bsr	equ	0xFE0
  2972                           postinc2	equ	0xFDE
  2973                           postdec2	equ	0xFDD
  2974                           fsr2h	equ	0xFDA
  2975                           fsr2l	equ	0xFD9
  2976                           status	equ	0xFD8
  2977                           
  2978 ;; *************** function i1_lcd_putc *****************
  2979 ;; Defined at:
  2980 ;;		line 116 in file "LCD.c"
  2981 ;; Parameters:    Size  Location     Type
  2982 ;;  c               1    wreg     unsigned char 
  2983 ;; Auto vars:     Size  Location     Type
  2984 ;;  c               1    6[COMRAM] unsigned char 
  2985 ;; Return value:  Size  Location     Type
  2986 ;;                  1    wreg      void 
  2987 ;; Registers used:
  2988 ;;		wreg, status,2, status,0, cstack
  2989 ;; Tracked objects:
  2990 ;;		On entry : 0/0
  2991 ;;		On exit  : 0/0
  2992 ;;		Unchanged: 0/0
  2993 ;; Data sizes:     COMRAM   BANK0   BANK1   BANK2   BANK3   BANK4   BANK5   BANK6   BANK7   BANK8   BANK9  BANK10  BANK1
      +1  BANK12  BANK13  BANK14  BANK15
  2994 ;;      Params:         0       0       0       0       0       0       0       0       0       0       0       0       
      +0       0       0       0       0
  2995 ;;      Locals:         1       0       0       0       0       0       0       0       0       0       0       0       
      +0       0       0       0       0
  2996 ;;      Temps:          0       0       0       0       0       0       0       0       0       0       0       0       
      +0       0       0       0       0
  2997 ;;      Totals:         1       0       0       0       0       0       0       0       0       0       0       0       
      +0       0       0       0       0
  2998 ;;Total ram usage:        1 bytes
  2999 ;; Hardware stack levels used:    1
  3000 ;; Hardware stack levels required when called:    4
  3001 ;; This function calls:
  3002 ;;		i1_d_write
  3003 ;;		i1_i_write
  3004 ;;		i1_lcd_gotoxy
  3005 ;; This function is called by:
  3006 ;;		i1_putch
  3007 ;; This function uses a non-reentrant model
  3008 ;;
  3009                           
  3010                           	psect	text25
  3011  0014AE                     __ptext25:
  3012                           	opt stack 0
  3013  0014AE                     i1_lcd_putc:
  3014                           	opt stack 12
  3015                           
  3016                           ;incstack = 0
  3017                           ;i1lcd_putc@c stored from wreg
  3018  0014AE  6E07               	movwf	i1lcd_putc@c,c
  3019                           
  3020                           ;LCD.c: 117: switch(c){
  3021  0014B0  D00E               	goto	i1l175
  3022  0014B2                     
  3023                           ;LCD.c: 119: i_write(0b00000001); break;
  3024  0014B2  0E01               	movlw	1
  3025  0014B4  ECCA  F00A         	call	i1_i_write
  3026  0014B8  0012               	return	
  3027  0014BA                     
  3028                           ;LCD.c: 121: lcd_gotoxy(1,0); break;
  3029  0014BA  0E00               	movlw	0
  3030  0014BC  6E05               	movwf	i1lcd_gotoxy@col,c
  3031  0014BE  0E01               	movlw	1
  3032  0014C0  EC3E  F00B         	call	i1_lcd_gotoxy
  3033  0014C4  0012               	return	
  3034  0014C6                     
  3035                           ;LCD.c: 123: d_write(c);
  3036  0014C6  5007               	movf	i1lcd_putc@c,w,c
  3037  0014C8  ECDA  F00A         	call	i1_d_write
  3038                           
  3039                           ;LCD.c: 124: }
  3040  0014CC  0012               	return	
  3041  0014CE                     i1l175:
  3042  0014CE  5007               	movf	i1lcd_putc@c,w,c
  3043                           
  3044                           ; Switch size 1, requested type "space"
  3045                           ; Number of cases is 2, Range of values is 10 to 12
  3046                           ; switch strategies available:
  3047                           ; Name         Instructions Cycles
  3048                           ; simple_byte            7     4 (average)
  3049                           ;	Chosen strategy is simple_byte
  3050  0014D0  0A0A               	xorlw	10	; case 10
  3051  0014D2  B4D8               	btfsc	status,2,c
  3052  0014D4  D7F2               	goto	i1l178
  3053  0014D6  0A06               	xorlw	6	; case 12
  3054  0014D8  B4D8               	btfsc	status,2,c
  3055  0014DA  D7EB               	goto	i1l176
  3056  0014DC  D7F4               	goto	i1l179
  3057  0014DE                     __end_ofi1_lcd_putc:
  3058                           	opt stack 0
  3059                           pclatu	equ	0xFFB
  3060                           pclath	equ	0xFFA
  3061                           tblptru	equ	0xFF8
  3062                           tblptrh	equ	0xFF7
  3063                           tblptrl	equ	0xFF6
  3064                           tablat	equ	0xFF5
  3065                           prodh	equ	0xFF4
  3066                           prodl	equ	0xFF3
  3067                           intcon	equ	0xFF2
  3068                           intcon2	equ	0xFF1
  3069                           fsr0h	equ	0xFEA
  3070                           fsr0l	equ	0xFE9
  3071                           wreg	equ	0xFE8
  3072                           fsr1h	equ	0xFE2
  3073                           fsr1l	equ	0xFE1
  3074                           bsr	equ	0xFE0
  3075                           postinc2	equ	0xFDE
  3076                           postdec2	equ	0xFDD
  3077                           fsr2h	equ	0xFDA
  3078                           fsr2l	equ	0xFD9
  3079                           status	equ	0xFD8
  3080                           
  3081 ;; *************** function i1_lcd_gotoxy *****************
  3082 ;; Defined at:
  3083 ;;		line 89 in file "LCD.c"
  3084 ;; Parameters:    Size  Location     Type
  3085 ;;  row             1    wreg     unsigned char 
  3086 ;;  col             1    4[COMRAM] unsigned char 
  3087 ;; Auto vars:     Size  Location     Type
  3088 ;;  row             1    5[COMRAM] unsigned char 
  3089 ;; Return value:  Size  Location     Type
  3090 ;;                  1    wreg      void 
  3091 ;; Registers used:
  3092 ;;		wreg, status,2, status,0, cstack
  3093 ;; Tracked objects:
  3094 ;;		On entry : 0/0
  3095 ;;		On exit  : 0/0
  3096 ;;		Unchanged: 0/0
  3097 ;; Data sizes:     COMRAM   BANK0   BANK1   BANK2   BANK3   BANK4   BANK5   BANK6   BANK7   BANK8   BANK9  BANK10  BANK1
      +1  BANK12  BANK13  BANK14  BANK15
  3098 ;;      Params:         1       0       0       0       0       0       0       0       0       0       0       0       
      +0       0       0       0       0
  3099 ;;      Locals:         1       0       0       0       0       0       0       0       0       0       0       0       
      +0       0       0       0       0
  3100 ;;      Temps:          0       0       0       0       0       0       0       0       0       0       0       0       
      +0       0       0       0       0
  3101 ;;      Totals:         2       0       0       0       0       0       0       0       0       0       0       0       
      +0       0       0       0       0
  3102 ;;Total ram usage:        2 bytes
  3103 ;; Hardware stack levels used:    1
  3104 ;; Hardware stack levels required when called:    3
  3105 ;; This function calls:
  3106 ;;		i1_i_write
  3107 ;; This function is called by:
  3108 ;;		i1_xulyphim
  3109 ;;		i1_lcd_putc
  3110 ;; This function uses a non-reentrant model
  3111 ;;
  3112                           
  3113                           	psect	text26
  3114  00167C                     __ptext26:
  3115                           	opt stack 0
  3116  00167C                     i1_lcd_gotoxy:
  3117                           	opt stack 12
  3118                           
  3119                           ;incstack = 0
  3120                           ;i1lcd_gotoxy@row stored from wreg
  3121  00167C  6E06               	movwf	i1lcd_gotoxy@row,c
  3122                           
  3123                           ;LCD.c: 91: if(row!=0) col+=0x40;
  3124  00167E  5006               	movf	i1lcd_gotoxy@row,w,c
  3125  001680  B4D8               	btfsc	status,2,c
  3126  001682  D002               	goto	i1l160
  3127  001684  0E40               	movlw	64
  3128  001686  2605               	addwf	i1lcd_gotoxy@col,f,c
  3129  001688                     i1l160:
  3130                           
  3131                           ;LCD.c: 92: i_write(0x80|col);
  3132  001688  5005               	movf	i1lcd_gotoxy@col,w,c
  3133  00168A  0980               	iorlw	128
  3134  00168C  ECCA  F00A         	call	i1_i_write
  3135  001690  0012               	return		;funcret
  3136  001692                     __end_ofi1_lcd_gotoxy:
  3137                           	opt stack 0
  3138                           pclatu	equ	0xFFB
  3139                           pclath	equ	0xFFA
  3140                           tblptru	equ	0xFF8
  3141                           tblptrh	equ	0xFF7
  3142                           tblptrl	equ	0xFF6
  3143                           tablat	equ	0xFF5
  3144                           prodh	equ	0xFF4
  3145                           prodl	equ	0xFF3
  3146                           intcon	equ	0xFF2
  3147                           intcon2	equ	0xFF1
  3148                           fsr0h	equ	0xFEA
  3149                           fsr0l	equ	0xFE9
  3150                           wreg	equ	0xFE8
  3151                           fsr1h	equ	0xFE2
  3152                           fsr1l	equ	0xFE1
  3153                           bsr	equ	0xFE0
  3154                           postinc2	equ	0xFDE
  3155                           postdec2	equ	0xFDD
  3156                           fsr2h	equ	0xFDA
  3157                           fsr2l	equ	0xFD9
  3158                           status	equ	0xFD8
  3159                           
  3160 ;; *************** function i1_i_write *****************
  3161 ;; Defined at:
  3162 ;;		line 73 in file "LCD.c"
  3163 ;; Parameters:    Size  Location     Type
  3164 ;;  d               1    wreg     unsigned char 
  3165 ;; Auto vars:     Size  Location     Type
  3166 ;;  d               1    3[COMRAM] unsigned char 
  3167 ;; Return value:  Size  Location     Type
  3168 ;;                  1    wreg      void 
  3169 ;; Registers used:
  3170 ;;		wreg, status,2, status,0, cstack
  3171 ;; Tracked objects:
  3172 ;;		On entry : 0/0
  3173 ;;		On exit  : 0/0
  3174 ;;		Unchanged: 0/0
  3175 ;; Data sizes:     COMRAM   BANK0   BANK1   BANK2   BANK3   BANK4   BANK5   BANK6   BANK7   BANK8   BANK9  BANK10  BANK1
      +1  BANK12  BANK13  BANK14  BANK15
  3176 ;;      Params:         0       0       0       0       0       0       0       0       0       0       0       0       
      +0       0       0       0       0
  3177 ;;      Locals:         1       0       0       0       0       0       0       0       0       0       0       0       
      +0       0       0       0       0
  3178 ;;      Temps:          0       0       0       0       0       0       0       0       0       0       0       0       
      +0       0       0       0       0
  3179 ;;      Totals:         1       0       0       0       0       0       0       0       0       0       0       0       
      +0       0       0       0       0
  3180 ;;Total ram usage:        1 bytes
  3181 ;; Hardware stack levels used:    1
  3182 ;; Hardware stack levels required when called:    2
  3183 ;; This function calls:
  3184 ;;		i1_LCDBusy
  3185 ;;		i1_Write_PortA
  3186 ;;		i1_Write_PortB
  3187 ;; This function is called by:
  3188 ;;		i1_lcd_gotoxy
  3189 ;;		i1_lcd_putc
  3190 ;; This function uses a non-reentrant model
  3191 ;;
  3192                           
  3193                           	psect	text27
  3194  001594                     __ptext27:
  3195                           	opt stack 0
  3196  001594                     i1_i_write:
  3197                           	opt stack 12
  3198                           
  3199                           ;incstack = 0
  3200                           ;i1i_write@d stored from wreg
  3201  001594  6E04               	movwf	i1i_write@d,c
  3202  001596  0E00               	movlw	0
  3203  001598  EC31  F00B         	call	i1_Write_PortA
  3204                           
  3205                           ;LCD.c: 75: Write_PortB(d);
  3206  00159C  5004               	movf	i1i_write@d,w,c
  3207  00159E  EC24  F00B         	call	i1_Write_PortB
  3208                           
  3209                           ;LCD.c: 76: Write_PortA(0b01000000);
  3210  0015A2  0E40               	movlw	64
  3211  0015A4  EC31  F00B         	call	i1_Write_PortA
  3212                           
  3213                           ;LCD.c: 77: Write_PortA(0b00000000);
  3214  0015A8  0E00               	movlw	0
  3215  0015AA  EC31  F00B         	call	i1_Write_PortA
  3216                           
  3217                           ;LCD.c: 78: LCDBusy();
  3218  0015AE  EC9E  F00B         	call	i1_LCDBusy	;wreg free
  3219  0015B2  0012               	return		;funcret
  3220  0015B4                     __end_ofi1_i_write:
  3221                           	opt stack 0
  3222                           pclatu	equ	0xFFB
  3223                           pclath	equ	0xFFA
  3224                           tblptru	equ	0xFF8
  3225                           tblptrh	equ	0xFF7
  3226                           tblptrl	equ	0xFF6
  3227                           tablat	equ	0xFF5
  3228                           prodh	equ	0xFF4
  3229                           prodl	equ	0xFF3
  3230                           intcon	equ	0xFF2
  3231                           intcon2	equ	0xFF1
  3232                           fsr0h	equ	0xFEA
  3233                           fsr0l	equ	0xFE9
  3234                           wreg	equ	0xFE8
  3235                           fsr1h	equ	0xFE2
  3236                           fsr1l	equ	0xFE1
  3237                           bsr	equ	0xFE0
  3238                           postinc2	equ	0xFDE
  3239                           postdec2	equ	0xFDD
  3240                           fsr2h	equ	0xFDA
  3241                           fsr2l	equ	0xFD9
  3242                           status	equ	0xFD8
  3243                           
  3244 ;; *************** function i1_d_write *****************
  3245 ;; Defined at:
  3246 ;;		line 80 in file "LCD.c"
  3247 ;; Parameters:    Size  Location     Type
  3248 ;;  d               1    wreg     unsigned char 
  3249 ;; Auto vars:     Size  Location     Type
  3250 ;;  d               1    3[COMRAM] unsigned char 
  3251 ;; Return value:  Size  Location     Type
  3252 ;;                  1    wreg      void 
  3253 ;; Registers used:
  3254 ;;		wreg, status,2, status,0, cstack
  3255 ;; Tracked objects:
  3256 ;;		On entry : 0/0
  3257 ;;		On exit  : 0/0
  3258 ;;		Unchanged: 0/0
  3259 ;; Data sizes:     COMRAM   BANK0   BANK1   BANK2   BANK3   BANK4   BANK5   BANK6   BANK7   BANK8   BANK9  BANK10  BANK1
      +1  BANK12  BANK13  BANK14  BANK15
  3260 ;;      Params:         0       0       0       0       0       0       0       0       0       0       0       0       
      +0       0       0       0       0
  3261 ;;      Locals:         1       0       0       0       0       0       0       0       0       0       0       0       
      +0       0       0       0       0
  3262 ;;      Temps:          0       0       0       0       0       0       0       0       0       0       0       0       
      +0       0       0       0       0
  3263 ;;      Totals:         1       0       0       0       0       0       0       0       0       0       0       0       
      +0       0       0       0       0
  3264 ;;Total ram usage:        1 bytes
  3265 ;; Hardware stack levels used:    1
  3266 ;; Hardware stack levels required when called:    2
  3267 ;; This function calls:
  3268 ;;		i1_LCDBusy
  3269 ;;		i1_Write_PortA
  3270 ;;		i1_Write_PortB
  3271 ;; This function is called by:
  3272 ;;		i1_lcd_putc
  3273 ;; This function uses a non-reentrant model
  3274 ;;
  3275                           
  3276                           	psect	text28
  3277  0015B4                     __ptext28:
  3278                           	opt stack 0
  3279  0015B4                     i1_d_write:
  3280                           	opt stack 13
  3281                           
  3282                           ;incstack = 0
  3283                           ;i1d_write@d stored from wreg
  3284  0015B4  6E04               	movwf	i1d_write@d,c
  3285  0015B6  0E80               	movlw	128
  3286  0015B8  EC31  F00B         	call	i1_Write_PortA
  3287                           
  3288                           ;LCD.c: 82: Write_PortB(d);
  3289  0015BC  5004               	movf	i1d_write@d,w,c
  3290  0015BE  EC24  F00B         	call	i1_Write_PortB
  3291                           
  3292                           ;LCD.c: 83: Write_PortA(0b11000000);
  3293  0015C2  0EC0               	movlw	192
  3294  0015C4  EC31  F00B         	call	i1_Write_PortA
  3295                           
  3296                           ;LCD.c: 84: Write_PortA(0b00000000);
  3297  0015C8  0E00               	movlw	0
  3298  0015CA  EC31  F00B         	call	i1_Write_PortA
  3299                           
  3300                           ;LCD.c: 85: LCDBusy();
  3301  0015CE  EC9E  F00B         	call	i1_LCDBusy	;wreg free
  3302  0015D2  0012               	return		;funcret
  3303  0015D4                     __end_ofi1_d_write:
  3304                           	opt stack 0
  3305                           pclatu	equ	0xFFB
  3306                           pclath	equ	0xFFA
  3307                           tblptru	equ	0xFF8
  3308                           tblptrh	equ	0xFF7
  3309                           tblptrl	equ	0xFF6
  3310                           tablat	equ	0xFF5
  3311                           prodh	equ	0xFF4
  3312                           prodl	equ	0xFF3
  3313                           intcon	equ	0xFF2
  3314                           intcon2	equ	0xFF1
  3315                           fsr0h	equ	0xFEA
  3316                           fsr0l	equ	0xFE9
  3317                           wreg	equ	0xFE8
  3318                           fsr1h	equ	0xFE2
  3319                           fsr1l	equ	0xFE1
  3320                           bsr	equ	0xFE0
  3321                           postinc2	equ	0xFDE
  3322                           postdec2	equ	0xFDD
  3323                           fsr2h	equ	0xFDA
  3324                           fsr2l	equ	0xFD9
  3325                           status	equ	0xFD8
  3326                           
  3327 ;; *************** function i1_Write_PortB *****************
  3328 ;; Defined at:
  3329 ;;		line 57 in file "LCD.c"
  3330 ;; Parameters:    Size  Location     Type
  3331 ;;  d               1    wreg     unsigned char 
  3332 ;; Auto vars:     Size  Location     Type
  3333 ;;  d               1    1[COMRAM] unsigned char 
  3334 ;; Return value:  Size  Location     Type
  3335 ;;                  1    wreg      void 
  3336 ;; Registers used:
  3337 ;;		wreg, status,2, cstack
  3338 ;; Tracked objects:
  3339 ;;		On entry : 0/0
  3340 ;;		On exit  : 0/0
  3341 ;;		Unchanged: 0/0
  3342 ;; Data sizes:     COMRAM   BANK0   BANK1   BANK2   BANK3   BANK4   BANK5   BANK6   BANK7   BANK8   BANK9  BANK10  BANK1
      +1  BANK12  BANK13  BANK14  BANK15
  3343 ;;      Params:         0       0       0       0       0       0       0       0       0       0       0       0       
      +0       0       0       0       0
  3344 ;;      Locals:         1       0       0       0       0       0       0       0       0       0       0       0       
      +0       0       0       0       0
  3345 ;;      Temps:          0       0       0       0       0       0       0       0       0       0       0       0       
      +0       0       0       0       0
  3346 ;;      Totals:         1       0       0       0       0       0       0       0       0       0       0       0       
      +0       0       0       0       0
  3347 ;;Total ram usage:        1 bytes
  3348 ;; Hardware stack levels used:    1
  3349 ;; Hardware stack levels required when called:    1
  3350 ;; This function calls:
  3351 ;;		i1_SPI_send
  3352 ;; This function is called by:
  3353 ;;		i1_i_write
  3354 ;;		i1_d_write
  3355 ;; This function uses a non-reentrant model
  3356 ;;
  3357                           
  3358                           	psect	text29
  3359  001648                     __ptext29:
  3360                           	opt stack 0
  3361  001648                     i1_Write_PortB:
  3362                           	opt stack 12
  3363                           
  3364                           ;incstack = 0
  3365                           ;i1Write_PortB@d stored from wreg
  3366  001648  6E02               	movwf	i1Write_PortB@d,c
  3367                           
  3368                           ;LCD.c: 59: LATA2=0;
  3369  00164A  9489               	bcf	3977,2,c	;volatile
  3370                           
  3371                           ;LCD.c: 60: SPI_send(0x40);
  3372  00164C  0E40               	movlw	64
  3373  00164E  EC6F  F00B         	call	i1_SPI_send
  3374                           
  3375                           ;LCD.c: 61: SPI_send(0x13);
  3376  001652  0E13               	movlw	19
  3377  001654  EC6F  F00B         	call	i1_SPI_send
  3378                           
  3379                           ;LCD.c: 62: SPI_send(d);
  3380  001658  5002               	movf	i1Write_PortB@d,w,c
  3381  00165A  EC6F  F00B         	call	i1_SPI_send
  3382                           
  3383                           ;LCD.c: 63: LATA2=1;
  3384  00165E  8489               	bsf	3977,2,c	;volatile
  3385  001660  0012               	return		;funcret
  3386  001662                     __end_ofi1_Write_PortB:
  3387                           	opt stack 0
  3388                           pclatu	equ	0xFFB
  3389                           pclath	equ	0xFFA
  3390                           tblptru	equ	0xFF8
  3391                           tblptrh	equ	0xFF7
  3392                           tblptrl	equ	0xFF6
  3393                           tablat	equ	0xFF5
  3394                           prodh	equ	0xFF4
  3395                           prodl	equ	0xFF3
  3396                           intcon	equ	0xFF2
  3397                           intcon2	equ	0xFF1
  3398                           fsr0h	equ	0xFEA
  3399                           fsr0l	equ	0xFE9
  3400                           wreg	equ	0xFE8
  3401                           fsr1h	equ	0xFE2
  3402                           fsr1l	equ	0xFE1
  3403                           bsr	equ	0xFE0
  3404                           postinc2	equ	0xFDE
  3405                           postdec2	equ	0xFDD
  3406                           fsr2h	equ	0xFDA
  3407                           fsr2l	equ	0xFD9
  3408                           status	equ	0xFD8
  3409                           
  3410 ;; *************** function i1_Write_PortA *****************
  3411 ;; Defined at:
  3412 ;;		line 65 in file "LCD.c"
  3413 ;; Parameters:    Size  Location     Type
  3414 ;;  mask            1    wreg     unsigned char 
  3415 ;; Auto vars:     Size  Location     Type
  3416 ;;  mask            1    1[COMRAM] unsigned char 
  3417 ;; Return value:  Size  Location     Type
  3418 ;;                  1    wreg      void 
  3419 ;; Registers used:
  3420 ;;		wreg, status,2, cstack
  3421 ;; Tracked objects:
  3422 ;;		On entry : 0/0
  3423 ;;		On exit  : 0/0
  3424 ;;		Unchanged: 0/0
  3425 ;; Data sizes:     COMRAM   BANK0   BANK1   BANK2   BANK3   BANK4   BANK5   BANK6   BANK7   BANK8   BANK9  BANK10  BANK1
      +1  BANK12  BANK13  BANK14  BANK15
  3426 ;;      Params:         0       0       0       0       0       0       0       0       0       0       0       0       
      +0       0       0       0       0
  3427 ;;      Locals:         1       0       0       0       0       0       0       0       0       0       0       0       
      +0       0       0       0       0
  3428 ;;      Temps:          0       0       0       0       0       0       0       0       0       0       0       0       
      +0       0       0       0       0
  3429 ;;      Totals:         1       0       0       0       0       0       0       0       0       0       0       0       
      +0       0       0       0       0
  3430 ;;Total ram usage:        1 bytes
  3431 ;; Hardware stack levels used:    1
  3432 ;; Hardware stack levels required when called:    1
  3433 ;; This function calls:
  3434 ;;		i1_SPI_send
  3435 ;; This function is called by:
  3436 ;;		i1_i_write
  3437 ;;		i1_d_write
  3438 ;; This function uses a non-reentrant model
  3439 ;;
  3440                           
  3441                           	psect	text30
  3442  001662                     __ptext30:
  3443                           	opt stack 0
  3444  001662                     i1_Write_PortA:
  3445                           	opt stack 12
  3446                           
  3447                           ;incstack = 0
  3448                           ;i1Write_PortA@mask stored from wreg
  3449  001662  6E02               	movwf	i1Write_PortA@mask,c
  3450                           
  3451                           ;LCD.c: 67: LATA2=0;
  3452  001664  9489               	bcf	3977,2,c	;volatile
  3453                           
  3454                           ;LCD.c: 68: SPI_send(0x40);
  3455  001666  0E40               	movlw	64
  3456  001668  EC6F  F00B         	call	i1_SPI_send
  3457                           
  3458                           ;LCD.c: 69: SPI_send(0x12);
  3459  00166C  0E12               	movlw	18
  3460  00166E  EC6F  F00B         	call	i1_SPI_send
  3461                           
  3462                           ;LCD.c: 70: SPI_send(mask);
  3463  001672  5002               	movf	i1Write_PortA@mask,w,c
  3464  001674  EC6F  F00B         	call	i1_SPI_send
  3465                           
  3466                           ;LCD.c: 71: LATA2=1;
  3467  001678  8489               	bsf	3977,2,c	;volatile
  3468  00167A  0012               	return		;funcret
  3469  00167C                     __end_ofi1_Write_PortA:
  3470                           	opt stack 0
  3471                           pclatu	equ	0xFFB
  3472                           pclath	equ	0xFFA
  3473                           tblptru	equ	0xFF8
  3474                           tblptrh	equ	0xFF7
  3475                           tblptrl	equ	0xFF6
  3476                           tablat	equ	0xFF5
  3477                           prodh	equ	0xFF4
  3478                           prodl	equ	0xFF3
  3479                           intcon	equ	0xFF2
  3480                           intcon2	equ	0xFF1
  3481                           fsr0h	equ	0xFEA
  3482                           fsr0l	equ	0xFE9
  3483                           wreg	equ	0xFE8
  3484                           fsr1h	equ	0xFE2
  3485                           fsr1l	equ	0xFE1
  3486                           bsr	equ	0xFE0
  3487                           postinc2	equ	0xFDE
  3488                           postdec2	equ	0xFDD
  3489                           fsr2h	equ	0xFDA
  3490                           fsr2l	equ	0xFD9
  3491                           status	equ	0xFD8
  3492                           
  3493 ;; *************** function i1_SPI_send *****************
  3494 ;; Defined at:
  3495 ;;		line 35 in file "LCD.c"
  3496 ;; Parameters:    Size  Location     Type
  3497 ;;  c               1    wreg     unsigned char 
  3498 ;; Auto vars:     Size  Location     Type
  3499 ;;  c               1    0[COMRAM] unsigned char 
  3500 ;; Return value:  Size  Location     Type
  3501 ;;                  1    wreg      void 
  3502 ;; Registers used:
  3503 ;;		wreg
  3504 ;; Tracked objects:
  3505 ;;		On entry : 0/0
  3506 ;;		On exit  : 0/0
  3507 ;;		Unchanged: 0/0
  3508 ;; Data sizes:     COMRAM   BANK0   BANK1   BANK2   BANK3   BANK4   BANK5   BANK6   BANK7   BANK8   BANK9  BANK10  BANK1
      +1  BANK12  BANK13  BANK14  BANK15
  3509 ;;      Params:         0       0       0       0       0       0       0       0       0       0       0       0       
      +0       0       0       0       0
  3510 ;;      Locals:         1       0       0       0       0       0       0       0       0       0       0       0       
      +0       0       0       0       0
  3511 ;;      Temps:          0       0       0       0       0       0       0       0       0       0       0       0       
      +0       0       0       0       0
  3512 ;;      Totals:         1       0       0       0       0       0       0       0       0       0       0       0       
      +0       0       0       0       0
  3513 ;;Total ram usage:        1 bytes
  3514 ;; Hardware stack levels used:    1
  3515 ;; This function calls:
  3516 ;;		Nothing
  3517 ;; This function is called by:
  3518 ;;		i1_Write_PortB
  3519 ;;		i1_Write_PortA
  3520 ;; This function uses a non-reentrant model
  3521 ;;
  3522                           
  3523                           	psect	text31
  3524  0016DE                     __ptext31:
  3525                           	opt stack 0
  3526  0016DE                     i1_SPI_send:
  3527                           	opt stack 12
  3528                           
  3529                           ;incstack = 0
  3530                           ;i1SPI_send@c stored from wreg
  3531  0016DE  6E01               	movwf	i1SPI_send@c,c
  3532  0016E0  C001  FFC9         	movff	i1SPI_send@c,4041	;volatile
  3533  0016E4  A69E               	btfss	3998,3,c	;volatile
  3534  0016E6  D7FE               	goto	i1l132
  3535                           
  3536                           ;LCD.c: 38: SSP1IF=0;
  3537  0016E8  969E               	bcf	3998,3,c	;volatile
  3538                           
  3539                           ;LCD.c: 39: c=SSP1BUF;
  3540  0016EA  CFC9 F001          	movff	4041,i1SPI_send@c	;volatile
  3541  0016EE  0012               	return		;funcret
  3542  0016F0                     __end_ofi1_SPI_send:
  3543                           	opt stack 0
  3544                           pclatu	equ	0xFFB
  3545                           pclath	equ	0xFFA
  3546                           tblptru	equ	0xFF8
  3547                           tblptrh	equ	0xFF7
  3548                           tblptrl	equ	0xFF6
  3549                           tablat	equ	0xFF5
  3550                           prodh	equ	0xFF4
  3551                           prodl	equ	0xFF3
  3552                           intcon	equ	0xFF2
  3553                           intcon2	equ	0xFF1
  3554                           fsr0h	equ	0xFEA
  3555                           fsr0l	equ	0xFE9
  3556                           wreg	equ	0xFE8
  3557                           fsr1h	equ	0xFE2
  3558                           fsr1l	equ	0xFE1
  3559                           bsr	equ	0xFE0
  3560                           postinc2	equ	0xFDE
  3561                           postdec2	equ	0xFDD
  3562                           fsr2h	equ	0xFDA
  3563                           fsr2l	equ	0xFD9
  3564                           status	equ	0xFD8
  3565                           
  3566 ;; *************** function i1_LCDBusy *****************
  3567 ;; Defined at:
  3568 ;;		line 27 in file "LCD.c"
  3569 ;; Parameters:    Size  Location     Type
  3570 ;;		None
  3571 ;; Auto vars:     Size  Location     Type
  3572 ;;		None
  3573 ;; Return value:  Size  Location     Type
  3574 ;;                  1    wreg      void 
  3575 ;; Registers used:
  3576 ;;		wreg, status,2, status,0, cstack
  3577 ;; Tracked objects:
  3578 ;;		On entry : 0/0
  3579 ;;		On exit  : 0/0
  3580 ;;		Unchanged: 0/0
  3581 ;; Data sizes:     COMRAM   BANK0   BANK1   BANK2   BANK3   BANK4   BANK5   BANK6   BANK7   BANK8   BANK9  BANK10  BANK1
      +1  BANK12  BANK13  BANK14  BANK15
  3582 ;;      Params:         0       0       0       0       0       0       0       0       0       0       0       0       
      +0       0       0       0       0
  3583 ;;      Locals:         0       0       0       0       0       0       0       0       0       0       0       0       
      +0       0       0       0       0
  3584 ;;      Temps:          0       0       0       0       0       0       0       0       0       0       0       0       
      +0       0       0       0       0
  3585 ;;      Totals:         0       0       0       0       0       0       0       0       0       0       0       0       
      +0       0       0       0       0
  3586 ;;Total ram usage:        0 bytes
  3587 ;; Hardware stack levels used:    1
  3588 ;; Hardware stack levels required when called:    1
  3589 ;; This function calls:
  3590 ;;		i1_tre_ms
  3591 ;; This function is called by:
  3592 ;;		i1_i_write
  3593 ;;		i1_d_write
  3594 ;; This function uses a non-reentrant model
  3595 ;;
  3596                           
  3597                           	psect	text32
  3598  00173C                     __ptext32:
  3599                           	opt stack 0
  3600  00173C                     i1_LCDBusy:
  3601                           	opt stack 12
  3602                           
  3603                           ;incstack = 0
  3604  00173C  0E00               	movlw	0
  3605  00173E  6E02               	movwf	i1tre_ms@ms+1,c
  3606  001740  0E02               	movlw	2
  3607  001742  6E01               	movwf	i1tre_ms@ms,c
  3608  001744  EC08  F00B         	call	i1_tre_ms	;wreg free
  3609  001748  0012               	return		;funcret
  3610  00174A                     __end_ofi1_LCDBusy:
  3611                           	opt stack 0
  3612                           pclatu	equ	0xFFB
  3613                           pclath	equ	0xFFA
  3614                           tblptru	equ	0xFF8
  3615                           tblptrh	equ	0xFF7
  3616                           tblptrl	equ	0xFF6
  3617                           tablat	equ	0xFF5
  3618                           prodh	equ	0xFF4
  3619                           prodl	equ	0xFF3
  3620                           intcon	equ	0xFF2
  3621                           intcon2	equ	0xFF1
  3622                           fsr0h	equ	0xFEA
  3623                           fsr0l	equ	0xFE9
  3624                           wreg	equ	0xFE8
  3625                           fsr1h	equ	0xFE2
  3626                           fsr1l	equ	0xFE1
  3627                           bsr	equ	0xFE0
  3628                           postinc2	equ	0xFDE
  3629                           postdec2	equ	0xFDD
  3630                           fsr2h	equ	0xFDA
  3631                           fsr2l	equ	0xFD9
  3632                           status	equ	0xFD8
  3633                           
  3634 ;; *************** function i1_tre_ms *****************
  3635 ;; Defined at:
  3636 ;;		line 23 in file "LCD.c"
  3637 ;; Parameters:    Size  Location     Type
  3638 ;;  ms              2    0[COMRAM] unsigned int 
  3639 ;; Auto vars:     Size  Location     Type
  3640 ;;		None
  3641 ;; Return value:  Size  Location     Type
  3642 ;;                  1    wreg      void 
  3643 ;; Registers used:
  3644 ;;		wreg, status,2, status,0
  3645 ;; Tracked objects:
  3646 ;;		On entry : 0/0
  3647 ;;		On exit  : 0/0
  3648 ;;		Unchanged: 0/0
  3649 ;; Data sizes:     COMRAM   BANK0   BANK1   BANK2   BANK3   BANK4   BANK5   BANK6   BANK7   BANK8   BANK9  BANK10  BANK1
      +1  BANK12  BANK13  BANK14  BANK15
  3650 ;;      Params:         2       0       0       0       0       0       0       0       0       0       0       0       
      +0       0       0       0       0
  3651 ;;      Locals:         0       0       0       0       0       0       0       0       0       0       0       0       
      +0       0       0       0       0
  3652 ;;      Temps:          1       0       0       0       0       0       0       0       0       0       0       0       
      +0       0       0       0       0
  3653 ;;      Totals:         3       0       0       0       0       0       0       0       0       0       0       0       
      +0       0       0       0       0
  3654 ;;Total ram usage:        3 bytes
  3655 ;; Hardware stack levels used:    1
  3656 ;; This function calls:
  3657 ;;		Nothing
  3658 ;; This function is called by:
  3659 ;;		i1_LCDBusy
  3660 ;; This function uses a non-reentrant model
  3661 ;;
  3662                           
  3663                           	psect	text33
  3664  001610                     __ptext33:
  3665                           	opt stack 0
  3666  001610                     i1_tre_ms:
  3667                           	opt stack 12
  3668                           
  3669                           ;incstack = 0
  3670  001610  5001               	movf	i1tre_ms@ms,w,c
  3671  001612  1002               	iorwf	i1tre_ms@ms+1,w,c
  3672  001614  B4D8               	btfsc	status,2,c
  3673  001616  0012               	return	
  3674  001618  0E04               	movlw	4
  3675  00161A  6E03               	movwf	??i1_tre_ms& (0+255),c
  3676  00161C  0E3E               	movlw	62
  3677  00161E                     i1u98_27:
  3678  00161E  2EE8               	decfsz	wreg,f,c
  3679  001620  D7FE               	bra	i1u98_27
  3680  001622  2E03               	decfsz	??i1_tre_ms& (0+255),f,c
  3681  001624  D7FC               	bra	i1u98_27
  3682  001626  0601               	decf	i1tre_ms@ms,f,c
  3683  001628  A0D8               	btfss	status,0,c
  3684  00162A  0602               	decf	i1tre_ms@ms+1,f,c
  3685  00162C  D7F1               	goto	i1_tre_ms
  3686  00162E                     __end_ofi1_tre_ms:
  3687                           	opt stack 0
  3688                           pclatu	equ	0xFFB
  3689                           pclath	equ	0xFFA
  3690                           tblptru	equ	0xFF8
  3691                           tblptrh	equ	0xFF7
  3692                           tblptrl	equ	0xFF6
  3693                           tablat	equ	0xFF5
  3694                           prodh	equ	0xFF4
  3695                           prodl	equ	0xFF3
  3696                           intcon	equ	0xFF2
  3697                           intcon2	equ	0xFF1
  3698                           fsr0h	equ	0xFEA
  3699                           fsr0l	equ	0xFE9
  3700                           wreg	equ	0xFE8
  3701                           fsr1h	equ	0xFE2
  3702                           fsr1l	equ	0xFE1
  3703                           bsr	equ	0xFE0
  3704                           postinc2	equ	0xFDE
  3705                           postdec2	equ	0xFDD
  3706                           fsr2h	equ	0xFDA
  3707                           fsr2l	equ	0xFD9
  3708                           status	equ	0xFD8
  3709                           
  3710 ;; *************** function i1___lwmod *****************
  3711 ;; Defined at:
  3712 ;;		line 8 in file "E:\MPLABX\sources\common\lwmod.c"
  3713 ;; Parameters:    Size  Location     Type
  3714 ;;  dividend        2    7[COMRAM] unsigned int 
  3715 ;;  divisor         2    9[COMRAM] unsigned int 
  3716 ;; Auto vars:     Size  Location     Type
  3717 ;;  __lwmod         1   11[COMRAM] unsigned char 
  3718 ;; Return value:  Size  Location     Type
  3719 ;;                  2    7[COMRAM] unsigned int 
  3720 ;; Registers used:
  3721 ;;		wreg, status,2, status,0
  3722 ;; Tracked objects:
  3723 ;;		On entry : 0/0
  3724 ;;		On exit  : 0/0
  3725 ;;		Unchanged: 0/0
  3726 ;; Data sizes:     COMRAM   BANK0   BANK1   BANK2   BANK3   BANK4   BANK5   BANK6   BANK7   BANK8   BANK9  BANK10  BANK1
      +1  BANK12  BANK13  BANK14  BANK15
  3727 ;;      Params:         4       0       0       0       0       0       0       0       0       0       0       0       
      +0       0       0       0       0
  3728 ;;      Locals:         1       0       0       0       0       0       0       0       0       0       0       0       
      +0       0       0       0       0
  3729 ;;      Temps:          0       0       0       0       0       0       0       0       0       0       0       0       
      +0       0       0       0       0
  3730 ;;      Totals:         5       0       0       0       0       0       0       0       0       0       0       0       
      +0       0       0       0       0
  3731 ;;Total ram usage:        5 bytes
  3732 ;; Hardware stack levels used:    1
  3733 ;; This function calls:
  3734 ;;		Nothing
  3735 ;; This function is called by:
  3736 ;;		i1_printf
  3737 ;; This function uses a non-reentrant model
  3738 ;;
  3739                           
  3740                           	psect	text34
  3741  0013FC                     __ptext34:
  3742                           	opt stack 0
