

Microchip Technology PIC18 LITE Macro Assembler V1.45 build -152302408 
                                                                                               Tue Oct 01 13:02:06 2019

Microchip Technology Omniscient Code Generator v1.45 (Free mode) build 201711160504
     1                           	processor	18F8722
     2                           	fnconf	rparam,??,?,0
     3                           	opt	pw 120
     4                           	opt	lm
     5                           	psect	smallconst,global,reloc=2,class=SMALLCONST,delta=1,noexec
     6                           	psect	cinit,global,reloc=2,class=CODE,delta=1
     7                           	psect	bssCOMRAM,global,class=COMRAM,space=1,delta=1,noexec
     8                           	psect	cstackCOMRAM,global,class=COMRAM,space=1,delta=1,noexec
     9                           	psect	text0,global,reloc=2,class=CODE,delta=1
    10                           	psect	intcode,global,reloc=2,class=CODE,delta=1
    11                           	psect	intcode_body,global,reloc=2,class=CODE,delta=1
    12                           	psect	text2,global,reloc=2,class=CODE,delta=1
    13                           	psect	intsave_regs,global,class=BIGRAM,space=1,delta=1,noexec
    14                           	psect	rparam,global,class=COMRAM,space=1,delta=1,noexec
    15                           	psect	temp,global,ovrld,common,class=COMRAM,space=1,delta=1
    16  0000                     
    17                           ; Version 1.45
    18                           ; Generated 16/11/2017 GMT
    19                           ; 
    20                           ; Copyright © 2017, Microchip Technology Inc. and its subsidiaries ("Microchip")
    21                           ; All rights reserved.
    22                           ; 
    23                           ; This software is developed by Microchip Technology Inc. and its subsidiaries ("Microch
      +                          ip").
    24                           ; 
    25                           ; Redistribution and use in source and binary forms, with or without modification, are
    26                           ; permitted provided that the following conditions are met:
    27                           ; 
    28                           ;     1. Redistributions of source code must retain the above copyright notice, this lis
      +                          t of
    29                           ;        conditions and the following disclaimer.
    30                           ; 
    31                           ;     2. Redistributions in binary form must reproduce the above copyright notice, this 
      +                          list
    32                           ;        of conditions and the following disclaimer in the documentation and/or other
    33                           ;        materials provided with the distribution.
    34                           ; 
    35                           ;     3. Microchip's name may not be used to endorse or promote products derived from th
      +                          is
    36                           ;        software without specific prior written permission.
    37                           ; 
    38                           ; THIS SOFTWARE IS PROVIDED BY MICROCHIP "AS IS" AND ANY EXPRESS OR IMPLIED WARRANTIES,
    39                           ; INCLUDING, BUT NOT LIMITED TO, THE IMPLIED WARRANTIES OF MERCHANTABILITY AND FITNESS F
      +                          OR
    40                           ; PURPOSE ARE DISCLAIMED.  IN NO EVENT SHALL MICROCHIP BE LIABLE FOR ANY DIRECT, INDIREC
      +                          T,
    41                           ; INCIDENTAL, SPECIAL, EXEMPLARY, OR CONSEQUENTIAL DAMAGES (INCLUDING BUT NOT LIMITED TO
    42                           ; PROCUREMENT OF SUBSTITUTE GOODS OR SERVICES; LOSS OF USE, DATA OR PROFITS; OR BUSINESS
    43                           ; INTERRUPTION) HOWSOEVER CAUSED AND ON ANY THEORY OF LIABILITY, WHETHER IN CONTRACT, ST
      +                          RICT
    44                           ; LIABILITY, OR TORT (INCLUDING NEGLIGENCE OR OTHERWISE) ARISING IN ANY WAY OUT OF THE U
      +                          SE OF
    45                           ; THIS SOFTWARE, EVEN IF ADVISED OF THE POSSIBILITY OF SUCH DAMAGE.
    46                           ; 
    47                           ; 
    48                           ; Code-generator required, PIC18F8722 Definitions
    49                           ; 
    50                           ; SFR Addresses
    51  0000                     
    52                           	psect	smallconst
    53  001000                     __psmallconst:
    54                           	opt stack 0
    55  001000  00                 	db	0
    56  001001                     _dl_rom:
    57                           	opt stack 0
    58  001001  55                 	db	85
    59  001002  AA                 	db	170
    60  001003  3C                 	db	60
    61  001004  C3                 	db	195
    62  001005                     __end_of_dl_rom:
    63                           	opt stack 0
    64  0000                     _INTCONbits	set	4082
    65  0000                     _RCONbits	set	4048
    66  0000                     _TRISBbits	set	3987
    67  0000                     _ADCON1	set	4033
    68                           
    69                           ; #config settings
    70  001005  00                 	db	0	; dummy byte at the end
    71  0000                     
    72                           	psect	cinit
    73  0010C0                     __pcinit:
    74                           	opt stack 0
    75  0010C0                     start_initialization:
    76                           	opt stack 0
    77  0010C0                     __initialization:
    78                           	opt stack 0
    79                           
    80                           ; Clear objects allocated to COMRAM (5 bytes)
    81  0010C0  6A17               	clrf	(__pbssCOMRAM+4)& (0+255),c
    82  0010C2  6A16               	clrf	(__pbssCOMRAM+3)& (0+255),c
    83  0010C4  6A15               	clrf	(__pbssCOMRAM+2)& (0+255),c
    84  0010C6  6A14               	clrf	(__pbssCOMRAM+1)& (0+255),c
    85  0010C8  6A13               	clrf	__pbssCOMRAM& (0+255),c
    86  0010CA                     end_of_initialization:
    87                           	opt stack 0
    88  0010CA                     __end_of__initialization:
    89                           	opt stack 0
    90  0010CA  9018               	bcf	int$flags,0,c	;clear compiler interrupt flag (level 1)
    91  0010CC  9218               	bcf	int$flags,1,c	;clear compiler interrupt flag (level 2)
    92  0010CE  0E00               	movlw	low (__Lsmallconst shr (0+16))
    93  0010D0  6EF8               	movwf	tblptru,c
    94  0010D2  0E10               	movlw	high __Lsmallconst
    95  0010D4  6EF7               	movwf	tblptrh,c
    96  0010D6  0100               	movlb	0
    97  0010D8  EF6E  F008         	goto	_main	;jump to C main() function
    98                           tblptru	equ	0xFF8
    99                           tblptrh	equ	0xFF7
   100                           
   101                           	psect	bssCOMRAM
   102  000013                     __pbssCOMRAM:
   103                           	opt stack 0
   104  000013                     _dl_ram:
   105                           	opt stack 0
   106  000013                     	ds	4
   107  000017                     _idx:
   108                           	opt stack 0
   109  000017                     	ds	1
   110                           tblptru	equ	0xFF8
   111                           tblptrh	equ	0xFF7
   112                           
   113                           	psect	cstackCOMRAM
   114  000001                     __pcstackCOMRAM:
   115                           	opt stack 0
   116  000001                     ??_int0_isr:
   117  000001                     
   118                           ; 1 bytes @ 0x0
   119  000001                     	ds	18
   120  000013                     tblptru	equ	0xFF8
   121                           tblptrh	equ	0xFF7
   122                           
   123                           ; 1 bytes @ 0x12
   124 ;;
   125 ;;Main: autosize = 0, tempsize = 0, incstack = 0, save=0
   126 ;;
   127 ;; *************** function _main *****************
   128 ;; Defined at:
   129 ;;		line 47 in file "Tn_03.c"
   130 ;; Parameters:    Size  Location     Type
   131 ;;		None
   132 ;; Auto vars:     Size  Location     Type
   133 ;;		None
   134 ;; Return value:  Size  Location     Type
   135 ;;                  1    wreg      void 
   136 ;; Registers used:
   137 ;;		None
   138 ;; Tracked objects:
   139 ;;		On entry : 0/0
   140 ;;		On exit  : 0/0
   141 ;;		Unchanged: 0/0
   142 ;; Data sizes:     COMRAM   BANK0   BANK1   BANK2   BANK3   BANK4   BANK5   BANK6   BANK7   BANK8   BANK9  BANK10  BANK1
      +1  BANK12  BANK13  BANK14  BANK15
   143 ;;      Params:         0       0       0       0       0       0       0       0       0       0       0       0       
      +0       0       0       0       0
   144 ;;      Locals:         0       0       0       0       0       0       0       0       0       0       0       0       
      +0       0       0       0       0
   145 ;;      Temps:          0       0       0       0       0       0       0       0       0       0       0       0       
      +0       0       0       0       0
   146 ;;      Totals:         0       0       0       0       0       0       0       0       0       0       0       0       
      +0       0       0       0       0
   147 ;;Total ram usage:        0 bytes
   148 ;; Hardware stack levels required when called:    2
   149 ;; This function calls:
   150 ;;		Nothing
   151 ;; This function is called by:
   152 ;;		Startup code after reset
   153 ;; This function uses a non-reentrant model
   154 ;;
   155                           
   156                           	psect	text0
   157  0010DC                     __ptext0:
   158                           	opt stack 0
   159  0010DC                     _main:
   160                           	opt stack 29
   161                           
   162                           ;incstack = 0
   163  0010DC  EF07  F000         	goto	start
   164  0010E0                     __end_of_main:
   165                           	opt stack 0
   166                           tblptru	equ	0xFF8
   167                           tblptrh	equ	0xFF7
   168                           
   169 ;; *************** function _int0_isr *****************
   170 ;; Defined at:
   171 ;;		line 42 in file "Tn_03.c"
   172 ;; Parameters:    Size  Location     Type
   173 ;;		None
   174 ;; Auto vars:     Size  Location     Type
   175 ;;		None
   176 ;; Return value:  Size  Location     Type
   177 ;;                  1    wreg      void 
   178 ;; Registers used:
   179 ;;		wreg, status,2, status,0, tblptrl, tblptrh, tblptru, prodl, prodh, cstack
   180 ;; Tracked objects:
   181 ;;		On entry : 0/0
   182 ;;		On exit  : 0/0
   183 ;;		Unchanged: 0/0
   184 ;; Data sizes:     COMRAM   BANK0   BANK1   BANK2   BANK3   BANK4   BANK5   BANK6   BANK7   BANK8   BANK9  BANK10  BANK1
      +1  BANK12  BANK13  BANK14  BANK15
   185 ;;      Params:         0       0       0       0       0       0       0       0       0       0       0       0       
      +0       0       0       0       0
   186 ;;      Locals:         0       0       0       0       0       0       0       0       0       0       0       0       
      +0       0       0       0       0
   187 ;;      Temps:         18       0       0       0       0       0       0       0       0       0       0       0       
      +0       0       0       0       0
   188 ;;      Totals:        18       0       0       0       0       0       0       0       0       0       0       0       
      +0       0       0       0       0
   189 ;;Total ram usage:       18 bytes
   190 ;; Hardware stack levels used:    1
   191 ;; Hardware stack levels required when called:    1
   192 ;; This function calls:
   193 ;;		_xuatled
   194 ;; This function is called by:
   195 ;;		Interrupt level 2
   196 ;; This function uses a non-reentrant model
   197 ;;
   198                           
   199                           	psect	intcode
   200  000008                     __pintcode:
   201                           	opt stack 0
   202  000008                     _int0_isr:
   203                           	opt stack 29
   204                           
   205                           ;incstack = 0
   206  000008  8218               	bsf	btemp,1,c	;set compiler interrupt flag (level 2)
   207  00000A  ED03  F008         	call	int_func,f	;refresh shadow registers
   208                           tblptru	equ	0xFF8
   209                           tblptrh	equ	0xFF7
   210                           
   211                           	psect	intcode_body
   212  001006                     __pintcode_body:
   213                           	opt stack 29
   214  001006                     int_func:
   215                           	opt stack 29
   216  001006  0006               	pop		; remove dummy address from shadow register refresh
   217  001008  CFFA F001          	movff	pclath,??_int0_isr
   218  00100C  CFFB F002          	movff	pclatu,??_int0_isr+1
   219  001010  CFE9 F003          	movff	fsr0l,??_int0_isr+2
   220  001014  CFEA F004          	movff	fsr0h,??_int0_isr+3
   221  001018  CFE1 F005          	movff	fsr1l,??_int0_isr+4
   222  00101C  CFE2 F006          	movff	fsr1h,??_int0_isr+5
   223  001020  CFD9 F007          	movff	fsr2l,??_int0_isr+6
   224  001024  CFDA F008          	movff	fsr2h,??_int0_isr+7
   225  001028  CFF3 F009          	movff	prodl,??_int0_isr+8
   226  00102C  CFF4 F00A          	movff	prodh,??_int0_isr+9
   227  001030  CFF6 F00B          	movff	tblptrl,??_int0_isr+10
   228  001034  CFF7 F00C          	movff	tblptrh,??_int0_isr+11
   229  001038  CFF8 F00D          	movff	tblptru,??_int0_isr+12
   230  00103C  CFF5 F00E          	movff	tablat,??_int0_isr+13
   231  001040  C018  F00F         	movff	btemp,??_int0_isr+14
   232  001044  C019  F010         	movff	btemp+1,??_int0_isr+15
   233  001048  C01A  F011         	movff	btemp+2,??_int0_isr+16
   234  00104C  C01B  F012         	movff	btemp+3,??_int0_isr+17
   235                           
   236                           ;Tn_03.c: 44: INTCONbits.INT0IF=0;
   237  001050  92F2               	bcf	intcon,1,c	;volatile
   238                           
   239                           ;Tn_03.c: 45: xuatled();
   240  001052  EC51  F008         	call	_xuatled	;wreg free
   241  001056  C012  F01B         	movff	??_int0_isr+17,btemp+3
   242  00105A  C011  F01A         	movff	??_int0_isr+16,btemp+2
   243  00105E  C010  F019         	movff	??_int0_isr+15,btemp+1
   244  001062  C00F  F018         	movff	??_int0_isr+14,btemp
   245  001066  C00E  FFF5         	movff	??_int0_isr+13,tablat
   246  00106A  C00D  FFF8         	movff	??_int0_isr+12,tblptru
   247  00106E  C00C  FFF7         	movff	??_int0_isr+11,tblptrh
   248  001072  C00B  FFF6         	movff	??_int0_isr+10,tblptrl
   249  001076  C00A  FFF4         	movff	??_int0_isr+9,prodh
   250  00107A  C009  FFF3         	movff	??_int0_isr+8,prodl
   251  00107E  C008  FFDA         	movff	??_int0_isr+7,fsr2h
   252  001082  C007  FFD9         	movff	??_int0_isr+6,fsr2l
   253  001086  C006  FFE2         	movff	??_int0_isr+5,fsr1h
   254  00108A  C005  FFE1         	movff	??_int0_isr+4,fsr1l
   255  00108E  C004  FFEA         	movff	??_int0_isr+3,fsr0h
   256  001092  C003  FFE9         	movff	??_int0_isr+2,fsr0l
   257  001096  C002  FFFB         	movff	??_int0_isr+1,pclatu
   258  00109A  C001  FFFA         	movff	??_int0_isr,pclath
   259  00109E  9218               	bcf	btemp,1,c	;clear compiler interrupt flag (level 2)
   260  0010A0  0011               	retfie		f
   261  0010A2                     __end_of_int0_isr:
   262                           	opt stack 0
   263                           pclatu	equ	0xFFB
   264                           pclath	equ	0xFFA
   265                           tblptru	equ	0xFF8
   266                           tblptrh	equ	0xFF7
   267                           tblptrl	equ	0xFF6
   268                           tablat	equ	0xFF5
   269                           prodh	equ	0xFF4
   270                           prodl	equ	0xFF3
   271                           intcon	equ	0xFF2
   272                           fsr0h	equ	0xFEA
   273                           fsr0l	equ	0xFE9
   274                           fsr1h	equ	0xFE2
   275                           fsr1l	equ	0xFE1
   276                           fsr2h	equ	0xFDA
   277                           fsr2l	equ	0xFD9
   278                           
   279 ;; *************** function _xuatled *****************
   280 ;; Defined at:
   281 ;;		line 12 in file "Tn_03.c"
   282 ;; Parameters:    Size  Location     Type
   283 ;;		None
   284 ;; Auto vars:     Size  Location     Type
   285 ;;		None
   286 ;; Return value:  Size  Location     Type
   287 ;;                  1    wreg      void 
   288 ;; Registers used:
   289 ;;		wreg, status,2, status,0, tblptrl, tblptrh, tblptru, prodl, prodh
   290 ;; Tracked objects:
   291 ;;		On entry : 0/0
   292 ;;		On exit  : 0/0
   293 ;;		Unchanged: 0/0
   294 ;; Data sizes:     COMRAM   BANK0   BANK1   BANK2   BANK3   BANK4   BANK5   BANK6   BANK7   BANK8   BANK9  BANK10  BANK1
      +1  BANK12  BANK13  BANK14  BANK15
   295 ;;      Params:         0       0       0       0       0       0       0       0       0       0       0       0       
      +0       0       0       0       0
   296 ;;      Locals:         0       0       0       0       0       0       0       0       0       0       0       0       
      +0       0       0       0       0
   297 ;;      Temps:          0       0       0       0       0       0       0       0       0       0       0       0       
      +0       0       0       0       0
   298 ;;      Totals:         0       0       0       0       0       0       0       0       0       0       0       0       
      +0       0       0       0       0
   299 ;;Total ram usage:        0 bytes
   300 ;; Hardware stack levels used:    1
   301 ;; This function calls:
   302 ;;		Nothing
   303 ;; This function is called by:
   304 ;;		_int0_isr
   305 ;;		_init
   306 ;; This function uses a non-reentrant model
   307 ;;
   308                           
   309                           	psect	text2
   310  0010A2                     __ptext2:
   311                           	opt stack 0
   312  0010A2                     _xuatled:
   313                           	opt stack 29
   314                           
   315                           ;Tn_03.c: 14: led=dl_rom[idx++];
   316                           
   317                           ;incstack = 0
   318  0010A2  5017               	movf	_idx,w,c
   319  0010A4  0D01               	mullw	1
   320  0010A6  0E01               	movlw	low _dl_rom
   321  0010A8  24F3               	addwf	prodl,w,c
   322  0010AA  6EF6               	movwf	tblptrl,c
   323  0010AC  0E10               	movlw	high _dl_rom
   324  0010AE  20F4               	addwfc	prodh,w,c
   325  0010B0  6EF7               	movwf	tblptrh,c
   326  0010B2                     	if	0	;There are less than 3 active tblptr bytes
   327  0010B2                     	endif
   328  0010B2  0008               	tblrd		*
   329  0010B4  CFF5 FF8C          	movff	tablat,3980	;volatile
   330  0010B8  2A17               	incf	_idx,f,c
   331                           
   332                           ;Tn_03.c: 15: idx%=4;
   333  0010BA  0E03               	movlw	3
   334  0010BC  1617               	andwf	_idx,f,c
   335  0010BE  0012               	return		;funcret
   336  0010C0                     __end_of_xuatled:
   337                           	opt stack 0
   338                           pclatu	equ	0xFFB
   339                           pclath	equ	0xFFA
   340                           tblptru	equ	0xFF8
   341                           tblptrh	equ	0xFF7
   342                           tblptrl	equ	0xFF6
   343                           tablat	equ	0xFF5
   344                           prodh	equ	0xFF4
   345                           prodl	equ	0xFF3
   346                           intcon	equ	0xFF2
   347                           fsr0h	equ	0xFEA
   348                           fsr0l	equ	0xFE9
   349                           fsr1h	equ	0xFE2
   350                           fsr1l	equ	0xFE1
   351                           fsr2h	equ	0xFDA
   352                           fsr2l	equ	0xFD9
   353                           pclatu	equ	0xFFB
   354                           pclath	equ	0xFFA
   355                           tblptru	equ	0xFF8
   356                           tblptrh	equ	0xFF7
   357                           tblptrl	equ	0xFF6
   358                           tablat	equ	0xFF5
   359                           prodh	equ	0xFF4
   360                           prodl	equ	0xFF3
   361                           intcon	equ	0xFF2
   362                           fsr0h	equ	0xFEA
   363                           fsr0l	equ	0xFE9
   364                           fsr1h	equ	0xFE2
   365                           fsr1l	equ	0xFE1
   366                           fsr2h	equ	0xFDA
   367                           fsr2l	equ	0xFD9
   368                           
   369                           	psect	rparam
   370  0000                     pclatu	equ	0xFFB
   371                           pclath	equ	0xFFA
   372                           tblptru	equ	0xFF8
   373                           tblptrh	equ	0xFF7
   374                           tblptrl	equ	0xFF6
   375                           tablat	equ	0xFF5
   376                           prodh	equ	0xFF4
   377                           prodl	equ	0xFF3
   378                           intcon	equ	0xFF2
   379                           fsr0h	equ	0xFEA
   380                           fsr0l	equ	0xFE9
   381                           fsr1h	equ	0xFE2
   382                           fsr1l	equ	0xFE1
   383                           fsr2h	equ	0xFDA
   384                           fsr2l	equ	0xFD9
   385                           
   386                           	psect	temp
   387  000018                     btemp:
   388                           	opt stack 0
   389  000018                     	ds	1
   390  0000                     int$flags	set	btemp
   391  0000                     wtemp6	set	btemp+1
   392                           pclatu	equ	0xFFB
   393                           pclath	equ	0xFFA
   394                           tblptru	equ	0xFF8
   395                           tblptrh	equ	0xFF7
   396                           tblptrl	equ	0xFF6
   397                           tablat	equ	0xFF5
   398                           prodh	equ	0xFF4
   399                           prodl	equ	0xFF3
   400                           intcon	equ	0xFF2
   401                           fsr0h	equ	0xFEA
   402                           fsr0l	equ	0xFE9
   403                           fsr1h	equ	0xFE2
   404                           fsr1l	equ	0xFE1
   405                           fsr2h	equ	0xFDA
   406                           fsr2l	equ	0xFD9


Data Sizes:
    Strings     0
    Constant    4
    Data        0
    BSS         5
    Persistent  0
    Stack       0

Auto Spaces:
    Space          Size  Autos    Used
    COMRAM           94     18      23
    BANK0           160      0       0
    BANK1           256      0       0
    BANK2           256      0       0
    BANK3           256      0       0
    BANK4           256      0       0
    BANK5           256      0       0
    BANK6           256      0       0
    BANK7           256      0       0
    BANK8           256      0       0
    BANK9           256      0       0
    BANK10          256      0       0
    BANK11          256      0       0
    BANK12          256      0       0
    BANK13          256      0       0
    BANK14          256      0       0
    BANK15           96      0       0

Pointer List with Targets:

    None.

Critical Paths under _main in COMRAM

    None.

Critical Paths under _int0_isr in COMRAM

    None.

Critical Paths under _main in BANK0

    None.

Critical Paths under _int0_isr in BANK0

    None.

Critical Paths under _main in BANK1

    None.

Critical Paths under _int0_isr in BANK1

    None.

Critical Paths under _main in BANK2

    None.

Critical Paths under _int0_isr in BANK2

    None.

Critical Paths under _main in BANK3

    None.

Critical Paths under _int0_isr in BANK3

    None.

Critical Paths under _main in BANK4

    None.

Critical Paths under _int0_isr in BANK4

    None.

Critical Paths under _main in BANK5

    None.

Critical Paths under _int0_isr in BANK5

    None.

Critical Paths under _main in BANK6

    None.

Critical Paths under _int0_isr in BANK6

    None.

Critical Paths under _main in BANK7

    None.

Critical Paths under _int0_isr in BANK7

    None.

Critical Paths under _main in BANK8

    None.

Critical Paths under _int0_isr in BANK8

    None.

Critical Paths under _main in BANK9

    None.

Critical Paths under _int0_isr in BANK9

    None.

Critical Paths under _main in BANK10

    None.

Critical Paths under _int0_isr in BANK10

    None.

Critical Paths under _main in BANK11

    None.

Critical Paths under _int0_isr in BANK11

    None.

Critical Paths under _main in BANK12

    None.

Critical Paths under _int0_isr in BANK12

    None.

Critical Paths under _main in BANK13

    None.

Critical Paths under _int0_isr in BANK13

    None.

Critical Paths under _main in BANK14

    None.

Critical Paths under _int0_isr in BANK14

    None.

Critical Paths under _main in BANK15

    None.

Critical Paths under _int0_isr in BANK15

    None.

Call Graph Tables:

 ---------------------------------------------------------------------------------
 (Depth) Function   	        Calls       Base Space   Used Autos Params    Refs
 ---------------------------------------------------------------------------------
 (0) _main                                                 0     0      0       0
 ---------------------------------------------------------------------------------
 Estimated maximum stack depth 0
 ---------------------------------------------------------------------------------
 (Depth) Function   	        Calls       Base Space   Used Autos Params    Refs
 ---------------------------------------------------------------------------------
 (1) _int0_isr                                            18    18      0       0
                                              0 COMRAM    18    18      0
                            _xuatled
 ---------------------------------------------------------------------------------
 (2) _xuatled                                              0     0      0       0
 ---------------------------------------------------------------------------------
 Estimated maximum stack depth 2
 ---------------------------------------------------------------------------------

 Call Graph Graphs:

 _main (ROOT)

 _int0_isr (ROOT)
   _xuatled

 Address spaces:
Name               Size   Autos  Total    Cost      Usage
BIGRAM             F5F      0       0      37        0.0%
EEDATA             400      0       0       0        0.0%
BITBANK14          100      0       0      33        0.0%
BANK14             100      0       0      34        0.0%
BITBANK13          100      0       0      30        0.0%
BANK13             100      0       0      31        0.0%
BITBANK12          100      0       0      28        0.0%
BANK12             100      0       0      29        0.0%
BITBANK11          100      0       0      26        0.0%
BANK11             100      0       0      27        0.0%
BITBANK10          100      0       0      24        0.0%
BANK10             100      0       0      25        0.0%
BITBANK9           100      0       0      22        0.0%
BANK9              100      0       0      23        0.0%
BITBANK8           100      0       0      20        0.0%
BANK8              100      0       0      21        0.0%
BITBANK7           100      0       0      18        0.0%
BANK7              100      0       0      19        0.0%
BITBANK6           100      0       0      16        0.0%
BANK6              100      0       0      17        0.0%
BITBANK5           100      0       0      14        0.0%
BANK5              100      0       0      15        0.0%
BITBANK4           100      0       0      12        0.0%
BANK4              100      0       0      13        0.0%
BITBANK3           100      0       0      10        0.0%
BANK3              100      0       0      11        0.0%
BITBANK2           100      0       0       8        0.0%
BANK2              100      0       0       9        0.0%
BITBANK1           100      0       0       6        0.0%
BANK1              100      0       0       7        0.0%
BITBANK0            A0      0       0       4        0.0%
BANK0               A0      0       0       5        0.0%
BITBANK15           60      0       0      35        0.0%
BANK15              60      0       0      36        0.0%
BITCOMRAM           5E      0       0       0        0.0%
COMRAM              5E     12      17       1       24.5%
BITSFR               0      0       0     200        0.0%
SFR                  0      0       0     200        0.0%
STACK                0      0       0       2        0.0%
NULL                 0      0       0       0        0.0%
ABS                  0      0      17      32        0.0%
DATA                 0      0      17       3        0.0%
CODE                 0      0       0       0        0.0%


Microchip Technology PIC18 Macro Assembler V1.45 build -152302408 
Symbol Table                                                                                   Tue Oct 01 13:02:06 2019

            __CFG_OSC$HS 000000                      _led 000F8C                      _idx 0017  
           __CFG_LVP$OFF 000000             __CFG_WDT$OFF 000000                     _main 10DC  
                   fsr0h 000FEA                     fsr1h 000FE2                     fsr2h 000FDA  
                   fsr0l 000FE9                     fsr1l 000FE1                     fsr2l 000FD9  
                   btemp 0018                     prodh 000FF4                     prodl 000FF3  
                   start 000E             ___param_bank 000000                    ?_main 0001  
                  pclath 000FFA                    tablat 000FF5                    wtemp6 0019  
        __end_of_xuatled 10C0          __initialization 10C0             __end_of_main 10E0  
                 ??_main 0013            __activetblptr 000001                   _ADCON1 000FC1  
       __end_of_int0_isr 10A2                   _dl_ram 0013                   _dl_rom 1001  
                 _led_io 000F95             __mediumconst 0000                   tblptrh 000FF7  
                 tblptrl 000FF6                   tblptru 000FF8                ??_xuatled 0001  
             __accesstop 0060  __end_of__initialization 10CA            ___rparam_used 000001  
         __pcstackCOMRAM 0001                ?_int0_isr 0001                  __Hparam 0000  
                __Lparam 0000             __psmallconst 1000                  __pcinit 10C0  
                __ramtop 1000                  __ptext0 10DC                  __ptext2 10A2  
             ??_int0_isr 0001           __pintcode_body 1006     end_of_initialization 10CA  
                _xuatled 10A2                  int_func 1006                _TRISBbits 000F93  
         __end_of_dl_rom 1005      start_initialization 10C0              __pbssCOMRAM 0013  
      __size_of_int0_isr 109A                __pintcode 0008              __smallconst 1000  
               ?_xuatled 0001                 _RCONbits 000FD0                 __Hrparam 0000  
               __Lrparam 0000             __Lsmallconst 1000                 _int0_isr 0008  
       __size_of_xuatled 001E            __size_of_main 0004                 int$flags 0018  
             _INTCONbits 000FF2                 intlevel2 0000  
