:0400000007EF00F016
:0A000800188203ED08F060EF08F025
:101000000055AA3CC3000600FACF01F0FBCF02F066
:10101000E9CF03F0EACF04F0E1CF05F0E2CF06F02C
:10102000D9CF07F0DACF08F0F3CF09F0F4CF0AF008
:10103000F6CF0BF0F7CF0CF0F8CF0DF0F5CF0EF0A8
:1010400018C00FF019C010F01AC011F01BC012F038
:10105000F29251EC08F012C01BF011C01AF010C04F
:1010600019F00FC018F00EC0F5FF0DC0F8FF0CC04E
:10107000F7FF0BC0F6FF0AC0F4FF09C0F3FF08C07A
:10108000DAFF07C0D9FF06C0E2FF05C0E1FF04C0D8
:10109000EAFF03C0E9FF02C0FBFF01C0FAFF18929C
:1010A00011001750010D010EF324F66E100EF420FE
:1010B000F76E0800F5CF8CFF172A030E17161200E3
:1010C000176A166A156A146A136A18901892000E45
:1010D000F86E100EF76E00016EEF08F007EF00F0EB
:020000040020DA
:08000000FFFFFFFFFFFFFFFF00
:020000040030CA
:0E000000FF021F1EF38381FFFFC0FFE0FF40E1
:00000001FF
