

Microchip Technology PIC18 LITE Macro Assembler V1.45 build -152302408 
                                                                                               Tue Sep 24 14:10:13 2019

Microchip Technology Omniscient Code Generator v1.45 (Free mode) build 201711160504
     1                           	processor	18F8722
     2                           	fnconf	rparam,??,?,0
     3                           	opt	pw 120
     4                           	opt	lm
     5                           	psect	text0,global,reloc=2,class=CODE,delta=1
     6                           	psect	cinit,global,reloc=2,class=CODE,delta=1
     7                           	psect	bssCOMRAM,global,class=COMRAM,space=1,delta=1,noexec
     8                           	psect	cstackCOMRAM,global,class=COMRAM,space=1,delta=1,noexec
     9                           	psect	text1,global,reloc=2,class=CODE,delta=1
    10                           	psect	text2,global,reloc=2,class=CODE,delta=1
    11                           	psect	text3,global,reloc=2,class=CODE,delta=1
    12                           	psect	text4,global,reloc=2,class=CODE,delta=1
    13                           	psect	intsave_regs,global,class=BIGRAM,space=1,delta=1,noexec
    14                           	psect	rparam,global,class=COMRAM,space=1,delta=1,noexec
    15  0000                     
    16                           ; Version 1.45
    17                           ; Generated 16/11/2017 GMT
    18                           ; 
    19                           ; Copyright © 2017, Microchip Technology Inc. and its subsidiaries ("Microchip")
    20                           ; All rights reserved.
    21                           ; 
    22                           ; This software is developed by Microchip Technology Inc. and its subsidiaries ("Microch
      +                          ip").
    23                           ; 
    24                           ; Redistribution and use in source and binary forms, with or without modification, are
    25                           ; permitted provided that the following conditions are met:
    26                           ; 
    27                           ;     1. Redistributions of source code must retain the above copyright notice, this lis
      +                          t of
    28                           ;        conditions and the following disclaimer.
    29                           ; 
    30                           ;     2. Redistributions in binary form must reproduce the above copyright notice, this 
      +                          list
    31                           ;        of conditions and the following disclaimer in the documentation and/or other
    32                           ;        materials provided with the distribution.
    33                           ; 
    34                           ;     3. Microchip's name may not be used to endorse or promote products derived from th
      +                          is
    35                           ;        software without specific prior written permission.
    36                           ; 
    37                           ; THIS SOFTWARE IS PROVIDED BY MICROCHIP "AS IS" AND ANY EXPRESS OR IMPLIED WARRANTIES,
    38                           ; INCLUDING, BUT NOT LIMITED TO, THE IMPLIED WARRANTIES OF MERCHANTABILITY AND FITNESS F
      +                          OR
    39                           ; PURPOSE ARE DISCLAIMED.  IN NO EVENT SHALL MICROCHIP BE LIABLE FOR ANY DIRECT, INDIREC
      +                          T,
    40                           ; INCIDENTAL, SPECIAL, EXEMPLARY, OR CONSEQUENTIAL DAMAGES (INCLUDING BUT NOT LIMITED TO
    41                           ; PROCUREMENT OF SUBSTITUTE GOODS OR SERVICES; LOSS OF USE, DATA OR PROFITS; OR BUSINESS
    42                           ; INTERRUPTION) HOWSOEVER CAUSED AND ON ANY THEORY OF LIABILITY, WHETHER IN CONTRACT, ST
      +                          RICT
    43                           ; LIABILITY, OR TORT (INCLUDING NEGLIGENCE OR OTHERWISE) ARISING IN ANY WAY OUT OF THE U
      +                          SE OF
    44                           ; THIS SOFTWARE, EVEN IF ADVISED OF THE POSSIBILITY OF SUCH DAMAGE.
    45                           ; 
    46                           ; 
    47                           ; Code-generator required, PIC18F8722 Definitions
    48                           ; 
    49                           ; SFR Addresses
    50  0000                     
    51                           ; 1 bytes @ 0x2
    52 ;;
    53 ;;Main: autosize = 0, tempsize = 0, incstack = 0, save=0
    54 ;;
    55 ;; *************** function _main *****************
    56 ;; Defined at:
    57 ;;		line 44 in file "Tn02.c"
    58 ;; Parameters:    Size  Location     Type
    59 ;;		None
    60 ;; Auto vars:     Size  Location     Type
    61 ;;		None
    62 ;; Return value:  Size  Location     Type
    63 ;;                  1    wreg      void 
    64 ;; Registers used:
    65 ;;		wreg, status,2, status,0, cstack
    66 ;; Tracked objects:
    67 ;;		On entry : 0/0
    68 ;;		On exit  : 0/0
    69 ;;		Unchanged: 0/0
    70 ;; Data sizes:     COMRAM   BANK0   BANK1   BANK2   BANK3   BANK4   BANK5   BANK6   BANK7   BANK8   BANK9  BANK10  BANK1
      +1  BANK12  BANK13  BANK14  BANK15
    71 ;;      Params:         0       0       0       0       0       0       0       0       0       0       0       0       
      +0       0       0       0       0
    72 ;;      Locals:         0       0       0       0       0       0       0       0       0       0       0       0       
      +0       0       0       0       0
    73 ;;      Temps:          0       0       0       0       0       0       0       0       0       0       0       0       
      +0       0       0       0       0
    74 ;;      Totals:         0       0       0       0       0       0       0       0       0       0       0       0       
      +0       0       0       0       0
    75 ;;Total ram usage:        0 bytes
    76 ;; Hardware stack levels required when called:    1
    77 ;; This function calls:
    78 ;;		_init
    79 ;;		_lamtre
    80 ;;		_quayphai
    81 ;;		_quaytrai
    82 ;; This function is called by:
    83 ;;		Startup code after reset
    84 ;; This function uses a non-reentrant model
    85 ;;
    86                           
    87                           	psect	text0
    88  01FFCE                     __ptext0:
    89                           	opt stack 0
    90  0000                     _TRISA5	set	31893
    91  0000                     _ADCON1	set	4033
    92  0000                     _TRISAbits	set	3986
    93  0000                     _PORTAbits	set	3968
    94  0000                     
    95                           ; #config settings
    96  01FFCE                     _main:
    97                           	opt stack 30
    98                           
    99                           ;Tn02.c: 46: init();
   100                           
   101                           ;incstack = 0
   102  01FFCE  ECB2  F0FF         	call	_init	;wreg free
   103  01FFD2                     
   104                           ;Tn02.c: 48: {
   105                           ;Tn02.c: 49: lamtre();
   106  01FFD2  ECD7  F0FF         	call	_lamtre	;wreg free
   107                           
   108                           ;Tn02.c: 58: if (PORTAbits.RA5==0)
   109  01FFD6  BA80               	btfsc	3968,5,c	;volatile
   110  01FFD8  D009               	goto	l43
   111                           
   112                           ;Tn02.c: 59: { chieu += 1;
   113  01FFDA  2A03               	incf	_chieu,f,c
   114                           
   115                           ;Tn02.c: 60: if (chieu % 2 == 0)
   116  01FFDC  B003               	btfsc	_chieu,0,c
   117  01FFDE  D002               	goto	l42
   118                           
   119                           ;Tn02.c: 61: {
   120                           ;Tn02.c: 62: chieu = 0;
   121  01FFE0  0E00               	movlw	0
   122  01FFE2  6E03               	movwf	_chieu,c
   123  01FFE4                     l42:
   124                           
   125                           ;Tn02.c: 63: }
   126                           ;Tn02.c: 64: if (chieu % 2 == 1)
   127  01FFE4  A003               	btfss	_chieu,0,c
   128  01FFE6  D002               	goto	l43
   129                           
   130                           ;Tn02.c: 65: {
   131                           ;Tn02.c: 66: chieu = 1;
   132  01FFE8  0E01               	movlw	1
   133  01FFEA  6E03               	movwf	_chieu,c
   134  01FFEC                     l43:
   135                           
   136                           ;Tn02.c: 67: }
   137                           ;Tn02.c: 68: }
   138                           ;Tn02.c: 69: if (chieu ==0)
   139  01FFEC  5003               	movf	_chieu,w,c
   140  01FFEE  B4D8               	btfsc	status,2,c
   141                           
   142                           ;Tn02.c: 70: { quaytrai();
   143  01FFF0  ECCA  F0FF         	call	_quaytrai	;wreg free
   144                           
   145                           ;Tn02.c: 71: }
   146                           ;Tn02.c: 72: if (chieu==1)
   147  01FFF4  0403               	decf	_chieu,w,c
   148  01FFF6  A4D8               	btfss	status,2,c
   149  01FFF8  D7EC               	goto	l40
   150                           
   151                           ;Tn02.c: 73: { quayphai();
   152  01FFFA  ECBD  F0FF         	call	_quayphai	;wreg free
   153  01FFFE  D7E9               	goto	l40
   154  020000                     __end_of_main:
   155                           	opt stack 0
   156                           status	equ	0xFD8
   157                           
   158                           	psect	cinit
   159  01FF5C                     __pcinit:
   160                           	opt stack 0
   161  01FF5C                     start_initialization:
   162                           	opt stack 0
   163  01FF5C                     __initialization:
   164                           	opt stack 0
   165                           
   166                           ; Clear objects allocated to COMRAM (1 bytes)
   167  01FF5C  6A03               	clrf	__pbssCOMRAM& (0+255),c
   168  01FF5E                     end_of_initialization:
   169                           	opt stack 0
   170  01FF5E                     __end_of__initialization:
   171                           	opt stack 0
   172  01FF5E  0100               	movlb	0
   173  01FF60  EFE7  F0FF         	goto	_main	;jump to C main() function
   174                           status	equ	0xFD8
   175                           
   176                           	psect	bssCOMRAM
   177  000003                     __pbssCOMRAM:
   178                           	opt stack 0
   179  000003                     _chieu:
   180                           	opt stack 0
   181  000003                     	ds	1
   182                           status	equ	0xFD8
   183                           
   184                           	psect	cstackCOMRAM
   185  000001                     __pcstackCOMRAM:
   186                           	opt stack 0
   187  000001                     ??_lamtre:
   188  000001                     quaytrai@bit7led:
   189                           	opt stack 0
   190  000001                     quayphai@bit7led:
   191                           	opt stack 0
   192                           
   193                           ; 1 bytes @ 0x0
   194  000001                     	ds	1
   195  000002                     lamtre@dem:
   196                           	opt stack 0
   197  000002                     quaytrai@tam:
   198                           	opt stack 0
   199  000002                     quayphai@tam:
   200                           	opt stack 0
   201                           
   202                           ; 1 bytes @ 0x1
   203  000002                     	ds	1
   204  000003                     status	equ	0xFD8
   205                           
   206 ;; *************** function _quaytrai *****************
   207 ;; Defined at:
   208 ;;		line 25 in file "Tn02.c"
   209 ;; Parameters:    Size  Location     Type
   210 ;;		None
   211 ;; Auto vars:     Size  Location     Type
   212 ;;  tam             1    1[COMRAM] unsigned char 
   213 ;;  bit7led         1    0[COMRAM] unsigned char 
   214 ;; Return value:  Size  Location     Type
   215 ;;                  1    wreg      void 
   216 ;; Registers used:
   217 ;;		wreg, status,2, status,0
   218 ;; Tracked objects:
   219 ;;		On entry : 0/0
   220 ;;		On exit  : 0/0
   221 ;;		Unchanged: 0/0
   222 ;; Data sizes:     COMRAM   BANK0   BANK1   BANK2   BANK3   BANK4   BANK5   BANK6   BANK7   BANK8   BANK9  BANK10  BANK1
      +1  BANK12  BANK13  BANK14  BANK15
   223 ;;      Params:         0       0       0       0       0       0       0       0       0       0       0       0       
      +0       0       0       0       0
   224 ;;      Locals:         2       0       0       0       0       0       0       0       0       0       0       0       
      +0       0       0       0       0
   225 ;;      Temps:          0       0       0       0       0       0       0       0       0       0       0       0       
      +0       0       0       0       0
   226 ;;      Totals:         2       0       0       0       0       0       0       0       0       0       0       0       
      +0       0       0       0       0
   227 ;;Total ram usage:        2 bytes
   228 ;; Hardware stack levels used:    1
   229 ;; This function calls:
   230 ;;		Nothing
   231 ;; This function is called by:
   232 ;;		_main
   233 ;; This function uses a non-reentrant model
   234 ;;
   235                           
   236                           	psect	text1
   237  01FF94                     __ptext1:
   238                           	opt stack 0
   239  01FF94                     _quaytrai:
   240                           	opt stack 30
   241                           
   242                           ;Tn02.c: 27: unsigned char tam, bit7led;
   243                           ;Tn02.c: 28: tam = led; bit7led = tam&0x80; tam<<=1;
   244                           
   245                           ;incstack = 0
   246  01FF94  CF8C F002          	movff	3980,quaytrai@tam	;volatile
   247  01FF98  5002               	movf	quaytrai@tam,w,c
   248  01FF9A  0B80               	andlw	128
   249  01FF9C  6E01               	movwf	quaytrai@bit7led,c
   250  01FF9E  90D8               	bcf	status,0,c
   251  01FFA0  3602               	rlcf	quaytrai@tam,f,c
   252                           
   253                           ;Tn02.c: 29: if ((bit7led)!=0) tam |= 1;
   254  01FFA2  5001               	movf	quaytrai@bit7led,w,c
   255  01FFA4  A4D8               	btfss	status,2,c
   256  01FFA6  8002               	bsf	quaytrai@tam,0,c
   257                           
   258                           ;Tn02.c: 30: led = tam;
   259  01FFA8  C002  FF8C         	movff	quaytrai@tam,3980	;volatile
   260  01FFAC  0012               	return		;funcret
   261  01FFAE                     __end_of_quaytrai:
   262                           	opt stack 0
   263                           status	equ	0xFD8
   264                           
   265 ;; *************** function _quayphai *****************
   266 ;; Defined at:
   267 ;;		line 33 in file "Tn02.c"
   268 ;; Parameters:    Size  Location     Type
   269 ;;		None
   270 ;; Auto vars:     Size  Location     Type
   271 ;;  tam             1    1[COMRAM] unsigned char 
   272 ;;  bit7led         1    0[COMRAM] unsigned char 
   273 ;; Return value:  Size  Location     Type
   274 ;;                  1    wreg      void 
   275 ;; Registers used:
   276 ;;		wreg, status,2, status,0
   277 ;; Tracked objects:
   278 ;;		On entry : 0/0
   279 ;;		On exit  : 0/0
   280 ;;		Unchanged: 0/0
   281 ;; Data sizes:     COMRAM   BANK0   BANK1   BANK2   BANK3   BANK4   BANK5   BANK6   BANK7   BANK8   BANK9  BANK10  BANK1
      +1  BANK12  BANK13  BANK14  BANK15
   282 ;;      Params:         0       0       0       0       0       0       0       0       0       0       0       0       
      +0       0       0       0       0
   283 ;;      Locals:         2       0       0       0       0       0       0       0       0       0       0       0       
      +0       0       0       0       0
   284 ;;      Temps:          0       0       0       0       0       0       0       0       0       0       0       0       
      +0       0       0       0       0
   285 ;;      Totals:         2       0       0       0       0       0       0       0       0       0       0       0       
      +0       0       0       0       0
   286 ;;Total ram usage:        2 bytes
   287 ;; Hardware stack levels used:    1
   288 ;; This function calls:
   289 ;;		Nothing
   290 ;; This function is called by:
   291 ;;		_main
   292 ;; This function uses a non-reentrant model
   293 ;;
   294                           
   295                           	psect	text2
   296  01FF7A                     __ptext2:
   297                           	opt stack 0
   298  01FF7A                     _quayphai:
   299                           	opt stack 30
   300                           
   301                           ;Tn02.c: 35: unsigned char tam, bit7led;
   302                           ;Tn02.c: 36: tam = led; bit7led = tam&0x01; tam>>=1;
   303                           
   304                           ;incstack = 0
   305  01FF7A  CF8C F002          	movff	3980,quayphai@tam	;volatile
   306  01FF7E  5002               	movf	quayphai@tam,w,c
   307  01FF80  0B01               	andlw	1
   308  01FF82  6E01               	movwf	quayphai@bit7led,c
   309  01FF84  90D8               	bcf	status,0,c
   310  01FF86  3202               	rrcf	quayphai@tam,f,c
   311                           
   312                           ;Tn02.c: 37: if ((bit7led)!=0) tam |= 0x80;
   313  01FF88  5001               	movf	quayphai@bit7led,w,c
   314  01FF8A  A4D8               	btfss	status,2,c
   315  01FF8C  8E02               	bsf	quayphai@tam,7,c
   316                           
   317                           ;Tn02.c: 38: led = tam;
   318  01FF8E  C002  FF8C         	movff	quayphai@tam,3980	;volatile
   319  01FF92  0012               	return		;funcret
   320  01FF94                     __end_of_quayphai:
   321                           	opt stack 0
   322                           status	equ	0xFD8
   323                           
   324 ;; *************** function _lamtre *****************
   325 ;; Defined at:
   326 ;;		line 19 in file "Tn02.c"
   327 ;; Parameters:    Size  Location     Type
   328 ;;		None
   329 ;; Auto vars:     Size  Location     Type
   330 ;;  dem             1    1[COMRAM] unsigned char 
   331 ;; Return value:  Size  Location     Type
   332 ;;                  1    wreg      void 
   333 ;; Registers used:
   334 ;;		wreg, status,2, status,0
   335 ;; Tracked objects:
   336 ;;		On entry : 0/0
   337 ;;		On exit  : 0/0
   338 ;;		Unchanged: 0/0
   339 ;; Data sizes:     COMRAM   BANK0   BANK1   BANK2   BANK3   BANK4   BANK5   BANK6   BANK7   BANK8   BANK9  BANK10  BANK1
      +1  BANK12  BANK13  BANK14  BANK15
   340 ;;      Params:         0       0       0       0       0       0       0       0       0       0       0       0       
      +0       0       0       0       0
   341 ;;      Locals:         1       0       0       0       0       0       0       0       0       0       0       0       
      +0       0       0       0       0
   342 ;;      Temps:          1       0       0       0       0       0       0       0       0       0       0       0       
      +0       0       0       0       0
   343 ;;      Totals:         2       0       0       0       0       0       0       0       0       0       0       0       
      +0       0       0       0       0
   344 ;;Total ram usage:        2 bytes
   345 ;; Hardware stack levels used:    1
   346 ;; This function calls:
   347 ;;		Nothing
   348 ;; This function is called by:
   349 ;;		_main
   350 ;; This function uses a non-reentrant model
   351 ;;
   352                           
   353                           	psect	text3
   354  01FFAE                     __ptext3:
   355                           	opt stack 0
   356  01FFAE                     _lamtre:
   357                           	opt stack 30
   358                           
   359                           ;Tn02.c: 21: unsigned char dem;
   360                           ;Tn02.c: 22: for (dem = 0; dem < 100; dem++) _delay((unsigned long)((2)*(10000000/4000.0
      +                          )));
   361                           
   362                           ;incstack = 0
   363  01FFAE  0E00               	movlw	0
   364  01FFB0  6E02               	movwf	lamtre@dem,c
   365  01FFB2                     l678:
   366  01FFB2  0E63               	movlw	99
   367  01FFB4  6402               	cpfsgt	lamtre@dem,c
   368  01FFB6  D001               	goto	l22
   369  01FFB8  0012               	return	
   370  01FFBA                     l22:
   371  01FFBA  0E07               	movlw	7
   372  01FFBC  6E01               	movwf	??_lamtre& (0+255),c
   373  01FFBE  0E7D               	movlw	125
   374  01FFC0                     u107:
   375  01FFC0  2EE8               	decfsz	wreg,f,c
   376  01FFC2  D7FE               	bra	u107
   377  01FFC4  2E01               	decfsz	??_lamtre& (0+255),f,c
   378  01FFC6  D7FC               	bra	u107
   379  01FFC8  F000               	nop	
   380  01FFCA  2A02               	incf	lamtre@dem,f,c
   381  01FFCC  D7F2               	goto	l678
   382  01FFCE                     __end_of_lamtre:
   383                           	opt stack 0
   384                           wreg	equ	0xFE8
   385                           status	equ	0xFD8
   386                           
   387 ;; *************** function _init *****************
   388 ;; Defined at:
   389 ;;		line 8 in file "Tn02.c"
   390 ;; Parameters:    Size  Location     Type
   391 ;;		None
   392 ;; Auto vars:     Size  Location     Type
   393 ;;		None
   394 ;; Return value:  Size  Location     Type
   395 ;;                  1    wreg      void 
   396 ;; Registers used:
   397 ;;		wreg, status,2
   398 ;; Tracked objects:
   399 ;;		On entry : 0/0
   400 ;;		On exit  : 0/0
   401 ;;		Unchanged: 0/0
   402 ;; Data sizes:     COMRAM   BANK0   BANK1   BANK2   BANK3   BANK4   BANK5   BANK6   BANK7   BANK8   BANK9  BANK10  BANK1
      +1  BANK12  BANK13  BANK14  BANK15
   403 ;;      Params:         0       0       0       0       0       0       0       0       0       0       0       0       
      +0       0       0       0       0
   404 ;;      Locals:         0       0       0       0       0       0       0       0       0       0       0       0       
      +0       0       0       0       0
   405 ;;      Temps:          0       0       0       0       0       0       0       0       0       0       0       0       
      +0       0       0       0       0
   406 ;;      Totals:         0       0       0       0       0       0       0       0       0       0       0       0       
      +0       0       0       0       0
   407 ;;Total ram usage:        0 bytes
   408 ;; Hardware stack levels used:    1
   409 ;; This function calls:
   410 ;;		Nothing
   411 ;; This function is called by:
   412 ;;		_main
   413 ;; This function uses a non-reentrant model
   414 ;;
   415                           
   416                           	psect	text4
   417  01FF64                     __ptext4:
   418                           	opt stack 0
   419  01FF64                     _init:
   420                           	opt stack 30
   421                           
   422                           ;Tn02.c: 10: ADCON1 = 0x0F;
   423                           
   424                           ;incstack = 0
   425  01FF64  0E0F               	movlw	15
   426  01FF66  6EC1               	movwf	4033,c	;volatile
   427                           
   428                           ;Tn02.c: 11: led_io = 0;
   429  01FF68  0E00               	movlw	0
   430  01FF6A  6E95               	movwf	3989,c	;volatile
   431                           
   432                           ;Tn02.c: 12: TRISA5 = 1;
   433  01FF6C  8A92               	bsf	3986,5,c	;volatile
   434                           
   435                           ;Tn02.c: 13: led=0x01;
   436  01FF6E  0E01               	movlw	1
   437  01FF70  6E8C               	movwf	3980,c	;volatile
   438                           
   439                           ;Tn02.c: 14: TRISAbits.RA5 = 1;
   440  01FF72  8A92               	bsf	3986,5,c	;volatile
   441                           
   442                           ;Tn02.c: 15: chieu = 0;
   443  01FF74  0E00               	movlw	0
   444  01FF76  6E03               	movwf	_chieu,c
   445  01FF78  0012               	return		;funcret
   446  01FF7A                     __end_of_init:
   447                           	opt stack 0
   448  0000                     wreg	equ	0xFE8
   449                           status	equ	0xFD8
   450                           wreg	equ	0xFE8
   451                           status	equ	0xFD8
   452                           
   453                           	psect	rparam
   454  0000                     wreg	equ	0xFE8
   455                           status	equ	0xFD8


Data Sizes:
    Strings     0
    Constant    0
    Data        0
    BSS         1
    Persistent  0
    Stack       0

Auto Spaces:
    Space          Size  Autos    Used
    COMRAM           95      2       3
    BANK0           160      0       0
    BANK1           256      0       0
    BANK2           256      0       0
    BANK3           256      0       0
    BANK4           256      0       0
    BANK5           256      0       0
    BANK6           256      0       0
    BANK7           256      0       0
    BANK8           256      0       0
    BANK9           256      0       0
    BANK10          256      0       0
    BANK11          256      0       0
    BANK12          256      0       0
    BANK13          256      0       0
    BANK14          256      0       0
    BANK15           96      0       0

Pointer List with Targets:

    None.

Critical Paths under _main in COMRAM

    _main->_lamtre
    _main->_quayphai
    _main->_quaytrai

Critical Paths under _main in BANK0

    None.

Critical Paths under _main in BANK1

    None.

Critical Paths under _main in BANK2

    None.

Critical Paths under _main in BANK3

    None.

Critical Paths under _main in BANK4

    None.

Critical Paths under _main in BANK5

    None.

Critical Paths under _main in BANK6

    None.

Critical Paths under _main in BANK7

    None.

Critical Paths under _main in BANK8

    None.

Critical Paths under _main in BANK9

    None.

Critical Paths under _main in BANK10

    None.

Critical Paths under _main in BANK11

    None.

Critical Paths under _main in BANK12

    None.

Critical Paths under _main in BANK13

    None.

Critical Paths under _main in BANK14

    None.

Critical Paths under _main in BANK15

    None.

Call Graph Tables:

 ---------------------------------------------------------------------------------
 (Depth) Function   	        Calls       Base Space   Used Autos Params    Refs
 ---------------------------------------------------------------------------------
 (0) _main                                                 0     0      0     120
                               _init
                             _lamtre
                           _quayphai
                           _quaytrai
 ---------------------------------------------------------------------------------
 (1) _quaytrai                                             2     2      0      45
                                              0 COMRAM     2     2      0
 ---------------------------------------------------------------------------------
 (1) _quayphai                                             2     2      0      45
                                              0 COMRAM     2     2      0
 ---------------------------------------------------------------------------------
 (1) _lamtre                                               2     2      0      30
                                              0 COMRAM     2     2      0
 ---------------------------------------------------------------------------------
 (1) _init                                                 0     0      0       0
 ---------------------------------------------------------------------------------
 Estimated maximum stack depth 1
 ---------------------------------------------------------------------------------

 Call Graph Graphs:

 _main (ROOT)
   _init
   _lamtre
   _quayphai
   _quaytrai

 Address spaces:
Name               Size   Autos  Total    Cost      Usage
BIGRAM             F5F      0       0      37        0.0%
EEDATA             400      0       0       0        0.0%
BITBANK14          100      0       0      33        0.0%
BANK14             100      0       0      34        0.0%
BITBANK13          100      0       0      30        0.0%
BANK13             100      0       0      31        0.0%
BITBANK12          100      0       0      28        0.0%
BANK12             100      0       0      29        0.0%
BITBANK11          100      0       0      26        0.0%
BANK11             100      0       0      27        0.0%
BITBANK10          100      0       0      24        0.0%
BANK10             100      0       0      25        0.0%
BITBANK9           100      0       0      22        0.0%
BANK9              100      0       0      23        0.0%
BITBANK8           100      0       0      20        0.0%
BANK8              100      0       0      21        0.0%
BITBANK7           100      0       0      18        0.0%
BANK7              100      0       0      19        0.0%
BITBANK6           100      0       0      16        0.0%
BANK6              100      0       0      17        0.0%
BITBANK5           100      0       0      14        0.0%
BANK5              100      0       0      15        0.0%
BITBANK4           100      0       0      12        0.0%
BANK4              100      0       0      13        0.0%
BITBANK3           100      0       0      10        0.0%
BANK3              100      0       0      11        0.0%
BITBANK2           100      0       0       8        0.0%
BANK2              100      0       0       9        0.0%
BITBANK1           100      0       0       6        0.0%
BANK1              100      0       0       7        0.0%
BITBANK0            A0      0       0       4        0.0%
BANK0               A0      0       0       5        0.0%
BITBANK15           60      0       0      35        0.0%
BANK15              60      0       0      36        0.0%
BITCOMRAM           5F      0       0       0        0.0%
COMRAM              5F      2       3       1        3.2%
BITSFR               0      0       0     200        0.0%
SFR                  0      0       0     200        0.0%
STACK                0      0       0       2        0.0%
NULL                 0      0       0       0        0.0%
ABS                  0      0       3      32        0.0%
DATA                 0      0       3       3        0.0%
CODE                 0      0       0       0        0.0%


Microchip Technology PIC18 Macro Assembler V1.45 build -152302408 
Symbol Table                                                                                   Tue Sep 24 14:10:13 2019

                     l22 FFBA                       l40 FFD2                       l42 FFE4  
                     l43 FFEC              __CFG_OSC$HS 000000                      l678 FFB2  
                    u107 FFC0                      _led 000F8C                      wreg 000FE8  
           __CFG_LVP$OFF 000000             __CFG_WDT$OFF 000000                     _main FFCE  
                   _init FF64                     start 0000             ___param_bank 000000  
                  ?_main 0001                    ?_init 0001                    _chieu 0003  
                  status 000FD8          __initialization FF5C             __end_of_main 0000  
           __end_of_init FF7A                   ??_main 0003                   ??_init 0001  
          __activetblptr 000000                   _ADCON1 000FC1                   _TRISA5 007C95  
                 _led_io 000F95                   _lamtre FFAE         __end_of_quayphai FF94  
       __end_of_quaytrai FFAE               __accesstop 0060  __end_of__initialization FF5E  
          ___rparam_used 000001           __pcstackCOMRAM 0001                  ?_lamtre 0001  
        quayphai@bit7led 0001                  __Hparam 0000                  __Lparam 0000  
              ?_quayphai 0001                ?_quaytrai 0001          __size_of_lamtre 0020  
                __pcinit FF5C                  __ramtop 1000                  __ptext0 FFCE  
                __ptext1 FF94                  __ptext2 FF7A                  __ptext3 FFAE  
                __ptext4 FF64     end_of_initialization FF5E               ??_quayphai 0001  
             ??_quaytrai 0001                _PORTAbits 000F80                _TRISAbits 000F92  
         __end_of_lamtre FFCE      start_initialization FF5C              quayphai@tam 0002  
            quaytrai@tam 0002                 ??_lamtre 0001              __pbssCOMRAM 0003  
      __size_of_quayphai 001A        __size_of_quaytrai 001A          quaytrai@bit7led 0001  
              lamtre@dem 0002                 __Hrparam 0000                 __Lrparam 0000  
          __size_of_main 0032            __size_of_init 0016                 _quayphai FF7A  
               _quaytrai FF94  
