:04000000AEEFFFF070
:020000040001F9
:10FF5C00036A0001E7EFFFF00F0EC16E000E956E05
:10FF6C00928A010E8C6E928A000E036E12008CCF58
:10FF7C0002F00250010B016ED89002320150D8A44D
:10FF8C00028E02C08CFF12008CCF02F00250800B4C
:10FF9C00016ED89002360150D8A4028002C08CFFAA
:10FFAC001200000E026E630E026401D01200070EE6
:10FFBC00016E7D0EE82EFED7012EFCD700F0022A32
:10FFCC00F2D7B2ECFFF0D7ECFFF080BA09D0032ADD
:10FFDC0003B002D0000E036E03A002D0010E036E1C
:10FFEC000350D8B4CAECFFF00304D8A4ECD7BDEC92
:04FFFC00FFF0E9D752
:020000040020DA
:08000000FFFFFFFFFFFFFFFF00
:020000040030CA
:0E000000FF021F1EF38381FFFFC0FFE0FF40E1
:00000001FF
