

Microchip Technology PIC18 LITE Macro Assembler V1.45 build -152302408 
                                                                                               Tue Nov 26 14:32:12 2019

Microchip Technology Omniscient Code Generator v1.45 (Free mode) build 201711160504
     1                           	processor	18F8722
     2                           	fnconf	rparam,??,?,0
     3                           	opt	pw 120
     4                           	opt	lm
     5                           	psect	idataCOMRAM,global,class=CODE,delta=1,noexec
     6                           	psect	cinit,global,reloc=2,class=CODE,delta=1
     7                           	psect	dataCOMRAM,global,class=COMRAM,space=1,delta=1,noexec
     8                           	psect	cstackCOMRAM,global,class=COMRAM,space=1,delta=1,noexec
     9                           	psect	text0,global,reloc=2,class=CODE,delta=1
    10                           	psect	text1,global,reloc=2,class=CODE,delta=1
    11                           	psect	text2,global,reloc=2,class=CODE,delta=1
    12                           	psect	intsave_regs,global,class=BIGRAM,space=1,delta=1,noexec
    13                           	psect	rparam,global,class=COMRAM,space=1,delta=1,noexec
    14  0000                     
    15                           ; Version 1.45
    16                           ; Generated 16/11/2017 GMT
    17                           ; 
    18                           ; Copyright © 2017, Microchip Technology Inc. and its subsidiaries ("Microchip")
    19                           ; All rights reserved.
    20                           ; 
    21                           ; This software is developed by Microchip Technology Inc. and its subsidiaries ("Microch
      +                          ip").
    22                           ; 
    23                           ; Redistribution and use in source and binary forms, with or without modification, are
    24                           ; permitted provided that the following conditions are met:
    25                           ; 
    26                           ;     1. Redistributions of source code must retain the above copyright notice, this lis
      +                          t of
    27                           ;        conditions and the following disclaimer.
    28                           ; 
    29                           ;     2. Redistributions in binary form must reproduce the above copyright notice, this 
      +                          list
    30                           ;        of conditions and the following disclaimer in the documentation and/or other
    31                           ;        materials provided with the distribution.
    32                           ; 
    33                           ;     3. Microchip's name may not be used to endorse or promote products derived from th
      +                          is
    34                           ;        software without specific prior written permission.
    35                           ; 
    36                           ; THIS SOFTWARE IS PROVIDED BY MICROCHIP "AS IS" AND ANY EXPRESS OR IMPLIED WARRANTIES,
    37                           ; INCLUDING, BUT NOT LIMITED TO, THE IMPLIED WARRANTIES OF MERCHANTABILITY AND FITNESS F
      +                          OR
    38                           ; PURPOSE ARE DISCLAIMED.  IN NO EVENT SHALL MICROCHIP BE LIABLE FOR ANY DIRECT, INDIREC
      +                          T,
    39                           ; INCIDENTAL, SPECIAL, EXEMPLARY, OR CONSEQUENTIAL DAMAGES (INCLUDING BUT NOT LIMITED TO
    40                           ; PROCUREMENT OF SUBSTITUTE GOODS OR SERVICES; LOSS OF USE, DATA OR PROFITS; OR BUSINESS
    41                           ; INTERRUPTION) HOWSOEVER CAUSED AND ON ANY THEORY OF LIABILITY, WHETHER IN CONTRACT, ST
      +                          RICT
    42                           ; LIABILITY, OR TORT (INCLUDING NEGLIGENCE OR OTHERWISE) ARISING IN ANY WAY OUT OF THE U
      +                          SE OF
    43                           ; THIS SOFTWARE, EVEN IF ADVISED OF THE POSSIBILITY OF SUCH DAMAGE.
    44                           ; 
    45                           ; 
    46                           ; Code-generator required, PIC18F8722 Definitions
    47                           ; 
    48                           ; SFR Addresses
    49  0000                     
    50                           	psect	idataCOMRAM
    51  01FF86                     __pidataCOMRAM:
    52                           	opt stack 0
    53                           
    54                           ;initializer for _CCPR1L_VAL
    55  01FF86  0014               	dw	20
    56  0000                     _PORTAbits	set	3968
    57  0000                     _CCPR1L	set	4030
    58  0000                     _CCP1CONbits	set	4029
    59  0000                     _PR2	set	4043
    60  0000                     _T2CON	set	4042
    61  0000                     _CCP1CON	set	4029
    62  0000                     _TRISCbits	set	3988
    63  0000                     _TRISAbits	set	3986
    64  0000                     _ADCON1	set	4033
    65                           
    66                           ; #config settings
    67  0000                     
    68                           	psect	cinit
    69  01FFA4                     __pcinit:
    70                           	opt stack 0
    71  01FFA4                     start_initialization:
    72                           	opt stack 0
    73  01FFA4                     __initialization:
    74                           	opt stack 0
    75                           
    76                           ; Initialize objects allocated to COMRAM (2 bytes)
    77                           ; load TBLPTR registers with __pidataCOMRAM
    78  01FFA4  0E86               	movlw	low __pidataCOMRAM
    79  01FFA6  6EF6               	movwf	tblptrl,c
    80  01FFA8  0EFF               	movlw	high __pidataCOMRAM
    81  01FFAA  6EF7               	movwf	tblptrh,c
    82  01FFAC  0E01               	movlw	low (__pidataCOMRAM shr (0+16))
    83  01FFAE  6EF8               	movwf	tblptru,c
    84  01FFB0  0009               	tblrd		*+	;fetch initializer
    85  01FFB2  CFF5 F001          	movff	tablat,__pdataCOMRAM
    86  01FFB6  0009               	tblrd		*+	;fetch initializer
    87  01FFB8  CFF5 F002          	movff	tablat,__pdataCOMRAM+1
    88  01FFBC                     end_of_initialization:
    89                           	opt stack 0
    90  01FFBC                     __end_of__initialization:
    91                           	opt stack 0
    92  01FFBC  0100               	movlb	0
    93  01FFBE  EFE1  F0FF         	goto	_main	;jump to C main() function
    94                           tblptru	equ	0xFF8
    95                           tblptrh	equ	0xFF7
    96                           tblptrl	equ	0xFF6
    97                           tablat	equ	0xFF5
    98                           
    99                           	psect	dataCOMRAM
   100  000001                     __pdataCOMRAM:
   101                           	opt stack 0
   102  000001                     _CCPR1L_VAL:
   103                           	opt stack 0
   104  000001                     	ds	2
   105                           tblptru	equ	0xFF8
   106                           tblptrh	equ	0xFF7
   107                           tblptrl	equ	0xFF6
   108                           tablat	equ	0xFF5
   109                           
   110                           	psect	cstackCOMRAM
   111  000000                     __pcstackCOMRAM:
   112                           	opt stack 0
   113  000000                     tblptru	equ	0xFF8
   114                           tblptrh	equ	0xFF7
   115                           tblptrl	equ	0xFF6
   116                           tablat	equ	0xFF5
   117                           
   118                           ; 1 bytes @ 0x0
   119 ;;
   120 ;;Main: autosize = 0, tempsize = 0, incstack = 0, save=0
   121 ;;
   122 ;; *************** function _main *****************
   123 ;; Defined at:
   124 ;;		line 32 in file "SangLed.c"
   125 ;; Parameters:    Size  Location     Type
   126 ;;		None
   127 ;; Auto vars:     Size  Location     Type
   128 ;;		None
   129 ;; Return value:  Size  Location     Type
   130 ;;                  1    wreg      void 
   131 ;; Registers used:
   132 ;;		wreg, status,2, status,0, cstack
   133 ;; Tracked objects:
   134 ;;		On entry : 0/0
   135 ;;		On exit  : 0/0
   136 ;;		Unchanged: 0/0
   137 ;; Data sizes:     COMRAM   BANK0   BANK1   BANK2   BANK3   BANK4   BANK5   BANK6   BANK7   BANK8   BANK9  BANK10  BANK1
      +1  BANK12  BANK13  BANK14  BANK15
   138 ;;      Params:         0       0       0       0       0       0       0       0       0       0       0       0       
      +0       0       0       0       0
   139 ;;      Locals:         0       0       0       0       0       0       0       0       0       0       0       0       
      +0       0       0       0       0
   140 ;;      Temps:          0       0       0       0       0       0       0       0       0       0       0       0       
      +0       0       0       0       0
   141 ;;      Totals:         0       0       0       0       0       0       0       0       0       0       0       0       
      +0       0       0       0       0
   142 ;;Total ram usage:        0 bytes
   143 ;; Hardware stack levels required when called:    1
   144 ;; This function calls:
   145 ;;		_Pwm_init
   146 ;;		_init
   147 ;; This function is called by:
   148 ;;		Startup code after reset
   149 ;; This function uses a non-reentrant model
   150 ;;
   151                           
   152                           	psect	text0
   153  01FFC2                     __ptext0:
   154                           	opt stack 0
   155  01FFC2                     _main:
   156                           	opt stack 30
   157                           
   158                           ;SangLed.c: 34: init();
   159                           
   160                           ;incstack = 0
   161  01FFC2  ECC4  F0FF         	call	_init	;wreg free
   162                           
   163                           ;SangLed.c: 35: Pwm_init();
   164  01FFC6  ECC8  F0FF         	call	_Pwm_init	;wreg free
   165                           
   166                           ;SangLed.c: 36: CCPR1L=CCPR1L_VAL;
   167  01FFCA  C001  FFBE         	movff	_CCPR1L_VAL,4030	;volatile
   168  01FFCE                     
   169                           ;SangLed.c: 38: if(PORTAbits.RA5==0)
   170  01FFCE  BA80               	btfsc	3968,5,c	;volatile
   171  01FFD0  D7FE               	goto	l31
   172                           
   173                           ;SangLed.c: 39: {
   174                           ;SangLed.c: 40: CCPR1L_VAL=CCPR1L_VAL+20;
   175  01FFD2  0E14               	movlw	20
   176  01FFD4  2401               	addwf	_CCPR1L_VAL,w,c
   177  01FFD6  6E01               	movwf	_CCPR1L_VAL,c
   178  01FFD8  0E00               	movlw	0
   179  01FFDA  2002               	addwfc	_CCPR1L_VAL+1,w,c
   180  01FFDC  6E02               	movwf	_CCPR1L_VAL+1,c
   181                           
   182                           ;SangLed.c: 41: CCPR1L=CCPR1L_VAL;
   183  01FFDE  C001  FFBE         	movff	_CCPR1L_VAL,4030	;volatile
   184                           
   185                           ;SangLed.c: 42: if (CCPR1L_VAL>160)
   186  01FFE2  5002               	movf	_CCPR1L_VAL+1,w,c
   187  01FFE4  E104               	bnz	u20
   188  01FFE6  0EA1               	movlw	161
   189  01FFE8  5C01               	subwf	_CCPR1L_VAL,w,c
   190  01FFEA  A0D8               	btfss	status,0,c
   191  01FFEC  D006               	goto	l33
   192  01FFEE                     u20:
   193                           
   194                           ;SangLed.c: 43: {
   195                           ;SangLed.c: 44: CCPR1L_VAL=20;
   196  01FFEE  0E00               	movlw	0
   197  01FFF0  6E02               	movwf	_CCPR1L_VAL+1,c
   198  01FFF2  0E14               	movlw	20
   199  01FFF4  6E01               	movwf	_CCPR1L_VAL,c
   200                           
   201                           ;SangLed.c: 45: CCPR1L=CCPR1L_VAL;
   202  01FFF6  C001  FFBE         	movff	_CCPR1L_VAL,4030	;volatile
   203  01FFFA                     l33:
   204                           
   205                           ;SangLed.c: 46: }
   206                           ;SangLed.c: 47: while(PORTAbits.RA5==0);
   207  01FFFA  BA80               	btfsc	3968,5,c	;volatile
   208  01FFFC  D7E8               	goto	l31
   209  01FFFE  D7FD               	goto	l33
   210  020000                     __end_of_main:
   211                           	opt stack 0
   212                           tblptru	equ	0xFF8
   213                           tblptrh	equ	0xFF7
   214                           tblptrl	equ	0xFF6
   215                           tablat	equ	0xFF5
   216                           status	equ	0xFD8
   217                           
   218 ;; *************** function _init *****************
   219 ;; Defined at:
   220 ;;		line 17 in file "SangLed.c"
   221 ;; Parameters:    Size  Location     Type
   222 ;;		None
   223 ;; Auto vars:     Size  Location     Type
   224 ;;		None
   225 ;; Return value:  Size  Location     Type
   226 ;;                  1    wreg      void 
   227 ;; Registers used:
   228 ;;		wreg, status,2
   229 ;; Tracked objects:
   230 ;;		On entry : 0/0
   231 ;;		On exit  : 0/0
   232 ;;		Unchanged: 0/0
   233 ;; Data sizes:     COMRAM   BANK0   BANK1   BANK2   BANK3   BANK4   BANK5   BANK6   BANK7   BANK8   BANK9  BANK10  BANK1
      +1  BANK12  BANK13  BANK14  BANK15
   234 ;;      Params:         0       0       0       0       0       0       0       0       0       0       0       0       
      +0       0       0       0       0
   235 ;;      Locals:         0       0       0       0       0       0       0       0       0       0       0       0       
      +0       0       0       0       0
   236 ;;      Temps:          0       0       0       0       0       0       0       0       0       0       0       0       
      +0       0       0       0       0
   237 ;;      Totals:         0       0       0       0       0       0       0       0       0       0       0       0       
      +0       0       0       0       0
   238 ;;Total ram usage:        0 bytes
   239 ;; Hardware stack levels used:    1
   240 ;; This function calls:
   241 ;;		Nothing
   242 ;; This function is called by:
   243 ;;		_main
   244 ;; This function uses a non-reentrant model
   245 ;;
   246                           
   247                           	psect	text1
   248  01FF88                     __ptext1:
   249                           	opt stack 0
   250  01FF88                     _init:
   251                           	opt stack 30
   252                           
   253                           ;SangLed.c: 19: ADCON1=0x0F;
   254                           
   255                           ;incstack = 0
   256  01FF88  0E0F               	movlw	15
   257  01FF8A  6EC1               	movwf	4033,c	;volatile
   258                           
   259                           ;SangLed.c: 20: TRISAbits.RA5=1;
   260  01FF8C  8A92               	bsf	3986,5,c	;volatile
   261  01FF8E  0012               	return		;funcret
   262  01FF90                     __end_of_init:
   263                           	opt stack 0
   264                           tblptru	equ	0xFF8
   265                           tblptrh	equ	0xFF7
   266                           tblptrl	equ	0xFF6
   267                           tablat	equ	0xFF5
   268                           status	equ	0xFD8
   269                           
   270 ;; *************** function _Pwm_init *****************
   271 ;; Defined at:
   272 ;;		line 22 in file "SangLed.c"
   273 ;; Parameters:    Size  Location     Type
   274 ;;		None
   275 ;; Auto vars:     Size  Location     Type
   276 ;;		None
   277 ;; Return value:  Size  Location     Type
   278 ;;                  1    wreg      void 
   279 ;; Registers used:
   280 ;;		wreg, status,2
   281 ;; Tracked objects:
   282 ;;		On entry : 0/0
   283 ;;		On exit  : 0/0
   284 ;;		Unchanged: 0/0
   285 ;; Data sizes:     COMRAM   BANK0   BANK1   BANK2   BANK3   BANK4   BANK5   BANK6   BANK7   BANK8   BANK9  BANK10  BANK1
      +1  BANK12  BANK13  BANK14  BANK15
   286 ;;      Params:         0       0       0       0       0       0       0       0       0       0       0       0       
      +0       0       0       0       0
   287 ;;      Locals:         0       0       0       0       0       0       0       0       0       0       0       0       
      +0       0       0       0       0
   288 ;;      Temps:          0       0       0       0       0       0       0       0       0       0       0       0       
      +0       0       0       0       0
   289 ;;      Totals:         0       0       0       0       0       0       0       0       0       0       0       0       
      +0       0       0       0       0
   290 ;;Total ram usage:        0 bytes
   291 ;; Hardware stack levels used:    1
   292 ;; This function calls:
   293 ;;		Nothing
   294 ;; This function is called by:
   295 ;;		_main
   296 ;; This function uses a non-reentrant model
   297 ;;
   298                           
   299                           	psect	text2
   300  01FF90                     __ptext2:
   301                           	opt stack 0
   302  01FF90                     _Pwm_init:
   303                           	opt stack 30
   304                           
   305                           ;SangLed.c: 24: TRISCbits.RC2=0;
   306                           
   307                           ;incstack = 0
   308  01FF90  9494               	bcf	3988,2,c	;volatile
   309                           
   310                           ;SangLed.c: 25: CCP1CON=0x0C;
   311  01FF92  0E0C               	movlw	12
   312  01FF94  6EBD               	movwf	4029,c	;volatile
   313                           
   314                           ;SangLed.c: 26: T2CON=0b00000110;
   315  01FF96  0E06               	movlw	6
   316  01FF98  6ECA               	movwf	4042,c	;volatile
   317                           
   318                           ;SangLed.c: 27: PR2=159;
   319  01FF9A  0E9F               	movlw	159
   320  01FF9C  6ECB               	movwf	4043,c	;volatile
   321                           
   322                           ;SangLed.c: 29: CCP1CONbits.DC1B1=0;
   323  01FF9E  9ABD               	bcf	4029,5,c	;volatile
   324                           
   325                           ;SangLed.c: 30: CCP1CONbits.DC1B0=0;
   326  01FFA0  98BD               	bcf	4029,4,c	;volatile
   327  01FFA2  0012               	return		;funcret
   328  01FFA4                     __end_of_Pwm_init:
   329                           	opt stack 0
   330  0000                     tblptru	equ	0xFF8
   331                           tblptrh	equ	0xFF7
   332                           tblptrl	equ	0xFF6
   333                           tablat	equ	0xFF5
   334                           status	equ	0xFD8
   335                           tblptru	equ	0xFF8
   336                           tblptrh	equ	0xFF7
   337                           tblptrl	equ	0xFF6
   338                           tablat	equ	0xFF5
   339                           status	equ	0xFD8
   340                           
   341                           	psect	rparam
   342  0000                     tblptru	equ	0xFF8
   343                           tblptrh	equ	0xFF7
   344                           tblptrl	equ	0xFF6
   345                           tablat	equ	0xFF5
   346                           status	equ	0xFD8


Data Sizes:
    Strings     0
    Constant    0
    Data        2
    BSS         0
    Persistent  0
    Stack       0

Auto Spaces:
    Space          Size  Autos    Used
    COMRAM           95      0       2
    BANK0           160      0       0
    BANK1           256      0       0
    BANK2           256      0       0
    BANK3           256      0       0
    BANK4           256      0       0
    BANK5           256      0       0
    BANK6           256      0       0
    BANK7           256      0       0
    BANK8           256      0       0
    BANK9           256      0       0
    BANK10          256      0       0
    BANK11          256      0       0
    BANK12          256      0       0
    BANK13          256      0       0
    BANK14          256      0       0
    BANK15           96      0       0

Pointer List with Targets:

    None.

Critical Paths under _main in COMRAM

    None.

Critical Paths under _main in BANK0

    None.

Critical Paths under _main in BANK1

    None.

Critical Paths under _main in BANK2

    None.

Critical Paths under _main in BANK3

    None.

Critical Paths under _main in BANK4

    None.

Critical Paths under _main in BANK5

    None.

Critical Paths under _main in BANK6

    None.

Critical Paths under _main in BANK7

    None.

Critical Paths under _main in BANK8

    None.

Critical Paths under _main in BANK9

    None.

Critical Paths under _main in BANK10

    None.

Critical Paths under _main in BANK11

    None.

Critical Paths under _main in BANK12

    None.

Critical Paths under _main in BANK13

    None.

Critical Paths under _main in BANK14

    None.

Critical Paths under _main in BANK15

    None.

Call Graph Tables:

 ---------------------------------------------------------------------------------
 (Depth) Function   	        Calls       Base Space   Used Autos Params    Refs
 ---------------------------------------------------------------------------------
 (0) _main                                                 0     0      0       0
                           _Pwm_init
                               _init
 ---------------------------------------------------------------------------------
 (1) _init                                                 0     0      0       0
 ---------------------------------------------------------------------------------
 (1) _Pwm_init                                             0     0      0       0
 ---------------------------------------------------------------------------------
 Estimated maximum stack depth 1
 ---------------------------------------------------------------------------------

 Call Graph Graphs:

 _main (ROOT)
   _Pwm_init
   _init

 Address spaces:
Name               Size   Autos  Total    Cost      Usage
BIGRAM             F5F      0       0      37        0.0%
EEDATA             400      0       0       0        0.0%
BITBANK14          100      0       0      33        0.0%
BANK14             100      0       0      34        0.0%
BITBANK13          100      0       0      30        0.0%
BANK13             100      0       0      31        0.0%
BITBANK12          100      0       0      28        0.0%
BANK12             100      0       0      29        0.0%
BITBANK11          100      0       0      26        0.0%
BANK11             100      0       0      27        0.0%
BITBANK10          100      0       0      24        0.0%
BANK10             100      0       0      25        0.0%
BITBANK9           100      0       0      22        0.0%
BANK9              100      0       0      23        0.0%
BITBANK8           100      0       0      20        0.0%
BANK8              100      0       0      21        0.0%
BITBANK7           100      0       0      18        0.0%
BANK7              100      0       0      19        0.0%
BITBANK6           100      0       0      16        0.0%
BANK6              100      0       0      17        0.0%
BITBANK5           100      0       0      14        0.0%
BANK5              100      0       0      15        0.0%
BITBANK4           100      0       0      12        0.0%
BANK4              100      0       0      13        0.0%
BITBANK3           100      0       0      10        0.0%
BANK3              100      0       0      11        0.0%
BITBANK2           100      0       0       8        0.0%
BANK2              100      0       0       9        0.0%
BITBANK1           100      0       0       6        0.0%
BANK1              100      0       0       7        0.0%
BITBANK0            A0      0       0       4        0.0%
BANK0               A0      0       0       5        0.0%
BITBANK15           60      0       0      35        0.0%
BANK15              60      0       0      36        0.0%
BITCOMRAM           5F      0       0       0        0.0%
COMRAM              5F      0       2       1        2.1%
BITSFR               0      0       0     200        0.0%
SFR                  0      0       0     200        0.0%
STACK                0      0       0       2        0.0%
NULL                 0      0       0       0        0.0%
ABS                  0      0       2      32        0.0%
DATA                 0      0       2       3        0.0%
CODE                 0      0       0       0        0.0%


Microchip Technology PIC18 Macro Assembler V1.45 build -152302408 
Symbol Table                                                                                   Tue Nov 26 14:32:12 2019

                     l31 FFCE                       l33 FFFA                       u20 FFEE  
            __CFG_OSC$HS 000000                      _PR2 000FCB             __CFG_LVP$OFF 000000  
           __CFG_WDT$OFF 000000                     _main FFC2                     _init FF88  
                   start 0000             ___param_bank 000000                    ?_main 0000  
                  ?_init 0000                    _T2CON 000FCA                    tablat 000FF5  
                  status 000FD8          __initialization FFA4             __end_of_main 0000  
           __end_of_init FF90                   ??_main 0000                   ??_init 0000  
          __activetblptr 000000         __end_of_Pwm_init FFA4                   _ADCON1 000FC1  
                 _CCPR1L 000FBE             __pdataCOMRAM 0001                   tblptrh 000FF7  
                 tblptrl 000FF6                   tblptru 000FF8               __accesstop 0060  
__end_of__initialization FFBC            ___rparam_used 000001           __pcstackCOMRAM 0000  
              ?_Pwm_init 0000                  _CCP1CON 000FBD                  __Hparam 0000  
                __Lparam 0000               ??_Pwm_init 0000                  __pcinit FFA4  
                __ramtop 1000                  __ptext0 FFC2                  __ptext1 FF88  
                __ptext2 FF90     end_of_initialization FFBC                _PORTAbits 000F80  
              _TRISAbits 000F92                _TRISCbits 000F94              _CCP1CONbits 000FBD  
          __pidataCOMRAM FF86      start_initialization FFA4        __size_of_Pwm_init 0014  
             _CCPR1L_VAL 0001                 __Hrparam 0000                 __Lrparam 0000  
               _Pwm_init FF90            __size_of_main 003E            __size_of_init 0008  
