:04000000D2EFFFF04C
:020000040001F9
:10FF860014000F0EC16E928A120094940C0EBD6E70
:10FF9600060ECA6E9F0ECB6EBD9ABD981200860ED7
:10FFA600F66EFF0EF76E010EF86E0900F5CF01F042
:10FFB6000900F5CF02F00001E1EFFFF0C4ECFFF01D
:10FFC600C8ECFFF001C0BEFF80BAFED7140E0124B4
:10FFD600016E000E0220026E01C0BEFF025004E157
:10FFE600A10E015CD8A006D0000E026E140E016EA2
:0AFFF60001C0BEFF80BAE8D7FDD7B6
:020000040020DA
:08000000FFFFFFFFFFFFFFFF00
:020000040030CA
:0E000000FF021F1EF38381FFFFC0FFE0FF40E1
:00000001FF
