:04000000CEEFFFF050
:020000040001F9
:10FF8200030C30C0C8ECFFF0E3ECFFF0FDD70F0E1E
:10FF9200C16E000E956E928A1200820EF66EFF0EF0
:10FFA200F76E010EF86E00EE01F010EE04F009009B
:10FFB200F5CFEEFFE550E150FAE1066A056A00016D
:10FFC200C3EFFFF080BA12000504D8A407D0062AB6
:10FFD200040E0618D8A406D0000E03D0062E02D0B6
:10FFE200010E056E0650010D010EF324D96E000EAE
:0EFFF200F420DA6EDF508C6E80BA1200FDD75C
:020000040020DA
:08000000FFFFFFFFFFFFFFFF00
:020000040030CA
:0E000000FF021F1EF38381FFFFC0FFE0FF40E1
:00000001FF
