:0400000072EF00F0AB
:060008004682C9ED08F07C
:100018004680D8CF2DF0E8CF2EF0E0CF2FF0FACFE2
:1000280030F0FBCF31F0E9CF32F0EACF33F0E1CF57
:1000380034F0E2CF35F0D9CF36F0DACF37F0F3CF5E
:1000480038F0F4CF39F0F6CF3AF0F7CF3BF0F8CFED
:100058003CF0F5CF3DF046C03EF047C03FF048C009
:1000680040F049C041F09DBC9EAC0CD09E9CC45051
:100078002C6E2B6AC3502B24446E000E2C20456E28
:10008800EEEC09F041C049F040C048F03FC047F0ED
:100098003EC046F03DC0F5FF3CC0F8FF3BC0F7FF4F
:1000A8003AC0F6FF39C0F4FF38C0F3FF37C0DAFFB3
:1000B80036C0D9FF35C0E2FF34C0E1FF33C0EAFFE4
:1000C80032C0E9FF31C0FBFF30C0FAFF2FC0E0FFAC
:1000D8002EC0E8FF2DC0D8FF46901000C7EF0AF0E9
:101000000001000A006400E80310270F0F0E1F0EF6
:101010000F0F001E1F0707071F1E001C1C1C1F1F91
:101020001C1C000707071F1F0707001F1C1C1F1C95
:101030001F1F00181C1C1E071F1E001C1D1F1F1E2B
:101040001C1C001C1810181C0E0700414420636F64
:0F1050006E76657273696F6E0025642020000054
:10106000210E246E000E256E85D0250E2A18D8B4C8
:1010700004D02A50F7EC0AF07DD0000E266E1FC077
:10108000F6FF20C0F7FF1F4A202A000EF86E080066
:10109000F5CF2AF02A50000AD8B41200640AD8B456
:1010A00003D00D0AD8A466D024C0D9FF25C0DAFF2A
:1010B000DECF28F0DDCF29F0020E2426000E2522F7
:1010C00029AE06D0030E2612286C291ED8B0292A74
:1010D000010E2A6E050E2A18D8B415D02A50020D1A
:1010E000010EF324F66E100EF420F76EF86A000E6F
:1010F000F8220900F550285C0900F5502958D8A0BD
:1011000002D02A2AE7D726C023F0030E2316D8B42C
:1011100003D02D0EF7EC0AF02AC027F027D0275075
:10112000020D010EF324F66E100EF420F76EF86A2D
:10113000000EF8220900F5CF15F00A00F5CF16F0E1
:1011400028C013F029C014F055EC09F013C01AF0B0
:1011500014C01BF0000E1D6E0A0E1C6ECDEC09F0C3
:101160001A50300F2A6E2A50F7EC0AF0270627286B
:10117000D8A4D5D71FC0F6FF20C0F7FF1F4A202AEA
:10118000000EF86E0800F5CF2AF02A50D8B41200ED
:101190006CD70600FACF01F0FBCF02F0E9CF03F0E5
:1011A000EACF04F0E1CF05F0E2CF06F0D9CF07F0A7
:1011B000DACF08F0F3CF09F0F4CF0AF0F6CF0BF056
:1011C000F7CF0CF0F8CF0DF0F5CF0EF046C00FF0D2
:1011D00047C010F048C011F049C012F0010EF2AA49
:1011E000000EF2A4000EE8A004D0E1EC0AF036EC08
:1011F0000AF012C049F011C048F010C047F00FC00B
:1012000046F00EC0F5FF0DC0F8FF0CC0F7FF0BC095
:10121000F6FF0AC0F4FF09C0F3FF08C0DAFF07C0F9
:10122000D9FF06C0E2FF05C0E1FF04C0EAFF03C02A
:10123000E9FF02C0FBFF01C0FAFF46921100929441
:10124000979C89848E9C00D000D08E8CF0EC0AF0A4
:101250009BEC0AF08FEC0AF0000E0001616F3C0E6F
:10126000606F67EC0AF0300E47EC0AF0000E0001E8
:10127000616F290E606F67EC0AF0300E47EC0AF0E0
:10128000340EE82EFED700D0300E47EC0AF0380EB0
:1012900047EC0AF00C0E47EC0AF0060E47EC0AF099
:1012A000B2EC0AF0A6EC09F01200000E186E000E67
:1012B000176E15501610D8B41CD0010E196E04D03C
:1012C000D89015361636192A16AEFAD7D890173692
:1012D00018361550135C16501458D8A005D0155068
:1012E000135E1650145A1780D89016321532192EE4
:1012F000EDD717C013F018C014F012000001646F8E
:1013000000016451080DF3503F0B400947EC0AF00F
:10131000000E0001656F070E656501D01200655172
:10132000010D60C062F061C063F0F3506227F450B9
:10133000632362C0F6FF63C0F7FF000EF86E08007B
:10134000F55057EC0AF00001652BE5D7000E0001BF
:10135000666F070E666501D00ED06651080D0B0E44
:10136000F324606F100EF420616F66517EEC09F07B
:101370000001662BEED7080E166E010EA7EC0AF0E0
:10138000000E0001666F070E666501D012006651FF
:10139000F7EC0AF00001662BF6D71C501D10D8B4EC
:1013A00018D0010E1E6E04D0D8901C361D361E2A91
:1013B0001DAEFAD71C501A5C1D501B58D8A004D083
:1013C0001C501A5E1D501B5AD8901D321C321E2E06
:1013D000F1D71AC01AF01BC01BF01200000E166ED7
:1013E000000EA7EC0AF04B0E1F6E100E206E30ECB4
:1013F00008F00A0E166E010EA7EC0AF0590E1F6EC9
:10140000100E206E44C021F045C022F030EC08F0F0
:101410001200186E0DD0B2EC0AF01200000E166E1B
:10142000010EA7EC0AF01200185057EC0AF0120057
:1014300018500A0AD8B4F2D7060AD8B4ECD7F4D7B1
:10144000000E456E000E446E000E436E000E426E9E
:101450009280010EC26E0E0EC16E810EC06ED08ED5
:101460009F9C9E9C9D8CF28EF28C1200010E422459
:10147000426E000E4320436E640E42184310D8A4FF
:101480001200000E436E000E426EC2821200156EF4
:10149000000E82EC0AF0155075EC0AF0400E82EC5A
:1014A0000AF0000E82EC0AF0FCEC0AF01200156E55
:1014B000800E82EC0AF0155075EC0AF0C00E82EC3A
:1014C0000AF0000E82EC0AF0FCEC0AF012000001B7
:1014D00060516111D8B41200530EE82EFED700F00F
:1014E00000016007D8A06107F3D7146E8994400EFD
:1014F000D0EC0AF0130ED0EC0AF01450D0EC0AF045
:1015000089841200146E8994400ED0EC0AF0120EF9
:10151000D0EC0AF01450D0EC0AF0898412008994BF
:10152000400ED0EC0AF0010ED0EC0AF0000ED0EC28
:101530000AF0898412008994400ED0EC0AF0000E63
:10154000D0EC0AF0000ED0EC0AF089841200176E7D
:101550001750D8B402D0400E16261650800947EC1A
:101560000AF01200010E47EC0AF0050E166ED00EBE
:10157000E82EFED7162EFCD71200D08EF194F28AF8
:10158000F28EF28C000ED56ED9EC0AF01200456A8C
:10159000446A436A426A469046920001E9EF0AF0C3
:1015A000136E13C0C9FF9EA6FED79E96C9CF13F037
:1015B0001200F294D59ECF0ED76E2C0ED66ED58E1D
:1015C0001200F294D59ECF0ED76E2C0ED66ED58E0D
:1015D000120020EC0AF01FEC09F0BDEC0AF0FFD776
:1015E000949A9496200EC66EC78C9E961200196E21
:1015F000195009EC0AF012001F0EE82EFED700D099
:021600001200D6
:020000040020DA
:08000000FFFFFFFFFFFFFFFF00
:020000040030CA
:0E000000FF021F1EF38381FFFFC0FFE0FF40E1
:00000001FF
