

Microchip Technology PIC18 LITE Macro Assembler V1.45 build -152302408 
                                                                                               Tue Nov 19 14:40:55 2019

Microchip Technology Omniscient Code Generator v1.45 (Free mode) build 201711160504
     1                           	processor	18F8722
     2                           	fnconf	rparam,??,?,0
     3                           	opt	pw 120
     4                           	opt	lm
     5                           	psect	smallconst,global,reloc=2,class=SMALLCONST,delta=1,noexec
     6                           	psect	cinit,global,reloc=2,class=CODE,delta=1
     7                           	psect	bssCOMRAM,global,class=COMRAM,space=1,delta=1,noexec
     8                           	psect	cstackBANK0,global,class=BANK0,space=1,delta=1,noexec
     9                           	psect	cstackCOMRAM,global,class=COMRAM,space=1,delta=1,noexec
    10                           	psect	text0,global,reloc=2,class=CODE,delta=1
    11                           	psect	text1,global,reloc=2,class=CODE,delta=1
    12                           	psect	text2,global,reloc=2,class=CODE,delta=1
    13                           	psect	text3,global,reloc=2,class=CODE,delta=1
    14                           	psect	text4,global,reloc=2,class=CODE,delta=1
    15                           	psect	text5,global,reloc=2,class=CODE,delta=1
    16                           	psect	text6,global,reloc=2,class=CODE,delta=1
    17                           	psect	text7,global,reloc=2,class=CODE,delta=1
    18                           	psect	text8,global,reloc=2,class=CODE,delta=1
    19                           	psect	text9,global,reloc=2,class=CODE,delta=1
    20                           	psect	text10,global,reloc=2,class=CODE,delta=1
    21                           	psect	intcodelo,global,reloc=2,class=CODE,delta=1
    22                           	psect	text12,global,reloc=2,class=CODE,delta=1
    23                           	psect	text13,global,reloc=2,class=CODE,delta=1
    24                           	psect	text14,global,reloc=2,class=CODE,delta=1
    25                           	psect	text15,global,reloc=2,class=CODE,delta=1
    26                           	psect	text16,global,reloc=2,class=CODE,delta=1
    27                           	psect	text17,global,reloc=2,class=CODE,delta=1
    28                           	psect	text18,global,reloc=2,class=CODE,delta=1
    29                           	psect	text19,global,reloc=2,class=CODE,delta=1
    30                           	psect	text20,global,reloc=2,class=CODE,delta=1
    31                           	psect	text21,global,reloc=2,class=CODE,delta=1
    32                           	psect	text22,global,reloc=2,class=CODE,delta=1
    33                           	psect	text23,global,reloc=2,class=CODE,delta=1
    34                           	psect	text24,global,reloc=2,class=CODE,delta=1,group=1
    35                           	psect	text25,global,reloc=2,class=CODE,delta=1,group=1
    36                           	psect	intcode,global,reloc=2,class=CODE,delta=1
    37                           	psect	intcode_body,global,reloc=2,class=CODE,delta=1
    38                           	psect	text27,global,reloc=2,class=CODE,delta=1
    39                           	psect	text28,global,reloc=2,class=CODE,delta=1
    40                           	psect	intsave_regs,global,class=BIGRAM,space=1,delta=1,noexec
    41                           	psect	rparam,global,class=COMRAM,space=1,delta=1,noexec
    42                           	psect	temp,global,ovrld,common,class=COMRAM,space=1,delta=1
    43  0000                     
    44                           ; Version 1.45
    45                           ; Generated 16/11/2017 GMT
    46                           ; 
    47                           ; Copyright © 2017, Microchip Technology Inc. and its subsidiaries ("Microchip")
    48                           ; All rights reserved.
    49                           ; 
    50                           ; This software is developed by Microchip Technology Inc. and its subsidiaries ("Microch
      +                          ip").
    51                           ; 
    52                           ; Redistribution and use in source and binary forms, with or without modification, are
    53                           ; permitted provided that the following conditions are met:
    54                           ; 
    55                           ;     1. Redistributions of source code must retain the above copyright notice, this lis
      +                          t of
    56                           ;        conditions and the following disclaimer.
    57                           ; 
    58                           ;     2. Redistributions in binary form must reproduce the above copyright notice, this 
      +                          list
    59                           ;        of conditions and the following disclaimer in the documentation and/or other
    60                           ;        materials provided with the distribution.
    61                           ; 
    62                           ;     3. Microchip's name may not be used to endorse or promote products derived from th
      +                          is
    63                           ;        software without specific prior written permission.
    64                           ; 
    65                           ; THIS SOFTWARE IS PROVIDED BY MICROCHIP "AS IS" AND ANY EXPRESS OR IMPLIED WARRANTIES,
    66                           ; INCLUDING, BUT NOT LIMITED TO, THE IMPLIED WARRANTIES OF MERCHANTABILITY AND FITNESS F
      +                          OR
    67                           ; PURPOSE ARE DISCLAIMED.  IN NO EVENT SHALL MICROCHIP BE LIABLE FOR ANY DIRECT, INDIREC
      +                          T,
    68                           ; INCIDENTAL, SPECIAL, EXEMPLARY, OR CONSEQUENTIAL DAMAGES (INCLUDING BUT NOT LIMITED TO
    69                           ; PROCUREMENT OF SUBSTITUTE GOODS OR SERVICES; LOSS OF USE, DATA OR PROFITS; OR BUSINESS
    70                           ; INTERRUPTION) HOWSOEVER CAUSED AND ON ANY THEORY OF LIABILITY, WHETHER IN CONTRACT, ST
      +                          RICT
    71                           ; LIABILITY, OR TORT (INCLUDING NEGLIGENCE OR OTHERWISE) ARISING IN ANY WAY OUT OF THE U
      +                          SE OF
    72                           ; THIS SOFTWARE, EVEN IF ADVISED OF THE POSSIBILITY OF SUCH DAMAGE.
    73                           ; 
    74                           ; 
    75                           ; Code-generator required, PIC18F8722 Definitions
    76                           ; 
    77                           ; SFR Addresses
    78  0000                     
    79                           	psect	smallconst
    80  001000                     __psmallconst:
    81                           	opt stack 0
    82  001000  00                 	db	0
    83  001001                     _dpowers:
    84                           	opt stack 0
    85  001001  0001               	dw	1
    86  001003  000A               	dw	10
    87  001005  0064               	dw	100
    88  001007  03E8               	dw	1000
    89  001009  2710               	dw	10000
    90  00100B                     __end_of_dpowers:
    91                           	opt stack 0
    92  00100B                     _dhbkstr:
    93                           	opt stack 0
    94  00100B  0F                 	db	15
    95  00100C  0F                 	db	15
    96  00100D  0E                 	db	14
    97  00100E  1F                 	db	31
    98  00100F  0E                 	db	14
    99  001010  0F                 	db	15
   100  001011  0F                 	db	15
   101  001012  00                 	db	0
   102  001013  1E                 	db	30
   103  001014  1F                 	db	31
   104  001015  07                 	db	7
   105  001016  07                 	db	7
   106  001017  07                 	db	7
   107  001018  1F                 	db	31
   108  001019  1E                 	db	30
   109  00101A  00                 	db	0
   110  00101B  1C                 	db	28
   111  00101C  1C                 	db	28
   112  00101D  1C                 	db	28
   113  00101E  1F                 	db	31
   114  00101F  1F                 	db	31
   115  001020  1C                 	db	28
   116  001021  1C                 	db	28
   117  001022  00                 	db	0
   118  001023  07                 	db	7
   119  001024  07                 	db	7
   120  001025  07                 	db	7
   121  001026  1F                 	db	31
   122  001027  1F                 	db	31
   123  001028  07                 	db	7
   124  001029  07                 	db	7
   125  00102A  00                 	db	0
   126  00102B  1F                 	db	31
   127  00102C  1C                 	db	28
   128  00102D  1C                 	db	28
   129  00102E  1F                 	db	31
   130  00102F  1C                 	db	28
   131  001030  1F                 	db	31
   132  001031  1F                 	db	31
   133  001032  00                 	db	0
   134  001033  18                 	db	24
   135  001034  1C                 	db	28
   136  001035  1C                 	db	28
   137  001036  1E                 	db	30
   138  001037  07                 	db	7
   139  001038  1F                 	db	31
   140  001039  1E                 	db	30
   141  00103A  00                 	db	0
   142  00103B  1C                 	db	28
   143  00103C  1D                 	db	29
   144  00103D  1F                 	db	31
   145  00103E  1F                 	db	31
   146  00103F  1E                 	db	30
   147  001040  1C                 	db	28
   148  001041  1C                 	db	28
   149  001042  00                 	db	0
   150  001043  1C                 	db	28
   151  001044  18                 	db	24
   152  001045  10                 	db	16
   153  001046  18                 	db	24
   154  001047  1C                 	db	28
   155  001048  0E                 	db	14
   156  001049  07                 	db	7
   157  00104A  00                 	db	0
   158  00104B                     __end_of_dhbkstr:
   159                           	opt stack 0
   160  0000                     _TMR0	set	4054
   161  0000                     _T0CON	set	4053
   162  0000                     _INTCON2bits	set	4081
   163  0000                     _SSP1BUF	set	4041
   164  0000                     _SSP1CON1	set	4038
   165  0000                     _ADRESL	set	4035
   166  0000                     _ADRESH	set	4036
   167  0000                     _INTCONbits	set	4082
   168  0000                     _PIE1bits	set	3997
   169  0000                     _PIR1bits	set	3998
   170  0000                     _IPR1bits	set	3999
   171  0000                     _RCONbits	set	4048
   172  0000                     _ADCON2	set	4032
   173  0000                     _ADCON1	set	4033
   174  0000                     _ADCON0	set	4034
   175  0000                     _TRISAbits	set	3986
   176  0000                     _ADCON0bits	set	4034
   177  0000                     _TMR0IE	set	32661
   178  0000                     _TMR0ON	set	32431
   179  0000                     _TMR0IF	set	32658
   180  0000                     _LATF6	set	31862
   181  0000                     _TRISF6	set	31934
   182  0000                     _TRISA2	set	31890
   183  0000                     _LATA2	set	31818
   184  0000                     _SSP1IF	set	31987
   185  0000                     _CKE1	set	32318
   186  0000                     _TRISC3	set	31907
   187  0000                     _TRISC5	set	31909
   188  00104B                     STR_1:
   189  00104B  41                 	db	65	;'A'
   190  00104C  44                 	db	68	;'D'
   191  00104D  20                 	db	32
   192  00104E  63                 	db	99	;'c'
   193  00104F  6F                 	db	111	;'o'
   194  001050  6E                 	db	110	;'n'
   195  001051  76                 	db	118	;'v'
   196  001052  65                 	db	101	;'e'
   197  001053  72                 	db	114	;'r'
   198  001054  73                 	db	115	;'s'
   199  001055  69                 	db	105	;'i'
   200  001056  6F                 	db	111	;'o'
   201  001057  6E                 	db	110	;'n'
   202  001058  00                 	db	0
   203  001059                     STR_2:
   204  001059  25                 	db	37
   205  00105A  64                 	db	100	;'d'
   206  00105B  20                 	db	32
   207  00105C  20                 	db	32
   208  00105D  00                 	db	0
   209                           
   210                           ; #config settings
   211  00105E  00                 	db	0	; dummy byte at the end
   212  0000                     
   213                           	psect	cinit
   214  00158E                     __pcinit:
   215                           	opt stack 0
   216  00158E                     start_initialization:
   217                           	opt stack 0
   218  00158E                     __initialization:
   219                           	opt stack 0
   220                           
   221                           ; Clear objects allocated to COMRAM (4 bytes)
   222  00158E  6A45               	clrf	(__pbssCOMRAM+3)& (0+255),c
   223  001590  6A44               	clrf	(__pbssCOMRAM+2)& (0+255),c
   224  001592  6A43               	clrf	(__pbssCOMRAM+1)& (0+255),c
   225  001594  6A42               	clrf	__pbssCOMRAM& (0+255),c
   226  001596                     end_of_initialization:
   227                           	opt stack 0
   228  001596                     __end_of__initialization:
   229                           	opt stack 0
   230  001596  9046               	bcf	int$flags,0,c	;clear compiler interrupt flag (level 1)
   231  001598  9246               	bcf	int$flags,1,c	;clear compiler interrupt flag (level 2)
   232  00159A  0100               	movlb	0
   233  00159C  EFE9  F00A         	goto	_main	;jump to C main() function
   234                           
   235                           	psect	bssCOMRAM
   236  000042                     __pbssCOMRAM:
   237                           	opt stack 0
   238  000042                     _count:
   239                           	opt stack 0
   240  000042                     	ds	2
   241  000044                     _adres:
   242                           	opt stack 0
   243  000044                     	ds	2
   244                           
   245                           	psect	cstackBANK0
   246  000060                     __pcstackBANK0:
   247                           	opt stack 0
   248  000060                     tre_ms@p10ms:
   249                           	opt stack 0
   250  000060                     lcd_download@data:
   251                           	opt stack 0
   252                           
   253                           ; 2 bytes @ 0x0
   254  000060                     	ds	2
   255  000062                     ??_lcd_download:
   256                           
   257                           ; 1 bytes @ 0x2
   258  000062                     	ds	2
   259  000064                     lcd_download@addr:
   260                           	opt stack 0
   261                           
   262                           ; 1 bytes @ 0x4
   263  000064                     	ds	1
   264  000065                     lcd_download@j:
   265                           	opt stack 0
   266                           
   267                           ; 1 bytes @ 0x5
   268  000065                     	ds	1
   269  000066                     lcd_DHBK@i:
   270                           	opt stack 0
   271                           
   272                           ; 1 bytes @ 0x6
   273  000066                     	ds	1
   274  000067                     
   275                           ; 1 bytes @ 0x7
   276                           
   277                           	psect	cstackCOMRAM
   278  000001                     __pcstackCOMRAM:
   279                           	opt stack 0
   280  000001                     ??_timer0_isr:
   281  000001                     
   282                           ; 1 bytes @ 0x0
   283  000001                     	ds	18
   284  000013                     ?___lwdiv:
   285                           	opt stack 0
   286  000013                     SPI_send@c:
   287                           	opt stack 0
   288  000013                     ___lwdiv@dividend:
   289                           	opt stack 0
   290                           
   291                           ; 2 bytes @ 0x12
   292  000013                     	ds	1
   293  000014                     Write_PortB@d:
   294                           	opt stack 0
   295  000014                     Write_PortA@mask:
   296                           	opt stack 0
   297                           
   298                           ; 1 bytes @ 0x13
   299  000014                     	ds	1
   300  000015                     i_write@d:
   301                           	opt stack 0
   302  000015                     d_write@d:
   303                           	opt stack 0
   304  000015                     ___lwdiv@divisor:
   305                           	opt stack 0
   306                           
   307                           ; 2 bytes @ 0x14
   308  000015                     	ds	1
   309  000016                     ??_lcd_cls:
   310  000016                     lcd_gotoxy@col:
   311                           	opt stack 0
   312                           
   313                           ; 1 bytes @ 0x15
   314  000016                     	ds	1
   315  000017                     lcd_gotoxy@row:
   316                           	opt stack 0
   317  000017                     ___lwdiv@quotient:
   318                           	opt stack 0
   319                           
   320                           ; 2 bytes @ 0x16
   321  000017                     	ds	1
   322  000018                     lcd_putc@c:
   323                           	opt stack 0
   324                           
   325                           ; 1 bytes @ 0x17
   326  000018                     	ds	1
   327  000019                     putch@c:
   328                           	opt stack 0
   329  000019                     ___lwdiv@counter:
   330                           	opt stack 0
   331                           
   332                           ; 1 bytes @ 0x18
   333  000019                     	ds	1
   334  00001A                     ?___lwmod:
   335                           	opt stack 0
   336  00001A                     ___lwmod@dividend:
   337                           	opt stack 0
   338                           
   339                           ; 2 bytes @ 0x19
   340  00001A                     	ds	2
   341  00001C                     ___lwmod@divisor:
   342                           	opt stack 0
   343                           
   344                           ; 2 bytes @ 0x1B
   345  00001C                     	ds	2
   346  00001E                     ___lwmod@counter:
   347                           	opt stack 0
   348                           
   349                           ; 1 bytes @ 0x1D
   350  00001E                     	ds	1
   351  00001F                     ?_printf:
   352                           	opt stack 0
   353  00001F                     printf@f:
   354                           	opt stack 0
   355                           
   356                           ; 2 bytes @ 0x1E
   357  00001F                     	ds	4
   358  000023                     ??_printf:
   359                           
   360                           ; 1 bytes @ 0x22
   361  000023                     	ds	1
   362  000024                     printf@ap:
   363                           	opt stack 0
   364                           
   365                           ; 2 bytes @ 0x23
   366  000024                     	ds	2
   367  000026                     printf@flag:
   368                           	opt stack 0
   369                           
   370                           ; 1 bytes @ 0x25
   371  000026                     	ds	1
   372  000027                     printf@prec:
   373                           	opt stack 0
   374                           
   375                           ; 1 bytes @ 0x26
   376  000027                     	ds	1
   377  000028                     printf@val:
   378                           	opt stack 0
   379                           
   380                           ; 2 bytes @ 0x27
   381  000028                     	ds	2
   382  00002A                     printf@c:
   383                           	opt stack 0
   384                           
   385                           ; 1 bytes @ 0x29
   386  00002A                     	ds	1
   387  00002B                     ??_Adc_isr:
   388                           
   389                           ; 1 bytes @ 0x2A
   390  00002B                     	ds	23
   391                           
   392 ;;
   393 ;;Main: autosize = 0, tempsize = 0, incstack = 0, save=0
   394 ;;
   395 ;; *************** function _main *****************
   396 ;; Defined at:
   397 ;;		line 61 in file "Adc.c"
   398 ;; Parameters:    Size  Location     Type
   399 ;;		None
   400 ;; Auto vars:     Size  Location     Type
   401 ;;		None
   402 ;; Return value:  Size  Location     Type
   403 ;;                  1    wreg      void 
   404 ;; Registers used:
   405 ;;		wreg, status,2, status,0, tblptrl, tblptrh, tblptru, prodl, prodh, cstack
   406 ;; Tracked objects:
   407 ;;		On entry : 0/0
   408 ;;		On exit  : 0/0
   409 ;;		Unchanged: 0/0
   410 ;; Data sizes:     COMRAM   BANK0   BANK1   BANK2   BANK3   BANK4   BANK5   BANK6   BANK7   BANK8   BANK9  BANK10  BANK1
      +1  BANK12  BANK13  BANK14  BANK15
   411 ;;      Params:         0       0       0       0       0       0       0       0       0       0       0       0       
      +0       0       0       0       0
   412 ;;      Locals:         0       0       0       0       0       0       0       0       0       0       0       0       
      +0       0       0       0       0
   413 ;;      Temps:          0       0       0       0       0       0       0       0       0       0       0       0       
      +0       0       0       0       0
   414 ;;      Totals:         0       0       0       0       0       0       0       0       0       0       0       0       
      +0       0       0       0       0
   415 ;;Total ram usage:        0 bytes
   416 ;; Hardware stack levels required when called:   19
   417 ;; This function calls:
   418 ;;		_Adc_init
   419 ;;		_lcd_init
   420 ;;		_timer0_init
   421 ;; This function is called by:
   422 ;;		Startup code after reset
   423 ;; This function uses a non-reentrant model
   424 ;;
   425                           
   426                           	psect	text0
   427  0015D2                     __ptext0:
   428                           	opt stack 0
   429  0015D2                     _main:
   430                           	opt stack 12
   431                           
   432                           ;Adc.c: 62: Adc_init();
   433                           
   434                           ;incstack = 0
   435  0015D2  EC20  F00A         	call	_Adc_init	;wreg free
   436                           
   437                           ;Adc.c: 63: lcd_init();
   438  0015D6  EC1F  F009         	call	_lcd_init	;wreg free
   439                           
   440                           ;Adc.c: 64: timer0_init();
   441  0015DA  ECBD  F00A         	call	_timer0_init	;wreg free
   442  0015DE                     l63:
   443  0015DE  D7FF               	goto	l63
   444  0015E0                     __end_of_main:
   445                           	opt stack 0
   446                           
   447 ;; *************** function _timer0_init *****************
   448 ;; Defined at:
   449 ;;		line 12 in file "Timer.c"
   450 ;; Parameters:    Size  Location     Type
   451 ;;		None
   452 ;; Auto vars:     Size  Location     Type
   453 ;;		None
   454 ;; Return value:  Size  Location     Type
   455 ;;                  1    wreg      void 
   456 ;; Registers used:
   457 ;;		wreg, status,2, cstack
   458 ;; Tracked objects:
   459 ;;		On entry : 0/0
   460 ;;		On exit  : 0/0
   461 ;;		Unchanged: 0/0
   462 ;; Data sizes:     COMRAM   BANK0   BANK1   BANK2   BANK3   BANK4   BANK5   BANK6   BANK7   BANK8   BANK9  BANK10  BANK1
      +1  BANK12  BANK13  BANK14  BANK15
   463 ;;      Params:         0       0       0       0       0       0       0       0       0       0       0       0       
      +0       0       0       0       0
   464 ;;      Locals:         0       0       0       0       0       0       0       0       0       0       0       0       
      +0       0       0       0       0
   465 ;;      Temps:          0       0       0       0       0       0       0       0       0       0       0       0       
      +0       0       0       0       0
   466 ;;      Totals:         0       0       0       0       0       0       0       0       0       0       0       0       
      +0       0       0       0       0
   467 ;;Total ram usage:        0 bytes
   468 ;; Hardware stack levels used:    1
   469 ;; Hardware stack levels required when called:   12
   470 ;; This function calls:
   471 ;;		_timer0_reset
   472 ;; This function is called by:
   473 ;;		_main
   474 ;; This function uses a non-reentrant model
   475 ;;
   476                           
   477                           	psect	text1
   478  00157A                     __ptext1:
   479                           	opt stack 0
   480  00157A                     _timer0_init:
   481                           	opt stack 18
   482                           
   483                           ;Timer.c: 14: RCONbits.IPEN=1;
   484                           
   485                           ;incstack = 0
   486  00157A  8ED0               	bsf	4048,7,c	;volatile
   487                           
   488                           ;Timer.c: 15: INTCON2bits.TMR0IP=0;
   489  00157C  94F1               	bcf	intcon2,2,c	;volatile
   490                           
   491                           ;Timer.c: 16: INTCONbits.TMR0IE=1;
   492  00157E  8AF2               	bsf	intcon,5,c	;volatile
   493                           
   494                           ;Timer.c: 17: INTCONbits.GIEH=1;
   495  001580  8EF2               	bsf	intcon,7,c	;volatile
   496                           
   497                           ;Timer.c: 18: INTCONbits.GIEL=1;
   498  001582  8CF2               	bsf	intcon,6,c	;volatile
   499                           
   500                           ;Timer.c: 19: T0CON=0;
   501  001584  0E00               	movlw	0
   502  001586  6ED5               	movwf	4053,c	;volatile
   503                           
   504                           ;Timer.c: 20: timer0_reset();
   505  001588  ECD9  F00A         	call	_timer0_reset	;wreg free
   506  00158C  0012               	return		;funcret
   507  00158E                     __end_of_timer0_init:
   508                           	opt stack 0
   509                           intcon	equ	0xFF2
   510                           intcon2	equ	0xFF1
   511                           
   512 ;; *************** function _timer0_reset *****************
   513 ;; Defined at:
   514 ;;		line 5 in file "Timer.c"
   515 ;; Parameters:    Size  Location     Type
   516 ;;		None
   517 ;; Auto vars:     Size  Location     Type
   518 ;;		None
   519 ;; Return value:  Size  Location     Type
   520 ;;                  1    wreg      void 
   521 ;; Registers used:
   522 ;;		wreg, status,2
   523 ;; Tracked objects:
   524 ;;		On entry : 0/0
   525 ;;		On exit  : 0/0
   526 ;;		Unchanged: 0/0
   527 ;; Data sizes:     COMRAM   BANK0   BANK1   BANK2   BANK3   BANK4   BANK5   BANK6   BANK7   BANK8   BANK9  BANK10  BANK1
      +1  BANK12  BANK13  BANK14  BANK15
   528 ;;      Params:         0       0       0       0       0       0       0       0       0       0       0       0       
      +0       0       0       0       0
   529 ;;      Locals:         0       0       0       0       0       0       0       0       0       0       0       0       
      +0       0       0       0       0
   530 ;;      Temps:          0       0       0       0       0       0       0       0       0       0       0       0       
      +0       0       0       0       0
   531 ;;      Totals:         0       0       0       0       0       0       0       0       0       0       0       0       
      +0       0       0       0       0
   532 ;;Total ram usage:        0 bytes
   533 ;; Hardware stack levels used:    1
   534 ;; Hardware stack levels required when called:   11
   535 ;; This function calls:
   536 ;;		Nothing
   537 ;; This function is called by:
   538 ;;		_timer0_init
   539 ;; This function uses a non-reentrant model
   540 ;;
   541                           
   542                           	psect	text2
   543  0015B2                     __ptext2:
   544                           	opt stack 0
   545  0015B2                     _timer0_reset:
   546                           	opt stack 18
   547                           
   548                           ;Timer.c: 7: TMR0IF=0;
   549                           
   550                           ;incstack = 0
   551  0015B2  94F2               	bcf	intcon,2,c	;volatile
   552                           
   553                           ;Timer.c: 8: TMR0ON=0;
   554  0015B4  9ED5               	bcf	4053,7,c	;volatile
   555                           
   556                           ;Timer.c: 9: TMR0=-12500;
   557  0015B6  0ECF               	movlw	207
   558  0015B8  6ED7               	movwf	4055,c	;volatile
   559  0015BA  0E2C               	movlw	44
   560  0015BC  6ED6               	movwf	4054,c	;volatile
   561                           
   562                           ;Timer.c: 10: TMR0ON=1;
   563  0015BE  8ED5               	bsf	4053,7,c	;volatile
   564  0015C0  0012               	return		;funcret
   565  0015C2                     __end_of_timer0_reset:
   566                           	opt stack 0
   567                           intcon	equ	0xFF2
   568                           intcon2	equ	0xFF1
   569                           
   570 ;; *************** function _lcd_init *****************
   571 ;; Defined at:
   572 ;;		line 110 in file "DHBKLcd2.c"
   573 ;; Parameters:    Size  Location     Type
   574 ;;		None
   575 ;; Auto vars:     Size  Location     Type
   576 ;;		None
   577 ;; Return value:  Size  Location     Type
   578 ;;                  1    wreg      void 
   579 ;; Registers used:
   580 ;;		wreg, status,2, status,0, tblptrl, tblptrh, tblptru, prodl, prodh, cstack
   581 ;; Tracked objects:
   582 ;;		On entry : 0/0
   583 ;;		On exit  : 0/0
   584 ;;		Unchanged: 0/0
   585 ;; Data sizes:     COMRAM   BANK0   BANK1   BANK2   BANK3   BANK4   BANK5   BANK6   BANK7   BANK8   BANK9  BANK10  BANK1
      +1  BANK12  BANK13  BANK14  BANK15
   586 ;;      Params:         0       0       0       0       0       0       0       0       0       0       0       0       
      +0       0       0       0       0
   587 ;;      Locals:         0       0       0       0       0       0       0       0       0       0       0       0       
      +0       0       0       0       0
   588 ;;      Temps:          0       0       0       0       0       0       0       0       0       0       0       0       
      +0       0       0       0       0
   589 ;;      Totals:         0       0       0       0       0       0       0       0       0       0       0       0       
      +0       0       0       0       0
   590 ;;Total ram usage:        0 bytes
   591 ;; Hardware stack levels used:    1
   592 ;; Hardware stack levels required when called:   18
   593 ;; This function calls:
   594 ;;		_SPI_init
   595 ;;		_SPIportA_init
   596 ;;		_SPIportB_init
   597 ;;		_i_write
   598 ;;		_lcd_DHBK
   599 ;;		_lcd_cls
   600 ;;		_tre_ms
   601 ;; This function is called by:
   602 ;;		_main
   603 ;; This function uses a non-reentrant model
   604 ;;
   605                           
   606                           	psect	text3
   607  00123E                     __ptext3:
   608                           	opt stack 0
   609  00123E                     _lcd_init:
   610                           	opt stack 12
   611                           
   612                           ;DHBKLcd2.c: 112: TRISA2=0;TRISF6=0;
   613                           
   614                           ;incstack = 0
   615  00123E  9492               	bcf	3986,2,c	;volatile
   616  001240  9C97               	bcf	3991,6,c	;volatile
   617                           
   618                           ;DHBKLcd2.c: 113: LATA2=1;
   619  001242  8489               	bsf	3977,2,c	;volatile
   620                           
   621                           ;DHBKLcd2.c: 114: LATF6=0; _delay(4); LATF6=1;
   622  001244  9C8E               	bcf	3982,6,c	;volatile
   623  001246  D000               	nop2		;2 cycle nop
   624  001248  D000               	nop2		;2 cycle nop
   625  00124A  8C8E               	bsf	3982,6,c	;volatile
   626                           
   627                           ;DHBKLcd2.c: 115: SPI_init(); SPIportA_init(); SPIportB_init();
   628  00124C  ECF0  F00A         	call	_SPI_init	;wreg free
   629  001250  EC9B  F00A         	call	_SPIportA_init	;wreg free
   630  001254  EC8F  F00A         	call	_SPIportB_init	;wreg free
   631                           
   632                           ;DHBKLcd2.c: 117: tre_ms(60);
   633  001258  0E00               	movlw	0
   634  00125A  0100               	movlb	0	; () banked
   635  00125C  6F61               	movwf	(tre_ms@p10ms+1)& (0+255),b
   636  00125E  0E3C               	movlw	60
   637  001260  6F60               	movwf	tre_ms@p10ms& (0+255),b
   638  001262  EC67  F00A         	call	_tre_ms	;wreg free
   639                           
   640                           ;DHBKLcd2.c: 118: i_write(0b00110000);
   641  001266  0E30               	movlw	48
   642  001268  EC47  F00A         	call	_i_write
   643                           
   644                           ;DHBKLcd2.c: 119: tre_ms(41);
   645  00126C  0E00               	movlw	0
   646  00126E  0100               	movlb	0	; () banked
   647  001270  6F61               	movwf	(tre_ms@p10ms+1)& (0+255),b
   648  001272  0E29               	movlw	41
   649  001274  6F60               	movwf	tre_ms@p10ms& (0+255),b
   650  001276  EC67  F00A         	call	_tre_ms	;wreg free
   651                           
   652                           ;DHBKLcd2.c: 120: i_write(0b00110000);
   653  00127A  0E30               	movlw	48
   654  00127C  EC47  F00A         	call	_i_write
   655                           
   656                           ;DHBKLcd2.c: 121: _delay(158);
   657  001280  0E34               	movlw	52
   658  001282                     u617:
   659  001282  2EE8               	decfsz	wreg,f,c
   660  001284  D7FE               	bra	u617
   661  001286  D000               	nop2	
   662                           
   663                           ;DHBKLcd2.c: 122: i_write(0b00110000);
   664  001288  0E30               	movlw	48
   665  00128A  EC47  F00A         	call	_i_write
   666                           
   667                           ;DHBKLcd2.c: 123: i_write(0b00111000);
   668  00128E  0E38               	movlw	56
   669  001290  EC47  F00A         	call	_i_write
   670                           
   671                           ;DHBKLcd2.c: 124: i_write(0b00001100);
   672  001294  0E0C               	movlw	12
   673  001296  EC47  F00A         	call	_i_write
   674                           
   675                           ;DHBKLcd2.c: 126: i_write(0b00000110);
   676  00129A  0E06               	movlw	6
   677  00129C  EC47  F00A         	call	_i_write
   678                           
   679                           ;DHBKLcd2.c: 128: lcd_cls();
   680  0012A0  ECB2  F00A         	call	_lcd_cls	;wreg free
   681                           
   682                           ;DHBKLcd2.c: 129: lcd_DHBK();
   683  0012A4  ECA6  F009         	call	_lcd_DHBK	;wreg free
   684  0012A8  0012               	return		;funcret
   685  0012AA                     __end_of_lcd_init:
   686                           	opt stack 0
   687                           intcon	equ	0xFF2
   688                           intcon2	equ	0xFF1
   689                           wreg	equ	0xFE8
   690                           
   691 ;; *************** function _tre_ms *****************
   692 ;; Defined at:
   693 ;;		line 23 in file "DHBKLcd2.c"
   694 ;; Parameters:    Size  Location     Type
   695 ;;  p10ms           2    0[BANK0 ] unsigned int 
   696 ;; Auto vars:     Size  Location     Type
   697 ;;		None
   698 ;; Return value:  Size  Location     Type
   699 ;;                  1    wreg      void 
   700 ;; Registers used:
   701 ;;		wreg, status,2, status,0
   702 ;; Tracked objects:
   703 ;;		On entry : 0/0
   704 ;;		On exit  : 0/0
   705 ;;		Unchanged: 0/0
   706 ;; Data sizes:     COMRAM   BANK0   BANK1   BANK2   BANK3   BANK4   BANK5   BANK6   BANK7   BANK8   BANK9  BANK10  BANK1
      +1  BANK12  BANK13  BANK14  BANK15
   707 ;;      Params:         0       2       0       0       0       0       0       0       0       0       0       0       
      +0       0       0       0       0
   708 ;;      Locals:         0       0       0       0       0       0       0       0       0       0       0       0       
      +0       0       0       0       0
   709 ;;      Temps:          0       0       0       0       0       0       0       0       0       0       0       0       
      +0       0       0       0       0
   710 ;;      Totals:         0       2       0       0       0       0       0       0       0       0       0       0       
      +0       0       0       0       0
   711 ;;Total ram usage:        2 bytes
   712 ;; Hardware stack levels used:    1
   713 ;; Hardware stack levels required when called:   11
   714 ;; This function calls:
   715 ;;		Nothing
   716 ;; This function is called by:
   717 ;;		_lcd_init
   718 ;; This function uses a non-reentrant model
   719 ;;
   720                           
   721                           	psect	text4
   722  0014CE                     __ptext4:
   723                           	opt stack 0
   724  0014CE                     _tre_ms:
   725                           	opt stack 18
   726                           
   727                           ;incstack = 0
   728  0014CE  0100               	movlb	0	; () banked
   729  0014D0  5160               	movf	tre_ms@p10ms& (0+255),w,b
   730  0014D2  1161               	iorwf	(tre_ms@p10ms+1)& (0+255),w,b
   731  0014D4  B4D8               	btfsc	status,2,c
   732  0014D6  0012               	return	
   733                           
   734                           ; BSR set to: 0
   735                           
   736                           ; BSR set to: 0
   737                           
   738                           ; BSR set to: 0
   739  0014D8  0E53               	movlw	83
   740  0014DA                     u627:
   741  0014DA  2EE8               	decfsz	wreg,f,c
   742  0014DC  D7FE               	bra	u627
   743  0014DE  F000               	nop	
   744  0014E0  0100               	movlb	0	; () banked
   745  0014E2  0760               	decf	tre_ms@p10ms& (0+255),f,b
   746  0014E4  A0D8               	btfss	status,0,c
   747  0014E6  0761               	decf	(tre_ms@p10ms+1)& (0+255),f,b
   748  0014E8  D7F3               	goto	L1
   749  0014EA                     __end_of_tre_ms:
   750                           	opt stack 0
   751                           intcon	equ	0xFF2
   752                           intcon2	equ	0xFF1
   753                           wreg	equ	0xFE8
   754                           status	equ	0xFD8
   755                           
   756 ;; *************** function _lcd_DHBK *****************
   757 ;; Defined at:
   758 ;;		line 149 in file "DHBKLcd2.c"
   759 ;; Parameters:    Size  Location     Type
   760 ;;		None
   761 ;; Auto vars:     Size  Location     Type
   762 ;;  i               1    6[BANK0 ] unsigned char 
   763 ;; Return value:  Size  Location     Type
   764 ;;                  1    wreg      void 
   765 ;; Registers used:
   766 ;;		wreg, status,2, status,0, tblptrl, tblptrh, tblptru, prodl, prodh, cstack
   767 ;; Tracked objects:
   768 ;;		On entry : 0/0
   769 ;;		On exit  : 0/0
   770 ;;		Unchanged: 0/0
   771 ;; Data sizes:     COMRAM   BANK0   BANK1   BANK2   BANK3   BANK4   BANK5   BANK6   BANK7   BANK8   BANK9  BANK10  BANK1
      +1  BANK12  BANK13  BANK14  BANK15
   772 ;;      Params:         0       0       0       0       0       0       0       0       0       0       0       0       
      +0       0       0       0       0
   773 ;;      Locals:         0       1       0       0       0       0       0       0       0       0       0       0       
      +0       0       0       0       0
   774 ;;      Temps:          0       0       0       0       0       0       0       0       0       0       0       0       
      +0       0       0       0       0
   775 ;;      Totals:         0       1       0       0       0       0       0       0       0       0       0       0       
      +0       0       0       0       0
   776 ;;Total ram usage:        1 bytes
   777 ;; Hardware stack levels used:    1
   778 ;; Hardware stack levels required when called:   17
   779 ;; This function calls:
   780 ;;		_lcd_download
   781 ;;		_lcd_gotoxy
   782 ;;		_putch
   783 ;; This function is called by:
   784 ;;		_lcd_init
   785 ;; This function uses a non-reentrant model
   786 ;;
   787                           
   788                           	psect	text5
   789  00134C                     __ptext5:
   790                           	opt stack 0
   791  00134C                     _lcd_DHBK:
   792                           	opt stack 12
   793                           
   794                           ;DHBKLcd2.c: 151: for(i=0;i<8;i++) lcd_download(i,dhbkstr[i]);
   795                           
   796                           ; BSR set to: 0
   797                           ;incstack = 0
   798  00134C  0E00               	movlw	0
   799  00134E  0100               	movlb	0	; () banked
   800  001350  6F66               	movwf	lcd_DHBK@i& (0+255),b
   801  001352                     l1361:
   802                           
   803                           ; BSR set to: 0
   804  001352  0E07               	movlw	7
   805  001354  6566               	cpfsgt	lcd_DHBK@i& (0+255),b
   806  001356  D001               	goto	l167
   807  001358  D00E               	goto	u530
   808  00135A                     l167:
   809                           
   810                           ; BSR set to: 0
   811                           
   812                           ; BSR set to: 0
   813  00135A  5166               	movf	lcd_DHBK@i& (0+255),w,b
   814  00135C  0D08               	mullw	8
   815  00135E  0E0B               	movlw	low _dhbkstr
   816  001360  24F3               	addwf	prodl,w,c
   817  001362  6F60               	movwf	lcd_download@data& (0+255),b
   818  001364  0E10               	movlw	high _dhbkstr
   819  001366  20F4               	addwfc	prodh,w,c
   820  001368  6F61               	movwf	(lcd_download@data+1)& (0+255),b
   821  00136A  5166               	movf	lcd_DHBK@i& (0+255),w,b
   822  00136C  EC7E  F009         	call	_lcd_download
   823  001370  0100               	movlb	0	; () banked
   824  001372  2B66               	incf	lcd_DHBK@i& (0+255),f,b
   825  001374  D7EE               	goto	l1361
   826  001376                     u530:
   827                           
   828                           ; BSR set to: 0
   829                           ;DHBKLcd2.c: 152: lcd_gotoxy(1,8);
   830                           
   831                           ; BSR set to: 0
   832  001376  0E08               	movlw	8
   833  001378  6E16               	movwf	lcd_gotoxy@col,c
   834  00137A  0E01               	movlw	1
   835  00137C  ECA7  F00A         	call	_lcd_gotoxy
   836                           
   837                           ;DHBKLcd2.c: 153: for(i=0;i<8;i++) putch(i);
   838  001380  0E00               	movlw	0
   839  001382  0100               	movlb	0	; () banked
   840  001384  6F66               	movwf	lcd_DHBK@i& (0+255),b
   841  001386                     l1375:
   842                           
   843                           ; BSR set to: 0
   844  001386  0E07               	movlw	7
   845  001388  6566               	cpfsgt	lcd_DHBK@i& (0+255),b
   846  00138A  D001               	goto	l169
   847  00138C  0012               	return	
   848  00138E                     l169:
   849                           
   850                           ; BSR set to: 0
   851                           
   852                           ; BSR set to: 0
   853  00138E  5166               	movf	lcd_DHBK@i& (0+255),w,b
   854  001390  ECF7  F00A         	call	_putch
   855  001394  0100               	movlb	0	; () banked
   856  001396  2B66               	incf	lcd_DHBK@i& (0+255),f,b
   857  001398  D7F6               	goto	l1375
   858  00139A                     __end_of_lcd_DHBK:
   859                           	opt stack 0
   860                           prodh	equ	0xFF4
   861                           prodl	equ	0xFF3
   862                           intcon	equ	0xFF2
   863                           intcon2	equ	0xFF1
   864                           wreg	equ	0xFE8
   865                           status	equ	0xFD8
   866                           
   867 ;; *************** function _lcd_download *****************
   868 ;; Defined at:
   869 ;;		line 101 in file "DHBKLcd2.c"
   870 ;; Parameters:    Size  Location     Type
   871 ;;  addr            1    wreg     unsigned char 
   872 ;;  data            2    0[BANK0 ] PTR const unsigned char 
   873 ;;		 -> dhbkstr(64), 
   874 ;; Auto vars:     Size  Location     Type
   875 ;;  addr            1    4[BANK0 ] unsigned char 
   876 ;;  j               1    5[BANK0 ] unsigned char 
   877 ;; Return value:  Size  Location     Type
   878 ;;                  1    wreg      void 
   879 ;; Registers used:
   880 ;;		wreg, status,2, status,0, tblptrl, tblptrh, tblptru, prodl, prodh, cstack
   881 ;; Tracked objects:
   882 ;;		On entry : 0/0
   883 ;;		On exit  : 0/0
   884 ;;		Unchanged: 0/0
   885 ;; Data sizes:     COMRAM   BANK0   BANK1   BANK2   BANK3   BANK4   BANK5   BANK6   BANK7   BANK8   BANK9  BANK10  BANK1
      +1  BANK12  BANK13  BANK14  BANK15
   886 ;;      Params:         0       2       0       0       0       0       0       0       0       0       0       0       
      +0       0       0       0       0
   887 ;;      Locals:         0       2       0       0       0       0       0       0       0       0       0       0       
      +0       0       0       0       0
   888 ;;      Temps:          0       2       0       0       0       0       0       0       0       0       0       0       
      +0       0       0       0       0
   889 ;;      Totals:         0       6       0       0       0       0       0       0       0       0       0       0       
      +0       0       0       0       0
   890 ;;Total ram usage:        6 bytes
   891 ;; Hardware stack levels used:    1
   892 ;; Hardware stack levels required when called:   14
   893 ;; This function calls:
   894 ;;		_d_write
   895 ;;		_i_write
   896 ;; This function is called by:
   897 ;;		_lcd_DHBK
   898 ;; This function uses a non-reentrant model
   899 ;;
   900                           
   901                           	psect	text6
   902  0012FC                     __ptext6:
   903                           	opt stack 0
   904  0012FC                     _lcd_download:
   905                           	opt stack 14
   906                           
   907                           ; BSR set to: 0
   908                           ;incstack = 0
   909                           ;lcd_download@addr stored from wreg
   910  0012FC  0100               	movlb	0	; () banked
   911  0012FE  6F64               	movwf	lcd_download@addr& (0+255),b
   912                           
   913                           ;DHBKLcd2.c: 103: i_write((unsigned char)((addr*8&0b00111111)|0b01000000));
   914  001300  0100               	movlb	0	; () banked
   915  001302  5164               	movf	lcd_download@addr& (0+255),w,b
   916  001304  0D08               	mullw	8
   917  001306  50F3               	movf	prodl,w,c
   918  001308  0B3F               	andlw	63
   919  00130A  0940               	iorlw	64
   920  00130C  EC47  F00A         	call	_i_write
   921                           
   922                           ;DHBKLcd2.c: 104: for(j=0;j<8;j++)
   923  001310  0E00               	movlw	0
   924  001312  0100               	movlb	0	; () banked
   925  001314  6F65               	movwf	lcd_download@j& (0+255),b
   926  001316                     l1231:
   927                           
   928                           ; BSR set to: 0
   929  001316  0E07               	movlw	7
   930  001318  6565               	cpfsgt	lcd_download@j& (0+255),b
   931  00131A  D001               	goto	l139
   932  00131C  0012               	return	
   933  00131E                     l139:
   934                           
   935                           ; BSR set to: 0
   936                           ;DHBKLcd2.c: 105: d_write(data[j]);
   937                           
   938                           ; BSR set to: 0
   939  00131E  5165               	movf	lcd_download@j& (0+255),w,b
   940  001320  0D01               	mullw	1
   941  001322  C060  F062         	movff	lcd_download@data,??_lcd_download
   942  001326  C061  F063         	movff	lcd_download@data+1,??_lcd_download+1
   943  00132A  50F3               	movf	prodl,w,c
   944  00132C  2762               	addwf	??_lcd_download& (0+255),f,b
   945  00132E  50F4               	movf	prodh,w,c
   946  001330  2363               	addwfc	(??_lcd_download+1)& (0+255),f,b
   947  001332  C062  FFF6         	movff	??_lcd_download,tblptrl
   948  001336  C063  FFF7         	movff	??_lcd_download+1,tblptrh
   949  00133A                     	if	0	;tblptru may be non-zero
   950  00133A                     	endif
   951  00133A                     	if	1	;Program memory is > 0xFFFF, there are 3 active tblptr bytes
   952  00133A  0E00               	movlw	low (__mediumconst shr (0+16))
   953  00133C  6EF8               	movwf	tblptru,c
   954  00133E                     	endif
   955  00133E  0008               	tblrd		*
   956  001340  50F5               	movf	tablat,w,c
   957  001342  EC57  F00A         	call	_d_write
   958  001346  0100               	movlb	0	; () banked
   959  001348  2B65               	incf	lcd_download@j& (0+255),f,b
   960  00134A  D7E5               	goto	l1231
   961  00134C                     __end_of_lcd_download:
   962                           	opt stack 0
   963                           tblptru	equ	0xFF8
   964                           tblptrh	equ	0xFF7
   965                           tblptrl	equ	0xFF6
   966                           tablat	equ	0xFF5
   967                           prodh	equ	0xFF4
   968                           prodl	equ	0xFF3
   969                           intcon	equ	0xFF2
   970                           intcon2	equ	0xFF1
   971                           wreg	equ	0xFE8
   972                           status	equ	0xFD8
   973                           
   974 ;; *************** function _SPIportB_init *****************
   975 ;; Defined at:
   976 ;;		line 51 in file "DHBKLcd2.c"
   977 ;; Parameters:    Size  Location     Type
   978 ;;		None
   979 ;; Auto vars:     Size  Location     Type
   980 ;;		None
   981 ;; Return value:  Size  Location     Type
   982 ;;                  1    wreg      void 
   983 ;; Registers used:
   984 ;;		wreg, cstack
   985 ;; Tracked objects:
   986 ;;		On entry : 0/0
   987 ;;		On exit  : 0/0
   988 ;;		Unchanged: 0/0
   989 ;; Data sizes:     COMRAM   BANK0   BANK1   BANK2   BANK3   BANK4   BANK5   BANK6   BANK7   BANK8   BANK9  BANK10  BANK1
      +1  BANK12  BANK13  BANK14  BANK15
   990 ;;      Params:         0       0       0       0       0       0       0       0       0       0       0       0       
      +0       0       0       0       0
   991 ;;      Locals:         0       0       0       0       0       0       0       0       0       0       0       0       
      +0       0       0       0       0
   992 ;;      Temps:          0       0       0       0       0       0       0       0       0       0       0       0       
      +0       0       0       0       0
   993 ;;      Totals:         0       0       0       0       0       0       0       0       0       0       0       0       
      +0       0       0       0       0
   994 ;;Total ram usage:        0 bytes
   995 ;; Hardware stack levels used:    1
   996 ;; Hardware stack levels required when called:   12
   997 ;; This function calls:
   998 ;;		_SPI_send
   999 ;; This function is called by:
  1000 ;;		_lcd_init
  1001 ;; This function uses a non-reentrant model
  1002 ;;
  1003                           
  1004                           	psect	text7
  1005  00151E                     __ptext7:
  1006                           	opt stack 0
  1007  00151E                     _SPIportB_init:
  1008                           	opt stack 17
  1009                           
  1010                           ;DHBKLcd2.c: 53: LATA2=0;
  1011                           
  1012                           ; BSR set to: 0
  1013                           ;incstack = 0
  1014  00151E  9489               	bcf	3977,2,c	;volatile
  1015                           
  1016                           ;DHBKLcd2.c: 54: SPI_send(0x40);
  1017  001520  0E40               	movlw	64
  1018  001522  ECD0  F00A         	call	_SPI_send
  1019                           
  1020                           ;DHBKLcd2.c: 55: SPI_send(0x01);
  1021  001526  0E01               	movlw	1
  1022  001528  ECD0  F00A         	call	_SPI_send
  1023                           
  1024                           ;DHBKLcd2.c: 56: SPI_send(0x00);
  1025  00152C  0E00               	movlw	0
  1026  00152E  ECD0  F00A         	call	_SPI_send
  1027                           
  1028                           ;DHBKLcd2.c: 57: LATA2=1;
  1029  001532  8489               	bsf	3977,2,c	;volatile
  1030  001534  0012               	return		;funcret
  1031  001536                     __end_of_SPIportB_init:
  1032                           	opt stack 0
  1033                           tblptru	equ	0xFF8
  1034                           tblptrh	equ	0xFF7
  1035                           tblptrl	equ	0xFF6
  1036                           tablat	equ	0xFF5
  1037                           prodh	equ	0xFF4
  1038                           prodl	equ	0xFF3
  1039                           intcon	equ	0xFF2
  1040                           intcon2	equ	0xFF1
  1041                           wreg	equ	0xFE8
  1042                           status	equ	0xFD8
  1043                           
  1044 ;; *************** function _SPIportA_init *****************
  1045 ;; Defined at:
  1046 ;;		line 43 in file "DHBKLcd2.c"
  1047 ;; Parameters:    Size  Location     Type
  1048 ;;		None
  1049 ;; Auto vars:     Size  Location     Type
  1050 ;;		None
  1051 ;; Return value:  Size  Location     Type
  1052 ;;                  1    wreg      void 
  1053 ;; Registers used:
  1054 ;;		wreg, cstack
  1055 ;; Tracked objects:
  1056 ;;		On entry : 0/0
  1057 ;;		On exit  : 0/0
  1058 ;;		Unchanged: 0/0
  1059 ;; Data sizes:     COMRAM   BANK0   BANK1   BANK2   BANK3   BANK4   BANK5   BANK6   BANK7   BANK8   BANK9  BANK10  BANK1
      +1  BANK12  BANK13  BANK14  BANK15
  1060 ;;      Params:         0       0       0       0       0       0       0       0       0       0       0       0       
      +0       0       0       0       0
  1061 ;;      Locals:         0       0       0       0       0       0       0       0       0       0       0       0       
      +0       0       0       0       0
  1062 ;;      Temps:          0       0       0       0       0       0       0       0       0       0       0       0       
      +0       0       0       0       0
  1063 ;;      Totals:         0       0       0       0       0       0       0       0       0       0       0       0       
      +0       0       0       0       0
  1064 ;;Total ram usage:        0 bytes
  1065 ;; Hardware stack levels used:    1
  1066 ;; Hardware stack levels required when called:   12
  1067 ;; This function calls:
  1068 ;;		_SPI_send
  1069 ;; This function is called by:
  1070 ;;		_lcd_init
  1071 ;; This function uses a non-reentrant model
  1072 ;;
  1073                           
  1074                           	psect	text8
  1075  001536                     __ptext8:
  1076                           	opt stack 0
  1077  001536                     _SPIportA_init:
  1078                           	opt stack 17
  1079                           
  1080                           ;DHBKLcd2.c: 45: LATA2=0;
  1081                           
  1082                           ;incstack = 0
  1083  001536  9489               	bcf	3977,2,c	;volatile
  1084                           
  1085                           ;DHBKLcd2.c: 46: SPI_send(0x40);
  1086  001538  0E40               	movlw	64
  1087  00153A  ECD0  F00A         	call	_SPI_send
  1088                           
  1089                           ;DHBKLcd2.c: 47: SPI_send(0x00);
  1090  00153E  0E00               	movlw	0
  1091  001540  ECD0  F00A         	call	_SPI_send
  1092                           
  1093                           ;DHBKLcd2.c: 48: SPI_send(0x00);
  1094  001544  0E00               	movlw	0
  1095  001546  ECD0  F00A         	call	_SPI_send
  1096                           
  1097                           ;DHBKLcd2.c: 49: LATA2=1;
  1098  00154A  8489               	bsf	3977,2,c	;volatile
  1099  00154C  0012               	return		;funcret
  1100  00154E                     __end_of_SPIportA_init:
  1101                           	opt stack 0
  1102                           tblptru	equ	0xFF8
  1103                           tblptrh	equ	0xFF7
  1104                           tblptrl	equ	0xFF6
  1105                           tablat	equ	0xFF5
  1106                           prodh	equ	0xFF4
  1107                           prodl	equ	0xFF3
  1108                           intcon	equ	0xFF2
  1109                           intcon2	equ	0xFF1
  1110                           wreg	equ	0xFE8
  1111                           status	equ	0xFD8
  1112                           
  1113 ;; *************** function _SPI_init *****************
  1114 ;; Defined at:
  1115 ;;		line 30 in file "DHBKLcd2.c"
  1116 ;; Parameters:    Size  Location     Type
  1117 ;;		None
  1118 ;; Auto vars:     Size  Location     Type
  1119 ;;		None
  1120 ;; Return value:  Size  Location     Type
  1121 ;;                  1    wreg      void 
  1122 ;; Registers used:
  1123 ;;		wreg, status,2
  1124 ;; Tracked objects:
  1125 ;;		On entry : 0/0
  1126 ;;		On exit  : 0/0
  1127 ;;		Unchanged: 0/0
  1128 ;; Data sizes:     COMRAM   BANK0   BANK1   BANK2   BANK3   BANK4   BANK5   BANK6   BANK7   BANK8   BANK9  BANK10  BANK1
      +1  BANK12  BANK13  BANK14  BANK15
  1129 ;;      Params:         0       0       0       0       0       0       0       0       0       0       0       0       
      +0       0       0       0       0
  1130 ;;      Locals:         0       0       0       0       0       0       0       0       0       0       0       0       
      +0       0       0       0       0
  1131 ;;      Temps:          0       0       0       0       0       0       0       0       0       0       0       0       
      +0       0       0       0       0
  1132 ;;      Totals:         0       0       0       0       0       0       0       0       0       0       0       0       
      +0       0       0       0       0
  1133 ;;Total ram usage:        0 bytes
  1134 ;; Hardware stack levels used:    1
  1135 ;; Hardware stack levels required when called:   11
  1136 ;; This function calls:
  1137 ;;		Nothing
  1138 ;; This function is called by:
  1139 ;;		_lcd_init
  1140 ;; This function uses a non-reentrant model
  1141 ;;
  1142                           
  1143                           	psect	text9
  1144  0015E0                     __ptext9:
  1145                           	opt stack 0
  1146  0015E0                     _SPI_init:
  1147                           	opt stack 18
  1148                           
  1149                           ;DHBKLcd2.c: 32: TRISC5=0;TRISC3=0;
  1150                           
  1151                           ;incstack = 0
  1152  0015E0  9A94               	bcf	3988,5,c	;volatile
  1153  0015E2  9694               	bcf	3988,3,c	;volatile
  1154                           
  1155                           ;DHBKLcd2.c: 33: SSP1CON1=0x20;
  1156  0015E4  0E20               	movlw	32
  1157  0015E6  6EC6               	movwf	4038,c	;volatile
  1158                           
  1159                           ;DHBKLcd2.c: 34: CKE1=1; SSP1IF=0;
  1160  0015E8  8CC7               	bsf	4039,6,c	;volatile
  1161  0015EA  969E               	bcf	3998,3,c	;volatile
  1162  0015EC  0012               	return		;funcret
  1163  0015EE                     __end_of_SPI_init:
  1164                           	opt stack 0
  1165                           tblptru	equ	0xFF8
  1166                           tblptrh	equ	0xFF7
  1167                           tblptrl	equ	0xFF6
  1168                           tablat	equ	0xFF5
  1169                           prodh	equ	0xFF4
  1170                           prodl	equ	0xFF3
  1171                           intcon	equ	0xFF2
  1172                           intcon2	equ	0xFF1
  1173                           wreg	equ	0xFE8
  1174                           status	equ	0xFD8
  1175                           
  1176 ;; *************** function _Adc_init *****************
  1177 ;; Defined at:
  1178 ;;		line 33 in file "Adc.c"
  1179 ;; Parameters:    Size  Location     Type
  1180 ;;		None
  1181 ;; Auto vars:     Size  Location     Type
  1182 ;;		None
  1183 ;; Return value:  Size  Location     Type
  1184 ;;                  1    wreg      void 
  1185 ;; Registers used:
  1186 ;;		wreg, status,2
  1187 ;; Tracked objects:
  1188 ;;		On entry : 0/0
  1189 ;;		On exit  : 0/0
  1190 ;;		Unchanged: 0/0
  1191 ;; Data sizes:     COMRAM   BANK0   BANK1   BANK2   BANK3   BANK4   BANK5   BANK6   BANK7   BANK8   BANK9  BANK10  BANK1
      +1  BANK12  BANK13  BANK14  BANK15
  1192 ;;      Params:         0       0       0       0       0       0       0       0       0       0       0       0       
      +0       0       0       0       0
  1193 ;;      Locals:         0       0       0       0       0       0       0       0       0       0       0       0       
      +0       0       0       0       0
  1194 ;;      Temps:          0       0       0       0       0       0       0       0       0       0       0       0       
      +0       0       0       0       0
  1195 ;;      Totals:         0       0       0       0       0       0       0       0       0       0       0       0       
      +0       0       0       0       0
  1196 ;;Total ram usage:        0 bytes
  1197 ;; Hardware stack levels used:    1
  1198 ;; Hardware stack levels required when called:   11
  1199 ;; This function calls:
  1200 ;;		Nothing
  1201 ;; This function is called by:
  1202 ;;		_main
  1203 ;; This function uses a non-reentrant model
  1204 ;;
  1205                           
  1206                           	psect	text10
  1207  001440                     __ptext10:
  1208                           	opt stack 0
  1209  001440                     _Adc_init:
  1210                           	opt stack 19
  1211                           
  1212                           ;Adc.c: 34: adres = 0;
  1213                           
  1214                           ;incstack = 0
  1215  001440  0E00               	movlw	0
  1216  001442  6E45               	movwf	_adres+1,c
  1217  001444  0E00               	movlw	0
  1218  001446  6E44               	movwf	_adres,c
  1219                           
  1220                           ;Adc.c: 35: count = 0;
  1221  001448  0E00               	movlw	0
  1222  00144A  6E43               	movwf	_count+1,c
  1223  00144C  0E00               	movlw	0
  1224  00144E  6E42               	movwf	_count,c
  1225                           
  1226                           ;Adc.c: 36: TRISAbits.RA0 = 1;
  1227  001450  8092               	bsf	3986,0,c	;volatile
  1228                           
  1229                           ;Adc.c: 37: ADCON0 = 0b00000001;
  1230  001452  0E01               	movlw	1
  1231  001454  6EC2               	movwf	4034,c	;volatile
  1232                           
  1233                           ;Adc.c: 38: ADCON1 = 0x0E;
  1234  001456  0E0E               	movlw	14
  1235  001458  6EC1               	movwf	4033,c	;volatile
  1236                           
  1237                           ;Adc.c: 39: ADCON2 = 0b10000001;
  1238  00145A  0E81               	movlw	129
  1239  00145C  6EC0               	movwf	4032,c	;volatile
  1240                           
  1241                           ;Adc.c: 40: RCONbits.IPEN = 1;
  1242  00145E  8ED0               	bsf	4048,7,c	;volatile
  1243                           
  1244                           ;Adc.c: 41: IPR1bits.ADIP = 0;
  1245  001460  9C9F               	bcf	3999,6,c	;volatile
  1246                           
  1247                           ;Adc.c: 42: PIR1bits.ADIF = 0;
  1248  001462  9C9E               	bcf	3998,6,c	;volatile
  1249                           
  1250                           ;Adc.c: 43: PIE1bits.ADIE = 1;
  1251  001464  8C9D               	bsf	3997,6,c	;volatile
  1252                           
  1253                           ;Adc.c: 44: INTCONbits.GIEH = 1;
  1254  001466  8EF2               	bsf	intcon,7,c	;volatile
  1255                           
  1256                           ;Adc.c: 45: INTCONbits.GIEL = 1;
  1257  001468  8CF2               	bsf	intcon,6,c	;volatile
  1258  00146A  0012               	return		;funcret
  1259  00146C                     __end_of_Adc_init:
  1260                           	opt stack 0
  1261                           tblptru	equ	0xFF8
  1262                           tblptrh	equ	0xFF7
  1263                           tblptrl	equ	0xFF6
  1264                           tablat	equ	0xFF5
  1265                           prodh	equ	0xFF4
  1266                           prodl	equ	0xFF3
  1267                           intcon	equ	0xFF2
  1268                           intcon2	equ	0xFF1
  1269                           wreg	equ	0xFE8
  1270                           status	equ	0xFD8
  1271                           
  1272 ;; *************** function _Adc_isr *****************
  1273 ;; Defined at:
  1274 ;;		line 47 in file "Adc.c"
  1275 ;; Parameters:    Size  Location     Type
  1276 ;;		None
  1277 ;; Auto vars:     Size  Location     Type
  1278 ;;		None
  1279 ;; Return value:  Size  Location     Type
  1280 ;;                  1    wreg      void 
  1281 ;; Registers used:
  1282 ;;		wreg, fsr2l, fsr2h, status,2, status,0, tblptrl, tblptrh, tblptru, prodl, prodh, cstack
  1283 ;; Tracked objects:
  1284 ;;		On entry : 0/0
  1285 ;;		On exit  : 0/0
  1286 ;;		Unchanged: 0/0
  1287 ;; Data sizes:     COMRAM   BANK0   BANK1   BANK2   BANK3   BANK4   BANK5   BANK6   BANK7   BANK8   BANK9  BANK10  BANK1
      +1  BANK12  BANK13  BANK14  BANK15
  1288 ;;      Params:         0       0       0       0       0       0       0       0       0       0       0       0       
      +0       0       0       0       0
  1289 ;;      Locals:         0       0       0       0       0       0       0       0       0       0       0       0       
      +0       0       0       0       0
  1290 ;;      Temps:         23       0       0       0       0       0       0       0       0       0       0       0       
      +0       0       0       0       0
  1291 ;;      Totals:        23       0       0       0       0       0       0       0       0       0       0       0       
      +0       0       0       0       0
  1292 ;;Total ram usage:       23 bytes
  1293 ;; Hardware stack levels used:    1
  1294 ;; Hardware stack levels required when called:   10
  1295 ;; This function calls:
  1296 ;;		_Adc_process
  1297 ;; This function is called by:
  1298 ;;		Interrupt level 1
  1299 ;; This function uses a non-reentrant model
  1300 ;;
  1301                           
  1302                           	psect	intcodelo
  1303  000018                     __pintcodelo:
  1304                           	opt stack 0
  1305  000018                     _Adc_isr:
  1306                           	opt stack 12
  1307                           
  1308                           ;incstack = 0
  1309  000018  8046               	bsf	btemp,0,c	;set compiler interrupt flag (level 1)
  1310  00001A  CFD8 F02D          	movff	status,??_Adc_isr+2
  1311  00001E  CFE8 F02E          	movff	wreg,??_Adc_isr+3
  1312  000022  CFE0 F02F          	movff	bsr,??_Adc_isr+4
  1313  000026  CFFA F030          	movff	pclath,??_Adc_isr+5
  1314  00002A  CFFB F031          	movff	pclatu,??_Adc_isr+6
  1315  00002E  CFE9 F032          	movff	fsr0l,??_Adc_isr+7
  1316  000032  CFEA F033          	movff	fsr0h,??_Adc_isr+8
  1317  000036  CFE1 F034          	movff	fsr1l,??_Adc_isr+9
  1318  00003A  CFE2 F035          	movff	fsr1h,??_Adc_isr+10
  1319  00003E  CFD9 F036          	movff	fsr2l,??_Adc_isr+11
  1320  000042  CFDA F037          	movff	fsr2h,??_Adc_isr+12
  1321  000046  CFF3 F038          	movff	prodl,??_Adc_isr+13
  1322  00004A  CFF4 F039          	movff	prodh,??_Adc_isr+14
  1323  00004E  CFF6 F03A          	movff	tblptrl,??_Adc_isr+15
  1324  000052  CFF7 F03B          	movff	tblptrh,??_Adc_isr+16
  1325  000056  CFF8 F03C          	movff	tblptru,??_Adc_isr+17
  1326  00005A  CFF5 F03D          	movff	tablat,??_Adc_isr+18
  1327  00005E  C046  F03E         	movff	btemp,??_Adc_isr+19
  1328  000062  C047  F03F         	movff	btemp+1,??_Adc_isr+20
  1329  000066  C048  F040         	movff	btemp+2,??_Adc_isr+21
  1330  00006A  C049  F041         	movff	btemp+3,??_Adc_isr+22
  1331                           
  1332                           ;Adc.c: 48: if ((PIE1bits.ADIE)&&(PIR1bits.ADIF)){
  1333  00006E  BC9D               	btfsc	3997,6,c	;volatile
  1334  000070  AC9E               	btfss	3998,6,c	;volatile
  1335  000072  D00C               	goto	i1l51
  1336                           
  1337                           ;Adc.c: 49: PIR1bits.ADIF = 0;
  1338  000074  9C9E               	bcf	3998,6,c	;volatile
  1339                           
  1340                           ;Adc.c: 50: adres = ADRESH*256 + ADRESL;
  1341  000076  50C4               	movf	4036,w,c	;volatile
  1342  000078  6E2C               	movwf	(??_Adc_isr+1)& (0+255),c
  1343  00007A  6A2B               	clrf	??_Adc_isr& (0+255),c
  1344  00007C  50C3               	movf	4035,w,c	;volatile
  1345  00007E  242B               	addwf	??_Adc_isr,w,c
  1346  000080  6E44               	movwf	_adres,c
  1347  000082  0E00               	movlw	0
  1348  000084  202C               	addwfc	??_Adc_isr+1,w,c
  1349  000086  6E45               	movwf	_adres+1,c
  1350                           
  1351                           ;Adc.c: 51: Adc_process();
  1352  000088  ECEE  F009         	call	_Adc_process	;wreg free
  1353  00008C                     i1l51:
  1354  00008C  C041  F049         	movff	??_Adc_isr+22,btemp+3
  1355  000090  C040  F048         	movff	??_Adc_isr+21,btemp+2
  1356  000094  C03F  F047         	movff	??_Adc_isr+20,btemp+1
  1357  000098  C03E  F046         	movff	??_Adc_isr+19,btemp
  1358  00009C  C03D  FFF5         	movff	??_Adc_isr+18,tablat
  1359  0000A0  C03C  FFF8         	movff	??_Adc_isr+17,tblptru
  1360  0000A4  C03B  FFF7         	movff	??_Adc_isr+16,tblptrh
  1361  0000A8  C03A  FFF6         	movff	??_Adc_isr+15,tblptrl
  1362  0000AC  C039  FFF4         	movff	??_Adc_isr+14,prodh
  1363  0000B0  C038  FFF3         	movff	??_Adc_isr+13,prodl
  1364  0000B4  C037  FFDA         	movff	??_Adc_isr+12,fsr2h
  1365  0000B8  C036  FFD9         	movff	??_Adc_isr+11,fsr2l
  1366  0000BC  C035  FFE2         	movff	??_Adc_isr+10,fsr1h
  1367  0000C0  C034  FFE1         	movff	??_Adc_isr+9,fsr1l
  1368  0000C4  C033  FFEA         	movff	??_Adc_isr+8,fsr0h
  1369  0000C8  C032  FFE9         	movff	??_Adc_isr+7,fsr0l
  1370  0000CC  C031  FFFB         	movff	??_Adc_isr+6,pclatu
  1371  0000D0  C030  FFFA         	movff	??_Adc_isr+5,pclath
  1372  0000D4  C02F  FFE0         	movff	??_Adc_isr+4,bsr
  1373  0000D8  C02E  FFE8         	movff	??_Adc_isr+3,wreg
  1374  0000DC  C02D  FFD8         	movff	??_Adc_isr+2,status
  1375  0000E0  9046               	bcf	btemp,0,c	;clear compiler interrupt flag (level 1)
  1376  0000E2  0010               	retfie	
  1377  0000E4                     __end_of_Adc_isr:
  1378                           	opt stack 0
  1379                           pclatu	equ	0xFFB
  1380                           pclath	equ	0xFFA
  1381                           tblptru	equ	0xFF8
  1382                           tblptrh	equ	0xFF7
  1383                           tblptrl	equ	0xFF6
  1384                           tablat	equ	0xFF5
  1385                           prodh	equ	0xFF4
  1386                           prodl	equ	0xFF3
  1387                           intcon	equ	0xFF2
  1388                           intcon2	equ	0xFF1
  1389                           fsr0h	equ	0xFEA
  1390                           fsr0l	equ	0xFE9
  1391                           wreg	equ	0xFE8
  1392                           fsr1h	equ	0xFE2
  1393                           fsr1l	equ	0xFE1
  1394                           bsr	equ	0xFE0
  1395                           fsr2h	equ	0xFDA
  1396                           fsr2l	equ	0xFD9
  1397                           status	equ	0xFD8
  1398                           
  1399 ;; *************** function _Adc_process *****************
  1400 ;; Defined at:
  1401 ;;		line 20 in file "Adc.c"
  1402 ;; Parameters:    Size  Location     Type
  1403 ;;		None
  1404 ;; Auto vars:     Size  Location     Type
  1405 ;;		None
  1406 ;; Return value:  Size  Location     Type
  1407 ;;                  1    wreg      void 
  1408 ;; Registers used:
  1409 ;;		wreg, fsr2l, fsr2h, status,2, status,0, tblptrl, tblptrh, tblptru, prodl, prodh, cstack
  1410 ;; Tracked objects:
  1411 ;;		On entry : 0/0
  1412 ;;		On exit  : 0/0
  1413 ;;		Unchanged: 0/0
  1414 ;; Data sizes:     COMRAM   BANK0   BANK1   BANK2   BANK3   BANK4   BANK5   BANK6   BANK7   BANK8   BANK9  BANK10  BANK1
      +1  BANK12  BANK13  BANK14  BANK15
  1415 ;;      Params:         0       0       0       0       0       0       0       0       0       0       0       0       
      +0       0       0       0       0
  1416 ;;      Locals:         0       0       0       0       0       0       0       0       0       0       0       0       
      +0       0       0       0       0
  1417 ;;      Temps:          0       0       0       0       0       0       0       0       0       0       0       0       
      +0       0       0       0       0
  1418 ;;      Totals:         0       0       0       0       0       0       0       0       0       0       0       0       
      +0       0       0       0       0
  1419 ;;Total ram usage:        0 bytes
  1420 ;; Hardware stack levels used:    1
  1421 ;; Hardware stack levels required when called:    9
  1422 ;; This function calls:
  1423 ;;		_lcd_gotoxy
  1424 ;;		_printf
  1425 ;; This function is called by:
  1426 ;;		_Adc_isr
  1427 ;;		_Adc_update
  1428 ;; This function uses a non-reentrant model
  1429 ;;
  1430                           
  1431                           	psect	text12
  1432  0013DC                     __ptext12:
  1433                           	opt stack 0
  1434  0013DC                     _Adc_process:
  1435                           	opt stack 12
  1436                           
  1437                           ;Adc.c: 21: lcd_gotoxy(0,0);
  1438                           
  1439                           ;incstack = 0
  1440  0013DC  0E00               	movlw	0
  1441  0013DE  6E16               	movwf	lcd_gotoxy@col,c
  1442  0013E0  0E00               	movlw	0
  1443  0013E2  ECA7  F00A         	call	_lcd_gotoxy
  1444                           
  1445                           ;Adc.c: 22: printf("AD conversion");
  1446  0013E6  0E4B               	movlw	low STR_1
  1447  0013E8  6E1F               	movwf	printf@f,c
  1448  0013EA  0E10               	movlw	high STR_1
  1449  0013EC  6E20               	movwf	printf@f+1,c
  1450  0013EE  EC30  F008         	call	_printf	;wreg free
  1451                           
  1452                           ;Adc.c: 23: lcd_gotoxy(1,10);
  1453  0013F2  0E0A               	movlw	10
  1454  0013F4  6E16               	movwf	lcd_gotoxy@col,c
  1455  0013F6  0E01               	movlw	1
  1456  0013F8  ECA7  F00A         	call	_lcd_gotoxy
  1457                           
  1458                           ;Adc.c: 24: printf("%d  ",adres);
  1459  0013FC  0E59               	movlw	low STR_2
  1460  0013FE  6E1F               	movwf	printf@f,c
  1461  001400  0E10               	movlw	high STR_2
  1462  001402  6E20               	movwf	printf@f+1,c
  1463  001404  C044  F021         	movff	_adres,?_printf+2
  1464  001408  C045  F022         	movff	_adres+1,?_printf+3
  1465  00140C  EC30  F008         	call	_printf	;wreg free
  1466  001410  0012               	return		;funcret
  1467  001412                     __end_of_Adc_process:
  1468                           	opt stack 0
  1469                           pclatu	equ	0xFFB
  1470                           pclath	equ	0xFFA
  1471                           tblptru	equ	0xFF8
  1472                           tblptrh	equ	0xFF7
  1473                           tblptrl	equ	0xFF6
  1474                           tablat	equ	0xFF5
  1475                           prodh	equ	0xFF4
  1476                           prodl	equ	0xFF3
  1477                           intcon	equ	0xFF2
  1478                           intcon2	equ	0xFF1
  1479                           fsr0h	equ	0xFEA
  1480                           fsr0l	equ	0xFE9
  1481                           wreg	equ	0xFE8
  1482                           fsr1h	equ	0xFE2
  1483                           fsr1l	equ	0xFE1
  1484                           bsr	equ	0xFE0
  1485                           fsr2h	equ	0xFDA
  1486                           fsr2l	equ	0xFD9
  1487                           status	equ	0xFD8
  1488                           
  1489 ;; *************** function _printf *****************
  1490 ;; Defined at:
  1491 ;;		line 464 in file "D:\Apps\MPLab\New folder (2)\sources\common\doprnt.c"
  1492 ;; Parameters:    Size  Location     Type
  1493 ;;  f               2   30[COMRAM] PTR const unsigned char 
  1494 ;;		 -> STR_2(5), STR_1(14), 
  1495 ;; Auto vars:     Size  Location     Type
  1496 ;;  tmpval          4    0        struct .
  1497 ;;  cp              3    0        PTR const unsigned char 
  1498 ;;  val             2   39[COMRAM] unsigned int 
  1499 ;;  ap              2   35[COMRAM] PTR void [1]
  1500 ;;		 -> ?_printf(2), 
  1501 ;;  len             2    0        unsigned int 
  1502 ;;  c               1   41[COMRAM] char 
  1503 ;;  prec            1   38[COMRAM] char 
  1504 ;;  flag            1   37[COMRAM] unsigned char 
  1505 ;; Return value:  Size  Location     Type
  1506 ;;                  2   30[COMRAM] int 
  1507 ;; Registers used:
  1508 ;;		wreg, fsr2l, fsr2h, status,2, status,0, tblptrl, tblptrh, tblptru, prodl, prodh, cstack
  1509 ;; Tracked objects:
  1510 ;;		On entry : 0/0
  1511 ;;		On exit  : 0/0
  1512 ;;		Unchanged: 0/0
  1513 ;; Data sizes:     COMRAM   BANK0   BANK1   BANK2   BANK3   BANK4   BANK5   BANK6   BANK7   BANK8   BANK9  BANK10  BANK1
      +1  BANK12  BANK13  BANK14  BANK15
  1514 ;;      Params:         4       0       0       0       0       0       0       0       0       0       0       0       
      +0       0       0       0       0
  1515 ;;      Locals:         7       0       0       0       0       0       0       0       0       0       0       0       
      +0       0       0       0       0
  1516 ;;      Temps:          1       0       0       0       0       0       0       0       0       0       0       0       
      +0       0       0       0       0
  1517 ;;      Totals:        12       0       0       0       0       0       0       0       0       0       0       0       
      +0       0       0       0       0
  1518 ;;Total ram usage:       12 bytes
  1519 ;; Hardware stack levels used:    1
  1520 ;; Hardware stack levels required when called:    8
  1521 ;; This function calls:
  1522 ;;		___lwdiv
  1523 ;;		___lwmod
  1524 ;;		_putch
  1525 ;; This function is called by:
  1526 ;;		_Adc_process
  1527 ;; This function uses a non-reentrant model
  1528 ;;
  1529                           
  1530                           	psect	text13
  1531  001060                     __ptext13:
  1532                           	opt stack 0
  1533  001060                     _printf:
  1534                           	opt stack 12
  1535                           
  1536                           ;doprnt.c: 466: va_list ap;
  1537                           ;doprnt.c: 499: signed char c;
  1538                           ;doprnt.c: 506: signed char prec;
  1539                           ;doprnt.c: 508: unsigned char flag;
  1540                           ;doprnt.c: 523: union {
  1541                           ;doprnt.c: 524: unsigned long vd;
  1542                           ;doprnt.c: 525: double integ;
  1543                           ;doprnt.c: 526: } tmpval;
  1544                           ;doprnt.c: 528: unsigned int val;
  1545                           ;doprnt.c: 529: unsigned len;
  1546                           ;doprnt.c: 530: const char * cp;
  1547                           ;doprnt.c: 533: *ap = __va_start();
  1548                           
  1549                           ;incstack = 0
  1550  001060  0E21               	movlw	low (?_printf+2)
  1551  001062  6E24               	movwf	printf@ap,c
  1552  001064  0E00               	movlw	high (?_printf+2)
  1553  001066  6E25               	movwf	printf@ap+1,c
  1554                           
  1555                           ;doprnt.c: 536: while(c = *f++) {
  1556  001068  D085               	goto	i1u48_20
  1557  00106A                     
  1558                           ;doprnt.c: 538: if(c != '%')
  1559  00106A  0E25               	movlw	37
  1560  00106C  182A               	xorwf	printf@c,w,c
  1561  00106E  B4D8               	btfsc	status,2,c
  1562  001070  D004               	goto	i1l214
  1563                           
  1564                           ;doprnt.c: 540: {
  1565                           ;doprnt.c: 541: (putch(c) );
  1566  001072  502A               	movf	printf@c,w,c
  1567  001074  ECF7  F00A         	call	_putch
  1568                           
  1569                           ;doprnt.c: 542: continue;
  1570  001078  D07D               	goto	i1u48_20
  1571  00107A                     i1l214:
  1572                           
  1573                           ;doprnt.c: 543: }
  1574                           ;doprnt.c: 548: flag = 0;
  1575  00107A  0E00               	movlw	0
  1576  00107C  6E26               	movwf	printf@flag,c
  1577                           
  1578                           ;doprnt.c: 822: }
  1579                           
  1580                           ;doprnt.c: 813: continue;
  1581                           
  1582                           ;doprnt.c: 802: default:
  1583                           
  1584                           ;doprnt.c: 698: case 'i':
  1585                           ;doprnt.c: 699: break;
  1586                           
  1587                           ;doprnt.c: 697: case 'd':
  1588                           
  1589                           ;doprnt.c: 638: goto alldone;
  1590                           
  1591                           ;doprnt.c: 637: case 0:
  1592                           
  1593                           ;doprnt.c: 635: switch(c = *f++) {
  1594  00107E  C01F  FFF6         	movff	printf@f,tblptrl
  1595  001082  C020  FFF7         	movff	printf@f+1,tblptrh
  1596  001086  4A1F               	infsnz	printf@f,f,c
  1597  001088  2A20               	incf	printf@f+1,f,c
  1598  00108A                     	if	0	;tblptru may be non-zero
  1599  00108A                     	endif
  1600  00108A                     	if	1	;Program memory is > 0xFFFF, there are 3 active tblptr bytes
  1601  00108A  0E00               	movlw	low (__mediumconst shr (0+16))
  1602  00108C  6EF8               	movwf	tblptru,c
  1603  00108E                     	endif
  1604  00108E  0008               	tblrd		*
  1605  001090  CFF5 F02A          	movff	tablat,printf@c
  1606  001094  502A               	movf	printf@c,w,c
  1607                           
  1608                           ; Switch size 1, requested type "space"
  1609                           ; Number of cases is 3, Range of values is 0 to 105
  1610                           ; switch strategies available:
  1611                           ; Name         Instructions Cycles
  1612                           ; simple_byte           10     6 (average)
  1613                           ;	Chosen strategy is simple_byte
  1614  001096  0A00               	xorlw	0	; case 0
  1615  001098  B4D8               	btfsc	status,2,c
  1616  00109A  0012               	return	
  1617  00109C  0A64               	xorlw	100	; case 100
  1618  00109E  B4D8               	btfsc	status,2,c
  1619  0010A0  D003               	goto	i1l220
  1620  0010A2  0A0D               	xorlw	13	; case 105
  1621  0010A4  A4D8               	btfss	status,2,c
  1622  0010A6  D066               	goto	i1u48_20
  1623  0010A8                     i1l220:
  1624                           
  1625                           ;doprnt.c: 1253: {
  1626                           ;doprnt.c: 1259: val = (int)(*(int *)__va_arg((*(int **)ap), (int)0));
  1627  0010A8  C024  FFD9         	movff	printf@ap,fsr2l
  1628  0010AC  C025  FFDA         	movff	printf@ap+1,fsr2h
  1629  0010B0  CFDE F028          	movff	postinc2,printf@val
  1630  0010B4  CFDD F029          	movff	postdec2,printf@val+1
  1631  0010B8  0E02               	movlw	2
  1632  0010BA  2624               	addwf	printf@ap,f,c
  1633  0010BC  0E00               	movlw	0
  1634  0010BE  2225               	addwfc	printf@ap+1,f,c
  1635                           
  1636                           ;doprnt.c: 1261: if((int)val < 0) {
  1637  0010C0  AE29               	btfss	printf@val+1,7,c
  1638  0010C2  D006               	goto	i1l222
  1639                           
  1640                           ;doprnt.c: 1262: flag |= 0x03;
  1641  0010C4  0E03               	movlw	3
  1642  0010C6  1226               	iorwf	printf@flag,f,c
  1643                           
  1644                           ;doprnt.c: 1263: val = -val;
  1645  0010C8  6C28               	negf	printf@val,c
  1646  0010CA  1E29               	comf	printf@val+1,f,c
  1647  0010CC  B0D8               	btfsc	status,0,c
  1648  0010CE  2A29               	incf	printf@val+1,f,c
  1649  0010D0                     i1l222:
  1650                           
  1651                           ;doprnt.c: 1264: }
  1652                           ;doprnt.c: 1266: }
  1653                           ;doprnt.c: 1305: for(c = 1 ; c != sizeof dpowers/sizeof dpowers[0] ; c++)
  1654  0010D0  0E01               	movlw	1
  1655  0010D2  6E2A               	movwf	printf@c,c
  1656  0010D4                     i1l1305:
  1657  0010D4  0E05               	movlw	5
  1658  0010D6  182A               	xorwf	printf@c,w,c
  1659  0010D8  B4D8               	btfsc	status,2,c
  1660  0010DA  D015               	goto	i1u46_20
  1661                           
  1662                           ;doprnt.c: 1306: if(val < dpowers[c])
  1663  0010DC  502A               	movf	printf@c,w,c
  1664  0010DE  0D02               	mullw	2
  1665  0010E0  0E01               	movlw	low _dpowers
  1666  0010E2  24F3               	addwf	prodl,w,c
  1667  0010E4  6EF6               	movwf	tblptrl,c
  1668  0010E6  0E10               	movlw	high _dpowers
  1669  0010E8  20F4               	addwfc	prodh,w,c
  1670  0010EA  6EF7               	movwf	tblptrh,c
  1671  0010EC                     	if	1	;There are 3 active tblptr bytes
  1672  0010EC  6AF8               	clrf	tblptru,c
  1673  0010EE  0E00               	movlw	low (__mediumconst shr (0+16))
  1674  0010F0  22F8               	addwfc	tblptru,f,c
  1675  0010F2                     	endif
  1676  0010F2  0009               	tblrd		*+
  1677  0010F4  50F5               	movf	tablat,w,c
  1678  0010F6  5C28               	subwf	printf@val,w,c
  1679  0010F8  0009               	tblrd		*+
  1680  0010FA  50F5               	movf	tablat,w,c
  1681  0010FC  5829               	subwfb	printf@val+1,w,c
  1682  0010FE  A0D8               	btfss	status,0,c
  1683  001100  D002               	goto	i1u46_20
  1684                           
  1685                           ;doprnt.c: 1307: break;
  1686  001102  2A2A               	incf	printf@c,f,c
  1687  001104  D7E7               	goto	i1l1305
  1688  001106                     i1u46_20:
  1689                           
  1690                           ;doprnt.c: 1422: {
  1691                           ;doprnt.c: 1438: if(flag & 0x03)
  1692  001106  C026  F023         	movff	printf@flag,??_printf
  1693  00110A  0E03               	movlw	3
  1694  00110C  1623               	andwf	??_printf,f,c
  1695  00110E  B4D8               	btfsc	status,2,c
  1696  001110  D003               	goto	i1l226
  1697                           
  1698                           ;doprnt.c: 1439: (putch('-') );
  1699  001112  0E2D               	movlw	45
  1700  001114  ECF7  F00A         	call	_putch
  1701  001118                     i1l226:
  1702                           
  1703                           ;doprnt.c: 1469: }
  1704                           ;doprnt.c: 1472: prec = c;
  1705  001118  C02A  F027         	movff	printf@c,printf@prec
  1706                           
  1707                           ;doprnt.c: 1474: while(prec--) {
  1708  00111C  D027               	goto	i1l227
  1709  00111E                     
  1710                           ;doprnt.c: 1478: {
  1711                           ;doprnt.c: 1489: c = (val / dpowers[prec]) % 10 + '0';
  1712  00111E  5027               	movf	printf@prec,w,c
  1713  001120  0D02               	mullw	2
  1714  001122  0E01               	movlw	low _dpowers
  1715  001124  24F3               	addwf	prodl,w,c
  1716  001126  6EF6               	movwf	tblptrl,c
  1717  001128  0E10               	movlw	high _dpowers
  1718  00112A  20F4               	addwfc	prodh,w,c
  1719  00112C  6EF7               	movwf	tblptrh,c
  1720  00112E                     	if	1	;There are 3 active tblptr bytes
  1721  00112E  6AF8               	clrf	tblptru,c
  1722  001130  0E00               	movlw	low (__mediumconst shr (0+16))
  1723  001132  22F8               	addwfc	tblptru,f,c
  1724  001134                     	endif
  1725  001134  0009               	tblrd		*+
  1726  001136  CFF5 F015          	movff	tablat,___lwdiv@divisor
  1727  00113A  000A               	tblrd		*-
  1728  00113C  CFF5 F016          	movff	tablat,___lwdiv@divisor+1
  1729  001140  C028  F013         	movff	printf@val,___lwdiv@dividend
  1730  001144  C029  F014         	movff	printf@val+1,___lwdiv@dividend+1
  1731  001148  EC55  F009         	call	___lwdiv	;wreg free
  1732  00114C  C013  F01A         	movff	?___lwdiv,___lwmod@dividend
  1733  001150  C014  F01B         	movff	?___lwdiv+1,___lwmod@dividend+1
  1734  001154  0E00               	movlw	0
  1735  001156  6E1D               	movwf	___lwmod@divisor+1,c
  1736  001158  0E0A               	movlw	10
  1737  00115A  6E1C               	movwf	___lwmod@divisor,c
  1738  00115C  ECCD  F009         	call	___lwmod	;wreg free
  1739  001160  501A               	movf	?___lwmod,w,c
  1740  001162  0F30               	addlw	48
  1741  001164  6E2A               	movwf	printf@c,c
  1742                           
  1743                           ;doprnt.c: 1523: }
  1744                           ;doprnt.c: 1524: (putch(c) );
  1745  001166  502A               	movf	printf@c,w,c
  1746  001168  ECF7  F00A         	call	_putch
  1747  00116C                     i1l227:
  1748  00116C  0627               	decf	printf@prec,f,c
  1749  00116E  2827               	incf	printf@prec,w,c
  1750  001170  A4D8               	btfss	status,2,c
  1751  001172  D7D5               	goto	i1l228
  1752  001174                     i1u48_20:
  1753  001174  C01F  FFF6         	movff	printf@f,tblptrl
  1754  001178  C020  FFF7         	movff	printf@f+1,tblptrh
  1755  00117C  4A1F               	infsnz	printf@f,f,c
  1756  00117E  2A20               	incf	printf@f+1,f,c
  1757  001180                     	if	0	;tblptru may be non-zero
  1758  001180                     	endif
  1759  001180                     	if	1	;Program memory is > 0xFFFF, there are 3 active tblptr bytes
  1760  001180  0E00               	movlw	low (__mediumconst shr (0+16))
  1761  001182  6EF8               	movwf	tblptru,c
  1762  001184                     	endif
  1763  001184  0008               	tblrd		*
  1764  001186  CFF5 F02A          	movff	tablat,printf@c
  1765  00118A  502A               	movf	printf@c,w,c
  1766  00118C  B4D8               	btfsc	status,2,c
  1767  00118E  0012               	return	
  1768  001190  D76C               	goto	i1l213
  1769  001192                     __end_of_printf:
  1770                           	opt stack 0
  1771                           pclatu	equ	0xFFB
  1772                           pclath	equ	0xFFA
  1773                           tblptru	equ	0xFF8
  1774                           tblptrh	equ	0xFF7
  1775                           tblptrl	equ	0xFF6
  1776                           tablat	equ	0xFF5
  1777                           prodh	equ	0xFF4
  1778                           prodl	equ	0xFF3
  1779                           intcon	equ	0xFF2
  1780                           intcon2	equ	0xFF1
  1781                           fsr0h	equ	0xFEA
  1782                           fsr0l	equ	0xFE9
  1783                           wreg	equ	0xFE8
  1784                           fsr1h	equ	0xFE2
  1785                           fsr1l	equ	0xFE1
  1786                           bsr	equ	0xFE0
  1787                           postinc2	equ	0xFDE
  1788                           postdec2	equ	0xFDD
  1789                           fsr2h	equ	0xFDA
  1790                           fsr2l	equ	0xFD9
  1791                           status	equ	0xFD8
  1792                           
  1793 ;; *************** function _putch *****************
  1794 ;; Defined at:
  1795 ;;		line 146 in file "DHBKLcd2.c"
  1796 ;; Parameters:    Size  Location     Type
  1797 ;;  c               1    wreg     unsigned char 
  1798 ;; Auto vars:     Size  Location     Type
  1799 ;;  c               1   24[COMRAM] unsigned char 
  1800 ;; Return value:  Size  Location     Type
  1801 ;;                  1    wreg      void 
  1802 ;; Registers used:
  1803 ;;		wreg, status,2, status,0, cstack
  1804 ;; Tracked objects:
  1805 ;;		On entry : 0/0
  1806 ;;		On exit  : 0/0
  1807 ;;		Unchanged: 0/0
  1808 ;; Data sizes:     COMRAM   BANK0   BANK1   BANK2   BANK3   BANK4   BANK5   BANK6   BANK7   BANK8   BANK9  BANK10  BANK1
      +1  BANK12  BANK13  BANK14  BANK15
  1809 ;;      Params:         0       0       0       0       0       0       0       0       0       0       0       0       
      +0       0       0       0       0
  1810 ;;      Locals:         0       0       0       0       0       0       0       0       0       0       0       0       
      +0       0       0       0       0
  1811 ;;      Temps:          0       0       0       0       0       0       0       0       0       0       0       0       
      +0       0       0       0       0
  1812 ;;      Totals:         0       0       0       0       0       0       0       0       0       0       0       0       
      +0       0       0       0       0
  1813 ;;Total ram usage:        0 bytes
  1814 ;; Hardware stack levels used:    1
  1815 ;; Hardware stack levels required when called:   16
  1816 ;; This function calls:
  1817 ;;		_lcd_putc
  1818 ;; This function is called by:
  1819 ;;		_lcd_DHBK
  1820 ;;		_printf
  1821 ;; This function uses a non-reentrant model
  1822 ;;
  1823                           
  1824                           	psect	text14
  1825  0015EE                     __ptext14:
  1826                           	opt stack 0
  1827  0015EE                     _putch:
  1828                           	opt stack 3
  1829                           
  1830                           ;incstack = 0
  1831                           ;putch@c stored from wreg
  1832  0015EE  6E19               	movwf	putch@c,c
  1833  0015F0  5019               	movf	putch@c,w,c
  1834  0015F2  EC09  F00A         	call	_lcd_putc
  1835  0015F6  0012               	return		;funcret
  1836  0015F8                     __end_of_putch:
  1837                           	opt stack 0
  1838                           pclatu	equ	0xFFB
  1839                           pclath	equ	0xFFA
  1840                           tblptru	equ	0xFF8
  1841                           tblptrh	equ	0xFF7
  1842                           tblptrl	equ	0xFF6
  1843                           tablat	equ	0xFF5
  1844                           prodh	equ	0xFF4
  1845                           prodl	equ	0xFF3
  1846                           intcon	equ	0xFF2
  1847                           intcon2	equ	0xFF1
  1848                           fsr0h	equ	0xFEA
  1849                           fsr0l	equ	0xFE9
  1850                           wreg	equ	0xFE8
  1851                           fsr1h	equ	0xFE2
  1852                           fsr1l	equ	0xFE1
  1853                           bsr	equ	0xFE0
  1854                           postinc2	equ	0xFDE
  1855                           postdec2	equ	0xFDD
  1856                           fsr2h	equ	0xFDA
  1857                           fsr2l	equ	0xFD9
  1858                           status	equ	0xFD8
  1859                           
  1860 ;; *************** function _lcd_putc *****************
  1861 ;; Defined at:
  1862 ;;		line 132 in file "DHBKLcd2.c"
  1863 ;; Parameters:    Size  Location     Type
  1864 ;;  c               1    wreg     unsigned char 
  1865 ;; Auto vars:     Size  Location     Type
  1866 ;;  c               1   23[COMRAM] unsigned char 
  1867 ;; Return value:  Size  Location     Type
  1868 ;;                  1    wreg      void 
  1869 ;; Registers used:
  1870 ;;		wreg, status,2, status,0, cstack
  1871 ;; Tracked objects:
  1872 ;;		On entry : 0/0
  1873 ;;		On exit  : 0/0
  1874 ;;		Unchanged: 0/0
  1875 ;; Data sizes:     COMRAM   BANK0   BANK1   BANK2   BANK3   BANK4   BANK5   BANK6   BANK7   BANK8   BANK9  BANK10  BANK1
      +1  BANK12  BANK13  BANK14  BANK15
  1876 ;;      Params:         0       0       0       0       0       0       0       0       0       0       0       0       
      +0       0       0       0       0
  1877 ;;      Locals:         0       0       0       0       0       0       0       0       0       0       0       0       
      +0       0       0       0       0
  1878 ;;      Temps:          0       0       0       0       0       0       0       0       0       0       0       0       
      +0       0       0       0       0
  1879 ;;      Totals:         0       0       0       0       0       0       0       0       0       0       0       0       
      +0       0       0       0       0
  1880 ;;Total ram usage:        0 bytes
  1881 ;; Hardware stack levels used:    1
  1882 ;; Hardware stack levels required when called:   15
  1883 ;; This function calls:
  1884 ;;		_d_write
  1885 ;;		_lcd_cls
  1886 ;;		_lcd_gotoxy
  1887 ;; This function is called by:
  1888 ;;		_putch
  1889 ;;		_lcd_puts
  1890 ;; This function uses a non-reentrant model
  1891 ;;
  1892                           
  1893                           	psect	text15
  1894  001412                     __ptext15:
  1895                           	opt stack 0
  1896  001412                     _lcd_putc:
  1897                           	opt stack 3
  1898                           
  1899                           ;incstack = 0
  1900                           ;lcd_putc@c stored from wreg
  1901  001412  6E18               	movwf	lcd_putc@c,c
  1902                           
  1903                           ;DHBKLcd2.c: 133: switch(c){
  1904  001414  D00D               	goto	i1l150
  1905  001416                     
  1906                           ;DHBKLcd2.c: 135: lcd_cls(); break;
  1907  001416  ECB2  F00A         	call	_lcd_cls	;wreg free
  1908  00141A  0012               	return	
  1909  00141C                     
  1910                           ;DHBKLcd2.c: 137: lcd_gotoxy(1,0); break;
  1911  00141C  0E00               	movlw	0
  1912  00141E  6E16               	movwf	lcd_gotoxy@col,c
  1913  001420  0E01               	movlw	1
  1914  001422  ECA7  F00A         	call	_lcd_gotoxy
  1915  001426  0012               	return	
  1916  001428                     
  1917                           ;DHBKLcd2.c: 139: d_write(c);
  1918  001428  5018               	movf	lcd_putc@c,w,c
  1919  00142A  EC57  F00A         	call	_d_write
  1920                           
  1921                           ;DHBKLcd2.c: 140: }
  1922  00142E  0012               	return	
  1923  001430                     i1l150:
  1924  001430  5018               	movf	lcd_putc@c,w,c
  1925                           
  1926                           ; Switch size 1, requested type "space"
  1927                           ; Number of cases is 2, Range of values is 10 to 12
  1928                           ; switch strategies available:
  1929                           ; Name         Instructions Cycles
  1930                           ; simple_byte            7     4 (average)
  1931                           ;	Chosen strategy is simple_byte
  1932  001432  0A0A               	xorlw	10	; case 10
  1933  001434  B4D8               	btfsc	status,2,c
  1934  001436  D7F2               	goto	i1l153
  1935  001438  0A06               	xorlw	6	; case 12
  1936  00143A  B4D8               	btfsc	status,2,c
  1937  00143C  D7EC               	goto	i1l151
  1938  00143E  D7F4               	goto	i1l154
  1939  001440                     __end_of_lcd_putc:
  1940                           	opt stack 0
  1941                           pclatu	equ	0xFFB
  1942                           pclath	equ	0xFFA
  1943                           tblptru	equ	0xFF8
  1944                           tblptrh	equ	0xFF7
  1945                           tblptrl	equ	0xFF6
  1946                           tablat	equ	0xFF5
  1947                           prodh	equ	0xFF4
  1948                           prodl	equ	0xFF3
  1949                           intcon	equ	0xFF2
  1950                           intcon2	equ	0xFF1
  1951                           fsr0h	equ	0xFEA
  1952                           fsr0l	equ	0xFE9
  1953                           wreg	equ	0xFE8
  1954                           fsr1h	equ	0xFE2
  1955                           fsr1l	equ	0xFE1
  1956                           bsr	equ	0xFE0
  1957                           postinc2	equ	0xFDE
  1958                           postdec2	equ	0xFDD
  1959                           fsr2h	equ	0xFDA
  1960                           fsr2l	equ	0xFD9
  1961                           status	equ	0xFD8
  1962                           
  1963 ;; *************** function _lcd_gotoxy *****************
  1964 ;; Defined at:
  1965 ;;		line 96 in file "DHBKLcd2.c"
  1966 ;; Parameters:    Size  Location     Type
  1967 ;;  row             1    wreg     unsigned char 
  1968 ;;  col             1   21[COMRAM] unsigned char 
  1969 ;; Auto vars:     Size  Location     Type
  1970 ;;  row             1   22[COMRAM] unsigned char 
  1971 ;; Return value:  Size  Location     Type
  1972 ;;                  1    wreg      void 
  1973 ;; Registers used:
  1974 ;;		wreg, status,2, status,0, cstack
  1975 ;; Tracked objects:
  1976 ;;		On entry : 0/0
  1977 ;;		On exit  : 0/0
  1978 ;;		Unchanged: 0/0
  1979 ;; Data sizes:     COMRAM   BANK0   BANK1   BANK2   BANK3   BANK4   BANK5   BANK6   BANK7   BANK8   BANK9  BANK10  BANK1
      +1  BANK12  BANK13  BANK14  BANK15
  1980 ;;      Params:         0       0       0       0       0       0       0       0       0       0       0       0       
      +0       0       0       0       0
  1981 ;;      Locals:         0       0       0       0       0       0       0       0       0       0       0       0       
      +0       0       0       0       0
  1982 ;;      Temps:          0       0       0       0       0       0       0       0       0       0       0       0       
      +0       0       0       0       0
  1983 ;;      Totals:         0       0       0       0       0       0       0       0       0       0       0       0       
      +0       0       0       0       0
  1984 ;;Total ram usage:        0 bytes
  1985 ;; Hardware stack levels used:    1
  1986 ;; Hardware stack levels required when called:   14
  1987 ;; This function calls:
  1988 ;;		_i_write
  1989 ;; This function is called by:
  1990 ;;		_Adc_process
  1991 ;;		_lcd_putc
  1992 ;;		_lcd_DHBK
  1993 ;; This function uses a non-reentrant model
  1994 ;;
  1995                           
  1996                           	psect	text16
  1997  00154E                     __ptext16:
  1998                           	opt stack 0
  1999  00154E                     _lcd_gotoxy:
  2000                           	opt stack 3
  2001                           
  2002                           ;incstack = 0
  2003                           ;lcd_gotoxy@row stored from wreg
  2004  00154E  6E17               	movwf	lcd_gotoxy@row,c
  2005                           
  2006                           ;DHBKLcd2.c: 98: if(row!=0) col+=0x40;
  2007  001550  5017               	movf	lcd_gotoxy@row,w,c
  2008  001552  B4D8               	btfsc	status,2,c
  2009  001554  D002               	goto	i1l135
  2010  001556  0E40               	movlw	64
  2011  001558  2616               	addwf	lcd_gotoxy@col,f,c
  2012  00155A                     i1l135:
  2013                           
  2014                           ;DHBKLcd2.c: 99: i_write((unsigned char)(0x80|col));
  2015  00155A  5016               	movf	lcd_gotoxy@col,w,c
  2016  00155C  0980               	iorlw	128
  2017  00155E  EC47  F00A         	call	_i_write
  2018  001562  0012               	return		;funcret
  2019  001564                     __end_of_lcd_gotoxy:
  2020                           	opt stack 0
  2021                           pclatu	equ	0xFFB
  2022                           pclath	equ	0xFFA
  2023                           tblptru	equ	0xFF8
  2024                           tblptrh	equ	0xFF7
  2025                           tblptrl	equ	0xFF6
  2026                           tablat	equ	0xFF5
  2027                           prodh	equ	0xFF4
  2028                           prodl	equ	0xFF3
  2029                           intcon	equ	0xFF2
  2030                           intcon2	equ	0xFF1
  2031                           fsr0h	equ	0xFEA
  2032                           fsr0l	equ	0xFE9
  2033                           wreg	equ	0xFE8
  2034                           fsr1h	equ	0xFE2
  2035                           fsr1l	equ	0xFE1
  2036                           bsr	equ	0xFE0
  2037                           postinc2	equ	0xFDE
  2038                           postdec2	equ	0xFDD
  2039                           fsr2h	equ	0xFDA
  2040                           fsr2l	equ	0xFD9
  2041                           status	equ	0xFD8
  2042                           
  2043 ;; *************** function _lcd_cls *****************
  2044 ;; Defined at:
  2045 ;;		line 108 in file "DHBKLcd2.c"
  2046 ;; Parameters:    Size  Location     Type
  2047 ;;		None
  2048 ;; Auto vars:     Size  Location     Type
  2049 ;;		None
  2050 ;; Return value:  Size  Location     Type
  2051 ;;                  1    wreg      void 
  2052 ;; Registers used:
  2053 ;;		wreg, status,2, cstack
  2054 ;; Tracked objects:
  2055 ;;		On entry : 0/0
  2056 ;;		On exit  : 0/0
  2057 ;;		Unchanged: 0/0
  2058 ;; Data sizes:     COMRAM   BANK0   BANK1   BANK2   BANK3   BANK4   BANK5   BANK6   BANK7   BANK8   BANK9  BANK10  BANK1
      +1  BANK12  BANK13  BANK14  BANK15
  2059 ;;      Params:         0       0       0       0       0       0       0       0       0       0       0       0       
      +0       0       0       0       0
  2060 ;;      Locals:         0       0       0       0       0       0       0       0       0       0       0       0       
      +0       0       0       0       0
  2061 ;;      Temps:          0       0       0       0       0       0       0       0       0       0       0       0       
      +0       0       0       0       0
  2062 ;;      Totals:         0       0       0       0       0       0       0       0       0       0       0       0       
      +0       0       0       0       0
  2063 ;;Total ram usage:        0 bytes
  2064 ;; Hardware stack levels used:    1
  2065 ;; Hardware stack levels required when called:   14
  2066 ;; This function calls:
  2067 ;;		_i_write
  2068 ;; This function is called by:
  2069 ;;		_lcd_init
  2070 ;;		_lcd_putc
  2071 ;; This function uses a non-reentrant model
  2072 ;;
  2073                           
  2074                           	psect	text17
  2075  001564                     __ptext17:
  2076                           	opt stack 0
  2077  001564                     _lcd_cls:
  2078                           	opt stack 3
  2079                           
  2080                           ;incstack = 0
  2081  001564  0E01               	movlw	1
  2082  001566  EC47  F00A         	call	_i_write
  2083  00156A  0E05               	movlw	5
  2084  00156C  6E16               	movwf	??_lcd_cls& (0+255),c
  2085  00156E  0ED0               	movlw	208
  2086  001570                     i1u63_27:
  2087  001570  2EE8               	decfsz	wreg,f,c
  2088  001572  D7FE               	bra	i1u63_27
  2089  001574  2E16               	decfsz	??_lcd_cls& (0+255),f,c
  2090  001576  D7FC               	bra	i1u63_27
  2091  001578  0012               	return		;funcret
  2092  00157A                     __end_of_lcd_cls:
  2093                           	opt stack 0
  2094                           pclatu	equ	0xFFB
  2095                           pclath	equ	0xFFA
  2096                           tblptru	equ	0xFF8
  2097                           tblptrh	equ	0xFF7
  2098                           tblptrl	equ	0xFF6
  2099                           tablat	equ	0xFF5
  2100                           prodh	equ	0xFF4
  2101                           prodl	equ	0xFF3
  2102                           intcon	equ	0xFF2
  2103                           intcon2	equ	0xFF1
  2104                           fsr0h	equ	0xFEA
  2105                           fsr0l	equ	0xFE9
  2106                           wreg	equ	0xFE8
  2107                           fsr1h	equ	0xFE2
  2108                           fsr1l	equ	0xFE1
  2109                           bsr	equ	0xFE0
  2110                           postinc2	equ	0xFDE
  2111                           postdec2	equ	0xFDD
  2112                           fsr2h	equ	0xFDA
  2113                           fsr2l	equ	0xFD9
  2114                           status	equ	0xFD8
  2115                           
  2116 ;; *************** function _i_write *****************
  2117 ;; Defined at:
  2118 ;;		line 78 in file "DHBKLcd2.c"
  2119 ;; Parameters:    Size  Location     Type
  2120 ;;  d               1    wreg     unsigned char 
  2121 ;; Auto vars:     Size  Location     Type
  2122 ;;  d               1   20[COMRAM] unsigned char 
  2123 ;; Return value:  Size  Location     Type
  2124 ;;                  1    wreg      void 
  2125 ;; Registers used:
  2126 ;;		wreg, status,2, cstack
  2127 ;; Tracked objects:
  2128 ;;		On entry : 0/0
  2129 ;;		On exit  : 0/0
  2130 ;;		Unchanged: 0/0
  2131 ;; Data sizes:     COMRAM   BANK0   BANK1   BANK2   BANK3   BANK4   BANK5   BANK6   BANK7   BANK8   BANK9  BANK10  BANK1
      +1  BANK12  BANK13  BANK14  BANK15
  2132 ;;      Params:         0       0       0       0       0       0       0       0       0       0       0       0       
      +0       0       0       0       0
  2133 ;;      Locals:         0       0       0       0       0       0       0       0       0       0       0       0       
      +0       0       0       0       0
  2134 ;;      Temps:          0       0       0       0       0       0       0       0       0       0       0       0       
      +0       0       0       0       0
  2135 ;;      Totals:         0       0       0       0       0       0       0       0       0       0       0       0       
      +0       0       0       0       0
  2136 ;;Total ram usage:        0 bytes
  2137 ;; Hardware stack levels used:    1
  2138 ;; Hardware stack levels required when called:   13
  2139 ;; This function calls:
  2140 ;;		_LCDBusy
  2141 ;;		_Write_PortA
  2142 ;;		_Write_PortB
  2143 ;; This function is called by:
  2144 ;;		_lcd_gotoxy
  2145 ;;		_lcd_download
  2146 ;;		_lcd_cls
  2147 ;;		_lcd_init
  2148 ;;		_lcd_put_byte
  2149 ;; This function uses a non-reentrant model
  2150 ;;
  2151                           
  2152                           	psect	text18
  2153  00148E                     __ptext18:
  2154                           	opt stack 0
  2155  00148E                     _i_write:
  2156                           	opt stack 3
  2157                           
  2158                           ;incstack = 0
  2159                           ;i_write@d stored from wreg
  2160  00148E  6E15               	movwf	i_write@d,c
  2161  001490  0E00               	movlw	0
  2162  001492  EC82  F00A         	call	_Write_PortA
  2163                           
  2164                           ;DHBKLcd2.c: 80: Write_PortB(d);
  2165  001496  5015               	movf	i_write@d,w,c
  2166  001498  EC75  F00A         	call	_Write_PortB
  2167                           
  2168                           ;DHBKLcd2.c: 81: Write_PortA(0b01000000);
  2169  00149C  0E40               	movlw	64
  2170  00149E  EC82  F00A         	call	_Write_PortA
  2171                           
  2172                           ;DHBKLcd2.c: 82: Write_PortA(0b00000000);
  2173  0014A2  0E00               	movlw	0
  2174  0014A4  EC82  F00A         	call	_Write_PortA
  2175                           
  2176                           ;DHBKLcd2.c: 83: LCDBusy();
  2177  0014A8  ECFC  F00A         	call	_LCDBusy	;wreg free
  2178  0014AC  0012               	return		;funcret
  2179  0014AE                     __end_of_i_write:
  2180                           	opt stack 0
  2181                           pclatu	equ	0xFFB
  2182                           pclath	equ	0xFFA
  2183                           tblptru	equ	0xFF8
  2184                           tblptrh	equ	0xFF7
  2185                           tblptrl	equ	0xFF6
  2186                           tablat	equ	0xFF5
  2187                           prodh	equ	0xFF4
  2188                           prodl	equ	0xFF3
  2189                           intcon	equ	0xFF2
  2190                           intcon2	equ	0xFF1
  2191                           fsr0h	equ	0xFEA
  2192                           fsr0l	equ	0xFE9
  2193                           wreg	equ	0xFE8
  2194                           fsr1h	equ	0xFE2
  2195                           fsr1l	equ	0xFE1
  2196                           bsr	equ	0xFE0
  2197                           postinc2	equ	0xFDE
  2198                           postdec2	equ	0xFDD
  2199                           fsr2h	equ	0xFDA
  2200                           fsr2l	equ	0xFD9
  2201                           status	equ	0xFD8
  2202                           
  2203 ;; *************** function _d_write *****************
  2204 ;; Defined at:
  2205 ;;		line 86 in file "DHBKLcd2.c"
  2206 ;; Parameters:    Size  Location     Type
  2207 ;;  d               1    wreg     unsigned char 
  2208 ;; Auto vars:     Size  Location     Type
  2209 ;;  d               1   20[COMRAM] unsigned char 
  2210 ;; Return value:  Size  Location     Type
  2211 ;;                  1    wreg      void 
  2212 ;; Registers used:
  2213 ;;		wreg, status,2, cstack
  2214 ;; Tracked objects:
  2215 ;;		On entry : 0/0
  2216 ;;		On exit  : 0/0
  2217 ;;		Unchanged: 0/0
  2218 ;; Data sizes:     COMRAM   BANK0   BANK1   BANK2   BANK3   BANK4   BANK5   BANK6   BANK7   BANK8   BANK9  BANK10  BANK1
      +1  BANK12  BANK13  BANK14  BANK15
  2219 ;;      Params:         0       0       0       0       0       0       0       0       0       0       0       0       
      +0       0       0       0       0
  2220 ;;      Locals:         0       0       0       0       0       0       0       0       0       0       0       0       
      +0       0       0       0       0
  2221 ;;      Temps:          0       0       0       0       0       0       0       0       0       0       0       0       
      +0       0       0       0       0
  2222 ;;      Totals:         0       0       0       0       0       0       0       0       0       0       0       0       
      +0       0       0       0       0
  2223 ;;Total ram usage:        0 bytes
  2224 ;; Hardware stack levels used:    1
  2225 ;; Hardware stack levels required when called:   13
  2226 ;; This function calls:
  2227 ;;		_LCDBusy
  2228 ;;		_Write_PortA
  2229 ;;		_Write_PortB
  2230 ;; This function is called by:
  2231 ;;		_lcd_download
  2232 ;;		_lcd_putc
  2233 ;;		_lcd_put_byte
  2234 ;; This function uses a non-reentrant model
  2235 ;;
  2236                           
  2237                           	psect	text19
  2238  0014AE                     __ptext19:
  2239                           	opt stack 0
  2240  0014AE                     _d_write:
  2241                           	opt stack 4
  2242                           
  2243                           ;incstack = 0
  2244                           ;d_write@d stored from wreg
  2245  0014AE  6E15               	movwf	d_write@d,c
  2246  0014B0  0E80               	movlw	128
  2247  0014B2  EC82  F00A         	call	_Write_PortA
  2248                           
  2249                           ;DHBKLcd2.c: 88: Write_PortB(d);
  2250  0014B6  5015               	movf	d_write@d,w,c
  2251  0014B8  EC75  F00A         	call	_Write_PortB
  2252                           
  2253                           ;DHBKLcd2.c: 89: Write_PortA(0b11000000);
  2254  0014BC  0EC0               	movlw	192
  2255  0014BE  EC82  F00A         	call	_Write_PortA
  2256                           
  2257                           ;DHBKLcd2.c: 90: Write_PortA(0b00000000);
  2258  0014C2  0E00               	movlw	0
  2259  0014C4  EC82  F00A         	call	_Write_PortA
  2260                           
  2261                           ;DHBKLcd2.c: 91: LCDBusy();
  2262  0014C8  ECFC  F00A         	call	_LCDBusy	;wreg free
  2263  0014CC  0012               	return		;funcret
  2264  0014CE                     __end_of_d_write:
  2265                           	opt stack 0
  2266                           pclatu	equ	0xFFB
  2267                           pclath	equ	0xFFA
  2268                           tblptru	equ	0xFF8
  2269                           tblptrh	equ	0xFF7
  2270                           tblptrl	equ	0xFF6
  2271                           tablat	equ	0xFF5
  2272                           prodh	equ	0xFF4
  2273                           prodl	equ	0xFF3
  2274                           intcon	equ	0xFF2
  2275                           intcon2	equ	0xFF1
  2276                           fsr0h	equ	0xFEA
  2277                           fsr0l	equ	0xFE9
  2278                           wreg	equ	0xFE8
  2279                           fsr1h	equ	0xFE2
  2280                           fsr1l	equ	0xFE1
  2281                           bsr	equ	0xFE0
  2282                           postinc2	equ	0xFDE
  2283                           postdec2	equ	0xFDD
  2284                           fsr2h	equ	0xFDA
  2285                           fsr2l	equ	0xFD9
  2286                           status	equ	0xFD8
  2287                           
  2288 ;; *************** function _Write_PortB *****************
  2289 ;; Defined at:
  2290 ;;		line 60 in file "DHBKLcd2.c"
  2291 ;; Parameters:    Size  Location     Type
  2292 ;;  d               1    wreg     unsigned char 
  2293 ;; Auto vars:     Size  Location     Type
  2294 ;;  d               1   19[COMRAM] unsigned char 
  2295 ;; Return value:  Size  Location     Type
  2296 ;;                  1    wreg      void 
  2297 ;; Registers used:
  2298 ;;		wreg, status,2, cstack
  2299 ;; Tracked objects:
  2300 ;;		On entry : 0/0
  2301 ;;		On exit  : 0/0
  2302 ;;		Unchanged: 0/0
  2303 ;; Data sizes:     COMRAM   BANK0   BANK1   BANK2   BANK3   BANK4   BANK5   BANK6   BANK7   BANK8   BANK9  BANK10  BANK1
      +1  BANK12  BANK13  BANK14  BANK15
  2304 ;;      Params:         0       0       0       0       0       0       0       0       0       0       0       0       
      +0       0       0       0       0
  2305 ;;      Locals:         0       0       0       0       0       0       0       0       0       0       0       0       
      +0       0       0       0       0
  2306 ;;      Temps:          0       0       0       0       0       0       0       0       0       0       0       0       
      +0       0       0       0       0
  2307 ;;      Totals:         0       0       0       0       0       0       0       0       0       0       0       0       
      +0       0       0       0       0
  2308 ;;Total ram usage:        0 bytes
  2309 ;; Hardware stack levels used:    1
  2310 ;; Hardware stack levels required when called:   12
  2311 ;; This function calls:
  2312 ;;		_SPI_send
  2313 ;; This function is called by:
  2314 ;;		_i_write
  2315 ;;		_d_write
  2316 ;; This function uses a non-reentrant model
  2317 ;;
  2318                           
  2319                           	psect	text20
  2320  0014EA                     __ptext20:
  2321                           	opt stack 0
  2322  0014EA                     _Write_PortB:
  2323                           	opt stack 3
  2324                           
  2325                           ;incstack = 0
  2326                           ;Write_PortB@d stored from wreg
  2327  0014EA  6E14               	movwf	Write_PortB@d,c
  2328                           
  2329                           ;DHBKLcd2.c: 62: LATA2=0;
  2330  0014EC  9489               	bcf	3977,2,c	;volatile
  2331                           
  2332                           ;DHBKLcd2.c: 63: SPI_send(0x40);
  2333  0014EE  0E40               	movlw	64
  2334  0014F0  ECD0  F00A         	call	_SPI_send
  2335                           
  2336                           ;DHBKLcd2.c: 64: SPI_send(0x13);
  2337  0014F4  0E13               	movlw	19
  2338  0014F6  ECD0  F00A         	call	_SPI_send
  2339                           
  2340                           ;DHBKLcd2.c: 65: SPI_send(d);
  2341  0014FA  5014               	movf	Write_PortB@d,w,c
  2342  0014FC  ECD0  F00A         	call	_SPI_send
  2343                           
  2344                           ;DHBKLcd2.c: 66: LATA2=1;
  2345  001500  8489               	bsf	3977,2,c	;volatile
  2346  001502  0012               	return		;funcret
  2347  001504                     __end_of_Write_PortB:
  2348                           	opt stack 0
  2349                           pclatu	equ	0xFFB
  2350                           pclath	equ	0xFFA
  2351                           tblptru	equ	0xFF8
  2352                           tblptrh	equ	0xFF7
  2353                           tblptrl	equ	0xFF6
  2354                           tablat	equ	0xFF5
  2355                           prodh	equ	0xFF4
  2356                           prodl	equ	0xFF3
  2357                           intcon	equ	0xFF2
  2358                           intcon2	equ	0xFF1
  2359                           fsr0h	equ	0xFEA
  2360                           fsr0l	equ	0xFE9
  2361                           wreg	equ	0xFE8
  2362                           fsr1h	equ	0xFE2
  2363                           fsr1l	equ	0xFE1
  2364                           bsr	equ	0xFE0
  2365                           postinc2	equ	0xFDE
  2366                           postdec2	equ	0xFDD
  2367                           fsr2h	equ	0xFDA
  2368                           fsr2l	equ	0xFD9
  2369                           status	equ	0xFD8
  2370                           
  2371 ;; *************** function _Write_PortA *****************
  2372 ;; Defined at:
  2373 ;;		line 69 in file "DHBKLcd2.c"
  2374 ;; Parameters:    Size  Location     Type
  2375 ;;  mask            1    wreg     unsigned char 
  2376 ;; Auto vars:     Size  Location     Type
  2377 ;;  mask            1   19[COMRAM] unsigned char 
  2378 ;; Return value:  Size  Location     Type
  2379 ;;                  1    wreg      void 
  2380 ;; Registers used:
  2381 ;;		wreg, status,2, cstack
  2382 ;; Tracked objects:
  2383 ;;		On entry : 0/0
  2384 ;;		On exit  : 0/0
  2385 ;;		Unchanged: 0/0
  2386 ;; Data sizes:     COMRAM   BANK0   BANK1   BANK2   BANK3   BANK4   BANK5   BANK6   BANK7   BANK8   BANK9  BANK10  BANK1
      +1  BANK12  BANK13  BANK14  BANK15
  2387 ;;      Params:         0       0       0       0       0       0       0       0       0       0       0       0       
      +0       0       0       0       0
  2388 ;;      Locals:         0       0       0       0       0       0       0       0       0       0       0       0       
      +0       0       0       0       0
  2389 ;;      Temps:          0       0       0       0       0       0       0       0       0       0       0       0       
      +0       0       0       0       0
  2390 ;;      Totals:         0       0       0       0       0       0       0       0       0       0       0       0       
      +0       0       0       0       0
  2391 ;;Total ram usage:        0 bytes
  2392 ;; Hardware stack levels used:    1
  2393 ;; Hardware stack levels required when called:   12
  2394 ;; This function calls:
  2395 ;;		_SPI_send
  2396 ;; This function is called by:
  2397 ;;		_i_write
  2398 ;;		_d_write
  2399 ;; This function uses a non-reentrant model
  2400 ;;
  2401                           
  2402                           	psect	text21
  2403  001504                     __ptext21:
  2404                           	opt stack 0
  2405  001504                     _Write_PortA:
  2406                           	opt stack 3
  2407                           
  2408                           ;incstack = 0
  2409                           ;Write_PortA@mask stored from wreg
  2410  001504  6E14               	movwf	Write_PortA@mask,c
  2411                           
  2412                           ;DHBKLcd2.c: 71: LATA2=0;
  2413  001506  9489               	bcf	3977,2,c	;volatile
  2414                           
  2415                           ;DHBKLcd2.c: 72: SPI_send(0x40);
  2416  001508  0E40               	movlw	64
  2417  00150A  ECD0  F00A         	call	_SPI_send
  2418                           
  2419                           ;DHBKLcd2.c: 73: SPI_send(0x12);
  2420  00150E  0E12               	movlw	18
  2421  001510  ECD0  F00A         	call	_SPI_send
  2422                           
  2423                           ;DHBKLcd2.c: 74: SPI_send(mask);
  2424  001514  5014               	movf	Write_PortA@mask,w,c
  2425  001516  ECD0  F00A         	call	_SPI_send
  2426                           
  2427                           ;DHBKLcd2.c: 75: LATA2=1;
  2428  00151A  8489               	bsf	3977,2,c	;volatile
  2429  00151C  0012               	return		;funcret
  2430  00151E                     __end_of_Write_PortA:
  2431                           	opt stack 0
  2432                           pclatu	equ	0xFFB
  2433                           pclath	equ	0xFFA
  2434                           tblptru	equ	0xFF8
  2435                           tblptrh	equ	0xFF7
  2436                           tblptrl	equ	0xFF6
  2437                           tablat	equ	0xFF5
  2438                           prodh	equ	0xFF4
  2439                           prodl	equ	0xFF3
  2440                           intcon	equ	0xFF2
  2441                           intcon2	equ	0xFF1
  2442                           fsr0h	equ	0xFEA
  2443                           fsr0l	equ	0xFE9
  2444                           wreg	equ	0xFE8
  2445                           fsr1h	equ	0xFE2
  2446                           fsr1l	equ	0xFE1
  2447                           bsr	equ	0xFE0
  2448                           postinc2	equ	0xFDE
  2449                           postdec2	equ	0xFDD
  2450                           fsr2h	equ	0xFDA
  2451                           fsr2l	equ	0xFD9
  2452                           status	equ	0xFD8
  2453                           
  2454 ;; *************** function _SPI_send *****************
  2455 ;; Defined at:
  2456 ;;		line 37 in file "DHBKLcd2.c"
  2457 ;; Parameters:    Size  Location     Type
  2458 ;;  c               1    wreg     unsigned char 
  2459 ;; Auto vars:     Size  Location     Type
  2460 ;;  c               1   18[COMRAM] unsigned char 
  2461 ;; Return value:  Size  Location     Type
  2462 ;;                  1    wreg      void 
  2463 ;; Registers used:
  2464 ;;		wreg
  2465 ;; Tracked objects:
  2466 ;;		On entry : 0/0
  2467 ;;		On exit  : 0/0
  2468 ;;		Unchanged: 0/0
  2469 ;; Data sizes:     COMRAM   BANK0   BANK1   BANK2   BANK3   BANK4   BANK5   BANK6   BANK7   BANK8   BANK9  BANK10  BANK1
      +1  BANK12  BANK13  BANK14  BANK15
  2470 ;;      Params:         0       0       0       0       0       0       0       0       0       0       0       0       
      +0       0       0       0       0
  2471 ;;      Locals:         0       0       0       0       0       0       0       0       0       0       0       0       
      +0       0       0       0       0
  2472 ;;      Temps:          0       0       0       0       0       0       0       0       0       0       0       0       
      +0       0       0       0       0
  2473 ;;      Totals:         0       0       0       0       0       0       0       0       0       0       0       0       
      +0       0       0       0       0
  2474 ;;Total ram usage:        0 bytes
  2475 ;; Hardware stack levels used:    1
  2476 ;; Hardware stack levels required when called:   11
  2477 ;; This function calls:
  2478 ;;		Nothing
  2479 ;; This function is called by:
  2480 ;;		_SPIportA_init
  2481 ;;		_SPIportB_init
  2482 ;;		_Write_PortB
  2483 ;;		_Write_PortA
  2484 ;; This function uses a non-reentrant model
  2485 ;;
  2486                           
  2487                           	psect	text22
  2488  0015A0                     __ptext22:
  2489                           	opt stack 0
  2490  0015A0                     _SPI_send:
  2491                           	opt stack 3
  2492                           
  2493                           ;incstack = 0
  2494                           ;SPI_send@c stored from wreg
  2495  0015A0  6E13               	movwf	SPI_send@c,c
  2496  0015A2  C013  FFC9         	movff	SPI_send@c,4041	;volatile
  2497  0015A6  A69E               	btfss	3998,3,c	;volatile
  2498  0015A8  D7FE               	goto	i1l107
  2499                           
  2500                           ;DHBKLcd2.c: 40: SSP1IF=0;
  2501  0015AA  969E               	bcf	3998,3,c	;volatile
  2502                           
  2503                           ;DHBKLcd2.c: 41: c=SSP1BUF;
  2504  0015AC  CFC9 F013          	movff	4041,SPI_send@c	;volatile
  2505  0015B0  0012               	return		;funcret
  2506  0015B2                     __end_of_SPI_send:
  2507                           	opt stack 0
  2508                           pclatu	equ	0xFFB
  2509                           pclath	equ	0xFFA
  2510                           tblptru	equ	0xFF8
  2511                           tblptrh	equ	0xFF7
  2512                           tblptrl	equ	0xFF6
  2513                           tablat	equ	0xFF5
  2514                           prodh	equ	0xFF4
  2515                           prodl	equ	0xFF3
  2516                           intcon	equ	0xFF2
  2517                           intcon2	equ	0xFF1
  2518                           fsr0h	equ	0xFEA
  2519                           fsr0l	equ	0xFE9
  2520                           wreg	equ	0xFE8
  2521                           fsr1h	equ	0xFE2
  2522                           fsr1l	equ	0xFE1
  2523                           bsr	equ	0xFE0
  2524                           postinc2	equ	0xFDE
  2525                           postdec2	equ	0xFDD
  2526                           fsr2h	equ	0xFDA
  2527                           fsr2l	equ	0xFD9
  2528                           status	equ	0xFD8
  2529                           
  2530 ;; *************** function _LCDBusy *****************
  2531 ;; Defined at:
  2532 ;;		line 28 in file "DHBKLcd2.c"
  2533 ;; Parameters:    Size  Location     Type
  2534 ;;		None
  2535 ;; Auto vars:     Size  Location     Type
  2536 ;;		None
  2537 ;; Return value:  Size  Location     Type
  2538 ;;                  1    wreg      void 
  2539 ;; Registers used:
  2540 ;;		wreg
  2541 ;; Tracked objects:
  2542 ;;		On entry : 0/0
  2543 ;;		On exit  : 0/0
  2544 ;;		Unchanged: 0/0
  2545 ;; Data sizes:     COMRAM   BANK0   BANK1   BANK2   BANK3   BANK4   BANK5   BANK6   BANK7   BANK8   BANK9  BANK10  BANK1
      +1  BANK12  BANK13  BANK14  BANK15
  2546 ;;      Params:         0       0       0       0       0       0       0       0       0       0       0       0       
      +0       0       0       0       0
  2547 ;;      Locals:         0       0       0       0       0       0       0       0       0       0       0       0       
      +0       0       0       0       0
  2548 ;;      Temps:          0       0       0       0       0       0       0       0       0       0       0       0       
      +0       0       0       0       0
  2549 ;;      Totals:         0       0       0       0       0       0       0       0       0       0       0       0       
      +0       0       0       0       0
  2550 ;;Total ram usage:        0 bytes
  2551 ;; Hardware stack levels used:    1
  2552 ;; Hardware stack levels required when called:   11
  2553 ;; This function calls:
  2554 ;;		Nothing
  2555 ;; This function is called by:
  2556 ;;		_i_write
  2557 ;;		_d_write
  2558 ;; This function uses a non-reentrant model
  2559 ;;
  2560                           
  2561                           	psect	text23
  2562  0015F8                     __ptext23:
  2563                           	opt stack 0
  2564  0015F8                     _LCDBusy:
  2565                           	opt stack 4
  2566                           
  2567                           ;incstack = 0
  2568  0015F8  0E1F               	movlw	31
  2569  0015FA                     i1u64_27:
  2570  0015FA  2EE8               	decfsz	wreg,f,c
  2571  0015FC  D7FE               	bra	i1u64_27
  2572  0015FE  D000               	nop2	
  2573  001600  0012               	return		;funcret
  2574  001602                     __end_of_LCDBusy:
  2575                           	opt stack 0
  2576                           pclatu	equ	0xFFB
  2577                           pclath	equ	0xFFA
  2578                           tblptru	equ	0xFF8
  2579                           tblptrh	equ	0xFF7
  2580                           tblptrl	equ	0xFF6
  2581                           tablat	equ	0xFF5
  2582                           prodh	equ	0xFF4
  2583                           prodl	equ	0xFF3
  2584                           intcon	equ	0xFF2
  2585                           intcon2	equ	0xFF1
  2586                           fsr0h	equ	0xFEA
  2587                           fsr0l	equ	0xFE9
  2588                           wreg	equ	0xFE8
  2589                           fsr1h	equ	0xFE2
  2590                           fsr1l	equ	0xFE1
  2591                           bsr	equ	0xFE0
  2592                           postinc2	equ	0xFDE
  2593                           postdec2	equ	0xFDD
  2594                           fsr2h	equ	0xFDA
  2595                           fsr2l	equ	0xFD9
  2596                           status	equ	0xFD8
  2597                           
  2598 ;; *************** function ___lwmod *****************
  2599 ;; Defined at:
  2600 ;;		line 8 in file "D:\Apps\MPLab\New folder (2)\sources\common\lwmod.c"
  2601 ;; Parameters:    Size  Location     Type
  2602 ;;  dividend        2   25[COMRAM] unsigned int 
  2603 ;;  divisor         2   27[COMRAM] unsigned int 
  2604 ;; Auto vars:     Size  Location     Type
  2605 ;;  counter         1   29[COMRAM] unsigned char 
  2606 ;; Return value:  Size  Location     Type
  2607 ;;                  2   25[COMRAM] unsigned int 
  2608 ;; Registers used:
  2609 ;;		wreg, status,2, status,0
  2610 ;; Tracked objects:
  2611 ;;		On entry : 0/0
  2612 ;;		On exit  : 0/0
  2613 ;;		Unchanged: 0/0
  2614 ;; Data sizes:     COMRAM   BANK0   BANK1   BANK2   BANK3   BANK4   BANK5   BANK6   BANK7   BANK8   BANK9  BANK10  BANK1
      +1  BANK12  BANK13  BANK14  BANK15
  2615 ;;      Params:         4       0       0       0       0       0       0       0       0       0       0       0       
      +0       0       0       0       0
  2616 ;;      Locals:         1       0       0       0       0       0       0       0       0       0       0       0       
      +0       0       0       0       0
  2617 ;;      Temps:          0       0       0       0       0       0       0       0       0       0       0       0       
      +0       0       0       0       0
  2618 ;;      Totals:         5       0       0       0       0       0       0       0       0       0       0       0       
      +0       0       0       0       0
  2619 ;;Total ram usage:        5 bytes
  2620 ;; Hardware stack levels used:    1
  2621 ;; Hardware stack levels required when called:    2
  2622 ;; This function calls:
  2623 ;;		Nothing
  2624 ;; This function is called by:
  2625 ;;		_printf
  2626 ;; This function uses a non-reentrant model
  2627 ;;
  2628                           
  2629                           	psect	text24
  2630  00139A                     __ptext24:
  2631                           	opt stack 0
  2632  00139A                     ___lwmod:
  2633                           	opt stack 17
  2634                           
  2635                           ;incstack = 0
  2636  00139A  501C               	movf	___lwmod@divisor,w,c
  2637  00139C  101D               	iorwf	___lwmod@divisor+1,w,c
  2638  00139E  B4D8               	btfsc	status,2,c
  2639  0013A0  D018               	goto	i1l650
  2640  0013A2  0E01               	movlw	1
  2641  0013A4  6E1E               	movwf	___lwmod@counter,c
  2642  0013A6  D004               	goto	i1l645
  2643  0013A8  90D8               	bcf	status,0,c
  2644  0013AA  361C               	rlcf	___lwmod@divisor,f,c
  2645  0013AC  361D               	rlcf	___lwmod@divisor+1,f,c
  2646  0013AE  2A1E               	incf	___lwmod@counter,f,c
  2647  0013B0                     i1l645:
  2648  0013B0  AE1D               	btfss	___lwmod@divisor+1,7,c
  2649  0013B2  D7FA               	goto	i1l646
  2650  0013B4                     i1u40_20:
  2651  0013B4  501C               	movf	___lwmod@divisor,w,c
  2652  0013B6  5C1A               	subwf	___lwmod@dividend,w,c
  2653  0013B8  501D               	movf	___lwmod@divisor+1,w,c
  2654  0013BA  581B               	subwfb	___lwmod@dividend+1,w,c
  2655  0013BC  A0D8               	btfss	status,0,c
  2656  0013BE  D004               	goto	i1l649
  2657  0013C0  501C               	movf	___lwmod@divisor,w,c
  2658  0013C2  5E1A               	subwf	___lwmod@dividend,f,c
  2659  0013C4  501D               	movf	___lwmod@divisor+1,w,c
  2660  0013C6  5A1B               	subwfb	___lwmod@dividend+1,f,c
  2661  0013C8                     i1l649:
  2662  0013C8  90D8               	bcf	status,0,c
  2663  0013CA  321D               	rrcf	___lwmod@divisor+1,f,c
  2664  0013CC  321C               	rrcf	___lwmod@divisor,f,c
  2665  0013CE  2E1E               	decfsz	___lwmod@counter,f,c
  2666  0013D0  D7F1               	goto	i1u40_20
  2667  0013D2                     i1l650:
  2668  0013D2  C01A  F01A         	movff	___lwmod@dividend,?___lwmod
  2669  0013D6  C01B  F01B         	movff	___lwmod@dividend+1,?___lwmod+1
  2670  0013DA  0012               	return		;funcret
  2671  0013DC                     __end_of___lwmod:
  2672                           	opt stack 0
  2673                           pclatu	equ	0xFFB
  2674                           pclath	equ	0xFFA
  2675                           tblptru	equ	0xFF8
  2676                           tblptrh	equ	0xFF7
  2677                           tblptrl	equ	0xFF6
  2678                           tablat	equ	0xFF5
  2679                           prodh	equ	0xFF4
  2680                           prodl	equ	0xFF3
  2681                           intcon	equ	0xFF2
  2682                           intcon2	equ	0xFF1
  2683                           fsr0h	equ	0xFEA
  2684                           fsr0l	equ	0xFE9
  2685                           wreg	equ	0xFE8
  2686                           fsr1h	equ	0xFE2
  2687                           fsr1l	equ	0xFE1
  2688                           bsr	equ	0xFE0
  2689                           postinc2	equ	0xFDE
  2690                           postdec2	equ	0xFDD
  2691                           fsr2h	equ	0xFDA
  2692                           fsr2l	equ	0xFD9
  2693                           status	equ	0xFD8
  2694                           
  2695 ;; *************** function ___lwdiv *****************
  2696 ;; Defined at:
  2697 ;;		line 8 in file "D:\Apps\MPLab\New folder (2)\sources\common\lwdiv.c"
  2698 ;; Parameters:    Size  Location     Type
  2699 ;;  dividend        2   18[COMRAM] unsigned int 
  2700 ;;  divisor         2   20[COMRAM] unsigned int 
  2701 ;; Auto vars:     Size  Location     Type
  2702 ;;  quotient        2   22[COMRAM] unsigned int 
  2703 ;;  counter         1   24[COMRAM] unsigned char 
  2704 ;; Return value:  Size  Location     Type
  2705 ;;                  2   18[COMRAM] unsigned int 
  2706 ;; Registers used:
  2707 ;;		wreg, status,2, status,0
  2708 ;; Tracked objects:
  2709 ;;		On entry : 0/0
  2710 ;;		On exit  : 0/0
  2711 ;;		Unchanged: 0/0
  2712 ;; Data sizes:     COMRAM   BANK0   BANK1   BANK2   BANK3   BANK4   BANK5   BANK6   BANK7   BANK8   BANK9  BANK10  BANK1
      +1  BANK12  BANK13  BANK14  BANK15
  2713 ;;      Params:         4       0       0       0       0       0       0       0       0       0       0       0       
      +0       0       0       0       0
  2714 ;;      Locals:         3       0       0       0       0       0       0       0       0       0       0       0       
      +0       0       0       0       0
  2715 ;;      Temps:          0       0       0       0       0       0       0       0       0       0       0       0       
      +0       0       0       0       0
  2716 ;;      Totals:         7       0       0       0       0       0       0       0       0       0       0       0       
      +0       0       0       0       0
  2717 ;;Total ram usage:        7 bytes
  2718 ;; Hardware stack levels used:    1
  2719 ;; Hardware stack levels required when called:    2
  2720 ;; This function calls:
  2721 ;;		Nothing
  2722 ;; This function is called by:
  2723 ;;		_printf
  2724 ;; This function uses a non-reentrant model
  2725 ;;
  2726                           
  2727                           	psect	text25
  2728  0012AA                     __ptext25:
  2729                           	opt stack 0
  2730  0012AA                     ___lwdiv:
  2731                           	opt stack 17
  2732                           
  2733                           ;incstack = 0
  2734  0012AA  0E00               	movlw	0
  2735  0012AC  6E18               	movwf	___lwdiv@quotient+1,c
  2736  0012AE  0E00               	movlw	0
  2737  0012B0  6E17               	movwf	___lwdiv@quotient,c
  2738  0012B2  5015               	movf	___lwdiv@divisor,w,c
  2739  0012B4  1016               	iorwf	___lwdiv@divisor+1,w,c
  2740  0012B6  B4D8               	btfsc	status,2,c
  2741  0012B8  D01C               	goto	i1l640
  2742  0012BA  0E01               	movlw	1
  2743  0012BC  6E19               	movwf	___lwdiv@counter,c
  2744  0012BE  D004               	goto	i1l635
  2745  0012C0  90D8               	bcf	status,0,c
  2746  0012C2  3615               	rlcf	___lwdiv@divisor,f,c
  2747  0012C4  3616               	rlcf	___lwdiv@divisor+1,f,c
  2748  0012C6  2A19               	incf	___lwdiv@counter,f,c
  2749  0012C8                     i1l635:
  2750  0012C8  AE16               	btfss	___lwdiv@divisor+1,7,c
  2751  0012CA  D7FA               	goto	i1l636
  2752  0012CC                     i1u37_20:
  2753  0012CC  90D8               	bcf	status,0,c
  2754  0012CE  3617               	rlcf	___lwdiv@quotient,f,c
  2755  0012D0  3618               	rlcf	___lwdiv@quotient+1,f,c
  2756  0012D2  5015               	movf	___lwdiv@divisor,w,c
  2757  0012D4  5C13               	subwf	___lwdiv@dividend,w,c
  2758  0012D6  5016               	movf	___lwdiv@divisor+1,w,c
  2759  0012D8  5814               	subwfb	___lwdiv@dividend+1,w,c
  2760  0012DA  A0D8               	btfss	status,0,c
  2761  0012DC  D005               	goto	i1l639
  2762  0012DE  5015               	movf	___lwdiv@divisor,w,c
  2763  0012E0  5E13               	subwf	___lwdiv@dividend,f,c
  2764  0012E2  5016               	movf	___lwdiv@divisor+1,w,c
  2765  0012E4  5A14               	subwfb	___lwdiv@dividend+1,f,c
  2766  0012E6  8017               	bsf	___lwdiv@quotient,0,c
  2767  0012E8                     i1l639:
  2768  0012E8  90D8               	bcf	status,0,c
  2769  0012EA  3216               	rrcf	___lwdiv@divisor+1,f,c
  2770  0012EC  3215               	rrcf	___lwdiv@divisor,f,c
  2771  0012EE  2E19               	decfsz	___lwdiv@counter,f,c
  2772  0012F0  D7ED               	goto	i1u37_20
  2773  0012F2                     i1l640:
  2774  0012F2  C017  F013         	movff	___lwdiv@quotient,?___lwdiv
  2775  0012F6  C018  F014         	movff	___lwdiv@quotient+1,?___lwdiv+1
  2776  0012FA  0012               	return		;funcret
  2777  0012FC                     __end_of___lwdiv:
  2778                           	opt stack 0
  2779                           pclatu	equ	0xFFB
  2780                           pclath	equ	0xFFA
  2781                           tblptru	equ	0xFF8
  2782                           tblptrh	equ	0xFF7
  2783                           tblptrl	equ	0xFF6
  2784                           tablat	equ	0xFF5
  2785                           prodh	equ	0xFF4
  2786                           prodl	equ	0xFF3
  2787                           intcon	equ	0xFF2
  2788                           intcon2	equ	0xFF1
  2789                           fsr0h	equ	0xFEA
  2790                           fsr0l	equ	0xFE9
  2791                           wreg	equ	0xFE8
  2792                           fsr1h	equ	0xFE2
  2793                           fsr1l	equ	0xFE1
  2794                           bsr	equ	0xFE0
  2795                           postinc2	equ	0xFDE
  2796                           postdec2	equ	0xFDD
  2797                           fsr2h	equ	0xFDA
  2798                           fsr2l	equ	0xFD9
  2799                           status	equ	0xFD8
  2800                           
  2801 ;; *************** function _timer0_isr *****************
  2802 ;; Defined at:
  2803 ;;		line 22 in file "Timer.c"
  2804 ;; Parameters:    Size  Location     Type
  2805 ;;		None
  2806 ;; Auto vars:     Size  Location     Type
  2807 ;;		None
  2808 ;; Return value:  Size  Location     Type
  2809 ;;                  1    wreg      void 
  2810 ;; Registers used:
  2811 ;;		wreg, status,2, status,0, cstack
  2812 ;; Tracked objects:
  2813 ;;		On entry : 0/0
  2814 ;;		On exit  : 0/0
  2815 ;;		Unchanged: 0/0
  2816 ;; Data sizes:     COMRAM   BANK0   BANK1   BANK2   BANK3   BANK4   BANK5   BANK6   BANK7   BANK8   BANK9  BANK10  BANK1
      +1  BANK12  BANK13  BANK14  BANK15
  2817 ;;      Params:         0       0       0       0       0       0       0       0       0       0       0       0       
      +0       0       0       0       0
  2818 ;;      Locals:         0       0       0       0       0       0       0       0       0       0       0       0       
      +0       0       0       0       0
  2819 ;;      Temps:         18       0       0       0       0       0       0       0       0       0       0       0       
      +0       0       0       0       0
  2820 ;;      Totals:        18       0       0       0       0       0       0       0       0       0       0       0       
      +0       0       0       0       0
  2821 ;;Total ram usage:       18 bytes
  2822 ;; Hardware stack levels used:    1
  2823 ;; Hardware stack levels required when called:    1
  2824 ;; This function calls:
  2825 ;;		_timer_process
  2826 ;;		i2_timer0_reset
  2827 ;; This function is called by:
  2828 ;;		Interrupt level 2
  2829 ;; This function uses a non-reentrant model
  2830 ;;
  2831                           
  2832                           	psect	intcode
  2833  000008                     __pintcode:
  2834                           	opt stack 0
  2835  000008                     _timer0_isr:
  2836                           	opt stack 12
  2837                           
  2838                           ;incstack = 0
  2839  000008  8246               	bsf	btemp,1,c	;set compiler interrupt flag (level 2)
  2840  00000A  EDC9  F008         	call	int_func,f	;refresh shadow registers
  2841                           pclatu	equ	0xFFB
  2842                           pclath	equ	0xFFA
  2843                           tblptru	equ	0xFF8
  2844                           tblptrh	equ	0xFF7
  2845                           tblptrl	equ	0xFF6
  2846                           tablat	equ	0xFF5
  2847                           prodh	equ	0xFF4
  2848                           prodl	equ	0xFF3
  2849                           intcon	equ	0xFF2
  2850                           intcon2	equ	0xFF1
  2851                           fsr0h	equ	0xFEA
  2852                           fsr0l	equ	0xFE9
  2853                           wreg	equ	0xFE8
  2854                           fsr1h	equ	0xFE2
  2855                           fsr1l	equ	0xFE1
  2856                           bsr	equ	0xFE0
  2857                           postinc2	equ	0xFDE
  2858                           postdec2	equ	0xFDD
  2859                           fsr2h	equ	0xFDA
  2860                           fsr2l	equ	0xFD9
  2861                           status	equ	0xFD8
  2862                           
  2863                           	psect	intcode_body
  2864  001192                     __pintcode_body:
  2865                           	opt stack 12
  2866  001192                     int_func:
  2867                           	opt stack 12
  2868  001192  0006               	pop		; remove dummy address from shadow register refresh
  2869  001194  CFFA F001          	movff	pclath,??_timer0_isr
  2870  001198  CFFB F002          	movff	pclatu,??_timer0_isr+1
  2871  00119C  CFE9 F003          	movff	fsr0l,??_timer0_isr+2
  2872  0011A0  CFEA F004          	movff	fsr0h,??_timer0_isr+3
  2873  0011A4  CFE1 F005          	movff	fsr1l,??_timer0_isr+4
  2874  0011A8  CFE2 F006          	movff	fsr1h,??_timer0_isr+5
  2875  0011AC  CFD9 F007          	movff	fsr2l,??_timer0_isr+6
  2876  0011B0  CFDA F008          	movff	fsr2h,??_timer0_isr+7
  2877  0011B4  CFF3 F009          	movff	prodl,??_timer0_isr+8
  2878  0011B8  CFF4 F00A          	movff	prodh,??_timer0_isr+9
  2879  0011BC  CFF6 F00B          	movff	tblptrl,??_timer0_isr+10
  2880  0011C0  CFF7 F00C          	movff	tblptrh,??_timer0_isr+11
  2881  0011C4  CFF8 F00D          	movff	tblptru,??_timer0_isr+12
  2882  0011C8  CFF5 F00E          	movff	tablat,??_timer0_isr+13
  2883  0011CC  C046  F00F         	movff	btemp,??_timer0_isr+14
  2884  0011D0  C047  F010         	movff	btemp+1,??_timer0_isr+15
  2885  0011D4  C048  F011         	movff	btemp+2,??_timer0_isr+16
  2886  0011D8  C049  F012         	movff	btemp+3,??_timer0_isr+17
  2887                           
  2888                           ;Timer.c: 24: if (TMR0IE & TMR0IF)
  2889  0011DC  0E01               	movlw	1
  2890  0011DE  AAF2               	btfss	intcon,5,c	;volatile
  2891  0011E0  0E00               	movlw	0
  2892  0011E2  A4F2               	btfss	intcon,2,c	;volatile
  2893  0011E4  0E00               	movlw	0
  2894  0011E6  A0E8               	btfss	wreg,0,c
  2895  0011E8  D004               	goto	i2l200
  2896                           
  2897                           ;Timer.c: 25: {
  2898                           ;Timer.c: 26: timer0_reset();
  2899  0011EA  ECE1  F00A         	call	i2_timer0_reset	;wreg free
  2900                           
  2901                           ;Timer.c: 27: timer_process();
  2902  0011EE  EC36  F00A         	call	_timer_process	;wreg free
  2903  0011F2                     i2l200:
  2904  0011F2  C012  F049         	movff	??_timer0_isr+17,btemp+3
  2905  0011F6  C011  F048         	movff	??_timer0_isr+16,btemp+2
  2906  0011FA  C010  F047         	movff	??_timer0_isr+15,btemp+1
  2907  0011FE  C00F  F046         	movff	??_timer0_isr+14,btemp
  2908  001202  C00E  FFF5         	movff	??_timer0_isr+13,tablat
  2909  001206  C00D  FFF8         	movff	??_timer0_isr+12,tblptru
  2910  00120A  C00C  FFF7         	movff	??_timer0_isr+11,tblptrh
  2911  00120E  C00B  FFF6         	movff	??_timer0_isr+10,tblptrl
  2912  001212  C00A  FFF4         	movff	??_timer0_isr+9,prodh
  2913  001216  C009  FFF3         	movff	??_timer0_isr+8,prodl
  2914  00121A  C008  FFDA         	movff	??_timer0_isr+7,fsr2h
  2915  00121E  C007  FFD9         	movff	??_timer0_isr+6,fsr2l
  2916  001222  C006  FFE2         	movff	??_timer0_isr+5,fsr1h
  2917  001226  C005  FFE1         	movff	??_timer0_isr+4,fsr1l
  2918  00122A  C004  FFEA         	movff	??_timer0_isr+3,fsr0h
  2919  00122E  C003  FFE9         	movff	??_timer0_isr+2,fsr0l
  2920  001232  C002  FFFB         	movff	??_timer0_isr+1,pclatu
  2921  001236  C001  FFFA         	movff	??_timer0_isr,pclath
  2922  00123A  9246               	bcf	btemp,1,c	;clear compiler interrupt flag (level 2)
  2923  00123C  0011               	retfie		f
  2924  00123E                     __end_of_timer0_isr:
  2925                           	opt stack 0
  2926                           pclatu	equ	0xFFB
  2927                           pclath	equ	0xFFA
  2928                           tblptru	equ	0xFF8
  2929                           tblptrh	equ	0xFF7
  2930                           tblptrl	equ	0xFF6
  2931                           tablat	equ	0xFF5
  2932                           prodh	equ	0xFF4
  2933                           prodl	equ	0xFF3
  2934                           intcon	equ	0xFF2
  2935                           intcon2	equ	0xFF1
  2936                           fsr0h	equ	0xFEA
  2937                           fsr0l	equ	0xFE9
  2938                           wreg	equ	0xFE8
  2939                           fsr1h	equ	0xFE2
  2940                           fsr1l	equ	0xFE1
  2941                           bsr	equ	0xFE0
  2942                           postinc2	equ	0xFDE
  2943                           postdec2	equ	0xFDD
  2944                           fsr2h	equ	0xFDA
  2945                           fsr2l	equ	0xFD9
  2946                           status	equ	0xFD8
  2947                           
  2948 ;; *************** function i2_timer0_reset *****************
  2949 ;; Defined at:
  2950 ;;		line 5 in file "Timer.c"
  2951 ;; Parameters:    Size  Location     Type
  2952 ;;		None
  2953 ;; Auto vars:     Size  Location     Type
  2954 ;;		None
  2955 ;; Return value:  Size  Location     Type
  2956 ;;                  1    wreg      void 
  2957 ;; Registers used:
  2958 ;;		wreg, status,2
  2959 ;; Tracked objects:
  2960 ;;		On entry : 0/0
  2961 ;;		On exit  : 0/0
  2962 ;;		Unchanged: 0/0
  2963 ;; Data sizes:     COMRAM   BANK0   BANK1   BANK2   BANK3   BANK4   BANK5   BANK6   BANK7   BANK8   BANK9  BANK10  BANK1
      +1  BANK12  BANK13  BANK14  BANK15
  2964 ;;      Params:         0       0       0       0       0       0       0       0       0       0       0       0       
      +0       0       0       0       0
  2965 ;;      Locals:         0       0       0       0       0       0       0       0       0       0       0       0       
      +0       0       0       0       0
  2966 ;;      Temps:          0       0       0       0       0       0       0       0       0       0       0       0       
      +0       0       0       0       0
  2967 ;;      Totals:         0       0       0       0       0       0       0       0       0       0       0       0       
      +0       0       0       0       0
  2968 ;;Total ram usage:        0 bytes
  2969 ;; Hardware stack levels used:    1
  2970 ;; This function calls:
  2971 ;;		Nothing
  2972 ;; This function is called by:
  2973 ;;		_timer0_isr
  2974 ;; This function uses a non-reentrant model
  2975 ;;
  2976                           
  2977                           	psect	text27
  2978  0015C2                     __ptext27:
  2979                           	opt stack 0
  2980  0015C2                     i2_timer0_reset:
  2981                           	opt stack 12
  2982                           
  2983                           ;Timer.c: 7: TMR0IF=0;
  2984                           
  2985                           ;incstack = 0
  2986  0015C2  94F2               	bcf	intcon,2,c	;volatile
  2987                           
  2988                           ;Timer.c: 8: TMR0ON=0;
  2989  0015C4  9ED5               	bcf	4053,7,c	;volatile
  2990                           
  2991                           ;Timer.c: 9: TMR0=-12500;
  2992  0015C6  0ECF               	movlw	207
  2993  0015C8  6ED7               	movwf	4055,c	;volatile
  2994  0015CA  0E2C               	movlw	44
  2995  0015CC  6ED6               	movwf	4054,c	;volatile
  2996                           
  2997                           ;Timer.c: 10: TMR0ON=1;
  2998  0015CE  8ED5               	bsf	4053,7,c	;volatile
  2999  0015D0  0012               	return		;funcret
  3000  0015D2                     __end_ofi2_timer0_reset:
  3001                           	opt stack 0
  3002                           pclatu	equ	0xFFB
  3003                           pclath	equ	0xFFA
  3004                           tblptru	equ	0xFF8
  3005                           tblptrh	equ	0xFF7
  3006                           tblptrl	equ	0xFF6
  3007                           tablat	equ	0xFF5
  3008                           prodh	equ	0xFF4
  3009                           prodl	equ	0xFF3
  3010                           intcon	equ	0xFF2
  3011                           intcon2	equ	0xFF1
  3012                           fsr0h	equ	0xFEA
  3013                           fsr0l	equ	0xFE9
  3014                           wreg	equ	0xFE8
  3015                           fsr1h	equ	0xFE2
  3016                           fsr1l	equ	0xFE1
  3017                           bsr	equ	0xFE0
  3018                           postinc2	equ	0xFDE
  3019                           postdec2	equ	0xFDD
  3020                           fsr2h	equ	0xFDA
  3021                           fsr2l	equ	0xFD9
  3022                           status	equ	0xFD8
  3023                           
  3024 ;; *************** function _timer_process *****************
  3025 ;; Defined at:
  3026 ;;		line 26 in file "Adc.c"
  3027 ;; Parameters:    Size  Location     Type
  3028 ;;		None
  3029 ;; Auto vars:     Size  Location     Type
  3030 ;;		None
  3031 ;; Return value:  Size  Location     Type
  3032 ;;                  1    wreg      void 
  3033 ;; Registers used:
  3034 ;;		wreg, status,2, status,0
  3035 ;; Tracked objects:
  3036 ;;		On entry : 0/0
  3037 ;;		On exit  : 0/0
  3038 ;;		Unchanged: 0/0
  3039 ;; Data sizes:     COMRAM   BANK0   BANK1   BANK2   BANK3   BANK4   BANK5   BANK6   BANK7   BANK8   BANK9  BANK10  BANK1
      +1  BANK12  BANK13  BANK14  BANK15
  3040 ;;      Params:         0       0       0       0       0       0       0       0       0       0       0       0       
      +0       0       0       0       0
  3041 ;;      Locals:         0       0       0       0       0       0       0       0       0       0       0       0       
      +0       0       0       0       0
  3042 ;;      Temps:          0       0       0       0       0       0       0       0       0       0       0       0       
      +0       0       0       0       0
  3043 ;;      Totals:         0       0       0       0       0       0       0       0       0       0       0       0       
      +0       0       0       0       0
  3044 ;;Total ram usage:        0 bytes
  3045 ;; Hardware stack levels used:    1
  3046 ;; This function calls:
  3047 ;;		Nothing
  3048 ;; This function is called by:
  3049 ;;		_timer0_isr
  3050 ;; This function uses a non-reentrant model
  3051 ;;
  3052                           
  3053                           	psect	text28
  3054  00146C                     __ptext28:
  3055                           	opt stack 0
  3056  00146C                     _timer_process:
  3057                           	opt stack 12
  3058                           
  3059                           ;Adc.c: 27: count = count + 1;
  3060                           
  3061                           ;incstack = 0
  3062  00146C  0E01               	movlw	1
  3063  00146E  2442               	addwf	_count,w,c
  3064  001470  6E42               	movwf	_count,c
  3065  001472  0E00               	movlw	0
  3066  001474  2043               	addwfc	_count+1,w,c
  3067  001476  6E43               	movwf	_count+1,c
  3068                           
  3069                           ;Adc.c: 28: if (count == 100){
  3070  001478  0E64               	movlw	100
  3071  00147A  1842               	xorwf	_count,w,c
  3072  00147C  1043               	iorwf	_count+1,w,c
  3073  00147E  A4D8               	btfss	status,2,c
  3074  001480  0012               	return	
  3075                           
  3076                           ;Adc.c: 29: count = 0;
  3077  001482  0E00               	movlw	0
  3078  001484  6E43               	movwf	_count+1,c
  3079  001486  0E00               	movlw	0
  3080  001488  6E42               	movwf	_count,c
  3081                           
  3082                           ;Adc.c: 30: ADCON0bits.GO = 1;
  3083  00148A  82C2               	bsf	4034,1,c	;volatile
  3084  00148C  0012               	return	
  3085  00148E                     __end_of_timer_process:
  3086                           	opt stack 0
  3087                           pclatu	equ	0xFFB
  3088                           pclath	equ	0xFFA
  3089                           tblptru	equ	0xFF8
  3090                           tblptrh	equ	0xFF7
  3091                           tblptrl	equ	0xFF6
  3092                           tablat	equ	0xFF5
  3093                           prodh	equ	0xFF4
  3094                           prodl	equ	0xFF3
  3095                           intcon	equ	0xFF2
  3096                           intcon2	equ	0xFF1
  3097                           fsr0h	equ	0xFEA
  3098                           fsr0l	equ	0xFE9
  3099                           wreg	equ	0xFE8
  3100                           fsr1h	equ	0xFE2
  3101                           fsr1l	equ	0xFE1
  3102                           bsr	equ	0xFE0
  3103                           postinc2	equ	0xFDE
  3104                           postdec2	equ	0xFDD
  3105                           fsr2h	equ	0xFDA
  3106                           fsr2l	equ	0xFD9
  3107                           status	equ	0xFD8
  3108                           pclatu	equ	0xFFB
  3109                           pclath	equ	0xFFA
  3110                           tblptru	equ	0xFF8
  3111                           tblptrh	equ	0xFF7
  3112                           tblptrl	equ	0xFF6
  3113                           tablat	equ	0xFF5
  3114                           prodh	equ	0xFF4
  3115                           prodl	equ	0xFF3
  3116                           intcon	equ	0xFF2
  3117                           intcon2	equ	0xFF1
  3118                           fsr0h	equ	0xFEA
  3119                           fsr0l	equ	0xFE9
  3120                           wreg	equ	0xFE8
  3121                           fsr1h	equ	0xFE2
  3122                           fsr1l	equ	0xFE1
  3123                           bsr	equ	0xFE0
  3124                           postinc2	equ	0xFDE
  3125                           postdec2	equ	0xFDD
  3126                           fsr2h	equ	0xFDA
  3127                           fsr2l	equ	0xFD9
  3128                           status	equ	0xFD8
  3129                           
  3130                           	psect	rparam
  3131  0000                     pclatu	equ	0xFFB
  3132                           pclath	equ	0xFFA
  3133                           tblptru	equ	0xFF8
  3134                           tblptrh	equ	0xFF7
  3135                           tblptrl	equ	0xFF6
  3136                           tablat	equ	0xFF5
  3137                           prodh	equ	0xFF4
  3138                           prodl	equ	0xFF3
  3139                           intcon	equ	0xFF2
  3140                           intcon2	equ	0xFF1
  3141                           fsr0h	equ	0xFEA
  3142                           fsr0l	equ	0xFE9
  3143                           wreg	equ	0xFE8
  3144                           fsr1h	equ	0xFE2
  3145                           fsr1l	equ	0xFE1
  3146                           bsr	equ	0xFE0
  3147                           postinc2	equ	0xFDE
  3148                           postdec2	equ	0xFDD
  3149                           fsr2h	equ	0xFDA
  3150                           fsr2l	equ	0xFD9
  3151                           status	equ	0xFD8
  3152                           
  3153                           	psect	temp
  3154  000046                     btemp:
  3155                           	opt stack 0
  3156  000046                     	ds	1
  3157  0000                     int$flags	set	btemp
  3158  0000                     wtemp6	set	btemp+1
  3159                           pclatu	equ	0xFFB
  3160                           pclath	equ	0xFFA
  3161                           tblptru	equ	0xFF8
  3162                           tblptrh	equ	0xFF7
  3163                           tblptrl	equ	0xFF6
  3164                           tablat	equ	0xFF5
  3165                           prodh	equ	0xFF4
  3166                           prodl	equ	0xFF3
  3167                           intcon	equ	0xFF2
  3168                           intcon2	equ	0xFF1
  3169                           fsr0h	equ	0xFEA
  3170                           fsr0l	equ	0xFE9
  3171                           wreg	equ	0xFE8
  3172                           fsr1h	equ	0xFE2
  3173                           fsr1l	equ	0xFE1
  3174                           bsr	equ	0xFE0
  3175                           postinc2	equ	0xFDE
  3176                           postdec2	equ	0xFDD
  3177                           fsr2h	equ	0xFDA
  3178                           fsr2l	equ	0xFD9
  3179                           status	equ	0xFD8


Data Sizes:
    Strings     19
    Constant    74
    Data        0
    BSS         4
    Persistent  0
    Stack       0

Auto Spaces:
    Space          Size  Autos    Used
    COMRAM           94     65      69
    BANK0           160      7       7
    BANK1           256      0       0
    BANK2           256      0       0
    BANK3           256      0       0
    BANK4           256      0       0
    BANK5           256      0       0
    BANK6           256      0       0
    BANK7           256      0       0
    BANK8           256      0       0
    BANK9           256      0       0
    BANK10          256      0       0
    BANK11          256      0       0
    BANK12          256      0       0
    BANK13          256      0       0
    BANK14          256      0       0
    BANK15           96      0       0

Pointer List with Targets:

    printf@f	PTR const unsigned char  size(2) Largest target is 14
		 -> STR_2(CODE[5]), STR_1(CODE[14]), 

    printf@ap	PTR void [1] size(2) Largest target is 2
		 -> ?_printf(COMRAM[2]), 

    lcd_download@data	PTR const unsigned char  size(2) Largest target is 64
		 -> dhbkstr(CODE[64]), 


Critical Paths under _main in COMRAM

    None.

Critical Paths under _Adc_isr in COMRAM

    _Adc_process->_printf
    _printf->___lwmod
    ___lwmod->___lwdiv

Critical Paths under _timer0_isr in COMRAM

    None.

Critical Paths under _main in BANK0

    _lcd_init->_lcd_DHBK
    _lcd_DHBK->_lcd_download

Critical Paths under _Adc_isr in BANK0

    None.

Critical Paths under _timer0_isr in BANK0

    None.

Critical Paths under _main in BANK1

    None.

Critical Paths under _Adc_isr in BANK1

    None.

Critical Paths under _timer0_isr in BANK1

    None.

Critical Paths under _main in BANK2

    None.

Critical Paths under _Adc_isr in BANK2

    None.

Critical Paths under _timer0_isr in BANK2

    None.

Critical Paths under _main in BANK3

    None.

Critical Paths under _Adc_isr in BANK3

    None.

Critical Paths under _timer0_isr in BANK3

    None.

Critical Paths under _main in BANK4

    None.

Critical Paths under _Adc_isr in BANK4

    None.

Critical Paths under _timer0_isr in BANK4

    None.

Critical Paths under _main in BANK5

    None.

Critical Paths under _Adc_isr in BANK5

    None.

Critical Paths under _timer0_isr in BANK5

    None.

Critical Paths under _main in BANK6

    None.

Critical Paths under _Adc_isr in BANK6

    None.

Critical Paths under _timer0_isr in BANK6

    None.

Critical Paths under _main in BANK7

    None.

Critical Paths under _Adc_isr in BANK7

    None.

Critical Paths under _timer0_isr in BANK7

    None.

Critical Paths under _main in BANK8

    None.

Critical Paths under _Adc_isr in BANK8

    None.

Critical Paths under _timer0_isr in BANK8

    None.

Critical Paths under _main in BANK9

    None.

Critical Paths under _Adc_isr in BANK9

    None.

Critical Paths under _timer0_isr in BANK9

    None.

Critical Paths under _main in BANK10

    None.

Critical Paths under _Adc_isr in BANK10

    None.

Critical Paths under _timer0_isr in BANK10

    None.

Critical Paths under _main in BANK11

    None.

Critical Paths under _Adc_isr in BANK11

    None.

Critical Paths under _timer0_isr in BANK11

    None.

Critical Paths under _main in BANK12

    None.

Critical Paths under _Adc_isr in BANK12

    None.

Critical Paths under _timer0_isr in BANK12

    None.

Critical Paths under _main in BANK13

    None.

Critical Paths under _Adc_isr in BANK13

    None.

Critical Paths under _timer0_isr in BANK13

    None.

Critical Paths under _main in BANK14

    None.

Critical Paths under _Adc_isr in BANK14

    None.

Critical Paths under _timer0_isr in BANK14

    None.

Critical Paths under _main in BANK15

    None.

Critical Paths under _Adc_isr in BANK15

    None.

Critical Paths under _timer0_isr in BANK15

    None.

Call Graph Tables:

 ---------------------------------------------------------------------------------
 (Depth) Function   	        Calls       Base Space   Used Autos Params    Refs
 ---------------------------------------------------------------------------------
 (0) _main                                                 0     0      0    2249
                           _Adc_init
                           _lcd_init
                        _timer0_init
 ---------------------------------------------------------------------------------
 (1) _timer0_init                                          0     0      0       0
                       _timer0_reset
 ---------------------------------------------------------------------------------
 (2) _timer0_reset                                         0     0      0       0
 ---------------------------------------------------------------------------------
 (1) _lcd_init                                             0     0      0    2249
                           _SPI_init
                      _SPIportA_init
                      _SPIportB_init
                            _i_write
                           _lcd_DHBK
                            _lcd_cls
                             _tre_ms
 ---------------------------------------------------------------------------------
 (2) _tre_ms                                               2     0      2     197
                                              0 BANK0      2     0      2
 ---------------------------------------------------------------------------------
 (2) _lcd_DHBK                                             1     1      0    1782
                                              6 BANK0      1     1      0
                       _lcd_download
                         _lcd_gotoxy
                              _putch
 ---------------------------------------------------------------------------------
 (12) _putch                                               1     1      0     751
                           _lcd_putc
 ---------------------------------------------------------------------------------
 (13) _lcd_putc                                            1     1      0     729
                            _d_write
                            _lcd_cls
                         _lcd_gotoxy
 ---------------------------------------------------------------------------------
 (14) _lcd_gotoxy                                          2     1      1     461
                            _i_write
 ---------------------------------------------------------------------------------
 (14) _lcd_cls                                             1     1      0     112
                            _i_write
 ---------------------------------------------------------------------------------
 (3) _lcd_download                                         6     4      2     412
                                              0 BANK0      6     4      2
                            _d_write
                            _i_write
 ---------------------------------------------------------------------------------
 (15) _i_write                                             1     1      0     112
                            _LCDBusy
                        _Write_PortA
                        _Write_PortB
 ---------------------------------------------------------------------------------
 (14) _d_write                                             1     1      0     112
                            _LCDBusy
                        _Write_PortA
                        _Write_PortB
 ---------------------------------------------------------------------------------
 (16) _Write_PortB                                         1     1      0      45
                           _SPI_send
 ---------------------------------------------------------------------------------
 (16) _Write_PortA                                         1     1      0      45
                           _SPI_send
 ---------------------------------------------------------------------------------
 (16) _LCDBusy                                             0     0      0       0
 ---------------------------------------------------------------------------------
 (2) _SPIportB_init                                        0     0      0      23
                           _SPI_send
 ---------------------------------------------------------------------------------
 (2) _SPIportA_init                                        0     0      0      23
                           _SPI_send
 ---------------------------------------------------------------------------------
 (17) _SPI_send                                            1     1      0      23
 ---------------------------------------------------------------------------------
 (2) _SPI_init                                             0     0      0       0
 ---------------------------------------------------------------------------------
 (1) _Adc_init                                             0     0      0       0
 ---------------------------------------------------------------------------------
 Estimated maximum stack depth 17
 ---------------------------------------------------------------------------------
 (Depth) Function   	        Calls       Base Space   Used Autos Params    Refs
 ---------------------------------------------------------------------------------
 (9) _Adc_isr                                             23    23      0    2375
                                             42 COMRAM    23    23      0
                        _Adc_process
 ---------------------------------------------------------------------------------
 (10) _Adc_process                                         0     0      0    2375
                         _lcd_gotoxy
                             _printf
 ---------------------------------------------------------------------------------
 (11) _printf                                             21    17      4    1914
                                             30 COMRAM    12     8      4
                            ___lwdiv
                            ___lwmod
                              _putch
 ---------------------------------------------------------------------------------
 (12) _putch                                               1     1      0     751
                           _lcd_putc
 ---------------------------------------------------------------------------------
 (13) _lcd_putc                                            1     1      0     729
                            _d_write
                            _lcd_cls
                         _lcd_gotoxy
 ---------------------------------------------------------------------------------
 (14) _lcd_gotoxy                                          2     1      1     461
                            _i_write
 ---------------------------------------------------------------------------------
 (14) _lcd_cls                                             1     1      0     112
                            _i_write
 ---------------------------------------------------------------------------------
 (15) _i_write                                             1     1      0     112
                            _LCDBusy
                        _Write_PortA
                        _Write_PortB
 ---------------------------------------------------------------------------------
 (14) _d_write                                             1     1      0     112
                            _LCDBusy
                        _Write_PortA
                        _Write_PortB
 ---------------------------------------------------------------------------------
 (16) _Write_PortB                                         1     1      0      45
                           _SPI_send
 ---------------------------------------------------------------------------------
 (16) _Write_PortA                                         1     1      0      45
                           _SPI_send
 ---------------------------------------------------------------------------------
 (17) _SPI_send                                            1     1      0      23
 ---------------------------------------------------------------------------------
 (16) _LCDBusy                                             0     0      0       0
 ---------------------------------------------------------------------------------
 (12) ___lwmod                                             5     1      4     311
                                             25 COMRAM     5     1      4
                            ___lwdiv (ARG)
 ---------------------------------------------------------------------------------
 (12) ___lwdiv                                             7     3      4     314
                                             18 COMRAM     7     3      4
 ---------------------------------------------------------------------------------
 Estimated maximum stack depth 17
 ---------------------------------------------------------------------------------
 (Depth) Function   	        Calls       Base Space   Used Autos Params    Refs
 ---------------------------------------------------------------------------------
 (18) _timer0_isr                                         18    18      0       0
                                              0 COMRAM    18    18      0
                      _timer_process
                     i2_timer0_reset
 ---------------------------------------------------------------------------------
 (19) i2_timer0_reset                                      0     0      0       0
 ---------------------------------------------------------------------------------
 (19) _timer_process                                       0     0      0       0
 ---------------------------------------------------------------------------------
 Estimated maximum stack depth 19
 ---------------------------------------------------------------------------------

 Call Graph Graphs:

 _main (ROOT)
   _Adc_init
   _lcd_init
     _SPI_init
     _SPIportA_init
       _SPI_send
     _SPIportB_init
       _SPI_send
     _i_write
       _LCDBusy
       _Write_PortA
         _SPI_send
       _Write_PortB
         _SPI_send
     _lcd_DHBK
       _lcd_download
         _d_write
           _LCDBusy
           _Write_PortA
             _SPI_send
           _Write_PortB
             _SPI_send
         _i_write
           _LCDBusy
           _Write_PortA
             _SPI_send
           _Write_PortB
             _SPI_send
       _lcd_gotoxy
         _i_write
           _LCDBusy
           _Write_PortA
             _SPI_send
           _Write_PortB
             _SPI_send
       _putch
         _lcd_putc
           _d_write
             _LCDBusy
             _Write_PortA
               _SPI_send
             _Write_PortB
               _SPI_send
           _lcd_cls
             _i_write
               _LCDBusy
               _Write_PortA
                 _SPI_send
               _Write_PortB
                 _SPI_send
           _lcd_gotoxy
             _i_write
               _LCDBusy
               _Write_PortA
                 _SPI_send
               _Write_PortB
                 _SPI_send
     _lcd_cls
       _i_write
         _LCDBusy
         _Write_PortA
           _SPI_send
         _Write_PortB
           _SPI_send
     _tre_ms
   _timer0_init
     _timer0_reset

 _Adc_isr (ROOT)
   _Adc_process
     _lcd_gotoxy
       _i_write
         _LCDBusy
         _Write_PortA
           _SPI_send
         _Write_PortB
           _SPI_send
     _printf
       ___lwdiv
       ___lwmod
         ___lwdiv (ARG)
       _putch
         _lcd_putc
           _d_write
             _LCDBusy
             _Write_PortA
               _SPI_send
             _Write_PortB
               _SPI_send
           _lcd_cls
             _i_write
               _LCDBusy
               _Write_PortA
                 _SPI_send
               _Write_PortB
                 _SPI_send
           _lcd_gotoxy
             _i_write
               _LCDBusy
               _Write_PortA
                 _SPI_send
               _Write_PortB
                 _SPI_send

 _timer0_isr (ROOT)
   _timer_process
   i2_timer0_reset

 Address spaces:
Name               Size   Autos  Total    Cost      Usage
BIGRAM             F5F      0       0      37        0.0%
EEDATA             400      0       0       0        0.0%
BITBANK14          100      0       0      33        0.0%
BANK14             100      0       0      34        0.0%
BITBANK13          100      0       0      30        0.0%
BANK13             100      0       0      31        0.0%
BITBANK12          100      0       0      28        0.0%
BANK12             100      0       0      29        0.0%
BITBANK11          100      0       0      26        0.0%
BANK11             100      0       0      27        0.0%
BITBANK10          100      0       0      24        0.0%
BANK10             100      0       0      25        0.0%
BITBANK9           100      0       0      22        0.0%
BANK9              100      0       0      23        0.0%
BITBANK8           100      0       0      20        0.0%
BANK8              100      0       0      21        0.0%
BITBANK7           100      0       0      18        0.0%
BANK7              100      0       0      19        0.0%
BITBANK6           100      0       0      16        0.0%
BANK6              100      0       0      17        0.0%
BITBANK5           100      0       0      14        0.0%
BANK5              100      0       0      15        0.0%
BITBANK4           100      0       0      12        0.0%
BANK4              100      0       0      13        0.0%
BITBANK3           100      0       0      10        0.0%
BANK3              100      0       0      11        0.0%
BITBANK2           100      0       0       8        0.0%
BANK2              100      0       0       9        0.0%
BITBANK1           100      0       0       6        0.0%
BANK1              100      0       0       7        0.0%
BITBANK0            A0      0       0       4        0.0%
BANK0               A0      7       7       5        4.4%
BITBANK15           60      0       0      35        0.0%
BANK15              60      0       0      36        0.0%
BITCOMRAM           5E      0       0       0        0.0%
COMRAM              5E     41      45       1       73.4%
BITSFR               0      0       0     200        0.0%
SFR                  0      0       0     200        0.0%
STACK                0      0       0       2        0.0%
NULL                 0      0       0       0        0.0%
ABS                  0      0      4C      32        0.0%
DATA                 0      0      4C       3        0.0%
CODE                 0      0       0       0        0.0%


Microchip Technology PIC18 Macro Assembler V1.45 build -152302408 
Symbol Table                                                                                   Tue Nov 19 14:40:55 2019

                     l63 15DE                       bsr 000FE0              _Adc_process 13DC  
            __CFG_OSC$HS 000000                      l139 131E                      l167 135A  
                    l169 138E                      u530 1376                      u617 1282  
                    u627 14DA     __size_of_Write_PortA 001A     __size_of_Write_PortB 001A  
                    prod 000FF3                      wreg 000FE8          __end_of_LCDBusy 1602  
           __CFG_LVP$OFF 000000             __CFG_WDT$OFF 000000                     l1231 1316  
                   l1361 1352                     l1375 1386                     _CKE1 007E3E  
                   STR_1 104B                     STR_2 1059                     i1l51 008C  
                   _TMR0 000FD6                     _main 15D2                     fsr0h 000FEA  
                   fsr1h 000FE2                     fsr2h 000FDA                     fsr0l 000FE9  
                   fsr1l 000FE1                     fsr2l 000FD9                     btemp 0046  
        __end_of_Adc_isr 00E4           ??_lcd_download 0062                     prodh 000FF4  
                   prodl 000FF3                     start 00E4             ___param_bank 000000  
        ??_timer_process 0001                    ?_main 0001                    _T0CON 000FD5  
                  _LATA2 007C4A                    _LATF6 007C76          __end_of___lwdiv 12FC  
                  i1l107 15A6                    i1l220 10A8                    i1l213 106A  
                  i1l150 1430                    i1l222 10D0                    i1l214 107A  
                  i1l135 155A                    i1l151 1416                    i1l153 141C  
                  i1l154 1428                    i1l226 1118                    i1l227 116C  
                  i1l228 111E                    i2l200 11F2          __end_of___lwmod 13DC  
                  i1l640 12F2                    i1l650 13D2                    i1l635 12C8  
                  i1l636 12C0                    i1l645 13B0                    i1l646 13A8  
                  i1l639 12E8                    i1l649 13C8           i2_timer0_reset 15C2  
        __end_of_dhbkstr 104B          __end_of_d_write 14CE          __end_of_lcd_cls 157A  
        __end_of_i_write 14AE                    _adres 0044          __end_of_dpowers 100B  
                  _count 0042                    _putch 15EE         __end_of_Adc_init 146C  
                  pclath 000FFA                    tablat 000FF5         __end_of_SPI_init 15EE  
       __end_of_SPI_send 15B2            lcd_download@j 0065                    status 000FD8  
                  wtemp6 0047          __initialization 158E             __end_of_main 15E0  
          lcd_gotoxy@col 0016            lcd_gotoxy@row 0017                   ??_main 0067  
 __end_ofi2_timer0_reset 15D2            __activetblptr 000003                ??_LCDBusy 0013  
                 _ADCON0 000FC2                   _ADCON1 000FC1                   _ADCON2 000FC0  
                 _ADRESH 000FC4                   _ADRESL 000FC3                ??_Adc_isr 002B  
                 ?_putch 0001                   i1l1305 10D4                   _TMR0IE 007F95  
                 _TMR0IF 007F92                   _TMR0ON 007EAF                   _SSP1IF 007CF3  
                 _TRISA2 007C92                   _TRISC3 007CA3                   _TRISC5 007CA5  
                 _TRISF6 007CBE         __end_of_lcd_DHBK 139A   __size_of_SPIportA_init 0018  
 __size_of_SPIportB_init 0018         __end_of_lcd_init 12AA         __end_of_lcd_putc 1440  
           ?_timer0_init 0001                ??___lwdiv 0017                ??___lwmod 001E  
              ??_d_write 0015                   _printf 1060                   _tre_ms 14CE  
              ??_lcd_cls 0016          ?i2_timer0_reset 0001                ??_i_write 0015  
   __end_of_lcd_download 134C             __mediumconst 0000                   tblptrh 000FF7  
                 tblptrl 000FF6                   tblptru 000FF8                   putch@c 0019  
             __accesstop 0060  __end_of__initialization 1596            ___rparam_used 000001  
         __pcstackCOMRAM 0001            __end_of_putch 15F8             ?_Adc_process 0001  
              ?_Adc_init 0001                ?_SPI_init 0001                ?_SPI_send 0001  
          _SPIportA_init 1536            _SPIportB_init 151E                  ??_putch 0019  
           Write_PortB@d 0014            ??_Write_PortA 0014            ??_Write_PortB 0014  
             ??_Adc_init 0060                  ?_printf 001F                  ?_tre_ms 0060  
             ??_SPI_init 0060               ??_SPI_send 0013                  _LCDBusy 15F8  
         ?_SPIportA_init 0001           ?_SPIportB_init 0001                ?_lcd_DHBK 0001  
                i1u40_20 13B4                  i1u37_20 12CC                  i1u46_20 1106  
             _lcd_gotoxy 154E                  i1u63_27 1570                  i1u48_20 1174  
                i1u64_27 15FA                  _SSP1BUF 000FC9                ?_lcd_init 0001  
                _Adc_isr 0018                ?_lcd_putc 0001                  __Hparam 0000  
                __Lparam 0000                  ___lwdiv 12AA                SPI_send@c 0013  
                ___lwmod 139A             __psmallconst 1000    __size_of_lcd_download 0050  
                __pcinit 158E                  __ramtop 1000                  _dhbkstr 100B  
                _d_write 14AE     __size_of_timer0_init 0014            ?_timer0_reset 0001  
                __ptext0 15D2                  __ptext1 157A                  __ptext2 15B2  
                __ptext3 123E                  __ptext4 14CE                  __ptext5 134C  
                __ptext6 12FC                  __ptext7 151E                  __ptext8 1536  
                __ptext9 15E0                  _lcd_cls 1564          __size_of_printf 0132  
        __size_of_tre_ms 001C    __end_of_timer_process 148E                  _i_write 148E  
                _dpowers 1001               ??_lcd_DHBK 0066      __end_of_Write_PortA 151E  
    __end_of_Write_PortB 1504               ??_lcd_init 0067           __pintcode_body 1192  
             ??_lcd_putc 0018     end_of_initialization 1596                  int_func 1192  
           _lcd_download 12FC                  printf@c 002A                  printf@f 001F  
                postdec2 000FDD               _timer0_isr 0008                  postinc2 000FDE  
       ??i2_timer0_reset 0001           ??_timer0_reset 0060          ??_SPIportA_init 0060  
        ??_SPIportB_init 0060     __size_of_Adc_process 0036                _TRISAbits 000F92  
            ?_lcd_gotoxy 0016              tre_ms@p10ms 0060              _Write_PortA 1504  
            _Write_PortB 14EA           __end_of_printf 1192           __end_of_tre_ms 14EA  
      __size_of_Adc_init 002C      start_initialization 158E        __size_of_SPI_init 000E  
      __size_of_SPI_send 0012              ?_timer0_isr 0001      __size_of_lcd_gotoxy 0016  
               ??_printf 0023                 ??_tre_ms 0062                 ?_LCDBusy 0001  
            __pbssCOMRAM 0042            __pcstackBANK0 0060        __size_of_lcd_DHBK 004E  
               ?_Adc_isr 0001        __size_of_lcd_init 006C     __end_of_timer0_reset 15C2  
      __size_of_lcd_putc 002E         ___lwdiv@dividend 0013                __pintcode 0008  
               ?___lwdiv 0013                 ?___lwmod 001A              __pintcodelo 0018  
               ?_d_write 0001                 ?_lcd_cls 0001                 ?_i_write 0001  
            __smallconst 1000          Write_PortA@mask 0014         ___lwdiv@quotient 0017  
    __size_of_timer0_isr 1236           __size_of_putch 000A                lcd_DHBK@i 0066  
               _IPR1bits 000F9F                 _PIE1bits 000F9D                 _PIR1bits 000F9E  
               _RCONbits 000FD0                 _SSP1CON1 000FC6            ??_timer0_init 0060  
               _Adc_init 1440               _ADCON0bits 000FC2                 _SPI_init 15E0  
               _SPI_send 15A0               printf@flag 0026               printf@prec 0027  
              lcd_putc@c 0018         __size_of_LCDBusy 000A             ??_lcd_gotoxy 0017  
            _INTCON2bits 000FF1         __size_of_Adc_isr 00CC   __size_of_timer_process 0022  
               __Hrparam 0000                 __Lrparam 0000       __end_of_lcd_gotoxy 1564  
       __size_of___lwdiv 0052         __size_of___lwmod 0042            ??_Adc_process 002B  
           ?_Write_PortA 0001             ?_Write_PortB 0001         __size_of_d_write 0020  
       __size_of_lcd_cls 0016      __end_of_timer0_init 158E    __end_of_SPIportA_init 154E  
       __size_of_i_write 0020    __end_of_SPIportB_init 1536                 _lcd_DHBK 134C  
        ___lwdiv@divisor 0015          ___lwdiv@counter 0019                 __ptext10 1440  
               __ptext20 14EA                 __ptext12 13DC                 __ptext21 1504  
               __ptext13 1060                 __ptext22 15A0                 __ptext14 15EE  
               __ptext23 15F8                 __ptext15 1412                 __ptext24 139A  
               __ptext16 154E                 __ptext25 12AA                 __ptext17 1564  
               __ptext18 148E                 __ptext27 15C2                 __ptext19 14AE  
               __ptext28 146C    __size_of_timer0_reset 0010                 _lcd_init 123E  
               _lcd_putc 1412            __size_of_main 000E                 d_write@d 0015  
           ??_timer0_isr 0001                 int$flags 0046                printf@val 0028  
               i_write@d 0015             _timer0_reset 15B2            _timer_process 146C  
             _INTCONbits 000FF2  __size_ofi2_timer0_reset 0010      __end_of_Adc_process 1412  
               intlevel1 0000                 intlevel2 0000       __end_of_timer0_isr 123E  
       ___lwmod@dividend 001A                 printf@ap 0024              _timer0_init 157A  
       lcd_download@addr 0064         lcd_download@data 0060           ?_timer_process 0001  
        ___lwmod@divisor 001C          ___lwmod@counter 001E            ?_lcd_download 0060  
