

Microchip Technology PIC18 LITE Macro Assembler V1.45 build -152302408 
                                                                                               Tue Sep 24 14:07:39 2019

Microchip Technology Omniscient Code Generator v1.45 (Free mode) build 201711160504
     1                           	processor	18F8722
     2                           	fnconf	rparam,??,?,0
     3                           	opt	pw 120
     4                           	opt	lm
     5                           	psect	text0,global,reloc=2,class=CODE,delta=1
     6                           	psect	cinit,global,reloc=2,class=CODE,delta=1
     7                           	psect	bssCOMRAM,global,class=COMRAM,space=1,delta=1,noexec
     8                           	psect	cstackCOMRAM,global,class=COMRAM,space=1,delta=1,noexec
     9                           	psect	text1,global,reloc=2,class=CODE,delta=1
    10                           	psect	text2,global,reloc=2,class=CODE,delta=1
    11                           	psect	text3,global,reloc=2,class=CODE,delta=1
    12                           	psect	text4,global,reloc=2,class=CODE,delta=1
    13                           	psect	intsave_regs,global,class=BIGRAM,space=1,delta=1,noexec
    14                           	psect	rparam,global,class=COMRAM,space=1,delta=1,noexec
    15  0000                     
    16                           ; Version 1.45
    17                           ; Generated 16/11/2017 GMT
    18                           ; 
    19                           ; Copyright © 2017, Microchip Technology Inc. and its subsidiaries ("Microchip")
    20                           ; All rights reserved.
    21                           ; 
    22                           ; This software is developed by Microchip Technology Inc. and its subsidiaries ("Microch
      +                          ip").
    23                           ; 
    24                           ; Redistribution and use in source and binary forms, with or without modification, are
    25                           ; permitted provided that the following conditions are met:
    26                           ; 
    27                           ;     1. Redistributions of source code must retain the above copyright notice, this lis
      +                          t of
    28                           ;        conditions and the following disclaimer.
    29                           ; 
    30                           ;     2. Redistributions in binary form must reproduce the above copyright notice, this 
      +                          list
    31                           ;        of conditions and the following disclaimer in the documentation and/or other
    32                           ;        materials provided with the distribution.
    33                           ; 
    34                           ;     3. Microchip's name may not be used to endorse or promote products derived from th
      +                          is
    35                           ;        software without specific prior written permission.
    36                           ; 
    37                           ; THIS SOFTWARE IS PROVIDED BY MICROCHIP "AS IS" AND ANY EXPRESS OR IMPLIED WARRANTIES,
    38                           ; INCLUDING, BUT NOT LIMITED TO, THE IMPLIED WARRANTIES OF MERCHANTABILITY AND FITNESS F
      +                          OR
    39                           ; PURPOSE ARE DISCLAIMED.  IN NO EVENT SHALL MICROCHIP BE LIABLE FOR ANY DIRECT, INDIREC
      +                          T,
    40                           ; INCIDENTAL, SPECIAL, EXEMPLARY, OR CONSEQUENTIAL DAMAGES (INCLUDING BUT NOT LIMITED TO
    41                           ; PROCUREMENT OF SUBSTITUTE GOODS OR SERVICES; LOSS OF USE, DATA OR PROFITS; OR BUSINESS
    42                           ; INTERRUPTION) HOWSOEVER CAUSED AND ON ANY THEORY OF LIABILITY, WHETHER IN CONTRACT, ST
      +                          RICT
    43                           ; LIABILITY, OR TORT (INCLUDING NEGLIGENCE OR OTHERWISE) ARISING IN ANY WAY OUT OF THE U
      +                          SE OF
    44                           ; THIS SOFTWARE, EVEN IF ADVISED OF THE POSSIBILITY OF SUCH DAMAGE.
    45                           ; 
    46                           ; 
    47                           ; Code-generator required, PIC18F8722 Definitions
    48                           ; 
    49                           ; SFR Addresses
    50  0000                     
    51                           ; 1 bytes @ 0x2
    52 ;;
    53 ;;Main: autosize = 0, tempsize = 0, incstack = 0, save=0
    54 ;;
    55 ;; *************** function _main *****************
    56 ;; Defined at:
    57 ;;		line 40 in file "Tn_02.c"
    58 ;; Parameters:    Size  Location     Type
    59 ;;		None
    60 ;; Auto vars:     Size  Location     Type
    61 ;;		None
    62 ;; Return value:  Size  Location     Type
    63 ;;                  1    wreg      void 
    64 ;; Registers used:
    65 ;;		wreg, status,2, status,0, cstack
    66 ;; Tracked objects:
    67 ;;		On entry : 0/0
    68 ;;		On exit  : 0/0
    69 ;;		Unchanged: 0/0
    70 ;; Data sizes:     COMRAM   BANK0   BANK1   BANK2   BANK3   BANK4   BANK5   BANK6   BANK7   BANK8   BANK9  BANK10  BANK1
      +1  BANK12  BANK13  BANK14  BANK15
    71 ;;      Params:         0       0       0       0       0       0       0       0       0       0       0       0       
      +0       0       0       0       0
    72 ;;      Locals:         0       0       0       0       0       0       0       0       0       0       0       0       
      +0       0       0       0       0
    73 ;;      Temps:          0       0       0       0       0       0       0       0       0       0       0       0       
      +0       0       0       0       0
    74 ;;      Totals:         0       0       0       0       0       0       0       0       0       0       0       0       
      +0       0       0       0       0
    75 ;;Total ram usage:        0 bytes
    76 ;; Hardware stack levels required when called:    1
    77 ;; This function calls:
    78 ;;		_init
    79 ;;		_lamtre
    80 ;;		_quayphai
    81 ;;		_quaytrai
    82 ;; This function is called by:
    83 ;;		Startup code after reset
    84 ;; This function uses a non-reentrant model
    85 ;;
    86                           
    87                           	psect	text0
    88  01FFDA                     __ptext0:
    89                           	opt stack 0
    90  0000                     _ADCON1	set	4033
    91  0000                     _TRISAbits	set	3986
    92  0000                     _PORTAbits	set	3968
    93  0000                     
    94                           ; #config settings
    95  01FFDA                     _main:
    96                           	opt stack 30
    97                           
    98                           ;Tn_02.c: 42: init();
    99                           
   100                           ;incstack = 0
   101  01FFDA  ECBC  F0FF         	call	_init	;wreg free
   102  01FFDE                     
   103                           ;Tn_02.c: 44: {
   104                           ;Tn_02.c: 45: lamtre();
   105  01FFDE  ECDE  F0FF         	call	_lamtre	;wreg free
   106                           
   107                           ;Tn_02.c: 46: if(chieutrai==1) quaytrai();
   108  01FFE2  0403               	decf	_chieutrai,w,c
   109  01FFE4  A4D8               	btfss	status,2,c
   110  01FFE6  D003               	goto	l42
   111  01FFE8  ECD1  F0FF         	call	_quaytrai	;wreg free
   112  01FFEC  D002               	goto	l43
   113  01FFEE                     l42:
   114                           
   115                           ;Tn_02.c: 47: else(quayphai());
   116  01FFEE  ECC4  F0FF         	call	_quayphai	;wreg free
   117  01FFF2                     l43:
   118                           
   119                           ;Tn_02.c: 48: if(PORTAbits.RA5==0)
   120  01FFF2  BA80               	btfsc	3968,5,c	;volatile
   121  01FFF4  D7F4               	goto	l41
   122                           
   123                           ;Tn_02.c: 49: {
   124                           ;Tn_02.c: 50: chieutrai^=1;
   125  01FFF6  0E01               	movlw	1
   126  01FFF8  1A03               	xorwf	_chieutrai,f,c
   127  01FFFA  BA80               	btfsc	3968,5,c	;volatile
   128  01FFFC  D7F0               	goto	l41
   129  01FFFE  D7FD               	goto	l46
   130  020000                     __end_of_main:
   131                           	opt stack 0
   132                           status	equ	0xFD8
   133                           
   134                           	psect	cinit
   135  01FF70                     __pcinit:
   136                           	opt stack 0
   137  01FF70                     start_initialization:
   138                           	opt stack 0
   139  01FF70                     __initialization:
   140                           	opt stack 0
   141                           
   142                           ; Clear objects allocated to COMRAM (1 bytes)
   143  01FF70  6A03               	clrf	__pbssCOMRAM& (0+255),c
   144  01FF72                     end_of_initialization:
   145                           	opt stack 0
   146  01FF72                     __end_of__initialization:
   147                           	opt stack 0
   148  01FF72  0100               	movlb	0
   149  01FF74  EFED  F0FF         	goto	_main	;jump to C main() function
   150                           status	equ	0xFD8
   151                           
   152                           	psect	bssCOMRAM
   153  000003                     __pbssCOMRAM:
   154                           	opt stack 0
   155  000003                     _chieutrai:
   156                           	opt stack 0
   157  000003                     	ds	1
   158                           status	equ	0xFD8
   159                           
   160                           	psect	cstackCOMRAM
   161  000001                     __pcstackCOMRAM:
   162                           	opt stack 0
   163  000001                     ??_lamtre:
   164  000001                     quaytrai@bit7led:
   165                           	opt stack 0
   166  000001                     quayphai@bit0led:
   167                           	opt stack 0
   168                           
   169                           ; 1 bytes @ 0x0
   170  000001                     	ds	1
   171  000002                     lamtre@dem:
   172                           	opt stack 0
   173  000002                     quaytrai@tam:
   174                           	opt stack 0
   175  000002                     quayphai@tam:
   176                           	opt stack 0
   177                           
   178                           ; 1 bytes @ 0x1
   179  000002                     	ds	1
   180  000003                     status	equ	0xFD8
   181                           
   182 ;; *************** function _quaytrai *****************
   183 ;; Defined at:
   184 ;;		line 19 in file "Tn_02.c"
   185 ;; Parameters:    Size  Location     Type
   186 ;;		None
   187 ;; Auto vars:     Size  Location     Type
   188 ;;  tam             1    1[COMRAM] unsigned char 
   189 ;;  bit7led         1    0[COMRAM] unsigned char 
   190 ;; Return value:  Size  Location     Type
   191 ;;                  1    wreg      void 
   192 ;; Registers used:
   193 ;;		wreg, status,2, status,0
   194 ;; Tracked objects:
   195 ;;		On entry : 0/0
   196 ;;		On exit  : 0/0
   197 ;;		Unchanged: 0/0
   198 ;; Data sizes:     COMRAM   BANK0   BANK1   BANK2   BANK3   BANK4   BANK5   BANK6   BANK7   BANK8   BANK9  BANK10  BANK1
      +1  BANK12  BANK13  BANK14  BANK15
   199 ;;      Params:         0       0       0       0       0       0       0       0       0       0       0       0       
      +0       0       0       0       0
   200 ;;      Locals:         2       0       0       0       0       0       0       0       0       0       0       0       
      +0       0       0       0       0
   201 ;;      Temps:          0       0       0       0       0       0       0       0       0       0       0       0       
      +0       0       0       0       0
   202 ;;      Totals:         2       0       0       0       0       0       0       0       0       0       0       0       
      +0       0       0       0       0
   203 ;;Total ram usage:        2 bytes
   204 ;; Hardware stack levels used:    1
   205 ;; This function calls:
   206 ;;		Nothing
   207 ;; This function is called by:
   208 ;;		_main
   209 ;; This function uses a non-reentrant model
   210 ;;
   211                           
   212                           	psect	text1
   213  01FFA2                     __ptext1:
   214                           	opt stack 0
   215  01FFA2                     _quaytrai:
   216                           	opt stack 30
   217                           
   218                           ;Tn_02.c: 21: {
   219                           ;Tn_02.c: 22: unsigned char tam,bit7led;
   220                           ;Tn_02.c: 23: tam=led;bit7led=tam&0x80; tam <<=1;
   221                           
   222                           ;incstack = 0
   223  01FFA2  CF8C F002          	movff	3980,quaytrai@tam	;volatile
   224  01FFA6  5002               	movf	quaytrai@tam,w,c
   225  01FFA8  0B80               	andlw	128
   226  01FFAA  6E01               	movwf	quaytrai@bit7led,c
   227  01FFAC  90D8               	bcf	status,0,c
   228  01FFAE  3602               	rlcf	quaytrai@tam,f,c
   229                           
   230                           ;Tn_02.c: 24: if ((bit7led)!=0) tam|=1;
   231  01FFB0  5001               	movf	quaytrai@bit7led,w,c
   232  01FFB2  A4D8               	btfss	status,2,c
   233  01FFB4  8002               	bsf	quaytrai@tam,0,c
   234                           
   235                           ;Tn_02.c: 25: led=tam;
   236  01FFB6  C002  FF8C         	movff	quaytrai@tam,3980	;volatile
   237  01FFBA  0012               	return		;funcret
   238  01FFBC                     __end_of_quaytrai:
   239                           	opt stack 0
   240                           status	equ	0xFD8
   241                           
   242 ;; *************** function _quayphai *****************
   243 ;; Defined at:
   244 ;;		line 28 in file "Tn_02.c"
   245 ;; Parameters:    Size  Location     Type
   246 ;;		None
   247 ;; Auto vars:     Size  Location     Type
   248 ;;  tam             1    1[COMRAM] unsigned char 
   249 ;;  bit0led         1    0[COMRAM] unsigned char 
   250 ;; Return value:  Size  Location     Type
   251 ;;                  1    wreg      void 
   252 ;; Registers used:
   253 ;;		wreg, status,2, status,0
   254 ;; Tracked objects:
   255 ;;		On entry : 0/0
   256 ;;		On exit  : 0/0
   257 ;;		Unchanged: 0/0
   258 ;; Data sizes:     COMRAM   BANK0   BANK1   BANK2   BANK3   BANK4   BANK5   BANK6   BANK7   BANK8   BANK9  BANK10  BANK1
      +1  BANK12  BANK13  BANK14  BANK15
   259 ;;      Params:         0       0       0       0       0       0       0       0       0       0       0       0       
      +0       0       0       0       0
   260 ;;      Locals:         2       0       0       0       0       0       0       0       0       0       0       0       
      +0       0       0       0       0
   261 ;;      Temps:          0       0       0       0       0       0       0       0       0       0       0       0       
      +0       0       0       0       0
   262 ;;      Totals:         2       0       0       0       0       0       0       0       0       0       0       0       
      +0       0       0       0       0
   263 ;;Total ram usage:        2 bytes
   264 ;; Hardware stack levels used:    1
   265 ;; This function calls:
   266 ;;		Nothing
   267 ;; This function is called by:
   268 ;;		_main
   269 ;; This function uses a non-reentrant model
   270 ;;
   271                           
   272                           	psect	text2
   273  01FF88                     __ptext2:
   274                           	opt stack 0
   275  01FF88                     _quayphai:
   276                           	opt stack 30
   277                           
   278                           ;Tn_02.c: 30: {
   279                           ;Tn_02.c: 31: unsigned char tam,bit0led;
   280                           ;Tn_02.c: 32: tam=led;bit0led=tam&0x01; tam >>=1;
   281                           
   282                           ;incstack = 0
   283  01FF88  CF8C F002          	movff	3980,quayphai@tam	;volatile
   284  01FF8C  5002               	movf	quayphai@tam,w,c
   285  01FF8E  0B01               	andlw	1
   286  01FF90  6E01               	movwf	quayphai@bit0led,c
   287  01FF92  90D8               	bcf	status,0,c
   288  01FF94  3202               	rrcf	quayphai@tam,f,c
   289                           
   290                           ;Tn_02.c: 33: if ((bit0led)!=0) tam|=0x80;
   291  01FF96  5001               	movf	quayphai@bit0led,w,c
   292  01FF98  A4D8               	btfss	status,2,c
   293  01FF9A  8E02               	bsf	quayphai@tam,7,c
   294                           
   295                           ;Tn_02.c: 34: led=tam;
   296  01FF9C  C002  FF8C         	movff	quayphai@tam,3980	;volatile
   297  01FFA0  0012               	return		;funcret
   298  01FFA2                     __end_of_quayphai:
   299                           	opt stack 0
   300                           status	equ	0xFD8
   301                           
   302 ;; *************** function _lamtre *****************
   303 ;; Defined at:
   304 ;;		line 14 in file "Tn_02.c"
   305 ;; Parameters:    Size  Location     Type
   306 ;;		None
   307 ;; Auto vars:     Size  Location     Type
   308 ;;  dem             1    1[COMRAM] unsigned char 
   309 ;; Return value:  Size  Location     Type
   310 ;;                  1    wreg      void 
   311 ;; Registers used:
   312 ;;		wreg, status,2, status,0
   313 ;; Tracked objects:
   314 ;;		On entry : 0/0
   315 ;;		On exit  : 0/0
   316 ;;		Unchanged: 0/0
   317 ;; Data sizes:     COMRAM   BANK0   BANK1   BANK2   BANK3   BANK4   BANK5   BANK6   BANK7   BANK8   BANK9  BANK10  BANK1
      +1  BANK12  BANK13  BANK14  BANK15
   318 ;;      Params:         0       0       0       0       0       0       0       0       0       0       0       0       
      +0       0       0       0       0
   319 ;;      Locals:         1       0       0       0       0       0       0       0       0       0       0       0       
      +0       0       0       0       0
   320 ;;      Temps:          1       0       0       0       0       0       0       0       0       0       0       0       
      +0       0       0       0       0
   321 ;;      Totals:         2       0       0       0       0       0       0       0       0       0       0       0       
      +0       0       0       0       0
   322 ;;Total ram usage:        2 bytes
   323 ;; Hardware stack levels used:    1
   324 ;; This function calls:
   325 ;;		Nothing
   326 ;; This function is called by:
   327 ;;		_main
   328 ;; This function uses a non-reentrant model
   329 ;;
   330                           
   331                           	psect	text3
   332  01FFBC                     __ptext3:
   333                           	opt stack 0
   334  01FFBC                     _lamtre:
   335                           	opt stack 30
   336                           
   337                           ;Tn_02.c: 16: unsigned char dem;
   338                           ;Tn_02.c: 17: for(dem=0;dem<250;dem++) _delay((unsigned long)((0.8)*(10000000/4000.0)));
   339                           
   340                           ;incstack = 0
   341  01FFBC  0E00               	movlw	0
   342  01FFBE  6E02               	movwf	lamtre@dem,c
   343  01FFC0                     l678:
   344  01FFC0  0EF9               	movlw	249
   345  01FFC2  6402               	cpfsgt	lamtre@dem,c
   346  01FFC4  D001               	goto	l20
   347  01FFC6  0012               	return	
   348  01FFC8                     l20:
   349  01FFC8  0E03               	movlw	3
   350  01FFCA  6E01               	movwf	??_lamtre& (0+255),c
   351  01FFCC  0E98               	movlw	152
   352  01FFCE                     u87:
   353  01FFCE  2EE8               	decfsz	wreg,f,c
   354  01FFD0  D7FE               	bra	u87
   355  01FFD2  2E01               	decfsz	??_lamtre& (0+255),f,c
   356  01FFD4  D7FC               	bra	u87
   357  01FFD6  2A02               	incf	lamtre@dem,f,c
   358  01FFD8  D7F3               	goto	l678
   359  01FFDA                     __end_of_lamtre:
   360                           	opt stack 0
   361                           wreg	equ	0xFE8
   362                           status	equ	0xFD8
   363                           
   364 ;; *************** function _init *****************
   365 ;; Defined at:
   366 ;;		line 7 in file "Tn_02.c"
   367 ;; Parameters:    Size  Location     Type
   368 ;;		None
   369 ;; Auto vars:     Size  Location     Type
   370 ;;		None
   371 ;; Return value:  Size  Location     Type
   372 ;;                  1    wreg      void 
   373 ;; Registers used:
   374 ;;		wreg, status,2
   375 ;; Tracked objects:
   376 ;;		On entry : 0/0
   377 ;;		On exit  : 0/0
   378 ;;		Unchanged: 0/0
   379 ;; Data sizes:     COMRAM   BANK0   BANK1   BANK2   BANK3   BANK4   BANK5   BANK6   BANK7   BANK8   BANK9  BANK10  BANK1
      +1  BANK12  BANK13  BANK14  BANK15
   380 ;;      Params:         0       0       0       0       0       0       0       0       0       0       0       0       
      +0       0       0       0       0
   381 ;;      Locals:         0       0       0       0       0       0       0       0       0       0       0       0       
      +0       0       0       0       0
   382 ;;      Temps:          0       0       0       0       0       0       0       0       0       0       0       0       
      +0       0       0       0       0
   383 ;;      Totals:         0       0       0       0       0       0       0       0       0       0       0       0       
      +0       0       0       0       0
   384 ;;Total ram usage:        0 bytes
   385 ;; Hardware stack levels used:    1
   386 ;; This function calls:
   387 ;;		Nothing
   388 ;; This function is called by:
   389 ;;		_main
   390 ;; This function uses a non-reentrant model
   391 ;;
   392                           
   393                           	psect	text4
   394  01FF78                     __ptext4:
   395                           	opt stack 0
   396  01FF78                     _init:
   397                           	opt stack 30
   398                           
   399                           ;Tn_02.c: 9: ADCON1=0x0F;
   400                           
   401                           ;incstack = 0
   402  01FF78  0E0F               	movlw	15
   403  01FF7A  6EC1               	movwf	4033,c	;volatile
   404                           
   405                           ;Tn_02.c: 10: led_io=0;
   406  01FF7C  0E00               	movlw	0
   407  01FF7E  6E95               	movwf	3989,c	;volatile
   408                           
   409                           ;Tn_02.c: 11: led=0x01;
   410  01FF80  0E01               	movlw	1
   411  01FF82  6E8C               	movwf	3980,c	;volatile
   412                           
   413                           ;Tn_02.c: 12: TRISAbits.RA5==1;
   414  01FF84  5092               	movf	3986,w,c	;volatile
   415  01FF86  0012               	return		;funcret
   416  01FF88                     __end_of_init:
   417                           	opt stack 0
   418  0000                     wreg	equ	0xFE8
   419                           status	equ	0xFD8
   420                           wreg	equ	0xFE8
   421                           status	equ	0xFD8
   422                           
   423                           	psect	rparam
   424  0000                     wreg	equ	0xFE8
   425                           status	equ	0xFD8


Data Sizes:
    Strings     0
    Constant    0
    Data        0
    BSS         1
    Persistent  0
    Stack       0

Auto Spaces:
    Space          Size  Autos    Used
    COMRAM           95      2       3
    BANK0           160      0       0
    BANK1           256      0       0
    BANK2           256      0       0
    BANK3           256      0       0
    BANK4           256      0       0
    BANK5           256      0       0
    BANK6           256      0       0
    BANK7           256      0       0
    BANK8           256      0       0
    BANK9           256      0       0
    BANK10          256      0       0
    BANK11          256      0       0
    BANK12          256      0       0
    BANK13          256      0       0
    BANK14          256      0       0
    BANK15           96      0       0

Pointer List with Targets:

    None.

Critical Paths under _main in COMRAM

    _main->_lamtre
    _main->_quayphai
    _main->_quaytrai

Critical Paths under _main in BANK0

    None.

Critical Paths under _main in BANK1

    None.

Critical Paths under _main in BANK2

    None.

Critical Paths under _main in BANK3

    None.

Critical Paths under _main in BANK4

    None.

Critical Paths under _main in BANK5

    None.

Critical Paths under _main in BANK6

    None.

Critical Paths under _main in BANK7

    None.

Critical Paths under _main in BANK8

    None.

Critical Paths under _main in BANK9

    None.

Critical Paths under _main in BANK10

    None.

Critical Paths under _main in BANK11

    None.

Critical Paths under _main in BANK12

    None.

Critical Paths under _main in BANK13

    None.

Critical Paths under _main in BANK14

    None.

Critical Paths under _main in BANK15

    None.

Call Graph Tables:

 ---------------------------------------------------------------------------------
 (Depth) Function   	        Calls       Base Space   Used Autos Params    Refs
 ---------------------------------------------------------------------------------
 (0) _main                                                 0     0      0     120
                               _init
                             _lamtre
                           _quayphai
                           _quaytrai
 ---------------------------------------------------------------------------------
 (1) _quaytrai                                             2     2      0      45
                                              0 COMRAM     2     2      0
 ---------------------------------------------------------------------------------
 (1) _quayphai                                             2     2      0      45
                                              0 COMRAM     2     2      0
 ---------------------------------------------------------------------------------
 (1) _lamtre                                               2     2      0      30
                                              0 COMRAM     2     2      0
 ---------------------------------------------------------------------------------
 (1) _init                                                 0     0      0       0
 ---------------------------------------------------------------------------------
 Estimated maximum stack depth 1
 ---------------------------------------------------------------------------------

 Call Graph Graphs:

 _main (ROOT)
   _init
   _lamtre
   _quayphai
   _quaytrai

 Address spaces:
Name               Size   Autos  Total    Cost      Usage
BIGRAM             F5F      0       0      37        0.0%
EEDATA             400      0       0       0        0.0%
BITBANK14          100      0       0      33        0.0%
BANK14             100      0       0      34        0.0%
BITBANK13          100      0       0      30        0.0%
BANK13             100      0       0      31        0.0%
BITBANK12          100      0       0      28        0.0%
BANK12             100      0       0      29        0.0%
BITBANK11          100      0       0      26        0.0%
BANK11             100      0       0      27        0.0%
BITBANK10          100      0       0      24        0.0%
BANK10             100      0       0      25        0.0%
BITBANK9           100      0       0      22        0.0%
BANK9              100      0       0      23        0.0%
BITBANK8           100      0       0      20        0.0%
BANK8              100      0       0      21        0.0%
BITBANK7           100      0       0      18        0.0%
BANK7              100      0       0      19        0.0%
BITBANK6           100      0       0      16        0.0%
BANK6              100      0       0      17        0.0%
BITBANK5           100      0       0      14        0.0%
BANK5              100      0       0      15        0.0%
BITBANK4           100      0       0      12        0.0%
BANK4              100      0       0      13        0.0%
BITBANK3           100      0       0      10        0.0%
BANK3              100      0       0      11        0.0%
BITBANK2           100      0       0       8        0.0%
BANK2              100      0       0       9        0.0%
BITBANK1           100      0       0       6        0.0%
BANK1              100      0       0       7        0.0%
BITBANK0            A0      0       0       4        0.0%
BANK0               A0      0       0       5        0.0%
BITBANK15           60      0       0      35        0.0%
BANK15              60      0       0      36        0.0%
BITCOMRAM           5F      0       0       0        0.0%
COMRAM              5F      2       3       1        3.2%
BITSFR               0      0       0     200        0.0%
SFR                  0      0       0     200        0.0%
STACK                0      0       0       2        0.0%
NULL                 0      0       0       0        0.0%
ABS                  0      0       3      32        0.0%
DATA                 0      0       3       3        0.0%
CODE                 0      0       0       0        0.0%


Microchip Technology PIC18 Macro Assembler V1.45 build -152302408 
Symbol Table                                                                                   Tue Sep 24 14:07:39 2019

                     l20 FFC8                       l41 FFDE                       l42 FFEE  
                     l43 FFF2                       l46 FFFA                       u87 FFCE  
            __CFG_OSC$HS 000000                      l678 FFC0                      _led 000F8C  
                    wreg 000FE8             __CFG_LVP$OFF 000000             __CFG_WDT$OFF 000000  
                   _main FFDA                     _init FF78                     start 0000  
           ___param_bank 000000                    ?_main 0001                    ?_init 0001  
                  status 000FD8          __initialization FF70             __end_of_main 0000  
           __end_of_init FF88                   ??_main 0003                   ??_init 0001  
          __activetblptr 000000                   _ADCON1 000FC1                   _led_io 000F95  
                 _lamtre FFBC         __end_of_quayphai FFA2         __end_of_quaytrai FFBC  
             __accesstop 0060  __end_of__initialization FF72            ___rparam_used 000001  
         __pcstackCOMRAM 0001                  ?_lamtre 0001          quayphai@bit0led 0001  
                __Hparam 0000                  __Lparam 0000                ?_quayphai 0001  
              ?_quaytrai 0001          __size_of_lamtre 001E                  __pcinit FF70  
                __ramtop 1000                  __ptext0 FFDA                  __ptext1 FFA2  
                __ptext2 FF88                  __ptext3 FFBC                  __ptext4 FF78  
   end_of_initialization FF72               ??_quayphai 0001               ??_quaytrai 0001  
              _PORTAbits 000F80                _TRISAbits 000F92           __end_of_lamtre FFDA  
    start_initialization FF70              quayphai@tam 0002              quaytrai@tam 0002  
               ??_lamtre 0001              __pbssCOMRAM 0003                _chieutrai 0003  
      __size_of_quayphai 001A        __size_of_quaytrai 001A          quaytrai@bit7led 0001  
              lamtre@dem 0002                 __Hrparam 0000                 __Lrparam 0000  
          __size_of_main 0026            __size_of_init 0010                 _quayphai FF88  
               _quaytrai FFA2  
