:04000000B8EFFFF066
:020000040001F9
:10FF7000036A0001EDEFFFF00F0EC16E000E956EEB
:10FF8000010E8C6E925012008CCF02F00250010BC9
:10FF9000016ED89002320150D8A4028E02C08CFFAC
:10FFA00012008CCF02F00250800B016ED890023606
:10FFB0000150D8A4028002C08CFF1200000E026E15
:10FFC000F90E026401D01200030E016E980EE82EA5
:10FFD000FED7012EFCD7022AF3D7BCECFFF0DEECF3
:10FFE000FFF00304D8A403D0D1ECFFF002D0C4EC9E
:10FFF000FFF080BAF4D7010E031A80BAF0D7FDD70C
:020000040020DA
:08000000FFFFFFFFFFFFFFFF00
:020000040030CA
:0E000000FF021F1EF38381FFFFC0FFE0FF40E1
:00000001FF
